:080000000270D70273EA3232EC
:07000B000278B001010000C2
:100013000200067B017A0679009002E87401F07F02
:06002300007ED80260A27D
:0D002B0002000775A15575A1AA43B110226E
:03003B0002744705
:1000430002348A1267F912264DBF01091279EA12A6
:10005300763312592612792B125274E4FF021502D9
:100063000272C1EF6013E4900293F0A3F090029147
:10007300F0A3F090028F020585900111E0FEA3E04A
:1000830024D5F582EE3401F583E493FD540175F034
:1000930002A424FFFEE5F034FF9002F3F0A3CEF0B8
:1000A300EDC313540175F002A424FFFEE5F034FF01
:1000B300A3F0A3CEF0900163E0FEA3E0FF9001A7BD
:1000C300E0FCA3E0FDD39FEC9E4008CEECCECFED49
:1000D300CF8000D3900160E09F90015FE09E4020BD
:1000E300900163E0FEA3E0FF9001A7E0FCA3E0FD25
:1000F300D39FEC9E4008CEECCECFEDCF800A800894
:1001030090015FE0FEA3E0FF9001A7EEF0A3EFF004
:10011300900165E0FEA3E0FF9001A9E0FCA3E0FDF0
:10012300D39FEC9E4008CEECCECFEDCF8000D39092
:100133000162E09F900161E09E4020900165E0FE36
:10014300A3E0FF9001A9E0FCA3E0FDD39FEC9E4058
:1001530008CEECCECFEDCF800A8008900161E0FE9F
:10016300A3E0FF9001A9EEF0A3EFF0900111E0FEF0
:10017300A3E024D5F582EE3401F583E493131354FD
:100183003F20E00302030A900153E0FEA3E0FF9047
:1001930001A7E0FCA3E0FDC39FEC9E9002F3E0FE09
:1001A3005037A3E0FFEEC0E0EFC0E0900153E0FE64
:1001B300A3E0FFC3ED9FFFEC9EFE3395E0FDFCE45F
:1001C300FB7A10F9F81249F3ECC0E0EDC0E0EEC0A1
:1001D300E0EFC0E090015B803BA3E0FFEEC0E0EF07
:1001E300C0E0900153E0FEA3E0FF9001A7E0FCA371
:1001F300E0C39FFFEC9EFE3395E0FDFCE4FB7A1029
:10020300F9F81249F3ECC0E0EDC0E0EEC0E0EFC056
:10021300E0900157E0FEA3E0FFCBEFCBCAEECAE4C8
:10022300F9F8D0E0FFD0E0FED0E0FDD0E0FC12769C
:10023300BDCDEFCDCCEECCD0E0FFD0E0FE1248BE7A
:100243009002F3EEF0A3EFF0900155E0FEA3E0FF80
:100253009001A9E0FCA3E0FDC39FEC9E9002F5E0B2
:10026300FE5037A3E0FFEEC0E0EFC0E0900155E0A1
:10027300FEA3E0FFC3ED9FFFEC9EFE3395E0FDFC84
:10028300E4FB7A10F9F81249F3ECC0E0EDC0E0EEBC
:10029300C0E0EFC0E090015D803BA3E0FFEEC0E073
:1002A300EFC0E0900155E0FEA3E0FF9001A9E0FC60
:1002B300A3E0C39FFFEC9EFE3395E0FDFCE4FB7AD5
:1002C30010F9F81249F3ECC0E0EDC0E0EEC0E0EF46
:1002D300C0E0900159E0FEA3E0FFCBEFCBCAEECA2A
:1002E300E4F9F8D0E0FFD0E0FED0E0FDD0E0FC126E
:1002F30076BDCDEFCDCCEECCD0E0FFD0E0FE124802
:10030300BE9002F5020495900153E0FEA3E0FF9036
:1003130001A7E0FCA3E0FDC39FEC9E9002F5E0FE85
:100323005037A3E0FFEEC0E0EFC0E0900153E0FEE2
:10033300A3E0FFC3ED9FFFEC9EFE3395E0FDFCE4DD
:10034300FB7A10F9F81249F3ECC0E0EDC0E0EEC01F
:10035300E0EFC0E090015B803BA3E0FFEEC0E0EF85
:10036300C0E0900153E0FEA3E0FF9001A7E0FCA3EF
:10037300E0C39FFFEC9EFE3395E0FDFCE4FB7A10A7
:10038300F9F81249F3ECC0E0EDC0E0EEC0E0EFC0D5
:10039300E0900157E0FEA3E0FFCBEFCBCAEECAE447
:1003A300F9F8D0E0FFD0E0FED0E0FDD0E0FC12761B
:1003B300BDCDEFCDCCEECCD0E0FFD0E0FE1248BEF9
:1003C3009002F5EEF0A3EFF0900155E0FEA3E0FFFD
:1003D3009001A9E0FCA3E0FDC39FEC9E9002F3E033
:1003E300FE503EA3E0FFEEC0E0EFC0E0900155E019
:1003F300FEA3E0FFC3ED9FFFEC9EFEC3E49FFFE47B
:100403009EFE3395E0FDFCE4FB7A10F9F81249F304
:10041300ECC0E0EDC0E0EEC0E0EFC0E090015D8035
:1004230042A3E0FFEEC0E0EFC0E0900155E0FEA381
:10043300E0FF9001A9E0FCA3E0C39FFFEC9EFEC395
:10044300E49FFFE49EFE3395E0FDFCE4FB7A10F9A4
:10045300F81249F3ECC0E0EDC0E0EEC0E0EFC0E01D
:10046300900159E0FEA3E0FFCBEFCBCAEECAE4F95B
:10047300F8D0E0FFD0E0FED0E0FDD0E0FC1276BD86
:10048300CDEFCDCCEECCD0E0FFD0E0FE1248BE9055
:1004930002F3EEF0A3EFF09002F5E0FEA3E0FFD34A
:1004A3009400EE648094804002800F9002F5E0FE99
:1004B300A3E0FFC3E49FFFE49EFE9002F3E0FCA3EE
:1004C300E0FDD39400EC648094804002800F90029E
:1004D300F3E0FCA3E0FDC3E49DFDE49CFCD3ED9FAE
:1004E300EE6480F8EC64809840259002F3E0FEA36C
:1004F300E0FFD39400EE6480948040028034900245
:10050300F3E0FEA3E0FFC3E49FFFE49EFE8023909D
:1005130002F5E0FEA3E0FFD39400EE6480948040F4
:1005230002800F9002F5E0FEA3E0FFC3E49FFFE427
:100533009EFECAEECACBEFCB900111E0FEA3E024EE
:10054300DCF582EE3401F583E493FF7E007C007DCD
:10055300151248BEC3EB9FFFEA9EFE9002F7F0A37D
:10056300EFF0D39400EE64809480501AE4900297E5
:10057300F0A3F0900295F0A3F0900293F0A3F09013
:100583000291F0A3F022900111E0FEA3E0FF24D436
:10059300F582EE3401F583E493540F24FE700302D5
:1005A300078E147003020AC3147003020FB92403E5
:1005B300600302150190028FE07002A3E060030262
:1005C3000798EF24DEF582EE3401F583E493701D82
:1005D300900111E0FEA3E024DFF582EE3401F58300
:1005E300E493700990028FF0A3F002071A900111AF
:1005F300E0FEA3E0FF24DEF582EE3401F583E4930D
:10060300FBEF24DFF582EE3401F583E493C39BFD16
:100613003395E0FC78039002F7E0FEA3E0CEA2E777
:1006230013CE13D8F8FF1248BEEEFD3395E0FCEB72
:1006330025E0FFE433FEED2FFFEC3E9002F7F0A33D
:10064300EFF0900295E0FEA3E0FFD39400EE648008
:1006530094804002800F900295E0FEA3E0FFC3E484
:100663009FFFE49EFE9002F7E0FCA3E0FDD39FEE24
:100673006480F8EC648098500A900295ECF0A3ED46
:10068300F0806B900111E0FEA3E024DDF582EE34EF
:1006930001F583E4932401FDE433FC900295E0FE2D
:1006A300A3E0FFC39002F8E09FFF9002F7E09EFEF5
:1006B300124925EEF0A3EFF04E7010900296E0047D
:1006C300F0701C900295E004F080149002F7E0FEB5
:1006D300A3E0FF900296E02FF0900295E03EF090A9
:1006E3000295E0FFA3E09002F7CFF0A3EFF09002B2
:1006F300F7E0FEA3E0FFC374649FFFE49EFE900255
:100703008FF0A3EFF0D39400EE64809480500890B0
:10071300028FE4F0A304F09002F3E0FEA3E0FFA352
:10072300E0FCA3E0FDD39FEE6480F8EC6480984086
:1007330026E49FFFE49EFED3ED9FEE6480F8EC6415
:100743008098900111E0FE4007A3E024D7020AB489
:10075300A3E024D9020AB49002F3E0FEA3E0FFC3AE
:10076300E49FFFE49EFED39002F6E09FEE6480F8E0
:100773009002F5E0648098900111E0FE4006A3E04A
:1007830024DA8004A3E024D8020AB490028FE07034
:1007930002A3E0600F900290E024FFF090028FE04C
:1007A30034FFF022900111E0FEA3E0FF24DEF58286
:1007B300EE3401F583E4937017EF24DFF582EE3412
:1007C30001F583E493700990028FF0A3F00208FD12
:1007D300900111E0FEA3E0FF24DEF582EE3401F583
:1007E30083E493FBEF24DFF582EE3401F583E49396
:1007F300C39BFD3395E0FC78039002F7E0FEA3E092
:10080300CEA2E713CE13D8F8FF1248BEEEFD339500
:10081300E0FCEB25E0FFE433FEED2FFFEC3E90021E
:10082300F7F0A3EFF0900295E0FEA3E0FFD394006E
:10083300EE648094804002800F900295E0FEA3E076
:10084300FFC3E49FFFE49EFE9002F7E0FCA3E0FDFC
:10085300D39FEE6480F8EC648098500A900295EC84
:10086300F0A3EDF0806B900111E0FEA3E024DDF531
:1008730082EE3401F583E4932401FDE433FC90021A
:1008830095E0FEA3E0FFC39002F8E09FFF9002F71C
:10089300E09EFE124925EEF0A3EFF04E7010900299
:1008A30096E004F0701C900295E004F0801490022E
:1008B300F7E0FEA3E0FF900296E02FF0900295E0B0
:1008C3003EF0900295E0FFA3E09002F7CFF0A3EF94
:1008D300F09002F7E0FEA3E0FFC374649FFFE49E81
:1008E300FE90028FF0A3EFF0D39400EE6480948027
:1008F300500890028FE4F0A304F09002F3E0FEA30B
:10090300E0FF7C007D031248BECAEECACBEFCBA347
:10091300E0FEA3E0FF7D071248BED3EF9BEA6480AD
:10092300F8EE648098403C9002F3E0FEA3E0FFE41D
:100933009FFFE49EFE7D031248BECAEECACBEFCBF7
:10094300A3E0FEA3E0FF7D071248BED3EF9BEA645A
:1009530080F8EE648098400B900111E0FEA3E02440
:10096300D780689002F3E0FEA3E0FF7C007D0312D2
:1009730048BECAEECACBEFCBA3E0FEA3E0FF7D07E0
:100983001248BEC3EF9BEA6480F8EE648098504A35
:100993009002F3E0FEA3E0FFC3E49FFFE49EFE7D2D
:1009A300031248BECAEECACBEFCBA3E0FEA3E0FF1F
:1009B3007D071248BEC3EF9BEA6480F8EE6480981B
:1009C3005018900111E0FEA3E024D8F582EE340123
:1009D300F583E493FD7FFF126C3E9002F3E0FEA3E8
:1009E300E0FF7C007D071248BECAEECACBEFCBA363
:1009F300E0FEA3E0FF7D031248BED3EF9BEA6480D1
:100A0300F8EE648098403C9002F3E0FEA3E0FFE43C
:100A13009FFFE49EFE7D071248BECAEECACBEFCB12
:100A2300A3E0FEA3E0FF7D031248BEC3EF9BEA648D
:100A330080F8EE648098500B900111E0FEA3E0244F
:100A4300D9806E9002F3E0FEA3E0FF7C007D0712E5
:100A530048BECAEECACBEFCBA3E0FEA3E0FF7D0303
:100A63001248BEC3EF9BEA6480F8EE6480984003AB
:100A73000215019002F3E0FEA3E0FFC3E49FFFE44D
:100A83009EFE7D071248BECAEECACBEFCBA3E0FEA3
:100A9300A3E0FF7D031248BED3EF9BEA6480F8EE28
:100AA3006480985003021501900111E0FEA3E02435
:100AB300DAF582EE3401F583E493FD7FFF026C3EA9
:100AC300900111E0FEA3E024DFF582EE3401F5830B
:100AD300E493FB3395E0FA78039002F3E0FEA3E09E
:100AE300CEA2E713CE13D8F8FFCDEBCDCCEACC12D0
:100AF30048BE7804EFCEA2E713CE13D8F8FF9002D6
:100B0300F3EEF0A3EFF07803A3E0FEA3E0CEA2E7B9
:100B130013CE13D8F8FFCDEBCDCCEACC1248BE7878
:100B230004EFCEA2E713CE13D8F8FF9002F5EEF050
:100B3300A3EFF0900295E0FEA3E0FFD39400EE64F0
:100B43008094804002800F900295E0FEA3E0FFC3F3
:100B5300E49FFFE49EFE9002F3E0FCA3E0FDD39448
:100B630000EC648094804002800F9002F3E0FCA3C9
:100B7300E0FDC3E49DFDE49CFCD3ED9FEE6480F8AF
:100B8300EC6480985002802E900295E0FEA3E0FF73
:100B9300D39400EE648094804002800F900295E02D
:100BA300FEA3E0FFC3E49FFFE49EFED3EF9420EE99
:100BB3006480948340129002F3E0FFA3E0900295D7
:100BC300CFF0A3EFF0020CE7900295E0FEA3E0FF65
:100BD300D39400EE6480948040028007C3E49FFFB7
:100BE300E49EFECCEECCCDEFCD900111E0FAA3E074
:100BF300FB24DEF582EA3401F583E49375F00AA45D
:100C0300FFD3ED9FE5F06480F8EC648098405DEBE2
:100C130024DDF582EA3401F583E4932401FDE43312
:100C2300FC900295E0FEA3E0FF9002F3E0FAA3E05C
:100C3300FBC39FFFEA9EFE1249259002F7EEF0A345
:100C4300EFF04E6003020CD3C3EA64809480500734
:100C53007EFF7FFF020CDBD3EB9400EA6480948079
:100C63007E0040047F0180027F00806C900111E0D0
:100C7300FEA3E024DDF582EE3401F583E49375F001
:100C83000AA42401FDE435F0FC900295E0FEA3E004
:100C9300FF9002F3E0FAA3E0FBC39FFFEA9EFE127C
:100CA30049259002F7EEF0A3EFF04E7023C3EA64F8
:100CB30080948050067EFF7FFF8013D3EB9400EA7D
:100CC300648094807E0040047F0180027F0080085E
:100CD3009002F7E0FEA3E0FF900296E02FF090026F
:100CE30095E03EF0900297E0FEA3E0FFD39400EE80
:100CF300648094804002800F900297E0FEA3E0FF9F
:100D0300C3E49FFFE49EFE9002F5E0FCA3E0FDD365
:100D13009400EC648094804002800F9002F5E0FC24
:100D2300A3E0FDC3E49DFDE49CFCD3ED9FEE648052
:100D3300F8EC6480985002802E900297E0FEA3E0C6
:100D4300FFD39400EE648094804002800F9002975A
:100D5300E0FEA3E0FFC3E49FFFE49EFED3EF9420F5
:100D6300EE6480948340129002F5E0FFA3E09002CA
:100D730097CFF0A3EFF0020E93900297E0FEA3E06B
:100D8300FFD39400EE6480948040028007C3E49F05
:100D9300FFE49EFECCEECCCDEFCD900111E0FAA3A3
:100DA300E0FB24DEF582EA3401F583E49375F00A6F
:100DB300A4FFD3ED9FE5F06480F8EC648098405A7B
:100DC300EB24DDF582EA3401F583E4932401FDE4A9
:100DD30033FC900297E0FEA3E0FF9002F5E0FAA354
:100DE300E0FBC39FFFEA9EFE124925A3EEF0A3EFAB
:100DF300F04E6003020E7FC3EA6480948050067E47
:100E0300FF7FFF807FD3EB9400EA648094807E00B1
:100E130040047F0180027F00806A900111E0FEA3FD
:100E2300E024DDF582EE3401F583E49375F00AA442
:100E33002401FDE435F0FC900297E0FEA3E0FF906F
:100E430002F5E0FAA3E0FBC39FFFEA9EFE124925E9
:100E5300A3EEF0A3EFF04E7023C3EA6480948050B6
:100E6300067EFF7FFF8013D3EB9400EA64809480B7
:100E73007E0040047F0180027F0080089002F7E03B
:100E8300FEA3E0FF900298E02FF0900297E03EF07F
:100E9300900295E0FEA3E0FF900292E02FF0900213
:100EA30091E03EF0900297E0FEA3E0FF900294E011
:100EB3002FF0900293E03EF0900291E0FEA3E0FF5A
:100EC300D39440EE64809460400280047EE07F40CF
:100ED300C3EF94C0EE6480949F5019900291E0FE9A
:100EE300A3E0FF9440EE648094604002800A7EE0B9
:100EF3007F4080047E1F7FC0900291EEF0A3EFF04D
:100F0300A3E0FEA3E0FFD39440EE6480946040022C
:100F130080047EE07F40C3EF94C0EE6480949F50D2
:100F230019900293E0FEA3E0FF9440EE6480946086
:100F33004002800A7EE07F4080047E1F7FC09002D3
:100F430093EEF0A3EFF0900291E0FCA3E0FD7806AE
:100F5300CEECCECEA2E713CE13D8F8900310F078E0
:100F630006900293E0FEA3E0CEA2E713CE13D8F8D7
:100F7300F404F9900311F0900310E0FF3395E0FEC1
:100F83007806EFC333CE33CED8F9FFC3ED9FFFEC22
:100F93009E900291F0A3EFF0E9FF3395E0FE78060F
:100FA300EFC333CE33CED8F9FF900294E02FF09005
:100FB3000293E03EF022900291E0FEA3E0FF900254
:100FC300F3E0FCA3E0FDC39FFFEC9EFE7802EFCEAF
:100FD300A2E713CE13D8F8FF9002F7EEF0A3EFF0D9
:100FE3004E7023C3EC6480948050067EFF7FFF80A5
:100FF3001DD3ED9400EC648094807E0040047F0157
:1010030080027F0080089002F7E0FEA3E0FF9002D9
:1010130092E02FF0900291E03EF0900293E0FEA365
:10102300E0FF9002F5E0FCA3E0FDC39FFFEC9EFE12
:101033007802EFCEA2E713CE13D8F8FF9002F7EEB3
:10104300F0A3EFF04E7023C3EC6480948050067ECF
:10105300FF7FFF801DD3ED9400EC648094807E00BD
:1010630040047F0180027F0080089002F7E0FEA326
:10107300E0FF900294E02FF0900293E03EF09002A4
:10108300F3E0FAA3E0FBD39400EA64809480900138
:1010930011E0FE4006A3E024DA8004A3E024D9F59E
:1010A30082EE3401F583E493FF900295E4F0A3EF1D
:1010B300F0D3ED9400EC64809480900111E0FE4045
:1010C30006A3E024D78004A3E024D8F582EE3401FC
:1010D300F583E493FF900297E4F0A3EFF090029579
:1010E300E0FEA3E0FFC3941EEE648094804017D318
:1010F300EF9427EE64809480500CEF25E0FFEE33ED
:10110300FEEF24C68027900295E0FEA3E0FFC39480
:1011130059EE648094804022D3EF9462EE6480940D
:10112300805017EF25E0FFEE33FEEF244FFFEE3440
:10113300FF900295F0A3EFF08007E4900295F0A3EF
:10114300F0900297E0FEA3E0FFC3941EEE64809448
:10115300804017D3EF9427EE64809480500CEF25E2
:10116300E0FFEE33FEEF24C68027900297E0FEA354
:10117300E0FFC39459EE648094804022D3EF9462DD
:10118300EE648094805017EF25E0FFEE33FEEF24EA
:101193004FFFEE34FF900297F0A3EFF08007E49047
:1011A3000297F0A3F0D3EB9401EA64809470400AB1
:1011B3009002F3E0FEA3E0FF80047EF07F01C3EF23
:1011C30094FFEE6480948F50199002F3E0FEA3E045
:1011D300FF9401EE648094704002800A7EF07F01E8
:1011E30080047E0F7FFF9002F3EEF0A3EFF0D3EDC8
:1011F3009401EC648094704008A3E0FEA3E0FF80B8
:10120300047EF07F01C3EF94FFEE6480948F501946
:101213009002F5E0FEA3E0FF9401EE648094704039
:1012230002800A7EF07F0180047E0F7FFF9002F52B
:10123300EEF0A3EFF0900295E0FEA3E0FFCBEFCB3F
:10124300CAEECAEA3395E0F9F8900291E0FEA3E012
:10125300FFEE3395E0FDFC1249F3C8ECC8C9EDC9B4
:10126300CAEECACBEFCB900111E0FEA3E024DFF579
:1012730082EE3401F583E493FFE4FCFDFE1249F3AF
:10128300E47B7DFAF9F81276BD900295EEF0A3EFB8
:10129300F0A3E0FEA3E0FFEE3395E0FDFC124B105C
:1012A300C8ECC8C9EDC9CAEECACBEFCB900293E034
:1012B300FEA3E0FFEE3395E0FDFC1249F3C8ECC852
:1012C300C9EDC9CAEECACBEFCB900111E0FEA3E092
:1012D30024DFF582EE3401F583E493FFE4FCFDFEA5
:1012E3001249F3E47B7DFAF9F81276BD900297EE8A
:1012F300F0A3EFF0900111E0FEA3E024DDF582EE10
:101303003401F583E493FFE4FCFDFE7BFF7A7FF970
:10131300F81249F3E47B32FAF9F81276BD9002F33E
:10132300EEF0A3EFF0900111E0FEA3E024DEF582DE
:10133300EE3401F583E493FFE4FCFDFE7BFF7A7F4B
:10134300F9F81249F3E47B32FAF9F81276BD900208
:10135300F5EEF0A3EFF0D3900296E094009002959F
:10136300E06480948040479002F3E0FEA3E0FFCB6B
:10137300EFCBCAEECAEA3395E0F9F8900295E0FEA6
:10138300A3E0FFEE3395E0FDFCEB2FFFEA3EFEE921
:101393003DFDE83CFCE47BFF7A7FF9F8C3124B1E6A
:1013A300500C9002F3747FF0A374FFF08055C39048
:1013B3000295E06480948050369002F3E0FEA3E04F
:1013C300FFCBEFCBCAEECAEA3395E0F9F89002956A
:1013D300E0FEA3E0FFEE3395E0FDFCEB2FEA3EE9F0
:1013E3003DE83C335009E49002F3F0A3F0801490FD
:1013F3000295E0FEA3E0FF9002F4E02FF09002F3E9
:10140300E03EF0D3900298E09400900297E064806D
:10141300948040479002F5E0FEA3E0FFCBEFCBCAF8
:10142300EECAEA3395E0F9F8900297E0FEA3E0FFF5
:10143300EE3395E0FDFCEB2FFFEA3EFEE93DFDE8D0
:101443003CFCE47BFF7A7FF9F8C3124B1E500C90EF
:1014530002F5747FF0A374FFF08056C3900297E007
:101463006480948050379002F5E0FEA3E0FFCBEF59
:10147300CBCAEECAEA3395E0F9F8900297E0FEA3EF
:10148300E0FFEE3395E0FDFCEB2FFFEA3EE93DE89C
:101493003C335009E49002F5F0A3F08014900297D6
:1014A300E0FEA3E0FF9002F6E02FF09002F5E03EAD
:1014B300F09002F3E0FCA3E0FDCFEDCF900316F034
:1014C300ECFFEFA3F09002F5E0FCA3E0FDCFEDCF3E
:1014D300900318F0ECFFEFA3F09003157411F09054
:1014E300028FE07002A3E07F0070027F017E009014
:1014F300028FEEF0A3EFF025E014900310F022E446
:101503009002F3F0A374FFF0E4F512F513EF604AD1
:101513009001F7E0FCA3E0FDA3E0FEA3E0FF90024F
:101523000E124B6B9001F7E0FCA3E0FDA3E0FEA3DA
:10153300E02401FFE43EFEED34FFFDEC34FFFC90BC
:101543000212124B6B7E007F107D007B017A0279C1
:101553006F124BE1E4900218F0229001F7A3A3A3CA
:10156300E0FF900219E0FEC3EF9EC3941450030200
:10157300264CE02414F090027FE0FEA3E0F5828E77
:101583008374F593700374F493602EE4F510744040
:101593002510F582E43401F583E060169001F7E04D
:1015A300FCA3E0FDA3E0FEA3E0FF900212124B6B4D
:1015B30080070510E510B410D5900218E0540FFF12
:1015C300BF021D7403F09001F7E0FCA3E0FDA3E06C
:1015D300FEA3E0FF90020E124B6B90021A74FFF011
:1015E300900218E0540F6403600302171790021669
:1015F300E0FEA3E0FFCBEFCBCAEECA90027FE0FE92
:10160300A3E0F5828E8374F893FE74F993FFEF2BB6
:10161300FFEE3AFEE433FDE433C0E0EDC0E0EEC09C
:10162300E0EFC0E090020EE0F8A3E0F9A3E0FAA334
:10163300E0FB9001F7E0FCA3E0FDA3E0FEA3E0C321
:101643009BFBEE9AFAED99F9EC98F8D0E0FFD0E025
:10165300FED0E0FDD0E0FCD3124B34500302171749
:1016630090027FE0FEA3E0F5828E8374F493FE7410
:10167300F593FF4E604C7C007D0A124BB4ECC0E046
:10168300EDC0E0EEC0E0EFC0E0900212E0F8A3E0AE
:10169300F9A3E0FAA3E0FB9001F7E0FCA3E0FDA3CC
:1016A300E0FEA3E0C39BFBEE9AFAED99F9EC98F800
:1016B300D0E0FFD0E0FED0E0FDD0E0FCD3124B340D
:1016C300405290027FE0FEA3E0F5828E8374FB9389
:1016D300700374FA93602E127550CCEECCCDEFCD1F
:1016E300AF8AEF6CFEEDFF90027FE0FCA3E0F58292
:1016F3008C8374FA93FC74FB93FD1248D0CEECCE2A
:10170300CFEDCF80047E007F00900216EEF0A3EFB2
:10171300F0E4A3F0900218E0540F60030218F604FB
:10172300F09001F7E0FCA3E0FDA3E0FEA3E0FF904F
:10173300020E124B6BE490021AF090027FE0FEA3BC
:10174300E0F5828E8374F193FF70030218D2EFD316
:101753009404501B90027FE0FEA3E0F5828E837415
:10176300F1931475F008A4FD74F0932D0218EA9018
:10177300027FE0FEA3E0F5828E8374F193B4050348
:101783000218F0E4F511F51090027FE0FEA3E0FFEC
:10179300F5828E8374EB932401FDE433FCC3E510DF
:1017A3009DEC6480F87480985035E510C39409501B
:1017B3002EE58224E0F582E43583F583E582251066
:1017C300F582E43583F583E493FF600DD3940450ED
:1017D3000874082511F51180020511051080A990E0
:1017E300027FE0FEA3E0F5828E8374F193B4060FCB
:1017F30090021CE004F0C39511402AE4F080261205
:101803007550AD8AEF6DFFAD117C001249258D1027
:1018130090021CE065107007E511D3940150E0902D
:10182300021CE510F0E4F511F51090027FE0FEA331
:10183300E0FFF5828E8374EB932401FDE433FCD344
:10184300E5109DEC6480F8748098507FE51094094E
:10185300507990021CE0F9E51199403DE51024DF31
:10186300FDE433FCEF2DF582EE3CF583E493600D4C
:10187300D394045008E92408C39511F511E5102405
:10188300DFFFE433FE90027FE0FCA3E02FF582EC60
:101893003EF583E493F510803290027FE0FCA3E0F1
:1018A30024E0F582E43CF583E5822510F582E435F6
:1018B30083F583E493600DD39404500874082511D1
:1018C300F51180020511051002182DE5107008901E
:1018D300021D74C8F0801CE510D39404500FE5106A
:1018E3001475F008A4251190021DF0800690021DC6
:1018F3007464F0900218E0540F640170599001F77A
:10190300A3A3E0FEA3E0FFCBEFCBCAEECA90020E87
:10191300A3A3E0FEA3E0FFC3EB9FFFEA9EFE9002BA
:101923007FE0FCA3E0F5828C83C374F7939F74F686
:10193300939E502290021DE064C8601A9001F7E064
:10194300FCA3E0FDA3E0FEA3E0FF90020E124B6BAD
:1019530090021AE004F090021DE0FFC39420500FA0
:10196300EF75F010A4247CF9747D35F0FA801B9098
:10197300021DE0B4643B900280E02490FF90027F5C
:10198300E03400FECAEECAC9EFC97BFFEBC0E0EA50
:10199300C0E0E9C0E0C8744FC8CC7402CCCD740178
:1019A300CDD0E0F9D0E0FAD0E0FB7E007F10124802
:1019B3003790027FE0FEA3E0FFCAEECAC9EFC97BFE
:1019C300FFEBC0E0EAC0E0E9C0E0C8741FC8CC7414
:1019D30002CCCD7401CDD0E0F9D0E0FAD0E0FB7EAB
:1019E300007F30124837E4F51090027FE0FEA3E059
:1019F300F5828E8374F3937003021B4474F2932075
:101A0300E003021B44E51075F003A4241FF582E4F0
:101A13003402F583E0FFE51075F003A42420F5827A
:101A2300E43402F583E0FDE51075F003A42421F509
:101A330082E43402F583E0C0E09003017401F0A373
:101A43007402F0A374F5F0A37401F0A37402F0A37D
:101A530074F7F0A37401F0A37402F0A374F9F0D047
:101A6300E0FB1263EA90027FE0FEA3E0F5828E833F
:101A730074F393FFCBEFCBE4FAF9F89001F7E0FCB2
:101A8300A3E0FDA3E0FEA3E0FF124A7EE47BEA7A33
:101A930003F9F8124A7ECCE8CCCDE9CDCEEACECF1D
:101AA300EBCF9002F6E02FF09002F5E03EF0C3A3F7
:101AB300E094EA9002F5E09403400CA3E02416F0CE
:101AC3009002F5E034FCF0E51075F003A4FFAEF0EE
:101AD300241FF974023EFA7B01EBC0E0EAC0E0E99F
:101AE300C0E074202FF974023EFAEBC0E0EAC0E0D4
:101AF300E9C0E074212FF974023EFA90030AEBF077
:101B0300A3EAF0A3E9F0D0E0F9D0E0FAD0E0900343
:101B130007F0A3EAF0A3E9F0D0E0F9D0E0FAD0E0CF
:101B2300900304F0A3EAF0A3E9F09002F5E0FEA32A
:101B3300E0FFA3E0FCA3E0FDA3E0FAA3E0FB125D5A
:101B43000290021DE064C86003021DBD90027FE0A5
:101B5300FEA3E0F5828E8374F793700374F693709B
:101B630003021DBD9001F7A3A3E0FEA3E0FFCBEFAB
:101B7300CBCAEECA90020EA3A3E0FEA3E0FFC3EB21
:101B83009FFBEA9EFA90027FE0FEA3E0F5828E833C
:101B930074F693FE74F793FFD394E8EE9403400234
:101BA30080047E037FE87C037DE81248D0CDEFCD2F
:101BB300CCEECCCFEBCFCEEACE1248D07C037DEA7D
:101BC3001248D09002F9ECF0A3EDF09002F9E0FE98
:101BD300A3E0FFC394F5EE9401402D74E99FF074E4
:101BE300039E9002F9F090027FE0FEA3E0F5828E5F
:101BF3008374FD9375F00384AFF07512008F139017
:101C03000218E04480F0802F90027FE0FEA3E0F50D
:101C1300828E8374FC9375F00384AFF07512008F8A
:101C230013900218E0B4810FE510B40F037402F0AF
:101C3300E49002F9F0A3F0900218E0540F640160FD
:101C430007E49002F9F0A3F0E5134512705DF51176
:101C530075F003E510A42511F582E435F0F583E56D
:101C630082241FF582E5833402F583E0FF7E009032
:101C730002F9E0FCA3E0FD124BB4E47BF47A01F932
:101C8300F8124A7E75F003E510A42511F582E435B8
:101C9300F0F583E582241FF582E5833402F583EFB3
:101CA300F00511E511B403A8021DB4E51364014561
:101CB300126003021D419002F9E0FEA3E0FF7C00E5
:101CC3007DFF124BB4E47BF47A01F9F8124A7E7477
:101CD300FC2FF582747B3EF583E493FF9002F9E4D5
:101CE300F0A3EFF0E4F51175F003E510A42511F569
:101CF30082E435F0F583E582241FF582E58334021F
:101D0300F583E0FF7E009002F9E0FCA3E0FD1248BA
:101D1300BE7C007DFF1248D075F003E510A42511A9
:101D2300F582E435F0F583E582241FF582E58334FB
:101D330002F583EFF00511E511B403AB8073900254
:101D4300F9E0FEA3E02407F582747A3EF583E49379
:101D5300FF9002F9E4F0A3EFF0E4F51175F003E569
:101D630010A42511F582E435F0F583E582241FF5EF
:101D730082E5833402F583E0FF7E009002F9E0FC04
:101D8300A3E0FD1248BE7C007DFF1248D075F0032E
:101D9300E510A42511F582E435F0F583E582241FCF
:101DA300F582E5833402F583EFF00511E511B40301
:101DB300AB9002F37401F0021F6E90021DE064C841
:101DC3007003021F6E744F2510F582E43402F5830D
:101DD300E0FF90021AE0FEEF6E6003021EC890025D
:101DE300F304F090027FE0FEA3E0F5828E8374FC9F
:101DF30093FFC3741F9FF513E49400F512D3E51307
:101E0300940AE512648094804015AE12AF137C00EF
:101E13007D0A1248BEEF24A6F513EE34FFF51274C3
:101E23006F2510F582E43402F583E0FFC374FF9F4E
:101E3300FFE49400FED3EF9513E5126480F8EE649B
:101E43008098746F400F2510F582E43402F583E027
:101E53002513F0800C2510F582E43402F58374FF1A
:101E6300F0E4F51175F003E510A42511F582E435CE
:101E7300F0F583E582241FF582E5833402F583E0E0
:101E8300FF7E00746F2510F582E43402F583E09041
:101E93007BFC93FD7C001248BE7DFF1248D075F099
:101EA30003E510A42511F582E435F0F583E58224DA
:101EB3001FF582E5833402F583EFF00511E511B4D4
:101EC30003A2021F6E90027FE0FEA3E0F5828E83E1
:101ED30074FD932401FDE433FC746F2510F582E453
:101EE3003402F583E0FBFF7E001249258E128F1327
:101EF300EB600BE51345127005F512751301746F52
:101F03002510F582E43402F583E0C39513F0E4F57C
:101F13001175F003E510A42511F582E435F0F5837E
:101F2300E582241FF582E5833402F583E0FF7E001A
:101F3300746F2510F582E43402F583E0FD7C001212
:101F430048BE7DFF1248D075F003E510A42511F5B6
:101F530082E435F0F583E582241FF582E5833402BC
:101F6300F583EFF00511E511B403A674402510F5D0
:101F730082E43401F583E0607990027FE0FCA3E022
:101F83002510F582E43CF5837460932401FDE4336A
:101F9300FC745F2510F582E43402F583E0FBFFC394
:101FA30074FF9FFFE49400FE1249258E128F13C322
:101FB30074FF9B600BE51345127005F51275130151
:101FC300745F2510F582E43402F583E02513F09065
:101FD300027FE0FCA3E02510F582E43CF5837480E6
:101FE30093FF9002F4E0D39F5003022099EFF00295
:101FF300209990027FE0FCA3E02510F582E43CF5F4
:10200300837470932401FDE433FC745F2510F5821F
:10201300E43402F583E0FBFF7E001249258E128F24
:1020230013EB600BE51345127005F512751301747C
:102033005F2510F582E43402F583E0C39513F0E4E1
:10204300F51175F003E510A42511F582E435F0F5DB
:1020530083E582241FF582E5833402F583E0FF9054
:10206300021BE0FEEF8EF0A4FFAEF07C007DFF12BA
:1020730048D075F003E510A42511F582E435F0F599
:1020830083E582241FF582E5833402F583EFF005AF
:1020930011E511B403AC90027FE0FEA3E0F5828E5C
:1020A3008374F393700302225774F29320E10302C3
:1020B300225790027FE0FCA3E0FDF5828C8375F04C
:1020C30003E510124BA8743093FF8D828C8375F057
:1020D30003E510124BA8743193FD90027FE0FAA33D
:1020E300E0F5828A8375F003E510124BA8743293EE
:1020F300C0E09003017401F0A37402F0A374F5F03F
:10210300A37401F0A37402F0A374F7F0A37401F0B5
:10211300A37402F0A374F9F0D0E0FB1263EA900217
:102123007FE0FEA3E0F5828E8374F393FFCBEFCBC6
:10213300E4FAF9F89001F7E0FCA3E0FDA3E0FEA3C5
:10214300E0FF124A7EE47BEA7A03F9F8124A7ECC76
:10215300E8CCCDE9CDCEEACECFEBCF9002F6E02F9F
:10216300F09002F5E03EF0C3A3E094EA9002F5E0BC
:102173009403400CA3E02416F09002F5E034FCF045
:102183009002F5E0FEA3E0FFA3E0FCA3E0FD9003D3
:10219300047401F0A37402F0A374FBF0A37401F0C0
:1021A300A37402F0A374FCF0A37401F0A37402F00F
:1021B300A374FDF09002F9E0FAA3E0FB125D029034
:1021C30002FBE0FFE51075F003A4241FF582E4345D
:1021D30002F583E0FDC3EF9DFFE49400FE745F25E9
:1021E30010F582E43402F583E0FD7C001248BE7DE5
:1021F300FF124925E51075F003A4241FF582E4348A
:1022030002F583E02FF09002FCE0FFE51075F00388
:10221300A42420F582E43402F583E0FDC3EF9DFF9F
:10222300E49400FE745F2510F582E43402F583E044
:10223300FD7C001248BE7DFF124925E51075F003B1
:10224300A42420F582E43402F583E02FF09002FD0C
:10225300E002231990027FE0FAA3E0FBF5828A8370
:1022630075F003E510124BA8743093FFE51075F079
:1022730003A4241FF582E43402F583E0FDC3EF9D3C
:10228300FFE49400FE745F2510F582E43402F583C5
:10229300E0FD7C001248BE7DFF124925E51075F074
:1022A30003A4241FF582E43402F583E02FF08B822C
:1022B3008A8375F003E510124BA8743193FFE51080
:1022C30075F003A42420F582E43402F583E0FDC312
:1022D300EF9DFFE49400FE745F2510F582E4340261
:1022E300F583E0FD7C001248BE7DFF124925E51011
:1022F30075F003A42420F582E43402F583E02FF083
:1023030090027FE0FEA3E0F5828E8375F003E51073
:10231300124BA8743293FFE51075F003A42421F542
:1023230082E43402F583E0FDC3EF9DFFE49400FEF5
:10233300745F2510F582E43402F583E0FD7C00121E
:1023430048BE7DFF124925E51075F003A42421F54D
:1023530082E43402F583E02FF00510E510C39410F6
:1023630050030219EC9002F3E0700A900218E05453
:102373000F6401603790027FE0FEA3E0F5828E8355
:1023830074F593700374F49360289001F7E0FCA351
:10239300E0FDA3E0FEA3E0FF900212E0F8A3E0F962
:1023A300A3E0FAA3E0FBC3124B3470069002187447
:1023B30002F090021BE0FB9002F4E0FAD39B40672B
:1023C30090027FE0FEA3E0F5828E8374FE93FF7498
:1023D3001F9FF513E49400F512D3E513940AE51255
:1023E300648094804015AE12AF137C007D0A1248BE
:1023F300BEEF24A6F513EE34FFF512EBFFEAC39FFD
:10240300FFE49400FED3EF9513E5126480F8EE64C5
:102413008098400990021BE02513F080509002F44D
:10242300E090021BF0804690021BE0FF9002F4E074
:10243300FEC39F5038EEFDC3EF9DFFE49400FE9072
:10244300027FE0FCA3E0F5828C8374FF932401FDFB
:10245300E433FC1249258E128F13E51345127005E0
:10246300F51275130190021BE0C39513F09001114F
:10247300E0FEA3E024FEF582EE3401F583E493FF4E
:10248300705EF510E51075F003A4241FF582E434A3
:1024930002F583E0FEE51075F003A4242BF8EEF6B5
:1024A300E51075F003A42420F582E43402F583E0FB
:1024B300FEE51075F003A4242AF8EEF6E51075F096
:1024C30003A42421F582E43402F583E0FEE51075CC
:1024D300F003A4242CF8EEF60510E510B410A522A1
:1024E300EF6403706AF510E5109081499375F0036A
:1024F300A4241FF582E43402F583E0FFE51075F0B0
:1025030003A4242BF8EFF6E5109081499375F003AB
:10251300A42420F582E43402F583E0FFE51075F08E
:1025230003A4242AF8EFF6E5109081499375F0038C
:10253300A42421F582E43402F583E0FFE51075F06D
:1025430003A4242CF8EFF60510E510B4109922909B
:102553000111E0FEA3E024FEF582EE3401F583E4ED
:1025630093FF64027075F510C37410951075F00332
:10257300A4241FF582E43402F583E0FEE51075F030
:1025830003A4242BF8EEF6E510FDC374109DFDE4BF
:102593009400FC90022075F003ED124BA8EC75F04B
:1025A30003A42583F583E0FEE51075F003A4242A34
:1025B300F8EEF690022175F003ED124BA8EC75F0DE
:1025C30003A42583F583E0FEE51075F003A4242C12
:1025D300F8EEF60510E510B4108E22EF6401706971
:1025E300F510E5109081399375F003A4241FF5824B
:1025F300E43402F583E0FFE51075F003A4242BF81F
:10260300EFF6E5109081399375F003A42420F58249
:10261300E43402F583E0FFE51075F003A4242AF8FF
:10262300EFF6E5109081399375F003A42421F58228
:10263300E43402F583E0FFE51075F003A4242CF8DD
:10264300EFF60510E510B4109922E49002DFF0A331
:10265300F0A3F0A3F0900337F0900335F090033428
:10266300F090030DF0C874BBC8CC7402CCCD7401D8
:10267300CD7B017A03791FFE7F151248377E007FD9
:10268300157D007B017A03791F124BE190030FE064
:102693009002B2F07E007F047D007B017A03790F04
:1026A300124BE19003147410F07E007F047DFF7BD6
:1026B300017A037916124BE190031CE09002B6F005
:1026C300E490031CF0900000E0C43354E02411F5BF
:1026D30082E43400F583E0FEA3E04E70037FFF2223
:1026E3009002ABE0604824D0F582E43401F583E046
:1026F30060229002ABE0243FF582E43401F583E0ED
:1027030070129002D1E054036003E014F09002D100
:10271300E04404F09002D0E07F0070027F01900259
:10272300D0EFF0700302338412415A023384E490F1
:1027330002E2F09002E2E0FFC3941040030227F2AA
:1027430074402FF582E43401F583E070030227E936
:10275300900000E0C43354E02411F582E43400F522
:1027630083C083C0829002E2E0D082D08375F002FE
:10277300124BA8E0FCA3E0F5828C83740193FEB4B2
:10278300010E9002B9E0FDEF6D60059002DF80530A
:10279300EEB402119002B9E0FF9002E2E06F60052F
:1027A3009002E0803E900000E0C43354E02411F531
:1027B30082E43400F583C083C0829002E2E0FFD05C
:1027C30082D08375F002124BA8E0FCA3E0F5828C63
:1027D30083740193B4070F9002B9E0FEEF6E6006B5
:1027E3009002E1E004F09002E2E004F0022736E414
:1027F3009002E2F09002E2E0FFC394104003022F44
:10280300619002B9E0FEEF6E70569002E2E0244060
:10281300F582E43401F583E06003022F5874D12F6D
:10282300F582E43401F583E06003022F589002AE91
:10283300E004F0E0D3940A5003022F58E4F090022E
:10284300E2E02403FF9002B4E0FD126C3E9002B17B
:10285300E0FF7D02126FA89002B974FFF0022F58B7
:102863009002E2E0FF2440F582E43401F583E07056
:1028730003022D8B900000E0C43354E02411F58251
:10288300E43400F58375F002EF124BA8E0FEA3E0F9
:10289300FFF5828E83740193B40106126C2D022F0F
:1028A30058900000E0C43354E02411F582E434006E
:1028B300F583C083C0829002E2E0D082D08375F0BA
:1028C30002124BA8E0FEA3E0FFF5828E837401930E
:1028D30064027040126C2D90031FE0FF900000E033
:1028E300C43354E02411F582E43400F583C083C07B
:1028F300829002E2E0D082D08375F002124BA8E00E
:10290300FCA3E0F5828C83740393FEEF4E90031FC8
:10291300F0022F58900000E0C43354E02411F582F4
:10292300E43400F583C083C0829002E2E0FFD082EA
:10293300D08375F002124BA8E0FCA3E0FDF5828C76
:1029430083740193640370559002DFE06003022FE8
:1029530058A3E06003022F58A3E06003022F5874CA
:10296300D12FF582E43401F583E06003022F589000
:1029730002E2E0049002ABF0ED2403FEE43C90029B
:10298300AFF0A3CEF0E49002A9F0A3F09002D174CB
:1029930002F09002D014F012415A022F5890000016
:1029A300E0C43354E02411F582E43400F583C0839A
:1029B300C0829002E2E0D082D08375F002124BA86D
:1029C300E0FEA3E0F5828E83740193FF6404600844
:1029D300EF64056003022B689002E2E0FF24D1F567
:1029E30082E43401F583E0700D74012FF582E43441
:1029F30000F5837402F0900000E0C43354E0241126
:102A0300F582E43400F583C083C0829002E2E0D013
:102A130082D08375F002124BA8E0FEA3E02402FFEC
:102A2300E43E8F82F583E493FE740193FFE4FCFD9F
:102A3300FB7A80F9F81249F3ECC0E0EDC0E0EEC098
:102A4300E0EFC0E0900111E0FEA3E024FAF582EE8E
:102A53003401F583E493FE740193FFCBEFCBCAEE0D
:102A6300CAE4F9F8D0E0FFD0E0FED0E0FDD0E0FC0E
:102A73001276BD9002E3EEF0A3EFF0900000E0C405
:102A83003354E02411F582E43400F583C083C0821B
:102A93009002E2E0D082D08375F002124BA8E0FEF0
:102AA300A3E02404FFE43E8F82F583E493FE7401E4
:102AB30093FFE4FCFDFB7A80F9F81249F3ECC0E0E4
:102AC300EDC0E0EEC0E0EFC0E0900111E0FEA3E056
:102AD30024FCF582EE3401F583E493FE740193FF45
:102AE300CBEFCBCAEECAE4F9F8D0E0FFD0E0FED0DA
:102AF300E0FDD0E0FC1276BD9002E5EEF0A3EFF02E
:102B03009002E3E0FCA3E0FDCFEDCF900316F0ECE1
:102B1300A3F09002E5E0FCA3E0FDCFEDCF90031816
:102B2300F0ECA3F0900000E0C43354E02411F582EC
:102B3300E43400F583C083C0829002E2E0FFD082D8
:102B4300D08375F002124BA8E0FCA3E0F5828C83DE
:102B5300740193B40507900314E04401F090031546
:102B6300EFF0022F58900000E0C43354E02411F535
:102B730082E43400F583C083C0829002E2E0FFD098
:102B830082D08375F002124BA8E0FCA3E0F5828C9F
:102B93008374019364066003022C7274039320E729
:102BA30003022F589002B9E0F46003022F5874D146
:102BB3002FF582E43401F583E06003022F5890007F
:102BC30000E0C43354E02411F582E43400F583C0FB
:102BD30083C0829002E2E0D082D08375F002124B70
:102BE300A8E0FCA3E0FDF5828C837402939002B409
:102BF300F0900000E0FF049002B1F074132FF5820F
:102C0300E43401F583E09002E7F08D828C83740352
:102C130093FF7D01126FA8900000E02413F582E476
:102C23003401F583E02404FF9002E7E0FEC3EF9E46
:102C33005403FF70069002E2E0802DEFB4010A9086
:102C430002E2E090813993801FEFB4020B9002E21D
:102C5300E0FFC374109F8010EF64036003022F61D1
:102C63009002E2E0908149939002B9F0022F6190C3
:102C73000000E0C43354E02411F582E43400F5830A
:102C8300C083C0829002E2E0FFD082D08375F0025D
:102C9300124BA8E0FCA3E0FDF5828C83740193F949
:102CA3006407703274D12FF582E43401F583E06058
:102CB30003022F588D828C8374039330E003022F19
:102CC300589002E2E02401F582E43400F583E04405
:102CD30002F0EF022E84E964096003022F58900288
:102CE300B7E0FF900000E0C43354E02411F582E420
:102CF3003400F583C083C0829002E2E0FED082D02C
:102D03008375F002124BA8E0FCA3E0F5828C837478
:102D130002935403FDC8EDC87401088002C333D87D
:102D2300FC4F9002B7F074D12EF582E43401F583A1
:102D3300E06003022F58900000E0C43354E02411F4
:102D4300F582E43400F583C083C0829002E2E0D0D0
:102D530082D08375F002124BA8E0FEA3E0F5828EC9
:102D630083740293C4540F9002B8F09002B7E0FF4B
:102D7300ED2404FEC8EEC87401088002C333D8FCF6
:102D83004F9002B7F0022F589002E2E0FF24D1F5F2
:102D930082E43401F583E0FE7003022F58900000B3
:102DA300E0C43354E02411F582E43400F58375F074
:102DB30002EF124BA8E0FCA3E0F5828C837401932D
:102DC300FFB40519EE7003022F589002E2E02401CC
:102DD300F582E43400F5837401F0022F58EF6406A2
:102DE3007043900000E0C43354E02411F582E434CE
:102DF30000F583C083C0829002E2E0D082D0837565
:102E0300F002124BA8E0FEA3E0F5828E83740393D5
:102E1300FF30E703022F589002B974FFF0E4FD126C
:102E23006FA8022F58900000E0C43354E02411F53A
:102E330082E43400F583C083C0829002E2E0FFD0D5
:102E430082D08375F002124BA8E0FCA3E0F5828CDC
:102E530083740193FE6407704E74039330E03474FB
:102E6300012FF582E43400F583E0FF20E125900291
:102E7300E2E0FD2401F582E43400F583EF4402F03F
:102E8300ED25E0241BF582E43401F583E4F0A3F09F
:102E9300022F589002E2E02401F582E43400F58326
:102EA300E054FDF0022F58EEB408037F0122900096
:102EB30000E0C43354E02411F582E43400F583C008
:102EC30083C0829002E2E0D082D08375F002124B7D
:102ED300A8E0FEA3E0F5828E837401936409707504
:102EE3007402935403D3940140399002B7E04480B1
:102EF300F0900000E0C43354E02411F582E4340080
:102F0300F583C083C0829002E2E0D082D08375F063
:102F130002124BA8E0FEA3E0F5828E837404939023
:102F230002B3F0900000E0C43354E02411F582E4CE
:102F33003400F583C083C0829002E2E0D082D08364
:102F430075F002124BA8E0FEA3E0F5828E837403B2
:102F5300939002B5F09002E2E004F00227F7E490C8
:102F630002E2F09002E2E0FFC39410400302317FDB
:102F7300900000E0C43354E02411F582E43400F5FA
:102F83008375F002EF124BA8E0FEA3E0F5828E8377
:102F9300740193FF64046008EF64056003023176F3
:102FA300900000E0C43354E02411F582E43400F5CA
:102FB30083C083C0829002E2E0D082D08375F002A6
:102FC300124BA8E0FEA3E0F5828E83740393FF64A3
:102FD300016008EF64026003023176900000E0C4F0
:102FE3003354E02411F582E43400F583C083C082B6
:102FF3009002E2E0D082D08375F002124BA8E0FE8B
:10300300A3E02402FFE43E8F82F583E493FE740180
:1030130093FFE4FCFDFB7A80F9F81249F3ECC0E07E
:10302300EDC0E0EEC0E0EFC0E0900111E0FEA3E0F0
:1030330024FAF582EE3401F583E493FE740193FFE1
:10304300CBEFCBCAEECAE4F9F8D0E0FFD0E0FED074
:10305300E0FDD0E0FC1276BD9002E3EEF0A3EFF0CA
:10306300900000E0C43354E02411F582E43400F509
:1030730083C083C0829002E2E0D082D08375F002E5
:10308300124BA8E0FEA3E02404FFE43E8F82F58305
:10309300E493FE740193FFE4FCFDFB7A80F9F812DC
:1030A30049F3ECC0E0EDC0E0EEC0E0EFC0E090011A
:1030B30011E0FEA3E024FCF582EE3401F583E493F2
:1030C300FE740193FFCBEFCBCAEECAE4F9F8D0E06C
:1030D300FFD0E0FED0E0FDD0E0FC1276BD9002E52B
:1030E300EEF0A3EFF09002E3E0FCA3E0FDCFEDCF21
:1030F300900316F0ECA3F09002E5E0FCA3E0FDCF13
:10310300EDCF900318F0ECA3F09002E2E0FF900300
:1031130015F0900000E0C43354E02411F582E43448
:1031230000F58375F002EF124BA8E0FEA3E0F582F1
:103133008E83740393640270240493900314B40580
:1031430006E04401F08004E054FEF09002E2E02443
:1031530001F582E43400F5837403F0801FE49003E7
:1031630014F09002E2E02401F582E43400F583E4F4
:10317300F080099002E2E004F0022F66E49002E896
:10318300F09002E2F09002E2E0FFC39410400302E9
:103193003368900000E0C43354E02411F582E43432
:1031A30000F58375F002EF124BA8E0FEA3E0F58271
:1031B3008E837401936407600302335F9001F7E029
:1031C300FCA3E0FDA3E0FEA3E0FF900281E0F8A3EF
:1031D300E0F9A3E0FAA3E0FBD3124B3440369002AC
:1031E300E2E0FF25E0241BF582E43401F583E4F0FB
:1031F300A3F074012FF582E43400F583E054FBF06F
:103203009002E2E02401F582E43400F583E054FD0A
:10321300F002335F9002E2E0FF2401F582E4340020
:10322300F583E020E10302335F900000E0C43354F0
:10323300E02411F582E43400F58375F002EF124BBC
:10324300A8E0FEA3E0FF2404FDE43E8D82F583E4C1
:1032530093FC7401934C7006126C2D023328900278
:10326300E2E0FF2401F582E43400F583E0FE30E27E
:103273001174012FF582E43400F583EE54FBF00260
:1032830033289001F7A3A3E0FEA3E0FF9002E2E05E
:1032930025E0241BF582E43401F583E0FCA3E0FD83
:1032A300C3EF9DFFEE9CFE900000E0C43354E02486
:1032B30011F582E43400F583C083C0829002E2E01A
:1032C300D082D08375F002124BA8E0FCA3E0FD246A
:1032D30004FBE43C8B82F583E493FA740193D39F5C
:1032E300EA9E50419002E2E0FF8D828C8374029348
:1032F300FDEF2403FF126C3E9001F7A3A3E0FEA3AE
:10330300E0FF9002E2E0FD25E0241BF582E43401B6
:10331300F583EEF0A3EFF074012DF582E43400F5AC
:1033230083E04404F0900000E0C43354E02411F53A
:1033330082E43400F583C083C0829002E2E0D0824D
:10334300D08375F002124BA8E0FEA3E0F5828E83D2
:1033530074039330E0069002E8E004F09002E2E0A8
:1033630004F00231889001F7E0FCA3E0FDA3E0FE46
:10337300A3E0FF900281124B6B9002E8E09002AD54
:10338300F01266CCE4FF120066E4FF125B1F9002AA
:10339300ABE070031265789002E27401F09002E2F0
:1033A300E0FF241EF582E43403F583E0FE74BA2FB4
:1033B300F582E43402F583E06E600890030D740136
:1033C300F0800A9002E2E004F0E0B416D09002B27A
:1033D300E0FF90030FE06F6002801D9002E2740231
:1033E300F09002E2E0FFC39405501D740E2FF582A6
:1033F300E43403F583E060089003347401F080083B
:103403009002E2E004F080D99002E27403F09002AB
:10341300E2E0FFC39407501E74132FF582E43403D4
:10342300F583E0F460089003357401F0800890029E
:10343300E2E004F080D89002B6E0FF90031CE06F56
:1034430060069003377401F09002B9E0F4601D90B8
:10345300030DE07012900334E0700C900335E070BC
:1034630006900337E06005E49002B4F09002ACE00C
:10347300B40111E4900337F0900335F0900334F076
:1034830090030DF07F0022C0E0C0F0C083C082C073
:10349300D075D00820D903024111E5D9543F7003F8
:1034A300024100147003023C6C14602E24E270038A
:1034B300024073147003023C6224F17003023CDF88
:1034C300240E600302410D75D50063D440C20CE5A0
:1034D300D454FC4402F5D402410D20DE0302410D15
:1034E30063D480AFDB9002DAE4F0A3EFF09002DA6A
:1034F300A3E0F5D590031AE030E75790057FE07518
:10350300F040A42400F9740635F0FAC8E9C8CCEAFF
:10351300CCCD7401CD7B017A0579007E007F40120A
:1035230048379005407452F0A37444F090057FE04F
:10353300FF04F0900542EFF090057EE0FFA3E0C3A7
:103543009F5003023C5CE4F090031AE0547FF002C6
:103553003C5C9005407452F0900501E0900541F009
:10356300900502E0900542F0900503E0900543F0DA
:10357300900500E0B44410A3E0B44B0BA3E0B442C5
:1035830006A3E06443601A900500E064447052A30C
:10359300E0644C704CA3E064547046A3E064437051
:1035A30040900504E0C394314037E0D39438503160
:1035B300900501E090057EB44B0B7408F090050470
:1035C300E024D980097404F0900504E024ED90030D
:1035D3001AF090057FE4F090031AE04480F0023C77
:1035E3005C900500E064437023A3E0B44B1EA3E0AA
:1035F300B45919A3E0B45414900544E527F0900599
:1036030004E0F527900545E5270238B9900500E069
:1036130064436003023754A3E064526003023754E7
:10362300A3E0644B6003023754A3E0644D600302DC
:103633003754900153E0FFA3E0900544CFF0A3EF8C
:10364300F0900155E0FFA3E0900546CFF0A3EFF023
:10365300900164E02401FF900163E03400FE9001D7
:10366300A7E0FCA3E0FDD39FEC9E4008CEECCECFB9
:10367300EDCF8000900160E024FFFD90015FE03416
:10368300FFFCC3EF9DEE9C5026900164E02401FFF4
:10369300900163E03400FE9001A7E0FCA3E0FDD3BA
:1036A3009FEC9E4008CEECCECFEDCF8010800E90E5
:1036B3000160E024FFFF90015FE034FFFE900153BF
:1036C300EEF0A3EFF0900166E02401FF900165E0C6
:1036D3003400FE9001A9E0FCA3E0FDD39FEC9E40E3
:1036E30008CEECCECFEDCF8000900162E024FFFD49
:1036F300900161E034FFFCC3EF9DEE9C50269001E6
:1037030066E02401FF900165E03400FE9001A9E02A
:10371300FCA3E0FDD39FEC9E4008CEECCECFEDCFD3
:103723008010800E900162E024FFFF900161E0347D
:10373300FFFE900155EEF0A3EFF0900153E0FDA3DF
:10374300E0900548CDF0A3EDF0A3EEF0A3EF02382F
:10375300B9900500E064436003023877A3E0645244
:103763006003023877A3E0644B6003023877A3E079
:10377300645A6003023877900163E0FFA3E0900589
:1037830044CFF0A3EFF090015FE0FFA3E090054684
:10379300CFF0A3EFF0900165E0FFA3E0900548CFE1
:1037A300F0A3EFF0900161E0FFA3E090054ACFF0B2
:1037B300A3EFF0900504E0FEA3E0FF900153E0FCCB
:1037C300A3E0FDC3EF9DEE9C400302386C90050619
:1037D300E0FEA3E09DEE9C500302386CA3E0FEA341
:1037E300E0FF900155E0FCA3E0FDEF9DEE9C5079D6
:1037F30090050AE0FEA3E09DEE9C406D900504E079
:10380300FFA3E0900163CFF0A3EFF0900506E0FF84
:10381300A3E090015FCFF0A3EFF0900508E0FFA3D2
:10382300E0900165CFF0A3EFF090050AA3E0FF90CD
:103833000161EEF0A3EFF0A3E0FDA3E090054CCD12
:10384300F0A3EDF090015FE0FDA3E090054ECDF015
:10385300A3EDF0900165E0FDA3E0900550CDF0A34A
:10386300EDF0A3EEF0A3EF804D90054C74FFF0A3B1
:10387300F0023C5C900500E064437044A3E06445BF
:10388300703EA3E064437038A3E064447032A20F37
:1038930033900544F0A210E433A3F0900504E02430
:1038A300FF920FA3E024FF9210A20FE4339005468A
:1038B300F0A210E433A3F090031A7432F0023C5CDC
:1038C300900500E0B44313A3E0B4450EA3E0B44372
:1038D30009A3E064467003023C5C900500E0644287
:1038E3007028A3E0B44623A3E0B4571EA3E0B45664
:1038F30019C87444C8CC7405CCCD7401CD7BFF7A50
:1039030000790E7E007F04023B45900500E064428F
:103913006003023A63A3E064556003023A63A3E0E1
:1039230064496003023A63A3E064446003023A63B8
:1039330090057DF090057DE0FF25E0243FF582E4CE
:103943003403F583E0FE74442FF582E43405F583F4
:10395300EEF090057DE02444F582E43405F583E040
:10396300C39430402790057DE02444F582E4340578
:10397300F583E0D39439501490057DE02444F58217
:10398300E43405F583E024D0F0023A1090057DE09D
:103993002444F582E43405F583E0C3946140269022
:1039A300057DE02444F582E43405F583E0D3946691
:1039B300501390057DE02444F582E43405F583E05B
:1039C30024A9F0804890057DE02444F582E4340581
:1039D300F583E0C39441402690057DE02444F582BD
:1039E300E43405F583E0D39446501390057DE02439
:1039F30044F582E43405F583E024C9F0800F900593
:103A03007DE02444F582E43405F583E4F090057DFC
:103A1300E004F0E0640C600302393790057DE4F0C4
:103A230090057DE0FF25E02444F582E43405F58329
:103A3300E0C454F0FEEF25E02445F582E43405F5B7
:103A430083E04EFF90057DE02444F582E43405F5E0
:103A530083EFF090057DE004F0E0B406C3023C5C24
:103A6300900500E064426003023B18A3E0644960F0
:103A730003023B18A3E064506003023B18A3E06415
:103A8300546003023B189001A7E0FFA3E0900544B4
:103A9300CFF0A3EFF09001A9E0FFA3E0900546CF9C
:103AA300F0A3EFF0A3124B770000000090057DE434
:103AB300F0900548C083C082E0F8A3E0F9A3E0FAE0
:103AC300A3E0FBE8C0E0E9C0E0EAC0E0EBC0E090BF
:103AD300057DE0F92440F582E43401F583E0FFE459
:103AE300FCFDFEC8E9C8124B58D0E0FBD0E0FAD089
:103AF300E0F9D0E0F8EB4FFFEA4EFEE94DFDE84C6C
:103B0300FCD082D083124B6B90057DE004F0E0B4CF
:103B1300139F023C5C900500E06442702BA3E0B469
:103B23004726A3E0B45021A3E0B44D1CC87444C895
:103B3300CC7405CCCD7401CD7BFF7ADA79007E009D
:103B43007F38124837023C5C900500E06442701DE8
:103B5300A3E0B44418A3E0B44713A3E0B4430E7B3B
:103B6300017A0579447D38127883023C5C90050024
:103B7300E064427028A3E064527022A3E0B4531DB2
:103B8300A3E0B454187E007F3C7D207B017A057945
:103B930044124BE190031A7464F0023C5C900500FC
:103BA300E064427028A3E064427022A3E0B44F1D96
:103BB300A3E0B454187E007F3C7D207B017A057915
:103BC30044124BE190031A7465F0023C5C900500CB
:103BD300E064427054A3E06443704EA3E064537006
:103BE30048A3E064437042FE7F3C7D207B017A055D
:103BF3007944124BE1900000E02431900544F090A9
:103C03000504E0C394314019E0D394385013E09095
:103C13000545F024CF900600F090031A7466F080F7
:103C23003890054574FFF08030900500E0B44217EA
:103C3300A3E0B44212A3E0B4550DA3E0B45A089034
:103C4300031A7467F080129005407452F0A374490C
:103C5300F0A3744EF0A37456F053D4FC02410D75D7
:103C6300D30063D240C20B8068AFDB9002DAE4F08A
:103C7300A3EFF09002DAE0FEA3E0FF4E6053D3EF30
:103C83009402EE9400504A9002DAA3E0247FF58276
:103C930074053EF583E0FF7E009002DAEEF0A3EFB9
:103CA300F07F0020E0027F01EF24FFB3920A90022D
:103CB300DAE0FEA3E0FF7D0020E1027D01ED24FFB9
:103CC300B3920DEF7F0020E2027F01EF24FFB39256
:103CD30009E5D254FC4402F5D202410D75DCC0AFB4
:103CE300DB9002DAE4F0A3EFF09002DAE07004A3D1
:103CF300E0640860030240489004C7E0FE9004C6F5
:103D0300E07C002400FFEC3E90033AF0A3EFF09038
:103D130002DAE4F0A3F09002D9F09004C1E090033A
:103D23003CF09004C0E05460601A90033CE014241B
:103D3300FD400302404E24FB24FD400302404E801D
:103D43000002404890033CE0B40B004003024046AD
:103D5300903D5AF828287302401B023F4A0240460E
:103D6300023F9A024046023F07023D7B0240460261
:103D73003F13023F3802404E9004C3E024FE602B01
:103D830014604224E17003023E4124216003023E99
:103D93008090035974FFF0A3747FF0A3748CF090A8
:103DA30002DAE4F0A37412F0023E8690035974FF22
:103DB300F0A37480F0A374E3F09002DAE4F0A37448
:103DC30049F0023E869004C2E014602714603D145B
:103DD300605324036003023E8090035974FFF0A3F1
:103DE300747FF0A3749EF09002DAE4F0A37404F0FD
:103DF300023E8690035974FFF0A3747FF0A374B856
:103E0300F09002DAE4F0A37424F0807790035974FD
:103E1300FFF0A3747FF0A374A2F09002DAE4F0A39E
:103E23007416F0805E9003597401F0A37403F0A339
:103E3300743DF09002DAE4F0A3741AF08045900424
:103E4300C4E0FF701990035974FFF0A3747FF0A3CB
:103E530074DCF09002DAE4F0A374E5F08025EFB4AB
:103E6300011990035974FFF0A37480F0A374C1F097
:103E73009002DAE4F0A37422F0800880009002D963
:103E830074FFF09002DAE0FEA3E0FFD390033BE07F
:103E93009F90033AE09E4005EEF0A3EFF090033AC3
:103EA300E0FEA3E0FFC39440EE9400400C7C007D51
:103EB30040CEECCECFEDCF80009002DAEEF0A3EF50
:103EC300F09002DAE0FEA3E0FFC874C0C8CC74042B
:103ED300CCCD7401CD900359E0FBA3E0FAA3E0F944
:103EE3001248379002DAE0FEA3E0FFC390033BE001
:103EF3009FF090033AE09EF090035AEE8FF0124940
:103F03005B02404E9004C2E0FF90033AE40240405B
:103F1300900339E09004C0F0C390033BE094019018
:103F2300033AE09400500302404E9002DAE4F0A317
:103F330004F002404E9004C2E0900339F070030293
:103F4300404ED20E02404E9004C0E0541FFF640264
:103F530070359004C4E014601E1460202481600D49
:103F630014701EE5D454BC4402F5D4801AE5D2542F
:103F7300BC4402F5D2801053D273800B53D47380A8
:103F8300069002D974FFF0EF700A900338E054FEF4
:103F9300F002404E0240489004C0E0541FFD7026DA
:103FA3009004C3E0FE9004C2E0FBEB64014E701486
:103FB3009080EA9330E50A900338E04401F0024030
:103FC3004E024048807FED6402704B9004C3E0FED4
:103FD3009004C2E0FDED4E703B9004C5E0FE9004FA
:103FE300C4E0FDEDFFEE702AEF24FE601124816032
:103FF3001714701EE5D454BF4403F5D4804DE5D4A3
:10400300547F440CF5D48043E5D254BF4403F5D226
:1040130080398031802F802D9004C1E4F09004C05A
:10402300F090033AE0FEA3E0FFC39402EE94009005
:1040330002DA4008E4F0A37402F0800FEEF0A3EF7D
:10404300F0800880009002D974FFF09002D9E0B4A8
:10405300FF0675DCCF02410D9002DAE0FEA3E0FF1C
:104063004E60048FDD800375DD0075DCC002410DF9
:1040730090033CE024FB606E14707A90033AE0FEF8
:10408300A3E0FFC39440EE9400400C7C007D40CE3F
:10409300ECCECFEDCF80009002DAEEF0A3EFF090FC
:1040A30002DAE0FEA3E0FFC874C0C8CC7404CCCD30
:1040B3007401CD900359E0FBA3E0FAA3E0F91248A1
:1040C300379002DAE0FEA3E0FFC390033BE09FF0EA
:1040D30090033AE09EF090035AEE8FF012495B8F03
:1040E300DD63DC40802490033AA3E0FFE5E35480E2
:1040F3004FF5E3800375DD0075DC02800DAFDB90C7
:1041030002DAE4F0A3EFF063DC80C2D9803E30D85A
:104113001F75DC0275D20275D40275E300C2DAC2E0
:10412300D9C20EC20BC20C900338E4F0C2D8801C73
:1041330030DA16C2DAE5DA90033830E206E04402F8
:10414300F08009E054FDF0800375D8FFD0D0D08211
:10415300D083D0F0D0E0329002E97403F09001F7FD
:10416300E0FCA3E0FDA3E0FEA3E0FF900289E0F8FA
:10417300A3E0F9A3E0FAA3E0FBD3124B34400A9087
:104183000285124B77000000009001F7E0FCA3E0EA
:10419300FDA3E0FEA3E0FF900289124B6B9001F7B1
:1041A300E0FCA3E0FDA3E0FEA3E0FF900285E0F8BE
:1041B300A3E0F9A3E0FAA3E0FBD3124B34400C9045
:1041C30002AC7401F0E49002D0F022E49002ACF06F
:1041D3009002EEF0A3F09002ABE0FF603B90000092
:1041E300E075F020A4240FF582E5F03400F5837523
:1041F300F002EF124BA8E0FEA3E0FFF5828E83747A
:104203000293FD7C00EF2403FFE43EFEEF2DFFEC61
:104213003E9002EEF0A3EFF09002E9E0C394164063
:10422300030247669002EEE0FEA3E0FF9002AFE0D8
:10423300FCA3E0FDC39FEC9E4004E402461D8D8277
:104243008C83E493FFB4EA31ED2401FBE43C8B82DD
:10425300F583E493FE54019002D0F0EE30E109902F
:1042630002B0E024020244089002B0E004F07006B9
:104273009002AFE004F0024755EF64EB60030243A2
:10428300A5ED2401FFE43C8F82F583E493FBB402A4
:104293001EED2404FEE43C90028DF0A3CEF09002C8
:1042A300B0E02404F09002AFE03400F002475590F0
:1042B30002AAE004F070069002A9E004F0ED2402E3
:1042C300FFE43C8F82F583E493FEED2403FDE43C9D
:1042D3008D82F583E493FDEDFF9002EAEEF0A3EF08
:1042E300F0EB600B9002D1E030E2045403603390B2
:1042F30002AFE0FEA3E02401FFE43E8F82F583E4F6
:104303009370079002D1E020E2189002EAE0FEA346
:10431300E0FF4E60149002A9E0FCA3E0C39FEC9E73
:1043230040079002D1E04480F09002D1E0FF30E7F3
:10433300279002B0E02403F09002AFE03400F0EFE6
:10434300547B9002D1F0E49002A9F0A3F074FF90A3
:10435300028DF0A3F002475590028DE0FEA3E0FF2B
:10436300F47002EEF460069002AFEE80309000002D
:10437300E075F020A4240FF582E5F03400F583C046
:1043830083C0829002ABE0D082D08375F002124BDF
:10439300A8E0FEA3E02403FFE43E9002AFF0A3EF06
:1043A300F0229002AFE0FEA3E0F5828E83E49364F3
:1043B300FE705B9002AFE0FCA3E0FD2401FFE43C50
:1043C3008F82F583E493FEED2402FDE43C8D82F5B8
:1043D30083E493FDEDFF9002F1EEF0A3EFF0E4FC34
:1043E300FD9001F7E0F8A3E0F9A3E0FAA3E02FFFC3
:1043F300EA3EFEED39FDEC38FC900285124B6B90E2
:1044030002B0E02403F09002AFE03400F022900207
:10441300AFE0FEA3E0F5828E83E493FC64FD70615C
:104423009002E9E0FFD39403400302476690030F31
:10443300E060030247669002AF75F00112495B85A5
:10444300F082F583E493FD126C3E9002AFE475F0C5
:104453000112495B85F082F583E49390031FF0908A
:1044630002EEE0FEA3E0FF9002AFE475F001124913
:104473005BFAEF65F07002EE6A600302476602467C
:104483001DEC64EC60149002AFE0FEA3E0F5828EB5
:1044930083E49364ED60030246229002E9E0D3943F
:1044A30003400302476690030FE0600302476690F0
:1044B30002AFE0FCA3E0FD2401FFE43C8F82F5831F
:1044C300E493FEED2402FDE43C8D82F583E493FD49
:1044D300EDFF9002EAEEF0FCA3EFF0CCCCCDCD9053
:1044E30002AFE0FAA3E0FB2403FFE43A8F82F583F3
:1044F300E493FEEB2404FBE43A8B82F583E493FB21
:10450300EBFF9002ECEEF0A3EFF0CFEDCFCEECCECD
:10451300E4FCFDFB7A80F9F81249F3ECC0E0EDC04E
:10452300E0EEC0E0EFC0E0900111E0FEA3E024FA6A
:10453300F582EE3401F583E493FE740193FFCBEF30
:10454300CBCAEECAE4F9F8D0E0FFD0E0FED0E0FD3C
:10455300D0E0FC1276BD9002EAEEF0A3EFF0A3E008
:10456300FEA3E0FFE4FCFDFB7A80F9F81249F3ECCB
:10457300C0E0EDC0E0EEC0E0EFC0E0900111E0FE6E
:10458300A3E024FCF582EE3401F583E493FE740189
:1045930093FFCBEFCBCAEECAE4F9F8D0E0FFD0E04B
:1045A300FED0E0FDD0E0FC1276BD9002ECEEF0A36D
:1045B300EFF09002EAE0FCA3E0FDCFEDCF9003160D
:1045C300F0ECA3F09002ECE0FCA3E0FDCFEDCF9084
:1045D3000318F0ECA3F09002AFE0FEA3E0F5828EA7
:1045E30083E493B4ED07900314E04401F09002B028
:1045F300E02404F09002AFE03400F09002EEE0FE1D
:10460300A3E0FF9002AFE475F00112495BFCEF6594
:10461300F07002EE6C60030247669002ABF02290EA
:1046230002AFE0FEA3E0F5828E83E49364FA6003B5
:104633000246D49002F07403F0F09002E9E0FC909B
:1046430002F0E0FFC39C502A9002AFE0FAA3E0F52A
:10465300828A83E493FE741E2FF582E43403F58388
:10466300E06E70069002F0F080089002F0E004F033
:1046730080C89002F0E0700302476690030FE06089
:104683000302476690031FE060199002E9E0FF040C
:10469300F09002AFE475F00112495B85F082F58377
:1046A30002474FEC640360030247669002E9E0FFB0
:1046B30004F09002AFE475F00112495B85F082F5D6
:1046C30083E493FD126C3E90031FE04402F0024723
:1046D300559002F07403F0F09002E9E0FC9002F0D0
:1046E300E0FFC39C502A9002AFE0FAA3E0F5828A70
:1046F30083E493FE741E2FF582E43403F583E06EA6
:1047030070069002F0F080089002F0E004F080C898
:104713009002F0E0604D90030FE0704790031FE0BC
:1047230070149002E9E0FF04F09002AFE0FAA3E016
:10473300F5828A838016ECB403299002E9E0FF0432
:10474300F09002AFE0FCA3E0F5828C83E493FD12CA
:104753006C3E9002B0E004F070069002AFE004F00B
:1047630002421B22E709F608DFFA8046E709F2084E
:10477300DFFA803E88828C83E709F0A3DFFA803278
:10478300E309F608DFFA8078E309F208DFFA8070BC
:1047930088828C83E309F0A3DFFA806489828A83A9
:1047A300E0A3F608DFFA805889828A83E0A3F2083F
:1047B300DFFA804C80D280FA80C680D4806980F290
:1047C3008033801080A680EA809A80A880DA80E215
:1047D30080CA803389828A83ECFAE493A3C8C582B2
:1047E300C8CCC583CCF0A3C8C582C8CCC583CCDFF5
:1047F300E9DEE7800D89828A83E493A3F608DFF973
:10480300ECFAA9F0EDFB2289828A83ECFAE0A3C8D3
:10481300C582C8CCC583CCF0A3C8C582C8CCC58328
:10482300CCDFEADEE880DB89828A83E493A3F208A3
:10483300DFF980CC88F0EF60010E4E60C388F0EDA5
:104843002402B4040050B9F582EB2402B4040050EE
:10485300AF23234582239047B773BB010CE582291D
:10486300F582E5833AF583E0225006E92582F8E6EE
:1048730022BBFE06E92582F8E222E58229F582E5DC
:10488300833AF583E49322BB010689828A83F0226B
:104893005002F722BBFE01F322F8BB010DE582298A
:1048A300F582E5833AF583E8F0225006E92582C8CC
:1048B300F622BBFE05E92582C8F222EF8DF0A4A8FB
:1048C300F0CF8CF0A428CE8DF0A42EFE22BC000BDA
:1048D300BE0029EF8DF084FFADF022E4CCF875F033
:1048E30008EF2FFFEE33FEEC33FCEE9DEC98400512
:1048F300FCEE9DFE0FD5F0E9E4CEFD22EDF8F5F0D8
:10490300EE8420D21CFEADF075F008EF2FFFED33DF
:10491300FD4007985006D5F0F222C398FD0FD5F05D
:10492300EA22C2D5EC30E709B2D5E4C39DFDE49C8D
:10493300FCEE30E715B2D5E4C39FFFE49EFE1248B8
:10494300D0C3E49DFDE49CFC80031248D030D5071E
:10495300C3E49FFFE49EFE22C5F0F8A3E028F0C560
:10496300F0F8E582158270021583E038F022BB016E
:104973000A89828A83E0F5F0A3E022500687F009D2
:10498300E71922BBFE07E3F5F009E3192289828ABE
:1049930083E493F5F074019322BB010789828A8330
:1049A30002495B500B09C5F027F7C5F01937F72209
:1049B300BBFE0D09F8E325F0F3C5F019E338F32244
:1049C300F889828A8374019325F0C5F0F8E493385B
:1049D30022BB010A89828A83F0E5F0A3F022500604
:1049E300F709A7F01922BBFE06F3E5F009F3192234
:1049F300E88FF0A4CC8BF0A42CFCE98EF0A42CFC63
:104A03008AF0EDA42CFCEA8EF0A4CDA8F08BF0A4E0
:104A13002DCC3825F0FDE98FF0A42CCD35F0FCEB3F
:104A23008EF0A4FEA9F0EB8FF0A4CFC5F02ECD3904
:104A3300FEE43CFCEAA42DCE35F0FDE43CFC2275FB
:104A4300F008758200EF2FFFEE33FECD33CDCC336C
:104A5300CCC58233C5829BED9AEC99E58298400CD4
:104A6300F582EE9BFEED9AFDEC99FC0FD5F0D6E4B2
:104A7300CEFBE4CDFAE4CCF9A88222B800C1B90098
:104A830059BA002DEC8BF084CFCECDFCE5F0CBF9F9
:104A93007818EF2FFFEE33FEED33FDEC33FCEB33F1
:104AA300FB10D703994004EB99FB0FD8E5E4F9FA1F
:104AB300227818EF2FFFEE33FEED33FDEC33FCC904
:104AC30033C910D7059BE99A4007EC9BFCE99AF997
:104AD3000FD8E0E4C9FAE4CCFB2275F010EF2FFF06
:104AE300EE33FEED33FDCC33CCC833C810D7079B70
:104AF300EC9AE899400AED9BFDEC9AFCE899F80FD3
:104B0300D5F0DAE4CDFBE4CCFAE4C8F922C3E49FA0
:104B1300FFE49EFEE49DFDE49CFC22EB9FF5F0EA9E
:104B23009E42F0E99D42F0EC6480C864809845F0B1
:104B330022EB9FF5F0EA9E42F0E99D42F0E89C45A6
:104B4300F022E8600FECC313FCED13FDEE13FEEF50
:104B530013FFD8F122E8600FEFC333FFEE33FEED0E
:104B630033FDEC33FCD8F122ECF0A3EDF0A3EEF02F
:104B7300A3EFF022A8828583F0D083D082124B8EDC
:104B8300124B8E124B8E124B8EE473E493A3C583A8
:104B9300C5F0C583C8C582C8F0A3C583C5F0C58366
:104BA300C8C582C822A42582F582E5F03583F58342
:104BB30022EC8EF0A4CCC5F0CCCDF8EFA4CEC5F09A
:104BC3002DFDE43CFCE8A42EC8C5F03DFDE43CFC0F
:104BD300EFA4FFE5F028FEE43DFDE43CFC22EF4EAC
:104BE3006012EF60010EEDBB010B89828A83F0A393
:104BF300DFFCDEFA2289F05007F709DFFCA9F02277
:104C0300BBFEFCF309DFFCA9F022BB010689828A03
:104C130083E0225002E722BBFE02E32289828A83D9
:104C2300E49322E0FCA3E0FDA3E0FEA3E0FF22F86F
:104C3300E0FBA3A3E0F925F0F0E5821582700215ED
:104C430083E0FA38F022EBF0A3EAF0A3E9F022D0F4
:104C530083D082F8E4937012740193700DA3A3932D
:104C6300F8740193F5828883E4737402936860EFA8
:104C7300A3A3A380DFE51024E2F582E43402F583E5
:104C8300E00510229002DF3007039002E2E475F0A2
:104C930001124C32024C0D2000E97F2ED200801805
:104CA300EF540F2490D43440D4FF30040BEF24BFCF
:104CB300B41A0050032461FFE511600215110514B5
:104CC300E5147002051330070E9002DFE475F0015E
:104CD300124C32EF02488A0279047403D20780032C
:104CE300E4C207F5109002DF124C49E4F511F51305
:104CF300F514E51160077F20124CBB80F57512FF98
:104D0300C201C200C202C203C205C206C208124CDB
:104D130087FF700D3007057F00124CCCAF14AE1324
:104D230022B4255FC2D5C204124C87FF24D0B40A33
:104D330000501A75F00A781130D50508B6FF010640
:104D4300C6A426F620D5047002D20380D924CFB49A
:104D53001A00EF5004C2E5D204024ECDD20180C640
:104D6300D20080C0D20280BCD2D580BAD20580B432
:104D73007F20124CBB2002077401B5110040F112D1
:104D83004C78FF124CBB024CF5D208D20680951228
:104D93004C78FB124C78FA124C78F94A4B7006792E
:104DA3009E7A4F7BFF20022EE511602A7E008E82C1
:104DB30075830012485D60060EEE651270F0C2D571
:104DC300EBC0E0EAC0E0E9C0E0EE124F14D0E0F936
:104DD300D0E0FAD0E0FB124C0DFF60AAEBC0E0EA92
:104DE300C0E0E9C0E0124CBBD0E02401F9D0E034CC
:104DF30000FAD0E0FBE5120460DCD512D980877B92
:104E0300FF7A4F7910D202809C791080027908C210
:104E130006C2088008D2D5790A8004790AC2D5E58A
:104E230012047002F512E4FAFDFEFF124C78FC7BCB
:104E330008200113124C78FD7B1030000A124C78C5
:104E4300FE124C78FF7B20EC3382D592D55013C3EE
:104E5300E43000069FFFE49EFEE42001039DFDE491
:104E63009CFCE4CBF8C201EC700CCFCECDCCE82493
:104E7300F8F870F38017C3EF33FFEE33FEED33FD25
:104E8300EC33FCEB33FB994002FB0FD8E9EB300129
:104E930005F8D0E0C448B201C0E00AEC4D4E4F78AB
:104EA300207B0070C2EAB5120040BCC0E0124F166E
:104EB300D0F0D0E0200104C4C0E0C4B201C0F012BD
:104EC3004CA4D0F0D5F0EB024CF5124C524D92535A
:104ED3004E0C584D634C4D5F424E104F4E18444E8E
:104EE30018494D78434E1E554E02464E02454E021A
:104EF300474FBE504D672D4D6B2E4D8E2B4D6F235F
:104F03004D8C204FA72A4D274800004D863F3F3F39
:104F130000790AA2D5200314300509B9100204044C
:104F2300B9080104A2D520060250010420026892A8
:104F330002B511005034C0E07F203003197F30A246
:104F43000272067205500F124F6DC202C206C205ED
:104F5300C2087F30800F300503E9C0E0124CBB303C
:104F63000503D0E0F9D0E0B511CC3005177F30B997
:104F7300100C124CBB7F583004077F788003B908AC
:104F830003124CBB3002057F2D024CBB7F2020084F
:104F9300F87F2B2006F322920280CF286E756C6C6B
:104FA3002900D201124C783001F8C201781130D5B2
:104FB3000108F6024D272D50434958124C7824031B
:104FC300B405004001E4904FB993124CAC743A120B
:104FD3004CACD203751104024E0CE4FD75F002EDE6
:104FE300A42400F582E5F034DAF583E493FA74013E
:104FF30093FBED25E0FFE433FE74632FF582740128
:105003003EF583EAF0A3EBF075F002EDA42404F57A
:1050130082E5F034DAF583E493FA740193FBED252A
:10502300E0FFE433FE745F2FF58274013EF583EAFB
:10503300F0A3EBF075F002EDA42408F582E5F0345B
:10504300DAF583E493FA740193FBED25E0FFE4338F
:10505300FE74532FF58274013EF583EAF0A3EBF05F
:1050630074632FF58274013EF583E0FEA3E0C394DD
:10507300FFEE940F4015ED25E0FFE433FE74632F3C
:10508300F58274013EF583E4F0A3F0ED25E0FFE43F
:1050930033FE745F2FF58274013EF583E0FEA3E0D7
:1050A300FF4E6009D3EF94FFEE940F4018ED25E017
:1050B300FFE433FE745F2FF58274013EF583740FB2
:1050C300F0A374FFF0ED25E0FFE433FE745F2FF5EA
:1050D3008274013EF583E0FAA3E0FB74632FF5824B
:1050E30074013EF583E0FEA3E0C39BEE9A4026EDF8
:1050F30025E0FFE433FE74632FF58274013EF583EC
:10510300E4F0A3F0745F2FF58274013EF583740F0E
:10511300F0A374FFF0ED25E0FFE433FE74532FF5A5
:105123008274013EF583E0FEA3E0FF4E6009C3EF06
:1051330094FFEE940F4017ED25E0FFE433FE745324
:105143002FF58274013EF5837408F0A3E4F0ED2596
:10515300E0FFE433FE74632FF58274013EF583E0D0
:10516300FAA3E0FB74532FF58274013EF583E0FE4E
:10517300A3E0D39BEE9A402AED25E0FFE433FE74CF
:105183005F2FF58274013EF583E0FAA3E0FB7453CD
:105193002FF58274013EF583E0FEA3E0C39BEE9AF4
:1051A3004036ED25E0FFE433FE74632FF58274018E
:1051B3003EF583E4F0A3F074532FF58274013EF5BA
:1051C300837408F0A3E4F0745F2FF58274013EF555
:1051D30083740FF0A374FFF0ED25E0FFE433FE7456
:1051E300632FF58274013EF583E0FAA3E0FB745369
:1051F3002FF58274013EF583E0FEA3E0C39BFBEE33
:105203009AFAED25E0FFE433FE745B2FF582740117
:105213003EF583EAF0A3EBF074532FF58274013E5D
:10522300F583E0FAA3E0FB745F2FF58274013EF58A
:1052330083E0FEA3E0C39BFBEE9AFAED25E0FFE4D7
:1052430033FE74572FF58274013EF583EAF0A3EB26
:10525300F00DED64026003024FDF90DA10E493F582
:105263002790DA14E493FF13920FEFC313139210F2
:1052730022E49002E3F0A20A33A3F0A20DE433A3E5
:10528300F0A209E433A3F09002ADE07F0060027F57
:10529300019002E7EFF09002ABE07F0060027F0134
:1052A3009002E8EFF0900111E0FEA3E024F9F5820B
:1052B300EE3401F583E493C4540F60739002D2E09B
:1052C300F8A3E0F9A3E0FAA3E0FB9001F7E0FCA365
:1052D300E0FDA3E0FEA3E0C39BFFEE9AFEED99FD84
:1052E300EC98C0E0EDC0E0EEC0E0EFC0E09001114B
:1052F300E0FEA3E024F9F582EE3401F583E493C4E0
:10530300540F25E0247CF582E4347FF583E493FE97
:10531300740193FFCBEFCBCAEECAE4F9F8D0E0FFF8
:10532300D0E0FED0E0FDD0E0FCD3124B3450179018
:105333000111E0FEA3E024F9F582EE3401F583E4E4
:1053430093540FFF700890021E74FFF08046EF60C5
:1053530043C3940440028037EF14FDC8EDC87E00B8
:105363007401088005C333CE33CED8F9FF90021EF3
:10537300E0FCC39FEE6480F87480984012C8EDC8C7
:105383007401088002C333D8FCFFC3EC9F8001E49F
:1053930090021EF0E49002DFF09002DFE0FFC3947E
:1053A3000340030254D3E0FE900111E0FCA3E0FDAF
:1053B30024F6F582EC3401F583E5822EF582E4359B
:1053C30083F583E493FB540F24E3F582E43402F57D
:1053D30083E0FAEBC41313135401FBEA6BFB74E091
:1053E3002EF582E43402F583EBF074E02FF582E4CA
:1053F3003402F583E0604BED24F9F582EC3401F5DA
:1054030083E493540F703B9002DFE024E0F582E4E1
:105413003402F583C083C082E0FF9002DFE0FEED3B
:1054230024F3F582EC3401F583E5822EF582E4352D
:1054330083F583E493FEEF8EF0A4D082D083F00251
:1054430054CA9002DFE0FBED24F3F582EC3401F55E
:1054530083E5822BF582E43583F583E493FD7C00B9
:1054630090021EE0F9FFC374FF9FFFE49400FE1255
:1054730048BE74E02BF582E43402F583E0FD124864
:10548300BECCEECCCDEFCD9002DFE0FF900111E07A
:10549300FAA3E024F0F582EA3401F583E5822FF5DF
:1054A30082E43583F583E49389F0A42DFFEC35F092
:1054B300FE7C007DFF1248D09002DFE024E0F582FD
:1054C300E43402F583EFF09002DFE004F002539C32
:1054D3009002E0E0F5A5A3E0F59AA3E0F5A422018C
:1054E3001C00011A00C10F011D00011B00C1104166
:1054F3000360004103610041031A0041031D0041A1
:1055030003360041030D00410334004103350041DC
:1055130003370056031E01000000000000000000D6
:1055230000000000000000000000000045030E0220
:1055330000000000470313031001000000004203B2
:105543001B040041033800C10EC10BC10CC10AC1C9
:105553000DC1094401F70000000001270254015363
:105563000800080008000800080008000FFF0FFFEC
:10557300000000004401A70800080041013B0102AC
:105583002300000228000A0225271044013C0000E2
:10559300000042027FDC0050026F000000000000A8
:1055A3000000000000000000000050025F00000047
:1055B3000000000000000000000000000050024F47
:1055C300000102030405060708090A0B0C0D0E0F60
:1055D3006030021F00000000000000000000000017
:1055E30000000000000000000000000000000000B8
:1055F30000000000000000000000000000000000A8
:105603000000000020302A0000000000000000001D
:105613000000000000000000000000000000000087
:105623000000000000000000000000000000000077
:105633000000000000000044020E000000004402CD
:1056430012FFFF000142021600004102180041024E
:10565300190041021A0041021B0041021CFF4102D2
:105663001D0041021E0041000000420111F20041F1
:1056730002B2004102B6004102B7004102B8004144
:1056830002B5284102B30F4102AD004402D200002B
:1056930000004102AB004202AF00004202A9000039
:1056A3004102D1004102D0004102AC004102B9FFE6
:1056B3004102AE004102B4004102B1004402810044
:1056C300000000440285000000004402890000003D
:1056D3000042028DFFFF42028F0000420291000050
:1056E30042029300004202950000420297000042EA
:1056F3000299000042029B000042029D0000410209
:105703009F004102A0014402A1000000004402A541
:1057130000000000009002DFEFF0E4A3F0EFC39479
:105723000A403F9002DFE0FF94125036EF24F6FF69
:10573300EF25E0FEC3E49400FF74F29EFE740812AA
:1057430060989002E0EFF09002DFE024F6FF12622F
:10575300469002E0E070030258C69002DFE024FEA8
:10576300803B9002DFE0FFC3941E4034EF94265049
:105773002FEF24E2FFEFFEE42400FFEE34DCFE749F
:10578300041260989002E0EFF07F0112150290027C
:10579300E0E070030258C69002DFE024F2FD8029A6
:1057A3009002DFE0B4322A126A447B017A06790060
:1057B3009002E87401F07F007EDA1260A29002E0AA
:1057C300EFF070030258C67D187F0312759D0258CF
:1057D300C69002DFE0B464161279EA1276337F646E
:1057E3007E001279BCE4F5A812002E0258C690027E
:1057F300DFE0646560030258831279EA1276337F2F
:10580300647E001279BCE4F5A875D8FF75E20690B2
:10581300036074AAF09003617455F07E007F407DAD
:10582300007B017A067900124BE190063E7480F00A
:10583300A374FEF07B017A0679009002E87401F00C
:10584300E4FFFE1260A29002E0EFF0E4F5FFF5A59D
:10585300F59A75A4FF7F207E031279BCE4F5FFF56A
:10586300A5759AFFF5A47F207E031279BCE4F5FFAA
:1058730075A5FFF59AF5A47F207E031279BC80CB32
:105883009002DFE064667032900600E0900000F062
:10589300FD25E0FEC3E49400FF74F29E900111F035
:1058A300A3EFF0EDFEE42400FFEE34DC90027FF082
:1058B300A3EFF07F0112150280091279EA12763301
:1058C3001259269002E0E06059E4F5FF75A5FFF553
:1058D3009AF5A47F96FE1279BCE4F5A5759AFFF5B7
:1058E300A47F96FE1279BCE4F5A5F59A75A4FF7F13
:1058F30096FE1279BC75A5FFE4F59AF5A47F96FE92
:105903001279BCE4F5A5759AFFF5A47F96FE12798A
:10591300BCE4F5A5F59A75A4FF7F96FE1279BCE465
:10592300F5FF22E49002E1F0A374FFF0A3F0A3F0EB
:10593300A37401F09001E3E06009900152E0700369
:10594300025B0A9001E2E06009900151E0700302FA
:105953005B0A9001E1E06009900150E07003025B93
:105963000AE4F5FF126B487F01126F0B126B487F3D
:1059730002126F0B1267F99002E5E0251AF0E4F5C5
:105983001BF51AE0C364809481501275A5FF74015E
:10599300F07F027E001279BCE4F5A5801B9002E53E
:1059A300E0D36480948A4010759AFF740AF07F02F2
:1059B3007E001279BCE4F59AE49002E1F0FFEF6413
:1059C30004602EEF640C602974402FF582E43401E7
:1059D300F583E0FE601274D12FF582E43401F58380
:1059E300E070059002E2EFF0EE60069002E1E00461
:1059F300F00FEFB410C89002E1E07004A374FFF05D
:105A03009002E2E0FEF4606674402EF582E4340115
:105A1300F583E07022FFEF64046017EF640C6012FB
:105A230074402FF582E43401F583E060059002E2CF
:105A3300EFF00FEFB410DF9002E2E0FC9081D89317
:105A4300FE90014CE0FDEE2D9002E3F0900144E066
:105A5300FF600FECC3940850099002E3E0240CF0BC
:105A63008012EF600F9002E3E024F4F080069002CE
:105A7300E374FFF09002E3E0FFA3E06F70030259C9
:105A830037EFC39412504F9002E3E025E02459F519
:105A930082E43481F583E493F525740193F526AE0E
:105AA30025FFCBEFCBCAEECAE4F9F89002E5E0FF9D
:105AB3003395E0FEFDFC1249F37808124B45E47B75
:105AC30003FAF9F8124A7E8E288F29E4FD7F01122A
:105AD3007163D2A980289002E3E0FFD3943050137E
