:08000000023876023B22323285
:07000B00023E9D0105030107
:100013000200067B017A0679009002ED7401F07FFD
:06002300007ED8022EE76A
:03002B00020007C9
:03003B00023B7F06
:100043000211C7EF4E601505A105A105A105A10584
:0D005300A105A105A1EF1F70EA1E80E722A4
:10006300023A5DE49002EAF0A374FFF0E4F512F5BE
:1000730013EF604A9001F8E0FCA3E0FDA3E0FEA3C8
:10008300E0FF9002101223AD9001F8E0FCA3E0FD25
:10009300A3E0FEA3E02401FFE43EFEED34FFFDEC0C
:1000A30034FFFC9002141223AD7E007F107D007B91
:1000B300017A027972122449E490021AF022900222
:1000C30071E0FF5470600DEF20E7030211C6547F07
:1000D300F0020FEA9001F8A3A3A3E0FF90021BE054
:1000E300FEC3EF9EC3941450030211C6E02414F020
:1000F300900282E0FEA3E0F5828E8374F593700391
:1001030074F493602EE4F51074402510F582E43402
:1001130001F583E060169001F8E0FCA3E0FDA3E0A5
:10012300FEA3E0FF9002141223AD80070510E51033
:10013300B410D590021AE0540FFFBF021D7403F0F0
:100143009001F8E0FCA3E0FDA3E0FEA3E0FF900232
:10015300101223AD90021C74FFF090021AE0540FAA
:1001630064036003020291900218E0FEA3E0FFCB58
:10017300EFCBCAEECA900282E0FEA3E0F5828E8343
:1001830074F893FE74F993FFEF2BFFEE3AFEE4331A
:10019300FDE433C0E0EDC0E0EEC0E0EFC0E090026C
:1001A30010E0F8A3E0F9A3E0FAA3E0FB9001F8E084
:1001B300FCA3E0FDA3E0FEA3E0C39BFBEE9AFAEDF4
:1001C30099F9EC98F8D0E0FFD0E0FED0E0FDD0E064
:1001D300FCD31223765003020291900282E0FEA325
:1001E300E0F5828E8374F493FE74F593FF4E604CB6
:1001F3007C007D0A12241CECC0E0EDC0E0EEC0E000
:10020300EFC0E0900214E0F8A3E0F9A3E0FAA3E062
:10021300FB9001F8E0FCA3E0FDA3E0FEA3E0C39B99
:10022300FBEE9AFAED99F9EC98F8D0E0FFD0E0FEF6
:10023300D0E0FDD0E0FCD31223764052900282E05E
:10024300FEA3E0F5828E8374FB93700374FA9360CC
:100253002E123C32CCEECCCDEFCDAF8AEF6CFEED5F
:10026300FF900282E0FCA3E0F5828C8374FA93FC96
:1002730074FB93FD122112CEECCECFEDCF80047E22
:10028300007F00900218EEF0A3EFF0E4A3F09002D9
:100293001AE0540F600302047004F09001F8E0FCCC
:1002A300A3E0FDA3E0FEA3E0FF9002101223ADE460
:1002B30090021CF0900282E0FEA3E0F5828E83742C
:1002C300F193FF700302044CEFD39404501B90028C
:1002D30082E0FEA3E0F5828E8374F1931475F00837
:1002E300A4FD74F0932D020464900282E0FEA3E067
:1002F300F5828E8374F193B4050302046AE4F51165
:10030300F510900282E0FEA3E0FFF5828E8374EB8A
:10031300932401FDE433FCC3E5109DEC6480F87481
:1003230080985035E510C39409502EE58224E0F5FA
:1003330082E43583F583E5822510F582E43583F580
:1003430083E493FF600DD39404500874082511F5DA
:100353001180020511051080A9900282E0FEA3E03E
:10036300F5828E8374F193B4060F90021EE004F0BD
:10037300C39511402AE4F08026123C32AD8AEF6D1A
:10038300FFAD117C001221678D1090021EE06510F5
:100393007007E511D3940150E090021EE510F0E4DC
:1003A300F511F510900282E0FEA3E0FFF5828E8343
:1003B30074EB932401FDE433FCD3E5109DEC6480DE
:1003C300F8748098507FE5109409507990021EE0EC
:1003D300F9E51199403DE51024DFFDE433FCEF2DF1
:1003E300F582EE3CF583E493600DD394045008E961
:1003F3002408C39511F511E51024DFFFE433FE90C3
:100403000282E0FCA3E02FF582EC3EF583E493F552
:10041300108032900282E0FCA3E024E0F582E43C09
:10042300F583E5822510F582E43583F583E4936053
:100433000DD39404500874082511F5118002051199
:1004430005100203A7E510700890021F74C8F0801E
:100453001CE510D39404500FE5101475F008A4257F
:100463001190021FF0800690021F7464F090021A2C
:10047300E0540F640170599001F8A3A3E0FEA3E0D8
:10048300FFCBEFCBCAEECA900210A3A3E0FEA3E01A
:10049300FFC3EB9FFFEA9EFE900282E0FCA3E0F520
:1004A300828C83C374F7939F74F6939E50229002B9
:1004B3001FE064C8601A9001F8E0FCA3E0FDA3E02C
:1004C300FEA3E0FF9002101223AD90021CE004F0A3
:1004D30090021FE0FFC39420500FEF75F010A42487
:1004E300F5F9744235F0FA801B90021FE0B4643BC7
:1004F300900283E02490FF900282E03400FECAEE73
:10050300CAC9EFC97BFFEBC0E0EAC0E0E9C0E0C8BD
:100513007421C8CC7402CCCD7401CDD0E0F9D0E005
:10052300FAD0E0FB7E007F10122079900282E0FE79
:10053300A3E0FFCAEECAC9EFC97BFFEBC0E0EAC084
:10054300E0E9C0E0C87431C8CC7402CCCD7401CDED
:10055300D0E0F9D0E0FAD0E0FB7E007F30122079C2
:10056300E4F510900282E0FEA3E0F5828E8374F33B
:100573009370030206BE74F29320E0030206BEE505
:100583001075F003A42431F582E43402F583E0FF0F
:10059300E51075F003A42432F582E43402F583E018
:1005A300FDE51075F003A42433F582E43402F583EA
:1005B300E0C0E09002F87401F0A37402F0A374ECBD
:1005C300F0A37401F0A37402F0A374EEF0A374011A
:1005D300F0A37402F0A374F0F0D0E0FB12322F907A
:1005E3000282E0FEA3E0F5828E8374F393FFCBEFE8
:1005F300CBE4FAF9F89001F8E0FCA3E0FDA3E0FEF8
:10060300A3E0FF1222C0E47BEA7A03F9F81222C0C6
:10061300CCE8CCCDE9CDCEEACECFEBCF9002EDE066
:100623002FF09002ECE03EF0C3A3E094EA9002ECDA
:10063300E09403400CA3E02416F09002ECE034FCB9
:10064300F0E51075F003A4FFAEF02431F974023E17
:10065300FA7B01EBC0E0EAC0E0E9C0E074322FF9B5
:1006630074023EFAEBC0E0EAC0E0E9C0E074332F65
:10067300F974023EFA900301EBF0A3EAF0A3E9F068
:10068300D0E0F9D0E0FAD0E09002FEF0A3EAF0A3C4
:10069300E9F0D0E0F9D0E0FAD0E09002FBF0A3EA71
:1006A300F0A3E9F09002ECE0FEA3E0FFA3E0FCA3DB
:1006B300E0FDA3E0FAA3E0FB122D0D90021FE0641E
:1006C300C86003020937900282E0FEA3E0F5828E40
:1006D3008374F793700374F69370030209379001E0
:1006E300F8A3A3E0FEA3E0FFCBEFCBCAEECA9002D0
:1006F30010A3A3E0FEA3E0FFC3EB9FFBEA9EFA90E7
:100703000282E0FEA3E0F5828E8374F693FE74F713
:1007130093FFD394E8EE9403400280047E037FE8C2
:100723007C037DE8122112CDEFCDCCEECCCFEBCF05
:10073300CEEACE1221127C037DEA1221129002F03E
:10074300ECF0A3EDF09002F0E0FEA3E0FFC394F51C
:10075300EE9401402D74E99FF074039E9002F0F033
:10076300900282E0FEA3E0F5828E8374FD9375F020
:100773000384AFF07512008F1390021AE04480F0E7
:10078300802F900282E0FEA3E0F5828E8374FC93B7
:1007930075F00384AFF07512008F1390021AE0B462
:1007A300810FE510B40F037402F0E49002F0F0A39C
:1007B300F090021AE0540F64016007E49002F0F035
:1007C300A3F0E5134512705DF51175F003E510A470
:1007D3002511F582E435F0F583E5822431F582E5D0
:1007E300833402F583E0FF7E009002F0E0FCA3E097
:1007F300FD12241CE47BF47A01F9F81222C075F08F
:1008030003E510A42511F582E435F0F583E5822490
:1008130031F582E5833402F583EFF00511E511B478
:1008230003A802092EE5136401451260030208BB05
:100833009002F0E0FEA3E0FF7C007DFF12241CE4A5
:100843007BF47A01F9F81222C074752FF582744192
:100853003EF583E493FF9002F0E4F0A3EFF0E4F5B8
:100863001175F003E510A42511F582E435F0F58345
:10087300E5822431F582E5833402F583E0FF7E00CF
:100883009002F0E0FCA3E0FD1221007C007DFF124A
:10089300211275F003E510A42511F582E435F0F576
:1008A30083E5822431F582E5833402F583EFF00595
:1008B30011E511B403AB80739002F0E0FEA3E024D2
:1008C30080F582743F3EF583E493FF9002F0E4F0F9
:1008D300A3EFF0E4F51175F003E510A42511F582FB
:1008E300E435F0F583E5822431F582E5833402F5BE
:1008F30083E0FF7E009002F0E0FCA3E0FD12210004
:100903007C007DFF12211275F003E510A42511F57B
:1009130082E435F0F583E5822431F582E583340200
:10092300F583EFF00511E511B403AB9002EA74010E
:10093300F0020AE890021FE064C87003020AE87438
:10094300212510F582E43402F583E0FF90021CE0D8
:10095300FEEF6E6003020A429002EA04F090028204
:10096300E0FEA3E0F5828E8374FC93FFC3741F9FA4
:10097300F513E49400F512D3E513940AE5126480A9
:1009830094804015AE12AF137C007D0A122100EF54
:1009930024A6F513EE34FFF51274722510F582E4E4
:1009A3003402F583E0FFC374FF9FFFE49400FED39A
:1009B300EF9513E5126480F8EE6480987472400F2B
:1009C3002510F582E43402F583E02513F0800C252D
:1009D30010F582E43402F58374FFF0E4F51175F049
:1009E30003E510A42511F582E435F0F583E58224AF
:1009F30031F582E5833402F583E0FF7E00747225CE
:100A030010F582E43402F583E090417593FD7C0098
:100A13001221007DFF12211275F003E510A42511A8
:100A2300F582E435F0F583E5822431F582E58334FC
:100A330002F583EFF00511E511B403A2020AE89071
:100A43000282E0FEA3E0F5828E8374FD932401FD10
:100A5300E433FC74722510F582E43402F583E0FB81
:100A6300FF7E001221678E128F13EB600BE5134597
:100A7300127005F51275130174722510F582E434B2
:100A830002F583E0C39513F0E4F51175F003E51067
:100A9300A42511F582E435F0F583E5822431F5824E
:100AA300E5833402F583E0FF7E0074722510F5823E
:100AB300E43402F583E0FD7C001221007DFF122166
:100AC3001275F003E510A42511F582E435F0F583E2
:100AD300E5822431F582E5833402F583EFF00511D5
:100AE300E511B403A674402510F582E43401F583BF
:100AF300E06079900282E0FCA3E02510F582E43CFB
:100B0300F5837460932401FDE433FC74612510F5CF
:100B130082E43402F583E0FBFFC374FF9FFFE49498
:100B230000FE1221678E128F13C374FF9B600BE5C7
:100B33001345127005F51275130174612510F582C2
:100B4300E43402F583E02513F0900282E0FCA3E095
:100B53002510F582E43CF583748093FF9002EBE06B
:100B6300D39F5003020C13EFF0020C13900282E0A8
:100B7300FCA3E02510F582E43CF583747093240113
:100B8300FDE433FC74612510F582E43402F583E05F
:100B9300FBFF7E001221678E128F13EB600BE513B0
:100BA30045127005F51275130174612510F582E481
:100BB3003402F583E0C39513F0E4F51175F003E512
:100BC30010A42511F582E435F0F583E5822431F58F
:100BD30082E5833402F583E0FF90021DE0FEEF8E91
:100BE300F0A4FFAEF07C007DFF12211275F003E547
:100BF30010A42511F582E435F0F583E5822431F55F
:100C030082E5833402F583EFF00511E511B403ACFB
:100C1300900282E0FEA3E0F5828E8374F393700367
:100C2300020DD174F29320E103020DD1900282E010
:100C3300FCA3E0FDF5828C8375F003E5101223EA33
:100C4300743093FF8D828C8375F003E5101223EAD1
:100C5300743193FD900282E0FAA3E0F5828A8375F2
:100C6300F003E5101223EA743293C0E09002F874A3
:100C730001F0A37402F0A374ECF0A37401F0A37465
:100C830002F0A374EEF0A37401F0A37402F0A37452
:100C9300F0F0D0E0FB12322F900282E0FEA3E0F5E9
:100CA300828E8374F393FFCBEFCBE4FAF9F89001D0
:100CB300F8E0FCA3E0FDA3E0FEA3E0FF1222C0E402
:100CC3007BEA7A03F9F81222C0CCE8CCCDE9CDCE89
:100CD300EACECFEBCF9002EDE02FF09002ECE03EB6
:100CE300F0C3A3E094EA9002ECE09403400CA3E089
:100CF3002416F09002ECE034FCF09002ECE0FEA34A
:100D0300E0FFA3E0FCA3E0FD9002FB7401F0A374F9
:100D130002F0A374F2F0A37401F0A37402F0A374BD
:100D2300F3F0A37401F0A37402F0A374F4F090023F
:100D3300F0E0FAA3E0FB122D0D9002F2E0FFE510C4
:100D430075F003A42431F582E43402F583E0FDC396
:100D5300EF9DFFE49400FE74612510F582E43402F4
:100D6300F583E0FD7C001221007DFF122167E51071
:100D730075F003A42431F582E43402F583E02FF007
:100D83009002F3E0FFE51075F003A42432F582E44A
:100D93003402F583E0FDC3EF9DFFE49400FE74612C
:100DA3002510F582E43402F583E0FD7C0012210076
:100DB3007DFF122167E51075F003A42432F582E468
:100DC3003402F583E02FF09002F4E0020E939002D8
:100DD30082E0FAA3E0FBF5828A8375F003E5101243
:100DE30023EA743093FFE51075F003A42431F582F0
:100DF300E43402F583E0FDC3EF9DFFE49400FE7449
:100E0300612510F582E43402F583E0FD7C001221B4
:100E1300007DFF122167E51075F003A42431F582EC
:100E2300E43402F583E02FF08B828A8375F003E5C7
:100E3300101223EA743193FFE51075F003A42432F2
:100E4300F582E43402F583E0FDC3EF9DFFE49400F3
:100E5300FE74612510F582E43402F583E0FD7C0025
:100E63001221007DFF122167E51075F003A42432DF
:100E7300F582E43402F583E02FF0900282E0FEA3D2
:100E8300E0F5828E8375F003E5101223EA74329342
:100E9300FFE51075F003A42433F582E43402F583EF
:100EA300E0FDC3EF9DFFE49400FE74612510F5821D
:100EB300E43402F583E0FD7C001221007DFF122162
:100EC30067E51075F003A42433F582E43402F58357
:100ED300E02FF00510E510C394105003020566904F
:100EE30002EAE0700A90021AE0540F64016037903E
:100EF3000282E0FEA3E0F5828E8374F5937003749F
:100F0300F49360289001F8E0FCA3E0FDA3E0FEA3C6
:100F1300E0FF900214E0F8A3E0F9A3E0FAA3E0FBFA
:100F2300C3122376700690021A7402F090021DE039
:100F3300FB9002EBE0FAD39B4067900282E0FEA3B2
:100F4300E0F5828E8374FE93FF741F9FF513E49480
:100F530000F512D3E513940AE512648094804015DA
:100F6300AE12AF137C007D0A122100EF24A6F51305
:100F7300EE34FFF512EBFFEAC39FFFE49400FED3C8
:100F8300EF9513E5126480F8EE64809840099002AF
:100F93001DE02513F080509002EBE090021DF080DD
:100FA3004690021DE0FF9002EBE0FEC39F5038EE37
:100FB300FDC3EF9DFFE49400FE900282E0FCA3E0FA
:100FC300F5828C8374FF932401FDE433FC122167C3
:100FD3008E128F13E51345127005F51275130190E8
:100FE300021DE0C39513F0900111E0FEA3E024FE7F
:100FF300F582EE3401F583E493FF705EF510E5109E
:1010030075F003A42431F582E43402F583E0FEE5B0
:101013001075F003A4242BF8EEF6E51075F003A485
:101023002432F582E43402F583E0FEE51075F00323
:10103300A4242AF8EEF6E51075F003A42433F58210
:10104300E43402F583E0FEE51075F003A4242CF8E4
:10105300EEF60510E510B410A522EF6403706AF5EF
:1010630010E51090473C9375F003A42431F582E416
:101073003402F583E0FFE51075F003A4242BF8EFA9
:10108300F6E51090473C9375F003A42432F582E40F
:101093003402F583E0FFE51075F003A4242AF8EF8A
:1010A300F6E51090473C9375F003A42433F582E4EE
:1010B3003402F583E0FFE51075F003A4242CF8EF68
:1010C300F60510E510B4109922900111E0FEA3E09B
:1010D30024FEF582EE3401F583E493FF6402707518
:1010E300F510C37410951075F003A42431F582E450
:1010F3003402F583E0FEE51075F003A4242BF8EE2B
:10110300F6E510FDC374109DFDE49400FC900232DB
:1011130075F003ED1223EAEC75F003A42583F58340
:10112300E0FEE51075F003A4242AF8EEF6900233EE
:1011330075F003ED1223EAEC75F003A42583F58320
:10114300E0FEE51075F003A4242CF8EEF60510E597
:1011530010B4108E22EF64017069F510E51090470A
:101163002C9375F003A42431F582E43402F583E073
:10117300FFE51075F003A4242BF8EFF6E510904774
:101183002C9375F003A42432F582E43402F583E052
:10119300FFE51075F003A4242AF8EFF6E510904755
:1011A3002C9375F003A42433F582E43402F583E031
:1011B300FFE51075F003A4242CF8EFF60510E510F5
:1011C300B4109922C0E0C0F0C083C082C0D075D0F3
:1011D3000820D903021F5DE5D9543F1223F61F4CA3
:1011E300001A730112A4021213031EBF201A6921ED
:1011F3001291221200231AE63000001F5975D700FE
:1012030063D640C20DE5D654FC4402F5D6021F59FD
:1012130020DE03021F5963D680AFDB9002E0E4F0C7
:10122300A3EFF09002E0A3E0F5D7900580E064A57A
:101233006003021F59A3E0645A6003021F59A3E02D
:1012430064536003021F59A3E07025900271E054B8
:101253000F44A0F0C87431C8CC7402CCCD7401CD56
:101263007B017A0579847E007F30122079021F5931
:10127300900583E0FF64017003021F59EF6402606D
:1012830003021F59900271E0540FF0021F5975D5E4
:101293000063D440C20CE5D454FC4402F5D4021FCD
:1012A3005920DE03021F5963D480AFDB9002E0E4D0
:1012B300F0A3EFF09002E0A3E0F5D590031AE0303D
:1012C300E75790057FE075F040A42400F9740635D4
:1012D300F0FAC8E9C8CCEACCCD7401CD7B017A051C
:1012E30079007E007F401220799005407452F0A36C
:1012F3007444F090057FE0FF04F0900542EFF09016
:10130300057EE0FFA3E0C39F5003021A63E4F0905D
:10131300031AE0547FF0021A639005407452F09070
:101323000501E0900541F0900502E0900542F09040
:101333000503E0900543F0900500E0B44410A3E0FA
:10134300B44B0BA3E0B44206A3E06443601A9005D8
:1013530000E064447052A3E0644C704CA3E0645416
:101363007046A3E064437040900504E0C3943140A9
:1013730037E0D394385031900501E090057EB44BAB
:101383000B7408F0900504E024D980097404F090EC
:101393000504E024ED90031AF090057FE4F0900338
:1013A3001AE04480F0021A63900500E0644370235E
:1013B300A3E0B44B1EA3E0B45919A3E0B4541490B2
:1013C3000544E527F0900504E0F527900545E5275A
:1013D300021680900500E06443600302151BA3E03E
:1013E3006452600302151BA3E0644B600302151BE8
:1013F300A3E0644D600302151B900153E0FFA3E0DB
:10140300900544CFF0A3EFF0900155E0FFA3E090E7
:101413000546CFF0A3EFF0900164E02401FF9001B3
:1014230063E03400FE9001A8E0FCA3E0FDD39FEC51
:101433009E4008CEECCECFEDCF8000900160E0243B
:10144300FFFD90015FE034FFFCC3EF9DEE9C50264F
:10145300900164E02401FF900163E03400FE9001F9
:10146300A8E0FCA3E0FDD39FEC9E4008CEECCECFDA
:10147300EDCF8010800E900160E024FFFF90015FAC
:10148300E034FFFE900153EEF0A3EFF0900166E02D
:101493002401FF900165E03400FE9001AAE0FCA363
:1014A300E0FDD39FEC9E4008CEECCECFEDCF800085
:1014B300900162E024FFFD900161E034FFFCC3EF83
:1014C3009DEE9C5026900166E02401FF900165E0AB
:1014D3003400FE9001AAE0FCA3E0FDD39FEC9E4004
:1014E30008CEECCECFEDCF8010800E900162E024C9
:1014F300FFFF900161E034FFFE900155EEF0A3EF92
:10150300F0900153E0FDA3E0900548CDF0A3EDF08A
:10151300A3EEF0A3EF021680900500E0644360039E
:1015230002163EA3E06452600302163EA3E0644B3E
:10153300600302163EA3E0645A600302163E900164
:1015430063E0FFA3E0900544CFF0A3EFF090015FC9
:10155300E0FFA3E0900546CFF0A3EFF0900165E034
:10156300FFA3E0900548CFF0A3EFF0900161E0FF07
:10157300A3E090054ACFF0A3EFF0900504E0FEA3AB
:10158300E0FF900153E0FCA3E0FDC3EF9DEE9C4020
:1015930003021633900506E0FEA3E09DEE9C500384
:1015A300021633A3E0FEA3E0FF900155E0FCA3E0A5
:1015B300FDEF9DEE9C507990050AE0FEA3E09DEEC1
:1015C3009C406D900504E0FFA3E0900163CFF0A37E
:1015D300EFF0900506E0FFA3E090015FCFF0A3EFEB
:1015E300F0900508E0FFA3E0900165CFF0A3EFF0D2
:1015F30090050AA3E0FF900161EEF0A3EFF0A3E0F2
:10160300FDA3E090054CCDF0A3EDF090015FE0FD6C
:10161300A3E090054ECDF0A3EDF0900165E0FDA3AE
:10162300E0900550CDF0A3EDF0A3EEF0A3EF804DD5
:1016330090054C74FFF0A3F0021A63900500E06478
:10164300437044A3E06445703EA3E064437038A351
:10165300E064447032A21033900544F0A211E433E5
:10166300A3F0900504E024FF9210A3E024FF92115D
:10167300A210E433900546F0A211E433A3F09003E3
:101683001A7432F0021A63900500E0B44313A3E026
:10169300B4450EA3E0B44309A3E064467003021A01
:1016A30063900500E064427028A3E0B44623A3E0FE
:1016B300B4571EA3E0B45619C87444C8CC7405CCFF
:1016C300CD7401CD7BFF7A00790E7E007F04021971
:1016D3000C900500E06442600302182AA3E06455FD
:1016E300600302182AA3E06449600302182AA3E0F6
:1016F3006444600302182A90057DF090057DE0FFA5
:1017030025E02443F582E43403F583E0FE74442F9B
:10171300F582E43405F583EEF090057DE02444F58D
:1017230082E43405F583E0C39430402790057DE0DF
:101733002444F582E43405F583E0D39439501490BE
:10174300057DE02444F582E43405F583E024D0F0FC
:101753000217D790057DE02444F582E43405F58330
:10176300E0C39461402690057DE02444F582E4348F
:1017730005F583E0D39466501390057DE02444F58A
:1017830082E43405F583E024A9F0804890057DE0E8
:101793002444F582E43405F583E0C3944140269064
:1017A300057DE02444F582E43405F583E0D39446D3
:1017B300501390057DE02444F582E43405F583E07D
:1017C30024C9F0800F90057DE02444F582E43405BC
:1017D300F583E4F090057DE004F0E0640C6003021F
:1017E30016FE90057DE4F090057DE0FF25E024449E
:1017F300F582E43405F583E0C454F0FEEF25E024DC
:1018030045F582E43405F583E04EFF90057DE02441
:1018130044F582E43405F583EFF090057DE004F0B0
:10182300E0B406C3021A63900500E0644260030259
:1018330018DFA3E0644960030218DFA3E06450608B
:10184300030218DFA3E0645460030218DF9001A8C9
:10185300E0FFA3E0900544CFF0A3EFF09001AAE0EE
:10186300FFA3E0900546CFF0A3EFF0A31223B90046
:1018730000000090057DE4F0900548C083C082E03D
:10188300F8A3E0F9A3E0FAA3E0FBE8C0E0E9C0E0D5
:10189300EAC0E0EBC0E090057DE0F92440F582E486
:1018A3003401F583E0FFE4FCFDFEC8E9C812239A86
:1018B300D0E0FBD0E0FAD0E0F9D0E0F8EB4FFFEA5C
:1018C3004EFEE94DFDE84CFCD082D0831223AD904F
:1018D300057DE004F0E0B4139F021A63900500E075
:1018E3006442702BA3E0B44726A3E0B45021A3E0E5
:1018F300B44D1CC87444C8CC7405CCCD7401CD7BE5
:10190300FF7ADA79007E007F38122079021A639019
:101913000500E06442701DA3E0B44418A3E0B4479B
:1019230013A3E0B4430E7B017A0579447D38123E5C
:1019330070021A63900500E064427028A3E06452C9
:101943007022A3E0B4531DA3E0B454187E007F3C7F
:101953007D207B017A05794412244990031A74642B
:10196300F0021A63900500E064427028A3E0644229
:101973007022A3E0B44F1DA3E0B454187E007F3C53
:101983007D207B017A05794412244990031A7465FA
:10199300F0021A63900500E064427051A3E06443CF
:1019A300704BA3E064537045A3E06443703FFE7F34
:1019B3003C7D207B017A057944122449900000E0A4
:1019C3002431900544F0900504E0C394314019E0BC
:1019D300D394385013E0900545F024CF900600F0DF
:1019E30090031A7466F08078900545805C9005003A
:1019F300E0B44217A3E0B44212A3E0B4550DA3E050
:101A0300B45A0890031A7467F08055900500E06497
:101A130042703BA3E064427035A3E06454702FA38B
:101A2300E064567029A3E0D39430501AA3E0601603
:101A3300940A5012900504E090020FF0900505E01F
:101A4300900167F0801A90020F74FFF080129005E6
:101A5300407452F0A37449F0A3744EF0A37456F08B
:101A630053D4FC021F5975D30063D240C20B806864
:101A7300AFDB9002E0E4F0A3EFF09002E0E0FEA31E
:101A8300E0FF4E6053D3EF9402EE9400504A90026D
:101A9300E0A3E0247FF58274043EF583E0FF7E003B
:101AA3009002E0EEF0A3EFF07F0020E0027F01EF71
:101AB30024FFB3920A9002E0E0FEA3E0FF7D002042
:101AC300E1027D01ED24FFB3920EEF7F0020E202DD
:101AD3007F01EF24FFB39209E5D254FC4402F5D20F
:101AE300021F5975DCC0AFDB9002E0E4F0A3EFF016
:101AF3009002E0E07004A3E064086003021E949087
:101B03000447E0FE900446E07C002400FFEC3E9096
:101B1300033EF0A3EFF09002E0E4F0A3F09002DFC5
:101B2300F0900441E0900340F0900440E054606082
:101B33001A900340E01424FD4003021E9A24FB2460
:101B4300FD4003021E9A8000021E94900340E0B4FD
:101B53000B004003021E92901B61F8282873021E9B
:101B630067021D66021E92021DCB021E92021D23F6
:101B7300021B82021E92021D2F021D54021E9A9006
:101B83000443E024FE602B14604224E17003021C32
:101B93004924216003021C9C90035D74FFF0A3742D
:101BA30045F0A37405F09002E0E4F0A37412F00290
:101BB3001CA290035D74FFF0A37446F0A374B6F007
:101BC3009002E0E4F0A37469F0021CA2900442E0E6
:101BD30014602714603E14605424036003021C9CA9
:101BE30090035D74FFF0A37445F0A37417F09002A3
:101BF300E0E4F0A37404F0021CA290035D74FFF010
:101C0300A37445F0A37431F09002E0E4F0A37424CC
:101C1300F0021CA290035D74FFF0A37445F0A3745B
:101C23001BF09002E0E4F0A37416F0807290035D61
:101C33007401F0A37403F0A37441F09002E0E4F0A4
:101C4300A3741AF08059900444E0FF701A90035D66
:101C530074FFF0A37445F0A37455F09002E074018F
:101C6300F0A3741DF08038EFB4010F90035D74FF8F
:101C7300F0A37446F0A374728011EFB402199003B9
:101C83005D74FFF0A37446F0A37494F09002E0E453
:101C9300F0A37422F0800880009002DF74FFF090BC
:101CA30002E0E0FEA3E0FFD390033FE09F90033EFA
:101CB300E09E4005EEF0A3EFF090033EE0FEA3E0CC
:101CC300FFC39440EE9400400C7C007D40CEECCEEC
:101CD300CFEDCF80009002E0EEF0A3EFF09002E0B2
:101CE300E0FEA3E0FFC87440C8CC7404CCCD7401FB
:101CF300CD90035DE0FBA3E0FAA3E0F91220799015
:101D030002E0E0FEA3E0FFC390033FE09FF09003F7
:101D13003EE09EF090035EEE8FF012219D021E9A2C
:101D2300900442E0FF90033EE4021E8C90033DE0EA
:101D3300900440F0C390033FE0940190033EE0948D
:101D4300005003021E9A9002E0E4F0A304F0021E86
:101D53009A900442E090033DF07003021E9AD20F62
:101D6300021E9A900440E0541FFF6402704A9004DC
:101D730044E0146038146026146014248260241430
:101D8300601214702DE5D654BC4402F5D680295355
:101D9300D6738024E5D454BC4402F5D4801A53D4BA
:101DA300738015E5D254BC4402F5D2800B53D27331
:101DB30080069002DF74FFF0EF700A90033CE0545A
:101DC300FEF0021E9A021E94900440E0541FFD7020
:101DD30027900443E0FE900442E0FBEB64014E7065
:101DE300149046BD9330E50A90033CE04401F002B1
:101DF3001E9A021E94021E94ED64027065900443C1
:101E0300E0FE900442E0FDED4E7055900445E0FE87
:101E1300900444E0FDEDFFEE7044EF24FE602B14CC
:101E230060142482602E146017147032E5D654BFF8
:101E33004403F5D68061E5D6547F440CF5D680572C
:101E4300E5D454BF4403F5D4804DE5D4547F440C0A
:101E5300F5D48043E5D254BF4403F5D280398031B1
:101E6300802F802D900441E4F0900440F090033ED5
:101E7300E0FEA3E0FFC39402EE94009002E040086A
:101E8300E4F0A37402F0800FEEF0A3EFF08008807B
:101E9300009002DF74FFF09002DFE0B4FF0675DC10
:101EA300CF021F599002E0E0FEA3E0FF4E60048FD3
:101EB300DD800375DD0075DCC0021F59900340E02F
:101EC30024FB606E14707A90033EE0FEA3E0FFC330
:101ED3009440EE9400400C7C007D40CEECCECFEDE0
:101EE300CF80009002E0EEF0A3EFF09002E0E0FE7E
:101EF300A3E0FFC87440C8CC7404CCCD7401CD906A
:101F0300035DE0FBA3E0FAA3E0F91220799002E07D
:101F1300E0FEA3E0FFC390033FE09FF090033EE0A9
:101F23009EF090035EEE8FF012219D8FDD63DC4007
:101F3300802490033EA3E0FFE5E354804FF5E38064
:101F43000375DD0075DC02800DAFDB9002E0E4F089
:101F5300A3EFF063DC80C2D9804130D82275DC0264
:101F630075D20275D40275D60275E300C2DAC2D9FE
:101F7300C20FC20BC20C90033CE4F0C2D8801C30E9
:101F8300DA16C2DAE5DA90033C30E206E04402F006
:101F93008009E054FDF0800375D8FFD0D0D082D003
:101FA30083D0F0D0E032E709F608DFFA8046E7098C
:101FB300F208DFFA803E88828C83E709F0A3DFFA18
:101FC3008032E309F608DFFA8078E309F208DFFAE2
:101FD300807088828C83E309F0A3DFFA80648982AE
:101FE3008A83E0A3F608DFFA805889828A83E0A314
:101FF300F208DFFA804C80D280FA80C680D48069F0
:1020030080F28033801080A680EA809A80A880DAEC
:1020130080E280CA803389828A83ECFAE493A3C87E
:10202300C582C8CCC583CCF0A3C8C582C8CCC58340
:10203300CCDFE9DEE7800D89828A83E493A3F60887
:10204300DFF9ECFAA9F0EDFB2289828A83ECFAE04E
:10205300A3C8C582C8CCC583CCF0A3C8C582C8CCED
:10206300C583CCDFEADEE880DB89828A83E493A33D
:10207300F208DFF980CC88F0EF60010E4E60C38870
:10208300F0ED2402B4040050B9F582EB2402B40449
:102093000050AF2323458223901FF973BB010CE546
:1020A3008229F582E5833AF583E0225006E9258209
:1020B300F8E622BBFE06E92582F8E222E58229F54D
:1020C30082E5833AF583E49322BB010689828A83FE
:1020D300F0225002F722BBFE01F322F8BB010DE50B
:1020E3008229F582E5833AF583E8F0225006E92553
:1020F30082C8F622BBFE05E92582C8F222EF8DF0E5
:10210300A4A8F0CF8CF0A428CE8DF0A42EFE22BC80
:10211300000BBE0029EF8DF084FFADF022E4CCF874
:1021230075F008EF2FFFEE33FEEC33FCEE9DEC98D9
:102133004005FCEE9DFE0FD5F0E9E4CEFD22EDF85F
:10214300F5F0EE8420D21CFEADF075F008EF2FFF02
:10215300ED33FD4007985006D5F0F222C398FD0FEA
:10216300D5F0EA22C2D5EC30E709B2D5E4C39DFD30
:10217300E49CFCEE30E715B2D5E4C39FFFE49EFE7A
:10218300122112C3E49DFDE49CFC80031221123052
:10219300D507C3E49FFFE49EFE22C5F0F8A3E02821
:1021A300F0C5F0F8E582158270021583E038F0225D
:1021B300BB010A89828A83E0F5F0A3E022500687F7
:1021C300F009E71922BBFE07E3F5F009E3192289B9
:1021D300828A83E493F5F074019322BB0107898219
:1021E3008A8302219D500B09C5F027F7C5F01937E3
:1021F300F722BBFE0D09F8E325F0F3C5F019E33828
:10220300F322F889828A8374019325F0C5F0F8E4F8
:10221300933822BB010A89828A83F0E5F0A3F02276
:102223005006F709A7F01922BBFE06F3E5F009F300
:102233001922E88FF0A4CC8BF0A42CFCE98EF0A437
:102243002CFC8AF0EDA42CFCEA8EF0A4CDA8F08B34
:10225300F0A42DCC3825F0FDE98FF0A42CCD35F07A
:10226300FCEB8EF0A4FEA9F0EB8FF0A4CFC5F02E0B
:10227300CD39FEE43CFCEAA42DCE35F0FDE43CFC74
:102283002275F008758200EF2FFFEE33FECD33CDBC
:10229300CC33CCC58233C5829BED9AEC99E5829809
:1022A300400CF582EE9BFEED9AFDEC99FC0FD5F008
:1022B300D6E4CEFBE4CDFAE4CCF9A88222B800C17F
:1022C300B90059BA002DEC8BF084CFCECDFCE5F0EC
:1022D300CBF97818EF2FFFEE33FEED33FDEC33FC33
:1022E300EB33FB10D703994004EB99FB0FD8E5E4DC
:1022F300F9FA227818EF2FFFEE33FEED33FDEC33BE
:10230300FCC933C910D7059BE99A4007EC9BFCE94C
:102313009AF90FD8E0E4C9FAE4CCFB2275F010EF88
:102323002FFFEE33FEED33FDCC33CCC833C810D7CB
:10233300079BEC9AE899400AED9BFDEC9AFCE8991F
:10234300F80FD5F0DAE4CDFBE4CCFAE4C8F922C304
:10235300E49FFFE49EFEE49DFDE49CFC22EB9FF5DD
:10236300F0EA9E42F0E99D42F0EC6480C8648098F4
:1023730045F022EB9FF5F0EA9E42F0E99D42F0E83A
:102383009C45F022E8600FECC313FCED13FDEE1344
:10239300FEEF13FFD8F122E8600FEFC333FFEE33F4
:1023A300FEED33FDEC33FCD8F122ECF0A3EDF0A30A
:1023B300EEF0A3EFF022A8828583F0D083D08212BF
:1023C30023D01223D01223D01223D0E473E493A397
:1023D300C583C5F0C583C8C582C8F0A3C583C5F04E
:1023E300C583C8C582C822A42582F582E5F035835A
:1023F300F58322D083D082F8E49370127401937032
:102403000DA3A393F8740193F5828883E473740294
:10241300936860EFA3A3A380DFEC8EF0A4CCC5F098
:10242300CCCDF8EFA4CEC5F02DFDE43CFCE8A42E02
:10243300C8C5F03DFDE43CFCEFA4FFE5F028FEE455
:102443003DFDE43CFC22EF4E6012EF60010EEDBB5C
:10245300010B89828A83F0A3DFFCDEFA2289F05024
:1024630007F709DFFCA9F022BBFEFCF309DFFCA997
:10247300F022BB010689828A83E0225002E722BB55
:10248300FE02E32289828A83E49322E0FCA3E0FD37
:10249300A3E0FEA3E0FF22F8E0FBA3A3E0F925F00D
:1024A300F0E582158270021583E0FA38F022EBF032
:1024B300A3EAF0A3E9F022E51024E8F582E434026C
:1024C300F583E00510229002E53007039002E8E46B
:1024D30075F00112249A0224752000E97F2ED200A0
:1024E3008018EF540F2490D43440D4FF30040BEF02
:1024F30024BFB41A0050032461FFE51160021511D3
:102503000514E5147002051330070E9002E5E47517
:10251300F00112249AEF0220CC023EF17403D20799
:102523008003E4C207F5109002E51224B1E4F5112B
:10253300F513F514E51160077F201224FD80F5756E
:1025430012FFC201C200C202C203C205C206C20810
:102553001224C9FF700D3007057F0012250EAF143A
:10256300AE1322B4255FC2D5C2041224C9FF24D0FE
:10257300B40A00501A75F00A781130D50508B6FF71
:102583000106C6A426F620D5047002D20380D924FE
:10259300CFB41A00EF5004C2E5D20402270FD201D0
:1025A30080C6D20080C0D20280BCD2D580BAD20508
:1025B30080B47F201224FD2002077401B51100406E
:1025C300F11224BAFF1224FD022537D208D2068065
:1025D300951224BAFB1224BAFA1224BAF94A4B70A0
:1025E3000679E07A277BFF20022EE511602A7E0020
:1025F3008E8275830012209F60060EEE651270F0C6
:10260300C2D5EBC0E0EAC0E0E9C0E0EE122756D045
:10261300E0F9D0E0FAD0E0FB122475FF60AAEBC02A
:10262300E0EAC0E0E9C0E01224FDD0E02401F9D0E3
:10263300E03400FAD0E0FBE5120460DCD512D98067
:10264300877BFF7A277952D202809C7910800279A6
:1026530008C206C2088008D2D5790A8004790AC262
:10266300D5E512047002F512E4FAFDFEFF1224BA56
:10267300FC7B082001131224BAFD7B1030000A12E0
:1026830024BAFE1224BAFF7B20EC3382D592D550B4
:1026930013C3E43000069FFFE49EFEE42001039D84
:1026A300FDE49CFCE4CBF8C201EC700CCFCECDCCA6
:1026B300E824F8F870F38017C3EF33FFEE33FEED31
:1026C30033FDEC33FCEB33FB994002FB0FD8E9EB12
:1026D300300105F8D0E0C448B201C0E00AEC4D4E29
:1026E3004F78207B0070C2EAB5120040BCC0E012F4
:1026F3002758D0F0D0E0200104C4C0E0C4B201C028
:10270300F01224E6D0F0D5F0EB0225371223F6259C
:10271300D453264E5825A54C25A14226524F265A5E
:1027230044265A4925BA432660552644462644453D
:1027330026444728005025A92D25AD2E25D02B252D
:10274300B12325CE2027E92A256948000025C83F63
:102753003F3F00790AA2D5200314300509B91002BE
:102763000404B9080104A2D5200602500104200282
:10277300689202B511005034C0E07F203003197F06
:1027830030A20272067205500F1227AFC202C206B0
:10279300C205C2087F30800F300503E9C0E0122470
:1027A300FD300503D0E0F9D0E0B511CC3005177F3B
:1027B30030B9100C1224FD7F583004077F78800352
:1027C300B908031224FD3002057F2D0224FD7F206A
:1027D3002008F87F2B2006F322920280CF286E7503
:1027E3006C6C2900D2011224BA3001F8C2017811AD
:1027F30030D50108F60225692D504349581224BAF1
:102803002403B405004001E49027FB931224EE74E3
:102813003A1224EED20375110402264EE4FD75F03C
:1028230002EDA42400F582E5F034DAF583E493FAAB
:10283300740193FBED25E0FFE433FE74632FF5820F
:1028430074013EF583EAF0A3EBF075F002EDA424E6
:1028530004F582E5F034DAF583E493FA740193FB2B
:10286300ED25E0FFE433FE745F2FF58274013EF53E
:1028730083EAF0A3EBF075F002EDA42408F582E5FA
:10288300F034DAF583E493FA740193FBED25E0FF6A
:10289300E433FE74532FF58274013EF583EAF0A30B
:1028A300EBF074632FF58274013EF583E0FEA3E041
:1028B300C394FFEE940F4015ED25E0FFE433FE745F
:1028C300632FF58274013EF583E4F0A3F0ED25E078
:1028D300FFE433FE745F2FF58274013EF583E0FE5F
:1028E300A3E0FF4E6009D3EF94FFEE940F4018ED81
:1028F30025E0FFE433FE745F2FF58274013EF58318
:10290300740FF0A374FFF0ED25E0FFE433FE745F72
:102913002FF58274013EF583E0FAA3E0FB74632F85
:10292300F58274013EF583E0FEA3E0C39BEE9A407B
:1029330026ED25E0FFE433FE74632FF58274013E38
:10294300F583E4F0A3F0745F2FF58274013EF58301
:10295300740FF0A374FFF0ED25E0FFE433FE74532E
:102963002FF58274013EF583E0FEA3E0FF4E60097C
:10297300C3EF94FFEE940F4017ED25E0FFE433FE21
:1029830074532FF58274013EF5837408F0A3E4F0C9
:10299300ED25E0FFE433FE74632FF58274013EF509
:1029A30083E0FAA3E0FB74532FF58274013EF583B1
:1029B300E0FEA3E0D39BEE9A402AED25E0FFE4334B
:1029C300FE745F2FF58274013EF583E0FAA3E0FB0A
:1029D30074532FF58274013EF583E0FEA3E0C39B9D
:1029E300EE9A4036ED25E0FFE433FE74632FF58263
:1029F30074013EF583E4F0A3F074532FF582740160
:102A03003EF5837408F0A3E4F0745F2FF58274013C
:102A13003EF583740FF0A374FFF0ED25E0FFE4337C
:102A2300FE74632FF58274013EF583E0FAA3E0FBA5
:102A330074532FF58274013EF583E0FEA3E0C39B3C
:102A4300FBEE9AFAED25E0FFE433FE745B2FF5828B
:102A530074013EF583EAF0A3EBF074532FF582740F
:102A6300013EF583E0FAA3E0FB745F2FF582740166
:102A73003EF583E0FEA3E0C39BFBEE9AFAED25E06F
:102A8300FFE433FE74572FF58274013EF583EAF0B9
:102A9300A3EBF00DED6402600302282190DA10E449
:102AA30093F52790DA14E493FF139210EFC31313F3
:102AB300921122011C00011A00C110011D00011B0B
:102AC30000C111410364004103650041031A004141
:102AD300031E004103370041030D0041033500414C
:102AE3000336004103380041031D0056031F010054
:102AF30000000000000000000000000000000000D3
:102B03000000000045030E0200000000470313030A
:102B130010010000000042031B04004303390500B9
:102B23000041033C00C10FC10BC10CC10DC10AC15F
:102B33000EC1094401F800000000012702540153AB
:102B43000800080008000800080008000FFF0FFF36
:102B5300000000004401A80800080041013B0102F5
:102B63002300000228000A0225271041020FFF411B
:102B730001670044013C0000000041027100420271
:102B830082DC005002720000000000000000000020
:102B9300000000000000500261000000000000007F
:102BA30000000000000000000050022100010203A9
:102BB3000405060708090A0B0C0D0E0F60300231DD
:102BC3000000000000000000000000000000000002
:102BD30000000000000000000000000000000000F2
:102BE30000000000000000000000000000000000E2
:102BF30020302A0000000000000000000000000058
:102C030000000000000000000000000000000000C1
:102C130000000000000000000000000000000000B1
:102C230000000044021000000000440214FFFF00F3
:102C330001420218000041021A0041021B00410236
:102C43001C0041021D0041021EFF41021F00410200
:102C5300200041000000420111F2004102B800418E
:102C630002BC004102B3004102BD004102BE00416B
:102C730002BB284102B90F4102B2004402D800004E
:102C830000004102B0004202B500004202AE000063
:102C93004102D7004102D6004102B1004102BFFF09
:102CA3004102B4004102BA004102B7004402840069
:102CB3000000004402880000000044028C00000071
:102CC30000420290FFFF4202920000420294000081
:102CD3004202960000420298000042029A0000421B
:102CE300029C000042029E00004202A00000420239
:102CF300A200004102A4004102A5014402A6000073
:102D030000004402AA00000000009002F5EEF0A3C8
:102D1300EFF0A3ECF0A3EDF0A3EAF0A3EBF0900245
:102D2300F5E0FAA3E0FB7C007DA7CFEBCFCEEACEA4
:102D33001221127C007D061221128D14E51475F008
:102D4300A7A4FFAEF0C3EB9FF516EA9EF515A3A368
:102D5300E0FFA3A3E0FDCBEDCBC39FF517AC15AD0F
:102D6300169002F7E0FE1221007C007DA7122112CB
:102D7300C3EB9FF518C374A79516FFE49515FE9052
:102D830002F7E0FCA3E0FD1221007C007DA71221E5
:102D930012A3A3E0FDCEEDCEC39FF519E514701C7D
:102DA300A3E0FBA3E0FAA3E0F9EE1220CC9002FE2D
:102DB300E0FBA3E0FAA3E0F9E5198027E514B401E9
:102DC300359002FBE0FBA3E0FAA3E0F9E51812203B
:102DD300CC9002F9A3E0FF9002FEE0FBA3E0FAA38C
:102DE300E0F9EF1220CC900301E0FBA3E0FAA3E0AB
:102DF300F9E517022ED9E514B402359002FBE0FB86
:102E0300A3E0FAA3E0F9E5171220CC9002F9A3E0BE
:102E1300FF9002FEE0FBA3E0FAA3E0F9EF1220CC5F
:102E2300900301E0FBA3E0FAA3E0F9E519022ED930
:102E3300E514B403349002FBE0FBA3E0FAA3E0F94A
:102E4300E5171220CC9002FEE0FBA3E0FAA3E0F921
:102E5300E5181220CC9002F9A3E0FF900301E0FBF8
:102E6300A3E0FAA3E0F9EF806DE514B40434900213
:102E7300FBE0FBA3E0FAA3E0F9E5191220CC9002F2
:102E8300FEE0FBA3E0FAA3E0F9E5171220CC9002E1
:102E9300F9A3E0FF900301E0FBA3E0FAA3E0F9EF5D
:102EA3008034E514B40532CFEDCF9002FBE0FBA3F1
:102EB300E0FAA3E0F9EF1220CC9002FEE0FBA3E0DE
:102EC300FAA3E0F9E5171220CC900301E0FBA3E09D
:102ED300FAA3E0F9E5181220CC227B017A067900E7
:102EE3009002EDF09002E8EEF0A3EFF0A3EBF0A375
:102EF300EAF0A3E9F090036474AAF09003657455B3
:102F0300F0E49002EEF0A3F09002EDE0FFA3E0FC0A
:102F1300A3E0FDC39FEC940040030230297806CE62
:102F2300ECCEEDC333CE33CED8F9FF9002E9E02FD8
:102F3300FF9002E8E03EFE1239F5EF60277F017E45
:102F430000123F6978069002EEE0FEA3E0C333CEA1
:102F530033CED8F9FF9002E9E02FFF9002E8E03E7C
:102F6300FE1239F59002EEE0FCA3E0FD7806CEEC0C
:102F7300CEC333CE33CED8F9FF9002E9E02FFF90D2
:102F830002E8E03EFEC0E0EFC0E07806CEECCEED16
:102F9300C333CE33CED8F9FF9002EAA3E0FAA3E01D
:102FA3002FF9EA3EFACCEACCCDE9CDD0E0FFD0E070
:102FB300FE7B40123696EF60597F017E00123F6917
:102FC3009002EEE0FCA3E0FD7806CEECCEC333CE58
:102FD30033CED8F9FF9002E9E02FFF9002E8E03EFC
:102FE300FEC0E0EFC0E07806CEECCEEDC333CE33C7
:102FF300CED8F9FF9002EAA3E0FAA3E02FF9EA3E64
:10300300FACCEACCCDE9CDD0E0FFD0E0FE7B401294
:1030130036969002EFE004F06003022F0B9002EE6D
:10302300E004F0022F0BE4900364F0900365F0904A
:1030330002EEF0A3F09002EDE075F040A4FFA3E0F0
:10304300FCA3E0FDC39FEC95F0503A9002EAE0FB4D
:10305300A3E0FAA3E0F98D828C8312209FFF9002F4
:10306300E9E02DFD9002E8E03C8D82F583E4936F67
:1030730060037F01229002EFE004F070B89002EE4B
:10308300E004F080B07F00229002E6EFF0C39408E2
:10309300400302322EE0F925E0FEC3E494009002DF
:1030A300E8F074F29E9002E7F0900111E0FEA3E0D5
:1030B300FF24FEFDEE3401FCC3ED9FFDEC9EFC906E
:1030C30002E7E0FAA3E0FB2DFDEA3C8D82F583E401
:1030D30093FD741329F582E43401F583EDF0900137
:1030E30012E024FFFD900111E03401FCC3ED9FFFCA
:1030F300EC9ECF2BCF3A8F82F583E493B4013090CB
:1031030002E6E0900000F0FD25E0FEC3E49400FF3A
:1031130074F29E900111F0A3EFF0EDFEE42400FFA2
:10312300EE34DC900282F0A3EFF07F01120066E43C
:103133009002E9F09002E7E0FEA3E0FF9002E6E0F0
:10314300C43354E02411F582E43400F583C083C012
:10315300829002E9E0FDD082D08375F0021223EA67
:10316300EEF0A3EFF09002E7E0FEA3E0FFF5828E1E
:1031730083E493FBED2401FDE433FCED6B7001EC80
:10318300600302320A8F828E83740193FF6003B45B
:1031930008089002E8E02402803DEFB401089002A1
:1031A300E8E024038031EF64026004EFB406089082
:1031B30002E8E024048020EFB409089002E8E02448
:1031C300058014EF64046009EF64056004EFB4073D
:1031D300109002E8E02406F09002E7E03400F0806B
:1031E3003CEFB403229002E7E0FEA3E0F5828E8376
:1031F3007402932403FFE433FE9002E8E02FF0907F
:1032030002E7E03EF080169002E6E0C43354E02487
:1032130011F582E43400F583E4F0A3F0229002E98F
:10322300E004F0E064106003023137229002F7EB10
:10323300F09002F5EFF0A3EDF0EFD39D400790027D
:10324300F5E0FF80059002F6E0FF9002F7E0FEEF65
:10325300D39E40159002F6E0FF9002F5E0FDD39F68
:103263004005CFEDCF80058003CFEECF8F149002C2
:10327300F6E0FF9002F5E0FEC39F5005CFEECF804E
:10328300009002F7E0FEEFC39E50159002F6E0FFB8
:103293009002F5E0FDC39F5005CFEDCF800580037D
:1032A300CFEECF8F15C3E5149515F5167011900267
:1032B300F8E0FBA3E0FAA3E0F9E4F5F0023366904B
:1032C30002F5E065147028A3E0FFA3E0FDC3EF9DC2
:1032D300FFE49400FE7C007DA7122100AD161221AD
:1032E30067A3E0FBA3E0FAA3E0F9EE8FF08074900C
:1032F30002F6E065147033A3E0FF9002F5E0FDC32E
:10330300EF9DFFE49400FE7C007DA7122100AD1623
:10331300122167EF244EFFEE3401F99002F8E0FB2F
:10332300A3E0FAA3E0C98FF080399002F7E06514B7
:1033330070349002F5E0FFA3E0FDC3EF9DFFE4943A
:1033430000FE7C007DA7122100AD16122167EF2439
:103353009CFFEE3402F99002F8E0FBA3E0FAA3E04D
:10336300C98FF01222169002F8E0FBA3E0FAA3E063
:10337300F91221B3D394EAE5F0940340087403757A
:10338300F0EA1221DEE5149002FB700DE0FBA3E0EE
:10339300FAA3E0F9E4F5F0800CE0FBA3E0FAA3E084
:1033A300F9E48516F01222169002FEE0FBA3E0FA80
:1033B300A3E0F9E48514F00222167E007F157D0058
:1033C3007B017A0379201224497E007F137D007BE1
:1033D300017A0179401224497E007F137D007B012D
:1033E3007A0179D21224497E007F137D007B017A12
:1033F3000179E51224497E007F137D007B017A0168
:1034030079BF1224497E007F137D007B017A017905
:10341300AC1224497F14123AC39003531223AD7F95
:1034230010123AC39003571223AD9002E874FFF0D1
:10343300A37447F0A3741FF0900355E0FFA3E0903B
:1034430002EBCFF0A3EFF0900357E0FFA3E090026D
:10345300EDCFF0A3EFF0900359E0FFA3E09002EF6C
:10346300CFF0A3EFF07B017A03794312251FE49099
:103473000341F0900341E0FFFDC3740D9DFDE4940F
:1034830000FC74412DF58274033CF583E0FDEF7578
:10349300F002A4FFC374189FFFE495F0FE74412F5C
:1034A300F58274033EF583EDF0900341E075F0027D
:1034B300A4FFC374199FFFE495F0FE74412FF582B6
:1034C30074033EF583E4F0900341E004F0E0B40CB0
:1034D300A2900341741AF0A37403F022C2A3C2A101
:1034E300C2A0123F187F057E00123F69E58720E4E2
:1034F300077F327E00123F691233BD1235DB12396A
:103503008BD2AFC2A77B017D807F021237DF7B01A5
:103513007D017F021237DF7B017D027F021237DFDD
:103523007B017D087F021237DF759E20539DFEE4E9
:10353300F59AF5A4F5A57D017F041239027D017F7B
:10354300101239027D017F20123902E4FF123F3944
:10355300E4FF123D597F02123D5975F2107B017D44
:10356300017F8C7E0012374043AA04E4FB7D807FF9
:10357300031237DF43B324D2E9439D20759E207D98
:10358300017F01123902E4F59C53C9EF7D01FF125B
:103593003E0BE4FDFCFF123DD3D28C123D99E51B9B
:1035A3005403FF7E00BF01027E01EE75F014A4F503
:1035B300A5BF02047F0180027F00EF75F00AA4F526
:1035C3009AE51B5403FFBF03047F0180027F00EFD2
:1035D30075F00AA4F5A480C6E49002E5F0123E3E1D
:1035E30090063CE0FCA3E0FDA3E0FEA3E0FF7B49E3
:1035F3007AC5791678EAC3122376600BE4FF123B8F
:10360300DC9002E57401F0123CCB90063AE0FCA397
:10361300E06F7002EC6E6018123CCB90063AEEF04D
:10362300A3EFF07D01E4FF123C7F9002E57401F00B
:10363300E587C4540364027042E5FE131313541F59
:1036430030E01CE5FE5407700C7D05FF123C7F90B3
:1036530002E57401F0E5FE54F84407F5FE8012E537
:10366300FE5407700C7D04FF123C7F9002E5740149
:10367300F0E5FE54F74408F5FE800EE5FE5407D34B
:103683009400400215FE53FEF79002E5E06003123A
:103693000016229002F0EEF0A3EFF0A3EBF09003FC
:1036A30064E0B4AA06A3E0645560037FFF2290029E
:1036B300F0E0FEA3E0FFC3EE94F04009EE94F45073
:1036C30004790480027908EF543FFFCEEFCEC37430
:1036D300409EFF9002F2E0D39F40037FFC22CFED98
:1036E300CFEF543F6E60037FFB22CFE9CF123EC979
:1036F300EF60037FFF229002F0E0F8A3E0F58288F9
:10370300838583858582849002F2E02E14F58FCF22
:10371300EDCF8F82CEECCECFCFEEF583E58630E6CC
:103723001075869AE58630E1047A028006E4FA8011
:10373300027A01CFE9CF123F51CFEACF229002E5BF
:10374300EEF0A3EFF0CFEDCFEF6401701E9002E532
:10375300A3E0FF547F600343B280EF30E702D288D7
:103763009002E5E030E020D28A801C9002E5A3E0DD
:10377300FF547F600353B27FEF30E702C2889002A9
:10378300E5E030E002C28ACFEBCFEF64017027900F
:1037930002E5A3E0FFCDEFCD547F42B2EF30E70265
:1037A300D2A89002E5E030E002D2AAE5B2547F60ED
:1037B30002D2EED2AF229002E5A3E0FFCDEFCD54CB
:1037C3007FF452B2EF30E702C2A89002E5E030E0A6
:1037D30002C2AAE5B2547F7002C2EE22C9EDC990BB
:1037E30002E5EFF014601314601614601914601CE2
:1037F3002404701CACC4AEC58016AC92AE9380108A
:10380300AC94AE95800AAC96AE978004ACC2AEC3BE
:10381300CFEBCFEF14601414601A146020240370EC
:1038230025E9F4FF5CFCEE5FFE801BE9F45CFCEE33
:1038330049FE8012EC49FCE9F45EFE8009EC49FC88
:10384300CFE9CFEE4FFE9002E5E01460121460144E
:10385300146016146018240470188CC48EC5228C4E
:10386300928E93228C948E95228C968E97228CC264
:103873008EC322787FE4F6D8FD7581590238BD02E4
:1038830034DFE493A3F8E493A34003F68001F20842
:10389300DFF48029E493A3F85407240CC8C333C48A
:1038A300540F4420C8834004F456800146F6DFE4F5
:1038B300800B0102040810204080902AB6E47E01A8
:1038C3009360BCA3FF543F30E509541FFEE493A368
:1038D30060010ECF54C025E060A840B8E493A3FA7A
:1038E300E493A3F8E493A3C8C582C8CAC583CAF006
:1038F300A3C8C582C8CAC583CADFE9DEE780BECCD8
:10390300EFCCCFEDCFEF64017064539DFDEC30E05D
:1039130003439D04EC30E103439D08EC1313543F30
:10392300429FE4FDC8EDC87E007401088005C333DF
:10393300CE33CED8F9FFECFBEF5B6018C374059D63
:10394300FFC8EFC87401088002C333D8FCFFF452E8
:1039530094EF42950DEDB406CBEC30E6065394BFDD
:10396300439540EC30E72053947F43958022EC301D
:10397300E003539DFBEC30E103539DF7CFECCFEF16
:103983001313543FF4529F22C2EAE4F5E275D18047
:1039930053D1FB53E2BFF5D3F5D5F5D7CE7405CE9E
:1039A300CF7480CF8EE78FE643EBC053EBEFCE743B
:1039B30005CECF7400CF8EE58FE443EB0C53EBFEC3
:1039C300CE7404CECF7440CF8EED8FEC53EAF3CE9A
:1039D3007404CECF7480CF8EEF8FEE43EAC053EAE8
:1039E300EFF5E343E22943D10175D8FF75E107D22F
:1039F300EA22CBEFCBCAEECA900364E0B4AA06A3D3
:103A0300E0645560037FFF22EB54C0FBC3EA94F0EC
:103A13004009EA94F450047C0480027C08CFECCF84
:103A2300123EC9EF60037FFF22CEEACECFEBCF8EEB
:103A3300858F84758F80E4F58EE58630E610758674
:103A4300A6E58630E1047D028006E4FD80027D0167
:103A5300CFECCF123F51CFEDCF22C0E0C083C08265
:103A6300C0D0EEC0E0EFC0E0A281E433FFA283E464
:103A730033FE301114EF6003EE7006EF7007EE7043
:103A830004151B802C051B8028EF25E04E9002DED9
:103A9300F0E51D7008E0B40304151B800EE51DB4AA
:103AA30001099002DEE0B40202051B9002DEE0F59C
:103AB3001DD0E0FFD0E0FED0D0D082D083D0E03262
:103AC3007585008F8475868DAF8EAE8FE4FCFD9077
:103AD30002E51223AD9002E5E0FCA3E0FDA3E0FEC6
:103AE300A3E0FF781012239A9002E51223AD90020F
:103AF300E5E0F8A3E0F9A3E0FAA3E0FBAF84AE8529
:103B0300EB4FFFEA4EFEE9FDE8FC9002E51223AD20
:103B13009002E5E0FCA3E0FDA3E0FEA3E0FF22C0EA
:103B2300E0C083C082C0D0EEC0E0EFC0E0A2A4E456
:103B330033FFA2A2E433FE301014EF6003EE7006ED
:103B4300EF7007EE7004051A8023151A801FEF2506
:103B5300E04EFF9002DCF0BF0304051A80099002D7
:103B6300DCE0B40202151A9002DCE0F51CD0E0FFA1
:103B7300D0E0FED0D0D082D083D0E032C0E0C0838A
:103B8300C082C0D0EEC0E0EFC0E0A2A4E433FFA245
:103B9300A2E433FE301014EF6003EE7006EF7007FB
:103BA300EE7004051A8023151A801FEF25E04EFFDF
:103BB3009002DDF0BF0304051A80099002DDE0B432
:103BC3000202151A9002DDE0F51CD0E0FFD0E0FE02
:103BD300D0D0D082D083D0E0329002E6EFF030E054
:103BE30003123E3E9002E6E090060030E406E4F065
:103BF300A3F08007E475F00112219D7E007F387DDC
:103C0300007B017A067902122449900636E4F0908B
:103C1300063C1223B9EA16C549123CCB90063AEE8C
:103C2300F0A3EFF09002E6E030E1031200162290D9
:103C3300036012248E7810EC4D4E4F70047CA57DEA
:103C4300A5C3EC13FCED13FDEE13FEEF13FF5010B1
:103C5300EC64CCFCED644CFDEE644EFEEF64CEFFF1
:103C6300D8DF9003601223ADEE547FFE22900360F1
:103C7300EEF0EFA3F0A374A5F0A3F0229002E6EF19
:103C8300F0A3EDF0C3941C503E9002E6E030E00355
:103C9300123E3E9002E7E0FF75F002A42400F58295
:103CA300E5F03406F583E475F00112219D900636A4
:103CB300EFF0123CCB90063AEEF0A3EFF09002E661
:103CC300E030E103120016227B017A0679007D3889
:103CD3009002E8EBF0A3EAF0A3E9F0E4A3F0A3F089
:103CE3009002E8E0FBA3E0FAA3E0F9CFEDCF1D8F4C
:103CF3008275830012209FFF9002ECE02FF0900268
:103D0300EBE03400F0ED70D8E0FEA3E0F4FFEEF456
:103D1300FE22C2D5E830E70FB2D5E4C39BFBE49A99
:103D2300FAE499F9E498F8EC30E717B2D5123D4B71
:103D33001222C0E4C39BFBE49AFAE499F9E498F8ED
:103D430080031222C030D50DE4C39FFFE49EFEE43E
:103D53009DFDE49CFC22E5F654F04FF5F6EFD39479
:103D6300075011C8EFC87401088002C333D8FCF4AC
:103D730052925293EFD39407401BEFD3940F5015F5
:103D8300EF24F8FEC8EEC87401088002C333D8FCE0
:103D9300F452C452C52212281F9002E57407F09012
:103DA30002E5E0FFF4600B12308B9002E5E014F0C3
:103DB30080ED7E007F207D007B017A01791B122438
:103DC300497E007F107D007B017A0079010224493E
:103DD300C3E49DFDE49CFCEF700ACFEDCFEFF58AC1
:103DE300ECF58C22EFB4010ACFEDCFEFF58BECF5B8
:103DF3008D22EFB40211CFEDCFEFF5CC8FCACEEC0D
:103E0300CEEEFFF5CD8FCB22EF7009E58954F04D4F
:103E1300F5898024EFB40111CFEDCFEFC454F0FF47
:103E2300E589540F4FF589800FEFB40208C2CDC264
:103E3300CCC2C880037F00227F01227B017A0679EE
:103E4300009002E8EBF0A3EAF0A3E9F09002E8E0C7
:103E5300FBA3E0FAA3E0F9C8E9C8CCEACCCDEBCDEB
:103E63007BFF7AD879007E007F400220799002E2BE
:103E7300EBF0A3EAF0A3E9F0CFEDCF7E009002E2EE
:103E8300E0FBA3E0FAA3E0F9C8E9C8CCEACCCDEBA8
:103E9300CD7BFF7AD87900022079C0E0C0F0C083DF
:103EA300C082C0D075D008AD26AC25E4FF123DD347
:103EB300C2A5AF29AE28120046D2A5D0D0D082D059
:103EC30083D0F0D0E032900364E0B4AA06A3E064A8
:103ED3005560037FFF22A2AF9200C2AF75A1557553
:103EE300A1AAEF42B1E4F5A1A20092AFFF22EFB481
:103EF3000A07740D123EFC740A309811A899B8137E
:103F03000CC2983098FDA899C298B811F63099FD63
:103F1300C299F5992275A15575A1AA43B98053B9E0
:103F2300BFE4F5A175A15575A1AAE5B954F84405F7
:103F3300F5B9E4F5A12243F308E5F354FC4FF5F397
:103F430043F320AFF49002E5EFF075F22022A2AF25
:103F53009200C2AF75A15575A1AAEFF452B1E4F571
:103F6300A1A20092AF22AD07AC06ED4C600E7FE834
:103F73007E03120046ED1D70F11C80EE220000004E
:103F8300000000000000000000000000000000002E
:103F9300000000000000000000000000000101011B
:103FA30001010101010101010101020202020202F8
:103FB30002020202030303030303030304040404CE
:103FC300040404040505050505050606060606069C
:103FD300070707070707080808080809090909095F
:103FE300090A0A0A0A0B0B0B0B0B0C0C0C0C0D0D1C
:103FF3000D0D0D0E0E0E0E0F0F0F0F1010101011D2
:10400300111112121212131313131414141515157C
:10401300161616161717171818181919191A1A1A1F
:104023001B1B1B1C1C1C1D1D1D1E1E1E1F1F1F20BA
:10403300202121212222222323242424252525264D
:1040430026272727282829292A2A2A2B2B2C2C2CD8
:104053002D2D2E2E2F2F3030303131323233333459
:104063003435353536363737383839393A3A3B3BD4
:104073003C3C3D3D3E3E3F3F404041414242434345
:1040830044444546464747484849494A4A4B4C4CAD
:104093004D4D4E4E4F4F505151525253545455550E
:1040A300565657585859595A5B5B5C5D5D5E5E5F67
:1040B30060606162626363646565666767686969B6
:1040C3006A6B6B6C6D6D6E6F6F70717172737374FD
:1040D300757576777878797A7A7B7C7C7D7E7F7F3D
:1040E300808181828384848586878788898A8A8B75
:1040F3008C8D8D8E8F9090919293949495969797A3
:1041030098999A9B9B9C9D9E9F9FA0A1A2A3A4A4C8
:10411300A5A6A7A8A8A9AAABACADADAEAFB0B1B2E6
:10412300B3B3B4B5B6B7B8B9B9BABBBCBDBEBFC0FB
:10413300C1C1C2C3C4C5C6C7C8C9C9CACBCCCDCE09
:10414300CFD0D1D2D3D4D5D5D6D7D8D9DADBDCDD0D
:10415300DEDFE0E1E2E3E4E5E6E7E8E9EAEBEBEC06
:10416300EDEEEFF0F1F2F3F4F5F6F7F8F9FAFBFC04
:10417300FDFF000001020203040405060607080907
:10418300090A0B0B0C0D0E0E0F1010111213131442
:104193001516161718191A1A1B1C1D1D1E1F202170
:1041A30021222324252526272829292A2B2C2D2E95
:1041B3002E2F30313233333435363738393A3A3BB0
:1041C3003C3D3E3F40414142434445464748494ABE
:1041D3004B4B4C4D4E4F50515253545556575859C3
:1041E3005A5B5C5D5D5E5F606162636465666768C0
:1041F300696A6B6C6D6E6F707172747576777879AE
:104203007A7B7C7D7E7F8081828384858688898A90
:104213008B8C8D8E8F9091929495969798999A9B6B
:104223009D9E9FA0A1A2A3A4A6A7A8A9AAABADAE39
:10423300AFB0B1B2B4B5B6B7B8BABBBCBDBEC0C1FE
:10424300C2C3C4C6C7C8C9CBCCCDCECFD1D2D3D4B9
:10425300D6D7D8D9DBDCDDDFE0E1E2E4E5E6E7E968
:10426300EAEBEDEEEFF1F2F3F5F6F7F8FAFBFCFD0E
:10427300FEFF0104FFFF000205FF010306FF020723
:10428300FFFF000508FF010406090205070A0306EC
:104293000BFF04090CFF05080A0D06090B0E070A9C
:1042A3000FFF080DFFFF090C0EFF0A0D0FFF0B0E8A
:1042B300FFFF05FFFFFF0406FFFF0507FFFF06FFE4
:1042C300FFFF0109FFFF0002080A0103090B020AAD
:1042D300FFFF050DFFFF04060C0E05070D0F060E6D
:1042E300FFFF09FFFFFF080AFFFF090BFFFF0AFF9C
:1042F300FFFF0000000001010101020202020303AB
:10430300030300010203010203040203040503047F
:10431300050600010203000102030001020300017C
:10432300020303040506020304050102030400015A
:10433300020303030303020202020101010100005D
:10434300000006050403050403020403020103023B
:104353000100030201000302010003020100030242
:104363000100030201000403020105040302060520
:104373000403000102030405060708090A0B0C0DD8
:104383000E0F0004080C0105090D02060A0E0307AF
:104393000B0F03070B0F02060A0E0105090D00049C
:1043A300080C0C0D0E0F08090A0B04050607000183
:1043B30002030F0E0D0C0B0A09080706050403027E
:1043C30001000F0B07030E0A06020D0905010C0875
:1043D30004000C0804000D0905010E0A06020F0B68
:1043E300070303020100070605040B0A09080F0E61
:1043F3000D0C000102030706050408090A0B0F0E42
:104403000D0C0007080F0106090E02050A0D03042F
:104413000B0C03040B0C02050A0D0106090E000721
:10442300080F0F0E0D0C08090A0B070605040001FF
:1044330002030C0D0E0F0B0A0908040506070302FD
:1044430001000C0B04030D0A05020E0906010F08F7
:1044530007000F0807000E0906010D0A05020C0BE1
:10446300040303020100040506070B0A09080C0DE7
:104473000E0F000102030B0C0D040A0F0E050908B1
:104483000706000B0A09010C0F08020D0E070304AF
:10449300050603040506020D0E07010C0F08000BA9
:1044A3000A09090807060A0F0E050B0C0D04000183
:1044B300020306070809050E0F0A040D0C0B03027D
:1044C300010006050403070E0D02080F0C01090A7B
:1044D3000B00090A0B00080F0C01070E0D0206055D
:1044E300040303020100040D0C0B050E0F0A06075B
:1044F300080900000001000A0032006401F403E827
:1045030007D01201000200000040861A84580001FF
:104513000102030104030904160345007400680043
:1045230061006E0065002D00580056004900240309
:104533004C006900670068007400260045006C00A9
:104543006500630074007200690063006900740011
:10455300790005010906A1018501050719E029E78D
:1045630015002501750195088102950175088103E0
:104573009513750815002565050719002965810040
:104583009505750105081901290591029501750322
:104593009103C005010902A10185020901A10005DA
:1045A3000919012903150025019503750181029558
:1045B3000175058103050109300931093815812584
:1045C3007F750895038106C0C0050D0904A1018507
:1045D300030922A10009420944093C09450932158E
:1045E3000025017501950581029501750381037508
:1045F300080951950181020501751026FF7F46FFC9
:104603007F0930093195028102C0C0050C0901A15F
:10461300018504A10009E909EA09E209CD09B509FF
:10462300B63500450715002501750195068102750C
:104633000195028101C0C00501090EA1018505058F
:104643000D0921A100050909019501750115002531
:10465300018102050109379501750F550F65143660
:10466300F0F146100E16F0F126100E8106C0C006BA
:1046730000FF0901A1010902150026FF0075089535
:104683004081060902150026FF0075089540910632
:10469300C00601FF0903A1010904150026FF0075E7
:1046A30008954081060904150026FF00750895400A
:1046B3009106C009026900030100A0FA0904000081
:1046C3000203010000092111010001221D01070558
:1046D30081031600010705010340000109040100DD
:1046E3000203000000092110012101222200070515
:1046F3008203400001070502034000010904020090
:1047030002030000000921100121012222000705F4
:10471300830340000107050303400001253034589B
:1047230025303458253034580003070B0F02060A8E
:104733000E0105090D0004080C0C0804000D090501
:10474300010E0A06020F0B07033BC03855352B3207
:10475300402F6B2CC02A4027D52595238021801F0D
:10476300AB1DD51C2B1A95191517AB16551515131B
:10477300EB12D511C010C00FD50EEB0E150D550C55
:10478300950BD50B2B0A950A00096B08EB086B07F1
:10479300EB0780071506AB064005EB0595054005BD
:1047A3000004AB046B042B03EBFDEFE2D5C9BEB3EE
:1047B300A9A0978E867F78716B655F5A55504B47DA
:1047C300433F3C3835322F2D1D1F2123FF181A1C60
:0847D30011131517FF0C0E1065
:00000001FF
