:08000000027962027CF8323241
:07000B0002819701060210BB
:100013000200067B017A06790090031C7401F07FCD
:06002300007ED8026AE233
:0D002B0002000775A15575A1AA43B110226E
:03003B00027D55EE
:10004300020066125BB69003137407F0900313E08B
:10005300FFF4600B126C86900313E014F080ED2222
:10006300027BD1C0E0C0F0C083C082C0D075D0088D
:1000730020D90302128130D803021281E5D9543FFB
:1000830012511F12080001780109650200CE041104
:100093007A2001652109522200A82300BB2409719B
:1000A300300000127C75D70063D640C20BE5D654EE
:1000B300FC4402F5D602127C75DF0063DE40C20CFD
:1000C300E5DE54FC4402F5DE02127C20DE0302125C
:1000D3007CAFDB90030EE4F0A3EFF063DE809003CC
:1000E3000EE0FEA3E0FFC874C0C8CC7404CCCD748A
:1000F30001CD7B017A047980124E0590030EA3E0B3
:10010300F5DFD20C53DEFC900480E064A5600302AB
:10011300127CA3E0645A600302127CA3E0640360D0
:100123000302127CA3E070259002F6E0540F44A072
:10013300F0C874B1C8CC7402CCCD7401CD7B017A04
:100143000479847E007F30124E0502127C90048372
:10015300E06402600302127C9002F6E0540FF002A6
:10016300127C75D30063D240C209E5D254FC440229
:10017300F5D202127C20DE0302127C63D280AFDB55
:1001830090030EE4F0A3EFF090030EA3E0F5D390F9
:100193000378E030E75790057FE075F040A4240032
:1001A300F9740635F0FAC8E9C8CCEACCCD7401CDB0
:1001B3007B017A0579007E007F40124E0590054051
:1001C3007452F0A37444F090057FE0FF04F09005AF
:1001D30042EFF090057EE0FFA3E0C39F50030209C6
:1001E3004CE4F0900378E0547FF002094C90054012
:1001F3007452F0900501E0900541F0900502E09003
:100203000542F0900503E0900543F0900500E0B44B
:100213004410A3E0B44B0BA3E0B44206A3E0644351
:10022300601A900500E064447052A3E0644C704C83
:10023300A3E064547046A3E064437040900504E077
:10024300C394314037E0D394385031900501E090A6
:10025300057EB44B0B7408F0900504E024D98009A3
:100263007404F0900504E024ED900378F090057F8A
:10027300E4F0900378E04480F002094C900500E03C
:1002830064437023A3E0B44B1EA3E0B45919A3E065
:10029300B45414900544E514F0900504E0F514906B
:1002A3000545E514020554900500E064436003022C
:1002B30003EFA3E0645260030203EFA3E0644B6027
:1002C300030203EFA3E0644D60030203EF9001E632
:1002D300E0FFA3E0900544CFF0A3EFF09001E8E046
:1002E300FFA3E0900546CFF0A3EFF09001F7E024E1
:1002F30001FF9001F6E03400FE90023BE0FCA3E036
:10030300FDD39FEC9E4008CEECCECFEDCF80009086
:1003130001F3E024FFFD9001F2E034FFFCC3EF9D05
:10032300EE9C50269001F7E02401FF9001F6E034A3
:1003330000FE90023BE0FCA3E0FDD39FEC9E40084F
:10034300CEECCECFEDCF8010800E9001F3E024FFF2
:10035300FF9001F2E034FFFE9001E6EEF0A3EFF030
:100363009001F9E02401FF9001F8E03400FE9002CF
:100373003DE0FCA3E0FDD39FEC9E4008CEECCECF46
:10038300EDCF80009001F5E024FFFD9001F4E0340F
:10039300FFFCC3EF9DEE9C50269001F9E02401FF82
:1003A3009001F8E03400FE90023DE0FCA3E0FDD3B1
:1003B3009FEC9E4008CEECCECFEDCF8010800E9008
:1003C30001F5E024FFFF9001F4E034FFFE9001E823
:1003D300EEF0A3EFF09001E6E0FDA3E0900548CD39
:1003E300F0A3EDF0A3EEF0A3EF020554900500E0B7
:1003F30064436003020512A3E06452600302051222
:10040300A3E0644B6003020512A3E0645A60030295
:1004130005129001F6E0FFA3E0900544CFF0A3EFAF
:10042300F09001F2E0FFA3E0900546CFF0A3EFF0D8
:100433009001F8E0FFA3E0900548CFF0A3EFF09020
:1004430001F4E0FFA3E090054ACFF0A3EFF090059D
:1004530004E0FEA3E0FF9001E6E0FCA3E0FDC3EFB0
:100463009DEE9C4003020507900506E0FEA3E09D78
:10047300EE9C5003020507A3E0FEA3E0FF9001E812
:10048300E0FCA3E0FDEF9DEE9C507990050AE0FEB1
:10049300A3E09DEE9C406D900504E0FFA3E0900176
:1004A300F6CFF0A3EFF0900506E0FFA3E09001F292
:1004B300CFF0A3EFF0900508E0FFA3E09001F8CFA1
:1004C300F0A3EFF090050AA3E0FF9001F4EEF0A390
:1004D300EFF0A3E0FDA3E090054CCDF0A3EDF09089
:1004E30001F2E0FDA3E090054ECDF0A3EDF0900105
:1004F300F8E0FDA3E0900550CDF0A3EDF0A3EEF0FE
:10050300A3EF804D90054C74FFF0A3F002094C90CB
:100513000500E064437044A3E06445703EA3E064D7
:10052300437038A3E064447032A20E33900544F064
:10053300A20FE433A3F0900504E024FF920EA3E09E
:1005430024FF920FA20EE433900546F0A20FE4338A
:10055300A3F09003787432F002094C900500E0B4E4
:100563004313A3E0B4450EA3E0B44309A3E06446F8
:10057300700302094C900500E064427028A3E0B4C4
:100583004623A3E0B4571EA3E0B45619C87444C865
:10059300CC7405CCCD7401CD7BFF7A00790E7E003F
:1005A3007F040207F5900500E0644260030206FE43
:1005B300A3E0645560030206FEA3E06449600302FE
:1005C30006FEA3E0644460030206FE90057DF090FE
:1005D300057DE0FF25E0244FF582E43403F583E055
:1005E300FE74442FF582E43405F583EEF090057D27
:1005F300E02444F582E43405F583E0C394304027D6
:1006030090057DE02444F582E43405F583E0D3943A
:1006130039501490057DE02444F582E43405F583D4
:10062300E024D0F00206AB90057DE02444F582E49B
:100633003405F583E0C39461402690057DE02444AE
:10064300F582E43405F583E0D39466501390057D79
:10065300E02444F582E43405F583E024A9F08048DE
:1006630090057DE02444F582E43405F583E0C394EA
:1006730041402690057DE02444F582E43405F5836A
:10068300E0D39446501390057DE02444F582E4348E
:1006930005F583E024C9F0800F90057DE02444F53F
:1006A30082E43405F583E4F090057DE004F0E06432
:1006B3000C60030205D290057DE4F090057DE0FF18
:1006C30025E02444F582E43405F583E0C454F0FEC8
:1006D300EF25E02445F582E43405F583E04EFF90F1
:1006E300057DE02444F582E43405F583EFF09005BD
:1006F3007DE004F0E0B406C302094C900500E06419
:100703004260030207C8A3E0644960030207C8A369
:10071300E0645060030207C8A3E064546003020767
:10072300C890023BE0FFA3E0900544CFF0A3EFF0B5
:1007330090023DE0FFA3E0900546CFF0A3EFF0A3C6
:10074300E4F0A3F0900180E090054AF0900181E08D
:1007530090054BF0A31250E20000000090057DE4E9
:10076300F090054CC083C082E0F8A3E0F9A3E0FA5F
:10077300A3E0FBE8C0E0E9C0E0EAC0E0EBC0E09042
:10078300057DE0F92428F582E43400F583E0FFE4F5
:10079300FCFDFEC8E9C81250C3D0E0FBD0E0FAD09C
:1007A300E0F9D0E0F8EB4FFFEA4EFEE94DFDE84CEF
:1007B300FCD082D0831250D690057DE004F0E0B4E3
:1007C300139F02094C900500E06442702BA3E0B430
:1007D3004726A3E0B45021A3E0B44D1CC87444C819
:1007E300CC7405CCCD7401CD7BFF7ADA79007E0021
:1007F3007F38124E0502094C900500E06442701DDB
:10080300A3E0B44418A3E0B44713A3E0B4430E7BBE
:10081300017A0579447D3812816A02094C900500FA
:10082300E064427028A3E064527022A3E0B4531D35
:10083300A3E0B454187E007F3C7D207B017A0579C8
:10084300441251729003787464F002094C900500CD
:10085300E064427028A3E064427022A3E0B44F1D19
:10086300A3E0B454187E007F3C7D207B017A057998
:10087300441251729003787465F002094C9005009C
:10088300E064427051A3E06443704BA3E06453708F
:1008930045A3E06443703FFE7F3C7D207B017A05E6
:1008A300794412517290004DE02431900544F09048
:1008B3000504E0C394314019E0D394385013E09019
:1008C3000545F024CF900600F09003787466F0801D
:1008D30078900545805C900500E0B44217A3E0B42E
:1008E3004212A3E0B4550DA3E0B45A089003787400
:1008F30067F08055900500E06442703BA3E06442DA
:100903007035A3E06454702FA3E064567029A3E00C
:10091300D39430501AA3E06016940A501290050441
:10092300E090028FF0900505E09001FAF0801A90B4
:10093300028F74FFF080129005407452F0A3744943
:10094300F0A3744EF0A37456F053D2FC02127C75DC
:10095300D50063D440C20AE5D454FC4402F5D40262
:10096300127C20DE0302127C63D48002127C75DCCD
:10097300C0AFDB90030EE4F0A3EFF090030EE07042
:1009830004A3E06408600302114F900447E0FE9063
:100993000446E07C002400FFEC3E90034AF0A3EF02
:1009A300F090030EE4F0A3F090030DF0900441E007
:1009B30090034CF090036774FFF090036EE4F090A3
:1009C3000440E0FF546064206003020C7FEF541F77
:1009D300FFBF0110900445E0700A900444E0FFC398
:1009E3009404400990030D74FFF002127C90034CB1
:1009F300E024FE7003020BA7147003020BCC24FA4D
:100A03007003020BF4147003020C20147003020C25
:100A130049240A6003020C7C900440E020E70302AF
:100A2300114FEF64026003020AE0900443E06401A3
:100A33006003020AE0900442E024FE602424FE6086
:100A43003914604F2404706490036A7401F0A37432
:100A530000F0A37458F090030EE4F0A37416F08032
:100A63005190036A7401F0A37400F0A3743FF090F3
:100A7300030EE4F0A37405F0803890036A7401F068
:100A8300A37400F0A37453F090030EE4F0A3740274
:100A9300F0801F90036A7401F0A37401F0A374DA69
:100AA300F090030EE4F0A37403F0800690030D743A
:100AB300FFF090030DE0FF701CA3E0FCA3E0FD90AA
:100AC300034AE0FAA3E0FBC39DEA9C500890030E9F
:100AD300EAF0A3EBF0EF6003021155804690044463
:100AE300E064037063900443E06401705B9004422C
:100AF300E06403705390036A04F0A37400F0A374DA
:100B030044F090030EE4F0A37407F090034AE0FE70
:100B1300A3E0FFC39407EE9400500890030EEEF099
:100B2300A3EFF090030EE0FEA3E0FFC87440C8CC2F
:100B33007404CCCD7401CD90036AE0FBA3E0FAA367
:100B4300E0F9124E05021155900444E0FF6004647D
:100B530001704E900443E0FF64016005EF6402708E
:100B630040900442E0703A90034AE0FEA3E0FFD3D2
:100B73009440EE9400400C7C007D40CEECCECFED53
:100B8300CF800090030EEEF0A3EFF090030EE0FE93
:100B9300A3E0FF7D007B017A0479401251720211B8
:100BA3005502114F900440E030E70C90034AE07087
:100BB30004A3E06401600302114F900444E024465F
:100BC300F582E43403F5838020900444E0B40213F7
:100BD300900440E030E70C90034AE07004A3E06423
:100BE30001600302114F90036FE0900440F0020F85
:100BF3000B900440E020E70FD390034BE094409028
:100C0300034AE09400400302114F900444E0900330
:100C130067F0900443E090036EF002115590044096
:100C2300E020E70A90034AE07002A3E060030211A8
:100C33004F900443E0FFA3E02446F582E43403F538
:100C430083EFF0021155900444E0B4022190044074
:100C5300E020E71A90034AE07002A3E070109004CA
:100C630043E0700A900442E0FFD394014003021171
:100C73004F90036FEFF002115502114F900440E0C3
:100C83005460600302114F90034CE0B40C00400326
:100C930002114D900C9DF82828730210E5020F876E
:100CA30002114D02102602114D020EE1020CC10287
:100CB300114D020EF1020F11020F23020F56900481
:100CC30043E024FE603114604824E27003020D9077
:100CD300147003020DEB24216003020E5A90036A81
:100CE30074FFF0A37488F0A3741EF090030EE4F075
:100CF300A37412F0020E6090036A74FFF0A3748968
:100D0300F0A374F3F090030EE4F0A3747BF0020EEF
:100D130060900442E014602714603E14605524037D
:100D23006003020E5A90036A74FFF0A37488F0A361
:100D33007430F090030EE4F0A37404F0020E60909C
:100D4300036A74FFF0A37488F0A3744AF090030E4F
:100D5300E4F0A37424F0020E6090036A74FFF0A31E
:100D63007488F0A37434F090030EE4F0A37416F0C7
:100D7300020E6090036A7401F0A37403F0A3744D30
:100D8300F090030EE4F0A3741AF0020E6090044492
:100D9300E0FF700F90036A74FFF0A37489F0A374EB
:100DA300CF8037EFB4010F90036A74FFF0A3748907
:100DB300F0A374D88024EFB4020F90036A74FFF099
:100DC300A37489F0A374E18011EFB4031990036A4B
:100DD30074FFF0A37489F0A374EAF090030EE4F0B7
:100DE300A37409F08077806F900444E0FF700F9044
:100DF300036A74FFF0A37489F0A3748B8011EFB4BA
:100E0300011990036A74FFF0A37489F0A374ADF021
:100E130090030EE4F0A37422F08042EFB402199021
:100E2300036A74FFF0A37488F0A3746EF090030E4A
:100E3300E4F0A374DBF08025EFB4031990036A7424
:100E4300FFF0A37489F0A37449F090030EE4F0A3B8
:100E53007442F08008800090030D74FFF090030E3D
:100E6300E0FEA3E0FFD390034BE09F90034AE09E94
:100E73004005EEF0A3EFF090034AE0FEA3E0FFC3CA
:100E83009440EE9400400C7C007D40CEECCECFED40
:100E9300CF800090030EEEF0A3EFF090030EE0FE80
:100EA300A3E0FFC87440C8CC7404CCCD7401CD90CA
:100EB300036AE0FBA3E0FAA3E0F9124E0590030EE8
:100EC300E0FEA3E0FFC390034BE09FF090034AE0F2
:100ED3009EF090036BEE8FF0124F29021155900490
:100EE30042E0FF90034AE4F0A3EFF00211559003B0
:100EF30045E0900440F0C390034BE0940190034A13
:100F0300E09400500302115590030EE4803E9004D8
:100F130042E0900345F07003021155D20D021155C2
:100F2300900345E0601B900445E07015900444E095
:100F3300C39404500C90034AE07004A3E06401607E
:100F43000302114F900440E4F090030EF0A304F069
:100F5300021155900345E06028900445E07022900B
:100F63000444E0C394045019900443E070139004C4
:100F730042E0700D90034AE07002A3E07003021197
:100F83005502114F900440E0541FFF6402707390A8
:100F93000443E07006900442E0600302114F9004A2
:100FA30044E014605414604014602C1460182483CB
:100FB300603C146028146014147044E5DE54BC448F
:100FC30002F5DE02115553DE73021155E5D654BC0A
:100FD3004402F5D602115553D673021155E5D45484
:100FE300BC4402F5D402115553D473021155E5D212
:100FF30054BC4402F5D202115553D2730211550267
:10100300114FEF701B900443E07008900442E064BA
:1010130001600302114F900344E054FEF0021155A6
:1010230002114F900440E0541FFD7027900443E0E9
:10103300FE900442E0FBEB64014E70149089FA9336
:1010430030E50A900344E04401F002115502114FC8
:1010530002114FED640260030210E3900443E0FECB
:10106300900442E0FDED4E7075900445E0FE90045F
:1010730044E0FDEDFFEE7064EF24FE604A1460313E
:101083001460182483604B14603214601914704C7C
:10109300E5DE54BF4403F5DE021155E5DE547F441B
:1010A3000CF5DE021155E5D654BF4403F5D6021103
:1010B30055E5D6547F440CF5D6021155E5D454BFFB
:1010C3004403F5D4021155E5D4547F440CF5D402FE
:1010D3001155E5D254BF4403F5D28076806E806CFF
:1010E300806A90034AE07004A3E064026002805CBB
:1010F300900441E4F0900440F0701E9089FA93301C
:10110300E607900440E04401F0900344E030E02F10
:10111300900440E04402F08026900440E0541FFF16
:10112300BF0111900445E07010900444E0C394049F
:10113300400D8005EF6402600690030D74FFF0908C
:10114300030EE4F0A37402F08008800090030D7492
:10115300FFF090030DE0B4FF0675DCCF02127C9024
:10116300030EE0FEA3E0FF4E60048FDD800375DD18
:101173000075DCC002127C90034CE024FB606F140A
:10118300707B90034AE0FEA3E0FFC39440EE94001B
:10119300400C7C007D40CEECCECFEDCF80009003A1
:1011A3000EEEF0A3EFF090030EE0FEA3E0FFC87491
:1011B30040C8CC7404CCCD7401CD90036AE0FBA38A
:1011C300E0FAA3E0F9124E0590030EE0FEA3E0FF60
:1011D300C390034BE09FF090034AE09EF090036BB3
:1011E300EE8FF0124F298FDD63DC4002127C9003F7
:1011F3004AA3E0FFE5E354804FF5E3800375DD0088
:1012030075DC028074AFDB90030EE4F0A3EFF09083
:10121300034CE064097054900367E06402704C90DF
:10122300036EE06402704490030EE0FEA3E0FF4E01
:101233006039743F2FF58274043EF583E090036DAB
:10124300F07F0030E0027F019002F7EFF090036D32
:10125300E0FF7E0030E1027E019002E5EEF0EF7FD9
:101263000030E2027F019002E4EFF090036774FF25
:10127300F090036EE4F063DC80C2D902131630D819
:101283007675DC0275DD0075D20275D40275D6025F
:1012930075DE0275D30075D50075D70075DF00754F
:1012A300E300C2DAC2D9900345E4F090034CF09016
:1012B300034AF0A3F0F990036AC9F0A3F0A3E9F09D
:1012C300C20DC209C20AC20BC20C7E007F047D009C
:1012D3007B017A03794612517290036F7401F09087
:1012E300036DE4F090036774FFF090036EE4F090F5
:1012F3000344F0C2D8801C30DA16C2DAE5DA900370
:101303004430E206E04402F08009E054FDF080033B
:1013130075D8FFD0D0D082D083D0F0D0E032EF6048
:1013230013E4900012F0A3F0900010F0A3F09000EB
:101333000E0214DF900183E0FEA3E0FF24D5F582C3
:10134300EE3401F583E4931313543F30E04BEF2461
:10135300D5F582EE3401F583E493FB540175F00275
:10136300A424FFFFE5F034FFFE90018BE0FCA3E033
:10137300FD124E8C900325EEF0A3EFF0EBC3135454
:101383000175F002A424FFFFE5F034FFFEC3E49FE0
:10139300FFE49EFE9001898048900183E0FEA3E074
:1013A30024D5F582EE3401F583E493FB540175F003
:1013B30002A424FFFFE5F034FFFE900189E0FCA3C3
:1013C300E0FD124E8C900325EEF0A3EFF0EBC31378
:1013D300540175F002A424FFFFE5F034FFFE9001F1
:1013E3008BE0FCA3E0FD124E8C900327EEF0A3EFFD
:1013F300F0900327E0FEA3E0FFD39400EE64809413
:10140300804002800F900327E0FEA3E0FFC3E49F28
:10141300FFE49EFE900325E0FCA3E0FDD39400ECE3
:10142300648094804002800F900325E0FCA3E0FDDC
:10143300C3E49DFDE49CFCD3ED9FEE6480F8EC6473
:1014430080984025900325E0FEA3E0FFD39400EEAF
:101453006480948040028034900325E0FEA3E0FF83
:10146300C3E49FFFE49EFE8023900327E0FEA3E0F6
:10147300FFD39400EE648094804002800F90032792
:10148300E0FEA3E0FFC3E49FFFE49EFECAEECACBE7
:10149300EFCB900183E0FEA3E024DCF582EE340180
:1014A300F583E493FF7E007C007D15124E8CC3EB25
:1014B3009FFFEA9EFE900329F0A3EFF0D39400EE82
:1014C30064809480501AE4900016F0A3F090001406
:1014D300F0A3F0900012F0A3F0900010F0A3F0221C
:1014E300900183E0FEA3E0FF24D4F582EE3401F5FE
:1014F30083E493540F24FE70030216E8147003026E
:101503001A1D147003021F132403600302245B904B
:10151300000EE07002A3E060030216F2EF24DEF592
:1015230082EE3401F583E493701D900183E0FEA302
:10153300E024DFF582EE3401F583E4937009900033
:101543000EF0A3F0021674900183E0FEA3E0FF24E3
:10155300DEF582EE3401F583E493FBEF24DFF582BD
:10156300EE3401F583E493C39BFD3395E0FC7803EC
:10157300900329E0FEA3E0CEA2E713CE13D8F8FF31
:10158300124E8CEEFD3395E0FCEB25E0FFE433FED9
:10159300ED2FFFEC3E900329F0A3EFF0900014E051
:1015A300FEA3E0FFD39400EE648094804002800F9A
:1015B300900014E0FEA3E0FFC3E49FFFE49EFE90CF
:1015C3000329E0FCA3E0FDD39FEE6480F8EC648084
:1015D30098500A900014ECF0A3EDF0806B90018317
:1015E300E0FEA3E024DDF582EE3401F583E49324E9
:1015F30001FDE433FC900014E0FEA3E0FFC390037D
:101603002AE09FFF900329E09EFE124EF3EEF0A323
:10161300EFF04E7010900015E004F0701C90001471
:10162300E004F08014900329E0FEA3E0FF9000158E
:10163300E02FF0900014E03EF0900014E0FFA3E0F0
:10164300900329CFF0A3EFF0900329E0FEA3E0FF7E
:10165300C374649FFFE49EFE90000EF0A3EFF0D3EB
:101663009400EE64809480500890000EE4F0A3048C
:10167300F0900325E0FEA3E0FFA3E0FCA3E0FDD38D
:101683009FEE6480F8EC6480984026E49FFFE49E1C
:10169300FED3ED9FEE6480F8EC648098900183E0C4
:1016A300FE4007A3E024D7021A0EA3E024D9021AAE
:1016B3000E900325E0FEA3E0FFC3E49FFFE49EFE3C
:1016C300D3900328E09FEE6480F8900327E06480C2
:1016D30098900183E0FE4006A3E024DA8004A3E0AF
:1016E30024D8021A0E90000EE07002A3E0600F905F
:1016F300000FE024FFF090000EE034FFF022900191
:1017030083E0FEA3E0FF24DEF582EE3401F583E4FB
:10171300937017EF24DFF582EE3401F583E49370C1
:101723000990000EF0A3F0021857900183E0FEA386
:10173300E0FF24DEF582EE3401F583E493FBEF242E
:10174300DFF582EE3401F583E493C39BFD3395E02B
:10175300FC7803900329E0FEA3E0CEA2E713CE13A7
:10176300D8F8FF124E8CEEFD3395E0FCEB25E0FF3D
:10177300E433FEED2FFFEC3E900329F0A3EFF0904E
:101783000014E0FEA3E0FFD39400EE648094804055
:1017930002800F900014E0FEA3E0FFC3E49FFFE488
:1017A3009EFE900329E0FCA3E0FDD39FEE6480F846
:1017B300EC648098500A900014ECF0A3EDF0806B79
:1017C300900183E0FEA3E024DDF582EE3401F5838E
:1017D300E4932401FDE433FC900014E0FEA3E0FF56
:1017E300C390032AE09FFF900329E09EFE124EF36D
:1017F300EEF0A3EFF04E7010900015E004F0701CB3
:10180300900014E004F08014900329E0FEA3E0FFAD
:10181300900015E02FF0900014E03EF0900014E0EB
:10182300FFA3E0900329CFF0A3EFF0900329E0FE9C
:10183300A3E0FFC374649FFFE49EFE90000EF0A339
:10184300EFF0D39400EE64809480500890000EE48F
:10185300F0A304F0900325E0FEA3E0FF7C007D03EA
:10186300124E8CCAEECACBEFCBA3E0FEA3E0FF7D02
:1018730007124E8CD3EF9BEA6480F8EE64809840A5
:101883003C900325E0FEA3E0FFE49FFFE49EFE7D82
:1018930003124E8CCAEECACBEFCBA3E0FEA3E0FF4C
:1018A3007D07124E8CD3EF9BEA6480F8EE64809838
:1018B300400B900183E0FEA3E024D78068900325CA
:1018C300E0FEA3E0FF7C007D03124E8CCAEECACB80
:1018D300EFCBA3E0FEA3E0FF7D07124E8CC3EF9B8B
:1018E300EA6480F8EE648098504A900325E0FEA3F2
:1018F300E0FFC3E49FFFE49EFE7D03124E8CCAEE1D
:10190300CACBEFCBA3E0FEA3E0FF7D07124E8CC34F
:10191300EF9BEA6480F8EE6480985018900183E0AE
:10192300FEA3E024D8F582EE3401F583E493FD7F32
:10193300FF1274C9900325E0FEA3E0FF7C007D073E
:10194300124E8CCAEECACBEFCBA3E0FEA3E0FF7D21
:1019530003124E8CD3EF9BEA6480F8EE64809840C8
:101963003C900325E0FEA3E0FFE49FFFE49EFE7DA1
:1019730007124E8CCAEECACBEFCBA3E0FEA3E0FF67
:101983007D03124E8CC3EF9BEA6480F8EE6480986B
:10199300500B900183E0FEA3E024D9806E900325D1
:1019A300E0FEA3E0FF7C007D07124E8CCAEECACB9B
:1019B300EFCBA3E0FEA3E0FF7D03124E8CC3EF9BAE
:1019C300EA6480F8EE648098400302245B90032568
:1019D300E0FEA3E0FFC3E49FFFE49EFE7D07124EFB
:1019E3008CCAEECACBEFCBA3E0FEA3E0FF7D0312CC
:1019F3004E8CD3EF9BEA6480F8EE64809850030228
:101A0300245B900183E0FEA3E024DAF582EE340147
:101A1300F583E493FD7FFF0274C9900183E0FEA385
:101A2300E024DFF582EE3401F583E493FB3395E0A4
:101A3300FA7803900325E0FEA3E0CEA2E713CE13CA
:101A4300D8F8FFCDEBCDCCEACC124E8C7804EFCE98
:101A5300A2E713CE13D8F8FF900325EEF0A3EFF01F
:101A63007803A3E0FEA3E0CEA2E713CE13D8F8FFDA
:101A7300CDEBCDCCEACC124E8C7804EFCEA2E7139B
:101A8300CE13D8F8FF900327EEF0A3EFF0900014E5
:101A9300E0FEA3E0FFD39400EE64809480400280D4
:101AA3000F900014E0FEA3E0FFC3E49FFFE49EFE5B
:101AB300900325E0FCA3E0FDD39400EC64809480C4
:101AC3004002800F900325E0FCA3E0FDC3E49DFDED
:101AD300E49CFCD3ED9FEE6480F8EC6480985002A4
:101AE300802E900014E0FEA3E0FFD39400EE648008
:101AF30094804002800F900014E0FEA3E0FFC3E453
:101B03009FFFE49EFED3EF9420EE64809483401203
:101B1300900325E0FFA3E0900014CFF0A3EFF002C1
:101B23001C41900014E0FEA3E0FFD39400EE648018
:101B3300948040028007C3E49FFFE49EFECCEECC7A
:101B4300CDEFCD900183E0FAA3E0FB24DEF582EA3A
:101B53003401F583E49375F00AA4FFD3ED9FE5F018
:101B63006480F8EC648098405DEB24DDF582EA3410
:101B730001F583E4932401FDE433FC900014E0FEBB
:101B8300A3E0FF900325E0FAA3E0FBC39FFFEA9ED7
:101B9300FE124EF3900329EEF0A3EFF04E60030222
:101BA3001C2DC3EA6480948050077EFF7FFF021CD4
:101BB30035D3EB9400EA648094807E0040047F0177
:101BC30080027F00806C900183E0FEA3E024DDF5BA
:101BD30082EE3401F583E49375F00AA42401FDE455
:101BE30035F0FC900014E0FEA3E0FF900325E0FA3B
:101BF300A3E0FBC39FFFEA9EFE124EF3900329EE80
:101C0300F0A3EFF04E7023C3EA6480948050067E05
:101C1300FF7FFF8013D3EB9400EA648094807E00FF
:101C230040047F0180027F008008900329E0FEA327
:101C3300E0FF900015E02FF0900014E03EF09000DC
:101C430016E0FEA3E0FFD39400EE6480948040028C
:101C5300800F900016E0FEA3E0FFC3E49FFFE49E25
:101C6300FE900327E0FCA3E0FDD39400EC64809492
:101C7300804002800F900327E0FCA3E0FDC3E49DB6
:101C8300FDE49CFCD3ED9FEE6480F8EC64809850F7
:101C930002802E900016E0FEA3E0FFD39400EE64D2
:101CA3008094804002800F900016E0FEA3E0FFC303
:101CB300E49FFFE49EFED3EF9420EE648094834080
:101CC30012900327E0FFA3E0900016CFF0A3EFF0FC
:101CD300021DED900016E0FEA3E0FFD39400EE6436
:101CE30080948040028007C3E49FFFE49EFECCEE15
:101CF300CCCDEFCD900183E0FAA3E0FB24DEF582A7
:101D0300EA3401F583E49375F00AA4FFD3ED9FE56C
:101D1300F06480F8EC648098405AEB24DDF582EAA5
:101D23003401F583E4932401FDE433FC900016E0D1
:101D3300FEA3E0FF900327E0FAA3E0FBC39FFFEAC3
:101D43009EFE124EF3A3EEF0A3EFF04E6003021DCE
:101D5300D9C3EA6480948050067EFF7FFF807FD3DF
:101D6300EB9400EA648094807E0040047F0180024B
:101D73007F00806A900183E0FEA3E024DDF582EE1C
:101D83003401F583E49375F00AA42401FDE435F0EE
:101D9300FC900016E0FEA3E0FF900327E0FAA3E027
:101DA300FBC39FFFEA9EFE124EF3A3EEF0A3EFF0F8
:101DB3004E7023C3EA6480948050067EFF7FFF80C9
:101DC30013D3EB9400EA648094807E0040047F0187
:101DD30080027F008008900329E0FEA3E0FF9000CB
:101DE30017E02FF0900016E03EF0900014E0FEA301
:101DF300E0FF900011E02FF0900010E03EF0900023
:101E030016E0FEA3E0FF900013E02FF0900012E035
:101E13003EF0900010E0FEA3E0FFD39440EE648018
:101E23009460400280047EE07F40C3EF94C0EE6480
:101E330080949F5019900010E0FEA3E0FF9440EEC1
:101E4300648094604002800A7EE07F4080047E1FAD
:101E53007FC0900010EEF0A3EFF0A3E0FEA3E0FF3D
:101E6300D39440EE64809460400280047EE07F401F
:101E7300C3EF94C0EE6480949F5019900012E0FE6B
:101E8300A3E0FF9440EE648094604002800A7EE009
:101E93007F4080047E1F7FC0900012EEF0A3EFF01E
:101EA300900010E0FCA3E0FD7806CEECCECEA2E7D6
:101EB30013CE13D8F8900041F07806900012E0FE9C
:101EC300A3E0CEA2E713CE13D8F8F404F9900042AE
:101ED300F0900041E0FF3395E0FE7806EFC333CE88
:101EE30033CED8F9FFC3ED9FFFEC9E900010F0A313
:101EF300EFF0E9FF3395E0FE7806EFC333CE33CE40
:101F0300D8F9FF900013E02FF0900012E03EF0228A
:101F1300900010E0FEA3E0FF900325E0FCA3E0FDAA
:101F2300C39FFFEC9EFE7802EFCEA2E713CE13D839
:101F3300F8FF900329EEF0A3EFF04E7023C3EC6497
:101F430080948050067EFF7FFF801DD3ED9400ECCC
:101F5300648094807E0040047F0180027F008008BB
:101F6300900329E0FEA3E0FF900011E02FF0900022
:101F730010E03EF0900012E0FEA3E0FF900327E0A4
:101F8300FCA3E0FDC39FFFEC9EFE7802EFCEA2E729
:101F930013CE13D8F8FF900329EEF0A3EFF04E70A1
:101FA30023C3EC6480948050067EFF7FFF801DD3A3
:101FB300ED9400EC648094807E0040047F018002F5
:101FC3007F008008900329E0FEA3E0FF900013E068
:101FD3002FF0900012E03EF0900325E0FAA3E0FB1F
:101FE300D39400EA64809480900183E0FE4006A3CA
:101FF300E024DA8004A3E024D9F582EE3401F583EA
:10200300E493FF900014E4F0A3EFF0D3ED9400EC1D
:1020130064809480900183E0FE4006A3E024D7808F
:1020230004A3E024D8F582EE3401F583E493FF9012
:102033000016E4F0A3EFF0900014E0FEA3E0FFC36A
:10204300941EEE648094804017D3EF9427EE64804F
:102053009480500CEF25E0FFEE33FEEF24C680277B
:10206300900014E0FEA3E0FFC39459EE64809480D3
:102073004022D3EF9462EE648094805017EF25E002
:10208300FFEE33FEEF244FFFEE34FF900014F0A376
:10209300EFF08007E4900014F0A3F0900016E0FE48
:1020A300A3E0FFC3941EEE648094804017D3EF94A3
:1020B30027EE64809480500CEF25E0FFEE33FEEFB3
:1020C30024C68027900016E0FEA3E0FFC39459EED8
:1020D300648094804022D3EF9462EE6480948050B5
:1020E30017EF25E0FFEE33FEEF244FFFEE34FF90B2
:1020F3000016F0A3EFF08007E4900016F0A3F0D3EE
:10210300EB9401EA64809470400A900325E0FEA3F7
:10211300E0FF80047EF07F01C3EF94FFEE648094C0
:102123008F5019900325E0FEA3E0FF9401EE648035
:1021330094704002800A7EF07F0180047E0F7FFF4F
:10214300900325EEF0A3EFF0D3ED9401EC648094BB
:10215300704008A3E0FEA3E0FF80047EF07F01C38C
:10216300EF94FFEE6480948F5019900327E0FEA351
:10217300E0FF9401EE648094704002800A7EF07F59
:102183000180047E0F7FFF900327EEF0A3EFF09012
:102193000014E0FEA3E0FFCBEFCBCAEECAEA33950F
:1021A300E0F9F8900010E0FEA3E0FFEE3395E0FDC8
:1021B300FC124F5EC8ECC8C9EDC9CAEECACBEFCB5F
:1021C300900183E0FEA3E024DFF582EE3401F58382
:1021D300E493FFE4FCFDFE124F5EE47B7DFAF9F825
:1021E300127F75900014EEF0A3EFF0A3E0FEA3E0DE
:1021F300FFEE3395E0FDFC12507BC8ECC8C9EDC976
:10220300CAEECACBEFCB900012E0FEA3E0FFEE33A1
:1022130095E0FDFC124F5EC8ECC8C9EDC9CAEECA11
:10222300CBEFCB900183E0FEA3E024DFF582EE3415
:1022330001F583E493FFE4FCFDFE124F5EE47B7D36
:10224300FAF9F8127F75900016EEF0A3EFF0900103
:1022530083E0FEA3E024DDF582EE3401F583E4930D
:10226300FFE4FCFDFE7BFF7A7FF9F8124F5EE47B0F
:1022730032FAF9F8127F75900325EEF0A3EFF09090
:102283000183E0FEA3E024DEF582EE3401F583E46E
:1022930093FFE4FCFDFE7BFF7A7FF9F8124F5EE4C7
:1022A3007B32FAF9F8127F75900327EEF0A3EFF073
:1022B300D3900015E09400900014E0648094804073
:1022C30047900325E0FEA3E0FFCBEFCBCAEECAEABB
:1022D3003395E0F9F8900014E0FEA3E0FFEE3395A8
:1022E300E0FDFCEB2FFFEA3EFEE93DFDE83CFCE4AC
:1022F3007BFF7A7FF9F8C3125089500C9003257441
:102303007FF0A374FFF08055C3900014E0648094C1
:10231300805036900325E0FEA3E0FFCBEFCBCAEE5F
:10232300CAEA3395E0F9F8900014E0FEA3E0FFEE6B
:102333003395E0FDFCEB2FEA3EE93DE83C335009E1
:10234300E4900325F0A3F08014900014E0FEA3E0D2
:10235300FF900326E02FF0900325E03EF0D390009A
:1023630017E09400900016E0648094804047900347
:1023730027E0FEA3E0FFCBEFCBCAEECAEA3395E03A
:10238300F9F8900016E0FEA3E0FFEE3395E0FDFCC4
:10239300EB2FFFEA3EFEE93DFDE83CFCE47BFF7AE0
:1023A3007FF9F8C3125089500C900327747FF0A370
:1023B30074FFF08056C3900016E064809480503719
:1023C300900327E0FEA3E0FFCBEFCBCAEECAEA33CC
:1023D30095E0F9F8900016E0FEA3E0FFEE3395E0F8
:1023E300FDFCEB2FFFEA3EE93DE83C335009E49066
:1023F3000327F0A3F08014900016E0FEA3E0FF9003
:102403000328E02FF0900327E03EF0900325E0FC43
:10241300A3E0FDCFEDCF900047F0ECFFEFA3F090EA
:102423000327E0FCA3E0FDCFEDCF900049F0ECFFE4
:10243300EFA3F09000467411F090000EE07002A339
:10244300E07F0070027F017E0090000EEEF0A3EFAC
:10245300F025E014900041F022E4900325F0A374EA
:10246300FFF0E4900329F0A3F0EF604A900370E0DB
:10247300FCA3E0FDA3E0FEA3E0FF9002901250D680
:10248300900370E0FCA3E0FDA3E0FEA3E02401FFC2
:10249300E43EFEED34FFFDEC34FFFC900294125059
:1024A300D67E007F107D007B017A0279F81251728B
:1024B300E490029AF0229002F6E0FF5470600BEF72
:1024C30020E7030234A1547FF022900370A3A3A357
:1024D300E0FF90029BE0FEC3EF9EC39414500302FF
:1024E30034A1E02414F0900308E0FEA3E0F5828E0B
:1024F3008374F593700374F493603AE4900327F0C4
:10250300900327E0FFC39410502B74282FF582E427
:102513003400F583E06016900370E0FCA3E0FDA3B4
:10252300E0FEA3E0FF9002941250D68008900327A8
:10253300E004F080CB90029AE0540FFFBF021D74B9
:1025430003F0900370E0FCA3E0FDA3E0FEA3E0FF33
:102553009002901250D690029C74FFF090029AE081
:10256300540F6403600302268B900298E0FEA3E0FD
:10257300FFCBEFCBCAEECA900308E0FEA3E0F582DF
:102583008E8374F893FE74F993FFEF2BFFEE3AFEFC
:10259300E433FDE433C0E0EDC0E0EEC0E0EFC0E0C3
:1025A300900290E0F8A3E0F9A3E0FAA3E0FB900324
:1025B30070E0FCA3E0FDA3E0FEA3E0C39BFBEE9A67
:1025C300FAED99F9EC98F8D0E0FFD0E0FED0E0FD09
:1025D300D0E0FCD312509F500302268B900308E0F7
:1025E300FEA3E0F5828E8374F493FE74F593FF4E9D
:1025F300604C7C007D0A125145ECC0E0EDC0E0EE7A
:10260300C0E0EFC0E0900294E0F8A3E0F9A3E0FAA1
:10261300A3E0FB900370E0FCA3E0FDA3E0FEA3E0D6
:10262300C39BFBEE9AFAED99F9EC98F8D0E0FFD052
:10263300E0FED0E0FDD0E0FCD312509F404A90036F
:1026430008E0FEA3E0F5828E8374FB93700374FAB3
:10265300936026127E08AD8AEF6DFF900308E0FCBD
:10266300A3E0F5828C8374FA93FC74FB93FD124E02
:102673009ECEECCECFEDCF80047E007F00900298FB
:10268300EEF0A3EFF0E4A3F090029AE0540F60039E
:102693000228BA04F0900370E0FCA3E0FDA3E0FE7F
:1026A300A3E0FF9002901250D6E490029CF09003B6
:1026B30008E0FEA3E0F5828E8374F193FF700302BA
:1026C3002894EFD39404501B900308E0FEA3E0F595
:1026D300828E8374F1931475F008A4FD74F0932D26
:1026E3000228AE900308E0FEA3E0F5828E8374F126
:1026F30093B405030228B4E4900328F0900327F071
:10270300900308E0FEA3E0F5828E8374EB9324012B
:10271300FFE433FE900327E0FDC39FEE6480F8746B
:1027230080985042EDC39409503CE0FF900308E0C9
:10273300FCA3E024E0F582E43CF583E5822FF582F7
:10274300E43583F583E493FF600ED394045009903A
:102753000328E02408F08006900328E004F09003A7
:1027630027E004F0809A900308E0FEA3E0F5828E50
:102773008374F193B40613900328E0FF90029EE064
:1027830004F0C39F4037E4F08033127E08AD8AEF34
:102793006DFF900328E0FBFD7C00124EF3CFEDCFDD
:1027A300900327EFF090029EE0FF900327E0FE6F77
:1027B3007006EBD3940150D290029EEEF0E49003A6
:1027C30028F0900327F0900308E0FEA3E0F5828E43
:1027D3008374EB932401FFE433FE900327E0FDD3DE
:1027E3009FEE6480F8748098400302288DED94096D
:1027F300400302288D90029EE0FF900328E09F4053
:102803004A900327E0F924DFFFE433FE900308E056
:10281300FCA3E0FD2FF582EC3EF583E4936015D332
:102823009404501090029EE02408FF900328E0FED9
:10283300C3EF9EF0E924DFFFE433FEED2FF582ECD6
:102843003EF583E493900327F0803F900327E0FF56
:10285300900308E0FCA3E024E0F582E43CF583E583
:10286300822FF582E43583F583E493600ED39404D9
:102873005009900328E02408F08006900328E00420
:10288300F0900327E004F00227C9900327E0FF70CC
:102893000890029F74C8F0801EEFD394045012EF87
:1028A3001475F008A4FF900328E02F90029FF08096
:1028B3000690029F7464F090029AE0540F640170D2
:1028C30059900370A3A3E0FEA3E0FFCBEFCBCAEEC6
:1028D300CA900290A3A3E0FEA3E0FFC3EB9FFFEA2D
:1028E3009EFE900308E0FCA3E0F5828C83C374F79B
:1028F300939F74F6939E502290029FE064C8601ADF
:10290300900370E0FCA3E0FDA3E0FEA3E0FF9002D0
:10291300901250D690029CE004F090029FE0FFC317
:102923009420500FEF75F010A4240EF9748635F03F
:10293300FA801B90029FE0B4643B900309E024906B
:10294300FF900308E03400FECAEECAC9EFC97BFF5B
:10295300EBC0E0EAC0E0E9C0E0C874A1C8CC7402EF
:10296300CCCD7401CDD0E0F9D0E0FAD0E0FB7E000D
:102973007F10124E05900308E0FEA3E0FFCAEECAE3
:10298300C9EFC97BFFEBC0E0EAC0E0E9C0E0C8746F
:10299300B1C8CC7402CCCD7401CDD0E0F9D0E0FA4B
:1029A300D0E0FB7E007F30124E05E4900327F090C9
:1029B3000308E0FEA3E0F5828E8374F393700302B1
:1029C3002ABD74F29320E003022ABD900327E0FEA0
:1029D30075F003A424B1F582E43402F583E0C0E08A
:1029E300EE75F003A424B2F582E43402F583E0C06B
:1029F300E0900327E0FF75F003A424B3F582E434E9
:102A030002F583E0C0E0EF75F003A4FFAEF024B15C
:102A1300F974023EFA7B01EBC0E0EAC0E0E9C0E0F2
:102A230074B22FF974023EFAEBC0E0EAC0E0E9C0E9
:102A3300E074B32FF974023EFA90033BEBF0A3EA80
:102A4300F0A3E9F0D0E0F9D0E0FAD0E0900338F059
:102A5300A3EAF0A3E9F0D0E0F9D0E0FAD0E0FB90EC
:102A63000335F0A3EAF0A3E9F0900308E0FEA3E046
:102A7300F5828E8374F393FFCBEFCBE4FAF9F890EE
:102A83000370E0FCA3E0FDA3E0FEA3E0FF124FE927
:102A9300E47BEA7A03F9F8124FE9CCE8CCCDE9CD2F
:102AA300CEEACECFEBCF900333EEF0A3EFF0D0E03E
:102AB300FBD0E0FDD0E0FF1251E390029FE064C839
:102AC3006003022D71900308E0FEA3E0F5828E837C
:102AD30074F793700374F6937003022D719003706F
:102AE300A3A3E0FEA3E0FFCBEFCBCAEECA90029014
:102AF300A3A3E0FEA3E0FFC3EB9FFBEA9EFA9003D0
:102B030008E0FEA3E0F5828E8374F693FE74F793D8
:102B1300FFD394E8EE9403400280047E037FE87CB5
:102B2300037DE8124E9ECDEFCDCCEECCCFEBCFCED6
:102B3300EACE124E9E7C037DEA124E9E90032BEC4E
:102B4300F0A3EDF0C394F5EC9401403890032BE02F
:102B5300FEA3E0FF74E99FF074039E90032BF090B3
:102B63000308E0FEA3E0F5828E8374FD9375F00302
:102B730084AFF0900329E4F0A3EFF090029AE044CD
:102B830080F08037900308E0FEA3E0F5828E837423
:102B9300FC9375F00384AFF0900329E4F0A3EFF006
:102BA30090029AE0B48114900327E0B40F069002D8
:102BB3009A7402F0E490032BF0A3F090029AE0548D
:102BC3000F64016007E490032BF0A3F0900329E066
:102BD3007002A3E07071900328F0900328E0FFC314
:102BE30094034003022D68900327E075F003A42F9C
:102BF300F582E435F0F583E58224B1F582E583348B
:102C030002F583E0FF7E0090032BE0FCA3E0FD12BE
:102C13005145E47BF47A01F9F8124FE9900328E077
:102C2300FE900327E075F003A42EF582E435F0F55A
:102C330083E58224B1F582E5833402F583EFF090D6
:102C43000328E004F08093900329E07004A3E06478
:102C5300016003022CEB90032BE0FEA3E0FF7C005A
:102C63007DFF125145E47BF47A01F9F8124FE974C0
:102C73000E2FF58274853EF583E493FF90032BE4D6
:102C8300F0A3EFF0E4900328F0900328E0FB900317
:102C930027E0FA75F003A42BF582E435F0F583E51C
:102CA3008224B1F582E5833402F583E0FF7E009050
:102CB300032BE0FCA3E0FD124E8C7C007DFF124E43
:102CC3009E75F003EAA42BF582E435F0F583E582E3
:102CD30024B1F582E5833402F583EFF0900328E015
:102CE30004F0E0B403A3807D90032BE0FEA3E02473
:102CF30019F58274833EF583E493FF90032BE4F08C
:102D0300A3EFF0E4900328F0900328E0FB9003275F
:102D1300E0FA75F003A42BF582E435F0F583E58240
:102D230024B1F582E5833402F583E0FF7E0090034E
:102D33002BE0FCA3E0FD124E8C7C007DFF124E9E27
:102D430075F003EAA42BF582E435F0F583E58224DC
:102D5300B1F582E5833402F583EFF0900328E004B4
:102D6300F0E0B403A39003257401F0022F739002E3
:102D73009FE064C87003022F73900327E0FB24A134
:102D8300F582E43402F583E0FF90029CE0FEEF6EEF
:102D93006003022EA190032504F0900308E0FEA334
:102DA300E0F5828E8374FC93FFC3741F9FFFE4944A
:102DB30000FE900329F0A3EFF0D3940AEE6480940D
:102DC30080401D900329E0FEA3E0FF7C007D0A12F2
:102DD3004E8CEF24A6FFEE34FF900329F0A3EFF00F
:102DE30074F82BF582E43402F583E0FFC374FF9F8C
:102DF300FFE49400FE900329E0FCA3E0FDC39FEEF3
:102E03006480F8EC6480985015CFEDCF900327E0F1
:102E130024F8F582E43402F583E02FF08010900368
:102E230027E024F8F582E43402F58374FFF0E4909C
:102E33000328F0900328E0FB900327E0FD75F003DF
:102E4300A42BF582E435F0F583E58224B1F582E520
:102E5300833402F583E0FF7E0074F82DF582E434B9
:102E630002F583E090850E93FD7C00124E8C7DFF6E
:102E7300124E9E900327E075F003A42BF582E435F0
:102E8300F0F583E58224B1F582E5833402F583EF1F
:102E9300F0900328E004F0E0B40398022F7390034A
:102EA30008E0FEA3E0F5828E8374FD932401FDE424
:102EB30033FC900327E024F8F582E43402F583E041
:102EC300FBFF7E00124EF3900329EEF0A3EFF0EB2D
:102ED3006011900329E07002A3E07007900329F0CA
:102EE300A304F0900327E024F8F582E43402F58389
:102EF300C083C082E0FF900329A3E0FDCEEDCEC3E3
:102F0300EF9ED082D083F0E4900328F0900328E072
:102F1300FB900327E0FD75F003A42BF582E435F065
:102F2300F583E58224B1F582E5833402F583E0FF7E
:102F33007E0074F82DF582E43402F583E0FD7C0015
:102F4300124E8C7DFF124E9E900327E075F003A472
:102F53002BF582E435F0F583E58224B1F582E58330
:102F63003402F583EFF0900328E004F0E0B4039C0F
:102F7300900327E02428F582E43400F583E070030E
:102F8300023013900327E0FF900308E0FCA3E02F37
:102F9300F582E43CF5837460932401FDE433FC740F
:102FA300E62FF582E43402F583E0FBFFC374FF9F51
:102FB300FFE49400FE124EF3900329EEF0A3EFF02A
:102FC300C374FF9B6011900329E07002A3E07007B4
:102FD300900329F0A304F0900329A3E0FF900327B3
:102FE300E0FE24E6F582E43402F583E02FF090035B
:102FF30008E0FCA3E02EF582E43CF583748093FFA4
:10300300900326E0D39F50030230E2EFF00230E258
:10301300900327E0FF900308E0FCA3E02FF582E490
:103023003CF5837470932401FDE433FC74E62FF5BF
:1030330082E43402F583E0FBFF7E00124EF390033B
:1030430029EEF0A3EFF0EB6011900329E07002A3E7
:10305300E07007900329F0A304F0900327E024E62F
:10306300F582E43402F583C083C082E0FF90032934
:10307300A3E0FDCEEDCEC3EF9ED082D083F0E490EB
:103083000328F0900328E0FB900327E0FA75F00390
:10309300A42BF582E435F0F583E58224B1F582E5CE
:1030A300833402F583E0FF90029DE0FEEF8EF0A4EF
:1030B300FFAEF07C007DFF124E9E75F003EAA42B59
:1030C300F582E435F0F583E58224B1F582E58334B6
:1030D30002F583EFF0900328E004F0E0B403A4903A
:1030E3000308E0FCA3E0FDF5828C8374F393FE7088
:1030F3000302325374F29320E10302325390030824
:10310300A3E0F5828C83C083C082900327E0FBD0C9
:1031130082D08375F003125113743093C0E08D8213
:103123008C8375F003EB125113743193C0E0900359
:1031330008A3E0F5828C83C083C082900327E0D08C
:1031430082D08375F003125113743293FBC0E0CB2A
:10315300EECBE4FAF9F8900370E0FCA3E0FDA3E002
:10316300FEA3E0FF124FE9E47BEA7A03F9F8124F7A
:10317300E9CCE8CCCDE9CDCEEACECFEBCF9003338B
:10318300EEF0A3EFF0A37401F0A37403F0A3742D86
:10319300F0A37401F0A37403F0A3742EF0A37401DD
:1031A300F0A37403F0A3742FF0D0E0FBD0E0FDD0C4
:1031B300E0FF1251E390032DE0FF900327E0FD753C
:1031C300F003A424B1F582E43402F583E0FBC3EFFA
:1031D3009BFFE49400FE74E62DF582E43402F5834C
:1031E300E0FD7C00124E8C7DFF124EF3900327E02E
:1031F300FE75F003A424B1F582E43402F583E02FD5
:10320300F090032EE0FDEE75F003A424B2F582E402
:103213003402F583E0FFC3ED9FFFE49400FE9003C7
:1032230027E0FB24E6F582E43402F583E0FD7C002D
:10323300124E8C7DFF124EF3EB75F003A424B2F50E
:1032430082E43402F583E02FF090032FE00233276A
:10325300900308E0FAA3E0FBF5828A83C083C0826F
:10326300900327E0FFD082D08375F00312511374CB
:103273003093FDEF75F003A424B1F582E43402F535
:1032830083E0FFC3ED9FFFE49400FE900327E02457
:10329300E6F582E43402F583E0FD7C00124E8C7D7A
:1032A300FF124EF3900327E0FE75F003A424B1F55B
:1032B30082E43402F583E02FF08B828A8375F00376
:1032C300EE125113743193FF900327E0FD75F00361
:1032D300A424B2F582E43402F583E0FBC3EF9BFF41
:1032E300E49400FE74E62DF582E43402F583E0FDF8
:1032F3007C00124E8C7DFF124EF3900327E0FE7587
:10330300F003A424B2F582E43402F583E02FF090B5
:103313000308E0FCA3E0F5828C8375F003EE125101
:1033230013743293FF900327E0FD75F003A424B3D5
:10333300F582E43402F583E0FBC3EF9BFFE49400E2
:10334300FE74E62DF582E43402F583E0FD7C001281
:103353004E8C7DFF124EF3900327E075F003A424F7
:10336300B3F582E43402F583E02FF0900327E00401
:10337300F0E0C3941050030229B2900325E0700AD1
:1033830090029AE0540F64016037900308E0FEA3B3
:10339300E0F5828E8374F593700374F49360289040
:1033A3000370E0FCA3E0FDA3E0FEA3E0FF90029422
:1033B300E0F8A3E0F9A3E0FAA3E0FBC312509F7087
:1033C3000690029A7402F090029DE0FB900326E0BF
:1033D300FAD39B4073900308E0FEA3E0F5828E834B
:1033E30074FE93FF741F9FFFE49400FE900329F083
:1033F300A3EFF0D3940AEE64809480401D900329D8
:10340300E0FEA3E0FF7C007D0A124E8CEF24A6FFB2
:10341300EE34FF900329F0A3EFF0EBFFEAC39FFF25
:10342300E49400FE900329E0FCA3E0FDC39FEE6457
:1034330080F8EC648098500ACFEDCF90029DE02F86
:10344300F022900326E0805290029DE0FF90032635
:10345300E0FEC39F5048EEFDC3EF9DFFE49400FEE2
:10346300900308E0FCA3E0F5828C8374FF932401AE
:10347300FDE433FC124EF3900329EEF0A3EFF04E7C
:103483007007900329F0A304F090029DE0FF9003DE
:1034930029A3E0FDCEEDCEC3EF9E90029DF022E482
:1034A300900313F0A3F0900055F09001B7F0900152
:1034B30082F090017FF090003BF0C8748FC8CC7409
:1034C30001CCCD7401CD7B017A007959FE7F1512B1
:1034D3004E057E007F157D007B017A0079591251DC
:1034E30072900040E0900052F07E007F047D007BEC
:1034F300017A0079401251729000457410F07E00F9
:103503007F047DFF7B017A0079471251729000544A
:10351300E0900186F0E4900054F09001DBE0540168
:1035230090004EF0E49001DCF09001DBF090004D50
:10353300E0C43354E0247FF582E43400F583E0FEF5
:10354300A3E04E70037FFF2290003EE0604824A377
:10355300F582E43401F583E0602290003EE0242705
:10356300F582E43400F583E070129001D9E054034E
:103573006003E014F09001D9E04404F09001D8E036
:103583007F0070027F019001D8EFF0700302414584
:1035930012426B024145E4900314F0900314E0FFE0
:1035A300C39410505974282FF582E43400F583E056
:1035B300604490018DE0FF900314E0FE6F6037904C
:1035C300004DE0C43354E0247FF582E43400F583F6
:1035D30075F002EE125113E0FEA3E0F5828E8374C0
:1035E3000193FF64016009EF64026004EFB407060E
:1035F300900313E004F0900314E004F0809DE49042
:103603000314F0900314E0FFC394104003023D340D
:1036130090018DE0FEEF6E7057900314E02428F5BF
:1036230082E43400F583E06003023D2B74A42FF59C
:1036330082E43401F583E06003023D2B90004FE008
:1036430004F0E0D3940A5003023D2BE4F0900314FA
:10365300E02403FF900057E0FD1274C9900185E058
:1036630004FF7D0212783390018D74FFF0023D2B2D
:10367300900314E0FF2428F582E43400F583E0701E
:1036830003023B6590004DE0C43354E0247FF58290
:10369300E43400F58375F002EF125113E0FEA3E06A
:1036A300FFF5828E83740193B401061274B8023D50
:1036B3002B90004DE0C43354E0247FF582E43400C2
:1036C300F583C083C082900314E0D082D08375F069
:1036D30002125113E0FEA3E0FFF5828E837401937F
:1036E300640270401274B8900059E0FF90004DE0FE
:1036F300C43354E0247FF582E43400F583C083C0EF
:1037030082900314E0D082D08375F002125113E04B
:10371300FCA3E0F5828C83740393FEEF4E90005973
:10372300F0023D2B90004DE0C43354E0247FF5823A
:10373300E43400F583C083C082900314E0FFD08299
:10374300D08375F002125113E0FCA3E0FDF5828CE7
:10375300837401936403704574A42FF582E43401E8
:10376300F583E06003023D2B900313E06003023D09
:103773002BA3E00490003EF0ED2403FEE43C900014
:1037830050F0A3CEF0E490003CF0A3F09001D97484
:1037930002F09001D814F012426B023D2B90004DC1
:1037A300E0C43354E0247FF582E43400F583C0831E
:1037B300C082900314E0D082D08375F002125113BB
:1037C300E0FEA3E0F5828E83740193FF6404600836
:1037D300EF64056003023968900314E0FF24A4F545
:1037E30082E43401F583E0700D746F2FF582E434C5
:1037F30000F5837402F090004DE0C43354E0247F5D
:10380300F582E43400F583C083C082900314E0D0D2
:1038130082D08375F002125113E0FEA3E02402FF6D
:10382300E43E8F82F583E493FE740193FFE4FCFD91
:10383300FB7A80F9F8124F5EECC0E0EDC0E0EEC019
:10384300E0EFC0E0900183E0FEA3E024FAF582EE0E
:103853003401F583E493FE740193FFCBEFCBCAEEFF
:10386300CAE4F9F8D0E0FFD0E0FED0E0FDD0E0FC00
:10387300127F75900315EEF0A3EFF090004DE0C4B6
:103883003354E0247FF582E43400F583C083C0829F
:10389300900314E0D082D08375F002125113E0FE3E
:1038A300A3E02404FFE43E8F82F583E493FE7401D6
:1038B30093FFE4FCFDFB7A80F9F8124F5EECC0E065
:1038C300EDC0E0EEC0E0EFC0E0900183E0FEA3E0D6
:1038D30024FCF582EE3401F583E493FE740193FF37
:1038E300CBEFCBCAEECAE4F9F8D0E0FFD0E0FED0CC
:1038F300E0FDD0E0FC127F75900317EEF0A3EFF02C
:10390300900315E0FCA3E0FDCFEDCF900047F0EC72
:10391300A3F0900317E0FCA3E0FDCFEDCF900049A7
:10392300F0ECA3F090004DE0C43354E0247FF58223
:10393300E43400F583C083C082900314E0FBD0829B
:10394300D08375F002125113E0FCA3E0F5828C835F
:10395300740193B40507900045E04401F0900046DC
:10396300EBF0023D2B90004DE0C43354E0247FF58F
:1039730082E43400F583C083C082900314E0FFD057
:1039830082D08375F002125113E0FCA3E0FDF582AF
:103993008C8374019364066003023A4C74A42FF57C
:1039A30082E43401F583E06003023D2B90018DE056
:1039B300F46003023D2B8D828C8374039320E70311
:1039C300023D2B90004DE0C43354E0247FF582E4A4
:1039D3003400F583C083C082900314E0D082D08387
:1039E30075F002125113E0FEA3E0FFF5828E83749B
:1039F3000293900057F090004DE0900185F0900104
:103A030083E0FCA3E024FEF582EC3401F583E49328
:103A1300900319F08F828E83740393FF7D011278D4
:103A230033900314E0FF900319E0FD900183E0FA63
:103A3300A3E024FEF582EA3401F583E493FB1281CB
:103A4300C390018DEFF0023D3490004DE0C4335438
:103A5300E0247FF582E43400F583C083C0829003C1
:103A630014E0FFD082D08375F002125113E0FCA35F
:103A7300E0FDF5828C83740193F96407703274A4BA
:103A83002FF582E43401F583E06003023D2B8D8240
:103A93008C8374039330E003023D2B900314E024E2
:103AA3006FF582E43400F583E04402F0EF023C5703
:103AB300E964096003023D2B900187E0FF90004D0C
:103AC300E0C43354E0247FF582E43400F583C083FB
:103AD300C082900314E0FED082D08375F0021251AD
:103AE30013E0FCA3E0F5828C837402935403FDC8B6
:103AF300EDC87401088002C333D8FC4F900187F0EE
:103B030074A42EF582E43401F583E06003023D2BB7
:103B130090004DE0C43354E0247FF582E43400F593
:103B230083C083C082900314E0D082D08375F002F7
:103B3300125113E0FEA3E0F5828E83740293C45402
:103B43000F900188F0900187E0FFED2404FEC8EE9A
:103B5300C87401088002C333D8FC4F900187F00278
:103B63003D2B900314E0FF24A4F582E43401F58394
:103B7300E07003023D2B90004DE0C43354E0247FFA
:103B8300F582E43400F58375F002EF125113E0FE81
:103B9300A3E0F5828E83740193FFB405139003149D
:103BA300E0246FF582E43400F5837401F0023D2BC9
:103BB300EF6406704390004DE0C43354E0247FF576
:103BC30082E43400F583C083C082900314E0D08282
:103BD300D08375F002125113E0FEA3E0F5828E83C9
:103BE300740393FF30E703023D2B90018D74FFF0C4
:103BF300E4FD127833023D2B90004DE0C43354E0D2
:103C0300247FF582E43400F583C083C082900314DB
:103C1300E0FFD082D08375F002125113E0FCA3E0E1
:103C2300F5828C83740193FE6407704E74039330A2
:103C3300E034746F2FF582E43400F583E0FF20E174
:103C430025900314E0FD246FF582E43400F583EF3F
:103C53004402F0ED25E024B8F582E43401F583E471
:103C6300F0A3F0023D2B900314E0246FF582E434BB
:103C730000F583E054FDF0023D2BEEB408037F0111
:103C83002290004DE0C43354E0247FF582E43400F5
:103C9300F583C083C082900314E0D082D08375F093
:103CA30002125113E0FEA3E0F5828E837401936444
:103CB3000970757402935403D394014039900187BA
:103CC300E04480F090004DE0C43354E0247FF5825B
:103CD300E43400F583C083C082900314E0D082D023
:103CE3008375F002125113E0FEA3E0F5828E837414
:103CF3000493900056F090004DE0C43354E0247FC9
:103D0300F582E43400F583C083C082900314E0D0CD
:103D130082D08375F002125113E0FEA3E0F5828E88
:103D23008374039390006EF0900314E004F0023662
:103D330006E4900314F0900314E0FFC394104003CF
:103D4300023F4290004DE0C43354E0247FF582E407
:103D53003400F58375F002EF125113E0FEA3E0F592
:103D6300828E83740193FF64046008EF640560032B
:103D7300023F39900314E0246FF582E43400F583A5
:103D8300E0FF64016008EF64026003023F399000C2
:103D93004DE0C43354E0247FF582E43400F583C05E
:103DA30083C082900314E0D082D08375F002125155
:103DB30013E0FEA3E02402FFE43E8F82F583E49345
:103DC300FE740193FFE4FCFDFB7A80F9F8124F5E69
:103DD300ECC0E0EDC0E0EEC0E0EFC0E0900183E0B6
:103DE300FEA3E024FAF582EE3401F583E493FE7436
:103DF3000193FFCBEFCBCAEECAE4F9F8D0E0FFD0D2
:103E0300E0FED0E0FDD0E0FC127F75900315EEF0EC
:103E1300A3EFF090004DE0C43354E0247FF582E437
:103E23003400F583C083C082900314E0D082D08332
:103E330075F002125113E0FEA3E02404FFE43E8F69
:103E430082F583E493FE740193FFE4FCFDFB7A8027
:103E5300F9F8124F5EECC0E0EDC0E0EEC0E0EFC059
:103E6300E0900183E0FEA3E024FCF582EE3401F54B
:103E730083E493FE740193FFCBEFCBCAEECAE4F95C
:103E8300F8D0E0FFD0E0FED0E0FDD0E0FC127F757B
:103E9300900317EEF0A3EFF0900315E0FCA3E0FD11
:103EA300CFEDCF900047F0ECA3F0900317E0FCA315
:103EB300E0FDCFEDCF900049F0ECA3F0900314E0C8
:103EC300900046F0246FF582E43400F583E0640249
:103ED300704E90004DE0C43354E0247FF582E43407
:103EE30000F583C083C082900314E0FBD082D083AB
:103EF30075F002125113E0FCA3E0F5828C83740188
:103F030093900045B40506E04401F08004E054FEBC
:103F1300F0746F2BF582E43400F5837403F0801F93
:103F2300E4900045F0900314E0246FF582E434003C
:103F3300F583E4F08009900314E004F0023D39E4D2
:103F430090031AF0900314F0900314E0FFC394104D
:103F5300400302412990004DE0C43354E0247FF52F
:103F630082E43400F58375F002EF125113E0FEA3EF
:103F7300E0F5828E8374019364076003024120900D
:103F83000370E0FCA3E0FDA3E0FEA3E0FF900000CC
:103F9300E0F8A3E0F9A3E0FAA3E0FBD312509F40BB
:103FA30036900314E0FF25E024B8F582E43401F5EC
:103FB30083E4F0A3F0746F2FF582E43400F583E01B
:103FC30054FBF0900314E0246FF582E43400F5838E
:103FD300E054FDF0024120900314E0FF246FF582CA
:103FE300E43400F583E020E10302412090004DE03A
:103FF300C43354E0247FF582E43400F58375F00282
:10400300EF125113E0FEA3E0FF2404FDE43E8D8292
:10401300F5837401937002E49370061274B802403E
:10402300E9900314E0FF246FF582E43400F583E0A4
:10403300FE30E211746F2FF582E43400F583EE5401
:10404300FBF00240E9900370A3A3E0FEA3E0FF901E
:104053000314E025E024B8F582E43401F583E0FCA1
:10406300A3E0FDC3EF9DFFEE9CFE90004DE0C43343
:1040730054E0247FF582E43400F583C083C082904A
:104083000314E0D082D08375F002125113E0FCA335
:10409300E0FD2404FBE43C8B82F583D37401939FFE
:1040A300E4939E5041900314E0FF8D828C8374024D
:1040B30093FDEF2403FF1274C9900370A3A3E0FEE2
:1040C300A3E0FF900314E0FD25E024B8F582E43477
:1040D30001F583EEF0A3EFF0746F2DF582E4340065
:1040E300F583E04404F090004DE0C43354E0247FB2
:1040F300F582E43400F583C083C082900314E0D0DA
:1041030082D08375F002125113E0FEA3E0F5828E94
:104113008374039330E00690031AE004F0900314D1
:10412300E004F0023F4B900370E0FCA3E0FDA3E04A
:10413300FEA3E0FF9000001250D690031AE0900017
:104143004CF0126F57E4FF121321E4FF12487890EA
:10415300003EE07003126DF49003147401F09003B9
:1041630014E0FF2458F582E43400F583E0FE748EF6
:104173002FF582E43401F583E06E600890003B7410
:1041830001F0800A900314E004F0E0B416D090002C
:1041930052E0FF900040E06F6002801D90031474B2
:1041A30002F0900314E0FFC39405501D743F2FF5F4
:1041B30082E43400F583E0600890017F7401F080AD
:1041C30008900314E004F080D99003147403F09072
:1041D3000314E0FFC39407501E74442FF582E434A4
:1041E30000F583E0F460089001827401F080089088
:1041F3000314E004F080D8900186E0FF900054E0BF
:104203006F60069001B77401F090004EE0FF9001DB
:10421300DBE06F7004A3E060069000557401F0903A
:10422300018DE0F4602390003BE0701890017FE083
:104233007012900182E0700C9001B7E0700690005C
:1042430055E06005E4900057F090004BE0B4011591
:10425300E4900055F09001B7F0900182F090017F57
:10426300F090003BF07F002290031B7403F0900357
:1042730070E0FCA3E0FDA3E0FEA3E0FF900008E0F4
:10428300F8A3E0F9A3E0FAA3E0FBD312509F400A9E
:104293009000041250E200000000900370E0FCA3C1
:1042A300E0FDA3E0FEA3E0FF9000081250D69003C8
:1042B30070E0FCA3E0FDA3E0FEA3E0FF900004E0B8
:1042C300F8A3E0F9A3E0FAA3E0FBD312509F400C5C
:1042D30090004B7401F0E49001D8F022E490004B7D
:1042E300F0900320F0A3F090003EE0FF603B9000CD
:1042F3004DE075F020A4247DF582E5F03400F583CC
:1043030075F002EF125113E0FEA3E0FFF5828E83F6
:10431300740293FD7C00EF2403FFE43EFEEF2DFFC8
:10432300EC3E900320F0A3EFF090031BE0C3941640
:104333004003024877900320E0FEA3E0FF90005083
:10434300E0FCA3E0FDC39FEC9E4004E402472E8DF6
:10435300828C83E493FFB4EA31ED2401FBE43C8BCC
:1043630082F583E493FE54019001D8F0EE30E10925
:10437300900051E02402024519900051E004F070CE
:1043830006900050E004F0024866EF64EB6003021D
:1043930044B6ED2401FFE43C8F82F583E493FBB440
:1043A300021EED2404FEE43C90000CF0A3CEF0903A
:1043B3000051E02404F0900050E03400F00248661D
:1043C30090003DE004F0700690003CE004F0ED2422
:1043D30002FFE43C8F82F583E493FEED2403FDE4C6
:1043E3003C8D82F583E493FDEDFF90031CEEF0A377
:1043F300EFF0EB600B9001D9E030E204540360333B
:10440300900050E0FEA3E02401FFE43E8F82F58399
:10441300E49370079001D9E020E21890031CE0FEBA
:10442300A3E0FF4E601490003CE0FCA3E0C39FECCC
:104433009E40079001D9E04480F09001D9E0FF301D
:10444300E727900051E02403F0900050E03400F09F
:10445300EF547B9001D9F0E490003CF0A3F074FF9B
:1044630090000CF0A3F002486690000CE0FEA3E07D
:10447300FFF47002EEF46006900050EE803090007E
:104483004DE075F020A4247DF582E5F03400F5833A
:10449300C083C08290003EE0D082D08375F00212C8
:1044A3005113E0FEA3E02403FFE43E900050F0A389
:1044B300EFF022900050E0FEA3E0F5828E83E493B8
:1044C30064FE705B900050E0FCA3E0FD2401FFE478
:1044D3003C8F82F583E493FEED2402FDE43C8D8260
:1044E300F583E493FDEDFF900323EEF0A3EFF0E4F7
:1044F300FCFD900370E0F8A3E0F9A3E0FAA3E02F3A
:10450300FFEA3EFEED39FDEC38FC9000041250D674
:10451300900051E02403F0900050E03400F022902A
:104523000050E0FEA3E0F5828E83E493FC64FD700B
:104533006190031BE0FFD39403400302487790008C
:1045430040E0600302487790005075F001124F2954
:1045530085F082F583E493FD1274C9900050E475ED
:10456300F001124F2985F082F583E493900059F00E
:10457300900320E0FEA3E0FF900050E475F00112E9
:104583004F29FAEF65F07002EE6A60030248770282
:10459300472EEC64EC6014900050E0FEA3E0F5823B
:1045A3008E83E49364ED600302473390031BE0D3EF
:1045B30094034003024877900040E0600302487789
:1045C300900050E0FCA3E0FD2401FFE43C8F82F562
:1045D30083E493FEED2402FDE43C8D82F583E493B2
:1045E300FDEDFF90031CEEF0FCA3EFF0CCCCCDCDA2
:1045F300900050E0FAA3E0FB2403FFE43A8F82F536
:1046030083E493FEEB2404FBE43A8B82F583E49387
:10461300FBEBFF90031EEEF0A3EFF0CFEDCFCEEC5C
:10462300CEE4FCFDFB7A80F9F8124F5EECC0E0EDBE
:10463300C0E0EEC0E0EFC0E0900183E0FEA3E02421
:10464300FAF582EE3401F583E493FE740193FFCB14
:10465300EFCBCAEECAE4F9F8D0E0FFD0E0FED0E039
:10466300FDD0E0FC127F7590031CEEF0A3EFF0A3E6
:10467300E0FEA3E0FFE4FCFDFB7A80F9F8124F5E55
:10468300ECC0E0EDC0E0EEC0E0EFC0E0900183E0FD
:10469300FEA3E024FCF582EE3401F583E493FE747B
:1046A3000193FFCBEFCBCAEECAE4F9F8D0E0FFD019
:1046B300E0FED0E0FDD0E0FC127F7590031EEEF02B
:1046C300A3EFF090031CE0FCA3E0FDCFEDCF90003F
:1046D30047F0ECA3F090031EE0FCA3E0FDCFEDCF89
:1046E300900049F0ECA3F0900050E0FEA3E0F582C7
:1046F3008E83E493B4ED07900045E04401F090000D
:1047030051E02404F0900050E03400F0900320E0E6
:10471300FEA3E0FF900050E475F001124F29FCEF77
:1047230065F07002EE6C600302487790003EF02261
:10473300900050E0FEA3E0F5828E83E49364FA6078
:10474300030247E59003227403F0F090031BE0FC9F
:10475300900322E0FFC39C502A900050E0FAA3E0AC
:10476300F5828A83E493FE74582FF582E43400F5CE
:1047730083E06E7006900322F08008900322E00429
:10478300F080C8900322E07003024877900040E075
:104793006003024877900059E0601990031BE0FF23
:1047A30004F0900050E475F001124F2985F082F572
:1047B30083024860EC6403600302487790031BE0C4
:1047C300FF04F0900050E475F001124F2985F08248
:1047D300F583E493FD1274C9900059E04402F0029A
:1047E30048669003227403F0F090031BE0FC9003EF
:1047F30022E0FFC39C502A900050E0FAA3E0F58228
:104803008A83E493FE74582FF582E43400F583E041
:104813006E7006900322F08008900322E004F0807B
:10482300C8900322E0604D900040E070479000592B
:10483300E0701490031BE0FF04F0900050E0FAA333
:10484300E0F5828A838016ECB4032990031BE0FF12
:1048530004F0900050E0FCA3E0F5828C83E493FD28
:104863001274C9900051E004F07006900050E00407
:10487300F002432C22E4900325F0A3F0A3F0EF60B1
:104883003AE4A3F0900328E0FF2480F582E43401A6
:10489300F583E0FE74182FF582E43400F583EEF01F
:1048A300E490001AF0900328E004F0E0B402D5E4A9
:1048B30090001CF0A3F0900327F022E4900328F06B
:1048C300900328E0FF2418F582E43400F583E0FE2A
:1048D30074802FF582E43401F583E0C39EFFD36433
:1048E30080948040089003277401F08015C3EF641F
:1048F30080948050089003277402F08005E49003AD
:1049030027F0900183E0FEA3E0F5828E83C083C08D
:1049130082900328E0FFD082D08375F008125113F0
:10492300E58224E0F582E5833401F583E493540FB3
:1049330024FE7003024A19046003024D0990032701
:10494300E0FE7003024D25741A2FF582E43400F55E
:1049530083E06029900328E0FF241AF582E4340001
:10496300F583E4F074182FF582E43400F583E0FF57
:10497300EE25E024FDFEC3EF9EF0024D25900327B4
:10498300E0FF900183E0FCA3E0F5828C83C083C049
:1049930082900328E0D082D08375F008125113E58A
:1049A3008224E2F582E5833401F583E5822FF582E3
:1049B300E43583F583E493FD60057FFF1274C990AA
:1049C3000059E0FF900327E0FE900183E0FCA3E0A1
:1049D300F5828C83C083C082900328E0FDD082D00F
:1049E3008375F008125113E58224E5F582E58334DB
:1049F30001F583E5822EF582E43583F583E493FEA6
:104A0300EF4E900059F0741A2DF582E43400F583CB
:104A13007401F0024D25900327E07003024D25A396
:104A2300E0FD241AF582E43400F583E06027900169
:104A3300DBE0FC90001CE0FAA3E0FB25E0FFEC4F79
:104A43009001DBF07807CEEACEEBCEA2E713CE13CC
:104A5300D8F8024CC1900183E0FEA3E0F5828E8377
:104A630075F008ED125113E58224E3F582E58334F2
:104A730001F583E493FFC3941E5003024B55EFD318
:104A830094274003024B55900183A3E0F5828E8364
:104A9300C083C082900328E0D082D08375F00812CF
:104AA3005113E58224E4F582E5833401F583E4932D
:104AB300FFC3941E5003024B55EFD39427400302C8
:104AC3004B55900183A3E0F5828E83C083C082900F
:104AD3000328E0D082D08375F008125113E58224B5
:104AE300E3F582E5833401F583E49324E3FFE434BF
:104AF300FFFE7C007D0A124E9ECFEDCFEF75F00ACC
:104B0300A4FBAAF0900183E0FEA3E0F5828E83C0AC
:104B130083C082900328E0D082D08375F0081251BD
:104B230013E58224E4F582E5833401F583E49324D9
:104B3300E3FFE434FFFE7C007D0A124EF3EB2DFF0E
:104B4300EA3CFEEF2401FFE43E90001CF0A3EFF0EB
:104B5300800990001CE4F0A3740AF090001CE0FAB2
:104B6300A3E0FB900327E075F002A424FDFFE5F02A
:104B730034FFFE7C007D0A124E8CCDEBCDCCEACC0B
:104B8300124E8C90001CEEF0A3EFF0900183E0FE38
:104B9300A3E0F5828E83C083C082900328E0FFD018
:104BA30082D08375F008125113E58224E6F582E57D
:104BB300833401F583E493FEB4010F741A2FF58255
:104BC300E43400F5837401F08078EEB402129003AC
:104BD30028E0241AF582E43400F5837403F080623C
:104BE300900183E0FEA3E0F5828E83C083C08290B0
:104BF3000328E0FFD082D08375F008125113E582B9
:104C030024E6F582E5833401F583E493FEB4040FCF
:104C1300741A2FF582E43400F5837404F08023EED4
:104C2300900328B4080FE0241AF582E43400F583D6
:104C33007405F0800DE0241AF582E43400F58374E2
:104C430002F0900328E0241AF582E43400F583E0AF
:104C5300FD7C0090001CE0FEA3E0FF124EF3CAECC3
:104C6300CACBEDCB900328E0241AF582E43400F597
:104C730083E0FD7C0090001CE0FEA3E0FF124EF3F6
:104C8300CCEECCCDEFCDED2BFEEC3A900325F0A38B
:104C9300CEF090001CECF0A3EDF09001DBE0FD9072
:104CA3000325E0FAA3E0FB25E0FFED4F9001DBF0E5
:104CB3007807CEEACEEBCEA2E713CE13D8F8900155
:104CC300DCF0900328E0FF241AF582E43400F58336
:104CD300E014F0741A2FF582E43400F583E0704297
:104CE300900328E02418F582E43400F583C083C0E0
:104CF30082E0FF900327E025E024FDFEC3EF9ED072
:104D030082D083F0801C900328E0FF2480F582E4A6
:104D13003401F583E0FE74182FF582E43400F58343
:104D2300EEF0900328E004F0E0C39402500302483D
:104D3300C322E709F608DFFA8046E709F208DFFA3B
:104D4300803E88828C83E709F0A3DFFA8032E3098F
:104D5300F608DFFA8078E309F208DFFA80708882C8
:104D63008C83E309F0A3DFFA806489828A83E0A35A
:104D7300F608DFFA805889828A83E0A3F208DFFA13
:104D8300804C80D280FA80C680D4806980F28033E0
:104D9300801080A680EA809A80A880DA80E280CAA8
:104DA300803389828A83ECFAE493A3C8C582C8CC92
:104DB300C583CCF0A3C8C582C8CCC583CCDFE9DEEC
:104DC300E7800D89828A83E493A3F608DFF9ECFA7E
:104DD300A9F0EDFB2289828A83ECFAE0A3C8C5829D
:104DE300C8CCC583CCF0A3C8C582C8CCC583CCDFEF
:104DF300EADEE880DB89828A83E493A3F208DFF9A1
:104E030080CC88F0EF60010E4E60C388F0ED240281
:104E1300B4040050B9F582EB2402B4040050AF236C
:104E230023458223904D8573BB010CE58229F582CE
:104E3300E5833AF583E0225006E92582F8E622BBB2
:104E4300FE06E92582F8E222E58229F582E5833A26
:104E5300F583E49322BB010689828A83F022500200
:104E6300F722BBFE01F322F8BB010DE58229F5828F
:104E7300E5833AF583E8F0225006E92582C8F62255
:104E8300BBFE05E92582C8F222EF8DF0A4A8F0CF7E
:104E93008CF0A428CE8DF0A42EFE22BC000BBE0005
:104EA30029EF8DF084FFADF022E4CCF875F008EF24
:104EB3002FFFEE33FEEC33FCEE9DEC984005FCEE49
:104EC3009DFE0FD5F0E9E4CEFD22EDF8F5F0EE847A
:104ED30020D21CFEADF075F008EF2FFFED33FD403F
:104EE30007985006D5F0F222C398FD0FD5F0EA22B9
:104EF300C2D5EC30E709B2D5E4C39DFDE49CFCEEDA
:104F030030E715B2D5E4C39FFFE49EFE124E9EC365
:104F1300E49DFDE49CFC8003124E9E30D507C3E460
:104F23009FFFE49EFE22C5F0F8A3E028F0C5F0F849
:104F3300E582158270021583E038F022BB010A89ED
:104F4300828A83F0E5F0A3F0225006F709A7F0194F
:104F530022BBFE06F3E5F009F31922E88FF0A4CC97
:104F63008BF0A42CFCE98EF0A42CFC8AF0EDA42C8D
:104F7300FCEA8EF0A4CDA8F08BF0A42DCC3825F05C
:104F8300FDE98FF0A42CCD35F0FCEB8EF0A4FEA947
:104F9300F0EB8FF0A4CFC5F02ECD39FEE43CFCEA54
:104FA300A42DCE35F0FDE43CFC2275F0087582009B
:104FB300EF2FFFEE33FECD33CDCC33CCC58233C5DB
:104FC300829BED9AEC99E58298400CF582EE9BFE6C
:104FD300ED9AFDEC99FC0FD5F0D6E4CEFBE4CDFAC7
:104FE300E4CCF9A88222B800C1B90059BA002DEC6B
:104FF3008BF084CFCECDFCE5F0CBF97818EF2FFF03
:10500300EE33FEED33FDEC33FCEB33FB10D70399AA
:105013004004EB99FB0FD8E5E4F9FA227818EF2F57
:10502300FFEE33FEED33FDEC33FCC933C910D70576
:105033009BE99A4007EC9BFCE99AF90FD8E0E4C995
:10504300FAE4CCFB2275F010EF2FFFEE33FEED33C5
:10505300FDCC33CCC833C810D7079BEC9AE89940F2
:105063000AED9BFDEC9AFCE899F80FD5F0DAE4CD54
:10507300FBE4CCFAE4C8F922C3E49FFFE49EFEE418
:105083009DFDE49CFC22EB9FF5F0EA9E42F0E99D36
:1050930042F0EC6480C864809845F022EB9FF5F001
:1050A300EA9E42F0E99D42F0E89C45F022E8600F59
:1050B300ECC313FCED13FDEE13FEEF13FFD8F12247
:1050C300E8600FEFC333FFEE33FEED33FDEC33FC4B
:1050D300D8F122ECF0A3EDF0A3EEF0A3EFF022A8B9
:1050E300828583F0D083D0821250F91250F9125086
:1050F300F91250F9E473E493A3C583C5F0C583C8DB
:10510300C582C8F0A3C583C5F0C583C8C582C822BC
:10511300A42582F582E5F03583F58322D083D082FE
:10512300F8E4937012740193700DA3A393F87401C0
:1051330093F5828883E4737402936860EFA3A3A357
:1051430080DFEC8EF0A4CCC5F0CCCDF8EFA4CEC5B7
:10515300F02DFDE43CFCE8A42EC8C5F03DFDE43C85
:10516300FCEFA4FFE5F028FEE43DFDE43CFC22EF68
:105173004E6012EF60010EEDBB010B89828A83F052
:10518300A3DFFCDEFA2289F05007F709DFFCA9F060
:1051930022BBFEFCF309DFFCA9F022BB01068982D6
:1051A3008A83E0225002E722BBFE02E32289828A3D
:1051B30083E49322E0FCA3E0FDA3E0FEA3E0FF224F
:1051C300F8E0FBA3A3E0F925F0F0E5821582700275
:1051D3001583E0FA38F022EBF0A3EAF0A3E9F0221A
:1051E300900330EFF0D39D4004E0FF8003CFEDCF79
:1051F300EFD39B4010900330E0FFD39D4002800823
:10520300CFEDCF8003CFEBCF90033EEFF090033091
:10521300E0FFC39D50028003CFEDCFEFC39B50103F
:10522300900330E0FFC39D50028008CFEDCF800391
:10523300CFEBCF90033FEFF090033EE0FEC39F9090
:105243000340F07007A3F0A3F002535E900330E035
:105253006E7048EDC39B401FEDFFEBFDEF9DFFE438
:105263009400FE7C007DA7124E8C900340E0FD125B
:105273004E9EA3EE02532AEBC39DFFE49400FE7CF3
:10528300007DA7124E8C900340E0FD124E9EC37426
:10529300EA9F900342F0740302535990033EE06D7A
:1052A3007054900330E0FFEBD39F4020EB9FFFE46B
:1052B3009400FE7C007DA7124E8C900340E0FD120B
:1052C3004E9EEF244EFFEE3401A3805B900330E04B
:1052D300FFEBFDC3EF9DFFE49400FE7C007DA7126E
:1052E3004E8C900340E0FD124E9EC3744E9F90037C
:1052F30042F074018060CFEBCF90033EE06F705BB0
:10530300900330E0FFD39D4024EF9DFFE49400FE23
:105313007C007DA7124E8C900340E0FD124E9EEF61
:10532300249CFFEE3402A3F0A3EFF0802ECFEDCF49
:10533300900330E0FDC3EF9DFFE49400FE7C007D0D
:10534300A7124E8C900340E0FD124E9EC3749C9FA7
:10535300900342F074029E900341F0900333E0FE09
:10536300A3E0FF900342E02FF0900341E03EF0C33F
:10537300A3E094EA900341E09403400CA3E02416D5
:10538300F0900341E034FCF0900341E0FEA3E0FF22
:10539300C394A7EE94005005E4A3F08047C3EF94B1
:1053A3004EEE940150089003437401F08036C3EF2E
:1053B30094F5EE940150089003437402F08025C3E2
:1053C300EF949CEE940250089003437403F080140E
:1053D300C3EF9443EE940390034350057404F080A9
:1053E300037405F0900343E0FD75F0A7A4FEC3EF3B
:1053F3009EFFCBEFCB900340E0FC90033EE0FAC36B
:105403009CA3F0ED30E017ECFF7E00EBFD7C001277
:105413004E8C7DA7124E9EC3EA9FA3F08027CFEB4D
:10542300CFC374A79FFDE49400FC900340E0FF7E8C
:1054330000124E8C7C007DA7124E9E90033EE0C36B
:105443009F900340F0900343E0FF702D90033EE0F4
:10545300FE900335E0FBA3E0FAA3E0F9EE124E5809
:10546300900340E0FE900338E0FBA3E0FAA3E0F9E9
:10547300EE124E5890033F8064EFB4012D90034029
:10548300E0FF900335E0FBA3E0FAA3E0F9EF124E4F
:105493005890033EE0FF900338E0FBA3E0FAA3E05B
:1054A300F9EF124E5890033F8073900343E0FFB42B
:1054B300023C90033FE0FE900335E0FBA3E0FAA338
:1054C300E0F9EE124E5890033EE0FE900338E0FB05
:1054D300A3E0FAA3E0F9EE124E58900340E0FE90E9
:1054E300033BE0FBA3E0FAA3E0F9EE02559DEFB422
:1054F300033B90033FE0FF900335E0FBA3E0FAA3F7
:10550300E0F9EF124E58900340E0FF900338E0FBC0
:10551300A3E0FAA3E0F9EF124E5890033EE0FF90A8
:10552300033BE0FBA3E0FAA3E0F9EF806D900343B4
:10553300E0B4042D900340E0FF900335E0FBA3E0CB
:10554300FAA3E0F9EF124E5890033FE0FF900338BF
:10555300E0FBA3E0FAA3E0F9EF124E5890033E807C
:105563002B90033EE0FF900335E0FBA3E0FAA3E0BA
:10557300F9EF124E5890033FE0FF900338E0FBA38E
:10558300E0FAA3E0F9EF124E58900340E0FF9003D6
:105593003BE0FBA3E0FAA3E0F9EF124E5822E52229
:1055A3002416F582E43403F583E0052222900313E5
:1055B300300703900316E475F0011251C302519EA4
:1055C3002000E97F2ED2008018EF540F2490D434AA
:1055D30040D4FF30040BEF24BFB41A0050032461FE
:1055E300FFE523600215230526E526700205253015
:1055F300070E900313E475F0011251C3EF024E58E6
:105603000282167403D2078003E4C207F5229003D3
:10561300131251DAE4F523F525F526E52360077F18
:10562300201255E480F57524FFC201C200C202C2F4
:1056330003C205C206C2081255B0FF700D3007053C
:105643007F001255F5AF26AE2522B4255FC2D5C221
:10565300041255B0FF24D0B40A00501A75F00A782A
:105663002330D50508B6FF0106C6A426F620D504C7
:105673007002D20380D924CFB41A00EF5004C2E5DC
:10568300D2040257F6D20180C6D20080C0D2028073
:10569300BCD2D580BAD20580B47F201255E4200253
:1056A300077401B5230040F11255A1FF1255E4021E
:1056B300561ED208D20680951255A1FB1255A1FAA7
:1056C3001255A1F94A4B700679C77A587BFF20021D
:1056D3002EE523602A7E008E82758300124E2B6096
:1056E300060EEE652470F0C2D5EBC0E0EAC0E0E937
:1056F300C0E0EE12583DD0E0F9D0E0FAD0E0FB1262
:10570300519EFF60AAEBC0E0EAC0E0E9C0E0125599
:10571300E4D0E02401F9D0E03400FAD0E0FBE52442
:105723000460DCD524D980877BFF7A587939D2028B
:10573300809C791080027908C206C2088008D2D5FD
:10574300790A8004790AC2D5E524047002F524E4B9
:10575300FAFDFEFF1255A1FC7B082001131255A18F
:10576300FD7B1030000A1255A1FE1255A1FF7B20CC
:10577300EC3382D592D55013C3E43000069FFFE487
:105783009EFEE42001039DFDE49CFCE4CBF8C201F2
:10579300EC700CCFCECDCCE824F8F870F38017C3AF
:1057A300EF33FFEE33FEED33FDEC33FCEB33FB99CC
:1057B3004002FB0FD8E9EB300105F8D0E0C448B252
:1057C30001C0E00AEC4D4E4F78207B0070C2EAB571
:1057D300240040BCC0E012583FD0F0D0E0200104C8
:1057E300C4C0E0C4B201C0F01255CDD0F0D5F0EB87
:1057F30002561E12511F56BB53573558568C4C56E2
:10580300884257394F57414457414956A143574757
:1058130055572B46572B45572B4758E75056902D36
:1058230056942E56B72B56982356B52058D02A5641
:105833005048000056AF3F3F3F00790AA2D52003EE
:1058430014300509B910020404B9080104A2D520D3
:1058530006025001042002689202B523005034C0AE
:10586300E07F203003197F30A20272067205500FC9
:10587300125896C202C206C205C2087F30800F309A
:105883000503E9C0E01255E4300503D0E0F9D0E0A8
:10589300B523CC3005177F30B9100C1255E47F586F
:1058A3003004077F788003B908031255E4300205FA
:1058B3007F2D0255E47F202008F87F2B2006F3225A
:1058C300920280CF286E756C6C2900D2011255A10B
:1058D3003001F8C201782330D50108F60256502D65
:1058E300504349581255A12403B405004001E490E4
:1058F30058E2931255D5743A1255D5D20375230441
:10590300025735012900012700C10E012A00012891
:1059130000C10F41037B0041037C00410378004138
:1059230003790041037A0041034400440346000025
:10593300000041036F0141036D00410367FF410311
:105943006E00C10DC109C10AC10BC10C440278002C
:105953000000000114025401E608000800080008D2
:1059630000080008000FFF0FFF0000000044023B87
:10597300080008004101E101021000000215000ABD
:105983000212271041028FFF4101FA0002170000A3
:10599300021B0000021900004401E2000000002085
:1059A300302B000000000000000000000000000099
:1059B30000000000000000000000000000000000E4
:1059C30000000000000000000000000000000000D4
:1059D3000000420183F20041004D004201800000BB
:1059E300602001B80000000000000000000000007B
:1059F30000000000000000000000000000000000A4
:105A03000000000050006F000000000000000000D4
:105A13000000000000000041003B0041017F004105
:105A23000182004101B700410055005600580100B2
:105A33000000000000000000000000000000000063
:105A43000000000045003F0200000000470044033F
:105A530010010000000042005304004301DA050076
:105A630000410052004101860041004E0041018780
:105A7300004101880041006E284100560F41004C4F
:105A8300004401DD0000000041003E0042005000E0
:105A93000042003C00004101D9004101D80041000F
:105AA3004B0041018DFF41004F0041005700410170
:105AB30085004400000000000044000400000000D2
:105AC3004400080000000042000CFFFF42000E00EB
:105AD30000420010000042001200004200140000C7
