:080000000274D50277E83232E8
:07000B00027CAE01050100BB
:100013000200067B017A0679009002ED7401F07FFD
:06002300007ED80264918A
:0D002B0002000775A15575A1AA43B110226E
:03003B0002784503
:100043000234C1126BF712264DBF0109127DE8126B
:100053007A31125CA1127D291257E2E4FF021502E4
:100063000276BFEF6013E4900295F0A3F090029341
:10007300F0A3F0900291020585900111E0FEA3E048
:1000830024D5F582EE3401F583E493FD540175F034
:1000930002A424FFFEE5F034FF9002F8F0A3CEF0B3
:1000A300EDC313540175F002A424FFFEE5F034FF01
:1000B300A3F0A3CEF0900163E0FEA3E0FF9001A8BC
:1000C300E0FCA3E0FDD39FEC9E4008CEECCECFED49
:1000D300CF8000D3900160E09F90015FE09E4020BD
:1000E300900163E0FEA3E0FF9001A8E0FCA3E0FD24
:1000F300D39FEC9E4008CEECCECFEDCF800A800894
:1001030090015FE0FEA3E0FF9001A8EEF0A3EFF003
:10011300900165E0FEA3E0FF9001AAE0FCA3E0FDEF
:10012300D39FEC9E4008CEECCECFEDCF8000D39092
:100133000162E09F900161E09E4020900165E0FE36
:10014300A3E0FF9001AAE0FCA3E0FDD39FEC9E4057
:1001530008CEECCECFEDCF800A8008900161E0FE9F
:10016300A3E0FF9001AAEEF0A3EFF0900111E0FEEF
:10017300A3E024D5F582EE3401F583E493131354FD
:100183003F20E00302030A900153E0FEA3E0FF9047
:1001930001A8E0FCA3E0FDC39FEC9E9002F8E0FE03
:1001A3005037A3E0FFEEC0E0EFC0E0900153E0FE64
:1001B300A3E0FFC3ED9FFFEC9EFE3395E0FDFCE45F
:1001C300FB7A10F9F8124A6BECC0E0EDC0E0EEC028
:1001D300E0EFC0E090015B803BA3E0FFEEC0E0EF07
:1001E300C0E0900153E0FEA3E0FF9001A8E0FCA370
:1001F300E0C39FFFEC9EFE3395E0FDFCE4FB7A1029
:10020300F9F8124A6BECC0E0EDC0E0EEC0E0EFC0DD
:10021300E0900157E0FEA3E0FFCBEFCBCAEECAE4C8
:10022300F9F8D0E0FFD0E0FED0E0FDD0E0FC127A98
:10023300BBCDEFCDCCEECCD0E0FFD0E0FE12493603
:100243009002F8EEF0A3EFF0900155E0FEA3E0FF7B
:100253009001AAE0FCA3E0FDC39FEC9E9002FAE0AC
:10026300FE5037A3E0FFEEC0E0EFC0E0900155E0A1
:10027300FEA3E0FFC3ED9FFFEC9EFE3395E0FDFC84
:10028300E4FB7A10F9F8124A6BECC0E0EDC0E0EE43
:10029300C0E0EFC0E090015D803BA3E0FFEEC0E073
:1002A300EFC0E0900155E0FEA3E0FF9001AAE0FC5F
:1002B300A3E0C39FFFEC9EFE3395E0FDFCE4FB7AD5
:1002C30010F9F8124A6BECC0E0EDC0E0EEC0E0EFCD
:1002D300C0E0900159E0FEA3E0FFCBEFCBCAEECA2A
:1002E300E4F9F8D0E0FFD0E0FED0E0FDD0E0FC126E
:1002F3007ABBCDEFCDCCEECCD0E0FFD0E0FE1249FF
:10030300369002FA020495900153E0FEA3E0FF90B9
:1003130001A8E0FCA3E0FDC39FEC9E9002FAE0FE7F
:100323005037A3E0FFEEC0E0EFC0E0900153E0FEE2
:10033300A3E0FFC3ED9FFFEC9EFE3395E0FDFCE4DD
:10034300FB7A10F9F8124A6BECC0E0EDC0E0EEC0A6
:10035300E0EFC0E090015B803BA3E0FFEEC0E0EF85
:10036300C0E0900153E0FEA3E0FF9001A8E0FCA3EE
:10037300E0C39FFFEC9EFE3395E0FDFCE4FB7A10A7
:10038300F9F8124A6BECC0E0EDC0E0EEC0E0EFC05C
:10039300E0900157E0FEA3E0FFCBEFCBCAEECAE447
:1003A300F9F8D0E0FFD0E0FED0E0FDD0E0FC127A17
:1003B300BBCDEFCDCCEECCD0E0FFD0E0FE12493682
:1003C3009002FAEEF0A3EFF0900155E0FEA3E0FFF8
:1003D3009001AAE0FCA3E0FDC39FEC9E9002F8E02D
:1003E300FE503EA3E0FFEEC0E0EFC0E0900155E019
:1003F300FEA3E0FFC3ED9FFFEC9EFEC3E49FFFE47B
:100403009EFE3395E0FDFCE4FB7A10F9F8124A6B8B
:10041300ECC0E0EDC0E0EEC0E0EFC0E090015D8035
:1004230042A3E0FFEEC0E0EFC0E0900155E0FEA381
:10043300E0FF9001AAE0FCA3E0C39FFFEC9EFEC394
:10044300E49FFFE49EFE3395E0FDFCE4FB7A10F9A4
:10045300F8124A6BECC0E0EDC0E0EEC0E0EFC0E0A4
:10046300900159E0FEA3E0FFCBEFCBCAEECAE4F95B
:10047300F8D0E0FFD0E0FED0E0FDD0E0FC127ABB84
:10048300CDEFCDCCEECCD0E0FFD0E0FE12493690DC
:1004930002F8EEF0A3EFF09002FAE0FEA3E0FFD340
:1004A3009400EE648094804002800F9002FAE0FE94
:1004B300A3E0FFC3E49FFFE49EFE9002F8E0FCA3E9
:1004C300E0FDD39400EC648094804002800F90029E
:1004D300F8E0FCA3E0FDC3E49DFDE49CFCD3ED9FA9
:1004E300EE6480F8EC64809840259002F8E0FEA367
:1004F300E0FFD39400EE6480948040028034900245
:10050300F8E0FEA3E0FFC3E49FFFE49EFE80239098
:1005130002FAE0FEA3E0FFD39400EE6480948040EF
:1005230002800F9002FAE0FEA3E0FFC3E49FFFE422
:100533009EFECAEECACBEFCB900111E0FEA3E024EE
:10054300DCF582EE3401F583E493FF7E007C007DCD
:1005530015124936C3EB9FFFEA9EFE9002FCF0A3FF
:10056300EFF0D39400EE64809480501AE4900299E3
:10057300F0A3F0900297F0A3F0900295F0A3F0900F
:100583000293F0A3F022900111E0FEA3E0FF24D434
:10059300F582EE3401F583E493540F24FE700302D5
:1005A300078E147003020AC3147003020FB92403E5
:1005B3006003021501900291E07002A3E060030260
:1005C3000798EF24DEF582EE3401F583E493701D82
:1005D300900111E0FEA3E024DFF582EE3401F58300
:1005E300E4937009900291F0A3F002071A900111AD
:1005F300E0FEA3E0FF24DEF582EE3401F583E4930D
:10060300FBEF24DFF582EE3401F583E493C39BFD16
:100613003395E0FC78039002FCE0FEA3E0CEA2E772
:1006230013CE13D8F8FF124936EEFD3395E0FCEBF9
:1006330025E0FFE433FEED2FFFEC3E9002FCF0A338
:10064300EFF0900297E0FEA3E0FFD39400EE648006
:1006530094804002800F900297E0FEA3E0FFC3E482
:100663009FFFE49EFE9002FCE0FCA3E0FDD39FEE1F
:100673006480F8EC648098500A900297ECF0A3ED44
:10068300F0806B900111E0FEA3E024DDF582EE34EF
:1006930001F583E4932401FDE433FC900297E0FE2B
:1006A300A3E0FFC39002FDE09FFF9002FCE09EFEEB
:1006B30012499DEEF0A3EFF04E7010900298E00403
:1006C300F0701C900297E004F080149002FCE0FEAE
:1006D300A3E0FF900298E02FF0900297E03EF090A5
:1006E3000297E0FFA3E09002FCCFF0A3EFF09002AB
:1006F300FCE0FEA3E0FFC374649FFFE49EFE900250
:1007030091F0A3EFF0D39400EE64809480500890AE
:100713000291E4F0A304F09002F8E0FEA3E0FFA34B
:10072300E0FCA3E0FDD39FEE6480F8EC6480984086
:1007330026E49FFFE49EFED3ED9FEE6480F8EC6415
:100743008098900111E0FE4007A3E024D7020AB489
:10075300A3E024D9020AB49002F8E0FEA3E0FFC3A9
:10076300E49FFFE49EFED39002FBE09FEE6480F8DB
:100773009002FAE0648098900111E0FE4006A3E045
:1007830024DA8004A3E024D8020AB4900291E07032
:1007930002A3E0600F900292E024FFF0900291E048
:1007A30034FFF022900111E0FEA3E0FF24DEF58286
:1007B300EE3401F583E4937017EF24DFF582EE3412
:1007C30001F583E4937009900291F0A3F00208FD10
:1007D300900111E0FEA3E0FF24DEF582EE3401F583
:1007E30083E493FBEF24DFF582EE3401F583E49396
:1007F300C39BFD3395E0FC78039002FCE0FEA3E08D
:10080300CEA2E713CE13D8F8FF124936EEFD339587
:10081300E0FCEB25E0FFE433FEED2FFFEC3E90021E
:10082300FCF0A3EFF0900297E0FEA3E0FFD3940067
:10083300EE648094804002800F900297E0FEA3E074
:10084300FFC3E49FFFE49EFE9002FCE0FCA3E0FDF7
:10085300D39FEE6480F8EC648098500A900297EC82
:10086300F0A3EDF0806B900111E0FEA3E024DDF531
:1008730082EE3401F583E4932401FDE433FC90021A
:1008830097E0FEA3E0FFC39002FDE09FFF9002FC10
:10089300E09EFE12499DEEF0A3EFF04E7010900221
:1008A30098E004F0701C900297E004F0801490022A
:1008B300FCE0FEA3E0FF900298E02FF0900297E0A7
:1008C3003EF0900297E0FFA3E09002FCCFF0A3EF8D
:1008D300F09002FCE0FEA3E0FFC374649FFFE49E7C
:1008E300FE900291F0A3EFF0D39400EE6480948025
:1008F3005008900291E4F0A304F09002F8E0FEA304
:10090300E0FF7C007D03124936CAEECACBEFCBA3CE
:10091300E0FEA3E0FF7D07124936D3EF9BEA648034
:10092300F8EE648098403C9002F8E0FEA3E0FFE418
:100933009FFFE49EFE7D03124936CAEECACBEFCB7E
:10094300A3E0FEA3E0FF7D07124936D3EF9BEA64E1
:1009530080F8EE648098400B900111E0FEA3E02440
:10096300D780689002F8E0FEA3E0FF7C007D0312CD
:100973004936CAEECACBEFCBA3E0FEA3E0FF7D0767
:10098300124936C3EF9BEA6480F8EE648098504ABC
:100993009002F8E0FEA3E0FFC3E49FFFE49EFE7D28
:1009A30003124936CAEECACBEFCBA3E0FEA3E0FFA6
:1009B3007D07124936C3EF9BEA6480F8EE648098A2
:1009C3005018900111E0FEA3E024D8F582EE340123
:1009D300F583E493FD7FFF12703C9002F8E0FEA3E1
:1009E300E0FF7C007D07124936CAEECACBEFCBA3EA
:1009F300E0FEA3E0FF7D03124936D3EF9BEA648058
:100A0300F8EE648098403C9002F8E0FEA3E0FFE437
:100A13009FFFE49EFE7D07124936CAEECACBEFCB99
:100A2300A3E0FEA3E0FF7D03124936C3EF9BEA6414
:100A330080F8EE648098500B900111E0FEA3E0244F
:100A4300D9806E9002F8E0FEA3E0FF7C007D0712E0
:100A53004936CAEECACBEFCBA3E0FEA3E0FF7D038A
:100A6300124936C3EF9BEA6480F8EE648098400332
:100A73000215019002F8E0FEA3E0FFC3E49FFFE448
:100A83009EFE7D07124936CAEECACBEFCBA3E0FE2A
:100A9300A3E0FF7D03124936D3EF9BEA6480F8EEAF
:100AA3006480985003021501900111E0FEA3E02435
:100AB300DAF582EE3401F583E493FD7FFF02703CA7
:100AC300900111E0FEA3E024DFF582EE3401F5830B
:100AD300E493FB3395E0FA78039002F8E0FEA3E099
:100AE300CEA2E713CE13D8F8FFCDEBCDCCEACC12D0
:100AF30049367804EFCEA2E713CE13D8F8FF90025D
:100B0300F8EEF0A3EFF07803A3E0FEA3E0CEA2E7B4
:100B130013CE13D8F8FFCDEBCDCCEACC12493678FF
:100B230004EFCEA2E713CE13D8F8FF9002FAEEF04B
:100B3300A3EFF0900297E0FEA3E0FFD39400EE64EE
:100B43008094804002800F900297E0FEA3E0FFC3F1
:100B5300E49FFFE49EFE9002F8E0FCA3E0FDD39443
:100B630000EC648094804002800F9002F8E0FCA3C4
:100B7300E0FDC3E49DFDE49CFCD3ED9FEE6480F8AF
:100B8300EC6480985002802E900297E0FEA3E0FF71
:100B9300D39400EE648094804002800F900297E02B
:100BA300FEA3E0FFC3E49FFFE49EFED3EF9420EE99
:100BB3006480948340129002F8E0FFA3E0900297D0
:100BC300CFF0A3EFF0020CE7900297E0FEA3E0FF63
:100BD300D39400EE6480948040028007C3E49FFFB7
:100BE300E49EFECCEECCCDEFCD900111E0FAA3E074
:100BF300FB24DEF582EA3401F583E49375F00AA45D
:100C0300FFD3ED9FE5F06480F8EC648098405DEBE2
:100C130024DDF582EA3401F583E4932401FDE43312
:100C2300FC900297E0FEA3E0FF9002F8E0FAA3E055
:100C3300FBC39FFFEA9EFE12499D9002FCEEF0A3C8
:100C4300EFF04E6003020CD3C3EA64809480500734
:100C53007EFF7FFF020CDBD3EB9400EA6480948079
:100C63007E0040047F0180027F00806C900111E0D0
:100C7300FEA3E024DDF582EE3401F583E49375F001
:100C83000AA42401FDE435F0FC900297E0FEA3E002
:100C9300FF9002F8E0FAA3E0FBC39FFFEA9EFE1277
:100CA300499D9002FCEEF0A3EFF04E7023C3EA647B
:100CB30080948050067EFF7FFF8013D3EB9400EA7D
:100CC300648094807E0040047F0180027F0080085E
:100CD3009002FCE0FEA3E0FF900298E02FF0900268
:100CE30097E03EF0900299E0FEA3E0FFD39400EE7C
:100CF300648094804002800F900299E0FEA3E0FF9D
:100D0300C3E49FFFE49EFE9002FAE0FCA3E0FDD360
:100D13009400EC648094804002800F9002FAE0FC1F
:100D2300A3E0FDC3E49DFDE49CFCD3ED9FEE648052
:100D3300F8EC6480985002802E900299E0FEA3E0C4
:100D4300FFD39400EE648094804002800F90029958
:100D5300E0FEA3E0FFC3E49FFFE49EFED3EF9420F5
:100D6300EE6480948340129002FAE0FFA3E09002C5
:100D730099CFF0A3EFF0020E93900299E0FEA3E067
:100D8300FFD39400EE6480948040028007C3E49F05
:100D9300FFE49EFECCEECCCDEFCD900111E0FAA3A3
:100DA300E0FB24DEF582EA3401F583E49375F00A6F
:100DB300A4FFD3ED9FE5F06480F8EC648098405A7B
:100DC300EB24DDF582EA3401F583E4932401FDE4A9
:100DD30033FC900299E0FEA3E0FF9002FAE0FAA34D
:100DE300E0FBC39FFFEA9EFE12499DA3EEF0A3EF33
:100DF300F04E6003020E7FC3EA6480948050067E47
:100E0300FF7FFF807FD3EB9400EA648094807E00B1
:100E130040047F0180027F00806A900111E0FEA3FD
:100E2300E024DDF582EE3401F583E49375F00AA442
:100E33002401FDE435F0FC900299E0FEA3E0FF906D
:100E430002FAE0FAA3E0FBC39FFFEA9EFE12499D6C
:100E5300A3EEF0A3EFF04E7023C3EA6480948050B6
:100E6300067EFF7FFF8013D3EB9400EA64809480B7
:100E73007E0040047F0180027F0080089002FCE036
:100E8300FEA3E0FF90029AE02FF0900299E03EF07B
:100E9300900297E0FEA3E0FF900294E02FF090020F
:100EA30093E03EF0900299E0FEA3E0FF900296E00B
:100EB3002FF0900295E03EF0900293E0FEA3E0FF56
:100EC300D39440EE64809460400280047EE07F40CF
:100ED300C3EF94C0EE6480949F5019900293E0FE98
:100EE300A3E0FF9440EE648094604002800A7EE0B9
:100EF3007F4080047E1F7FC0900293EEF0A3EFF04B
:100F0300A3E0FEA3E0FFD39440EE6480946040022C
:100F130080047EE07F40C3EF94C0EE6480949F50D2
:100F230019900295E0FEA3E0FF9440EE6480946084
:100F33004002800A7EE07F4080047E1F7FC09002D3
:100F430095EEF0A3EFF0900293E0FCA3E0FD7806AA
:100F5300CEECCECEA2E713CE13D8F8900315F078DB
:100F630006900295E0FEA3E0CEA2E713CE13D8F8D5
:100F7300F404F9900316F0900315E0FF3395E0FEB7
:100F83007806EFC333CE33CED8F9FFC3ED9FFFEC22
:100F93009E900293F0A3EFF0E9FF3395E0FE78060D
:100FA300EFC333CE33CED8F9FF900296E02FF09003
:100FB3000295E03EF022900293E0FEA3E0FF900250
:100FC300F8E0FCA3E0FDC39FFFEC9EFE7802EFCEAA
:100FD300A2E713CE13D8F8FF9002FCEEF0A3EFF0D4
:100FE3004E7023C3EC6480948050067EFF7FFF80A5
:100FF3001DD3ED9400EC648094807E0040047F0157
:1010030080027F0080089002FCE0FEA3E0FF9002D4
:1010130094E02FF0900293E03EF0900295E0FEA35F
:10102300E0FF9002FAE0FCA3E0FDC39FFFEC9EFE0D
:101033007802EFCEA2E713CE13D8F8FF9002FCEEAE
:10104300F0A3EFF04E7023C3EC6480948050067ECF
:10105300FF7FFF801DD3ED9400EC648094807E00BD
:1010630040047F0180027F0080089002FCE0FEA321
:10107300E0FF900296E02FF0900295E03EF09002A0
:10108300F8E0FAA3E0FBD39400EA64809480900133
:1010930011E0FE4006A3E024DA8004A3E024D9F59E
:1010A30082EE3401F583E493FF900297E4F0A3EF1B
:1010B300F0D3ED9400EC64809480900111E0FE4045
:1010C30006A3E024D78004A3E024D8F582EE3401FC
:1010D300F583E493FF900299E4F0A3EFF090029775
:1010E300E0FEA3E0FFC3941EEE648094804017D318
:1010F300EF9427EE64809480500CEF25E0FFEE33ED
:10110300FEEF24C68027900297E0FEA3E0FFC3947E
:1011130059EE648094804022D3EF9462EE6480940D
:10112300805017EF25E0FFEE33FEEF244FFFEE3440
:10113300FF900297F0A3EFF08007E4900297F0A3EB
:10114300F0900299E0FEA3E0FFC3941EEE64809446
:10115300804017D3EF9427EE64809480500CEF25E2
:10116300E0FFEE33FEEF24C68027900299E0FEA352
:10117300E0FFC39459EE648094804022D3EF9462DD
:10118300EE648094805017EF25E0FFEE33FEEF24EA
:101193004FFFEE34FF900299F0A3EFF08007E49045
:1011A3000299F0A3F0D3EB9401EA64809470400AAF
:1011B3009002F8E0FEA3E0FF80047EF07F01C3EF1E
:1011C30094FFEE6480948F50199002F8E0FEA3E040
:1011D300FF9401EE648094704002800A7EF07F01E8
:1011E30080047E0F7FFF9002F8EEF0A3EFF0D3EDC3
:1011F3009401EC648094704008A3E0FEA3E0FF80B8
:10120300047EF07F01C3EF94FFEE6480948F501946
:101213009002FAE0FEA3E0FF9401EE648094704034
:1012230002800A7EF07F0180047E0F7FFF9002FA26
:10123300EEF0A3EFF0900297E0FEA3E0FFCBEFCB3D
:10124300CAEECAEA3395E0F9F8900293E0FEA3E010
:10125300FFEE3395E0FDFC124A6BC8ECC8C9EDC93B
:10126300CAEECACBEFCB900111E0FEA3E024DFF579
:1012730082EE3401F583E493FFE4FCFDFE124A6B36
:10128300E47B7DFAF9F8127ABB900297EEF0A3EFB4
:10129300F0A3E0FEA3E0FFEE3395E0FDFC124B88E4
:1012A300C8ECC8C9EDC9CAEECACBEFCB900295E032
:1012B300FEA3E0FFEE3395E0FDFC124A6BC8ECC8D9
:1012C300C9EDC9CAEECACBEFCB900111E0FEA3E092
:1012D30024DFF582EE3401F583E493FFE4FCFDFEA5
:1012E300124A6BE47B7DFAF9F8127ABB900299EE0D
:1012F300F0A3EFF0900111E0FEA3E024DDF582EE10
:101303003401F583E493FFE4FCFDFE7BFF7A7FF970
:10131300F8124A6BE47B32FAF9F8127ABB9002F8BE
:10132300EEF0A3EFF0900111E0FEA3E024DEF582DE
:10133300EE3401F583E493FFE4FCFDFE7BFF7A7F4B
:10134300F9F8124A6BE47B32FAF9F8127ABB90028D
:10135300FAEEF0A3EFF0D3900298E0940090029796
:10136300E06480948040479002F8E0FEA3E0FFCB66
:10137300EFCBCAEECAEA3395E0F9F8900297E0FEA4
:10138300A3E0FFEE3395E0FDFCEB2FFFEA3EFEE921
:101393003DFDE83CFCE47BFF7A7FF9F8C3124B96F2
:1013A300500C9002F8747FF0A374FFF08055C39043
:1013B3000297E06480948050369002F8E0FEA3E048
:1013C300FFCBEFCBCAEECAEA3395E0F9F890029768
:1013D300E0FEA3E0FFEE3395E0FDFCEB2FEA3EE9F0
:1013E3003DE83C335009E49002F8F0A3F0801490F8
:1013F3000297E0FEA3E0FF9002F9E02FF09002F8DD
:10140300E03EF0D390029AE09400900299E0648069
:10141300948040479002FAE0FEA3E0FFCBEFCBCAF3
:10142300EECAEA3395E0F9F8900299E0FEA3E0FFF3
:10143300EE3395E0FDFCEB2FFFEA3EFEE93DFDE8D0
:101443003CFCE47BFF7A7FF9F8C3124B96500C9077
:1014530002FA747FF0A374FFF08056C3900299E000
:101463006480948050379002FAE0FEA3E0FFCBEF54
:10147300CBCAEECAEA3395E0F9F8900299E0FEA3ED
:10148300E0FFEE3395E0FDFCEB2FFFEA3EE93DE89C
:101493003C335009E49002FAF0A3F08014900299CF
:1014A300E0FEA3E0FF9002FBE02FF09002FAE03EA3
:1014B300F09002F8E0FCA3E0FDCFEDCF90031BF02A
:1014C300ECFFEFA3F09002FAE0FCA3E0FDCFEDCF39
:1014D30090031DF0ECFFEFA3F090031A7411F0904A
:1014E3000291E07002A3E07F0070027F017E009012
:1014F3000291EEF0A3EFF025E014900315F022E43F
:101503009002F8F0A374FFF0E4F512F513EF604ACC
:101513009001F8E0FCA3E0FDA3E0FEA3E0FF90024E
:1015230010124BE39001F8E0FCA3E0FDA3E0FEA35F
:10153300E02401FFE43EFEED34FFFDEC34FFFC90BC
:101543000214124BE37E007F107D007B017A027947
:1015530071124C59E490021AF0229001F8A3A3A34C
:10156300E0FF90021BE0FEC3EF9EC39414500302FE
:10157300264CE02414F0900281E0FEA3E0F5828E75
:101583008374F593700374F493602EE4F510744040
:101593002510F582E43401F583E060169001F8E04C
:1015A300FCA3E0FDA3E0FEA3E0FF900214124BE3D3
:1015B30080070510E510B410D590021AE0540FFF10
:1015C300BF021D7403F09001F8E0FCA3E0FDA3E06B
:1015D300FEA3E0FF900210124BE390021C74FFF095
:1015E30090021AE0540F6403600302171790021865
:1015F300E0FEA3E0FFCBEFCBCAEECA900281E0FE90
:10160300A3E0F5828E8374F893FE74F993FFEF2BB6
:10161300FFEE3AFEE433FDE433C0E0EDC0E0EEC09C
:10162300E0EFC0E0900210E0F8A3E0F9A3E0FAA332
:10163300E0FB9001F8E0FCA3E0FDA3E0FEA3E0C320
:101643009BFBEE9AFAED99F9EC98F8D0E0FFD0E025
:10165300FED0E0FDD0E0FCD3124BAC5003021717D1
:10166300900281E0FEA3E0F5828E8374F493FE740E
:10167300F593FF4E604C7C007D0A124C2CECC0E0CD
:10168300EDC0E0EEC0E0EFC0E0900214E0F8A3E0AC
:10169300F9A3E0FAA3E0FB9001F8E0FCA3E0FDA3CB
:1016A300E0FEA3E0C39BFBEE9AFAED99F9EC98F800
:1016B300D0E0FFD0E0FED0E0FDD0E0FCD3124BAC95
:1016C3004052900281E0FEA3E0F5828E8374FB9387
:1016D300700374FA93602E12794ECCEECCCDEFCD1D
:1016E300AF8AEF6CFEEDFF900281E0FCA3E0F58290
:1016F3008C8374FA93FC74FB93FD124948CEECCEB1
:10170300CFEDCF80047E007F00900218EEF0A3EFB0
:10171300F0E4A3F090021AE0540F60030218F604F9
:10172300F09001F8E0FCA3E0FDA3E0FEA3E0FF904E
:101733000210124BE3E490021CF0900281E0FEA33E
:10174300E0F5828E8374F193FF70030218D2EFD316
:101753009404501B900281E0FEA3E0F5828E837413
:10176300F1931475F008A4FD74F0932D0218EA9018
:101773000281E0FEA3E0F5828E8374F193B4050346
:101783000218F0E4F511F510900281E0FEA3E0FFEA
:10179300F5828E8374EB932401FDE433FCC3E510DF
:1017A3009DEC6480F87480985035E510C39409501B
:1017B3002EE58224E0F582E43583F583E582251066
:1017C300F582E43583F583E493FF600DD3940450ED
:1017D3000874082511F51180020511051080A990E0
:1017E3000281E0FEA3E0F5828E8374F193B4060FC9
:1017F30090021EE004F0C39511402AE4F080261203
:10180300794EAD8AEF6DFFAD117C0012499D8D10AD
:1018130090021EE065107007E511D3940150E0902B
:10182300021EE510F0E4F511F510900281E0FEA32D
:10183300E0FFF5828E8374EB932401FDE433FCD344
:10184300E5109DEC6480F8748098507FE51094094E
:10185300507990021EE0F9E51199403DE51024DF2F
:10186300FDE433FCEF2DF582EE3CF583E493600D4C
:10187300D394045008E92408C39511F511E5102405
:10188300DFFFE433FE900281E0FCA3E02FF582EC5E
:101893003EF583E493F5108032900281E0FCA3E0EF
:1018A30024E0F582E43CF583E5822510F582E435F6
:1018B30083F583E493600DD39404500874082511D1
:1018C300F51180020511051002182DE5107008901E
:1018D300021F74C8F0801CE510D39404500FE51068
:1018E3001475F008A4251190021FF0800690021FC2
:1018F3007464F090021AE0540F640170599001F877
:10190300A3A3E0FEA3E0FFCBEFCBCAEECA90021085
:10191300A3A3E0FEA3E0FFC3EB9FFFEA9EFE9002BA
:1019230081E0FCA3E0F5828C83C374F7939F74F684
:10193300939E502290021FE064C8601A9001F8E061
:10194300FCA3E0FDA3E0FEA3E0FF900210124BE333
:1019530090021CE004F090021FE0FFC39420500F9C
:10196300EF75F010A4247AF9748135F0FA801B9096
:10197300021FE0B4643B900282E02490FF90028156
:10198300E03400FECAEECAC9EFC97BFFEBC0E0EA50
:10199300C0E0E9C0E0C87451C8CC7402CCCD740176
:1019A300CDD0E0F9D0E0FAD0E0FB7E007F10124802
:1019B300AF900281E0FEA3E0FFCAEECAC9EFC97B84
:1019C300FFEBC0E0EAC0E0E9C0E0C87421C8CC7412
:1019D30002CCCD7401CDD0E0F9D0E0FAD0E0FB7EAB
:1019E300007F301248AFE4F510900281E0FEA3E0DF
:1019F300F5828E8374F3937003021B4474F2932075
:101A0300E003021B44E51075F003A42421F582E4EE
:101A13003402F583E0FFE51075F003A42422F58278
:101A2300E43402F583E0FDE51075F003A42423F507
:101A330082E43402F583E0C0E09003067401F0A36E
:101A43007402F0A374FAF0A37401F0A37402F0A378
:101A530074FCF0A37401F0A37402F0A374FEF0D03D
:101A6300E0FB1267D9900281E0FEA3E0F5828E834A
:101A730074F393FFCBEFCBE4FAF9F89001F8E0FCB1
:101A8300A3E0FDA3E0FEA3E0FF124AF6E47BEA7ABB
:101A930003F9F8124AF6CCE8CCCDE9CDCEEACECFA5
:101AA300EBCF9002FBE02FF09002FAE03EF0C3A3ED
:101AB300E094EA9002FAE09403400CA3E02416F0C9
:101AC3009002FAE034FCF0E51075F003A4FFAEF0E9
:101AD3002421F974023EFA7B01EBC0E0EAC0E0E99D
:101AE300C0E074222FF974023EFAEBC0E0EAC0E0D2
:101AF300E9C0E074232FF974023EFA90030FEBF070
:101B0300A3EAF0A3E9F0D0E0F9D0E0FAD0E0900343
:101B13000CF0A3EAF0A3E9F0D0E0F9D0E0FAD0E0CA
:101B2300900309F0A3EAF0A3E9F09002FAE0FEA320
:101B3300E0FFA3E0FCA3E0FDA3E0FAA3E0FB126255
:101B4300B790021FE064C86003021DBD900281E0EC
:101B5300FEA3E0F5828E8374F793700374F693709B
:101B630003021DBD9001F8A3A3E0FEA3E0FFCBEFAA
:101B7300CBCAEECA900210A3A3E0FEA3E0FFC3EB1F
:101B83009FFBEA9EFA900281E0FEA3E0F5828E833A
:101B930074F693FE74F793FFD394E8EE9403400234
:101BA30080047E037FE87C037DE8124948CDEFCDB6
:101BB300CCEECCCFEBCFCEEACE1249487C037DEA04
:101BC3001249489002FEECF0A3EDF09002FEE0FE15
:101BD300A3E0FFC394F5EE9401402D74E99FF074E4
:101BE300039E9002FEF0900281E0FEA3E0F5828E58
:101BF3008374FD9375F00384AFF07512008F139017
:101C0300021AE04480F0802F900281E0FEA3E0F509
:101C1300828E8374FC9375F00384AFF07512008F8A
:101C23001390021AE0B4810FE510B40F037402F0AD
:101C3300E49002FEF0A3F090021AE0540F640160F6
:101C430007E49002FEF0A3F0E5134512705DF51171
:101C530075F003E510A42511F582E435F0F583E56D
:101C6300822421F582E5833402F583E0FF7E009030
:101C730002FEE0FCA3E0FD124C2CE47BF47A01F9B4
:101C8300F8124AF675F003E510A42511F582E43540
:101C9300F0F583E5822421F582E5833402F583EFB1
:101CA300F00511E511B403A8021DB4E51364014561
:101CB300126003021D419002FEE0FEA3E0FF7C00E0
:101CC3007DFF124C2CE47BF47A01F9F8124AF67486
:101CD300FA2FF582747F3EF583E493FF9002FEE4CE
:101CE300F0A3EFF0E4F51175F003E510A42511F569
:101CF30082E435F0F583E5822421F582E58334021D
:101D0300F583E0FF7E009002FEE0FCA3E0FD1249B4
:101D1300367C007DFF12494875F003E510A42511B8
:101D2300F582E435F0F583E5822421F582E58334F9
:101D330002F583EFF00511E511B403AB8073900254
:101D4300FEE0FEA3E02405F582747E3EF583E49372
:101D5300FF9002FEE4F0A3EFF0E4F51175F003E564
:101D630010A42511F582E435F0F583E5822421F5ED
:101D730082E5833402F583E0FF7E009002FEE0FCFF
:101D8300A3E0FD1249367C007DFF12494875F0033C
:101D9300E510A42511F582E435F0F583E5822421CD
:101DA300F582E5833402F583EFF00511E511B40301
:101DB300AB9002F87401F0021F6E90021FE064C83A
:101DC3007003021F6E74512510F582E43402F5830B
:101DD300E0FF90021CE0FEEF6E6003021EC890025B
:101DE300F804F0900281E0FEA3E0F5828E8374FC98
:101DF30093FFC3741F9FF513E49400F512D3E51307
:101E0300940AE512648094804015AE12AF137C00EF
:101E13007D0A124936EF24A6F513EE34FFF512744A
:101E2300712510F582E43402F583E0FFC374FF9F4C
:101E3300FFE49400FED3EF9513E5126480F8EE649B
:101E430080987471400F2510F582E43402F583E025
:101E53002513F0800C2510F582E43402F58374FF1A
:101E6300F0E4F51175F003E510A42511F582E435CE
:101E7300F0F583E5822421F582E5833402F583E0DE
:101E8300FF7E0074712510F582E43402F583E0903F
:101E93007FFA93FD7C001249367DFF12494875F0A5
:101EA30003E510A42511F582E435F0F583E58224DA
:101EB30021F582E5833402F583EFF00511E511B4D2
:101EC30003A2021F6E900281E0FEA3E0F5828E83DF
:101ED30074FD932401FDE433FC74712510F582E451
:101EE3003402F583E0FBFF7E0012499D8E128F13AF
:101EF300EB600BE51345127005F512751301747150
:101F03002510F582E43402F583E0C39513F0E4F57C
:101F13001175F003E510A42511F582E435F0F5837E
:101F2300E5822421F582E5833402F583E0FF7E0018
:101F330074712510F582E43402F583E0FD7C001210
:101F430049367DFF12494875F003E510A42511F5C4
:101F530082E435F0F583E5822421F582E5833402BA
:101F6300F583EFF00511E511B403A674402510F5D0
:101F730082E43401F583E06079900281E0FCA3E020
:101F83002510F582E43CF5837460932401FDE4336A
:101F9300FC74612510F582E43402F583E0FBFFC392
:101FA30074FF9FFFE49400FE12499D8E128F13C3AA
:101FB30074FF9B600BE51345127005F51275130151
:101FC30074612510F582E43402F583E02513F09063
:101FD3000281E0FCA3E02510F582E43CF5837480E4
:101FE30093FF9002F9E0D39F5003022099EFF00290
:101FF3002099900281E0FCA3E02510F582E43CF5F2
:10200300837470932401FDE433FC74612510F5821D
:10201300E43402F583E0FBFF7E0012499D8E128FAC
:1020230013EB600BE51345127005F512751301747C
:10203300612510F582E43402F583E0C39513F0E4DF
:10204300F51175F003E510A42511F582E435F0F5DB
:1020530083E5822421F582E5833402F583E0FF9052
:10206300021DE0FEEF8EF0A4FFAEF07C007DFF12B8
:10207300494875F003E510A42511F582E435F0F520
:1020830083E5822421F582E5833402F583EFF005AD
:1020930011E511B403AC900281E0FEA3E0F5828E5A
:1020A3008374F393700302225774F29320E10302C3
:1020B3002257900281E0FCA3E0FDF5828C8375F04A
:1020C30003E510124C20743093FF8D828C8375F0DE
:1020D30003E510124C20743193FD900281E0FAA3C2
:1020E300E0F5828A8375F003E510124C2074329375
:1020F300C0E09003067401F0A37402F0A374FAF035
:10210300A37401F0A37402F0A374FCF0A37401F0B0
:10211300A37402F0A374FEF0D0E0FB1267D990021F
:1021230081E0FEA3E0F5828E8374F393FFCBEFCBC4
:10213300E4FAF9F89001F8E0FCA3E0FDA3E0FEA3C4
:10214300E0FF124AF6E47BEA7A03F9F8124AF6CC86
:10215300E8CCCDE9CDCEEACECFEBCF9002FBE02F9A
:10216300F09002FAE03EF0C3A3E094EA9002FAE0B2
:102173009403400CA3E02416F09002FAE034FCF040
:102183009002FAE0FEA3E0FFA3E0FCA3E0FD9003CE
:10219300097401F0A37403F0A37400F0A37401F0B5
:1021A300A37403F0A37401F0A37401F0A37403F008
:1021B300A37402F09002FEE0FAA3E0FB1262B79070
:1021C3000300E0FFE51075F003A42421F582E43455
:1021D30002F583E0FDC3EF9DFFE49400FE746125E7
:1021E30010F582E43402F583E0FD7C001249367D6C
:1021F300FF12499DE51075F003A42421F582E43410
:1022030002F583E02FF0900301E0FFE51075F00382
:10221300A42422F582E43402F583E0FDC3EF9DFF9D
:10222300E49400FE74612510F582E43402F583E042
:10223300FD7C001249367DFF12499DE51075F003C0
:10224300A42422F582E43402F583E02FF090030204
:10225300E0022319900281E0FAA3E0FBF5828A836E
:1022630075F003E510124C20743093FFE51075F000
:1022730003A42421F582E43402F583E0FDC3EF9D3A
:10228300FFE49400FE74612510F582E43402F583C3
:10229300E0FD7C001249367DFF12499DE51075F083
:1022A30003A42421F582E43402F583E02FF08B822A
:1022B3008A8375F003E510124C20743193FFE51007
:1022C30075F003A42422F582E43402F583E0FDC310
:1022D300EF9DFFE49400FE74612510F582E434025F
:1022E300F583E0FD7C001249367DFF12499DE51020
:1022F30075F003A42422F582E43402F583E02FF081
:10230300900281E0FEA3E0F5828E8375F003E51071
:10231300124C20743293FFE51075F003A42423F5C7
:1023230082E43402F583E0FDC3EF9DFFE49400FEF5
:1023330074612510F582E43402F583E0FD7C00121C
:1023430049367DFF12499DE51075F003A42423F55A
:1023530082E43402F583E02FF00510E510C39410F6
:1023630050030219EC9002F8E0700A90021AE0544C
:102373000F64016037900281E0FEA3E0F5828E8353
:1023830074F593700374F49360289001F8E0FCA350
:10239300E0FDA3E0FEA3E0FF900214E0F8A3E0F960
:1023A300A3E0FAA3E0FBC3124BAC700690021A74CD
:1023B30002F090021DE0FB9002F9E0FAD39B406724
:1023C300900281E0FEA3E0F5828E8374FE93FF7496
:1023D3001F9FF513E49400F512D3E513940AE51255
:1023E300648094804015AE12AF137C007D0A1249BD
:1023F30036EF24A6F513EE34FFF512EBFFEAC39F85
:10240300FFE49400FED3EF9513E5126480F8EE64C5
:102413008098400990021DE02513F080509002F946
:10242300E090021DF0804690021DE0FF9002F9E06B
:10243300FEC39F5038EEFDC3EF9DFFE49400FE9072
:102443000281E0FCA3E0F5828C8374FF932401FDF9
:10245300E433FC12499D8E128F13E5134512700568
:10246300F51275130190021DE0C39513F09001114D
:10247300E0FEA3E024FEF582EE3401F583E493FF4E
:10248300705EF510E51075F003A42421F582E434A1
:1024930002F583E0FEE51075F003A4242BF8EEF6B5
:1024A300E51075F003A42422F582E43402F583E0F9
:1024B300FEE51075F003A4242AF8EEF6E51075F096
:1024C30003A42423F582E43402F583E0FEE51075CA
:1024D300F003A4242CF8EEF60510E510B410A522A1
:1024E300EF6403706AF510E51090857F9375F00330
:1024F300A42421F582E43402F583E0FFE51075F0AE
:1025030003A4242BF8EFF6E51090857F9375F00371
:10251300A42422F582E43402F583E0FFE51075F08C
:1025230003A4242AF8EFF6E51090857F9375F00352
:10253300A42423F582E43402F583E0FFE51075F06B
:1025430003A4242CF8EFF60510E510B4109922909B
:102553000111E0FEA3E024FEF582EE3401F583E4ED
:1025630093FF64027075F510C37410951075F00332
:10257300A42421F582E43402F583E0FEE51075F02E
:1025830003A4242BF8EEF6E510FDC374109DFDE4BF
:102593009400FC90022275F003ED124C20EC75F0D0
:1025A30003A42583F583E0FEE51075F003A4242A34
:1025B300F8EEF690022375F003ED124C20EC75F063
:1025C30003A42583F583E0FEE51075F003A4242C12
:1025D300F8EEF60510E510B4108E22EF6401706971
:1025E300F510E51090856F9375F003A42421F5820F
:1025F300E43402F583E0FFE51075F003A4242BF81F
:10260300EFF6E51090856F9375F003A42422F5820D
:10261300E43402F583E0FFE51075F003A4242AF8FF
:10262300EFF6E51090856F9375F003A42423F582EC
:10263300E43402F583E0FFE51075F003A4242CF8DD
:10264300EFF60510E510B4109922E49002E4F0A32C
:10265300F0A3F0A3F0900322F090033DF090033B2E
:10266300F090033AF0900312F0C874C0C8CC74021F
:10267300CCCD7401CD7B017A037925FE7F151248F9
:10268300AF7E007F157D007B017A037925124C59BB
:10269300900314E09002B7F07E007F047D007B017D
:1026A3007A037914124C599003197410F07E007F49
:1026B300047DFF7B017A03791B124C59900321E0BF
:1026C3009002BBF0E4900321F090033FE0540190AB
:1026D30002B2F0E4900340F090033FF0900000E07A
:1026E300C43354E02411F582E43400F583E0FEA3FF
:1026F300E04E70037FFF229002AFE0604824D1F5E3
:1027030082E43401F583E060229002AFE0243FF5D8
:1027130082E43401F583E070129002D6E054036042
:1027230003E014F09002D6E04404F09002D5E07F79
:102733000070027F019002D5EFF0700302339B1209
:1027430041D202339BE49002E7F09002E7E0FFC33B
:102753009410400302280974402FF582E43401F5F4
:1027630083E07003022800900000E0C43354E024A7
:1027730011F582E43400F583C083C0829002E7E060
:10278300D082D08375F002124C20E0FCA3E0F582E6
:102793008C83740193FEB4010E9002BEE0FDEF6DD5
:1027A30060059002E48053EEB402119002BEE0FF94
:1027B3009002E7E06F60059002E5803E900000E044
:1027C300C43354E02411F582E43400F583C083C09C
:1027D300829002E7E0FFD082D08375F002124C2092
:1027E300E0FCA3E0F5828C83740193B4070F90029D
:1027F300BEE0FEEF6E60069002E6E004F09002E7B2
:10280300E004F002274DE49002E7F09002E7E0FFD6
:10281300C394104003022F789002BEE0FEEF6E7067
:10282300569002E7E02440F582E43401F583E0604A
:1028330003022F6F74D22FF582E43401F583E06035
:1028430003022F6F9002B3E004F0E0D3940A500325
:10285300022F6FE4F09002E7E02403FF9002B9E057
:10286300FD12703C9002B6E0FF7D021273A6900247
:10287300BE74FFF0022F6F9002E7E0FF2440F58261
:10288300E43401F583E07003022DA2900000E0C45C
:102893003354E02411F582E43400F58375F002EF3C
:1028A300124C20E0FEA3E0FFF5828E83740193B403
:1028B300010612702B022F6F900000E0C43354E026
:1028C3002411F582E43400F583C083C0829002E7CB
:1028D300E0D082D08375F002124C20E0FEA3E0FF2B
:1028E300F5828E837401936402704012702B9003FF
:1028F30025E0FF900000E0C43354E02411F582E4A6
:102903003400F583C083C0829002E7E0D082D08395
:1029130075F002124C20E0FCA3E0F5828C83740373
:1029230093FEEF4E900325F0022F6F900000E0C45A
:102933003354E02411F582E43400F583C083C0826C
:102943009002E7E0FFD082D08375F002124C20E0C2
:10295300FCA3E0FDF5828C837401936403705590AE
:1029630002E4E06003022F6FA3E06003022F6FA372
:10297300E06003022F6F74D22FF582E43401F583F4
:10298300E06003022F6F9002E7E0049002AFF0EDE6
:102993002403FEE43C9002B4F0A3CEF0E49002AD35
:1029A300F0A3F09002D67402F09002D514F0124115
:1029B300D2022F6F900000E0C43354E02411F5825B
:1029C300E43400F583C083C0829002E7E0D082D074
:1029D3008375F002124C20E0FEA3E0F5828E83742F
:1029E3000193FF64046008EF64056003022B7F908A
:1029F30002E7E0FF24D2F582E43401F583E0700DB1
:102A030074012FF582E43400F5837402F090000022
:102A1300E0C43354E02411F582E43400F583C08329
:102A2300C0829002E7E0D082D08375F002124C207E
:102A3300E0FEA3E02402FFE43E8F82F583E493FEED
:102A4300740193FFE4FCFDFB7A80F9F8124A6BEC06
:102A5300C0E0EDC0E0EEC0E0EFC0E0900111E0FEA9
:102A6300A3E024FAF582EE3401F583E493FE7401C6
:102A730093FFCBEFCBCAEECAE4F9F8D0E0FFD0E086
:102A8300FED0E0FDD0E0FC127ABB9002E8EEF0A3AA
:102A9300EFF0900000E0C43354E02411F582E434F5
:102AA30000F583C083C0829002E7E0D082D08375B3
:102AB300F002124C20E0FEA3E02404FFE43E8F82E8
:102AC300F583E493FE740193FFE4FCFDFB7A80F944
:102AD300F8124A6BECC0E0EDC0E0EEC0E0EFC0E0FE
:102AE300900111E0FEA3E024FCF582EE3401F583AE
:102AF300E493FE740193FFCBEFCBCAEECAE4F9F87B
:102B0300D0E0FFD0E0FED0E0FDD0E0FC127ABB9035
:102B130002EAEEF0A3EFF09002E8E0FCA3E0FDCFC1
:102B2300EDCF90031BF0ECA3F09002EAE0FCA3E0EE
:102B3300FDCFEDCF90031DF0ECA3F0900000E0C4B7
:102B43003354E02411F582E43400F583C083C0825A
:102B53009002E7E0FFD082D08375F002124C20E0B0
:102B6300FCA3E0F5828C83740193B40507900319E9
:102B7300E04401F090031AEFF0022F6F900000E0A1
:102B8300C43354E02411F582E43400F583C083C0D8
:102B9300829002E7E0FFD082D08375F002124C20CE
:102BA300E0FCA3E0F5828C83740193640660030266
:102BB3002C8974039320E703022F6F9002BEE0F485
:102BC3006003022F6F74D22FF582E43401F583E0A2
:102BD3006003022F6F900000E0C43354E02411F52A
:102BE30082E43400F583C083C0829002E7E0D082A0
:102BF300D08375F002124C20E0FCA3E0FDF5828C3B
:102C0300837402939002B9F0900000E0FF049002F5
:102C1300B6F074132FF582E43401F583E09002ECEF
:102C2300F08D828C83740393FF7D011273A6900051
:102C330000E02413F582E43401F583E02404FF90DB
:102C430002ECE0FEC3EF9E5403FF70069002E7E040
:102C5300802DEFB4010A9002E7E090856F93801F07
:102C6300EFB4020B9002E7E0FFC374109F8010EFF4
:102C730064036003022F789002E7E090857F9390CE
:102C830002BEF0022F78900000E0C43354E0241118
:102C9300F582E43400F583C083C0829002E7E0FF4D
:102CA300D082D08375F002124C20E0FCA3E0FDF546
:102CB300828C83740193F96407703274D22FF58286
:102CC300E43401F583E06003022F6F8D828C8374FB
:102CD300039330E003022F6F9002E7E02401F582B3
:102CE300E43400F583E04402F0EF022E9BE964092B
:102CF3006003022F6F9002BCE0FF900000E0C4333A
:102D030054E02411F582E43400F583C083C082903B
:102D130002E7E0FED082D08375F002124C20E0FC83
:102D2300A3E0F5828C837402935403FDC8EDC87449
:102D330001088002C333D8FC4F9002BCF074D22E3A
:102D4300F582E43401F583E06003022F6F90000005
:102D5300E0C43354E02411F582E43400F583C083E6
:102D6300C0829002E7E0D082D08375F002124C203B
:102D7300E0FEA3E0F5828E83740293C4540F9002A5
:102D8300BDF09002BCE0FFED2404FEC8EEC8740160
:102D9300088002C333D8FC4F9002BCF0022F6F901F
:102DA30002E7E0FF24D2F582E43401F583E0FE700C
:102DB30003022F6F900000E0C43354E02411F58226
:102DC300E43400F58375F002EF124C20E0FCA3E03D
:102DD300F5828C83740193FFB40519EE7003022FFF
:102DE3006F9002E7E02401F582E43400F583740177
:102DF300F0022F6FEF64067043900000E0C4335479
:102E0300E02411F582E43400F583C083C08290028C
:102E1300E7E0D082D08375F002124C20E0FEA3E0FD
:102E2300F5828E83740393FF30E703022F6F9002C2
:102E3300BE74FFF0E4FD1273A6022F6F900000E052
:102E4300C43354E02411F582E43400F583C083C015
:102E5300829002E7E0FFD082D08375F002124C200B
:102E6300E0FCA3E0F5828C83740193FE6407704E4B
:102E730074039330E03474012FF582E43400F58356
:102E8300E0FF20E1259002E7E0FD2401F582E43430
:102E930000F583EF4402F0ED25E0241BF582E434D2
:102EA30001F583E4F0A3F0022F6F9002E7E0240121
:102EB300F582E43400F583E054FDF0022F6FEEB4A5
:102EC30008037F0122900000E0C43354E02411F58D
:102ED30082E43400F583C083C0829002E7E0D082AD
:102EE300D08375F002124C20E0FEA3E0F5828E83BE
:102EF300740193640970757402935403D39401406D
:102F0300399002BCE04480F0900000E0C43354E008
:102F13002411F582E43400F583C083C0829002E774
:102F2300E0D082D08375F002124C20E0FEA3E0F5DE
:102F3300828E837404939002B8F0900000E0C4334F
:102F430054E02411F582E43400F583C083C08290F9
:102F530002E7E0D082D08375F002124C20E0FEA39A
:102F6300E0F5828E837403939002BAF09002E7E057
:102F730004F002280EE49002E7F09002E7E0FFC3BA
:102F830094104003023196900000E0C43354E024CF
:102F930011F582E43400F58375F002EF124C20E062
:102FA300FEA3E0F5828E83740193FF64046008EF4F
:102FB3006405600302318D900000E0C43354E024C3
:102FC30011F582E43400F583C083C0829002E7E008
:102FD300D082D08375F002124C20E0FEA3E0F5828C
:102FE3008E83740393FF64016008EF64026003023D
:102FF300318D900000E0C43354E02411F582E434B1
:1030030000F583C083C0829002E7E0D082D083754D
:10301300F002124C20E0FEA3E02402FFE43E8F8284
:10302300F583E493FE740193FFE4FCFDFB7A80F9DE
:10303300F8124A6BECC0E0EDC0E0EEC0E0EFC0E098
:10304300900111E0FEA3E024FAF582EE3401F5834A
:10305300E493FE740193FFCBEFCBCAEECAE4F9F815
:10306300D0E0FFD0E0FED0E0FDD0E0FC127ABB90D0
:1030730002E8EEF0A3EFF0900000E0C43354E02444
:1030830011F582E43400F583C083C0829002E7E047
:10309300D082D08375F002124C20E0FEA3E024041A
:1030A300FFE43E8F82F583E493FE740193FFE4FC17
:1030B300FDFB7A80F9F8124A6BECC0E0EDC0E0EE5C
:1030C300C0E0EFC0E0900111E0FEA3E024FCF58234
:1030D300EE3401F583E493FE740193FFCBEFCBCA87
:1030E300EECAE4F9F8D0E0FFD0E0FED0E0FDD0E096
:1030F300FC127ABB9002EAEEF0A3EFF09002E8E054
:10310300FCA3E0FDCFEDCF90031BF0ECA3F0900206
:10311300EAE0FCA3E0FDCFEDCF90031DF0ECA3F0BC
:103123009002E7E0FF90031AF0900000E0C43354EC
:10313300E02411F582E43400F58375F002EF124CBC
:1031430020E0FEA3E0F5828E83740393640270246F
:103153000493900319B40506E04401F08004E0549D
:10316300FEF09002E7E02401F582E43400F5837475
:1031730003F0801FE4900319F09002E7E02401F5C7
:1031830082E43400F583E4F080099002E7E004F080
:10319300022F7DE49002EDF09002E7F09002E7E069
:1031A300FFC39410400302337F900000E0C4335404
:1031B300E02411F582E43400F58375F002EF124C3C
:1031C30020E0FEA3E0F5828E83740193640760031D
:1031D3000233769001F8E0FCA3E0FDA3E0FEA3E058
:1031E300FF900283E0F8A3E0F9A3E0FAA3E0FBD3A6
:1031F300124BAC40369002E7E0FF25E0241BF5823A
:10320300E43401F583E4F0A3F074012FF582E43490
:1032130000F583E054FBF09002E7E02401F582E43B
:103223003400F583E054FDF00233769002E7E0FFCB
:103233002401F582E43400F583E020E103023376D0
:10324300900000E0C43354E02411F582E43400F527
:103253008375F002EF124C20E0FEA3E0FF2404FD8F
:10326300E43E8D82F583E493FC7401934C70061263
:10327300702B02333F9002E7E0FF2401F582E43430
:1032830000F583E0FE30E21174012FF582E434008F
:10329300F583EE54FBF002333F9001F8A3A3E0FE65
:1032A300A3E0FF9002E7E025E0241BF582E434016C
:1032B300F583E0FCA3E0FDC3EF9DFFEE9CFE9000D1
:1032C30000E0C43354E02411F582E43400F583C0F4
:1032D30083C0829002E7E0D082D08375F002124C63
:1032E30020E0FCA3E0FD2404FBE43C8B82F583E4B3
:1032F30093FA740193D39FEA9E50419002E7E0FF53
:103303008D828C83740293FDEF2403FF12703C9033
:1033130001F8A3A3E0FEA3E0FF9002E7E0FD25E0B0
:10332300241BF582E43401F583EEF0A3EFF074017E
:103333002DF582E43400F583E04404F0900000E0CE
:10334300C43354E02411F582E43400F583C083C010
:10335300829002E7E0D082D08375F002124C20E025
:10336300FEA3E0F5828E8374039330E0069002EDB2
:10337300E004F09002E7E004F002319F9001F8E0EE
:10338300FCA3E0FDA3E0FEA3E0FF900283124BE366
:103393009002EDE09002B1F0126ACAE4FF120066F7
:1033A300E4FF124CF09002AFE070031269679002E1
:1033B300E77401F09002E7E0FF2424F582E434038C
:1033C300F583E0FE74BF2FF582E43402F583E06EEB
:1033D30060089003127401F0800A9002E7E004F0A1
:1033E300E0B416D09002B7E0FF900314E06F6002E0
:1033F300801D9002E77402F09002E7E0FFC394059A
:10340300501D74132FF582E43403F583E0600890B4
:10341300033A7401F080089002E7E004F080D99049
:1034230002E77403F09002E7E0FFC39407501E74B1
:10343300182FF582E43403F583E0F4600890033B2E
:103443007401F080089002E7E004F080D89002BB9A
:10345300E0FF900321E06F600690033D7401F0905C
:1034630002B2E0FF90033FE06F7004A3E0600690B8
:1034730003227401F09002BEE0F46023900312E093
:10348300701890033AE0701290033BE0700C9003C5
:103493003DE07006900322E06005E49002B9F090ED
:1034A30002B0E0B40115E4900322F090033DF090E4
:1034B300033BF090033AF0900312F07F0022C0E048
:1034C300C0F0C083C082C0D075D00820D9030241A8
:1034D30089E5D9543F7003024178147003023CE339
:1034E30014602E24E270030240EB147003023CD9F3
:1034F30024F17003023D56240E600302418575D505
:103503000063D440C20CE5D454FC4402F5D4024118
:103513008520DE0302418563D480AFDB9002DFE4C4
:10352300F0A3EFF09002DFA3E0F5D590031FE030A6
:10353300E75790057FE075F040A42400F974063541
:10354300F0FAC8E9C8CCEACCCD7401CD7B017A0589
:1035530079007E007F401248AF9005407452F0A37B
:103563007444F090057FE0FF04F0900542EFF09083
:10357300057EE0FFA3E0C39F5003023CD3E4F09039
:10358300031FE0547FF0023CD39005407452F09047
:103593000501E0900541F0900502E0900542F090AE
:1035A3000503E0900543F0900500E0B44410A3E068
:1035B300B44B0BA3E0B44206A3E06443601A900546
:1035C30000E064447052A3E0644C704CA3E0645484
:1035D3007046A3E064437040900504E0C394314017
:1035E30037E0D394385031900501E090057EB44B19
:1035F3000B7408F0900504E024D980097404F0905A
:103603000504E024ED90031FF090057FE4F09003A0
:103613001FE04480F0023CD3900500E06443702334
:10362300A3E0B44B1EA3E0B45919A3E0B45414901F
:103633000544E527F0900504E0F527900545E527C7
:103643000238F0900500E06443600302378BA3E087
:103653006452600302378BA3E0644B600302378B31
:10366300A3E0644D600302378B900153E0FFA3E0B6
:10367300900544CFF0A3EFF0900155E0FFA3E09055
:103683000546CFF0A3EFF0900164E02401FF900121
:1036930063E03400FE9001A8E0FCA3E0FDD39FECBF
:1036A3009E4008CEECCECFEDCF8000900160E024A9
:1036B300FFFD90015FE034FFFCC3EF9DEE9C5026BD
:1036C300900164E02401FF900163E03400FE900167
:1036D300A8E0FCA3E0FDD39FEC9E4008CEECCECF48
:1036E300EDCF8010800E900160E024FFFF90015F1A
:1036F300E034FFFE900153EEF0A3EFF0900166E09B
:103703002401FF900165E03400FE9001AAE0FCA3D0
:10371300E0FDD39FEC9E4008CEECCECFEDCF8000F2
:10372300900162E024FFFD900161E034FFFCC3EFF0
:103733009DEE9C5026900166E02401FF900165E018
:103743003400FE9001AAE0FCA3E0FDD39FEC9E4071
:1037530008CEECCECFEDCF8010800E900162E02436
:10376300FFFF900161E034FFFE900155EEF0A3EFFF
:10377300F0900153E0FDA3E0900548CDF0A3EDF0F8
:10378300A3EEF0A3EF0238F0900500E0644360037A
:103793000238AEA3E0645260030238AEA3E0644B88
:1037A30060030238AEA3E0645A60030238AE9001AE
:1037B30063E0FFA3E0900544CFF0A3EFF090015F37
:1037C300E0FFA3E0900546CFF0A3EFF0900165E0A2
:1037D300FFA3E0900548CFF0A3EFF0900161E0FF75
:1037E300A3E090054ACFF0A3EFF0900504E0FEA319
:1037F300E0FF900153E0FCA3E0FDC3EF9DEE9C408E
:10380300030238A3900506E0FEA3E09DEE9C50035F
:103813000238A3A3E0FEA3E0FF900155E0FCA3E080
:10382300FDEF9DEE9C507990050AE0FEA3E09DEE2E
:103833009C406D900504E0FFA3E0900163CFF0A3EB
:10384300EFF0900506E0FFA3E090015FCFF0A3EF58
:10385300F0900508E0FFA3E0900165CFF0A3EFF03F
:1038630090050AA3E0FF900161EEF0A3EFF0A3E05F
:10387300FDA3E090054CCDF0A3EDF090015FE0FDDA
:10388300A3E090054ECDF0A3EDF0900165E0FDA31C
:10389300E0900550CDF0A3EDF0A3EEF0A3EF804D43
:1038A30090054C74FFF0A3F0023CD3900500E06454
:1038B300437044A3E06445703EA3E064437038A3BF
:1038C300E064447032A20F33900544F0A210E43355
:1038D300A3F0900504E024FF920FA3E024FF9210CD
:1038E300A20FE433900546F0A210E433A3F0900353
:1038F3001F7432F0023CD3900500E0B44313A3E0FD
:10390300B4450EA3E0B44309A3E064467003023C4C
:10391300D3900500E064427028A3E0B44623A3E0FB
:10392300B4571EA3E0B45619C87444C8CC7405CC6C
:10393300CD7401CD7BFF7A00790E7E007F04023BBC
:103943007C900500E064426003023A9AA3E0645568
:103953006003023A9AA3E064496003023A9AA3E03F
:1039630064446003023A9A90057DF090057DE0FF80
:1039730025E02448F582E43403F583E0FE74442F04
:10398300F582E43405F583EEF090057DE02444F5FB
:1039930082E43405F583E0C39430402790057DE04D
:1039A3002444F582E43405F583E0D394395014902C
:1039B300057DE02444F582E43405F583E024D0F06A
:1039C300023A4790057DE02444F582E43405F5830B
:1039D300E0C39461402690057DE02444F582E434FD
:1039E30005F583E0D39466501390057DE02444F5F8
:1039F30082E43405F583E024A9F0804890057DE056
:103A03002444F582E43405F583E0C39441402690D1
:103A1300057DE02444F582E43405F583E0D3944640
:103A2300501390057DE02444F582E43405F583E0EA
:103A330024C9F0800F90057DE02444F582E4340529
:103A4300F583E4F090057DE004F0E0640C6003028C
:103A5300396E90057DE4F090057DE0FF25E0244478
:103A6300F582E43405F583E0C454F0FEEF25E02449
:103A730045F582E43405F583E04EFF90057DE024AF
:103A830044F582E43405F583EFF090057DE004F01E
:103A9300E0B406C3023CD3900500E0644260030235
:103AA3003B4FA3E064496003023B4FA3E0645060D3
:103AB30003023B4FA3E064546003023B4F9001A811
:103AC300E0FFA3E0900544CFF0A3EFF09001AAE05C
:103AD300FFA3E0900546CFF0A3EFF0A3124BEF0056
:103AE30000000090057DE4F0900548C083C082E0AB
:103AF300F8A3E0F9A3E0FAA3E0FBE8C0E0E9C0E043
:103B0300EAC0E0EBC0E090057DE0F92440F582E4F3
:103B13003401F583E0FFE4FCFDFEC8E9C8124BD095
:103B2300D0E0FBD0E0FAD0E0F9D0E0F8EB4FFFEAC9
:103B33004EFEE94DFDE84CFCD082D083124BE3905E
:103B4300057DE004F0E0B4139F023CD3900500E050
:103B53006442702BA3E0B44726A3E0B45021A3E052
:103B6300B44D1CC87444C8CC7405CCCD7401CD7B52
:103B7300FF7ADA79007E007F381248AF023CD39097
:103B83000500E06442701DA3E0B44418A3E0B44709
:103B930013A3E0B4430E7B017A0579447D38127C8C
:103BA30081023CD3900500E064427028A3E0645294
:103BB3007022A3E0B4531DA3E0B454187E007F3CED
:103BC3007D207B017A057944124C5990031F74645C
:103BD300F0023CD3900500E064427028A3E0644205
:103BE3007022A3E0B44F1DA3E0B454187E007F3CC1
:103BF3007D207B017A057944124C5990031F74652B
:103C0300F0023CD3900500E064427051A3E06443AA
:103C1300704BA3E064537045A3E06443703FFE7FA1
:103C23003C7D207B017A057944124C59900000E0D9
:103C33002431900544F0900504E0C394314019E029
:103C4300D394385013E0900545F024CF900600F04C
:103C530090031F7466F08078900545805C900500A2
:103C6300E0B44217A3E0B44212A3E0B4550DA3E0BD
:103C7300B45A0890031F7467F08055900500E06400
:103C830042703BA3E064427035A3E06454702FA3F9
:103C9300E064567029A3E0D39430501AA3E0601671
:103CA300940A5012900504E090020FF0900505E08D
:103CB300900167F0801A90020F74FFF08012900554
:103CC300407452F0A37449F0A3744EF0A37456F0F9
:103CD30053D4FC02418575D30063D240C20B806884
:103CE300AFDB9002DFE4F0A3EFF09002DFE0FEA38E
:103CF300E0FF4E6053D3EF9402EE9400504A9002DB
:103D0300DFA3E0247FF58274053EF583E0FF7E00A8
:103D13009002DFEEF0A3EFF07F0020E0027F01EFDF
:103D230024FFB3920A9002DFE0FEA3E0FF7D0020B0
:103D3300E1027D01ED24FFB3920DEF7F0020E2024B
:103D43007F01EF24FFB39209E5D254FC4402F5D27C
:103D530002418575DCC0AFDB9002DFE4F0A3EFF036
:103D63009002DFE07004A3E0640860030240C090A7
:103D730004C7E0FE9004C6E07C002400FFEC3E9004
:103D83000343F0A3EFF09002DFE4F0A3F09002DE30
:103D9300F09004C1E0900345F09004C0E0546060EB
:103DA3001A900345E01424FD40030240C624FB247B
:103DB300FD40030240C680000240C0900345E0B4CA
:103DC3000B0040030240BE903DD1F8282873024007
:103DD30093023FC20240BE0240120240BE023F7F36
:103DE300023DF20240BE023F8B023FB00240C6904A
:103DF30004C3E024FE602B14604224E17003023EFE
:103E0300B824216003023EF890036274FFF0A374A8
:103E130083F0A3748AF09002DFE4F0A37412F0023B
:103E23003EFE90036274FFF0A37485F0A37419F04F
:103E33009002DFE4F0A37449F0023EFE9004C2E076
:103E430014602714603D14605324036003023EF89A
:103E530090036274FFF0A37483F0A3749CF0900248
:103E6300DFE4F0A37404F0023EFE90036274FFF0FB
:103E7300A37483F0A374B6F09002DFE4F0A3742478
:103E8300F0807890036274FFF0A37483F0A374A0AE
:103E9300F09002DFE4F0A37416F0805F9003627485
:103EA30001F0A37403F0A37446F09002DFE4F0A3DF
:103EB300741AF080469004C4E0FF701A9003627491
:103EC300FFF0A37483F0A374DAF09002DF7401F0BF
:103ED300A3741DF08025EFB4011990036274FFF001
:103EE300A37484F0A374F7F09002DFE4F0A37422C8
:103EF300F0800880009002DE74FFF09002DFE0FEA5
:103F0300A3E0FFD3900344E09F900343E09E40056A
:103F1300EEF0A3EFF0900343E0FEA3E0FFC3944071
:103F2300EE9400400C7C007D40CEECCECFEDCF80F4
:103F3300009002DFEEF0A3EFF09002DFE0FEA3E0DB
:103F4300FFC874C0C8CC7404CCCD7401CD90036297
:103F5300E0FBA3E0FAA3E0F91248AF9002DFE0FE32
:103F6300A3E0FFC3900344E09FF0900343E09EF07F
:103F7300900363EE8FF01249D30240C69004C2E06F
:103F8300FF900343E40240B8900342E09004C0F082
:103F9300C3900344E09401900343E0940050030270
:103FA30040C69002DFE4F0A304F00240C69004C2CE
:103FB300E0900342F070030240C6D20E0240C69066
:103FC30004C0E0541FFF640270359004C4E0146021
:103FD3001E1460202481600D14701EE5D454BC446B
:103FE30002F5D4801AE5D254BC4402F5D2801053B2
:103FF300D273800B53D47380069002DE74FFF0EF0C
:10400300700A900341E054FEF00240C60240C090A3
:1040130004C0E0541FFD70269004C3E0FE9004C268
:10402300E0FBEB64014E70149085209330E50A9019
:104033000341E04401F00240C60240C0807FED64CA
:1040430002704B9004C3E0FE9004C2E0FDED4E709D
:104053003B9004C5E0FE9004C4E0FDEDFFEE702A42
:10406300EF24FE60112481601714701EE5D454BF41
:104073004403F5D4804DE5D4547F440CF5D48043F8
:10408300E5D254BF4403F5D280398031802F802D8F
:104093009004C1E4F09004C0F0900343E0FEA3E079
:1040A300FFC39402EE94009002DF4008E4F0A3748F
:1040B30002F0800FEEF0A3EFF0800880009002DEA4
:1040C30074FFF09002DEE0B4FF0675DCCF02418599
:1040D3009002DFE0FEA3E0FF4E60048FDD800375F6
:1040E300DD0075DCC0024185900345E024FB606E72
:1040F30014707A900343E0FEA3E0FFC39440EE9470
:1041030000400C7C007D40CEECCECFEDCF80009004
:1041130002DFEEF0A3EFF09002DFE0FEA3E0FFC8C2
:1041230074C0C8CC7404CCCD7401CD900362E0FBA1
:10413300A3E0FAA3E0F91248AF9002DFE0FEA3E0A8
:10414300FFC3900344E09FF0900343E09EF090038D
:1041530063EE8FF01249D38FDD63DC40802490033C
:1041630043A3E0FFE5E354804FF5E3800375DD00EF
:1041730075DC02800DAFDB9002DFE4F0A3EFF063A8
:10418300DC80C2D9803E30D81F75DC0275D202753F
:10419300D40275E300C2DAC2D9C20EC20BC20C90BC
:1041A3000341E4F0C2D8801C30DA16C2DAE5DA90B3
:1041B300034130E206E04402F08009E054FDF08060
:1041C3000375D8FFD0D0D082D083D0F0D0E0329026
:1041D30002EE7403F09001F8E0FCA3E0FDA3E0FE1F
:1041E300A3E0FF90028BE0F8A3E0F9A3E0FAA3E0D9
:1041F300FBD3124BAC400A900287124BEF00000036
:10420300009001F8E0FCA3E0FDA3E0FEA3E0FF9033
:10421300028B124BE39001F8E0FCA3E0FDA3E0FE68
:10422300A3E0FF900287E0F8A3E0F9A3E0FAA3E09C
:10423300FBD3124BAC400C9002B07401F0E490023B
:10424300D5F022E49002B0F09002F3F0A3F09002D4
:10425300AFE0FF603B900000E075F020A4240FF571
:1042630082E5F03400F58375F002EF124C20E0FE96
:10427300A3E0FFF5828E83740293FD7C00EF240399
:10428300FFE43EFEEF2DFFEC3E9002F3F0A3EFF0D0
:104293009002EEE0C3941640030247DE9002F3E07F
:1042A300FEA3E0FF9002B4E0FCA3E0FDC39FEC9EFD
:1042B3004004E40246958D828C83E493FFB4EA3193
:1042C300ED2401FBE43C8B82F583E493FE540190DF
:1042D30002D5F0EE30E1099002B5E02402024480F9
:1042E3009002B5E004F070069002B4E004F00247D7
:1042F300CDEF64EB600302441DED2401FFE43C8F2A
:1043030082F583E493FBB4021EED2404FEE43C90A7
:10431300028FF0A3CEF09002B5E02404F09002B433
:10432300E03400F00247CD9002AEE004F070069056
:1043330002ADE004F0ED2402FFE43C8F82F583E458
:1043430093FEED2403FDE43C8D82F583E493FDEDC0
:10435300FF9002EFEEF0A3EFF0EB600B9002D6E0DC
:1043630030E204540360339002B4E0FEA3E024017E
:10437300FFE43E8F82F583E49370079002D6E0203A
:10438300E2189002EFE0FEA3E0FF4E60149002AD4E
:10439300E0FCA3E0C39FEC9E40079002D6E044807C
:1043A300F09002D6E0FF30E7279002B5E02403F057
:1043B3009002B4E03400F0EF547B9002D6F0E49026
:1043C30002ADF0A3F074FF90028FF0A3F00247CD8B
:1043D30090028FE0FEA3E0FFF47002EEF46006901B
:1043E30002B4EE8030900000E075F020A4240FF5B5
:1043F30082E5F03400F583C083C0829002AFE0D041
:1044030082D08375F002124C20E0FEA3E02403FF68
:10441300E43E9002B4F0A3EFF0229002B4E0FEA3D6
:10442300E0F5828E83E49364FE705B9002B4E0FC5B
:10443300A3E0FD2401FFE43C8F82F583E493FEEDCA
:104443002402FDE43C8D82F583E493FDEDFF9002AD
:10445300F6EEF0A3EFF0E4FCFD9001F8E0F8A3E042
:10446300F9A3E0FAA3E02FFFEA3EFEED39FDEC38B5
:10447300FC900287124BE39002B5E02403F0900214
:10448300B4E03400F0229002B4E0FEA3E0F5828EA3
:1044930083E493FC64FD70619002EEE0FFD3940328
:1044A30040030247DE900314E060030247DE9002FC
:1044B300B475F0011249D385F082F583E493FD12BC
:1044C300703C9002B4E475F0011249D385F082F593
:1044D30083E493900325F09002F3E0FEA3E0FF90C2
:1044E30002B4E475F0011249D3FAEF65F07002EEFD
:1044F3006A60030247DE024695EC64EC60149002A6
:10450300B4E0FEA3E0F5828E83E49364ED600302DE
:10451300469A9002EEE0D3940340030247DE9003F1
:1045230014E060030247DE9002B4E0FCA3E0FD2444
:1045330001FFE43C8F82F583E493FEED2402FDE466
:104543003C8D82F583E493FDEDFF9002EFEEF0FCEA
:10455300A3EFF0CCCCCDCD9002B4E0FAA3E0FB24E2
:1045630003FFE43A8F82F583E493FEEB2404FBE438
:104573003A8B82F583E493FBEBFF9002F1EEF0A319
:10458300EFF0CFEDCFCEECCEE4FCFDFB7A80F9F873
:10459300124A6BECC0E0EDC0E0EEC0E0EFC0E0908B
:1045A3000111E0FEA3E024FAF582EE3401F583E481
:1045B30093FE740193FFCBEFCBCAEECAE4F9F8D0B4
:1045C300E0FFD0E0FED0E0FDD0E0FC127ABB900229
:1045D300EFEEF0A3EFF0A3E0FEA3E0FFE4FCFDFBAE
:1045E3007A80F9F8124A6BECC0E0EDC0E0EEC0E06F
:1045F300EFC0E0900111E0FEA3E024FCF582EE346D
:1046030001F583E493FE740193FFCBEFCBCAEECAAB
:10461300E4F9F8D0E0FFD0E0FED0E0FDD0E0FC12FA
:104623007ABB9002F1EEF0A3EFF09002EFE0FCA36F
:10463300E0FDCFEDCF90031BF0ECA3F09002F1E08F
:10464300FCA3E0FDCFEDCF90031DF0ECA3F09002AF
:10465300B4E0FEA3E0F5828E83E493B4ED07900308
:1046630019E04401F09002B5E02404F09002B4E0B4
:104673003400F09002F3E0FEA3E0FF9002B4E4758F
:10468300F0011249D3FCEF65F07002EE6C60030297
:1046930047DE9002AFF0229002B4E0FEA3E0F58281
:1046A3008E83E49364FA600302474C9002F574032B
:1046B300F0F09002EEE0FC9002F5E0FFC39C502A7C
:1046C3009002B4E0FAA3E0F5828A83E493FE7424B3
:1046D3002FF582E43403F583E06E70069002F5F063
:1046E30080089002F5E004F080C89002F5E07003C2
:1046F3000247DE900314E060030247DE900325E0E7
:1047030060199002EEE0FF04F09002B4E475F0014A
:104713001249D385F082F5830247C7EC6403600333
:104723000247DE9002EEE0FF04F09002B4E475F07D
:10473300011249D385F082F583E493FD12703C9016
:104743000325E04402F00247CD9002F57403F0F034
:104753009002EEE0FC9002F5E0FFC39C502A900229
:10476300B4E0FAA3E0F5828A83E493FE74242FF580
:1047730082E43403F583E06E70069002F5F080085E
:104783009002F5E004F080C89002F5E0604D9003DC
:1047930014E07047900325E070149002EEE0FF04EC
:1047A300F09002B4E0FAA3E0F5828A838016ECB4B9
:1047B30003299002EEE0FF04F09002B4E0FCA3E0D2
:1047C300F5828C83E493FD12703C9002B5E004F013
:1047D30070069002B4E004F002429322E709F6085F
:1047E300DFFA8046E709F208DFFA803E88828C838D
:1047F300E709F0A3DFFA8032E309F608DFFA8078ED
:10480300E309F208DFFA807088828C83E309F0A35E
:10481300DFFA806489828A83E0A3F608DFFA80588E
:1048230089828A83E0A3F208DFFA804C80D280FA7F
:1048330080C680D4806980F28033801080A680EAAD
:10484300809A80A880DA80E280CA803389828A8352
:10485300ECFAE493A3C8C582C8CCC583CCF0A3C843
:10486300C582C8CCC583CCDFE9DEE7800D89828AA7
:1048730083E493A3F608DFF9ECFAA9F0EDFB2289B0
:10488300828A83ECFAE0A3C8C582C8CCC583CCF086
:10489300A3C8C582C8CCC583CCDFEADEE880DB8948
:1048A300828A83E493A3F208DFF980CC88F0EF6077
:1048B300010E4E60C388F0ED2402B4040050B9F534
:1048C30082EB2402B4040050AF2323458223904893
:1048D3002F73BB010CE58229F582E5833AF583E06A
:1048E300225006E92582F8E622BBFE06E92582F876
:1048F300E222E58229F582E5833AF583E49322BB3C
:10490300010689828A83F0225002F722BBFE01F35B
:1049130022F8BB010DE58229F582E5833AF583E8A8
:10492300F0225006E92582C8F622BBFE05E925825E
:10493300C8F222EF8DF0A4A8F0CF8CF0A428CE8D7E
:10494300F0A42EFE22BC000BBE0029EF8DF084FFE5
:10495300ADF022E4CCF875F008EF2FFFEE33FEEC58
:1049630033FCEE9DEC984005FCEE9DFE0FD5F0E97F
:10497300E4CEFD22EDF8F5F0EE8420D21CFEADF07E
:1049830075F008EF2FFFED33FD4007985006D5F083
:10499300F222C398FD0FD5F0EA22C2D5EC30E70925
:1049A300B2D5E4C39DFDE49CFCEE30E715B2D5E43B
:1049B300C39FFFE49EFE124948C3E49DFDE49CFCB3
:1049C300800312494830D507C3E49FFFE49EFE22CB
:1049D300C5F0F8A3E028F0C5F0F8E582158270026F
:1049E3001583E038F022BB010A89828A83E0F5F05F
:1049F300A3E022500687F009E71922BBFE07E3F57F
:104A0300F009E3192289828A83E493F5F074019310
:104A130022BB010789828A830249D3500B09C5F05F
:104A230027F7C5F01937F722BBFE0D09F8E325F088
:104A3300F3C5F019E338F322F889828A837401936A
:104A430025F0C5F0F8E4933822BB010A89828A83F2
:104A5300F0E5F0A3F0225006F709A7F01922BBFEF8
:104A630006F3E5F009F31922E88FF0A4CC8BF0A448
:104A73002CFCE98EF0A42CFC8AF0EDA42CFCEA8E2D
:104A8300F0A4CDA8F08BF0A42DCC3825F0FDE98F50
:104A9300F0A42CCD35F0FCEB8EF0A4FEA9F0EB8F47
:104AA300F0A4CFC5F02ECD39FEE43CFCEAA42DCE14
:104AB30035F0FDE43CFC2275F008758200EF2FFF12
:104AC300EE33FECD33CDCC33CCC58233C5829BEDE3
:104AD3009AEC99E58298400CF582EE9BFEED9AFDE7
:104AE300EC99FC0FD5F0D6E4CEFBE4CDFAE4CCF997
:104AF300A88222B800C1B90059BA002DEC8BF0840A
:104B0300CFCECDFCE5F0CBF97818EF2FFFEE33FED7
:104B1300ED33FDEC33FCEB33FB10D703994004EB8F
:104B230099FB0FD8E5E4F9FA227818EF2FFFEE335B
:104B3300FEED33FDEC33FCC933C910D7059BE99A6D
:104B43004007EC9BFCE99AF90FD8E0E4C9FAE4CCFE
:104B5300FB2275F010EF2FFFEE33FEED33FDCC3368
:104B6300CCC833C810D7079BEC9AE899400AED9B51
:104B7300FDEC9AFCE899F80FD5F0DAE4CDFBE4CC30
:104B8300FAE4C8F922C3E49FFFE49EFEE49DFDE43A
:104B93009CFC22EB9FF5F0EA9E42F0E99D42F0EC8B
:104BA3006480C864809845F022EB9FF5F0EA9E424A
:104BB300F0E99D42F0E89C45F022E8600FECC31356
:104BC300FCED13FDEE13FEEF13FFD8F122E8600FA7
:104BD300EFC333FFEE33FEED33FDEC33FCD8F122AC
:104BE300ECF0A3EDF0A3EEF0A3EFF022A88285830F
:104BF300F0D083D082124C06124C06124C06124C93
:104C030006E473E493A3C583C5F0C583C8C582C80E
:104C1300F0A3C583C5F0C583C8C582C822A4258275
:104C2300F582E5F03583F58322EC8EF0A4CCC5F054
:104C3300CCCDF8EFA4CEC5F02DFDE43CFCE8A42ECA
:104C4300C8C5F03DFDE43CFCEFA4FFE5F028FEE41D
:104C53003DFDE43CFC22EF4E6012EF60010EEDBB24
:104C6300010B89828A83F0A3DFFCDEFA2289F050EC
:104C730007F709DFFCA9F022BBFEFCF309DFFCA95F
:104C8300F022BB010689828A83E0225002E722BB1D
:104C9300FE02E32289828A83E49322E0FCA3E0FDFF
:104CA300A3E0FEA3E0FF22F8E0FBA3A3E0F925F0D5
:104CB300F0E582158270021583E0FA38F022EBF0FA
:104CC300A3EAF0A3E9F022D083D082F8E493701230
:104CD300740193700DA3A393F8740193F5828883F1
:104CE300E4737402936860EFA3A3A380DFE49002EC
:104CF300F8F0A3F0A3F0EF6024E490029FF0900299
:104D03009DF090029BF09002A0F090029EF0900222
:104D13009CF09002A1F0A3F09002FAF02290029B83
:104D2300E0FF900111E0FCA3E0FD24E1F582EC3407
:104D330001F583E49325E014851AF0A4FEC3EF9EE6
:104D430090029BF0E4F51AA3E0FFED24E9F582EC71
:104D53003401F583E49325E014851BF0A4FEC3EF2F
:104D63009E90029CF0E4F51B9002FBF09002FBE0A6
:104D7300FF249DF582E43402F583E0FE749B2FF556
:104D830082E43402F583E0FFD3EE6480F8EF6480BD
:104D93009840089002FA7401F08018C3EE6480F81A
:104DA300EF64809850089002FA7402F08005E49052
:104DB30002FAF0900111E0FEA3E0F5828E83C08336
:104DC300C0829002FBE0FFD082D08375F008124CC2
:104DD30020E58224E0F582E5833401F583E49354EE
:104DE3000F24FE7003024ECA0460030251BA9002FC
:104DF300FAE0FE70030251D6749F2FF582E4340269
:104E0300F583E060299002FBE0FF249FF582E43400
:104E130002F583E4F0749D2FF582E43402F583E018
:104E2300FFEE25E024FDFEC3EF9EF00251D6900273
:104E3300FAE0FF900111E0FCA3E0F5828C83C083CC
:104E4300C0829002FBE0D082D08375F008124C2020
:104E5300E58224E2F582E5833401F583E5822FF5CB
:104E630082E43583F583E493FD60057FFF12703C94
:104E7300900325E0FF9002FAE0FE900111E0FCA30D
:104E8300E0F5828C83C083C0829002FBE0FDD08278
:104E9300D08375F008124C20E58224E5F582E58382
:104EA3003401F583E5822EF582E43583F583E493BB
:104EB300FEEF4E900325F0749F2DF582E43402F546
:104EC300837401F00251D69002FAE070030251D6C6
:104ED300A3E0FD249FF582E43402F583E06027908C
:104EE300033FE0FC9002A1E0FAA3E0FB25E0FFEC26
:104EF3004F90033FF07807CEEACEEBCEA2E713CE76
:104F030013D8F8025172900111E0FEA3E0F5828EEE
:104F13008375F008ED124C20E58224E3F582E583E6
:104F23003401F583E493FFC3941E5003025006EF4C
:104F3300D394274003025006900111A3E0F5828E1B
:104F430083C083C0829002FBE0D082D08375F008D7
:104F5300124C20E58224E4F582E5833401F583E4F1
:104F630093FFC3941E5003025006EFD394274003CC
:104F7300025006900111A3E0F5828E83C083C082A4
:104F83009002FBE0D082D08375F008124C20E582BA
:104F930024E3F582E5833401F583E49324E3FFE41A
:104FA30034FFFE7C007D0A124948CFEDCFEF75F048
:104FB3000AA4FBAAF0900111E0FEA3E0F5828E8320
:104FC300C083C0829002FBE0D082D08375F00812C8
:104FD3004C20E58224E4F582E5833401F583E493F0
:104FE30024E3FFE434FFFE7C007D0A12499DEB2D90
:104FF300FFEA3CFEEF2401FFE43E9002A1F0A3EFA1
:10500300F080099002A1E4F0A3740AF09002A1E0F9
:10501300FAA3E0FB9002FAE075F002A424FDFFE599
:10502300F034FFFE7C007D0A124936CDEBCDCCEA8D
:10503300CC1249369002A1EEF0A3EFF0900111E0FB
:10504300FEA3E0F5828E83C083C0829002FBE0FF63
:10505300D082D08375F008124C20E58224E6F582D5
:10506300E5833401F583E493FEB4010F749F2FF5B8
:1050730082E43402F5837401F08078EEB402129076
:1050830002FBE0249FF582E43402F5837403F0808D
:1050930062900111E0FEA3E0F5828E83C083C0829B
:1050A3009002FBE0FFD082D08375F008124C20E51C
:1050B3008224E6F582E5833401F583E493FEB404A8
:1050C3000F749F2FF582E43402F5837404F0802378
:1050D300EE9002FBB4080FE0249FF582E43402F55E
:1050E300837405F0800DE0249FF582E43402F58398
:1050F3007402F09002FBE0249FF582E43402F5830E
:10510300E0FD7C009002A1E0FEA3E0FF12499DCAEE
:10511300ECCACBEDCB9002FBE0249FF582E4340292
:10512300F583E0FD7C009002A1E0FEA3E0FF1249BD
:105133009DCCEECCCDEFCDED2BFEEC3A9002F8F00A
:10514300A3CEF09002A1ECF0A3EDF090033FE0FDBD
:105153009002F8E0FAA3E0FB25E0FFED4F90033F58
:10516300F07807CEEACEEBCEA2E713CE13D8F890B1
:105173000340F09002FBE0FF249FF582E43402F544
:1051830083E014F0749F2FF582E43402F583E0701A
:10519300429002FBE0249DF582E43402F583C08350
:1051A300C082E0FF9002FAE025E024FDFEC3EF9EFB
:1051B300D082D083F0801C9002FBE0FF249BF58219
:1051C300E43402F583E0FE749D2FF582E43402F5A6
:1051D30083EEF09002FBE004F0E0C394025003027C
:1051E3004D6F22E51024E7F582E43402F583E005F0
:1051F30010229002E43007039002E7E475F00112F5
:105203004CAA024C852000E97F2ED2008018EF546F
:105213000F2490D43440D4FF30040BEF24BFB41ACE
:105223000050032461FFE511600215110514E51414
:105233007002051330070E9002E4E475F001124C7E
:10524300AAEF024902027D027403D2078003E4C27B
:1052530007F5109002E4124CC1E4F511F513F514AF
:10526300E51160077F2012522980F57512FFC201F4
:10527300C200C202C203C205C206C2081251F5FF30
:10528300700D3007057F0012523AAF14AE1322B4EB
:10529300255FC2D5C2041251F5FF24D0B40A0050D1
:1052A3001A75F00A781130D50508B6FF0106C6A4B1
:1052B30026F620D5047002D20380D924CFB41A0075
:1052C300EF5004C2E5D20402543BD20180C6D2009F
:1052D30080C0D20280BCD2D580BAD20580B47F20F0
:1052E3001252292002077401B5110040F11251E650
:1052F300FF125229025263D208D20680951251E658
:10530300FB1251E6FA1251E6F94A4B7006790C7A10
:10531300557BFF20022EE511602A7E008E82758365
:10532300001248D560060EEE651270F0C2D5EBC0D0
:10533300E0EAC0E0E9C0E0EE125482D0E0F9D0E048
:10534300FAD0E0FB124C85FF60AAEBC0E0EAC0E0B4
:10535300E9C0E0125229D0E02401F9D0E03400FA88
:10536300D0E0FBE5120460DCD512D980877BFF7A9D
:1053730054797ED202809C791080027908C206C2D9
:10538300088008D2D5790A8004790AC2D5E51204C7
:105393007002F512E4FAFDFEFF1251E6FC7B0820D1
:1053A30001131251E6FD7B1030000A1251E6FE1282
:1053B30051E6FF7B20EC3382D592D55013C3E43002
:1053C30000069FFFE49EFEE42001039DFDE49CFC98
:1053D300E4CBF8C201EC700CCFCECDCCE824F8F8C6
:1053E30070F38017C3EF33FFEE33FEED33FDEC3381
:1053F300FCEB33FB994002FB0FD8E9EB300105F8D6
:10540300D0E0C448B201C0E00AEC4D4E4F78207B97
:105413000070C2EAB5120040BCC0E0125484D0F060
:10542300D0E0200104C4C0E0C4B201C0F0125212A3
:10543300D0F0D5F0EB025263124CCA530053537AA7
:105443005852D14C52CD42537E4F538644538649D2
:1054530052E643538C55537046537045537047552A
:105463002C5052D52D52D92E52FC2B52DD2352FAF9
:105473002055152A529548000052F43F3F3F0079CA
:105483000AA2D5200314300509B910020404B9088F
:105493000104A2D52006025001042002689202B53D
:1054A30011005034C0E07F203003197F30A2027214
:1054B300067205500F1254DBC202C206C205C208AF
:1054C3007F30800F300503E9C0E012522930050315
:1054D300D0E0F9D0E0B511CC3005177F30B9100C0E
:1054E3001252297F583004077F788003B9080312CA
:1054F30052293002057F2D0252297F202008F87F90
:105503002B2006F322920280CF286E756C6C290043
:10551300D2011251E63001F8C201781130D50108E9
:10552300F60252952D504349581251E62403B4050F
:10553300004001E49055279312521A743A12521AFA
:10554300D20375110402537AE4FD75F002EDA4242D
:1055530000F582E5F034DAF583E493FA740193FB02
:10556300ED25E0FFE433FE74632FF58274013EF50D
:1055730083EAF0A3EBF075F002EDA42404F582E5D1
:10558300F034DAF583E493FA740193FBED25E0FF3D
:10559300E433FE745F2FF58274013EF583EAF0A3D2
:1055A300EBF075F002EDA42408F582E5F034DAF5AA
:1055B30083E493FA740193FBED25E0FFE433FE7477
:1055C300532FF58274013EF583EAF0A3EBF0746385
:1055D3002FF58274013EF583E0FEA3E0C394FFEE52
:1055E300940F4015ED25E0FFE433FE74632FF5823D
:1055F30074013EF583E4F0A3F0ED25E0FFE433FE10
:10560300745F2FF58274013EF583E0FEA3E0FF4E45
:105613006009D3EF94FFEE940F4018ED25E0FFE40B
:1056230033FE745F2FF58274013EF583740FF0A38C
:1056330074FFF0ED25E0FFE433FE745F2FF5827411
:10564300013EF583E0FAA3E0FB74632FF582740156
:105653003EF583E0FEA3E0C39BEE9A4026ED25E0F2
:10566300FFE433FE74632FF58274013EF583E4F0A7
:10567300A3F0745F2FF58274013EF583740FF0A3DA
:1056830074FFF0ED25E0FFE433FE74532FF58274CD
:10569300013EF583E0FEA3E0FF4E6009C3EF94FFF4
:1056A300EE940F4017ED25E0FFE433FE74532FF51E
:1056B3008274013EF5837408F0A3E4F0ED25E0FF66
:1056C300E433FE74632FF58274013EF583E0FAA39D
:1056D300E0FB74532FF58274013EF583E0FEA3E0F3
:1056E300D39BEE9A402AED25E0FFE433FE745F2F4F
:1056F300F58274013EF583E0FAA3E0FB74532FF5C2
:105703008274013EF583E0FEA3E0C39BEE9A40362C
:10571300ED25E0FFE433FE74632FF58274013EF55B
:1057230083E4F0A3F074532FF58274013EF5837480
:1057330008F0A3E4F0745F2FF58274013EF58374DF
:105743000FF0A374FFF0ED25E0FFE433FE74632F45
:10575300F58274013EF583E0FAA3E0FB74532FF561
:105763008274013EF583E0FEA3E0C39BFBEE9AFA4D
:10577300ED25E0FFE433FE745B2FF58274013EF503
:1057830083EAF0A3EBF074532FF58274013EF583A3
:10579300E0FAA3E0FB745F2FF58274013EF583E02A
:1057A300FEA3E0C39BFBEE9AFAED25E0FFE433FE94
:1057B30074572FF58274013EF583EAF0A3EBF00DE5
:1057C300ED6402600302554D90DA10E493F52790DF
:1057D300DA14E493FF13920FEFC31313921022E42E
:1057E3009002E8F0A20A33A3F0A20DE433A3F0A2DF
:1057F30009E433A3F09002B1E07F0060027F0190DF
:1058030002ECEFF09002AFE07F0060027F019002B4
:10581300EDEFF0900111E0FEA3E024F9F582EE3400
:1058230001F583E493C4540F60739002D7E0F8A3A7
:10583300E0F9A3E0FAA3E0FB9001F8E0FCA3E0FDAC
:10584300A3E0FEA3E0C39BFFEE9AFEED99FDEC9867
:10585300C0E0EDC0E0EEC0E0EFC0E0900111E0FE7B
:10586300A3E024F9F582EE3401F583E493C4540FE5
:1058730025E0247AF582E43483F583E493FE74010E
:1058830093FFCBEFCBCAEECAE4F9F8D0E0FFD0E048
:10589300FED0E0FDD0E0FCD3124BAC5017900111C9
:1058A300E0FEA3E024F9F582EE3401F583E493549A
:1058B3000FFF700890022074FFF08046EF6043C32F
:1058C300940440028037EF14FDC8EDC87E007401D4
:1058D300088005C333CE33CED8F9FF900220E0FC15
:1058E300C39FEE6480F87480984012C8EDC87401B9
:1058F300088002C333D8FCFFC3EC9F8001E490020D
:1059030020F0E49002E4F09002E4E0FFC39403404B
:1059130003025A41E0FE900111E0FCA3E0FD24F6EE
:10592300F582EC3401F583E5822EF582E43583F5C7
:1059330083E493FB540F24E8F582E43402F583E017
:10594300FAEBC41313135401FBEA6BFB74E52EF556
:1059530082E43402F583EBF074E52FF582E434023C
:10596300F583E0604BED24F9F582EC3401F583E433
:1059730093540F703B9002E4E024E5F582E4340293
:10598300F583C083C082E0FF9002E4E0FEED24F3E0
:10599300F582EC3401F583E5822EF582E43583F557
:1059A30083E493FEEF8EF0A4D082D083F0025A38C2
:1059B3009002E4E0FBED24F3F582EC3401F583E59A
:1059C300822BF582E43583F583E493FD7C0090021A
:1059D30020E0F9FFC374FF9FFFE49400FE124936F1
:1059E30074E52BF582E43402F583E0FD124936CCED
:1059F300EECCCDEFCD9002E4E0FF900111E0FAA3ED
:105A0300E024F0F582EA3401F583E5822FF582E4A0
:105A13003583F583E49389F0A42DFFEC35F0FE7C08
:105A2300007DFF1249489002E4E024E5F582E43466
:105A330002F583EFF09002E4E004F002590A9002C9
:105A4300E5E0F5A5A3E0F59AA3E0F5A422011C0087
:105A5300011A00C10F011D00011B00C110410369A0
:105A63000041036A0041031F004103230041033C3B
:105A7300004103120041033A0041033B0041033D4F
:105A8300004103220056032401000000000000002F
:105A930000000000000000000000000000004503BB
:105AA3001302000000004703180310010000000068
:105AB300420320040043033E05000041034100C1AB
:105AC3000EC10BC10CC10AC10DC1094401F800008C
:105AD30000000127025401530800080008000800D1
