:08000000026A90026DA3323286
:07000B000271F4010001196C
:100013000200067B017A0679009002D77401F07F13
:06002300007ED8025D37EB
:0D002B0002000775A15575A1AA43B110226E
:03003B00026E0052
:10004300021502EF4E601505A105A105A105A10545
:0D005300A105A105A1EF1F70EA1E80E722A4
:10006300026C7AEF6013E4900290F0A3F090028E9A
:10007300F0A3F090028C020585900111E0FEA3E04D
:1000830024D5F582EE3401F583E493FD540175F034
:1000930002A424FFFEE5F034FF9002E2F0A3CEF0C9
:1000A300EDC313540175F002A424FFFEE5F034FF01
:1000B300A3F0A3CEF0900163E0FEA3E0FF9001A7BD
:1000C300E0FCA3E0FDD39FEC9E4008CEECCECFED49
:1000D300CF8000D3900160E09F90015FE09E4020BD
:1000E300900163E0FEA3E0FF9001A7E0FCA3E0FD25
:1000F300D39FEC9E4008CEECCECFEDCF800A800894
:1001030090015FE0FEA3E0FF9001A7EEF0A3EFF004
:10011300900165E0FEA3E0FF9001A9E0FCA3E0FDF0
:10012300D39FEC9E4008CEECCECFEDCF8000D39092
:100133000162E09F900161E09E4020900165E0FE36
:10014300A3E0FF9001A9E0FCA3E0FDD39FEC9E4058
:1001530008CEECCECFEDCF800A8008900161E0FE9F
:10016300A3E0FF9001A9EEF0A3EFF0900111E0FEF0
:10017300A3E024D5F582EE3401F583E493131354FD
:100183003F20E00302030A900153E0FEA3E0FF9047
:1001930001A7E0FCA3E0FDC39FEC9E9002E2E0FE1A
:1001A3005037A3E0FFEEC0E0EFC0E0900153E0FE64
:1001B300A3E0FFC3ED9FFFEC9EFE3395E0FDFCE45F
:1001C300FB7A10F9F8124555ECC0E0EDC0E0EEC043
:1001D300E0EFC0E090015B803BA3E0FFEEC0E0EF07
:1001E300C0E0900153E0FEA3E0FF9001A7E0FCA371
:1001F300E0C39FFFEC9EFE3395E0FDFCE4FB7A1029
:10020300F9F8124555ECC0E0EDC0E0EEC0E0EFC0F8
:10021300E0900157E0FEA3E0FFCBEFCBCAEECAE4C8
:10022300F9F8D0E0FFD0E0FED0E0FDD0E0FC1270A2
:1002330031CDEFCDCCEECCD0E0FFD0E0FE124420A8
:100243009002E2EEF0A3EFF0900155E0FEA3E0FF91
:100253009001A9E0FCA3E0FDC39FEC9E9002E4E0C3
:10026300FE5037A3E0FFEEC0E0EFC0E0900155E0A1
:10027300FEA3E0FFC3ED9FFFEC9EFE3395E0FDFC84
:10028300E4FB7A10F9F8124555ECC0E0EDC0E0EE5E
:10029300C0E0EFC0E090015D803BA3E0FFEEC0E073
:1002A300EFC0E0900155E0FEA3E0FF9001A9E0FC60
:1002B300A3E0C39FFFEC9EFE3395E0FDFCE4FB7AD5
:1002C30010F9F8124555ECC0E0EDC0E0EEC0E0EFE8
:1002D300C0E0900159E0FEA3E0FFCBEFCBCAEECA2A
:1002E300E4F9F8D0E0FFD0E0FED0E0FDD0E0FC126E
:1002F3007031CDEFCDCCEECCD0E0FFD0E0FE124498
:10030300209002E4020495900153E0FEA3E0FF90E5
:1003130001A7E0FCA3E0FDC39FEC9E9002E4E0FE96
:100323005037A3E0FFEEC0E0EFC0E0900153E0FEE2
:10033300A3E0FFC3ED9FFFEC9EFE3395E0FDFCE4DD
:10034300FB7A10F9F8124555ECC0E0EDC0E0EEC0C1
:10035300E0EFC0E090015B803BA3E0FFEEC0E0EF85
:10036300C0E0900153E0FEA3E0FF9001A7E0FCA3EF
:10037300E0C39FFFEC9EFE3395E0FDFCE4FB7A10A7
:10038300F9F8124555ECC0E0EDC0E0EEC0E0EFC077
:10039300E0900157E0FEA3E0FFCBEFCBCAEECAE447
:1003A300F9F8D0E0FFD0E0FED0E0FDD0E0FC127021
:1003B30031CDEFCDCCEECCD0E0FFD0E0FE12442027
:1003C3009002E4EEF0A3EFF0900155E0FEA3E0FF0E
:1003D3009001A9E0FCA3E0FDC39FEC9E9002E2E044
:1003E300FE503EA3E0FFEEC0E0EFC0E0900155E019
:1003F300FEA3E0FFC3ED9FFFEC9EFEC3E49FFFE47B
:100403009EFE3395E0FDFCE4FB7A10F9F8124555A6
:10041300ECC0E0EDC0E0EEC0E0EFC0E090015D8035
:1004230042A3E0FFEEC0E0EFC0E0900155E0FEA381
:10043300E0FF9001A9E0FCA3E0C39FFFEC9EFEC395
:10044300E49FFFE49EFE3395E0FDFCE4FB7A10F9A4
:10045300F8124555ECC0E0EDC0E0EEC0E0EFC0E0BF
:10046300900159E0FEA3E0FFCBEFCBCAEECAE4F95B
:10047300F8D0E0FFD0E0FED0E0FDD0E0FC12703118
:10048300CDEFCDCCEECCD0E0FFD0E0FE12442090F7
:1004930002E2EEF0A3EFF09002E4E0FEA3E0FFD36C
:1004A3009400EE648094804002800F9002E4E0FEAA
:1004B300A3E0FFC3E49FFFE49EFE9002E2E0FCA3FF
:1004C300E0FDD39400EC648094804002800F90029E
:1004D300E2E0FCA3E0FDC3E49DFDE49CFCD3ED9FBF
:1004E300EE6480F8EC64809840259002E2E0FEA37D
:1004F300E0FFD39400EE6480948040028034900245
:10050300E2E0FEA3E0FFC3E49FFFE49EFE802390AE
:1005130002E4E0FEA3E0FFD39400EE648094804005
:1005230002800F9002E4E0FEA3E0FFC3E49FFFE438
:100533009EFECAEECACBEFCB900111E0FEA3E024EE
:10054300DCF582EE3401F583E493FF7E007C007DCD
:1005530015124420C3EB9FFFEA9EFE9002E6F0A330
:10056300EFF0D39400EE64809480501AE4900294E8
:10057300F0A3F0900292F0A3F0900290F0A3F09019
:10058300028EF0A3F022900111E0FEA3E0FF24D439
:10059300F582EE3401F583E493540F24FE700302D5
:1005A300078E147003020AC3147003020FB92403E5
:1005B300600302150190028CE07002A3E060030265
:1005C3000798EF24DEF582EE3401F583E493701D82
:1005D300900111E0FEA3E024DFF582EE3401F58300
:1005E300E493700990028CF0A3F002071A900111B2
:1005F300E0FEA3E0FF24DEF582EE3401F583E4930D
:10060300FBEF24DFF582EE3401F583E493C39BFD16
:100613003395E0FC78039002E6E0FEA3E0CEA2E788
:1006230013CE13D8F8FF124420EEFD3395E0FCEB14
:1006330025E0FFE433FEED2FFFEC3E9002E6F0A34E
:10064300EFF0900292E0FEA3E0FFD39400EE64800B
:1006530094804002800F900292E0FEA3E0FFC3E487
:100663009FFFE49EFE9002E6E0FCA3E0FDD39FEE35
:100673006480F8EC648098500A900292ECF0A3ED49
:10068300F0806B900111E0FEA3E024DDF582EE34EF
:1006930001F583E4932401FDE433FC900292E0FE30
:1006A300A3E0FFC39002E7E09FFF9002E6E09EFE17
:1006B300124487EEF0A3EFF04E7010900293E00423
:1006C300F0701C900292E004F080149002E6E0FEC9
:1006D300A3E0FF900293E02FF0900292E03EF090AF
:1006E3000292E0FFA3E09002E6CFF0A3EFF09002C6
:1006F300E6E0FEA3E0FFC374649FFFE49EFE900266
:100703008CF0A3EFF0D39400EE64809480500890B3
:10071300028CE4F0A304F09002E2E0FEA3E0FFA366
:10072300E0FCA3E0FDD39FEE6480F8EC6480984086
:1007330026E49FFFE49EFED3ED9FEE6480F8EC6415
:100743008098900111E0FE4007A3E024D7020AB489
:10075300A3E024D9020AB49002E2E0FEA3E0FFC3BF
:10076300E49FFFE49EFED39002E5E09FEE6480F8F1
:100773009002E4E0648098900111E0FE4006A3E05B
:1007830024DA8004A3E024D8020AB490028CE07037
:1007930002A3E0600F90028DE024FFF090028CE052
:1007A30034FFF022900111E0FEA3E0FF24DEF58286
:1007B300EE3401F583E4937017EF24DFF582EE3412
:1007C30001F583E493700990028CF0A3F00208FD15
:1007D300900111E0FEA3E0FF24DEF582EE3401F583
:1007E30083E493FBEF24DFF582EE3401F583E49396
:1007F300C39BFD3395E0FC78039002E6E0FEA3E0A3
:10080300CEA2E713CE13D8F8FF124420EEFD3395A2
:10081300E0FCEB25E0FFE433FEED2FFFEC3E90021E
:10082300E6F0A3EFF0900292E0FEA3E0FFD3940082
:10083300EE648094804002800F900292E0FEA3E079
:10084300FFC3E49FFFE49EFE9002E6E0FCA3E0FD0D
:10085300D39FEE6480F8EC648098500A900292EC87
:10086300F0A3EDF0806B900111E0FEA3E024DDF531
:1008730082EE3401F583E4932401FDE433FC90021A
:1008830092E0FEA3E0FFC39002E7E09FFF9002E641
:10089300E09EFE124487EEF0A3EFF04E701090023C
:1008A30093E004F0701C900292E004F08014900234
:1008B300E6E0FEA3E0FF900293E02FF0900292E0C7
:1008C3003EF0900292E0FFA3E09002E6CFF0A3EFA8
:1008D300F09002E6E0FEA3E0FFC374649FFFE49E92
:1008E300FE90028CF0A3EFF0D39400EE648094802A
:1008F300500890028CE4F0A304F09002E2E0FEA31F
:10090300E0FF7C007D03124420CAEECACBEFCBA3E9
:10091300E0FEA3E0FF7D07124420D3EF9BEA64804F
:10092300F8EE648098403C9002E2E0FEA3E0FFE42E
:100933009FFFE49EFE7D03124420CAEECACBEFCB99
:10094300A3E0FEA3E0FF7D07124420D3EF9BEA64FC
:1009530080F8EE648098400B900111E0FEA3E02440
:10096300D780689002E2E0FEA3E0FF7C007D0312E3
:100973004420CAEECACBEFCBA3E0FEA3E0FF7D0782
:10098300124420C3EF9BEA6480F8EE648098504AD7
:100993009002E2E0FEA3E0FFC3E49FFFE49EFE7D3E
:1009A30003124420CAEECACBEFCBA3E0FEA3E0FFC1
:1009B3007D07124420C3EF9BEA6480F8EE648098BD
:1009C3005018900111E0FEA3E024D8F582EE340123
:1009D300F583E493FD7FFF1266029002E2E0FEA33B
:1009E300E0FF7C007D07124420CAEECACBEFCBA305
:1009F300E0FEA3E0FF7D03124420D3EF9BEA648073
:100A0300F8EE648098403C9002E2E0FEA3E0FFE44D
:100A13009FFFE49EFE7D07124420CAEECACBEFCBB4
:100A2300A3E0FEA3E0FF7D03124420C3EF9BEA642F
:100A330080F8EE648098500B900111E0FEA3E0244F
:100A4300D9806E9002E2E0FEA3E0FF7C007D0712F6
:100A53004420CAEECACBEFCBA3E0FEA3E0FF7D03A5
:100A6300124420C3EF9BEA6480F8EE64809840034D
:100A73000215019002E2E0FEA3E0FFC3E49FFFE45E
:100A83009EFE7D07124420CAEECACBEFCBA3E0FE45
:100A9300A3E0FF7D03124420D3EF9BEA6480F8EECA
:100AA3006480985003021501900111E0FEA3E02435
:100AB300DAF582EE3401F583E493FD7FFF026602EB
:100AC300900111E0FEA3E024DFF582EE3401F5830B
:100AD300E493FB3395E0FA78039002E2E0FEA3E0AF
:100AE300CEA2E713CE13D8F8FFCDEBCDCCEACC12D0
:100AF30044207804EFCEA2E713CE13D8F8FF900278
:100B0300E2EEF0A3EFF07803A3E0FEA3E0CEA2E7CA
:100B130013CE13D8F8FFCDEBCDCCEACC124420781A
:100B230004EFCEA2E713CE13D8F8FF9002E4EEF061
:100B3300A3EFF0900292E0FEA3E0FFD39400EE64F3
:100B43008094804002800F900292E0FEA3E0FFC3F6
:100B5300E49FFFE49EFE9002E2E0FCA3E0FDD39459
:100B630000EC648094804002800F9002E2E0FCA3DA
:100B7300E0FDC3E49DFDE49CFCD3ED9FEE6480F8AF
:100B8300EC6480985002802E900292E0FEA3E0FF76
:100B9300D39400EE648094804002800F900292E030
:100BA300FEA3E0FFC3E49FFFE49EFED3EF9420EE99
:100BB3006480948340129002E2E0FFA3E0900292EB
:100BC300CFF0A3EFF0020CE7900292E0FEA3E0FF68
:100BD300D39400EE6480948040028007C3E49FFFB7
:100BE300E49EFECCEECCCDEFCD900111E0FAA3E074
:100BF300FB24DEF582EA3401F583E49375F00AA45D
:100C0300FFD3ED9FE5F06480F8EC648098405DEBE2
:100C130024DDF582EA3401F583E4932401FDE43312
:100C2300FC900292E0FEA3E0FF9002E2E0FAA3E070
:100C3300FBC39FFFEA9EFE1244879002E6EEF0A3F9
:100C4300EFF04E6003020CD3C3EA64809480500734
:100C53007EFF7FFF020CDBD3EB9400EA6480948079
:100C63007E0040047F0180027F00806C900111E0D0
:100C7300FEA3E024DDF582EE3401F583E49375F001
:100C83000AA42401FDE435F0FC900292E0FEA3E007
:100C9300FF9002E2E0FAA3E0FBC39FFFEA9EFE128D
:100CA30044879002E6EEF0A3EFF04E7023C3EA64AC
:100CB30080948050067EFF7FFF8013D3EB9400EA7D
:100CC300648094807E0040047F0180027F0080085E
:100CD3009002E6E0FEA3E0FF900293E02FF0900283
:100CE30092E03EF0900294E0FEA3E0FFD39400EE86
:100CF300648094804002800F900294E0FEA3E0FFA2
:100D0300C3E49FFFE49EFE9002E4E0FCA3E0FDD376
:100D13009400EC648094804002800F9002E4E0FC35
:100D2300A3E0FDC3E49DFDE49CFCD3ED9FEE648052
:100D3300F8EC6480985002802E900294E0FEA3E0C9
:100D4300FFD39400EE648094804002800F9002945D
:100D5300E0FEA3E0FFC3E49FFFE49EFED3EF9420F5
:100D6300EE6480948340129002E4E0FFA3E09002DB
:100D730094CFF0A3EFF0020E93900294E0FEA3E071
:100D8300FFD39400EE6480948040028007C3E49F05
:100D9300FFE49EFECCEECCCDEFCD900111E0FAA3A3
:100DA300E0FB24DEF582EA3401F583E49375F00A6F
:100DB300A4FFD3ED9FE5F06480F8EC648098405A7B
:100DC300EB24DDF582EA3401F583E4932401FDE4A9
:100DD30033FC900294E0FEA3E0FF9002E4E0FAA368
:100DE300E0FBC39FFFEA9EFE124487A3EEF0A3EF4E
:100DF300F04E6003020E7FC3EA6480948050067E47
:100E0300FF7FFF807FD3EB9400EA648094807E00B1
:100E130040047F0180027F00806A900111E0FEA3FD
:100E2300E024DDF582EE3401F583E49375F00AA442
:100E33002401FDE435F0FC900294E0FEA3E0FF9072
:100E430002E4E0FAA3E0FBC39FFFEA9EFE1244879D
:100E5300A3EEF0A3EFF04E7023C3EA6480948050B6
:100E6300067EFF7FFF8013D3EB9400EA64809480B7
:100E73007E0040047F0180027F0080089002E6E04C
:100E8300FEA3E0FF900295E02FF0900294E03EF085
:100E9300900292E0FEA3E0FF90028FE02FF0900219
:100EA3008EE03EF0900294E0FEA3E0FF900291E01A
:100EB3002FF0900290E03EF090028EE0FEA3E0FF60
:100EC300D39440EE64809460400280047EE07F40CF
:100ED300C3EF94C0EE6480949F501990028EE0FE9D
:100EE300A3E0FF9440EE648094604002800A7EE0B9
:100EF3007F4080047E1F7FC090028EEEF0A3EFF050
:100F0300A3E0FEA3E0FFD39440EE6480946040022C
:100F130080047EE07F40C3EF94C0EE6480949F50D2
:100F230019900290E0FEA3E0FF9440EE6480946089
:100F33004002800A7EE07F4080047E1F7FC09002D3
:100F430090EEF0A3EFF090028EE0FCA3E0FD7806B4
:100F5300CEECCECEA2E713CE13D8F8900301F078EF
:100F630006900290E0FEA3E0CEA2E713CE13D8F8DA
:100F7300F404F9900302F0900301E0FF3395E0FEDF
:100F83007806EFC333CE33CED8F9FFC3ED9FFFEC22
:100F93009E90028EF0A3EFF0E9FF3395E0FE780612
:100FA300EFC333CE33CED8F9FF900291E02FF09008
:100FB3000290E03EF02290028EE0FEA3E0FF90025A
:100FC300E2E0FCA3E0FDC39FFFEC9EFE7802EFCEC0
:100FD300A2E713CE13D8F8FF9002E6EEF0A3EFF0EA
:100FE3004E7023C3EC6480948050067EFF7FFF80A5
:100FF3001DD3ED9400EC648094807E0040047F0157
:1010030080027F0080089002E6E0FEA3E0FF9002EA
:101013008FE02FF090028EE03EF0900290E0FEA36E
:10102300E0FF9002E4E0FCA3E0FDC39FFFEC9EFE23
:101033007802EFCEA2E713CE13D8F8FF9002E6EEC4
:10104300F0A3EFF04E7023C3EC6480948050067ECF
:10105300FF7FFF801DD3ED9400EC648094807E00BD
:1010630040047F0180027F0080089002E6E0FEA337
:10107300E0FF900291E02FF0900290E03EF09002AA
:10108300E2E0FAA3E0FBD39400EA64809480900149
:1010930011E0FE4006A3E024DA8004A3E024D9F59E
:1010A30082EE3401F583E493FF900292E4F0A3EF20
:1010B300F0D3ED9400EC64809480900111E0FE4045
:1010C30006A3E024D78004A3E024D8F582EE3401FC
:1010D300F583E493FF900294E4F0A3EFF09002927F
:1010E300E0FEA3E0FFC3941EEE648094804017D318
:1010F300EF9427EE64809480500CEF25E0FFEE33ED
:10110300FEEF24C68027900292E0FEA3E0FFC39483
:1011130059EE648094804022D3EF9462EE6480940D
:10112300805017EF25E0FFEE33FEEF244FFFEE3440
:10113300FF900292F0A3EFF08007E4900292F0A3F5
:10114300F0900294E0FEA3E0FFC3941EEE6480944B
:10115300804017D3EF9427EE64809480500CEF25E2
:10116300E0FFEE33FEEF24C68027900294E0FEA357
:10117300E0FFC39459EE648094804022D3EF9462DD
:10118300EE648094805017EF25E0FFEE33FEEF24EA
:101193004FFFEE34FF900294F0A3EFF08007E4904A
:1011A3000294F0A3F0D3EB9401EA64809470400AB4
:1011B3009002E2E0FEA3E0FF80047EF07F01C3EF34
:1011C30094FFEE6480948F50199002E2E0FEA3E056
:1011D300FF9401EE648094704002800A7EF07F01E8
:1011E30080047E0F7FFF9002E2EEF0A3EFF0D3EDD9
:1011F3009401EC648094704008A3E0FEA3E0FF80B8
:10120300047EF07F01C3EF94FFEE6480948F501946
:101213009002E4E0FEA3E0FF9401EE64809470404A
:1012230002800A7EF07F0180047E0F7FFF9002E43C
:10123300EEF0A3EFF0900292E0FEA3E0FFCBEFCB42
:10124300CAEECAEA3395E0F9F890028EE0FEA3E015
:10125300FFEE3395E0FDFC124555C8ECC8C9EDC956
:10126300CAEECACBEFCB900111E0FEA3E024DFF579
:1012730082EE3401F583E493FFE4FCFDFE12455551
:10128300E47B7DFAF9F8127031900292EEF0A3EF4D
:10129300F0A3E0FEA3E0FFEE3395E0FDFC124672FF
:1012A300C8ECC8C9EDC9CAEECACBEFCB900290E037
:1012B300FEA3E0FFEE3395E0FDFC124555C8ECC8F4
:1012C300C9EDC9CAEECACBEFCB900111E0FEA3E092
:1012D30024DFF582EE3401F583E493FFE4FCFDFEA5
:1012E300124555E47B7DFAF9F8127031900294EEC1
:1012F300F0A3EFF0900111E0FEA3E024DDF582EE10
:101303003401F583E493FFE4FCFDFE7BFF7A7FF970
:10131300F8124555E47B32FAF9F81270319002E283
:10132300EEF0A3EFF0900111E0FEA3E024DEF582DE
:10133300EE3401F583E493FFE4FCFDFE7BFF7A7F4B
:10134300F9F8124555E47B32FAF9F812703190023C
:10135300E4EEF0A3EFF0D3900293E09400900292B6
:10136300E06480948040479002E2E0FEA3E0FFCB7C
:10137300EFCBCAEECAEA3395E0F9F8900292E0FEA9
:10138300A3E0FFEE3395E0FDFCEB2FFFEA3EFEE921
:101393003DFDE83CFCE47BFF7A7FF9F8C31246800D
:1013A300500C9002E2747FF0A374FFF08055C39059
:1013B3000292E06480948050369002E2E0FEA3E063
:1013C300FFCBEFCBCAEECAEA3395E0F9F89002926D
:1013D300E0FEA3E0FFEE3395E0FDFCEB2FEA3EE9F0
:1013E3003DE83C335009E49002E2F0A3F08014900E
:1013F3000292E0FEA3E0FF9002E3E02FF09002E20E
:10140300E03EF0D3900295E09400900294E0648073
:10141300948040479002E4E0FEA3E0FFCBEFCBCA09
:10142300EECAEA3395E0F9F8900294E0FEA3E0FFF8
:10143300EE3395E0FDFCEB2FFFEA3EFEE93DFDE8D0
:101443003CFCE47BFF7A7FF9F8C3124680500C9092
:1014530002E4747FF0A374FFF08056C3900294E01B
:101463006480948050379002E4E0FEA3E0FFCBEF6A
:10147300CBCAEECAEA3395E0F9F8900294E0FEA3F2
:10148300E0FFEE3395E0FDFCEB2FFFEA3EE93DE89C
:101493003C335009E49002E4F0A3F08014900294EA
:1014A300E0FEA3E0FF9002E5E02FF09002E4E03ECF
:1014B300F09002E2E0FCA3E0FDCFEDCF900307F054
:1014C300ECFFEFA3F09002E4E0FCA3E0FDCFEDCF4F
:1014D300900309F0ECFFEFA3F09003067411F09072
:1014E300028CE07002A3E07F0070027F017E009017
:1014F300028CEEF0A3EFF025E014900301F022C07C
:10150300E0C0F0C083C082C0D075D00820D90302E8
:10151300229DE5D9543F700302228C147003021DEF
:10152300F814602E24E270030221FF147003021DDD
:10153300EE24F17003021E6B240E600302229975E0
:10154300D50063D440C20CE5D454FC4402F5D40264
:10155300229920DE0302229963D480AFDB9002C973
:10156300E4F0A3EFF09002C9A3E0F5D590030BE0FC
:1015730030E75A90057FE075F040A42400F9740623
:1015830035F0FAC8E9C8CCEACCCD7401CD7B017A39
:101593000579007E007F401243999005407452F014
:1015A300A37444F090057FE0FF04F0900542EFF050
:1015B30053D4FC90057EE0FFA3E0C39F50030222B7
:1015C30099E4F090030BE0547FF002229990050018
:1015D300E0B44410A3E0B44B0BA3E0B44206A3E091
:1015E3006443601A900500E064447073A3E0644CA4
:1015F300706DA3E064547067A3E064437061900569
:1016030004E0C394314058E0D3943850529005011C
:10161300E090057EB44B0B7408F0900504E024D9E8
:1016230080097404F0900504E024ED90030BF0901E
:1016330005407452F0900501E0900541F0900502D9
:10164300E0900542F0900503E0900543F053D4FC8D
:1016530090057FE4F090030BE04480F00222999020
:101663000500E064437042A3E0644B703CA3E06474
:10167300597036A3E0645470309005407452F09072
:101683000501E0900541F0900502E0900542F090DD
:101693000503E0900543F0A3E514F0900504E0F59D
:1016A30014900545E5140219BA900500E0644360FF
:1016B3000302180FA3E06452600302180FA3E0644F
:1016C3004B600302180FA3E0644D600302180F90F0
:1016D30005407452F0900501E0900541F090050239
:1016E300E0900542F0900503E0900543F09001532C
:1016F300E0FFA3E0900544CFF0A3EFF0900155E0A5
:10170300FFA3E0900546CFF0A3EFF0900164E0243F
:1017130001FF900163E03400FE9001A7E0FCA3E029
:10172300FDD39FEC9E4008CEECCECFEDCF80009052
:101733000160E024FFFD90015FE034FFFCC3EF9DF7
:10174300EE9C5026900164E02401FF900163E03495
:1017530000FE9001A7E0FCA3E0FDD39FEC9E4008B0
:10176300CEECCECFEDCF8010800E900160E024FF51
:10177300FF90015FE034FFFE900153EEF0A3EFF022
:10178300900166E02401FF900165E03400FE9001C2
:10179300A9E0FCA3E0FDD39FEC9E4008CEECCECFA6
:1017A300EDCF8000900162E024FFFD900161E03401
:1017B300FFFCC3EF9DEE9C5026900166E02401FFE1
:1017C300900165E03400FE9001A9E0FCA3E0FDD3A5
:1017D3009FEC9E4008CEECCECFEDCF8010800E90D4
:1017E3000162E024FFFF900161E034FFFE900155A8
:1017F300EEF0A3EFF0900153E0FDA3E0900548CD98
:10180300F0A3EDF0A3EEF0A3EF0219BA900500E008
:101813006443600302195BA3E06452600302195B33
:10182300A3E0644B600302195BA3E0645A60030204
:10183300195B9005407452F0900501E0900541F06A
:10184300900502E0900542F0900503E0900543F017
:10185300900163E0FFA3E0900544CFF0A3EFF09085
:10186300015FE0FFA3E0900546CFF0A3EFF0900106
:1018730065E0FFA3E0900548CFF0A3EFF09001618E
:10188300E0FFA3E090054ACFF0A3EFF0900504E05A
:10189300FEA3E0FF900153E0FCA3E0FDC3EF9DEE48
:1018A3009C4003021950900506E0FEA3E09DEE9CC8
:1018B3005003021950A3E0FEA3E0FF900155E0FCA2
:1018C300A3E0FDEF9DEE9C400302195090050AE052
:1018D300FEA3E09DEE9C4075900504E0FFA3E0901D
:1018E3000163CFF0A3EFF0900506E0FFA3E09001C2
:1018F3005FCFF0A3EFF0900508E0FFA3E090016550
:10190300CFF0A3EFF090050AA3E0FF900161EEF0A2
:10191300A3EFF0A3E0FDA3E090054CCDF0A3EDF021
:1019230090015FE0FDA3E090054ECDF0A3EDF090B4
:101933000165E0FDA3E0900550CDF0A3EDF0A3EE2B
:10194300F0A3EFF090030B7432F0021DE890054C06
:1019530074FFF0A3F0021DE8900500E06443706497
:10196300A3E06445705EA3E064437058A3E064445D
:1019730070529005407452F0900501E0900541F0DB
:10198300900502E0900542F0900503E0900543F0D6
:10199300A20FE433A3F0A210E433A3F0900504E014
:1019A30024FF920FA3E024FF9210A20FE4339005CB
:1019B30046F0A210E433A3F053D4FC90030B74322B
:1019C300F0022299900500E064437030A3E064457F
:1019D300702AA3E0B44325A3E0B4462090054074E5
:1019E30052F0900501E0900541F0900502E090056A
:1019F30042F0900503E0900543021DE7900500E0E7
:101A03006442704BA3E064527045A3E06453703F9B
:101A1300A3E0645470399005407452F0900501E0DE
:101A2300900541F0900502E0900542F0900503E037
:101A3300900543F07E007F3C7D207B017A0579444D
:101A430012474353D4FC90030B7464F00222999021
:101A53000500E06442704BA3E064427045A3E06478
:101A63004F703FA3E0645470399005407452F09076
:101A73000501E0900541F0900502E0900542F090E9
:101A83000503E0900543F07E007F3C7D207B017AD7
:101A930005794412474353D4FC90030B7465F00259
:101AA3002299900500E064427049A3E064467043C4
:101AB300A3E06457703DA3E064567037900540740B
:101AC30052F0900501E0900541F0900502E0900589
:101AD30042F0900503E0900543F0C87444C8CC7409
:101AE30005CCCD7401CD7BFF7A00790E7E007F0497
:101AF300021D8C900500E064426003021C6BA3E0AE
:101B030064556003021C6BA3E064496003021C6B11
:101B1300A3E064446003021C6B9005407452F09090
:101B23000501E0900541F0900502E0900542F09038
:101B33000503E0900543F090057DE4F090057DE01A
:101B4300FF25E02430F582E43403F583E0FE74449A
:101B53002FF582E43405F583EEF090057DE024440F
:101B6300F582E43405F583E0C39430402790057D86
:101B7300E02444F582E43405F583E0D3943950142A
:101B830090057DE02444F582E43405F583E024D018
:101B9300F0021C1890057DE02444F582E43405F539
:101BA30083E0C39461402690057DE02444F582E4FC
:101BB3003405F583E0D39466501390057DE0244407
:101BC300F582E43405F583E024A9F0804890057D8F
:101BD300E02444F582E43405F583E0C394414026D0
:101BE30090057DE02444F582E43405F583E0D39445
:101BF30046501390057DE02444F582E43405F583D3
:101C0300E024C9F0800F90057DE02444F582E4349C
:101C130005F583E4F090057DE004F0E0640C6003D7
:101C2300021B3F90057DE4F090057DE0FF25E02455
:101C330044F582E43405F583E0C454F0FEEF25E077
:101C43002445F582E43405F583E04EFF90057DE0FD
:101C53002444F582E43405F583EFF090057DE00438
:101C6300F0E0B406C3021DE8900500E0644260039F
:101C7300021D3EA3E064496003021D3EA3E06450DD
:101C83006003021D3EA3E064546003021D3E900501
:101C9300407452F0900501E0900541F0900502E098
:101CA300900542F0900503E0900543F09001A7E012
:101CB300FFA3E0900544CFF0A3EFF09001A9E0FF6C
:101CC300A3E0900546CFF0A3EFF0A31246D900009E
:101CD300000090057DE4F0900548C083C082E0F8E1
:101CE300A3E0F9A3E0FAA3E0FBE8C0E0E9C0E0EA7F
:101CF300C0E0EBC0E090057DE0F92440F582E434D8
:101D030001F583E0FFE4FCFDFEC8E9C81246BAD042
:101D1300E0FBD0E0FAD0E0F9D0E0F8EB4FFFEA4E79
:101D2300FEE94DFDE84CFCD082D0831246CD9005F0
:101D33007DE004F0E0B4139F021DE8900500E06429
:101D430042704BA3E064477045A3E06450703FA327
:101D5300E0644D70399005407452F0900501E090B5
:101D63000541F0900502E0900542F0900503E090F4
:101D73000543F0C87444C8CC7405CCCD7401CD7B45
:101D8300FF7ADA79007E007F3812439980579005F5
:101D930000E06442703DA3E064447037A3E064470D
:101DA3007031A3E06443702B9005407452F09005AA
:101DB30001E0900541F0900502E0900542F09005A6
:101DC30003E0900543F07B017A0579447D38127175
:101DD300C780129005407452F0A37449F0A3744E67
:101DE300F0A37456F053D4FC02229975D30063D246
:101DF30040C20B8068AFDB9002C9E4F0A3EFF09020
:101E030002C9E0FEA3E0FF4E6053D3EF9402EE94C9
:101E130000504A9002C9A3E0247FF58274053EF581
:101E230083E0FF7E009002C9EEF0A3EFF07F002075
:101E3300E0027F01EF24FFB3920A9002C9E0FEA300
:101E4300E0FF7D0020E1027D01ED24FFB3920DEF61
:101E53007F0020E2027F01EF24FFB39209E5D25411
:101E6300FC4402F5D202229975DCC0AFDB9002C9B3
:101E7300E4F0A3EFF09002C9E07004A3E06408600B
:101E8300030221D49004C7E0FE9004C6E07C002442
:101E930000FFEC3E90032BF0A3EFF09002C9E4F0B7
:101EA300A3F09002C8F09004C1E090032DF09004D9
:101EB300C0E05460601A90032DE01424FD40030237
:101EC30021DA24FB24FD40030221DA80000221D41D
:101ED30090032DE0B40B0040030221D2901EE6F8DC
:101EE3002828730221A70220D60221D2022126022A
:101EF30021D2022093021F070221D202209F022037
:101F0300C40221DA9004C3E024FE602B146042244F
:101F1300E17003021FCD2421600302200C90034AC9
:101F230074FFF0A37478F0A374AAF09002C9E4F0EC
:101F3300A37412F002201290034A74FFF0A3747A80
:101F4300F0A37401F09002C9E4F0A37449F00220F5
:101F5300129004C2E014602714603D1460532403FC
:101F6300600302200C90034A74FFF0A37478F0A37B
:101F730074BCF09002C9E4F0A37404F00220129040
:101F8300034A74FFF0A37478F0A374D6F09002C9E7
:101F9300E4F0A37424F0807790034A74FFF0A374F1
:101FA30078F0A374C0F09002C9E4F0A37416F08033
:101FB3005E90034A7401F0A37403F0A3742EF090AF
:101FC30002C9E4F0A3741AF080459004C4E0FF70E2
:101FD3001990034A74FFF0A37478F0A374FAF09095
:101FE30002C9E4F0A374E5F08025EFB4011990036E
:101FF3004A74FFF0A37479F0A374DFF09002C9E48C
:10200300F0A37422F0800880009002C874FFF0905F
:1020130002C9E0FEA3E0FFD390032CE09F90032BC3
:10202300E09E4005EEF0A3EFF090032BE0FEA3E06B
:10203300FFC39440EE9400400C7C007D40CEECCE78
:10204300CFEDCF80009002C9EEF0A3EFF09002C96C
:10205300E0FEA3E0FFC874C0C8CC7404CCCD740107
:10206300CD90034AE0FBA3E0FAA3E0F91243999071
:1020730002C9E0FEA3E0FFC390032CE09FF09003AE
:102083002BE09EF090034BEE8FF01244BD0221DA59
:102093009004C2E0FF90032BE40221CC90032AE0DA
:1020A3009004C0F0C390032CE0940190032BE094C0
:1020B3000050030221DA9002C9E4F0A304F00221E4
:1020C300DA9004C2E090032AF070030221DAD20E00
:1020D3000221DA9004C0E0541FFF640270359004BB
:1020E300C4E014601E1460202481600D14701EE58A
:1020F300D454BC4402F5D4801AE5D254BC4402F54E
:10210300D2801053D273800B53D47380069002C8CD
:1021130074FFF0EF700A900329E054FEF00221DA15
:102123000221D49004C0E0541FFD70269004C3E044
:10213300FE9004C2E0FBEB64014E7014907A0893A6
:1021430030E50A900329E04401F00221DA0221D4A8
:10215300807FED6402704B9004C3E0FE9004C2E004
:10216300FDED4E703B9004C5E0FE9004C4E0FDED30
:10217300FFEE702AEF24FE60112481601714701E95
:10218300E5D454BF4403F5D4804DE5D4547F440CC7
:10219300F5D48043E5D254BF4403F5D2803980316E
:1021A300802F802D9004C1E4F09004C0F090032BA5
:1021B300E0FEA3E0FFC39402EE94009002C940083E
:1021C300E4F0A37402F0800FEEF0A3EFF080088038
:1021D300009002C874FFF09002C8E0B4FF0675DCFB
:1021E300CF0222999002C9E0FEA3E0FF4E60048F64
:1021F300DD800375DD0075DCC002229990032DE0BC
:1022030024FB606E14707A90032BE0FEA3E0FFC3FF
:102213009440EE9400400C7C007D40CEECCECFED9C
:10222300CF80009002C9EEF0A3EFF09002C9E0FE68
:10223300A3E0FFC874C0C8CC7404CCCD7401CD90A6
:10224300034AE0FBA3E0FAA3E0F91243999002C921
:10225300E0FEA3E0FFC390032CE09FF090032BE08C
:102263009EF090034BEE8FF01244BD8FDD63DC4094
:10227300802490032BA3E0FFE5E354804FF5E38034
:102283000375DD0075DC02800DAFDB9002C9E4F05D
:10229300A3EFF063DC80C2D9803E30D81F75DC0227
:1022A30075D20275D40275E300C2DAC2D9C20EC276
:1022B3000BC20C900329E4F0C2D8801C30DA16C29A
:1022C300DAE5DA90032930E206E04402F08009E01F
:1022D30054FDF0800375D8FFD0D0D082D083D0F0E6
:1022E300D0E032E49002E2F0A374FFF0E4A3F0A3A1
:1022F300F0EF603A90027CE0FEA3E0F5828E8374F7
:10230300F493D39400500F7E007F107D007B017AFD
:1023130002796C12474390027CE0FEA3E0F5828EC3
:102323008374F493D394015005E4900216F0900162
:10233300FDA3A3A3E0FF900217E0FEC3EF9EC394A7
:10234300145003022FDAE02414F0900216E0540F25
:10235300FFBF021A7403F09001FDA3A3E0FFA3E003
:10236300900214CFF0A3EFF090021874FFF09002E4
:1023730016E0540FFFBF03349001FDA3A3E0FEA3B7
:10238300E0FF900214E0FCA3E0FDC3EF9DFFEE9C91
:10239300FE90027CE0FCA3E0F5828C83C374FB9384
:1023A3009F74FA939E5005E4900216F0900216E093
:1023B300540F60030224CD04F09001FDA3A3E0FFBA
:1023C300A3E0900214CFF0A3EFF0E4900218F09092
:1023D300027CE0FEA3E0F5828E8374F693FF70091E
:1023E30090021A74C8F00224CDEFD39404501F90C6
:1023F300027CE0FEA3E0F5828E8374F6931475F0FD
:1024030008A4FD74F5932D90021AF00224CD9002D6
:102413007CE0FEA3E0FFF5828E8374F693B4053C63
:1024230090021A7464F0EF2490FFE43EFECAEECAF1
:10243300C9EFC97BFFEBC0E0EAC0E0E9C0E0C874C4
:102443004CC8CC7402CCCD7401CDD0E0F9D0E0FA05
:10245300D0E0FB7E007F10124399806E90027CE0F7
:10246300FEA3E0F5828E8374F693FDB4060A900210
:102473001AE004541FF08052EDB4072190021AE0D1
:102483002408F0E0FFC394274004E4F0803CEFC34A
:102493009420403690021AE024E1F0802D90027CD3
:1024A300E0FEA3E0F5828E8374F693B4081C126FEA
:1024B30009AD8AEF6DFF7C007D201244878D189053
:1024C300021AE0651860E7E518F0900216E0540F71
:1024D300640170459001FDA3A3E0FEA3E0FF900219
:1024E30014E0FCA3E0FDC3EF9DFDEE9CFC90027C99
:1024F300E0FAA3E0F5828A83C374F9939D74F89399
:102503009C501690021AE064C8600E900214EEF01C
:10251300A3EFF0900218E004F090021AE0FFC394D6
:10252300205034EF75F010A4249AF9747635F0FA3C
:102533007BFFEBC0E0EAC0E0E9C0E0C8744CC8CC64
:102543007402CCCD7401CDD0E0F9D0E0FAD0E0FB39
:102553007E007F1012439990027CE0FEA3E0FFCA45
:10256300EECAC9EFC97BFFEBC0E0EAC0E0E9C0E017
:10257300C8741CC8CC7402CCCD7401CDD0E0F9D0A2
:10258300E0FAD0E0FB7E007F30124399E4F5179028
:10259300027CE0FEA3E0F5828E8374F7937003025E
:1025A30026E1E51775F003A4241CF582E43402F553
:1025B30083E0FFE51775F003A4241DF582E43402DC
:1025C300F583E0FDE51775F003A4241EF582E434DA
:1025D30002F583E0C0E09002EF7401F0A37402F00F
:1025E300A374E6F0A37401F0A37402F0A374E8F0FB
:1025F300A37401F0A37402F0A374EAF0D0E0FB1219
:102603005B7A90027CE0FEA3E0F5828E8374F793FD
:10261300FFCBEFCBE4FAF9F89001FDE0FCA3E0FD7A
:10262300A3E0FEA3E0FF1245E0E47BEA7A03F9F8B6
:102633001245E0CCE8CCCDE9CDCEEACECFEBCF90BE
:1026430002E7E02FF09002E6E03EF0C3A3E094EA55
:102653009002E6E09403400CA3E02416F09002E617
:10266300E034FCF0E51775F003A4FFAEF0241CF989
:1026730074023EFA7B01EBC0E0EAC0E0E9C0E0741B
:102683001D2FF974023EFAEBC0E0EAC0E0E9C0E0B6
:10269300741E2FF974023EFA9002F8EBF0A3EAF0ED
:1026A300A3E9F0D0E0F9D0E0FAD0E09002F5F0A38E
:1026B300EAF0A3E9F0D0E0F9D0E0FAD0E09002F23A
:1026C300F0A3EAF0A3E9F09002E6E0FEA3E0FFA3A3
:1026D300E0FCA3E0FDA3E0FAA3E0FB125625900281
:1026E3001AE064C8600302294590027CE0FEA3E07F
:1026F300F5828E8374F893FE74F993FF4E70030290
:102703002945D3EF94E8EE9403400280047E037FCF
:10271300E87C037DE8124432CAEECACBEFCB9001CA
:10272300FDA3A3E0FEA3E0FF900214E0FCA3E0FD01
:10273300C3EF9DFFEE9CFECDEBCDCCEACC12443231
:102743007C037DEA1244329002EAECF0A3EDF090B0
:1027530002EAE0FEA3E0FFC394F5EE9401402B747C
:10276300E99FF074039E9002EAF090027CE0FEA3DE
:10277300E0F5828E8374FD93FF9002E4E4F0A3EF0F
:10278300F0900216E04480F0802D90027CE0FEA3DE
:10279300E0F5828E8374FC93FF9002E4E4F0A3EFF0
:1027A300F0900216E0B4810FE517B40F037402F042
:1027B300E49002EAF0A3F0900216E0540F64016083
:1027C30007E49002EAF0A3F09002E4E07002A3E0D1
:1027D300705DF51875F003E517A42518F582E43547
:1027E300F0F583E582241CF582E5833402F583E06A
:1027F300FF7E009002EAE0FCA3E0FD124716E47BB3
:10280300F47A01F9F81245E075F003E517A42518E9
:10281300F582E435F0F583E582241CF582E5833403
:1028230002F583EFF00518E518B403A802293C90DC
:1028330002E4E07004A3E0640160030228C990028B
:10284300EAE0FEA3E0FF7C007DFF124716E47BF481
:102853007A01F9F81245E0741A2FF58274753EF582
:1028630083E493FF9002EAE4F0A3EFF0E4F5187534
:10287300F003E517A42518F582E435F0F583E58226
:10288300241CF582E5833402F583E0FF7E00900289
:10289300EAE0FCA3E0FD1244207C007DFF124432F9
:1028A30075F003E517A42518F582E435F0F583E503
:1028B30082241CF582E5833402F583EFF00518E5E5
:1028C30018B403AB80739002EAE0FEA3E02425F57D
:1028D3008274733EF583E493FF9002EAE4F0A3EF7E
:1028E300F0E4F51875F003E517A42518F582E4352F
:1028F300F0F583E582241CF582E5833402F583E059
:10290300FF7E009002EAE0FCA3E0FD1244207C007D
:102913007DFF12443275F003E517A42518F582E410
:1029230035F0F583E582241CF582E5833402F583D3
:10293300EFF00518E518B403AB9002E27401F0025E
:102943002B2590021AE064C87003022B25744C25D2
:1029530017F582E43402F583E0FF900218E0FEEFFE
:102963006E6003022A639002E204F090027CE0FEB0
:10297300A3E0F5828E8374FC93FFC3741F9FFFE46F
:102983009400FE9002E4F0A3EFF0D3940AEE648087
:102993009480401D9002E4E0FEA3E0FF7C007D0AEA
:1029A300124420EF24A6FFEE34FF9002E4F0A3EFDD
:1029B300F0746C2517F582E43402F583E0FFC374E9
:1029C300FF9FFFE49400FE9002E4E0FCA3E0FDC35C
:1029D3009FEE6480F8EC6480985013CFEDCF746C55
:1029E3002517F582E43402F583E02FF0800E746C32
:1029F3002517F582E43402F58374FFF0E4F51875C6
:102A0300F003E517A42518F582E435F0F583E58294
:102A1300241CF582E5833402F583E0FF7E00746CA9
:102A23002517F582E43402F583E090751A93FD7C53
:102A3300001244207DFF12443275F003E517A425EC
:102A430018F582E435F0F583E582241CF582E583ED
:102A53003402F583EFF00518E518B403A2022B2521
:102A630090027CE0FEA3E0F5828E8374FD93240143
:102A7300FDE433FC746C2517F582E43402F583E03E
:102A8300FBFF7E001244879002E4EEF0A3EFF0EB2D
:102A930060119002E4E07002A3E070079002E4F09A
:102AA300A304F0746C2517F582E43402F583C08324
:102AB300C082E0FF9002E4A3E0FDCEEDCEC3EF9E23
:102AC300D082D083F0E4F51875F003E517A4251838
:102AD300F582E435F0F583E582241CF582E5833441
:102AE30002F583E0FF7E00746C2517F582E434025F
:102AF300F583E0FD7C001244207DFF12443275F023
:102B030003E517A42518F582E435F0F583E582245F
:102B13001CF582E5833402F583EFF00518E518B45C
:102B230003A674402517F582E43401F583E07003AE
:102B3300022BBE90027CE0FCA3E02517F582E43C67
:102B4300F5837460932401FDE433FC745C2517F56D
:102B530082E43402F583E0FBFFC374FF9FFFE49438
:102B630000FE1244879002E4EEF0A3EFF0C374FF7B
:102B73009B60119002E4E07002A3E070079002E40E
:102B8300F0A304F09002E4A3E0FF745C2517F58240
:102B9300E43402F583E02FF090027CE0FCA3E0250F
:102BA30017F582E43CF583748093FF9002E3E0D34E
:102BB3009F5003022C7EEFF0022C7E90027CE0FCFF
:102BC300A3E02517F582E43CF5837470932401FD9B
:102BD300E433FC745C2517F582E43402F583E0FBEF
:102BE300FF7E001244879002E4EEF0A3EFF0EB6067
:102BF300119002E4E07002A3E070079002E4F0A3F6
:102C030004F0745C2517F582E43402F583C083C0B5
:102C130082E0FF9002E4A3E0FDCEEDCEC3EF9ED0B1
:102C230082D083F0E4F51875F003E517A42518F5B1
:102C330082E435F0F583E582241CF582E5833402D2
:102C4300F583E0FF900219E0FEEF8EF0A4FFAEF0F3
:102C53007C007DFF12443275F003E517A42518F5B7
:102C630082E435F0F583E582241CF582E5833402A2
:102C7300F583EFF00518E518B403ACE4F518E51790
:102C830075F003A47C002518FFEC35F0FE90027C60
:102C9300E0FCA3E02FF582EC3EF583743093FF75DF
:102CA300F003E517A42518F582E435F0F583E582F2
:102CB300241CF582E5833402F583E0FDC3EF9DFF19
:102CC300E49400FE745C2517F582E43402F583E096
:102CD300FD7C001244207DFF12448775F003E51745
:102CE300A42518F582E435F0F583E582241CF582EA
:102CF300E5833402F583E02FF00518E518640360DB
:102D030003022C810517E517C39410500302259283
:102D13009002E2E0700D900216E0540FFFBF010332
:102D23007402F0900219E0FB9002E3E0FAD39B40B7
:102D33007490027CE0FEA3E0F5828E8374FE93FF21
:102D4300741F9FFFE49400FE9002E4F0A3EFF0D31E
:102D5300940AEE64809480401D9002E4E0FEA3E0B8
:102D6300FF7C007D0A124420EF24A6FFEE34FF907F
:102D730002E4F0A3EFF0EBFFEAC39FFFE49400FE4D
:102D83009002E4E0FCA3E0FDC39FEE6480F8EC64F2
:102D93008098500BCFEDCF900219E02FF0805C901C
:102DA30002E3E08052900219E0FF9002E3E0FEC3E9
:102DB3009F5048EEFDC3EF9DFFE49400FE90027C1C
:102DC300E0FCA3E0F5828C8374FF932401FDE433DC
:102DD300FC1244879002E4EEF0A3EFF04E700790EC
:102DE30002E4F0A304F0900219E0FF9002E4A3E0F0
:102DF300FDCEEDCEC3EF9E900219F0900111E0FEDF
:102E0300A3E024FEF582EE3401F583E493FF705EC4
:102E1300F517E51775F003A4241CF582E43402F5D5
:102E230083E0FEE51775F003A42425F8EEF6E51715
:102E330075F003A4241DF582E43402F583E0FEE576
:102E43001775F003A42424F8EEF6E51775F003A430
:102E5300241EF582E43402F583E0FEE51775F003E2
:102E6300A42426F8EEF60517E517B410A522EF649F
:102E730003706AF517E517907A679375F003A42436
:102E83001CF582E43402F583E0FFE51775F003A433
:102E93002425F8EFF6E517907A679375F003A424D9
:102EA3001DF582E43402F583E0FFE51775F003A412
:102EB3002424F8EFF6E517907A679375F003A424BA
:102EC3001EF582E43402F583E0FFE51775F003A4F1
:102ED3002426F8EFF60517E517B41099229001118F
:102EE300E0FEA3E024FEF582EE3401F583E493FFD4
:102EF30064027075F517C37410951775F003A42455
:102F03001CF582E43402F583E0FEE51775F003A4B3
:102F13002425F8EEF6E517FDC374109DFDE4940037
:102F2300FC90021D75F003ED12470AEC75F003A443
:102F33002583F583E0FEE51775F003A42424F8EE5A
:102F4300F690021E75F003ED12470AEC75F003A428
:102F53002583F583E0FEE51775F003A42426F8EE38
:102F6300F60517E517B4108E22EF64017069F517A3
:102F7300E517907A579375F003A4241CF582E43483
:102F830002F583E0FFE51775F003A42425F8EFF6B7
:102F9300E517907A579375F003A4241DF582E43462
:102FA30002F583E0FFE51775F003A42424F8EFF698
:102FB300E517907A579375F003A4241EF582E43441
:102FC30002F583E0FFE51775F003A42426F8EFF676
:102FD3000517E517B4109922E49002CEF0A3F0A3ED
:102FE300F0A3F0900328F0900326F0900325F090CF
:102FF30002FEF0C874AAC8CC7402CCCD7401CD7B98
:10300300017A037910FE7F151243997E007F157DA7
:10301300007B017A037910124743900300E090028A
:10302300A5F07E007F047D007B017A0379001247BF
:10303300439003057410F07E007F047DFF7B017ACB
:1030430003790712474390030DE09002A7F0E49041
:10305300030DF0900000E0C43354E02411F582E442
:103063003400F583E0FEA3E04E70037FFF2290025D
:103073009EE0604824D4F582E43401F583E06022C5
:1030830090029EE0243FF582E43401F583E0701260
:103093009002C0E054036003E014F09002C0E044E7
:1030A30004F09002BFE07F0070027F019002BFEF47
:1030B300F07003023BB3123CB6023BB3E49002D17F
:1030C300F09002D1E0FFC3941040030231807440BA
:1030D3002FF582E43401F583E07003023177900029
:1030E30000E0C43354E02411F582E43400F583C0D6
:1030F30083C0829002D1E0D082D08375F002124760
:103103000AE0FCA3E0F5828C83740193FEB4010E04
:103113009002A8E0FDEF6D60059002CE8053EEB4FF
:1031230002119002A8E0FF9002D1E06F60059002C7
:10313300CF803E900000E0C43354E02411F582E4D4
:103143003400F583C083C0829002D1E0FFD082D0E7
:103153008375F00212470AE0FCA3E0F5828C8374C6
:103163000193B4070F9002A8E0FEEF6E6006900291
:10317300D0E004F09002D1E004F00230C4E4900205
:10318300D1F09002D1E0FFC3941040030237909036
:1031930002A8E0FEEF6E70549002D1E02440F58265
:1031A300E43401F583E0600302378774D52FF58299
:1031B300E43401F583E060030237879002A1E00461
:1031C300F0E0D3940A5003023787E4F09002D1E091
:1031D3002403FF9002A6E0FD1266029002A4E0FF22
:1031E300126A039002A874FFF00237879002D1E0BD
:1031F300FF2440F582E43401F583E0700302366571
:10320300900000E0C43354E02411F582E43400F567
:103213008375F002EF12470AE0FEA3E0FFF5828E0A
:1032230083740193B401061265F10237879000009D
:10323300E0C43354E02411F582E43400F583C08301
:10324300C0829002D1E0D082D08375F00212470A87
:10325300E0FEA3E0FFF5828E837401936402704065
:103263001265F1900310E0FF900000E0C43354E0D6
:103273002411F582E43400F583C083C0829002D127
:10328300E0D082D08375F00212470AE0FCA3E0F598
:10329300828C83740393FEEF4E900310F002378702
:1032A300900000E0C43354E02411F582E43400F5C7
:1032B30083C083C0829002D1E0FFD082D08375F0B7
:1032C3000212470AE0FCA3E0FDF5828C83740193AC
:1032D300640370559002CEE06003023787A3E06079
:1032E30003023787A3E0600302378774D52FF58283
:1032F300E43401F583E060030237879002D1E004F0
:1033030090029EF0ED2403FEE43C9002A2F0A3CED3
:10331300F0E490029CF0A3F09002C07402F09002DB
:10332300BF14F0123CB6023787900000E0C4335458
:10333300E02411F582E43400F583C083C082900257
:10334300D1E0D082D08375F00212470AE0FEA3E0F9
:10335300F5828E83740193FF64046008EF64056053
:10336300030234F49002D1E0FF24D5F582E4340162
:10337300F583E0700D74012FF582E43400F5837456
:1033830002F0900000E0C43354E02411F582E434E9
:1033930000F583C083C0829002D1E0D082D08375D0
:1033A300F00212470AE0FEA3E02402FFE43E8F820C
:1033B300F583E493FE740193FFE4FCFDFB7A80F94B
:1033C300F8124555ECC0E0EDC0E0EEC0E0EFC0E020
:1033D300900111E0FEA3E024FAF582EE3401F583B7
:1033E300E493FE740193FFCBEFCBCAEECAE4F9F882
:1033F300D0E0FFD0E0FED0E0FDD0E0FC12703190D1
:1034030002D2EEF0A3EFF0900000E0C43354E024C6
:1034130011F582E43400F583C083C0829002D1E0C9
:10342300D082D08375F00212470AE0FEA3E02404A1
:10343300FFE43E8F82F583E493FE740193FFE4FC83
:10344300FDFB7A80F9F8124555ECC0E0EDC0E0EEE3
:10345300C0E0EFC0E0900111E0FEA3E024FCF582A0
:10346300EE3401F583E493FE740193FFCBEFCBCAF3
:10347300EECAE4F9F8D0E0FFD0E0FED0E0FDD0E002
:10348300FC1270319002D4EEF0A3EFF09002D2E080
:10349300FCA3E0FDCFEDCF900307F0ECA3F0900287
:1034A300D4E0FCA3E0FDCFEDCF900309F0ECA3F053
:1034B300900000E0C43354E02411F582E43400F5B5
:1034C30083C083C0829002D1E0FFD082D08375F0A5
:1034D3000212470AE0FCA3E0F5828C83740193B4E3
:1034E3000507900305E04401F0900306EFF002376F
:1034F30087900000E0C43354E02411F582E43400E3
:10350300F583C083C0829002D1E0FFD082D083755F
:10351300F00212470AE0FCA3E0F5828C8374019366
:10352300640660030235FC74039320E703023787C4
:103533009002A8E0F4600302378774D52FF582E484
:103543003401F583E06003023787900000E0C43361
:1035530054E02411F582E43400F583C083C08290E3
:1035630002D1E0D082D08375F00212470AE0FCA3B7
:10357300E0FDF5828C837402939002A6F090000024
:10358300E0FF049002A4F074132FF582E43401F5F4
:1035930083E09002D6F08D828C83740393FF126ACA
:1035A30003900000E02413F582E43401F583E02462
:1035B30004FF9002D6E0FEC3EF9E5403FF70069013
:1035C30002D1E0802DEFB4010A9002D1E0907A5746
:1035D30093801FEFB4020B9002D1E0FFC374109FDE
:1035E3008010EF640360030237909002D1E0907A79
:1035F30067939002A8F0023790900000E0C4335420
:10360300E02411F582E43400F583C083C082900284
:10361300D1E0FFD082D08375F00212470AE0FCA309
:10362300E0FDF5828C83740193640760030237879E
:1036330074D52FF582E43401F583E0600302378704
:103643008D828C8374039330E0030237879002D119
:10365300E02401F582E43400F583E04402F0EF0254
:10366300375C9002D1E0FF24D5F582E43401F58381
:10367300E0FE7003023787900000E0C43354E02477
:1036830011F582E43400F58375F002EF12470AE086
:10369300FCA3E0F5828C83740193FFB40519EE70EB
:1036A300030237879002D1E02401F582E43400F568
:1036B300837401F0023787EF64067041900000E0E5
:1036C300C43354E02411F582E43400F583C083C08D
:1036D300829002D1E0D082D08375F00212470AE0D3
:1036E300FEA3E0F5828E83740393FF30E703023772
:1036F300879002A874FFF0126A03023787900000D4
:10370300E0C43354E02411F582E43400F583C0832C
:10371300C0829002D1E0FFD082D08375F0021247BD
:103723000AE0FCA3E0F5828C83740193FE640770C6
:103733004C74039330E03374012FF582E43400F5C5
:1037430083E0FF20E1249002D1E0FD2401F582E42F
:103753003400F583EF4402F0ED25E0241BF582E409
:103763003401F583E4F0A3F0801A9002D1E0240140
:10377300F582E43400F583E054FDF08007EEB408ED
:10378300037F01229002D1E004F0023185E490022C
:10379300D1F09002D1E0FFC3941040030239AE9000
:1037A3000000E0C43354E02411F582E43400F583CF
:1037B30075F002EF12470AE0FEA3E0F5828E8374F0
:1037C3000193FF64046008EF640560030239A59068
:1037D3000000E0C43354E02411F582E43400F5839F
:1037E300C083C0829002D1E0D082D08375F00212F0
:1037F300470AE0FEA3E0F5828E83740393FF64011E
:103803006008EF640260030239A5900000E0C4334E
:1038130054E02411F582E43400F583C083C0829020
:1038230002D1E0D082D08375F00212470AE0FEA3F2
:10383300E02402FFE43E8F82F583E493FE74019358
:10384300FFE4FCFDFB7A80F9F8124555ECC0E0ED8E
:10385300C0E0EEC0E0EFC0E0900111E0FEA3E02481
:10386300FAF582EE3401F583E493FE740193FFCB02
:10387300EFCBCAEECAE4F9F8D0E0FFD0E0FED0E027
:10388300FDD0E0FC1270319002D2EEF0A3EFF09085
:103893000000E0C43354E02411F582E43400F583DE
:1038A300C083C0829002D1E0D082D08375F002122F
:1038B300470AE0FEA3E02404FFE43E8F82F583E49D
:1038C30093FE740193FFE4FCFDFB7A80F9F8124543
:1038D30055ECC0E0EDC0E0EEC0E0EFC0E0900111B8
:1038E300E0FEA3E024FCF582EE3401F583E493FECD
:1038F300740193FFCBEFCBCAEECAE4F9F8D0E0FF33
:10390300D0E0FED0E0FDD0E0FC1270319002D4EEA6
:10391300F0A3EFF09002D2E0FCA3E0FDCFEDCF9057
:103923000307F0ECA3F09002D4E0FCA3E0FDCFED9D
:10393300CF900309F0ECA3F09002D1E0FF900306CF
:10394300F0900000E0C43354E02411F582E4340025
:10395300F58375F002EF12470AE0FEA3E0F5828ECD
:1039630083740393640270240493900305B40506DF
:10397300E04401F08004E054FEF09002D1E0240121
:10398300F582E43400F5837403F0801FE4900305AB
:10399300F09002D1E02401F582E43400F583E4F0F1
:1039A30080099002D1E004F0023795E49002D7F049
:1039B3009002D1F09002D1E0FFC394104003023B88
:1039C30097900000E0C43354E02411F582E43400FE
:1039D300F58375F002EF12470AE0FEA3E0F5828E4D
:1039E3008374019364076003023B8E9001FDE0FC46
:1039F300A3E0FDA3E0FEA3E0FF90027EE0F8A3E0D6
:103A0300F9A3E0FAA3E0FBD312469640369002D125
:103A1300E0FF25E0241BF582E43401F583E4F0A301
:103A2300F074012FF582E43400F583E054FBF09049
:103A330002D1E02401F582E43400F583E054FDF083
:103A4300023B8E9002D1E0FF2401F582E43400F5BD
:103A530083E020E103023B8E900000E0C43354E096
:103A63002411F582E43400F58375F002EF12470A5E
:103A7300E0FEA3E0FF2404FDE43E8D82F583E4939E
:103A8300FC7401934C70061265F1023B579002D10E
:103A9300E0FF2401F582E43400F583E0FE30E21117
:103AA30074012FF582E43400F583EE54FBF0023BFE
:103AB300579001FDA3A3E0FEA3E0FF9002D1E02510
:103AC300E0241BF582E43401F583E0FCA3E0FDC3AD
:103AD300EF9DFFEE9CFE900000E0C43354E0241100
:103AE300F582E43400F583C083C0829002D1E0D034
:103AF30082D08375F00212470AE0FCA3E0FD2404A0
:103B0300FBE43C8B82F583E493FA740193D39FEA3D
:103B13009E50419002D1E0FF8D828C83740293FD0D
:103B2300EF2403FF1266029001FDA3A3E0FEA3E0CE
:103B3300FF9002D1E0FD25E0241BF582E43401F57A
:103B430083EEF0A3EFF074012DF582E43400F583E6
:103B5300E04404F0900000E0C43354E02411F58203
:103B6300E43400F583C083C0829002D1E0D082D0D8
:103B73008375F00212470AE0FEA3E0F5828E837498
:103B8300039330E0069002D7E004F09002D1E00402
:103B9300F00239B79001FDE0FCA3E0FDA3E0FEA332
:103BA300E0FF90027E1246CD9002D7E09002A0F093
:103BB300E4FF120066E4FF12544290029EE0700399
:103BC30012606A9002D17401F09002D1E0FF240FD9
:103BD300F582E43403F583E0FE74A92FF582E4341F
:103BE30002F583E06E60089002FE7401F0800A9093
:103BF30002D1E004F0E0B416D09002A5E0FF9003F8
:103C030000E06F6002801D9002D17402F09002D137
:103C1300E0FFC39405501D74FF2FF582E43402F5D1
:103C230083E060089003257401F080089002D1E0DE
:103C330004F080D99002D17403F09002D1E0FFC365
:103C43009407501E74042FF582E43403F583E0F4E3
:103C530060089003267401F080089002D1E004F01C
:103C630080D89002A7E0FF90030DE06F60069003F9
:103C7300287401F09002A8E0F4601D9002FEE07049
:103C830012900325E0700C900326E0700690032841
:103C9300E06005E49002A6F090029FE0B40111E415
:103CA300900328F0900326F0900325F09002FEF095
:103CB3007F00229002D87403F09001FDE0FCA3E0A2
:103CC300FDA3E0FEA3E0FF900286E0F8A3E0F9A3E2
:103CD300E0FAA3E0FBD3124696400A900282124612
:103CE300D9000000009001FDE0FCA3E0FDA3E0FE8D
:103CF300A3E0FF9002861246CD9001FDE0FCA3E015
:103D0300FDA3E0FEA3E0FF900282E0F8A3E0F9A3A5
:103D1300E0FAA3E0FBD3124696400C90029F740195
:103D2300F0E49002BFF022E490029FF09002DDF0F5
:103D3300A3F090029EE0FF603B900000E075F0204E
:103D4300A4240FF582E5F03400F58375F002EF1239
:103D5300470AE0FEA3E0FFF5828E83740293FD7CA5
:103D630000EF2403FFE43EFEEF2DFFEC3E9002DD67
:103D7300F0A3EFF09002D8E0C3941640030242C8C8
:103D83009002DDE0FEA3E0FF9002A2E0FCA3E0FDD1
:103D9300C39FEC9E4004E402417F8D828C83E493B5
:103DA300FFB4EA37ED2401FBE43C8B82F583E49313
:103DB300FE54019002BFF0EE30E10F9002A3E02425
:103DC30002F09002A2E03400F0229002A3E004F09B
:103DD30070069002A2E004F00242B7EF64EB6003C6
:103DE300023F07ED2401FFE43C8F82F583E493FB5C
:103DF300B4021EED2404FEE43C90028AF0A3CEF04C
:103E03009002A3E02404F09002A2E03400F0023D0B
:103E13007790029DE004F0700690029CE004F0EDC0
:103E23002402FFE43C8F82F583E493FEED2403FD3B
:103E3300E43C8D82F583E493FDEDFF9002D9EEF02F
:103E4300A3EFF0EB600B9002C0E030E20454036098
:103E5300339002A2E0FEA3E02401FFE43E8F82F54B
:103E630083E49370079002C0E020E2189002D9E047
:103E7300FEA3E0FF4E601490029CE0FCA3E0C39F0E
:103E8300EC9E40079002C0E04480F09002C0E0FF47
:103E930030E7279002A3E02403F09002A2E034006D
:103EA300F0EF547B9002C0F0E490029CF0A3F07416
:103EB300FF90028AF0A3F00242B790028AE0FEA3C9
:103EC300E0FFF47002EEF460069002A2EE80309000
:103ED3000000E075F020A4240FF582E5F03400F52E
:103EE30083C083C08290029EE0D082D08375F002AB
:103EF30012470AE0FEA3E02403FFE43E9002A2F08F
:103F0300A3EFF0229002A2E0FEA3E0F5828E83E409
:103F13009364FE707C9002A2E0FCA3E0FD2401FF09
:103F2300E43C8F82F583E493FEED2402FDE43C8DB3
:103F330082F583E493FDEDFF9002E0EEF0A3EFF052
:103F4300E4FCFD9001FDE0F8A3E0F9A3E0FAA3E0AF
:103F53002FFFEA3EFEED39FDEC38FC90028212465B
:103F6300CD9002A3E02402F09002A2E03400F0908E
:103F730002DDE0FEA3E0FF9002A2E475F00112442B
:103F8300BDFCEF65F07002EE6C60030242C80241B3
:103F93007F9002A2E0FEA3E0F5828E83E493FC64AB
:103FA300FD70619002D8E0FFD3940340030242C83E
:103FB300900300E060030242C89002A275F0011270
:103FC30044BD85F082F583E493FD1266029002A25C
:103FD300E475F0011244BD85F082F583E493900308
:103FE30010F09002DDE0FEA3E0FF9002A2E475F082
:103FF300011244BDFAEF65F07002EE6A60030242FB
:10400300C802417FEC64ED60030241849002D8E072
:10401300D3940340030242C8900300E060030242CA
:10402300C89002A2E0FCA3E0FD2401FFE43C8F82E0
:10403300F583E493FEED2402FDE43C8D82F583E4F5
:1040430093FDEDFF9002D9EEF0FCA3EFF0CCCCCDC5
:10405300CD9002A2E0FAA3E0FB2403FFE43A8F82AF
:10406300F583E493FEEB2404FBE43A8B82F583E4CB
:1040730093FBEBFF9002DBEEF0A3EFF0CFEDCFCE9F
:10408300ECCEE4FCFDFB7A80F9F8124555ECC0E078
:10409300EDC0E0EEC0E0EFC0E0900111E0FEA3E070
:1040A30024FAF582EE3401F583E493FE740193FF61
:1040B300CBEFCBCAEECAE4F9F8D0E0FFD0E0FED0F4
:1040C300E0FDD0E0FC1270319002D9EEF0A3EFF0E6
:1040D300A3E0FEA3E0FFE4FCFDFB7A80F9F81245C0
:1040E30055ECC0E0EDC0E0EEC0E0EFC0E0900111A0
:1040F300E0FEA3E024FCF582EE3401F583E493FEB5
:10410300740193FFCBEFCBCAEECAE4F9F8D0E0FF1A
:10411300D0E0FED0E0FDD0E0FC1270319002DBEE87
:10412300F0A3EFF09002D9E0FCA3E0FDCFEDCF9038
:104133000307F0ECA3F09002DBE0FCA3E0FDCFED7E
:10414300CF900309F0ECA3F0900305E04401F09055
:1041530002A3E02404F09002A2E03400F09002DD18
:10416300E0FEA3E0FF9002A2E475F0011244BDFC5F
:10417300EF65F07002EE6C60030242C890029EF09D
:10418300229002A2E0FEA3E0F5828E83E49364FA18
:1041930060030242369002DF7403F0F09002D8E02D
:1041A300FC9002DFE0FFC39C502A9002A2E0FAA336
:1041B300E0F5828A83E493FE740F2FF582E43403DF
:1041C300F583E06E70069002DFF080089002DFE076
:1041D30004F080C89002DFE070030242C89003003D
:1041E300E060030242C8900310E060199002D8E037
:1041F300FF04F09002A2E475F0011244BD85F08241
:10420300F5830242B1EC640360030242C89002D812
:10421300E0FF04F09002A2E475F0011244BD85F0C2
:1042230082F583E493FD126602900310E04402F0EA
:104233000242B79002DF7403F0F09002D8E0FC90E2
:1042430002DFE0FFC39C502A9002A2E0FAA3E0F54C
:10425300828A83E493FE740F2FF582E43403F5839B
:10426300E06E70069002DFF080089002DFE004F059
:1042730080C89002DFE0604D900300E07047900338
:1042830010E070149002D8E0FF04F09002A2E0FA6C
:10429300A3E0F5828A838016ECB403299002D8E068
:1042A300FF04F09002A2E0FCA3E0F5828C83E49388
:1042B300FD1266029002A3E004F070069002A2E0F1
:1042C30004F0023D7722E709F608DFFA8046E709A2
:1042D300F208DFFA803E88828C83E709F0A3DFFAD5
:1042E3008032E309F608DFFA8078E309F208DFFA9F
:1042F300807088828C83E309F0A3DFFA806489826B
:104303008A83E0A3F608DFFA805889828A83E0A3D0
:10431300F208DFFA804C80D280FA80C680D48069AC
:1043230080F28033801080A680EA809A80A880DAA9
:1043330080E280CA803389828A83ECFAE493A3C83B
:10434300C582C8CCC583CCF0A3C8C582C8CCC583FD
:10435300CCDFE9DEE7800D89828A83E493A3F60844
:10436300DFF9ECFAA9F0EDFB2289828A83ECFAE00B
:10437300A3C8C582C8CCC583CCF0A3C8C582C8CCAA
:10438300C583CCDFEADEE880DB89828A83E493A3FA
:10439300F208DFF980CC88F0EF60010E4E60C3882D
:1043A300F0ED2402B4040050B9F582EB2402B40406
:1043B3000050AF232345822390431973BB010CE5BF
:1043C3008229F582E5833AF583E0225006E92582C6
:1043D300F8E622BBFE06E92582F8E222E58229F50A
:1043E30082E5833AF583E49322BB010689828A83BB
:1043F300F0225002F722BBFE01F322F8BB010DE5C8
:104403008229F582E5833AF583E8F0225006E9250F
:1044130082C8F622BBFE05E92582C8F222EF8DF0A1
:10442300A4A8F0CF8CF0A428CE8DF0A42EFE22BC3D
:10443300000BBE0029EF8DF084FFADF022E4CCF831
:1044430075F008EF2FFFEE33FEEC33FCEE9DEC9896
:104453004005FCEE9DFE0FD5F0E9E4CEFD22EDF81C
:10446300F5F0EE8420D21CFEADF075F008EF2FFFBF
:10447300ED33FD4007985006D5F0F222C398FD0FA7
:10448300D5F0EA22C2D5EC30E709B2D5E4C39DFDED
:10449300E49CFCEE30E715B2D5E4C39FFFE49EFE37
:1044A300124432C3E49DFDE49CFC80031244323089
:1044B300D507C3E49FFFE49EFE22C5F0F8A3E028DE
:1044C300F0C5F0F8E582158270021583E038F0221A
:1044D300BB010A89828A83E0F5F0A3E022500687B4
:1044E300F009E71922BBFE07E3F5F009E319228976
:1044F300828A83E493F5F074019322BB01078982D6
:104503008A830244BD500B09C5F027F7C5F019375C
:10451300F722BBFE0D09F8E325F0F3C5F019E338E4
:10452300F322F889828A8374019325F0C5F0F8E4B5
:10453300933822BB010A89828A83F0E5F0A3F02233
:104543005006F709A7F01922BBFE06F3E5F009F3BD
:104553001922E88FF0A4CC8BF0A42CFCE98EF0A4F4
:104563002CFC8AF0EDA42CFCEA8EF0A4CDA8F08BF1
:10457300F0A42DCC3825F0FDE98FF0A42CCD35F037
:10458300FCEB8EF0A4FEA9F0EB8FF0A4CFC5F02EC8
:10459300CD39FEE43CFCEAA42DCE35F0FDE43CFC31
:1045A3002275F008758200EF2FFFEE33FECD33CD79
:1045B300CC33CCC58233C5829BED9AEC99E58298C6
:1045C300400CF582EE9BFEED9AFDEC99FC0FD5F0C5
:1045D300D6E4CEFBE4CDFAE4CCF9A88222B800C13C
:1045E300B90059BA002DEC8BF084CFCECDFCE5F0A9
:1045F300CBF97818EF2FFFEE33FEED33FDEC33FCF0
:10460300EB33FB10D703994004EB99FB0FD8E5E498
:10461300F9FA227818EF2FFFEE33FEED33FDEC337A
:10462300FCC933C910D7059BE99A4007EC9BFCE909
:104633009AF90FD8E0E4C9FAE4CCFB2275F010EF45
:104643002FFFEE33FEED33FDCC33CCC833C810D788
:10465300079BEC9AE899400AED9BFDEC9AFCE899DC
:10466300F80FD5F0DAE4CDFBE4CCFAE4C8F922C3C1
:10467300E49FFFE49EFEE49DFDE49CFC22EB9FF59A
:10468300F0EA9E42F0E99D42F0EC6480C8648098B1
:1046930045F022EB9FF5F0EA9E42F0E99D42F0E8F7
:1046A3009C45F022E8600FECC313FCED13FDEE1301
:1046B300FEEF13FFD8F122E8600FEFC333FFEE33B1
:1046C300FEED33FDEC33FCD8F122ECF0A3EDF0A3C7
:1046D300EEF0A3EFF022A8828583F0D083D082127C
:1046E30046F01246F01246F01246F0E473E493A348
:1046F300C583C5F0C583C8C582C8F0A3C583C5F00B
:10470300C583C8C582C822A42582F582E5F0358316
:10471300F58322EC8EF0A4CCC5F0CCCDF8EFA4CE7B
:10472300C5F02DFDE43CFCE8A42EC8C5F03DFDE436
:104733003CFCEFA4FFE5F028FEE43DFDE43CFC2255
:10474300EF4E6012EF60010EEDBB010B89828A838D
:10475300F0A3DFFCDEFA2289F05007F709DFFCA99A
:10476300F022BBFEFCF309DFFCA9F022BB010689A2
:10477300828A83E0225002E722BBFE02E32289827F
:104783008A83E49322E0FCA3E0FDA3E0FEA3E0FF21
:1047930022F8E0FBA3A3E0F925F0F0E5821582708F
:1047A300021583E0FA38F022EBF0A3EAF0A3E9F074
:1047B30022D083D082F8E4937012740193700DA316
:1047C300A393F8740193F5828883E4737402936866
:1047D30060EFA3A3A380DFE51724D1F582E43402BD
:1047E300F583E00517229002CE3007039002D1E44F
:1047F30075F00112479402476F2000E97F2ED20023
:104803008018EF540F2490D43440D4FF30040BEFBE
:1048130024BFB41A0050032461FFE5186002151881
:10482300051BE51B7002051A30070E9002CEE475D6
:10483300F001124794EF0243EC0272487403D2076B
:104843008003E4C207F5179002CE1247ABE4F518D4
:10485300F51AF51BE51860077F2012481D80F575D2
:1048630019FFC201C200C202C203C205C206C208C6
:104873001247E9FF700D3007057F0012482EAF1B6A
:10488300AE1A22B4255FC2D5C2041247E9FF24D071
:10489300B40A00501A75F00A781830D50508B6FF27
:1048A3000106C6A426F620D5047002D20380D924BB
:1048B300CFB41A00EF5004C2E5D204024A2FD2014A
:1048C30080C6D20080C0D20280BCD2D580BAD205C5
:1048D30080B47F2012481D2002077401B5180040E0
:1048E300F11247DAFF12481D024857D208D2068058
:1048F300951247DAFB1247DAFA1247DAF94A4B7094
:104903000679007A4B7BFF20022EE518602A7E0091
:104913008E827583001243BF60060EEE651970F038
:10492300C2D5EBC0E0EAC0E0E9C0E0EE124A76D0BF
:10493300E0F9D0E0FAD0E0FB12476FFF60AAEBC0CA
:10494300E0EAC0E0E9C0E012481DD0E02401F9D05C
:10495300E03400FAD0E0FBE5190460DCD519D98016
:10496300877BFF7A4A7972D202809C791080027920
:1049730008C206C2088008D2D5790A8004790AC21F
:10498300D5E519047002F519E4FAFDFEFF1247DAC2
:10499300FC7B082001131247DAFD7B1030000A125A
:1049A30047DAFE1247DAFF7B20EC3382D592D550EB
:1049B30013C3E43000069FFFE49EFEE42001039D41
:1049C300FDE49CFCE4CBF8C201EC700CCFCECDCC63
:1049D300E824F8F870F38017C3EF33FFEE33FEEDEE
:1049E30033FDEC33FCEB33FB994002FB0FD8E9EBCF
:1049F300300105F8D0E0C448B201C0E00AEC4D4EE6
:104A03004F78207B0070C2EAB5190040BCC0E012A9
:104A13004A78D0F0D0E0200104C4C0E0C4B201C0A1
:104A2300F0124806D0F0D5F0EB0248571247B448CD
:104A3300F453496E5848C54C48C14249724F497AAC
:104A430044497A4948DA43498055496446496445AB
:104A53004964474B205048C92D48CD2E48F02B4878
:104A6300D12348EE204B092A488948000048E83FF3
:104A73003F3F00790AA2D5200314300509B910027B
:104A83000404B9080104A2D520060250010420023F
:104A9300689202B518005034C0E07F203003197FBC
:104AA30030A20272067205500F124ACFC202C2062A
:104AB300C205C2087F30800F300503E9C0E0124809
:104AC3001D300503D0E0F9D0E0B518CC3005177FD1
:104AD30030B9100C12481D7F583004077F788003CB
:104AE300B9080312481D3002057F2D02481D7F209F
:104AF3002008F87F2B2006F322920280CF286E75C0
:104B03006C6C2900D2011247DA3001F8C20178181F
:104B130030D50108F60248892D504349581247DA27
:104B23002403B405004001E4904B1B9312480E7418
:104B33003A12480ED20375180402496EE4FD75F06B
:104B430002EDA42400F582E5F034DAF583E493FA68
:104B5300740193FBED25E0FFE433FE74632FF582CC
:104B630074013EF583EAF0A3EBF075F002EDA424A3
:104B730004F582E5F034DAF583E493FA740193FBE8
:104B8300ED25E0FFE433FE745F2FF58274013EF5FB
:104B930083EAF0A3EBF075F002EDA42408F582E5B7
:104BA300F034DAF583E493FA740193FBED25E0FF27
:104BB300E433FE74532FF58274013EF583EAF0A3C8
:104BC300EBF074632FF58274013EF583E0FEA3E0FE
:104BD300C394FFEE940F4015ED25E0FFE433FE741C
:104BE300632FF58274013EF583E4F0A3F0ED25E035
:104BF300FFE433FE745F2FF58274013EF583E0FE1C
:104C0300A3E0FF4E6009D3EF94FFEE940F4018ED3D
:104C130025E0FFE433FE745F2FF58274013EF583D4
:104C2300740FF0A374FFF0ED25E0FFE433FE745F2F
:104C33002FF58274013EF583E0FAA3E0FB74632F42
:104C4300F58274013EF583E0FEA3E0C39BEE9A4038
:104C530026ED25E0FFE433FE74632FF58274013EF5
:104C6300F583E4F0A3F0745F2FF58274013EF583BE
:104C7300740FF0A374FFF0ED25E0FFE433FE7453EB
:104C83002FF58274013EF583E0FEA3E0FF4E600939
:104C9300C3EF94FFEE940F4017ED25E0FFE433FEDE
:104CA30074532FF58274013EF5837408F0A3E4F086
:104CB300ED25E0FFE433FE74632FF58274013EF5C6
:104CC30083E0FAA3E0FB74532FF58274013EF5836E
:104CD300E0FEA3E0D39BEE9A402AED25E0FFE43308
:104CE300FE745F2FF58274013EF583E0FAA3E0FBC7
:104CF30074532FF58274013EF583E0FEA3E0C39B5A
:104D0300EE9A4036ED25E0FFE433FE74632FF5821F
:104D130074013EF583E4F0A3F074532FF58274011C
:104D23003EF5837408F0A3E4F0745F2FF5827401F9
:104D33003EF583740FF0A374FFF0ED25E0FFE43339
:104D4300FE74632FF58274013EF583E0FAA3E0FB62
:104D530074532FF58274013EF583E0FEA3E0C39BF9
:104D6300FBEE9AFAED25E0FFE433FE745B2FF58248
:104D730074013EF583EAF0A3EBF074532FF58274CC
:104D8300013EF583E0FAA3E0FB745F2FF582740123
:104D93003EF583E0FEA3E0C39BFBEE9AFAED25E02C
:104DA300FFE433FE74572FF58274013EF583EAF076
:104DB300A3EBF00DED64026003024B4190DA10E4C3
:104DC30093F51490DA14E493FF13920FEFC31313C4
:104DD300921022E49002D2F0A20A33A3F0A20DE4CF
:104DE30033A3F0A209E433A3F09002A0E07F0060B4
:104DF300027F019002D6EFF090029EE07F006002F6
:104E03007F019002D7EFF0900111E0FEA3E024F9B7
:104E1300F582EE3401F583E493C4540F607390027A
:104E2300C1E0F8A3E0F9A3E0FAA3E0FB9001FDE001
:104E3300FCA3E0FDA3E0FEA3E0C39BFFEE9AFEED1F
:104E430099FDEC98C0E0EDC0E0EEC0E0EFC0E0906B
:104E53000111E0FEA3E024F9F582EE3401F583E4C9
:104E630093C4540F25E0249AF582E43478F583E45F
:104E730093FE740193FFCBEFCBCAEECAE4F9F8D0EB
:104E8300E0FFD0E0FED0E0FDD0E0FCD31246965028
:104E930017900111E0FEA3E024F9F582EE3401F549
:104EA30083E493540FFF700890021B74FFF0804655
:104EB300EF6043C3940440028037EF14FDC8EDC88C
:104EC3007E007401088005C333CE33CED8F9FF903A
:104ED300021BE0FCC39FEE6480F87480984012C804
:104EE300EDC87401088002C333D8FCFFC3EC9F8074
:104EF30001E490021BF0E49002CEF09002CEE0FFBA
:104F0300C394034003025035E0FE900111E0FCA37B
:104F1300E0FD24F6F582EC3401F583E5822EF5827B
:104F2300E43583F583E493FB540F24D2F582E43410
:104F330002F583E0FAEBC41313135401FBEA6BFB92
:104F430074CF2EF582E43402F583EBF074CF2FF5A2
:104F530082E43402F583E0604BED24F9F582EC340E
:104F630001F583E493540F703B9002CEE024CFF518
:104F730082E43402F583C083C082E0FF9002CEE076
:104F8300FEED24F3F582EC3401F583E5822EF58200
:104F9300E43583F583E493FEEF8EF0A4D082D083CF
:104FA300F002502C9002CEE0FBED24F3F582EC34BA
:104FB30001F583E5822BF582E43583F583E493FDE4
:104FC3007C0090021BE0F9FFC374FF9FFFE4940091
:104FD300FE12442074CF2BF582E43402F583E0FD06
:104FE300124420CCEECCCDEFCD9002CEE0FF900169
:104FF30011E0FAA3E024F0F582EA3401F583E582B7
:105003002FF582E43583F583E49389F0A42DFFEC37
:1050130035F0FE7C007DFF1244329002CEE024CFB7
:10502300F582E43402F583EFF09002CEE004F0025F
:105033004EFE9002CFE0F5A5A3E0F59AA3E0F5A418
:1050430022011E00011C00C10F011F00011D00C130
:1050530010410351004103520041030B0041030E71
:1050630000410327004102FE0041032500410326BE
:10507300004103280056030F010000000000000058
:1050830000000000000000000000000000004502D6
:10509300FF020000000047030403100100000000AA
:1050A30042030C040041032900C10EC10BC10CC112
:1050B3000AC10DC1094401FD00000000011402549E
:1050C30001530800080008000800080008000FFF4B
:1050D3000FFF000000004401A70800080041013B46
:1050E30001021000000215000A021227104401AB4E
:1050F3000000000042013E00004201E800004202BD
:105103007CDC0050026C0000000000000000000086
:1051130000000000000050025C00000000000000DE
:1051230000000000000000000050024C00010203D8
:105133000405060708090A0B0C0D0E0F6030021C4C
:10514300000000000000000000000000000000005C
:10515300000000000000000000000000000000004C
:10516300000000000000000000000000000000003C
:1051730020302400000000000000000000000000B8
:10518300000000000000000000000000000000001C
:10519300000000000000000000000000000000000C
:1051A30000000042021400004102160041021700F1
:1051B300410218004102190041021A0041021B007A
:1051C30041000000420111F2004102A5004102A783
:1051D300004102A0004402C10000000041029E0001
:1051E3004202A2000042029C00004102C0004102B0
:1051F300BF0041029F004102A8FF4102A1004102FA
:10520300A6004102A40044027E0000000044028282
:10521300000000004402860000000042028AFFFFF3
:1052230042028C000042028E0000420290000042C3
:1052330002920000420294000042029600004202E1
:1052430098000042029A000000E49002CEF0A3749A
:10525300FFF0A3F0A3F0A37401F0439D209001E7B6
:10526300E06009900152E070030254339001E6E0DC
:105273006009900151E070030254339001E5E0604E
:1052830009900150E07003025433E4F5FF12650CFA
:105293007F011268CF12650C7F021268CF1261BDC5
:1052A3009002D2E0251CF0E4F51DF51CE0C36480F8
:1052B3009481501275A5FF7401F07F027E00127273
:1052C300DAE4F5A5801B9002D2E0D36480948A408F
:1052D30010759AFF740AF07F027E001272DAE4F509
:1052E3009AE49002CEF0FFEF6404602EEF640C604A
:1052F3002974402FF582E43401F583E0FE601274D3
:10530300D52FF582E43401F583E070059002CFEFE9
:10531300F0EE60069002CEE004F00FEFB410C890F8
:1053230002CEE07004A374FFF09002CFE0FEF460BD
:105333006674402EF582E43401F583E07022FFEFBA
:1053430064046017EF640C601274402FF582E43438
:1053530001F583E060059002CFEFF00FEFB410DFAB
:105363009002CFE0FC907AF693FE90014CE0FDEEC4
:105373002D9002D0F0900144E0FF600FECC394083D
:1053830050099002D0E0240CF08012EF600F9002DD
:10539300D0E024F4F080069002D074FFF09002D0A5
:1053A300E0FFA3E06F7003025260EFC39412504F0B
:1053B3009002D0E025E02477F582E4347AF583E4A3
:1053C30093F512740193F513AE12FFCBEFCBCAEE34
:1053D300CAE4F9F89002D2E0FF3395E0FEFDFC1237
:1053E300455578081246A7E47B03FAF9F81245E01D
:1053F3008E158F16E4FD7F01126B1CD2A9802890B5
:1054030002D0E0FFD394305013EF907AC593F59E0A
:105413009002D2E0F59CC2A97D018006E4F59CC20E
:10542300A9FD7F01126B1C9002D0E0A3F002526031
:10543300E4F59CC2A9FD7F01126B1C759E2022E43A
:105443009002E2F0EF601EE490029AF0900298F06E
:10545300900297F0900296F09002E2F090029BF097
:1054630090029AF022900296E0FF900111E0FCA3D3
:10547300E024E1F582EC3401F583E49325E014FEA6
:10548300851CF0A4FDC3EF9D900296F0E4F51CA3E8
:10549300E0FFEE851DF0A4FEC3EF9EF0E4F51D9042
:1054A30002E3F09002E3E0FF2498F582E43402F58E
:1054B30083E0FE74962FF582E43402F583E0FFD394
:1054C300EE6480F8EF64809840089002E27401F083
:1054D3008018C3EE6480F8EF64809850089002E26D
:1054E3007402F08005E49002E2F0900111E0FEA363
:1054F300E0F5828E83C083C0829002E3E0FFD08216
:10550300D08375F00812470AE58224E0F582E5832B
:105513003401F583E493540F1460030255F99002A8
:10552300E2E0FE7003025615749A2FF582E434020A
:10553300F583E060299002E3E0FF249AF582E434E6
:1055430002F583E4F074982FF582E43402F583E0E6
:10555300FFEE25E024FDFEC3EF9EF00256159002F8
:10556300E2E0FF900111E0FCA3E0F5828C83C083AD
:10557300C0829002E3E0D082D08375F00812470A1C
:10558300E58224E2F582E5833401F583E5822FF594
:1055930082E43583F583E493FD60057FFF126602A1
:1055A300900310E0FF9002E2E0FE900111E0FCA303
:1055B300E0F5828C83C083C0829002E3E0FDD08259
:1055C300D08375F00812470AE58224E5F582E58366
:1055D3003401F583E5822EF582E43583F583E49384
:1055E300FEEF4E900310F0749A2DF582E43402F529
:1055F300837401F0801C9002E3E0FF2496F582E4BB
:105603003402F583E0FE74982FF582E43402F583C7
:10561300EEF09002E3E004F0E0C39402500302547E
:10562300A6229002ECEEF0A3EFF0A3ECF0A3EDF0D2
:10563300A3EAF0A3EBF09002ECE0FAA3E0FB7C001A
:105643007DA7CFEBCFCEEACE1244327C007D06128B
:105653004432CFEDCF9002FBEFF0E075F0A7A4FF4B
:10566300C3EB9FFFEA95F0FECBEFCBCAEECA9002E5
:10567300EEA3E0FFA3A3E0FDCEEDCEC39F9002FC1B
:10568300F09002EEE0FEA3E0CDEBCDCCEACC1244E9
:10569300207C007DA7124432A3A3E0FDCEEDCEC350
:1056A3009F9002FDF0CEEACECFEBCFC374A79FFF4E
:1056B300E49EFE9002EEE0FCA3E0FD1244207C0099
:1056C3007DA7124432A3A3E0FDCEEDCEC39FFF908E
:1056D30002FBE0FD70119002F2E0FBA3E0FAA3E00D
:1056E300F9EE1243EC801EEDB4012E9002FDE0FFB3
:1056F3009002F2E0FBA3E0FAA3E0F9EF1243EC908F
:1057030002F0A3E0FF9002F5E0FBA3E0FAA3E0F9C7
:10571300EF1243EC9002FC80629002FBE0FEB402C5
:105723002AA3E0FD9002F2E0FBA3E0FAA3E0F9ED87
:105733001243EC9002F0A3E0FD9002F5E0FBA3E03E
:10574300FAA3E0F9ED1243EC0257E8EEB40330900C
:1057530002FCE0FF9002F2E0FBA3E0FAA3E0F9EF22
:105763001243EC9002FDE0FF9002F5E0FBA3E0FAA8
:10577300A3E0F9EF1243EC9002F0A3E0FF80669000
:1057830002FBE0FEB4042E9002F2E0FBA3E0FAA3D6
:10579300E0F9EF1243EC9002FCE0FF9002F5E0FB2E
:1057A300A3E0FAA3E0F9EF1243EC9002F0A3E0FDCB
:1057B300CFEDCF8030EEB4053B9002F0A3E0FFA322
:1057C300E0FBA3E0FAA3E0F9EF1243EC9002FCE064
:1057D300FF9002F5E0FBA3E0FAA3E0F9EF1243EC3C
:1057E3009002FDE0FF9002F8E0FBA3E0FAA3E0F9EA
:1057F300EF1243EC229002CEEFF0E4A3F0EFC39458
:105803000A403F9002CEE0FF94125036EF24F6FF99
:10581300EF25E0FEC3E49400FF74F29EFE740812C9
:105823005D2D9002CFEFF09002CEE024F6FF125EE2
:10583300DB9002CFE070030259639002CEE024FEB6
:10584300803B9002CEE0FFC3941E4034EF94265079
:105853002FEF24E2FFEFFEE42400FFEE34DCFE74BE
:1058630004125D2D9002CFEFF07F011222E6900229
:10587300CFE070030259639002CEE024F2FD802949
:105883009002CEE0B4322A1264087B017A067900D2
:105893009002D77401F07F007EDA125D379002CF59
:1058A300EFF070030259637D187F03126F5602599C
:1058B300639002CEE0B46416127308126FEC7F6437
:1058C3007E001272DAE4F5A812002E0259639002E8
:1058D300CEE064656003025963127308126FEC7FB4
:1058E300647E001272DAE4F5A875D8FF75E20690BB
:1058F300035174AAF09003527455F07E007F407DEB
:10590300007B017A06790012474390063E7480F0CB
:10591300A374FEF07B017A0679009002D77401F03C
:10592300E4FFFE125D379002CFEFF0E4F5FFF5A53B
:10593300F59A75A4FF7F207E031272DAE4F5FFF572
:10594300A5759AFFF5A47F207E031272DAE4F5FFB2
:1059530075A5FFF59AF5A47F207E031272DA80CB3A
:105963009002CFE06059E4F5FF75A5FFF59AF5A421
:105973007F96FE1272DAE4F5A5759AFFF5A47F9679
:10598300FE1272DAE4F5A5F59A75A4FF7F96FE126E
:1059930072DA75A5FFE4F59AF5A47F96FE1272DA22
:1059A300E4F5A5759AFFF5A47F96FE1272DAE4F585
:1059B300A5F59A75A4FF7F96FE1272DAE4F5FF222D
:1059C300C2A3C2A1C2A012726F7F057E001272DA57
:1059D300E58720E4077F327E001272DA1262E61254
:1059E30066CB126E5DD2AFC2A77B017D807F0212B0
:1059F300696C7B017D017F0212696C7B017D027FF3
:105A03000212696C7B017D087F0212696C759E200E
:105A1300539DFEE4F59AF5A4F5A57D017F04126B71
:105A23001C7D017F10126B1C7D017F20126B1CE417
:105A3300FF1272AAE4FF1270757F0212707575F27D
:105A4300107B017D017F8C7E0012683043AA04E441
:105A5300FB7D807F0312696C43B324D2E953C9EF02
:105A63007D01E4FF127162E4FDFCFF12712AD28C06
:105A73007F011272F11270F0E4F5FF126BA512654B
:105A83000C7F011268CF126CE0126FEC126CE01203
:105A9300650C7F021268CF90030BE0FF20E7D9600B
:105AA3000A1257F8E490030BF080CD900327E070BF
:105AB30028127290900325E025E0FF9002FEE04F4C
:105AC300FF900326E025E025E04FFF900328E03315
:105AD300333354F84F900327F09001FDA3A3A3E0C1
