:080000000274620277753232CE
:07000B00027C3B010500002F
:100013000200067B017A0679009002EB7401F07FFF
:06002300007ED802641EFD
:0D002B0002000775A15575A1AA43B110226E
:03003B000277D277
:100043000234C1126B8412264DBF0109127D751251
:1000530079BE125E67127CB61257A2E4FF02150244
:1000630002764CEF6013E4900293F0A3F0900291B8
:10007300F0A3F090028F020585900111E0FEA3E04A
:1000830024D5F582EE3401F583E493FD540175F034
:1000930002A424FFFEE5F034FF9002F6F0A3CEF0B5
:1000A300EDC313540175F002A424FFFEE5F034FF01
:1000B300A3F0A3CEF0900163E0FEA3E0FF9001A7BD
:1000C300E0FCA3E0FDD39FEC9E4008CEECCECFED49
:1000D300CF8000D3900160E09F90015FE09E4020BD
:1000E300900163E0FEA3E0FF9001A7E0FCA3E0FD25
:1000F300D39FEC9E4008CEECCECFEDCF800A800894
:1001030090015FE0FEA3E0FF9001A7EEF0A3EFF004
:10011300900165E0FEA3E0FF9001A9E0FCA3E0FDF0
:10012300D39FEC9E4008CEECCECFEDCF8000D39092
:100133000162E09F900161E09E4020900165E0FE36
:10014300A3E0FF9001A9E0FCA3E0FDD39FEC9E4058
:1001530008CEECCECFEDCF800A8008900161E0FE9F
:10016300A3E0FF9001A9EEF0A3EFF0900111E0FEF0
:10017300A3E024D5F582EE3401F583E493131354FD
:100183003F20E00302030A900153E0FEA3E0FF9047
:1001930001A7E0FCA3E0FDC39FEC9E9002F6E0FE06
:1001A3005037A3E0FFEEC0E0EFC0E0900153E0FE64
:1001B300A3E0FFC3ED9FFFEC9EFE3395E0FDFCE45F
:1001C300FB7A10F9F8124A2BECC0E0EDC0E0EEC068
:1001D300E0EFC0E090015B803BA3E0FFEEC0E0EF07
:1001E300C0E0900153E0FEA3E0FF9001A7E0FCA371
:1001F300E0C39FFFEC9EFE3395E0FDFCE4FB7A1029
:10020300F9F8124A2BECC0E0EDC0E0EEC0E0EFC01D
:10021300E0900157E0FEA3E0FFCBEFCBCAEECAE4C8
:10022300F9F8D0E0FFD0E0FED0E0FDD0E0FC127A98
:1002330048CDEFCDCCEECCD0E0FFD0E0FE1248F6B7
:100243009002F6EEF0A3EFF0900155E0FEA3E0FF7D
:100253009001A9E0FCA3E0FDC39FEC9E9002F8E0AF
:10026300FE5037A3E0FFEEC0E0EFC0E0900155E0A1
:10027300FEA3E0FFC3ED9FFFEC9EFE3395E0FDFC84
:10028300E4FB7A10F9F8124A2BECC0E0EDC0E0EE83
:10029300C0E0EFC0E090015D803BA3E0FFEEC0E073
:1002A300EFC0E0900155E0FEA3E0FF9001A9E0FC60
:1002B300A3E0C39FFFEC9EFE3395E0FDFCE4FB7AD5
:1002C30010F9F8124A2BECC0E0EDC0E0EEC0E0EF0D
:1002D300C0E0900159E0FEA3E0FFCBEFCBCAEECA2A
:1002E300E4F9F8D0E0FFD0E0FED0E0FDD0E0FC126E
:1002F3007A48CDEFCDCCEECCD0E0FFD0E0FE124873
:10030300F69002F8020495900153E0FEA3E0FF90FB
:1003130001A7E0FCA3E0FDC39FEC9E9002F8E0FE82
:100323005037A3E0FFEEC0E0EFC0E0900153E0FEE2
:10033300A3E0FFC3ED9FFFEC9EFE3395E0FDFCE4DD
:10034300FB7A10F9F8124A2BECC0E0EDC0E0EEC0E6
:10035300E0EFC0E090015B803BA3E0FFEEC0E0EF85
:10036300C0E0900153E0FEA3E0FF9001A7E0FCA3EF
:10037300E0C39FFFEC9EFE3395E0FDFCE4FB7A10A7
:10038300F9F8124A2BECC0E0EDC0E0EEC0E0EFC09C
:10039300E0900157E0FEA3E0FFCBEFCBCAEECAE447
:1003A300F9F8D0E0FFD0E0FED0E0FDD0E0FC127A17
:1003B30048CDEFCDCCEECCD0E0FFD0E0FE1248F636
:1003C3009002F8EEF0A3EFF0900155E0FEA3E0FFFA
:1003D3009001A9E0FCA3E0FDC39FEC9E9002F6E030
:1003E300FE503EA3E0FFEEC0E0EFC0E0900155E019
:1003F300FEA3E0FFC3ED9FFFEC9EFEC3E49FFFE47B
:100403009EFE3395E0FDFCE4FB7A10F9F8124A2BCB
:10041300ECC0E0EDC0E0EEC0E0EFC0E090015D8035
:1004230042A3E0FFEEC0E0EFC0E0900155E0FEA381
:10043300E0FF9001A9E0FCA3E0C39FFFEC9EFEC395
:10044300E49FFFE49EFE3395E0FDFCE4FB7A10F9A4
:10045300F8124A2BECC0E0EDC0E0EEC0E0EFC0E0E4
:10046300900159E0FEA3E0FFCBEFCBCAEECAE4F95B
:10047300F8D0E0FFD0E0FED0E0FDD0E0FC127A48F7
:10048300CDEFCDCCEECCD0E0FFD0E0FE1248F6901D
:1004930002F6EEF0A3EFF09002F8E0FEA3E0FFD344
:1004A3009400EE648094804002800F9002F8E0FE96
:1004B300A3E0FFC3E49FFFE49EFE9002F6E0FCA3EB
:1004C300E0FDD39400EC648094804002800F90029E
:1004D300F6E0FCA3E0FDC3E49DFDE49CFCD3ED9FAB
:1004E300EE6480F8EC64809840259002F6E0FEA369
:1004F300E0FFD39400EE6480948040028034900245
:10050300F6E0FEA3E0FFC3E49FFFE49EFE8023909A
:1005130002F8E0FEA3E0FFD39400EE6480948040F1
:1005230002800F9002F8E0FEA3E0FFC3E49FFFE424
:100533009EFECAEECACBEFCB900111E0FEA3E024EE
:10054300DCF582EE3401F583E493FF7E007C007DCD
:10055300151248F6C3EB9FFFEA9EFE9002FAF0A342
:10056300EFF0D39400EE64809480501AE4900297E5
:10057300F0A3F0900295F0A3F0900293F0A3F09013
:100583000291F0A3F022900111E0FEA3E0FF24D436
:10059300F582EE3401F583E493540F24FE700302D5
:1005A300078E147003020AC3147003020FB92403E5
:1005B300600302150190028FE07002A3E060030262
:1005C3000798EF24DEF582EE3401F583E493701D82
:1005D300900111E0FEA3E024DFF582EE3401F58300
:1005E300E493700990028FF0A3F002071A900111AF
:1005F300E0FEA3E0FF24DEF582EE3401F583E4930D
:10060300FBEF24DFF582EE3401F583E493C39BFD16
:100613003395E0FC78039002FAE0FEA3E0CEA2E774
:1006230013CE13D8F8FF1248F6EEFD3395E0FCEB3A
:1006330025E0FFE433FEED2FFFEC3E9002FAF0A33A
:10064300EFF0900295E0FEA3E0FFD39400EE648008
:1006530094804002800F900295E0FEA3E0FFC3E484
:100663009FFFE49EFE9002FAE0FCA3E0FDD39FEE21
:100673006480F8EC648098500A900295ECF0A3ED46
:10068300F0806B900111E0FEA3E024DDF582EE34EF
:1006930001F583E4932401FDE433FC900295E0FE2D
:1006A300A3E0FFC39002FBE09FFF9002FAE09EFEEF
:1006B30012495DEEF0A3EFF04E7010900296E00445
:1006C300F0701C900295E004F080149002FAE0FEB2
:1006D300A3E0FF900296E02FF0900295E03EF090A9
:1006E3000295E0FFA3E09002FACFF0A3EFF09002AF
:1006F300FAE0FEA3E0FFC374649FFFE49EFE900252
:100703008FF0A3EFF0D39400EE64809480500890B0
:10071300028FE4F0A304F09002F6E0FEA3E0FFA34F
:10072300E0FCA3E0FDD39FEE6480F8EC6480984086
:1007330026E49FFFE49EFED3ED9FEE6480F8EC6415
:100743008098900111E0FE4007A3E024D7020AB489
:10075300A3E024D9020AB49002F6E0FEA3E0FFC3AB
:10076300E49FFFE49EFED39002F9E09FEE6480F8DD
:100773009002F8E0648098900111E0FE4006A3E047
:1007830024DA8004A3E024D8020AB490028FE07034
:1007930002A3E0600F900290E024FFF090028FE04C
:1007A30034FFF022900111E0FEA3E0FF24DEF58286
:1007B300EE3401F583E4937017EF24DFF582EE3412
:1007C30001F583E493700990028FF0A3F00208FD12
:1007D300900111E0FEA3E0FF24DEF582EE3401F583
:1007E30083E493FBEF24DFF582EE3401F583E49396
:1007F300C39BFD3395E0FC78039002FAE0FEA3E08F
:10080300CEA2E713CE13D8F8FF1248F6EEFD3395C8
:10081300E0FCEB25E0FFE433FEED2FFFEC3E90021E
:10082300FAF0A3EFF0900295E0FEA3E0FFD394006B
:10083300EE648094804002800F900295E0FEA3E076
:10084300FFC3E49FFFE49EFE9002FAE0FCA3E0FDF9
:10085300D39FEE6480F8EC648098500A900295EC84
:10086300F0A3EDF0806B900111E0FEA3E024DDF531
:1008730082EE3401F583E4932401FDE433FC90021A
:1008830095E0FEA3E0FFC39002FBE09FFF9002FA16
:10089300E09EFE12495DEEF0A3EFF04E7010900261
:1008A30096E004F0701C900295E004F0801490022E
:1008B300FAE0FEA3E0FF900296E02FF0900295E0AD
:1008C3003EF0900295E0FFA3E09002FACFF0A3EF91
:1008D300F09002FAE0FEA3E0FFC374649FFFE49E7E
:1008E300FE90028FF0A3EFF0D39400EE6480948027
:1008F300500890028FE4F0A304F09002F6E0FEA308
:10090300E0FF7C007D031248F6CAEECACBEFCBA30F
:10091300E0FEA3E0FF7D071248F6D3EF9BEA648075
:10092300F8EE648098403C9002F6E0FEA3E0FFE41A
:100933009FFFE49EFE7D031248F6CAEECACBEFCBBF
:10094300A3E0FEA3E0FF7D071248F6D3EF9BEA6422
:1009530080F8EE648098400B900111E0FEA3E02440
:10096300D780689002F6E0FEA3E0FF7C007D0312CF
:1009730048F6CAEECACBEFCBA3E0FEA3E0FF7D07A8
:100983001248F6C3EF9BEA6480F8EE648098504AFD
:100993009002F6E0FEA3E0FFC3E49FFFE49EFE7D2A
:1009A300031248F6CAEECACBEFCBA3E0FEA3E0FFE7
:1009B3007D071248F6C3EF9BEA6480F8EE648098E3
:1009C3005018900111E0FEA3E024D8F582EE340123
:1009D300F583E493FD7FFF126FC99002F6E0FEA357
:1009E300E0FF7C007D071248F6CAEECACBEFCBA32B
:1009F300E0FEA3E0FF7D031248F6D3EF9BEA648099
:100A0300F8EE648098403C9002F6E0FEA3E0FFE439
:100A13009FFFE49EFE7D071248F6CAEECACBEFCBDA
:100A2300A3E0FEA3E0FF7D031248F6C3EF9BEA6455
:100A330080F8EE648098500B900111E0FEA3E0244F
:100A4300D9806E9002F6E0FEA3E0FF7C007D0712E2
:100A530048F6CAEECACBEFCBA3E0FEA3E0FF7D03CB
:100A63001248F6C3EF9BEA6480F8EE648098400373
:100A73000215019002F6E0FEA3E0FFC3E49FFFE44A
:100A83009EFE7D071248F6CAEECACBEFCBA3E0FE6B
:100A9300A3E0FF7D031248F6D3EF9BEA6480F8EEF0
:100AA3006480985003021501900111E0FEA3E02435
:100AB300DAF582EE3401F583E493FD7FFF026FC91B
:100AC300900111E0FEA3E024DFF582EE3401F5830B
:100AD300E493FB3395E0FA78039002F6E0FEA3E09B
:100AE300CEA2E713CE13D8F8FFCDEBCDCCEACC12D0
:100AF30048F67804EFCEA2E713CE13D8F8FF90029E
:100B0300F6EEF0A3EFF07803A3E0FEA3E0CEA2E7B6
:100B130013CE13D8F8FFCDEBCDCCEACC1248F67840
:100B230004EFCEA2E713CE13D8F8FF9002F8EEF04D
:100B3300A3EFF0900295E0FEA3E0FFD39400EE64F0
:100B43008094804002800F900295E0FEA3E0FFC3F3
:100B5300E49FFFE49EFE9002F6E0FCA3E0FDD39445
:100B630000EC648094804002800F9002F6E0FCA3C6
:100B7300E0FDC3E49DFDE49CFCD3ED9FEE6480F8AF
:100B8300EC6480985002802E900295E0FEA3E0FF73
:100B9300D39400EE648094804002800F900295E02D
:100BA300FEA3E0FFC3E49FFFE49EFED3EF9420EE99
:100BB3006480948340129002F6E0FFA3E0900295D4
:100BC300CFF0A3EFF0020CE7900295E0FEA3E0FF65
:100BD300D39400EE6480948040028007C3E49FFFB7
:100BE300E49EFECCEECCCDEFCD900111E0FAA3E074
:100BF300FB24DEF582EA3401F583E49375F00AA45D
:100C0300FFD3ED9FE5F06480F8EC648098405DEBE2
:100C130024DDF582EA3401F583E4932401FDE43312
:100C2300FC900295E0FEA3E0FF9002F6E0FAA3E059
:100C3300FBC39FFFEA9EFE12495D9002FAEEF0A30A
:100C4300EFF04E6003020CD3C3EA64809480500734
:100C53007EFF7FFF020CDBD3EB9400EA6480948079
:100C63007E0040047F0180027F00806C900111E0D0
:100C7300FEA3E024DDF582EE3401F583E49375F001
:100C83000AA42401FDE435F0FC900295E0FEA3E004
:100C9300FF9002F6E0FAA3E0FBC39FFFEA9EFE1279
:100CA300495D9002FAEEF0A3EFF04E7023C3EA64BD
:100CB30080948050067EFF7FFF8013D3EB9400EA7D
:100CC300648094807E0040047F0180027F0080085E
:100CD3009002FAE0FEA3E0FF900296E02FF090026C
:100CE30095E03EF0900297E0FEA3E0FFD39400EE80
:100CF300648094804002800F900297E0FEA3E0FF9F
:100D0300C3E49FFFE49EFE9002F8E0FCA3E0FDD362
:100D13009400EC648094804002800F9002F8E0FC21
:100D2300A3E0FDC3E49DFDE49CFCD3ED9FEE648052
:100D3300F8EC6480985002802E900297E0FEA3E0C6
:100D4300FFD39400EE648094804002800F9002975A
:100D5300E0FEA3E0FFC3E49FFFE49EFED3EF9420F5
:100D6300EE6480948340129002F8E0FFA3E09002C7
:100D730097CFF0A3EFF0020E93900297E0FEA3E06B
:100D8300FFD39400EE6480948040028007C3E49F05
:100D9300FFE49EFECCEECCCDEFCD900111E0FAA3A3
:100DA300E0FB24DEF582EA3401F583E49375F00A6F
:100DB300A4FFD3ED9FE5F06480F8EC648098405A7B
:100DC300EB24DDF582EA3401F583E4932401FDE4A9
:100DD30033FC900297E0FEA3E0FF9002F8E0FAA351
:100DE300E0FBC39FFFEA9EFE12495DA3EEF0A3EF73
:100DF300F04E6003020E7FC3EA6480948050067E47
:100E0300FF7FFF807FD3EB9400EA648094807E00B1
:100E130040047F0180027F00806A900111E0FEA3FD
:100E2300E024DDF582EE3401F583E49375F00AA442
:100E33002401FDE435F0FC900297E0FEA3E0FF906F
:100E430002F8E0FAA3E0FBC39FFFEA9EFE12495DAE
:100E5300A3EEF0A3EFF04E7023C3EA6480948050B6
:100E6300067EFF7FFF8013D3EB9400EA64809480B7
:100E73007E0040047F0180027F0080089002FAE038
:100E8300FEA3E0FF900298E02FF0900297E03EF07F
:100E9300900295E0FEA3E0FF900292E02FF0900213
:100EA30091E03EF0900297E0FEA3E0FF900294E011
:100EB3002FF0900293E03EF0900291E0FEA3E0FF5A
:100EC300D39440EE64809460400280047EE07F40CF
:100ED300C3EF94C0EE6480949F5019900291E0FE9A
:100EE300A3E0FF9440EE648094604002800A7EE0B9
:100EF3007F4080047E1F7FC0900291EEF0A3EFF04D
:100F0300A3E0FEA3E0FFD39440EE6480946040022C
:100F130080047EE07F40C3EF94C0EE6480949F50D2
:100F230019900293E0FEA3E0FF9440EE6480946086
:100F33004002800A7EE07F4080047E1F7FC09002D3
:100F430093EEF0A3EFF0900291E0FCA3E0FD7806AE
:100F5300CEECCECEA2E713CE13D8F8900313F078DD
:100F630006900293E0FEA3E0CEA2E713CE13D8F8D7
:100F7300F404F9900314F0900313E0FF3395E0FEBB
:100F83007806EFC333CE33CED8F9FFC3ED9FFFEC22
:100F93009E900291F0A3EFF0E9FF3395E0FE78060F
:100FA300EFC333CE33CED8F9FF900294E02FF09005
:100FB3000293E03EF022900291E0FEA3E0FF900254
:100FC300F6E0FCA3E0FDC39FFFEC9EFE7802EFCEAC
:100FD300A2E713CE13D8F8FF9002FAEEF0A3EFF0D6
:100FE3004E7023C3EC6480948050067EFF7FFF80A5
:100FF3001DD3ED9400EC648094807E0040047F0157
:1010030080027F0080089002FAE0FEA3E0FF9002D6
:1010130092E02FF0900291E03EF0900293E0FEA365
:10102300E0FF9002F8E0FCA3E0FDC39FFFEC9EFE0F
:101033007802EFCEA2E713CE13D8F8FF9002FAEEB0
:10104300F0A3EFF04E7023C3EC6480948050067ECF
:10105300FF7FFF801DD3ED9400EC648094807E00BD
:1010630040047F0180027F0080089002FAE0FEA323
:10107300E0FF900294E02FF0900293E03EF09002A4
:10108300F6E0FAA3E0FBD39400EA64809480900135
:1010930011E0FE4006A3E024DA8004A3E024D9F59E
:1010A30082EE3401F583E493FF900295E4F0A3EF1D
:1010B300F0D3ED9400EC64809480900111E0FE4045
:1010C30006A3E024D78004A3E024D8F582EE3401FC
:1010D300F583E493FF900297E4F0A3EFF090029579
:1010E300E0FEA3E0FFC3941EEE648094804017D318
:1010F300EF9427EE64809480500CEF25E0FFEE33ED
:10110300FEEF24C68027900295E0FEA3E0FFC39480
:1011130059EE648094804022D3EF9462EE6480940D
:10112300805017EF25E0FFEE33FEEF244FFFEE3440
:10113300FF900295F0A3EFF08007E4900295F0A3EF
:10114300F0900297E0FEA3E0FFC3941EEE64809448
:10115300804017D3EF9427EE64809480500CEF25E2
:10116300E0FFEE33FEEF24C68027900297E0FEA354
:10117300E0FFC39459EE648094804022D3EF9462DD
:10118300EE648094805017EF25E0FFEE33FEEF24EA
:101193004FFFEE34FF900297F0A3EFF08007E49047
:1011A3000297F0A3F0D3EB9401EA64809470400AB1
:1011B3009002F6E0FEA3E0FF80047EF07F01C3EF20
:1011C30094FFEE6480948F50199002F6E0FEA3E042
:1011D300FF9401EE648094704002800A7EF07F01E8
:1011E30080047E0F7FFF9002F6EEF0A3EFF0D3EDC5
:1011F3009401EC648094704008A3E0FEA3E0FF80B8
:10120300047EF07F01C3EF94FFEE6480948F501946
:101213009002F8E0FEA3E0FF9401EE648094704036
:1012230002800A7EF07F0180047E0F7FFF9002F828
:10123300EEF0A3EFF0900295E0FEA3E0FFCBEFCB3F
:10124300CAEECAEA3395E0F9F8900291E0FEA3E012
:10125300FFEE3395E0FDFC124A2BC8ECC8C9EDC97B
:10126300CAEECACBEFCB900111E0FEA3E024DFF579
:1012730082EE3401F583E493FFE4FCFDFE124A2B76
:10128300E47B7DFAF9F8127A48900295EEF0A3EF29
:10129300F0A3E0FEA3E0FFEE3395E0FDFC124B4824
:1012A300C8ECC8C9EDC9CAEECACBEFCB900293E034
:1012B300FEA3E0FFEE3395E0FDFC124A2BC8ECC819
:1012C300C9EDC9CAEECACBEFCB900111E0FEA3E092
:1012D30024DFF582EE3401F583E493FFE4FCFDFEA5
:1012E300124A2BE47B7DFAF9F8127A48900297EEC2
:1012F300F0A3EFF0900111E0FEA3E024DDF582EE10
:101303003401F583E493FFE4FCFDFE7BFF7A7FF970
:10131300F8124A2BE47B32FAF9F8127A489002F673
:10132300EEF0A3EFF0900111E0FEA3E024DEF582DE
:10133300EE3401F583E493FFE4FCFDFE7BFF7A7F4B
:10134300F9F8124A2BE47B32FAF9F8127A48900240
:10135300F8EEF0A3EFF0D3900296E094009002959C
:10136300E06480948040479002F6E0FEA3E0FFCB68
:10137300EFCBCAEECAEA3395E0F9F8900295E0FEA6
:10138300A3E0FFEE3395E0FDFCEB2FFFEA3EFEE921
:101393003DFDE83CFCE47BFF7A7FF9F8C3124B5632
:1013A300500C9002F6747FF0A374FFF08055C39045
:1013B3000295E06480948050369002F6E0FEA3E04C
:1013C300FFCBEFCBCAEECAEA3395E0F9F89002956A
:1013D300E0FEA3E0FFEE3395E0FDFCEB2FEA3EE9F0
:1013E3003DE83C335009E49002F6F0A3F0801490FA
:1013F3000295E0FEA3E0FF9002F7E02FF09002F6E3
:10140300E03EF0D3900298E09400900297E064806D
:10141300948040479002F8E0FEA3E0FFCBEFCBCAF5
:10142300EECAEA3395E0F9F8900297E0FEA3E0FFF5
:10143300EE3395E0FDFCEB2FFFEA3EFEE93DFDE8D0
:101443003CFCE47BFF7A7FF9F8C3124B56500C90B7
:1014530002F8747FF0A374FFF08056C3900297E004
:101463006480948050379002F8E0FEA3E0FFCBEF56
:10147300CBCAEECAEA3395E0F9F8900297E0FEA3EF
:10148300E0FFEE3395E0FDFCEB2FFFEA3EE93DE89C
:101493003C335009E49002F8F0A3F08014900297D3
:1014A300E0FEA3E0FF9002F9E02FF09002F8E03EA7
:1014B300F09002F6E0FCA3E0FDCFEDCF900319F02E
:1014C300ECFFEFA3F09002F8E0FCA3E0FDCFEDCF3B
:1014D30090031BF0ECFFEFA3F09003187411F0904E
:1014E300028FE07002A3E07F0070027F017E009014
:1014F300028FEEF0A3EFF025E014900313F022E443
:101503009002F6F0A374FFF0E4F512F513EF604ACE
:101513009001F7E0FCA3E0FDA3E0FEA3E0FF90024F
:101523000E124BA39001F7E0FCA3E0FDA3E0FEA3A2
:10153300E02401FFE43EFEED34FFFDEC34FFFC90BC
:101543000212124BA37E007F107D007B017A027989
:101553006F124C19E4900218F0229001F7A3A3A391
:10156300E0FF900219E0FEC3EF9EC3941450030200
:10157300264CE02414F090027FE0FEA3E0F5828E77
:101583008374F593700374F493602EE4F510744040
:101593002510F582E43401F583E060169001F7E04D
:1015A300FCA3E0FDA3E0FEA3E0FF900212124BA315
:1015B30080070510E510B410D5900218E0540FFF12
:1015C300BF021D7403F09001F7E0FCA3E0FDA3E06C
:1015D300FEA3E0FF90020E124BA390021A74FFF0D9
:1015E300900218E0540F6403600302171790021669
:1015F300E0FEA3E0FFCBEFCBCAEECA90027FE0FE92
:10160300A3E0F5828E8374F893FE74F993FFEF2BB6
:10161300FFEE3AFEE433FDE433C0E0EDC0E0EEC09C
:10162300E0EFC0E090020EE0F8A3E0F9A3E0FAA334
:10163300E0FB9001F7E0FCA3E0FDA3E0FEA3E0C321
:101643009BFBEE9AFAED99F9EC98F8D0E0FFD0E025
:10165300FED0E0FDD0E0FCD3124B6C500302171711
:1016630090027FE0FEA3E0F5828E8374F493FE7410
:10167300F593FF4E604C7C007D0A124BECECC0E00E
:10168300EDC0E0EEC0E0EFC0E0900212E0F8A3E0AE
:10169300F9A3E0FAA3E0FB9001F7E0FCA3E0FDA3CC
:1016A300E0FEA3E0C39BFBEE9AFAED99F9EC98F800
:1016B300D0E0FFD0E0FED0E0FDD0E0FCD3124B6CD5
:1016C300405290027FE0FEA3E0F5828E8374FB9389
:1016D300700374FA93602E1278DBCCEECCCDEFCD91
:1016E300AF8AEF6CFEEDFF90027FE0FCA3E0F58292
:1016F3008C8374FA93FC74FB93FD124908CEECCEF1
:10170300CFEDCF80047E007F00900216EEF0A3EFB2
:10171300F0E4A3F0900218E0540F60030218F604FB
:10172300F09001F7E0FCA3E0FDA3E0FEA3E0FF904F
:10173300020E124BA3E490021AF090027FE0FEA384
:10174300E0F5828E8374F193FF70030218D2EFD316
:101753009404501B90027FE0FEA3E0F5828E837415
:10176300F1931475F008A4FD74F0932D0218EA9018
:10177300027FE0FEA3E0F5828E8374F193B4050348
:101783000218F0E4F511F51090027FE0FEA3E0FFEC
:10179300F5828E8374EB932401FDE433FCC3E510DF
:1017A3009DEC6480F87480985035E510C39409501B
:1017B3002EE58224E0F582E43583F583E582251066
:1017C300F582E43583F583E493FF600DD3940450ED
:1017D3000874082511F51180020511051080A990E0
:1017E300027FE0FEA3E0F5828E8374F193B4060FCB
:1017F30090021CE004F0C39511402AE4F080261205
:1018030078DBAD8AEF6DFFAD117C0012495D8D1061
:1018130090021CE065107007E511D3940150E0902D
:10182300021CE510F0E4F511F51090027FE0FEA331
:10183300E0FFF5828E8374EB932401FDE433FCD344
:10184300E5109DEC6480F8748098507FE51094094E
:10185300507990021CE0F9E51199403DE51024DF31
:10186300FDE433FCEF2DF582EE3CF583E493600D4C
:10187300D394045008E92408C39511F511E5102405
:10188300DFFFE433FE90027FE0FCA3E02FF582EC60
:101893003EF583E493F510803290027FE0FCA3E0F1
:1018A30024E0F582E43CF583E5822510F582E435F6
:1018B30083F583E493600DD39404500874082511D1
:1018C300F51180020511051002182DE5107008901E
:1018D300021D74C8F0801CE510D39404500FE5106A
:1018E3001475F008A4251190021DF0800690021DC6
:1018F3007464F0900218E0540F640170599001F77A
:10190300A3A3E0FEA3E0FFCBEFCBCAEECA90020E87
:10191300A3A3E0FEA3E0FFC3EB9FFFEA9EFE9002BA
:101923007FE0FCA3E0F5828C83C374F7939F74F686
:10193300939E502290021DE064C8601A9001F7E064
:10194300FCA3E0FDA3E0FEA3E0FF90020E124BA375
:1019530090021AE004F090021DE0FFC39420500FA0
:10196300EF75F010A42407F9748135F0FA801B9009
:10197300021DE0B4643B900280E02490FF90027F5C
:10198300E03400FECAEECAC9EFC97BFFEBC0E0EA50
:10199300C0E0E9C0E0C8744FC8CC7402CCCD740178
:1019A300CDD0E0F9D0E0FAD0E0FB7E007F10124802
:1019B3006F90027FE0FEA3E0FFCAEECAC9EFC97BC6
:1019C300FFEBC0E0EAC0E0E9C0E0C8741FC8CC7414
:1019D30002CCCD7401CDD0E0F9D0E0FAD0E0FB7EAB
:1019E300007F3012486FE4F51090027FE0FEA3E021
:1019F300F5828E8374F3937003021B4474F2932075
:101A0300E003021B44E51075F003A4241FF582E4F0
:101A13003402F583E0FFE51075F003A42420F5827A
:101A2300E43402F583E0FDE51075F003A42421F509
:101A330082E43402F583E0C0E09003047401F0A370
:101A43007402F0A374F8F0A37401F0A37402F0A37A
:101A530074FAF0A37401F0A37402F0A374FCF0D041
:101A6300E0FB12676690027FE0FEA3E0F5828E83BF
:101A730074F393FFCBEFCBE4FAF9F89001F7E0FCB2
:101A8300A3E0FDA3E0FEA3E0FF124AB6E47BEA7AFB
:101A930003F9F8124AB6CCE8CCCDE9CDCEEACECFE5
:101AA300EBCF9002F9E02FF09002F8E03EF0C3A3F1
:101AB300E094EA9002F8E09403400CA3E02416F0CB
:101AC3009002F8E034FCF0E51075F003A4FFAEF0EB
:101AD300241FF974023EFA7B01EBC0E0EAC0E0E99F
:101AE300C0E074202FF974023EFAEBC0E0EAC0E0D4
:101AF300E9C0E074212FF974023EFA90030DEBF074
:101B0300A3EAF0A3E9F0D0E0F9D0E0FAD0E0900343
:101B13000AF0A3EAF0A3E9F0D0E0F9D0E0FAD0E0CC
:101B2300900307F0A3EAF0A3E9F09002F8E0FEA324
:101B3300E0FFA3E0FCA3E0FDA3E0FAA3E0FB126255
:101B43004490021DE064C86003021DBD90027FE063
:101B5300FEA3E0F5828E8374F793700374F693709B
:101B630003021DBD9001F7A3A3E0FEA3E0FFCBEFAB
:101B7300CBCAEECA90020EA3A3E0FEA3E0FFC3EB21
:101B83009FFBEA9EFA90027FE0FEA3E0F5828E833C
:101B930074F693FE74F793FFD394E8EE9403400234
:101BA30080047E037FE87C037DE8124908CDEFCDF6
:101BB300CCEECCCFEBCFCEEACE1249087C037DEA44
:101BC3001249089002FCECF0A3EDF09002FCE0FE59
:101BD300A3E0FFC394F5EE9401402D74E99FF074E4
:101BE300039E9002FCF090027FE0FEA3E0F5828E5C
:101BF3008374FD9375F00384AFF07512008F139017
:101C03000218E04480F0802F90027FE0FEA3E0F50D
:101C1300828E8374FC9375F00384AFF07512008F8A
:101C230013900218E0B4810FE510B40F037402F0AF
:101C3300E49002FCF0A3F0900218E0540F640160FA
:101C430007E49002FCF0A3F0E5134512705DF51173
:101C530075F003E510A42511F582E435F0F583E56D
:101C630082241FF582E5833402F583E0FF7E009032
:101C730002FCE0FCA3E0FD124BECE47BF47A01F9F7
:101C8300F8124AB675F003E510A42511F582E43580
:101C9300F0F583E582241FF582E5833402F583EFB3
:101CA300F00511E511B403A8021DB4E51364014561
:101CB300126003021D419002FCE0FEA3E0FF7C00E2
:101CC3007DFF124BECE47BF47A01F9F8124AB67407
:101CD300872FF582747F3EF583E493FF9002FCE443
:101CE300F0A3EFF0E4F51175F003E510A42511F569
:101CF30082E435F0F583E582241FF582E58334021F
:101D0300F583E0FF7E009002FCE0FCA3E0FD1248B7
:101D1300F67C007DFF12490875F003E510A4251138
:101D2300F582E435F0F583E582241FF582E58334FB
:101D330002F583EFF00511E511B403AB8073900254
:101D4300FCE0FEA3E02492F582747D3EF583E493E8
:101D5300FF9002FCE4F0A3EFF0E4F51175F003E566
:101D630010A42511F582E435F0F583E582241FF5EF
:101D730082E5833402F583E0FF7E009002FCE0FC01
:101D8300A3E0FD1248F67C007DFF12490875F003BD
:101D9300E510A42511F582E435F0F583E582241FCF
:101DA300F582E5833402F583EFF00511E511B40301
:101DB300AB9002F67401F0021F6E90021DE064C83E
:101DC3007003021F6E744F2510F582E43402F5830D
:101DD300E0FF90021AE0FEEF6E6003021EC890025D
:101DE300F604F090027FE0FEA3E0F5828E8374FC9C
:101DF30093FFC3741F9FF513E49400F512D3E51307
:101E0300940AE512648094804015AE12AF137C00EF
:101E13007D0A1248F6EF24A6F513EE34FFF512748B
:101E23006F2510F582E43402F583E0FFC374FF9F4E
:101E3300FFE49400FED3EF9513E5126480F8EE649B
:101E43008098746F400F2510F582E43402F583E027
:101E53002513F0800C2510F582E43402F58374FF1A
:101E6300F0E4F51175F003E510A42511F582E435CE
:101E7300F0F583E582241FF582E5833402F583E0E0
:101E8300FF7E00746F2510F582E43402F583E09041
:101E93007F8793FD7C001248F67DFF12490875F099
:101EA30003E510A42511F582E435F0F583E58224DA
:101EB3001FF582E5833402F583EFF00511E511B4D4
:101EC30003A2021F6E90027FE0FEA3E0F5828E83E1
:101ED30074FD932401FDE433FC746F2510F582E453
:101EE3003402F583E0FBFF7E0012495D8E128F13EF
:101EF300EB600BE51345127005F512751301746F52
:101F03002510F582E43402F583E0C39513F0E4F57C
:101F13001175F003E510A42511F582E435F0F5837E
:101F2300E582241FF582E5833402F583E0FF7E001A
:101F3300746F2510F582E43402F583E0FD7C001212
:101F430048F67DFF12490875F003E510A42511F545
:101F530082E435F0F583E582241FF582E5833402BC
:101F6300F583EFF00511E511B403A674402510F5D0
:101F730082E43401F583E0607990027FE0FCA3E022
:101F83002510F582E43CF5837460932401FDE4336A
:101F9300FC745F2510F582E43402F583E0FBFFC394
:101FA30074FF9FFFE49400FE12495D8E128F13C3EA
:101FB30074FF9B600BE51345127005F51275130151
:101FC300745F2510F582E43402F583E02513F09065
:101FD300027FE0FCA3E02510F582E43CF5837480E6
:101FE30093FF9002F7E0D39F5003022099EFF00292
:101FF300209990027FE0FCA3E02510F582E43CF5F4
:10200300837470932401FDE433FC745F2510F5821F
:10201300E43402F583E0FBFF7E0012495D8E128FEC
:1020230013EB600BE51345127005F512751301747C
:102033005F2510F582E43402F583E0C39513F0E4E1
:10204300F51175F003E510A42511F582E435F0F5DB
:1020530083E582241FF582E5833402F583E0FF9054
:10206300021BE0FEEF8EF0A4FFAEF07C007DFF12BA
:10207300490875F003E510A42511F582E435F0F560
:1020830083E582241FF582E5833402F583EFF005AF
:1020930011E511B403AC90027FE0FEA3E0F5828E5C
:1020A3008374F393700302225774F29320E10302C3
:1020B300225790027FE0FCA3E0FDF5828C8375F04C
:1020C30003E510124BE0743093FF8D828C8375F01F
:1020D30003E510124BE0743193FD90027FE0FAA305
:1020E300E0F5828A8375F003E510124BE0743293B6
:1020F300C0E09003047401F0A37402F0A374F8F039
:10210300A37401F0A37402F0A374FAF0A37401F0B2
:10211300A37402F0A374FCF0D0E0FB126766900294
:102123007FE0FEA3E0F5828E8374F393FFCBEFCBC6
:10213300E4FAF9F89001F7E0FCA3E0FDA3E0FEA3C5
:10214300E0FF124AB6E47BEA7A03F9F8124AB6CC06
:10215300E8CCCDE9CDCEEACECFEBCF9002F9E02F9C
:10216300F09002F8E03EF0C3A3E094EA9002F8E0B6
:102173009403400CA3E02416F09002F8E034FCF042
:102183009002F8E0FEA3E0FFA3E0FCA3E0FD9003D0
:10219300077401F0A37402F0A374FEF0A37401F0BA
:1021A300A37402F0A374FFF0A37401F0A37403F00B
:1021B300A37400F09002FCE0FAA3E0FB12624490E7
:1021C30002FEE0FFE51075F003A4241FF582E4345A
:1021D30002F583E0FDC3EF9DFFE49400FE745F25E9
:1021E30010F582E43402F583E0FD7C001248F67DAD
:1021F300FF12495DE51075F003A4241FF582E43452
:1022030002F583E02FF09002FFE0FFE51075F00385
:10221300A42420F582E43402F583E0FDC3EF9DFF9F
:10222300E49400FE745F2510F582E43402F583E044
:10223300FD7C001248F67DFF12495DE51075F00341
:10224300A42420F582E43402F583E02FF090030008
:10225300E002231990027FE0FAA3E0FBF5828A8370
:1022630075F003E510124BE0743093FFE51075F041
:1022730003A4241FF582E43402F583E0FDC3EF9D3C
:10228300FFE49400FE745F2510F582E43402F583C5
:10229300E0FD7C001248F67DFF12495DE51075F004
:1022A30003A4241FF582E43402F583E02FF08B822C
:1022B3008A8375F003E510124BE0743193FFE51048
:1022C30075F003A42420F582E43402F583E0FDC312
:1022D300EF9DFFE49400FE745F2510F582E4340261
:1022E300F583E0FD7C001248F67DFF12495DE510A1
:1022F30075F003A42420F582E43402F583E02FF083
:1023030090027FE0FEA3E0F5828E8375F003E51073
:10231300124BE0743293FFE51075F003A42421F50A
:1023230082E43402F583E0FDC3EF9DFFE49400FEF5
:10233300745F2510F582E43402F583E0FD7C00121E
:1023430048F67DFF12495DE51075F003A42421F5DD
:1023530082E43402F583E02FF00510E510C39410F6
:1023630050030219EC9002F6E0700A900218E05450
:102373000F6401603790027FE0FEA3E0F5828E8355
:1023830074F593700374F49360289001F7E0FCA351
:10239300E0FDA3E0FEA3E0FF900212E0F8A3E0F962
:1023A300A3E0FAA3E0FBC3124B6C7006900218740F
:1023B30002F090021BE0FB9002F7E0FAD39B406728
:1023C30090027FE0FEA3E0F5828E8374FE93FF7498
:1023D3001F9FF513E49400F512D3E513940AE51255
:1023E300648094804015AE12AF137C007D0A1248BE
:1023F300F6EF24A6F513EE34FFF512EBFFEAC39FC5
:10240300FFE49400FED3EF9513E5126480F8EE64C5
:102413008098400990021BE02513F080509002F74A
:10242300E090021BF0804690021BE0FF9002F7E071
:10243300FEC39F5038EEFDC3EF9DFFE49400FE9072
:10244300027FE0FCA3E0F5828C8374FF932401FDFB
:10245300E433FC12495D8E128F13E51345127005A8
:10246300F51275130190021BE0C39513F09001114F
:10247300E0FEA3E024FEF582EE3401F583E493FF4E
:10248300705EF510E51075F003A4241FF582E434A3
:1024930002F583E0FEE51075F003A4242BF8EEF6B5
:1024A300E51075F003A42420F582E43402F583E0FB
:1024B300FEE51075F003A4242AF8EEF6E51075F096
:1024C30003A42421F582E43402F583E0FEE51075CC
:1024D300F003A4242CF8EEF60510E510B410A522A1
:1024E300EF6403706AF510E51090850C9375F003A3
:1024F300A4241FF582E43402F583E0FFE51075F0B0
:1025030003A4242BF8EFF6E51090850C9375F003E4
:10251300A42420F582E43402F583E0FFE51075F08E
:1025230003A4242AF8EFF6E51090850C9375F003C5
:10253300A42421F582E43402F583E0FFE51075F06D
:1025430003A4242CF8EFF60510E510B4109922909B
:102553000111E0FEA3E024FEF582EE3401F583E4ED
:1025630093FF64027075F510C37410951075F00332
:10257300A4241FF582E43402F583E0FEE51075F030
:1025830003A4242BF8EEF6E510FDC374109DFDE4BF
:102593009400FC90022075F003ED124BE0EC75F013
:1025A30003A42583F583E0FEE51075F003A4242A34
:1025B300F8EEF690022175F003ED124BE0EC75F0A6
:1025C30003A42583F583E0FEE51075F003A4242C12
:1025D300F8EEF60510E510B4108E22EF6401706971
:1025E300F510E5109084FC9375F003A4241FF58285
:1025F300E43402F583E0FFE51075F003A4242BF81F
:10260300EFF6E5109084FC9375F003A42420F58283
:10261300E43402F583E0FFE51075F003A4242AF8FF
:10262300EFF6E5109084FC9375F003A42421F58262
:10263300E43402F583E0FFE51075F003A4242CF8DD
:10264300EFF60510E510B4109922E49002E2F0A32E
:10265300F0A3F0A3F0900320F090033BF090033934
:10266300F0900338F0900310F0C874BEC8CC740225
:10267300CCCD7401CD7B017A037923FE7F151248FB
:102683006F7E007F157D007B017A037923124C193D
:10269300900312E09002B5F07E007F047D007B0181
:1026A3007A037912124C199003177410F07E007F8D
:1026B300047DFF7B017A037919124C1990031FE003
:1026C3009002B9F0E490031FF090033DE0540190B1
:1026D30002B0F0E490033EF090033DF0900000E080
:1026E300C43354E02411F582E43400F583E0FEA3FF
:1026F300E04E70037FFF229002ADE0604824D0F5E6
:1027030082E43401F583E060229002ADE0243FF5DA
:1027130082E43401F583E070129002D4E054036044
:1027230003E014F09002D4E04404F09002D3E07F7D
:102733000070027F019002D3EFF0700302339B120B
:10274300419202339BE49002E5F09002E5E0FFC37F
:102753009410400302280974402FF582E43401F5F4
:1027630083E07003022800900000E0C43354E024A7
:1027730011F582E43400F583C083C0829002E5E062
:10278300D082D08375F002124BE0E0FCA3E0F58227
:102793008C83740193FEB4010E9002BCE0FDEF6DD7
:1027A30060059002E28053EEB402119002BCE0FF98
:1027B3009002E5E06F60059002E3803E900000E048
:1027C300C43354E02411F582E43400F583C083C09C
:1027D300829002E5E0FFD082D08375F002124BE0D5
:1027E300E0FCA3E0F5828C83740193B4070F90029D
:1027F300BCE0FEEF6E60069002E4E004F09002E5B8
:10280300E004F002274DE49002E5F09002E5E0FFDA
:10281300C394104003022F789002BCE0FEEF6E7069
:10282300569002E5E02440F582E43401F583E0604C
:1028330003022F6F74D12FF582E43401F583E06036
:1028430003022F6F9002B1E004F0E0D3940A500327
:10285300022F6FE4F09002E5E02403FF9002B7E05B
:10286300FD126FC99002B4E0FF7D02127333900230
:10287300BC74FFF0022F6F9002E5E0FF2440F58265
:10288300E43401F583E07003022DA2900000E0C45C
:102893003354E02411F582E43400F58375F002EF3C
:1028A300124BE0E0FEA3E0FFF5828E83740193B444
:1028B3000106126FB8022F6F900000E0C43354E09A
:1028C3002411F582E43400F583C083C0829002E5CD
:1028D300E0D082D08375F002124BE0E0FEA3E0FF6C
:1028E300F5828E8374019364027040126FB8900373
:1028F30023E0FF900000E0C43354E02411F582E4A8
:102903003400F583C083C0829002E5E0D082D08397
:1029130075F002124BE0E0FCA3E0F5828C837403B4
:1029230093FEEF4E900323F0022F6F900000E0C45C
:102933003354E02411F582E43400F583C083C0826C
:102943009002E5E0FFD082D08375F002124BE0E005
:10295300FCA3E0FDF5828C837401936403705590AE
:1029630002E2E06003022F6FA3E06003022F6FA374
:10297300E06003022F6F74D12FF582E43401F583F5
:10298300E06003022F6F9002E5E0049002ADF0EDEA
:102993002403FEE43C9002B2F0A3CEF0E49002AB39
:1029A300F0A3F09002D47402F09002D314F0124119
:1029B30092022F6F900000E0C43354E02411F5829B
:1029C300E43400F583C083C0829002E5E0D082D076
:1029D3008375F002124BE0E0FEA3E0F5828E837470
:1029E3000193FF64046008EF64056003022B7F908A
:1029F30002E5E0FF24D1F582E43401F583E0700DB4
:102A030074012FF582E43400F5837402F090000022
:102A1300E0C43354E02411F582E43400F583C08329
:102A2300C0829002E5E0D082D08375F002124BE0C1
:102A3300E0FEA3E02402FFE43E8F82F583E493FEED
:102A4300740193FFE4FCFDFB7A80F9F8124A2BEC46
:102A5300C0E0EDC0E0EEC0E0EFC0E0900111E0FEA9
:102A6300A3E024FAF582EE3401F583E493FE7401C6
:102A730093FFCBEFCBCAEECAE4F9F8D0E0FFD0E086
:102A8300FED0E0FDD0E0FC127A489002E6EEF0A31F
:102A9300EFF0900000E0C43354E02411F582E434F5
:102AA30000F583C083C0829002E5E0D082D08375B5
:102AB300F002124BE0E0FEA3E02404FFE43E8F8229
:102AC300F583E493FE740193FFE4FCFDFB7A80F944
:102AD300F8124A2BECC0E0EDC0E0EEC0E0EFC0E03E
:102AE300900111E0FEA3E024FCF582EE3401F583AE
:102AF300E493FE740193FFCBEFCBCAEECAE4F9F87B
:102B0300D0E0FFD0E0FED0E0FDD0E0FC127A4890A8
:102B130002E8EEF0A3EFF09002E6E0FCA3E0FDCFC5
:102B2300EDCF900319F0ECA3F09002E8E0FCA3E0F2
:102B3300FDCFEDCF90031BF0ECA3F0900000E0C4B9
:102B43003354E02411F582E43400F583C083C0825A
:102B53009002E5E0FFD082D08375F002124BE0E0F3
:102B6300FCA3E0F5828C83740193B40507900317EB
:102B7300E04401F0900318EFF0022F6F900000E0A3
:102B8300C43354E02411F582E43400F583C083C0D8
:102B9300829002E5E0FFD082D08375F002124BE011
:102BA300E0FCA3E0F5828C83740193640660030266
:102BB3002C8974039320E703022F6F9002BCE0F487
:102BC3006003022F6F74D12FF582E43401F583E0A3
:102BD3006003022F6F900000E0C43354E02411F52A
:102BE30082E43400F583C083C0829002E5E0D082A2
:102BF300D08375F002124BE0E0FCA3E0FDF5828C7C
:102C0300837402939002B7F0900000E0FF049002F7
:102C1300B4F074132FF582E43401F583E09002EAF3
:102C2300F08D828C83740393FF7D011273339000C4
:102C330000E02413F582E43401F583E02404FF90DB
:102C430002EAE0FEC3EF9E5403FF70069002E5E044
:102C5300802DEFB4010A9002E5E09084FC93801F7D
:102C6300EFB4020B9002E5E0FFC374109F8010EFF6
:102C730064036003022F789002E5E090850C939043
:102C830002BCF0022F78900000E0C43354E024111A
:102C9300F582E43400F583C083C0829002E5E0FF4F
:102CA300D082D08375F002124BE0E0FCA3E0FDF587
:102CB300828C83740193F96407703274D12FF58287
:102CC300E43401F583E06003022F6F8D828C8374FB
:102CD300039330E003022F6F9002E5E02401F582B5
:102CE300E43400F583E04402F0EF022E9BE964092B
:102CF3006003022F6F9002BAE0FF900000E0C4333C
:102D030054E02411F582E43400F583C083C082903B
:102D130002E5E0FED082D08375F002124BE0E0FCC6
:102D2300A3E0F5828C837402935403FDC8EDC87449
:102D330001088002C333D8FC4F9002BAF074D12E3D
:102D4300F582E43401F583E06003022F6F90000005
:102D5300E0C43354E02411F582E43400F583C083E6
:102D6300C0829002E5E0D082D08375F002124BE07E
:102D7300E0FEA3E0F5828E83740293C4540F9002A5
:102D8300BBF09002BAE0FFED2404FEC8EEC8740164
:102D9300088002C333D8FC4F9002BAF0022F6F9021
:102DA30002E5E0FF24D1F582E43401F583E0FE700F
:102DB30003022F6F900000E0C43354E02411F58226
:102DC300E43400F58375F002EF124BE0E0FCA3E07E
:102DD300F5828C83740193FFB40519EE7003022FFF
:102DE3006F9002E5E02401F582E43400F583740179
:102DF300F0022F6FEF64067043900000E0C4335479
:102E0300E02411F582E43400F583C083C08290028C
:102E1300E5E0D082D08375F002124BE0E0FEA3E040
:102E2300F5828E83740393FF30E703022F6F9002C2
:102E3300BC74FFF0E4FD127333022F6F900000E0C7
:102E4300C43354E02411F582E43400F583C083C015
:102E5300829002E5E0FFD082D08375F002124BE04E
:102E6300E0FCA3E0F5828C83740193FE6407704E4B
:102E730074039330E03474012FF582E43400F58356
:102E8300E0FF20E1259002E5E0FD2401F582E43432
:102E930000F583EF4402F0ED25E0241BF582E434D2
:102EA30001F583E4F0A3F0022F6F9002E5E0240123
:102EB300F582E43400F583E054FDF0022F6FEEB4A5
:102EC30008037F0122900000E0C43354E02411F58D
:102ED30082E43400F583C083C0829002E5E0D082AF
:102EE300D08375F002124BE0E0FEA3E0F5828E83FF
:102EF300740193640970757402935403D39401406D
:102F0300399002BAE04480F0900000E0C43354E00A
:102F13002411F582E43400F583C083C0829002E576
:102F2300E0D082D08375F002124BE0E0FEA3E0F51F
:102F3300828E837404939002B6F0900000E0C43351
:102F430054E02411F582E43400F583C083C08290F9
:102F530002E5E0D082D08375F002124BE0E0FEA3DD
:102F6300E0F5828E837403939002B8F09002E5E05B
:102F730004F002280EE49002E5F09002E5E0FFC3BE
:102F830094104003023196900000E0C43354E024CF
:102F930011F582E43400F58375F002EF124BE0E0A3
:102FA300FEA3E0F5828E83740193FF64046008EF4F
:102FB3006405600302318D900000E0C43354E024C3
:102FC30011F582E43400F583C083C0829002E5E00A
:102FD300D082D08375F002124BE0E0FEA3E0F582CD
:102FE3008E83740393FF64016008EF64026003023D
:102FF300318D900000E0C43354E02411F582E434B1
:1030030000F583C083C0829002E5E0D082D083754F
:10301300F002124BE0E0FEA3E02402FFE43E8F82C5
:10302300F583E493FE740193FFE4FCFDFB7A80F9DE
:10303300F8124A2BECC0E0EDC0E0EEC0E0EFC0E0D8
:10304300900111E0FEA3E024FAF582EE3401F5834A
:10305300E493FE740193FFCBEFCBCAEECAE4F9F815
:10306300D0E0FFD0E0FED0E0FDD0E0FC127A489043
:1030730002E6EEF0A3EFF0900000E0C43354E02446
:1030830011F582E43400F583C083C0829002E5E049
:10309300D082D08375F002124BE0E0FEA3E024045B
:1030A300FFE43E8F82F583E493FE740193FFE4FC17
:1030B300FDFB7A80F9F8124A2BECC0E0EDC0E0EE9C
:1030C300C0E0EFC0E0900111E0FEA3E024FCF58234
:1030D300EE3401F583E493FE740193FFCBEFCBCA87
:1030E300EECAE4F9F8D0E0FFD0E0FED0E0FDD0E096
:1030F300FC127A489002E8EEF0A3EFF09002E6E0CB
:10310300FCA3E0FDCFEDCF900319F0ECA3F0900208
:10311300E8E0FCA3E0FDCFEDCF90031BF0ECA3F0C0
:103123009002E5E0FF900318F0900000E0C43354F0
:10313300E02411F582E43400F58375F002EF124BBD
:10314300E0E0FEA3E0F5828E8374039364027024AF
:103153000493900317B40506E04401F08004E0549F
:10316300FEF09002E5E02401F582E43400F5837477
:1031730003F0801FE4900317F09002E5E02401F5CB
:1031830082E43400F583E4F080099002E5E004F082
:10319300022F7DE49002EBF09002E5F09002E5E06F
:1031A300FFC39410400302337F900000E0C4335404
:1031B300E02411F582E43400F58375F002EF124B3D
:1031C300E0E0FEA3E0F5828E83740193640760035D
:1031D3000233769001F7E0FCA3E0FDA3E0FEA3E059
:1031E300FF900281E0F8A3E0F9A3E0FAA3E0FBD3A8
:1031F300124B6C40369002E5E0FF25E0241BF5827C
:10320300E43401F583E4F0A3F074012FF582E43490
:1032130000F583E054FBF09002E5E02401F582E43D
:103223003400F583E054FDF00233769002E5E0FFCD
:103233002401F582E43400F583E020E103023376D0
:10324300900000E0C43354E02411F582E43400F527
:103253008375F002EF124BE0E0FEA3E0FF2404FDD0
:10326300E43E8D82F583E493FC7401934C70061263
:103273006FB802333F9002E5E0FF2401F582E434A6
:1032830000F583E0FE30E21174012FF582E434008F
:10329300F583EE54FBF002333F9001F7A3A3E0FE66
:1032A300A3E0FF9002E5E025E0241BF582E434016E
:1032B300F583E0FCA3E0FDC3EF9DFFEE9CFE9000D1
:1032C30000E0C43354E02411F582E43400F583C0F4
:1032D30083C0829002E5E0D082D08375F002124B66
:1032E300E0E0FCA3E0FD2404FBE43C8B82F583E4F3
:1032F30093FA740193D39FEA9E50419002E5E0FF55
:103303008D828C83740293FDEF2403FF126FC990A7
:1033130001F7A3A3E0FEA3E0FF9002E5E0FD25E0B3
:10332300241BF582E43401F583EEF0A3EFF074017E
:103333002DF582E43400F583E04404F0900000E0CE
:10334300C43354E02411F582E43400F583C083C010
:10335300829002E5E0D082D08375F002124BE0E068
:10336300FEA3E0F5828E8374039330E0069002EBB4
:10337300E004F09002E5E004F002319F9001F7E0F1
:10338300FCA3E0FDA3E0FEA3E0FF900281124BA3A8
:103393009002EBE09002AFF0126A57E4FF1200666E
:1033A300E4FF124CB09002ADE070031268F4900297
:1033B300E57401F09002E5E0FF2422F582E4340392
:1033C300F583E0FE74BD2FF582E43402F583E06EED
:1033D30060089003107401F0800A9002E5E004F0A5
:1033E300E0B416D09002B5E0FF900312E06F6002E4
:1033F300801D9002E57402F09002E5E0FFC394059E
:10340300501D74112FF582E43403F583E0600890B6
:1034130003387401F080089002E5E004F080D9904D
:1034230002E57403F09002E5E0FFC39407501E74B5
:10343300162FF582E43403F583E0F4600890033932
:103443007401F080089002E5E004F080D89002B99E
:10345300E0FF90031FE06F600690033B7401F09060
:1034630002B0E0FF90033DE06F7004A3E0600690BC
:1034730003207401F09002BCE0F46023900310E099
:103483007018900338E07012900339E0700C9003C9
:103493003BE07006900320E06005E49002B7F090F3
:1034A30002AEE0B40115E4900320F090033BF090EA
:1034B3000339F0900338F0900310F07F0022C0E04E
:1034C300C0F0C083C082C0D075D00820D9030241A8
:1034D30049E5D9543F7003024138147003023CA3F9
:1034E30014602E24E270030240AB147003023C9973
:1034F30024F17003023D16240E600302414575D585
:103503000063D440C20CE5D454FC4402F5D4024118
:103513004520DE0302414563D480AFDB9002DDE446
:10352300F0A3EFF09002DDA3E0F5D590031DE030AA
:10353300E75790057FE075F040A42400F974063541
:10354300F0FAC8E9C8CCEACCCD7401CD7B017A0589
:1035530079007E007F4012486F9005407452F0A3BB
:103563007444F090057FE0FF04F0900542EFF09083
:10357300057EE0FFA3E0C39F5003023C93E4F09079
:10358300031DE0547FF0023C939005407452F09089
:103593000501E0900541F0900502E0900542F090AE
:1035A3000503E0900543F0900500E0B44410A3E068
:1035B300B44B0BA3E0B44206A3E06443601A900546
:1035C30000E064447052A3E0644C704CA3E0645484
:1035D3007046A3E064437040900504E0C394314017
:1035E30037E0D394385031900501E090057EB44B19
:1035F3000B7408F0900504E024D980097404F0905A
:103603000504E024ED90031DF090057FE4F09003A2
:103613001DE04480F0023C93900500E06443702376
:10362300A3E0B44B1EA3E0B45919A3E0B45414901F
:103633000544E527F0900504E0F527900545E527C7
:103643000238F0900500E06443600302378BA3E087
:103653006452600302378BA3E0644B600302378B31
:10366300A3E0644D600302378B900153E0FFA3E0B6
:10367300900544CFF0A3EFF0900155E0FFA3E09055
:103683000546CFF0A3EFF0900164E02401FF900121
:1036930063E03400FE9001A7E0FCA3E0FDD39FECC0
:1036A3009E4008CEECCECFEDCF8000900160E024A9
:1036B300FFFD90015FE034FFFCC3EF9DEE9C5026BD
:1036C300900164E02401FF900163E03400FE900167
:1036D300A7E0FCA3E0FDD39FEC9E4008CEECCECF49
:1036E300EDCF8010800E900160E024FFFF90015F1A
:1036F300E034FFFE900153EEF0A3EFF0900166E09B
:103703002401FF900165E03400FE9001A9E0FCA3D1
:10371300E0FDD39FEC9E4008CEECCECFEDCF8000F2
:10372300900162E024FFFD900161E034FFFCC3EFF0
:103733009DEE9C5026900166E02401FF900165E018
:103743003400FE9001A9E0FCA3E0FDD39FEC9E4072
:1037530008CEECCECFEDCF8010800E900162E02436
:10376300FFFF900161E034FFFE900155EEF0A3EFFF
:10377300F0900153E0FDA3E0900548CDF0A3EDF0F8
:10378300A3EEF0A3EF0238F0900500E0644360037A
:103793000238AEA3E0645260030238AEA3E0644B88
:1037A30060030238AEA3E0645A60030238AE9001AE
:1037B30063E0FFA3E0900544CFF0A3EFF090015F37
:1037C300E0FFA3E0900546CFF0A3EFF0900165E0A2
:1037D300FFA3E0900548CFF0A3EFF0900161E0FF75
:1037E300A3E090054ACFF0A3EFF0900504E0FEA319
:1037F300E0FF900153E0FCA3E0FDC3EF9DEE9C408E
:10380300030238A3900506E0FEA3E09DEE9C50035F
:103813000238A3A3E0FEA3E0FF900155E0FCA3E080
:10382300FDEF9DEE9C507990050AE0FEA3E09DEE2E
:103833009C406D900504E0FFA3E0900163CFF0A3EB
:10384300EFF0900506E0FFA3E090015FCFF0A3EF58
:10385300F0900508E0FFA3E0900165CFF0A3EFF03F
:1038630090050AA3E0FF900161EEF0A3EFF0A3E05F
:10387300FDA3E090054CCDF0A3EDF090015FE0FDDA
:10388300A3E090054ECDF0A3EDF0900165E0FDA31C
:10389300E0900550CDF0A3EDF0A3EEF0A3EF804D43
:1038A30090054C74FFF0A3F0023C93900500E06494
:1038B300437044A3E06445703EA3E064437038A3BF
:1038C300E064447032A20F33900544F0A210E43355
:1038D300A3F0900504E024FF920FA3E024FF9210CD
:1038E300A20FE433900546F0A210E433A3F0900353
:1038F3001D7432F0023C93900500E0B44313A3E03F
:10390300B4450EA3E0B44309A3E064467003023C4C
:1039130093900500E064427028A3E0B44623A3E03B
:10392300B4571EA3E0B45619C87444C8CC7405CC6C
:10393300CD7401CD7BFF7A00790E7E007F04023BBC
:103943007C900500E064426003023A9AA3E0645568
:103953006003023A9AA3E064496003023A9AA3E03F
:1039630064446003023A9A90057DF090057DE0FF80
:1039730025E02446F582E43403F583E0FE74442F06
:10398300F582E43405F583EEF090057DE02444F5FB
:1039930082E43405F583E0C39430402790057DE04D
:1039A3002444F582E43405F583E0D394395014902C
:1039B300057DE02444F582E43405F583E024D0F06A
:1039C300023A4790057DE02444F582E43405F5830B
:1039D300E0C39461402690057DE02444F582E434FD
:1039E30005F583E0D39466501390057DE02444F5F8
:1039F30082E43405F583E024A9F0804890057DE056
:103A03002444F582E43405F583E0C39441402690D1
:103A1300057DE02444F582E43405F583E0D3944640
:103A2300501390057DE02444F582E43405F583E0EA
:103A330024C9F0800F90057DE02444F582E4340529
:103A4300F583E4F090057DE004F0E0640C6003028C
:103A5300396E90057DE4F090057DE0FF25E0244478
:103A6300F582E43405F583E0C454F0FEEF25E02449
:103A730045F582E43405F583E04EFF90057DE024AF
:103A830044F582E43405F583EFF090057DE004F01E
:103A9300E0B406C3023C93900500E0644260030275
:103AA3003B4FA3E064496003023B4FA3E0645060D3
:103AB30003023B4FA3E064546003023B4F9001A712
:103AC300E0FFA3E0900544CFF0A3EFF09001A9E05D
:103AD300FFA3E0900546CFF0A3EFF0A3124BAF0096
:103AE30000000090057DE4F0900548C083C082E0AB
:103AF300F8A3E0F9A3E0FAA3E0FBE8C0E0E9C0E043
:103B0300EAC0E0EBC0E090057DE0F92440F582E4F3
:103B13003401F583E0FFE4FCFDFEC8E9C8124B90D5
:103B2300D0E0FBD0E0FAD0E0F9D0E0F8EB4FFFEAC9
:103B33004EFEE94DFDE84CFCD082D083124BA3909E
:103B4300057DE004F0E0B4139F023C93900500E090
:103B53006442702BA3E0B44726A3E0B45021A3E052
:103B6300B44D1CC87444C8CC7405CCCD7401CD7B52
:103B7300FF7ADA79007E007F3812486F023C939017
:103B83000500E06442701DA3E0B44418A3E0B44709
:103B930013A3E0B4430E7B017A0579447D38127C8C
:103BA3000E023C93900500E064427028A3E0645247
:103BB3007022A3E0B4531DA3E0B454187E007F3CED
:103BC3007D207B017A057944124C1990031D74649E
:103BD300F0023C93900500E064427028A3E0644245
:103BE3007022A3E0B44F1DA3E0B454187E007F3CC1
:103BF3007D207B017A057944124C1990031D74656D
:103C0300F0023C93900500E064427054A3E06443E7
:103C1300704EA3E064537048A3E064437042FE7F98
:103C23003C7D207B017A057944124C19900000E019
:103C33002431900544F0900504E0C394314019E029
:103C4300D394385013E0900545F024CF900600F04C
:103C530090031D7466F0803890054574FFF0803042
:103C6300900500E0B44217A3E0B44212A3E0B455B8
:103C73000DA3E0B45A0890031D7467F080129005F9
:103C8300407452F0A37449F0A3744EF0A37456F039
:103C930053D4FC02414575D30063D240C20B806804
:103CA300AFDB9002DDE4F0A3EFF09002DDE0FEA3D2
:103CB300E0FF4E6053D3EF9402EE9400504A90021B
:103CC300DDA3E0247FF58274053EF583E0FF7E00EB
:103CD3009002DDEEF0A3EFF07F0020E0027F01EF22
:103CE30024FFB3920A9002DDE0FEA3E0FF7D0020F3
:103CF300E1027D01ED24FFB3920DEF7F0020E2028C
:103D03007F01EF24FFB39209E5D254FC4402F5D2BC
:103D130002414575DCC0AFDB9002DDE4F0A3EFF0B8
:103D23009002DDE07004A3E0640860030240809029
:103D330004C7E0FE9004C6E07C002400FFEC3E9044
:103D43000341F0A3EFF09002DDE4F0A3F09002DC76
:103D5300F09004C1E0900343F09004C0E05460602D
:103D63001A900343E01424FD400302408624FB24FD
:103D7300FD40030240868000024080900343E0B48C
:103D83000B00400302407E903D91F82828730240C7
:103D930053023F8202407E023FD202407E023F3FF7
:103DA300023DB202407E023F4B023F7002408690CA
:103DB30004C3E024FE602B14604224E17003023E3E
:103DC3007824216003023EB890036074FFF0A3746B
:103DD30083F0A37417F09002DDE4F0A37412F002F1
:103DE3003EBE90036074FFF0A37484F0A374A6F046
:103DF3009002DDE4F0A37449F0023EBE9004C2E0F9
:103E030014602714603D14605324036003023EB81A
:103E130090036074FFF0A37483F0A37429F09002FD
:103E2300DDE4F0A37404F0023EBE90036074FFF07F
:103E3300A37483F0A37443F09002DDE4F0A374242D
:103E4300F0807890036074FFF0A37483F0A3742D63
:103E5300F09002DDE4F0A37416F0805F90036074C9
:103E630001F0A37403F0A37444F09002DDE4F0A323
:103E7300741AF080469004C4E0FF701A90036074D3
:103E8300FFF0A37483F0A37467F09002DD7401F074
:103E9300A3741DF08025EFB4011990036074FFF043
:103EA300A37484F0A37484F09002DDE4F0A374227D
:103EB300F0800880009002DC74FFF09002DDE0FEE9
:103EC300A3E0FFD3900342E09F900341E09E4005AF
:103ED300EEF0A3EFF0900341E0FEA3E0FFC39440B4
:103EE300EE9400400C7C007D40CEECCECFEDCF8035
:103EF300009002DDEEF0A3EFF09002DDE0FEA3E020
:103F0300FFC874C0C8CC7404CCCD7401CD900360D9
:103F1300E0FBA3E0FAA3E0F912486F9002DDE0FEB4
:103F2300A3E0FFC3900342E09FF0900341E09EF0C3
:103F3300900361EE8FF01249930240869004C2E031
:103F4300FF900341E4024078900340E09004C0F006
:103F5300C3900342E09401900341E09400500302B4
:103F630040869002DDE4F0A304F00240869004C290
:103F7300E0900340F07003024086D20E0240869028
:103F830004C0E0541FFF640270359004C4E0146061
:103F93001E1460202481600D14701EE5D454BC44AB
:103FA30002F5D4801AE5D254BC4402F5D2801053F2
:103FB300D273800B53D47380069002DC74FFF0EF4E
:103FC300700A90033FE054FEF00240860240809066
:103FD30004C0E0541FFD70269004C3E0FE9004C2A9
:103FE300E0FBEB64014E70149084AD9330E50A90CE
:103FF300033FE04401F0024086024080807FED648D
:1040030002704B9004C3E0FE9004C2E0FDED4E70DD
:104013003B9004C5E0FE9004C4E0FDEDFFEE702A82
:10402300EF24FE60112481601714701EE5D454BF81
:104033004403F5D4804DE5D4547F440CF5D4804338
:10404300E5D254BF4403F5D280398031802F802DCF
:104053009004C1E4F09004C0F0900341E0FEA3E0BB
:10406300FFC39402EE94009002DD4008E4F0A374D1
:1040730002F0800FEEF0A3EFF0800880009002DCE6
:1040830074FFF09002DCE0B4FF0675DCCF0241451B
:104093009002DDE0FEA3E0FF4E60048FDD80037538
:1040A300DD0075DCC0024145900343E024FB606EF4
:1040B30014707A900341E0FEA3E0FFC39440EE94B2
:1040C30000400C7C007D40CEECCECFEDCF80009045
:1040D30002DDEEF0A3EFF09002DDE0FEA3E0FFC807
:1040E30074C0C8CC7404CCCD7401CD900360E0FBE4
:1040F300A3E0FAA3E0F912486F9002DDE0FEA3E02B
:10410300FFC3900342E09FF0900341E09EF09003D1
:1041130061EE8FF01249938FDD63DC4080249003BE
:1041230041A3E0FFE5E354804FF5E3800375DD0031
:1041330075DC02800DAFDB9002DDE4F0A3EFF063EA
:10414300DC80C2D9803E30D81F75DC0275D202757F
:10415300D40275E300C2DAC2D9C20EC20BC20C90FC
:10416300033FE4F0C2D8801C30DA16C2DAE5DA90F5
:10417300033F30E206E04402F08009E054FDF080A2
:104183000375D8FFD0D0D082D083D0F0D0E0329066
:1041930002EC7403F09001F7E0FCA3E0FDA3E0FE62
:1041A300A3E0FF900289E0F8A3E0F9A3E0FAA3E01B
:1041B300FBD3124B6C400A900285124BAF000000F8
:1041C300009001F7E0FCA3E0FDA3E0FEA3E0FF9075
:1041D3000289124BA39001F7E0FCA3E0FDA3E0FEEC
:1041E300A3E0FF900285E0F8A3E0F9A3E0FAA3E0DF
:1041F300FBD3124B6C400C9002AE7401F0E49002BE
:10420300D3F022E49002AEF09002F1F0A3F090021A
:10421300ADE0FF603B900000E075F020A4240FF5B3
:1042230082E5F03400F58375F002EF124BE0E0FE17
:10423300A3E0FFF5828E83740293FD7C00EF2403D9
:10424300FFE43EFEEF2DFFEC3E9002F1F0A3EFF012
:104253009002ECE0C39416400302479E9002F1E003
:10426300FEA3E0FF9002B2E0FCA3E0FDC39FEC9E3F
:104273004004E40246558D828C83E493FFB4EA3113
:10428300ED2401FBE43C8B82F583E493FE5401901F
:1042930002D3F0EE30E1099002B3E024020244407D
:1042A3009002B3E004F070069002B2E004F002471B
:1042B3008DEF64EB60030243DDED2401FFE43C8FEB
:1042C30082F583E493FBB4021EED2404FEE43C90E8
:1042D300028DF0A3CEF09002B3E02404F09002B27A
:1042E300E03400F002478D9002ACE004F0700690D9
:1042F30002ABE004F0ED2402FFE43C8F82F583E49B
:1043030093FEED2403FDE43C8D82F583E493FDED00
:10431300FF9002EDEEF0A3EFF0EB600B9002D4E020
:1043230030E204540360339002B2E0FEA3E02401C0
:10433300FFE43E8F82F583E49370079002D4E0207C
:10434300E2189002EDE0FEA3E0FF4E60149002AB92
:10435300E0FCA3E0C39FEC9E40079002D4E04480BE
:10436300F09002D4E0FF30E7279002B3E02403F09B
:104373009002B2E03400F0EF547B9002D4F0E4906A
:1043830002ABF0A3F074FF90028DF0A3F002478D0F
:1043930090028DE0FEA3E0FFF47002EEF46006905D
:1043A30002B2EE8030900000E075F020A4240FF5F7
:1043B30082E5F03400F583C083C0829002ADE0D083
:1043C30082D08375F002124BE0E0FEA3E02403FFEA
:1043D300E43E9002B2F0A3EFF0229002B2E0FEA31B
:1043E300E0F5828E83E49364FE705B9002B2E0FC9E
:1043F300A3E0FD2401FFE43C8F82F583E493FEED0B
:104403002402FDE43C8D82F583E493FDEDFF9002ED
:10441300F4EEF0A3EFF0E4FCFD9001F7E0F8A3E085
:10442300F9A3E0FAA3E02FFFEA3EFEED39FDEC38F5
:10443300FC900285124BA39002B3E02403F0900298
:10444300B2E03400F0229002B2E0FEA3E0F5828EE7
:1044530083E493FC64FD70619002ECE0FFD394036A
:10446300400302479E900312E0600302479E9002BE
:10447300B275F00112499385F082F583E493FD123E
:104483006FC99002B2E475F00112499385F082F589
:1044930083E493900323F09002F1E0FEA3E0FF9006
:1044A30002B2E475F001124993FAEF65F07002EE7F
:1044B3006A600302479E024655EC64EC6014900266
:1044C300B2E0FEA3E0F5828E83E49364ED60030221
:1044D300465A9002ECE0D39403400302479E9003B4
:1044E30012E0600302479E9002B2E0FCA3E0FD24C9
:1044F30001FFE43C8F82F583E493FEED2402FDE4A7
:104503003C8D82F583E493FDEDFF9002EDEEF0FC2C
:10451300A3EFF0CCCCCDCD9002B2E0FAA3E0FB2424
:1045230003FFE43A8F82F583E493FEEB2404FBE478
:104533003A8B82F583E493FBEBFF9002EFEEF0A35B
:10454300EFF0CFEDCFCEECCEE4FCFDFB7A80F9F8B3
:10455300124A2BECC0E0EDC0E0EEC0E0EFC0E0900B
:104563000111E0FEA3E024FAF582EE3401F583E4C1
:1045730093FE740193FFCBEFCBCAEECAE4F9F8D0F4
:10458300E0FFD0E0FED0E0FDD0E0FC127A489002DC
:10459300EDEEF0A3EFF0A3E0FEA3E0FFE4FCFDFBF0
:1045A3007A80F9F8124A2BECC0E0EDC0E0EEC0E0EF
:1045B300EFC0E0900111E0FEA3E024FCF582EE34AD
:1045C30001F583E493FE740193FFCBEFCBCAEECAEC
:1045D300E4F9F8D0E0FFD0E0FED0E0FDD0E0FC123B
:1045E3007A489002EFEEF0A3EFF09002EDE0FCA327
:1045F300E0FDCFEDCF900319F0ECA3F09002EFE0D4
:10460300FCA3E0FDCFEDCF90031BF0ECA3F09002F1
:10461300B2E0FEA3E0F5828E83E493B4ED0790034A
:1046230017E04401F09002B3E02404F09002B2E0FA
:104633003400F09002F1E0FEA3E0FF9002B2E475D3
:10464300F001124993FCEF65F07002EE6C60030217
:10465300479E9002ADF0229002B2E0FEA3E0F58205
:104663008E83E49364FA600302470C9002F37403AD
:10467300F0F09002ECE0FC9002F3E0FFC39C502AC0
:104683009002B2E0FAA3E0F5828A83E493FE7422F7
:104693002FF582E43403F583E06E70069002F3F0A5
:1046A30080089002F3E004F080C89002F3E0700306
:1046B30002479E900312E0600302479E900323E0AB
:1046C30060199002ECE0FF04F09002B2E475F0018F
:1046D30012499385F082F583024787EC64036003F4
:1046E30002479E9002ECE0FF04F09002B2E475F002
:1046F3000112499385F082F583E493FD126FC9900B
:104703000323E04402F002478D9002F37403F0F0B8
:104713009002ECE0FC9002F3E0FFC39C502A90026D
:10472300B2E0FAA3E0F5828A83E493FE74222FF5C4
:1047330082E43403F583E06E70069002F3F08008A0
:104743009002F3E004F080C89002F3E0604D900320
:1047530012E07047900323E070149002ECE0FF0432
:10476300F09002B2E0FAA3E0F5828A838016ECB4FB
:1047730003299002ECE0FF04F09002B2E0FCA3E016
:10478300F5828C83E493FD126FC99002B3E004F0C9
:1047930070069002B2E004F002425322E709F608E1
:1047A300DFFA8046E709F208DFFA803E88828C83CD
:1047B300E709F0A3DFFA8032E309F608DFFA80782D
:1047C300E309F208DFFA807088828C83E309F0A39F
:1047D300DFFA806489828A83E0A3F608DFFA8058CF
:1047E30089828A83E0A3F208DFFA804C80D280FAC0
:1047F30080C680D4806980F28033801080A680EAEE
:10480300809A80A880DA80E280CA803389828A8392
:10481300ECFAE493A3C8C582C8CCC583CCF0A3C883
:10482300C582C8CCC583CCDFE9DEE7800D89828AE7
:1048330083E493A3F608DFF9ECFAA9F0EDFB2289F0
:10484300828A83ECFAE0A3C8C582C8CCC583CCF0C6
:10485300A3C8C582C8CCC583CCDFEADEE880DB8988
:10486300828A83E493A3F208DFF980CC88F0EF60B7
:10487300010E4E60C388F0ED2402B4040050B9F574
:1048830082EB2402B4040050AF23234582239047D4
:10489300EF73BB010CE58229F582E5833AF583E0EA
:1048A300225006E92582F8E622BBFE06E92582F8B6
:1048B300E222E58229F582E5833AF583E49322BB7C
:1048C300010689828A83F0225002F722BBFE01F39C
:1048D30022F8BB010DE58229F582E5833AF583E8E9
:1048E300F0225006E92582C8F622BBFE05E925829F
:1048F300C8F222EF8DF0A4A8F0CF8CF0A428CE8DBF
:10490300F0A42EFE22BC000BBE0029EF8DF084FF25
:10491300ADF022E4CCF875F008EF2FFFEE33FEEC98
:1049230033FCEE9DEC984005FCEE9DFE0FD5F0E9BF
:10493300E4CEFD22EDF8F5F0EE8420D21CFEADF0BE
:1049430075F008EF2FFFED33FD4007985006D5F0C3
:10495300F222C398FD0FD5F0EA22C2D5EC30E70965
:10496300B2D5E4C39DFDE49CFCEE30E715B2D5E47B
:10497300C39FFFE49EFE124908C3E49DFDE49CFC33
:10498300800312490830D507C3E49FFFE49EFE224B
:10499300C5F0F8A3E028F0C5F0F8E58215827002AF
:1049A3001583E038F022BB010A89828A83E0F5F09F
:1049B300A3E022500687F009E71922BBFE07E3F5BF
:1049C300F009E3192289828A83E493F5F074019351
:1049D30022BB010789828A83024993500B09C5F0E0
:1049E30027F7C5F01937F722BBFE0D09F8E325F0C9
:1049F300F3C5F019E338F322F889828A83740193AB
:104A030025F0C5F0F8E4933822BB010A89828A8332
:104A1300F0E5F0A3F0225006F709A7F01922BBFE38
:104A230006F3E5F009F31922E88FF0A4CC8BF0A488
:104A33002CFCE98EF0A42CFC8AF0EDA42CFCEA8E6D
:104A4300F0A4CDA8F08BF0A42DCC3825F0FDE98F90
:104A5300F0A42CCD35F0FCEB8EF0A4FEA9F0EB8F87
:104A6300F0A4CFC5F02ECD39FEE43CFCEAA42DCE54
:104A730035F0FDE43CFC2275F008758200EF2FFF52
:104A8300EE33FECD33CDCC33CCC58233C5829BED23
:104A93009AEC99E58298400CF582EE9BFEED9AFD27
:104AA300EC99FC0FD5F0D6E4CEFBE4CDFAE4CCF9D7
:104AB300A88222B800C1B90059BA002DEC8BF0844A
:104AC300CFCECDFCE5F0CBF97818EF2FFFEE33FE18
:104AD300ED33FDEC33FCEB33FB10D703994004EBD0
:104AE30099FB0FD8E5E4F9FA227818EF2FFFEE339C
:104AF300FEED33FDEC33FCC933C910D7059BE99AAE
:104B03004007EC9BFCE99AF90FD8E0E4C9FAE4CC3E
:104B1300FB2275F010EF2FFFEE33FEED33FDCC33A8
:104B2300CCC833C810D7079BEC9AE899400AED9B91
:104B3300FDEC9AFCE899F80FD5F0DAE4CDFBE4CC70
:104B4300FAE4C8F922C3E49FFFE49EFEE49DFDE47A
:104B53009CFC22EB9FF5F0EA9E42F0E99D42F0ECCB
:104B63006480C864809845F022EB9FF5F0EA9E428A
:104B7300F0E99D42F0E89C45F022E8600FECC31396
:104B8300FCED13FDEE13FEEF13FFD8F122E8600FE7
:104B9300EFC333FFEE33FEED33FDEC33FCD8F122EC
:104BA300ECF0A3EDF0A3EEF0A3EFF022A88285834F
:104BB300F0D083D082124BC6124BC6124BC6124B97
:104BC300C6E473E493A3C583C5F0C583C8C582C88F
:104BD300F0A3C583C5F0C583C8C582C822A42582B6
:104BE300F582E5F03583F58322EC8EF0A4CCC5F095
:104BF300CCCDF8EFA4CEC5F02DFDE43CFCE8A42E0B
:104C0300C8C5F03DFDE43CFCEFA4FFE5F028FEE45D
:104C13003DFDE43CFC22EF4E6012EF60010EEDBB64
:104C2300010B89828A83F0A3DFFCDEFA2289F0502C
:104C330007F709DFFCA9F022BBFEFCF309DFFCA99F
:104C4300F022BB010689828A83E0225002E722BB5D
:104C5300FE02E32289828A83E49322E0FCA3E0FD3F
:104C6300A3E0FEA3E0FF22F8E0FBA3A3E0F925F015
:104C7300F0E582158270021583E0FA38F022EBF03A
:104C8300A3EAF0A3E9F022D083D082F8E493701270
:104C9300740193700DA3A393F8740193F582888331
:104CA300E4737402936860EFA3A3A380DFE490022C
:104CB300F6F0A3F0A3F0EF6024E490029DF09002DD
:104CC3009BF0900299F090029EF090029CF090026B
:104CD3009AF090029FF0A3F09002F8F022900299CC
:104CE300E0FF900111E0FCA3E0FD24E1F582EC3448
:104CF30001F583E49325E014851AF0A4FEC3EF9E27
:104D0300900299F0E4F51AA3E0FFED24E9F582ECB3
:104D13003401F583E49325E014851BF0A4FEC3EF6F
:104D23009E90029AF0E4F51B9002F9F09002F9E0EC
:104D3300FF249BF582E43402F583E0FE74992FF59A
:104D430082E43402F583E0FFD3EE6480F8EF6480FD
:104D53009840089002F87401F08018C3EE6480F85C
:104D6300EF64809850089002F87402F08005E49094
:104D730002F8F0900111E0FEA3E0F5828E83C08378
:104D8300C0829002F9E0FFD082D08375F008124B05
:104D9300E0E58224E0F582E5833401F583E493546E
:104DA3000F24FE7003024E8A04600302517A9002BC
:104DB300F8E0FE7003025196749D2FF582E43402ED
:104DC300F583E060299002F9E0FF249DF582E43445
:104DD30002F583E4F0749B2FF582E43402F583E05B
:104DE300FFEE25E024FDFEC3EF9EF00251969002F4
:104DF300F8E0FF900111E0FCA3E0F5828C83C0830F
:104E0300C0829002F9E0D082D08375F008124BE0A3
:104E1300E58224E2F582E5833401F583E5822FF50B
:104E230082E43583F583E493FD60057FFF126FC948
:104E3300900323E0FF9002F8E0FE900111E0FCA351
:104E4300E0F5828C83C083C0829002F9E0FDD082BA
:104E5300D08375F008124BE0E58224E5F582E58303
:104E63003401F583E5822EF582E43583F583E493FB
:104E7300FEEF4E900323F0749D2DF582E43402F58A
:104E8300837401F00251969002F8E0700302519688
:104E9300A3E0FD249DF582E43402F583E0602790CE
:104EA300033DE0FC90029FE0FAA3E0FB25E0FFEC6A
:104EB3004F90033DF07807CEEACEEBCEA2E713CEB8
:104EC30013D8F8025132900111E0FEA3E0F5828E6F
:104ED3008375F008ED124BE0E58224E3F582E58368
:104EE3003401F583E493FFC3941E5003024FC6EFCE
:104EF300D394274003024FC6900111A3E0F5828E9D
:104F030083C083C0829002F9E0D082D08375F00819
:104F1300124BE0E58224E4F582E5833401F583E472
:104F230093FFC3941E5003024FC6EFD3942740034D
:104F3300024FC6900111A3E0F5828E83C083C08225
:104F43009002F9E0D082D08375F008124BE0E5823D
:104F530024E3F582E5833401F583E49324E3FFE45A
:104F630034FFFE7C007D0A124908CFEDCFEF75F0C8
:104F73000AA4FBAAF0900111E0FEA3E0F5828E8360
:104F8300C083C0829002F9E0D082D08375F008120A
:104F93004BE0E58224E4F582E5833401F583E49371
:104FA30024E3FFE434FFFE7C007D0A12495DEB2D10
:104FB300FFEA3CFEEF2401FFE43E90029FF0A3EFE3
:104FC300F0800990029FE4F0A3740AF090029FE03E
:104FD300FAA3E0FB9002F8E075F002A424FDFFE5DC
:104FE300F034FFFE7C007D0A1248F6CDEBCDCCEA0F
:104FF300CC1248F690029FEEF0A3EFF0900111E07F
:10500300FEA3E0F5828E83C083C0829002F9E0FFA5
:10501300D082D08375F008124BE0E58224E6F58256
:10502300E5833401F583E493FEB4010F749D2FF5FA
:1050330082E43402F5837401F08078EEB4021290B6
:1050430002F9E0249DF582E43402F5837403F080D1
:1050530062900111E0FEA3E0F5828E83C083C082DB
:105063009002F9E0FFD082D08375F008124BE0E59F
:105073008224E6F582E5833401F583E493FEB404E8
:105083000F749D2FF582E43402F5837404F08023BA
:10509300EE9002F9B4080FE0249DF582E43402F5A2
:1050A300837405F0800DE0249DF582E43402F583DA
:1050B3007402F09002F9E0249DF582E43402F58352
:1050C300E0FD7C0090029FE0FEA3E0FF12495DCA71
:1050D300ECCACBEDCB9002F9E0249DF582E43402D7
:1050E300F583E0FD7C0090029FE0FEA3E0FF124900
:1050F3005DCCEECCCDEFCDED2BFEEC3A9002F6F08D
:10510300A3CEF090029FECF0A3EDF090033DE0FD01
:105113009002F6E0FAA3E0FB25E0FFED4F90033D9C
:10512300F07807CEEACEEBCEA2E713CE13D8F890F1
:10513300033EF09002F9E0FF249DF582E43402F58A
:1051430083E014F0749D2FF582E43402F583E0705C
:10515300429002F9E0249BF582E43402F583C08394
:10516300C082E0FF9002F8E025E024FDFEC3EF9E3D
:10517300D082D083F0801C9002F9E0FF2499F5825D
:10518300E43402F583E0FE749B2FF582E43402F5E8
:1051930083EEF09002F9E004F0E0C39402500302BE
:1051A3004D2F22E51024E5F582E43402F583E00572
:1051B30010229002E23007039002E5E475F0011239
:1051C3004C6A024C452000E97F2ED2008018EF5430
:1051D3000F2490D43440D4FF30040BEF24BFB41A0F
:1051E3000050032461FFE511600215110514E51455
:1051F3007002051330070E9002E2E475F001124CC1
:105203006AEF0248C2027C8F7403D2078003E4C2B0
:1052130007F5109002E2124C81E4F511F513F51431
:10522300E51160077F201251E980F57512FFC20175
:10523300C200C202C203C205C206C2081251B5FFB0
:10524300700D3007057F001251FAAF14AE1322B46C
:10525300255FC2D5C2041251B5FF24D0B40A005051
:105263001A75F00A781130D50508B6FF0106C6A4F1
:1052730026F620D5047002D20380D924CFB41A00B5
:10528300EF5004C2E5D2040253FBD20180C6D20020
:1052930080C0D20280BCD2D580BAD20580B47F2030
:1052A3001251E92002077401B5110040F11251A611
:1052B300FF1251E9025223D208D20680951251A659
:1052C300FB1251A6FA1251A6F94A4B700679CC7A11
:1052D300547BFF20022EE511602A7E008E827583A7
:1052E3000012489560060EEE651270F0C2D5EBC051
:1052F300E0EAC0E0E9C0E0EE125442D0E0F9D0E0C9
:10530300FAD0E0FB124C45FF60AAEBC0E0EAC0E034
:10531300E9C0E01251E9D0E02401F9D0E03400FA09
:10532300D0E0FBE5120460DCD512D980877BFF7ADD
:1053330054793ED202809C791080027908C206C259
:10534300088008D2D5790A8004790AC2D5E5120407
:105353007002F512E4FAFDFEFF1251A6FC7B082051
:1053630001131251A6FD7B1030000A1251A6FE1242
:1053730051A6FF7B20EC3382D592D55013C3E43082
:1053830000069FFFE49EFEE42001039DFDE49CFCD8
:10539300E4CBF8C201EC700CCFCECDCCE824F8F806
:1053A30070F38017C3EF33FFEE33FEED33FDEC33C1
:1053B300FCEB33FB994002FB0FD8E9EB300105F816
:1053C300D0E0C448B201C0E00AEC4D4E4F78207BD8
:1053D3000070C2EAB5120040BCC0E0125444D0F0E1
:1053E300D0E0200104C4C0E0C4B201C0F01251D225
:1053F300D0F0D5F0EB025223124C8A52C053533AE9
:105403005852914C528D42533E4F53464453464952
:1054130052A643534C5553304653304553304754AB
:10542300EC5052952D52992E52BC2B529D2352BAB9
:105433002054D52A525548000052B43F3F3F0079CB
:105443000AA2D5200314300509B910020404B908CF
:105453000104A2D52006025001042002689202B57D
:1054630011005034C0E07F203003197F30A2027254
:10547300067205500F12549BC202C206C205C2082F
:105483007F30800F300503E9C0E01251E930050396
:10549300D0E0F9D0E0B511CC3005177F30B9100C4E
:1054A3001251E97F583004077F788003B90803124B
:1054B30051E93002057F2D0251E97F202008F87F52
:1054C3002B2006F322920280CF286E756C6C290084
:1054D300D2011251A63001F8C201781130D501086A
:1054E300F60252552D504349581251A62403B405D0
:1054F300004001E49054E7931251DA743A1251DAFE
:10550300D20375110402533AE4FD75F002EDA424AD
:1055130000F582E5F034DAF583E493FA740193FB42
:10552300ED25E0FFE433FE74632FF58274013EF54D
:1055330083EAF0A3EBF075F002EDA42404F582E511
:10554300F034DAF583E493FA740193FBED25E0FF7D
:10555300E433FE745F2FF58274013EF583EAF0A312
:10556300EBF075F002EDA42408F582E5F034DAF5EA
:1055730083E493FA740193FBED25E0FFE433FE74B7
:10558300532FF58274013EF583EAF0A3EBF07463C5
:105593002FF58274013EF583E0FEA3E0C394FFEE92
:1055A300940F4015ED25E0FFE433FE74632FF5827D
:1055B30074013EF583E4F0A3F0ED25E0FFE433FE50
:1055C300745F2FF58274013EF583E0FEA3E0FF4E86
:1055D3006009D3EF94FFEE940F4018ED25E0FFE44C
:1055E30033FE745F2FF58274013EF583740FF0A3CD
:1055F30074FFF0ED25E0FFE433FE745F2FF5827452
:10560300013EF583E0FAA3E0FB74632FF582740196
:105613003EF583E0FEA3E0C39BEE9A4026ED25E032
:10562300FFE433FE74632FF58274013EF583E4F0E7
:10563300A3F0745F2FF58274013EF583740FF0A31A
:1056430074FFF0ED25E0FFE433FE74532FF582740D
:10565300013EF583E0FEA3E0FF4E6009C3EF94FF34
:10566300EE940F4017ED25E0FFE433FE74532FF55E
:105673008274013EF5837408F0A3E4F0ED25E0FFA6
:10568300E433FE74632FF58274013EF583E0FAA3DD
:10569300E0FB74532FF58274013EF583E0FEA3E033
:1056A300D39BEE9A402AED25E0FFE433FE745F2F8F
:1056B300F58274013EF583E0FAA3E0FB74532FF502
:1056C3008274013EF583E0FEA3E0C39BEE9A40366D
:1056D300ED25E0FFE433FE74632FF58274013EF59C
:1056E30083E4F0A3F074532FF58274013EF58374C1
:1056F30008F0A3E4F0745F2FF58274013EF5837420
:105703000FF0A374FFF0ED25E0FFE433FE74632F85
:10571300F58274013EF583E0FAA3E0FB74532FF5A1
:105723008274013EF583E0FEA3E0C39BFBEE9AFA8D
:10573300ED25E0FFE433FE745B2FF58274013EF543
:1057430083EAF0A3EBF074532FF58274013EF583E3
:10575300E0FAA3E0FB745F2FF58274013EF583E06A
:10576300FEA3E0C39BFBEE9AFAED25E0FFE433FED4
:1057730074572FF58274013EF583EAF0A3EBF00D25
:10578300ED6402600302550D90DA10E493F527905F
:10579300DA14E493FF13920FEFC31313921022E46E
:1057A3009002E6F0A20A33A3F0A20DE433A3F0A221
:1057B30009E433A3F09002AFE07F0060027F019021
:1057C30002EAEFF09002ADE07F0060027F019002F9
:1057D300EBEFF0900111E0FEA3E024F9F582EE3443
:1057E30001F583E493C4540F60739002D5E0F8A3EA
:1057F300E0F9A3E0FAA3E0FB9001F7E0FCA3E0FDEE
:10580300A3E0FEA3E0C39BFFEE9AFEED99FDEC98A7
:10581300C0E0EDC0E0EEC0E0EFC0E0900111E0FEBB
:10582300A3E024F9F582EE3401F583E493C4540F25
:1058330025E02407F582E43483F583E493FE7401C1
:1058430093FFCBEFCBCAEECAE4F9F8D0E0FFD0E088
:10585300FED0E0FDD0E0FCD3124B6C501790011149
:10586300E0FEA3E024F9F582EE3401F583E49354DA
:105873000FFF700890021E74FFF08046EF6043C371
:10588300940440028037EF14FDC8EDC87E00740114
:10589300088005C333CE33CED8F9FF90021EE0FC57
:1058A300C39FEE6480F87480984012C8EDC87401F9
:1058B300088002C333D8FCFFC3EC9F8001E490024D
:1058C3001EF0E49002E2F09002E2E0FFC394034092
:1058D30003025A01E0FE900111E0FCA3E0FD24F66F
:1058E300F582EC3401F583E5822EF582E43583F508
:1058F30083E493FB540F24E6F582E43402F583E05A
:10590300FAEBC41313135401FBEA6BFB74E32EF598
:1059130082E43402F583EBF074E32FF582E434027E
:10592300F583E0604BED24F9F582EC3401F583E473
:1059330093540F703B9002E2E024E3F582E43402D7
:10594300F583C083C082E0FF9002E2E0FEED24F322
:10595300F582EC3401F583E5822EF582E43583F597
:1059630083E493FEEF8EF0A4D082D083F00259F843
:105973009002E2E0FBED24F3F582EC3401F583E5DC
:10598300822BF582E43583F583E493FD7C0090025A
:105993001EE0F9FFC374FF9FFFE49400FE1248F674
:1059A30074E32BF582E43402F583E0FD1248F6CC70
:1059B300EECCCDEFCD9002E2E0FF900111E0FAA32F
:1059C300E024F0F582EA3401F583E5822FF582E4E1
:1059D3003583F583E49389F0A42DFFEC35F0FE7C49
:1059E300007DFF1249089002E2E024E3F582E434EB
:1059F30002F583EFF09002E2E004F00258CA90024D
:105A0300E3E0F5A5A3E0F59AA3E0F5A422011C00C9
:105A1300011A00C10F011D00011B00C110410367E2
:105A2300004103680041031D004103210041033A83
:105A33000041031000410338004103390041033B97
:105A43000041032000560322010000000000000073
:105A530000000000000000000000000000004503FB
:105A630011020000000047031603100100000000AC
:105A730042031E040043033C05000041033F00C1F1
:105A83000EC10BC10CC10AC10DC1094401F70000CD
:105A93000000012702540153080008000800080011
:105AA300080008000FFF0FFF000000004401A708D3
:105AB30000080041013B01022300000228000A0202
:105AC30025271044013C0000000042027FDC005007
:105AD300026F000000000000000000000000000052
