:08000000026BA1026F3F3232D6
:07000B0002739001000120C7
:100013000200067B017A0679009002E07401F07F0A
:06002300007ED8025ECD54
:0D002B0002000775A15575A1AA43B110226E
:03003B00026F9CB5
:10004300023158EF4E601505A105A105A105A105D3
:0D005300A105A105A1EF1F70EA1E80E722A4
:10006300026E16EF6013E4900299F0A3F0900297EA
:10007300F0A3F0900295020585900111E0FEA3E044
:1000830024D5F582EE3401F583E493FD540175F034
:1000930002A424FFFEE5F034FF9002EBF0A3CEF0C0
:1000A300EDC313540175F002A424FFFEE5F034FF01
:1000B300A3F0A3CEF0900163E0FEA3E0FF9001A7BD
:1000C300E0FCA3E0FDD39FEC9E4008CEECCECFED49
:1000D300CF8000D3900160E09F90015FE09E4020BD
:1000E300900163E0FEA3E0FF9001A7E0FCA3E0FD25
:1000F300D39FEC9E4008CEECCECFEDCF800A800894
:1001030090015FE0FEA3E0FF9001A7EEF0A3EFF004
:10011300900165E0FEA3E0FF9001A9E0FCA3E0FDF0
:10012300D39FEC9E4008CEECCECFEDCF8000D39092
:100133000162E09F900161E09E4020900165E0FE36
:10014300A3E0FF9001A9E0FCA3E0FDD39FEC9E4058
:1001530008CEECCECFEDCF800A8008900161E0FE9F
:10016300A3E0FF9001A9EEF0A3EFF0900111E0FEF0
:10017300A3E024D5F582EE3401F583E493131354FD
:100183003F20E00302030A900153E0FEA3E0FF9047
:1001930001A7E0FCA3E0FDC39FEC9E9002EBE0FE11
:1001A3005037A3E0FFEEC0E0EFC0E0900153E0FE64
:1001B300A3E0FFC3ED9FFFEC9EFE3395E0FDFCE45F
:1001C300FB7A10F9F81246A2ECC0E0EDC0E0EEC0F5
:1001D300E0EFC0E090015B803BA3E0FFEEC0E0EF07
:1001E300C0E0900153E0FEA3E0FF9001A7E0FCA371
:1001F300E0C39FFFEC9EFE3395E0FDFCE4FB7A1029
:10020300F9F81246A2ECC0E0EDC0E0EEC0E0EFC0AA
:10021300E0900157E0FEA3E0FFCBEFCBCAEECAE4C8
:10022300F9F8D0E0FFD0E0FED0E0FDD0E0FC1271A1
:10023300CDCDEFCDCCEECCD0E0FFD0E0FE12456DBE
:100243009002EBEEF0A3EFF0900155E0FEA3E0FF88
:100253009001A9E0FCA3E0FDC39FEC9E9002EDE0BA
:10026300FE5037A3E0FFEEC0E0EFC0E0900155E0A1
:10027300FEA3E0FFC3ED9FFFEC9EFE3395E0FDFC84
:10028300E4FB7A10F9F81246A2ECC0E0EDC0E0EE10
:10029300C0E0EFC0E090015D803BA3E0FFEEC0E073
:1002A300EFC0E0900155E0FEA3E0FF9001A9E0FC60
:1002B300A3E0C39FFFEC9EFE3395E0FDFCE4FB7AD5
:1002C30010F9F81246A2ECC0E0EDC0E0EEC0E0EF9A
:1002D300C0E0900159E0FEA3E0FFCBEFCBCAEECA2A
:1002E300E4F9F8D0E0FFD0E0FED0E0FDD0E0FC126E
:1002F30071CDCDEFCDCCEECCD0E0FFD0E0FE1245FA
:100303006D9002ED020495900153E0FEA3E0FF908F
:1003130001A7E0FCA3E0FDC39FEC9E9002EDE0FE8D
:100323005037A3E0FFEEC0E0EFC0E0900153E0FEE2
:10033300A3E0FFC3ED9FFFEC9EFE3395E0FDFCE4DD
:10034300FB7A10F9F81246A2ECC0E0EDC0E0EEC073
:10035300E0EFC0E090015B803BA3E0FFEEC0E0EF85
:10036300C0E0900153E0FEA3E0FF9001A7E0FCA3EF
:10037300E0C39FFFEC9EFE3395E0FDFCE4FB7A10A7
:10038300F9F81246A2ECC0E0EDC0E0EEC0E0EFC029
:10039300E0900157E0FEA3E0FFCBEFCBCAEECAE447
:1003A300F9F8D0E0FFD0E0FED0E0FDD0E0FC127120
:1003B300CDCDEFCDCCEECCD0E0FFD0E0FE12456D3D
:1003C3009002EDEEF0A3EFF0900155E0FEA3E0FF05
:1003D3009001A9E0FCA3E0FDC39FEC9E9002EBE03B
:1003E300FE503EA3E0FFEEC0E0EFC0E0900155E019
:1003F300FEA3E0FFC3ED9FFFEC9EFEC3E49FFFE47B
:100403009EFE3395E0FDFCE4FB7A10F9F81246A258
:10041300ECC0E0EDC0E0EEC0E0EFC0E090015D8035
:1004230042A3E0FFEEC0E0EFC0E0900155E0FEA381
:10043300E0FF9001A9E0FCA3E0C39FFFEC9EFEC395
:10044300E49FFFE49EFE3395E0FDFCE4FB7A10F9A4
:10045300F81246A2ECC0E0EDC0E0EEC0E0EFC0E071
:10046300900159E0FEA3E0FFCBEFCBCAEECAE4F95B
:10047300F8D0E0FFD0E0FED0E0FDD0E0FC1271CD7B
:10048300CDEFCDCCEECCD0E0FFD0E0FE12456D90A9
:1004930002EBEEF0A3EFF09002EDE0FEA3E0FFD35A
:1004A3009400EE648094804002800F9002EDE0FEA1
:1004B300A3E0FFC3E49FFFE49EFE9002EBE0FCA3F6
:1004C300E0FDD39400EC648094804002800F90029E
:1004D300EBE0FCA3E0FDC3E49DFDE49CFCD3ED9FB6
:1004E300EE6480F8EC64809840259002EBE0FEA374
:1004F300E0FFD39400EE6480948040028034900245
:10050300EBE0FEA3E0FFC3E49FFFE49EFE802390A5
:1005130002EDE0FEA3E0FFD39400EE6480948040FC
:1005230002800F9002EDE0FEA3E0FFC3E49FFFE42F
:100533009EFECAEECACBEFCB900111E0FEA3E024EE
:10054300DCF582EE3401F583E493FF7E007C007DCD
:100553001512456DC3EB9FFFEA9EFE9002EFF0A3D9
:10056300EFF0D39400EE64809480501AE490029DDF
:10057300F0A3F090029BF0A3F0900299F0A3F09007
:100583000297F0A3F022900111E0FEA3E0FF24D430
:10059300F582EE3401F583E493540F24FE700302D5
:1005A300078E147003020AC3147003020FB92403E5
:1005B3006003021501900295E07002A3E06003025C
:1005C3000798EF24DEF582EE3401F583E493701D82
:1005D300900111E0FEA3E024DFF582EE3401F58300
:1005E300E4937009900295F0A3F002071A900111A9
:1005F300E0FEA3E0FF24DEF582EE3401F583E4930D
:10060300FBEF24DFF582EE3401F583E493C39BFD16
:100613003395E0FC78039002EFE0FEA3E0CEA2E77F
:1006230013CE13D8F8FF12456DEEFD3395E0FCEBC6
:1006330025E0FFE433FEED2FFFEC3E9002EFF0A345
:10064300EFF090029BE0FEA3E0FFD39400EE648002
:1006530094804002800F90029BE0FEA3E0FFC3E47E
:100663009FFFE49EFE9002EFE0FCA3E0FDD39FEE2C
:100673006480F8EC648098500A90029BECF0A3ED40
:10068300F0806B900111E0FEA3E024DDF582EE34EF
:1006930001F583E4932401FDE433FC90029BE0FE27
:1006A300A3E0FFC39002F0E09FFF9002EFE09EFE05
:1006B3001245D4EEF0A3EFF04E701090029CE004CC
:1006C300F0701C90029BE004F080149002EFE0FEB7
:1006D300A3E0FF90029CE02FF090029BE03EF0909D
:1006E300029BE0FFA3E09002EFCFF0A3EFF09002B4
:1006F300EFE0FEA3E0FFC374649FFFE49EFE90025D
:1007030095F0A3EFF0D39400EE64809480500890AA
:100713000295E4F0A304F09002EBE0FEA3E0FFA354
:10072300E0FCA3E0FDD39FEE6480F8EC6480984086
:1007330026E49FFFE49EFED3ED9FEE6480F8EC6415
:100743008098900111E0FE4007A3E024D7020AB489
:10075300A3E024D9020AB49002EBE0FEA3E0FFC3B6
:10076300E49FFFE49EFED39002EEE09FEE6480F8E8
:100773009002EDE0648098900111E0FE4006A3E052
:1007830024DA8004A3E024D8020AB4900295E0702E
:1007930002A3E0600F900296E024FFF0900295E040
:1007A30034FFF022900111E0FEA3E0FF24DEF58286
:1007B300EE3401F583E4937017EF24DFF582EE3412
:1007C30001F583E4937009900295F0A3F00208FD0C
:1007D300900111E0FEA3E0FF24DEF582EE3401F583
:1007E30083E493FBEF24DFF582EE3401F583E49396
:1007F300C39BFD3395E0FC78039002EFE0FEA3E09A
:10080300CEA2E713CE13D8F8FF12456DEEFD339554
:10081300E0FCEB25E0FFE433FEED2FFFEC3E90021E
:10082300EFF0A3EFF090029BE0FEA3E0FFD3940070
:10083300EE648094804002800F90029BE0FEA3E070
:10084300FFC3E49FFFE49EFE9002EFE0FCA3E0FD04
:10085300D39FEE6480F8EC648098500A90029BEC7E
:10086300F0A3EDF0806B900111E0FEA3E024DDF531
:1008730082EE3401F583E4932401FDE433FC90021A
:100883009BE0FEA3E0FFC39002F0E09FFF9002EF26
:10089300E09EFE1245D4EEF0A3EFF04E70109002EE
:1008A3009CE004F0701C90029BE004F08014900222
:1008B300EFE0FEA3E0FF90029CE02FF090029BE0AC
:1008C3003EF090029BE0FFA3E09002EFCFF0A3EF96
:1008D300F09002EFE0FEA3E0FFC374649FFFE49E89
:1008E300FE900295F0A3EFF0D39400EE6480948021
:1008F3005008900295E4F0A304F09002EBE0FEA30D
:10090300E0FF7C007D0312456DCAEECACBEFCBA39B
:10091300E0FEA3E0FF7D0712456DD3EF9BEA648001
:10092300F8EE648098403C9002EBE0FEA3E0FFE425
:100933009FFFE49EFE7D0312456DCAEECACBEFCB4B
:10094300A3E0FEA3E0FF7D0712456DD3EF9BEA64AE
:1009530080F8EE648098400B900111E0FEA3E02440
:10096300D780689002EBE0FEA3E0FF7C007D0312DA
:10097300456DCAEECACBEFCBA3E0FEA3E0FF7D0734
:1009830012456DC3EF9BEA6480F8EE648098504A89
:100993009002EBE0FEA3E0FFC3E49FFFE49EFE7D35
:1009A3000312456DCAEECACBEFCBA3E0FEA3E0FF73
:1009B3007D0712456DC3EF9BEA6480F8EE6480986F
:1009C3005018900111E0FEA3E024D8F582EE340123
:1009D300F583E493FD7FFF1267A09002EBE0FEA393
:1009E300E0FF7C007D0712456DCAEECACBEFCBA3B7
:1009F300E0FEA3E0FF7D0312456DD3EF9BEA648025
:100A0300F8EE648098403C9002EBE0FEA3E0FFE444
:100A13009FFFE49EFE7D0712456DCAEECACBEFCB66
:100A2300A3E0FEA3E0FF7D0312456DC3EF9BEA64E1
:100A330080F8EE648098500B900111E0FEA3E0244F
:100A4300D9806E9002EBE0FEA3E0FF7C007D0712ED
:100A5300456DCAEECACBEFCBA3E0FEA3E0FF7D0357
:100A630012456DC3EF9BEA6480F8EE6480984003FF
:100A73000215019002EBE0FEA3E0FFC3E49FFFE455
:100A83009EFE7D0712456DCAEECACBEFCBA3E0FEF7
:100A9300A3E0FF7D0312456DD3EF9BEA6480F8EE7C
:100AA3006480985003021501900111E0FEA3E02435
:100AB300DAF582EE3401F583E493FD7FFF0267A04C
:100AC300900111E0FEA3E024DFF582EE3401F5830B
:100AD300E493FB3395E0FA78039002EBE0FEA3E0A6
:100AE300CEA2E713CE13D8F8FFCDEBCDCCEACC12D0
:100AF300456D7804EFCEA2E713CE13D8F8FF90022A
:100B0300EBEEF0A3EFF07803A3E0FEA3E0CEA2E7C1
:100B130013CE13D8F8FFCDEBCDCCEACC12456D78CC
:100B230004EFCEA2E713CE13D8F8FF9002EDEEF058
:100B3300A3EFF090029BE0FEA3E0FFD39400EE64EA
:100B43008094804002800F90029BE0FEA3E0FFC3ED
:100B5300E49FFFE49EFE9002EBE0FCA3E0FDD39450
:100B630000EC648094804002800F9002EBE0FCA3D1
:100B7300E0FDC3E49DFDE49CFCD3ED9FEE6480F8AF
:100B8300EC6480985002802E90029BE0FEA3E0FF6D
:100B9300D39400EE648094804002800F90029BE027
:100BA300FEA3E0FFC3E49FFFE49EFED3EF9420EE99
:100BB3006480948340129002EBE0FFA3E090029BD9
:100BC300CFF0A3EFF0020CE790029BE0FEA3E0FF5F
:100BD300D39400EE6480948040028007C3E49FFFB7
:100BE300E49EFECCEECCCDEFCD900111E0FAA3E074
:100BF300FB24DEF582EA3401F583E49375F00AA45D
:100C0300FFD3ED9FE5F06480F8EC648098405DEBE2
:100C130024DDF582EA3401F583E4932401FDE43312
:100C2300FC90029BE0FEA3E0FF9002EBE0FAA3E05E
:100C3300FBC39FFFEA9EFE1245D49002EFEEF0A3A2
:100C4300EFF04E6003020CD3C3EA64809480500734
:100C53007EFF7FFF020CDBD3EB9400EA6480948079
:100C63007E0040047F0180027F00806C900111E0D0
:100C7300FEA3E024DDF582EE3401F583E49375F001
:100C83000AA42401FDE435F0FC90029BE0FEA3E0FE
:100C9300FF9002EBE0FAA3E0FBC39FFFEA9EFE1284
:100CA30045D49002EFEEF0A3EFF04E7023C3EA6455
:100CB30080948050067EFF7FFF8013D3EB9400EA7D
:100CC300648094807E0040047F0180027F0080085E
:100CD3009002EFE0FEA3E0FF90029CE02FF0900271
:100CE3009BE03EF090029DE0FEA3E0FFD39400EE74
:100CF300648094804002800F90029DE0FEA3E0FF99
:100D0300C3E49FFFE49EFE9002EDE0FCA3E0FDD36D
:100D13009400EC648094804002800F9002EDE0FC2C
:100D2300A3E0FDC3E49DFDE49CFCD3ED9FEE648052
:100D3300F8EC6480985002802E90029DE0FEA3E0C0
:100D4300FFD39400EE648094804002800F90029D54
:100D5300E0FEA3E0FFC3E49FFFE49EFED3EF9420F5
:100D6300EE6480948340129002EDE0FFA3E09002D2
:100D73009DCFF0A3EFF0020E9390029DE0FEA3E05F
:100D8300FFD39400EE6480948040028007C3E49F05
:100D9300FFE49EFECCEECCCDEFCD900111E0FAA3A3
:100DA300E0FB24DEF582EA3401F583E49375F00A6F
:100DB300A4FFD3ED9FE5F06480F8EC648098405A7B
:100DC300EB24DDF582EA3401F583E4932401FDE4A9
:100DD30033FC90029DE0FEA3E0FF9002EDE0FAA356
:100DE300E0FBC39FFFEA9EFE1245D4A3EEF0A3EF00
:100DF300F04E6003020E7FC3EA6480948050067E47
:100E0300FF7FFF807FD3EB9400EA648094807E00B1
:100E130040047F0180027F00806A900111E0FEA3FD
:100E2300E024DDF582EE3401F583E49375F00AA442
:100E33002401FDE435F0FC90029DE0FEA3E0FF9069
:100E430002EDE0FAA3E0FBC39FFFEA9EFE1245D446
:100E5300A3EEF0A3EFF04E7023C3EA6480948050B6
:100E6300067EFF7FFF8013D3EB9400EA64809480B7
:100E73007E0040047F0180027F0080089002EFE043
:100E8300FEA3E0FF90029EE02FF090029DE03EF073
:100E930090029BE0FEA3E0FF900298E02FF0900207
:100EA30097E03EF090029DE0FEA3E0FF90029AE0FF
:100EB3002FF0900299E03EF0900297E0FEA3E0FF4E
:100EC300D39440EE64809460400280047EE07F40CF
:100ED300C3EF94C0EE6480949F5019900297E0FE94
:100EE300A3E0FF9440EE648094604002800A7EE0B9
:100EF3007F4080047E1F7FC0900297EEF0A3EFF047
:100F0300A3E0FEA3E0FFD39440EE6480946040022C
:100F130080047EE07F40C3EF94C0EE6480949F50D2
:100F230019900299E0FEA3E0FF9440EE6480946080
:100F33004002800A7EE07F4080047E1F7FC09002D3
:100F430099EEF0A3EFF0900297E0FCA3E0FD7806A2
:100F5300CEECCECEA2E713CE13D8F890030AF078E6
:100F630006900299E0FEA3E0CEA2E713CE13D8F8D1
:100F7300F404F990030BF090030AE0FF3395E0FECD
:100F83007806EFC333CE33CED8F9FFC3ED9FFFEC22
:100F93009E900297F0A3EFF0E9FF3395E0FE780609
:100FA300EFC333CE33CED8F9FF90029AE02FF090FF
:100FB3000299E03EF022900297E0FEA3E0FF900248
:100FC300EBE0FCA3E0FDC39FFFEC9EFE7802EFCEB7
:100FD300A2E713CE13D8F8FF9002EFEEF0A3EFF0E1
:100FE3004E7023C3EC6480948050067EFF7FFF80A5
:100FF3001DD3ED9400EC648094807E0040047F0157
:1010030080027F0080089002EFE0FEA3E0FF9002E1
:1010130098E02FF0900297E03EF0900299E0FEA353
:10102300E0FF9002EDE0FCA3E0FDC39FFFEC9EFE1A
:101033007802EFCEA2E713CE13D8F8FF9002EFEEBB
:10104300F0A3EFF04E7023C3EC6480948050067ECF
:10105300FF7FFF801DD3ED9400EC648094807E00BD
:1010630040047F0180027F0080089002EFE0FEA32E
:10107300E0FF90029AE02FF0900299E03EF0900298
:10108300EBE0FAA3E0FBD39400EA64809480900140
:1010930011E0FE4006A3E024DA8004A3E024D9F59E
:1010A30082EE3401F583E493FF90029BE4F0A3EF17
:1010B300F0D3ED9400EC64809480900111E0FE4045
:1010C30006A3E024D78004A3E024D8F582EE3401FC
:1010D300F583E493FF90029DE4F0A3EFF090029B6D
:1010E300E0FEA3E0FFC3941EEE648094804017D318
:1010F300EF9427EE64809480500CEF25E0FFEE33ED
:10110300FEEF24C6802790029BE0FEA3E0FFC3947A
:1011130059EE648094804022D3EF9462EE6480940D
:10112300805017EF25E0FFEE33FEEF244FFFEE3440
:10113300FF90029BF0A3EFF08007E490029BF0A3E3
:10114300F090029DE0FEA3E0FFC3941EEE64809442
:10115300804017D3EF9427EE64809480500CEF25E2
:10116300E0FFEE33FEEF24C6802790029DE0FEA34E
:10117300E0FFC39459EE648094804022D3EF9462DD
:10118300EE648094805017EF25E0FFEE33FEEF24EA
:101193004FFFEE34FF90029DF0A3EFF08007E49041
:1011A300029DF0A3F0D3EB9401EA64809470400AAB
:1011B3009002EBE0FEA3E0FF80047EF07F01C3EF2B
:1011C30094FFEE6480948F50199002EBE0FEA3E04D
:1011D300FF9401EE648094704002800A7EF07F01E8
:1011E30080047E0F7FFF9002EBEEF0A3EFF0D3EDD0
:1011F3009401EC648094704008A3E0FEA3E0FF80B8
:10120300047EF07F01C3EF94FFEE6480948F501946
:101213009002EDE0FEA3E0FF9401EE648094704041
:1012230002800A7EF07F0180047E0F7FFF9002ED33
:10123300EEF0A3EFF090029BE0FEA3E0FFCBEFCB39
:10124300CAEECAEA3395E0F9F8900297E0FEA3E00C
:10125300FFEE3395E0FDFC1246A2C8ECC8C9EDC908
:10126300CAEECACBEFCB900111E0FEA3E024DFF579
:1012730082EE3401F583E493FFE4FCFDFE1246A203
:10128300E47B7DFAF9F81271CD90029BEEF0A3EFA7
:10129300F0A3E0FEA3E0FFEE3395E0FDFC1247BFB1
:1012A300C8ECC8C9EDC9CAEECACBEFCB900299E02E
:1012B300FEA3E0FFEE3395E0FDFC1246A2C8ECC8A6
:1012C300C9EDC9CAEECACBEFCB900111E0FEA3E092
:1012D30024DFF582EE3401F583E493FFE4FCFDFEA5
:1012E3001246A2E47B7DFAF9F81271CD90029DEECD
:1012F300F0A3EFF0900111E0FEA3E024DDF582EE10
:101303003401F583E493FFE4FCFDFE7BFF7A7FF970
:10131300F81246A2E47B32FAF9F81271CD9002EB8F
:10132300EEF0A3EFF0900111E0FEA3E024DEF582DE
:10133300EE3401F583E493FFE4FCFDFE7BFF7A7F4B
:10134300F9F81246A2E47B32FAF9F81271CD900251
:10135300EDEEF0A3EFF0D390029CE0940090029B9B
:10136300E06480948040479002EBE0FEA3E0FFCB73
:10137300EFCBCAEECAEA3395E0F9F890029BE0FEA0
:10138300A3E0FFEE3395E0FDFCEB2FFFEA3EFEE921
:101393003DFDE83CFCE47BFF7A7FF9F8C31247CDBF
:1013A300500C9002EB747FF0A374FFF08055C39050
:1013B300029BE06480948050369002EBE0FEA3E051
:1013C300FFCBEFCBCAEECAEA3395E0F9F890029B64
:1013D300E0FEA3E0FFEE3395E0FDFCEB2FEA3EE9F0
:1013E3003DE83C335009E49002EBF0A3F080149005
:1013F300029BE0FEA3E0FF9002ECE02FF09002EBF3
:10140300E03EF0D390029EE0940090029DE0648061
:10141300948040479002EDE0FEA3E0FFCBEFCBCA00
:10142300EECAEA3395E0F9F890029DE0FEA3E0FFEF
:10143300EE3395E0FDFCEB2FFFEA3EFEE93DFDE8D0
:101443003CFCE47BFF7A7FF9F8C31247CD500C9044
:1014530002ED747FF0A374FFF08056C390029DE009
:101463006480948050379002EDE0FEA3E0FFCBEF61
:10147300CBCAEECAEA3395E0F9F890029DE0FEA3E9
:10148300E0FFEE3395E0FDFCEB2FFFEA3EE93DE89C
:101493003C335009E49002EDF0A3F0801490029DD8
:1014A300E0FEA3E0FF9002EEE02FF09002EDE03EBD
:1014B300F09002EBE0FCA3E0FDCFEDCF900310F042
:1014C300ECFFEFA3F09002EDE0FCA3E0FDCFEDCF46
:1014D300900312F0ECFFEFA3F090030F7411F09060
:1014E3000295E07002A3E07F0070027F017E00900E
:1014F3000295EEF0A3EFF025E01490030AF022E446
:101503009002EBF0A374FFF0E4A3F0A3F0EF604AC2
:101513009001FDE0FCA3E0FDA3E0FEA3E0FF900249
:101523001412481A9001FDE0FCA3E0FDA3E0FEA322
:10153300E02401FFE43EFEED34FFFDEC34FFFC90BC
:10154300021812481A7E007F107D007B017A02790F
:1015530075124890E490021EF0229001FDA3A3A30C
:10156300E0FF90021FE0FEC3EF9EC3940A50030204
:10157300247CE0240AF0900285E0FEA3E0F5828E4D
:101583008374F593700374F493602EE4F517744039
:101593002517F582E43401F583E060169001FDE040
:1015A300FCA3E0FDA3E0FEA3E0FF90021812481A9B
:1015B30080070517E517B410D590021EE0540FFFFE
:1015C300BF021D7403F09001FDE0FCA3E0FDA3E066
:1015D300FEA3E0FF90021412481A90022074FFF059
:1015E30090021EE0540F6403600302170C90021C68
:1015F300E0FEA3E0FFCBEFCBCAEECA900285E0FE8C
:10160300A3E0F5828E8374F893FE74F993FFEF2BB6
:10161300FFEE3AFEE433FDE433C0E0EDC0E0EEC09C
:10162300E0EFC0E0900214E0F8A3E0F9A3E0FAA32E
:10163300E0FB9001FDE0FCA3E0FDA3E0FEA3E0C31B
:101643009BFBEE9AFAED99F9EC98F8D0E0FFD0E025
:10165300FED0E0FDD0E0FCD31247E3500302170CA9
:10166300900285E0FEA3E0F5828E8374F593700308
:1016730074F4936042900218E0F8A3E0F9A3E0FA4F
:10168300A3E0FB9001FDE0FCA3E0FDA3E0FEA3E0EB
:101693009BFBEE9AFAED99F9EC98F8900285E0FE3F
:1016A300A3E0F5828E8374F493FE74F593FFE4FC58
:1016B300FDD31247E34052900285E0FEA3E0F5829A
:1016C3008E8374FB93700374FA93602E1270A5CC0F
:1016D300EECCCDEFCDAF8AEF6CFEEDFF900285E04F
:1016E300FCA3E0F5828C8374FA93FC74FB93FD12E4
:1016F300457FCEECCECFEDCF80047E007F009002FD
:101703001CEEF0A3EFF0E4A3F090021EE0540F6090
:10171300030218EB04F09001FDE0FCA3E0FDA3E05D
:10172300FEA3E0FF90021412481AE4900220F09006
:101733000285E0FEA3E0F5828E8374F293FF7003CB
:101743000218C7EFD39404501B900285E0FEA3E078
:10175300F5828E8374F2931475F008A4FD74F193EB
:101763002D0218DF900285E0FEA3E0F5828E8374DC
:10177300F293B405030218E5E4F518F51790028512
:10178300E0FEA3E0FFF5828E8374EB932401FDE476
:1017930033FCC3E5179DEC6480F87480985035E5FD
:1017A30017C39409502EE58224E0F582E43583F5CE
:1017B30083E5822517F582E43583F583E493FF609F
:1017C3000DD39404500874082518F51880020518E1
:1017D300051780A9900285E0FEA3E0F5828E83744D
:1017E300F293B4060F900222E004F0C39518402A46
:1017F300E4F080261270A5AD8AEF6DFFAD187C0072
:101803001245D48D17900222E065177007E518D3AF
:10181300940150E0900222E517F0E4F518F51790D3
:101823000285E0FEA3E0FFF5828E8374EB9324012F
:10183300FDE433FCD3E5179DEC6480F87480985085
:101843007FE51794095079900222E0F9E518994051
:101853003DE51724DFFDE433FCEF2DF582EE3CF587
:1018630083E493600DD394045008E92408C39518C6
:10187300F518E51724DFFFE433FE900285E0FCA3AF
:10188300E02FF582EC3EF583E493F5178032900266
:1018930085E0FCA3E024E0F582E43CF583E58225C2
:1018A30017F582E43583F583E493600DD3940450F4
:1018B3000874082518F51880020518051702182260
:1018C300E517700890022374C8F0801CE517D394C1
:1018D30004500FE5171475F008A42518900223F09F
:1018E30080069002237464F090021EE0540F64019A
:1018F30070599001FDA3A3E0FEA3E0FFCBEFCBCA99
:10190300EECA900214A3A3E0FEA3E0FFC3EB9FFF84
:10191300EA9EFE900285E0FCA3E0F5828C83C3740B
:10192300F7939F74F6939E5022900223E064C8605D
:101933001A9001FDE0FCA3E0FDA3E0FEA3E0FF900D
:10194300021412481A900220E004F0900223E0FFF0
:10195300C39420500FEF75F010A42436F974783532
:10196300F0FA801B900223E0B4643B900286E024EB
:1019730090FF900285E03400FECAEECAC9EFC97B2E
:10198300FFEBC0E0EAC0E0E9C0E0C87455C8CC741E
:1019930002CCCD7401CDD0E0F9D0E0FAD0E0FB7EEB
:1019A300007F101244E6900285E0FEA3E0FFCAEE3A
:1019B300CAC9EFC97BFFEBC0E0EAC0E0E9C0E0C8F9
:1019C3007425C8CC7402CCCD7401CDD0E0F9D0E03D
:1019D300FAD0E0FB7E007F301244E6E4F517900274
:1019E30085E0FEA3E0F5828E8374F3937003021BFC
:1019F30030E51775F003A42425F582E43402F5835A
:101A0300E0FFE51775F003A42426F582E43402F51C
:101A130083E0FDE51775F003A42427F582E434027F
:101A2300F583E0C0E09002F87401F0A37402F0A320
:101A330074EFF0A37401F0A37402F0A374F1F0A3A4
:101A43007401F0A37402F0A374F3F0D0E0FB125D11
:101A530010900285E0FEA3E0F5828E8374F393FF7A
:101A6300CBEFCBE4FAF9F89001FDE0FCA3E0FDA392
:101A7300E0FEA3E0FF12472DE47BEA7A03F9F812B4
:101A8300472DCCE8CCCDE9CDCEEACECFEBCF90023B
:101A9300F0E02FF09002EFE03EF0C3A3E094EA9071
:101AA30002EFE09403400CA3E02416F09002EFE071
:101AB30034FCF0E51775F003A4FFAEF02425F974A8
:101AC300023EFA7B01EBC0E0EAC0E0E9C0E0742625
:101AD3002FF974023EFAEBC0E0EAC0E0E9C0E0741B
:101AE300272FF974023EFA900301EBF0A3EAF0A367
:101AF300E9F0D0E0F9D0E0FAD0E09002FEF0A3EAFA
:101B0300F0A3E9F0D0E0F9D0E0FAD0E09002FBF0E6
:101B1300A3EAF0A3E9F09002EFE0FEA3E0FFA3E065
:101B2300FCA3E0FDA3E0FAA3E0FB12598690022395
:101B3300E064C86003021DAD900285E0FEA3E0F5FA
:101B4300828E8374F793700374F6937003021DAD52
:101B53009001FDA3A3E0FEA3E0FFCBEFCBCAEECA47
:101B6300900214A3A3E0FEA3E0FFC3EB9FFBEA9E56
:101B7300FA900285E0FEA3E0F5828E8374F693FE6D
:101B830074F793FFD394E8EE9403400280047E033A
:101B93007FE87C037DE812457FCDEFCDCCEECCCF43
:101BA300EBCFCEEACE12457F7C037DEA12457F90D0
:101BB30002F3ECF0A3EDF09002F3E0FEA3E0FFC329
:101BC30094F5EE9401402B74E99FF074039E900208
:101BD300F3F0900285E0FEA3E0F5828E8374FD931B
:101BE300FF9002EDE4F0A3EFF090021EE04480F0DA
:101BF300802D900285E0FEA3E0F5828E8374FC9332
:101C0300FF9002EDE4F0A3EFF090021EE0B4810F29
:101C1300E517B40F037402F0E49002F3F0A3F0901D
:101C2300021EE0540F64016007E49002F3F0A3F096
:101C33009002EDE07002A3E0705DF51875F003E526
:101C430017A42518F582E435F0F583E5822425F5FC
:101C530082E5833402F583E0FF7E009002F3E0FC2B
:101C6300A3E0FD124863E47BF47A01F9F812472DEF
:101C730075F003E517A42518F582E435F0F583E53F
:101C8300822425F582E5833402F583EFF00518E518
:101C930018B403A8021DA49002EDE07004A3E0644D
:101CA300016003021D319002F3E0FEA3E0FF7C001C
:101CB3007DFF124863E47BF47A01F9F812472D742F
:101CC300B62FF58274763EF583E493FF9002F3E436
:101CD300F0A3EFF0E4F51875F003E517A42518F564
:101CE30082E435F0F583E5822425F582E583340229
:101CF300F583E0FF7E009002F3E0FCA3E0FD1245D4
:101D03006D7C007DFF12457F75F003E517A4251850
:101D1300F582E435F0F583E5822425F582E5833405
:101D230002F583EFF00518E518B403AB8073900256
:101D3300F3E0FEA3E024C1F58274743EF583E493DB
:101D4300FF9002F3E4F0A3EFF0E4F51875F003E578
:101D530017A42518F582E435F0F583E5822425F5EB
:101D630082E5833402F583E0FF7E009002F3E0FC1A
:101D7300A3E0FD12456D7C007DFF12457F75F003E6
:101D8300E517A42518F582E435F0F583E5822425CB
:101D9300F582E5833402F583EFF00518E518B40303
:101DA300AB9002EB7401F0021F8D900223E064C834
:101DB3007003021F8D74552517F582E43402F583F1
:101DC300E0FF900220E0FEEF6E6003021ECB900264
:101DD300EB04F0900285E0FEA3E0F5828E8374FCB1
:101DE30093FFC3741F9FFFE49400FE9002EDF0A3E2
:101DF300EFF0D3940AEE64809480401D9002EDE0EE
:101E0300FEA3E0FF7C007D0A12456DEF24A6FFEEE2
:101E130034FF9002EDF0A3EFF074752517F582E41B
:101E23003402F583E0FFC374FF9FFFE49400FE9048
:101E330002EDE0FCA3E0FDC39FEE6480F8EC648058
:101E4300985013CFEDCF74752517F582E43402F55E
:101E530083E02FF0800E74752517F582E43402F5C4
:101E63008374FFF0E4F51875F003E517A42518F55E
:101E730082E435F0F583E5822425F582E583340297
:101E8300F583E0FF7E0074752517F582E43402F5CF
:101E930083E09076B693FD7C0012456D7DFF12457D
:101EA3007F75F003E517A42518F582E435F0F58373
:101EB300E5822425F582E5833402F583EFF00518E6
:101EC300E518B403A2021F8D900285E0FEA3E0F59E
:101ED300828E8374FD932401FDE433FC747525170E
:101EE300F582E43402F583E0FBFF7E001245D490D3
:101EF30002EDEEF0A3EFF0EB60119002EDE0700263
:101F0300A3E070079002EDF0A304F074752517F5B4
:101F130082E43402F583C083C082E0FF9002EDA324
:101F2300E0FDCEEDCEC3EF9ED082D083F0E4F51872
:101F330075F003E517A42518F582E435F0F583E57C
:101F4300822425F582E5833402F583E0FF7E007465
:101F5300752517F582E43402F583E0FD7C00124514
:101F63006D7DFF12457F75F003E517A42518F582F3
:101F7300E435F0F583E5822425F582E5833402F523
:101F830083EFF00518E518B403A674402517F5820E
:101F9300E43401F583E07003022026900285E0FC1F
:101FA300A3E02517F582E43CF5837460932401FDD7
:101FB300E433FC74652517F582E43402F583E0FB12
:101FC300FFC374FF9FFFE49400FE1245D49002ED1B
:101FD300EEF0A3EFF0C374FF9B60119002EDE0708D
:101FE30002A3E070079002EDF0A304F09002EDA3CA
:101FF300E0FF74652517F582E43402F583E02FF0E2
:10200300900285E0FCA3E02517F582E43CF5837498
:102013008093FF9002ECE0D39F50030220E6EFF0A1
:102023000220E6900285E0FCA3E02517F582E43C5C
:10203300F5837470932401FDE433FC74652517F56F
:1020430082E43402F583E0FBFF7E001245D4900264
:10205300EDEEF0A3EFF0EB60119002EDE07002A360
:10206300E070079002EDF0A304F074652517F58284
:10207300E43402F583C083C082E0FF9002EDA3E065
:10208300FDCEEDCEC3EF9ED082D083F0E4F518757C
:10209300F003E517A42518F582E435F0F583E5820E
:1020A3002425F582E5833402F583E0FF900221E0E5
:1020B300FEEF8EF0A4FFAEF07C007DFF12457F752E
:1020C300F003E517A42518F582E435F0F583E582DE
:1020D3002425F582E5833402F583EFF00518E5182E
:1020E300B403ACE4F518E51775F003A47C002518D8
:1020F300FFEC35F0FE900285E0FCA3E02FF582ECC7
:102103003EF583743093FF75F003E517A42518F5A6
:1021130082E435F0F583E5822425F582E5833402F4
:10212300F583E0FDC3EF9DFFE49400FE746525177E
:10213300F582E43402F583E0FD7C0012456D7DFFFA
:102143001245D475F003E517A42518F582E435F09C
:10215300F583E5822425F582E5833402F583E02FB8
:10216300F00518E518640360030220E90517E51775
:10217300C3941050030219E19002EBE0700A90023D
:102183001EE0540F64016037900285E0FEA3E0F582
:10219300828E8374F593700374F49360289001FD29
:1021A300E0FCA3E0FDA3E0FEA3E0FF900218E0F84B
:1021B300A3E0F9A3E0FAA3E0FBC31247E3700690A0
:1021C300021E7402F0900221E0FB9002ECE0FAD3CD
:1021D3009B4074900285E0FEA3E0F5828E8374FE3B
:1021E30093FF741F9FFFE49400FE9002EDF0A3EFB2
:1021F300F0D3940AEE64809480401D9002EDE0FEDB
:10220300A3E0FF7C007D0A12456DEF24A6FFEE34A8
:10221300FF9002EDF0A3EFF0EBFFEAC39FFFE4941E
:1022230000FE9002EDE0FCA3E0FDC39FEE6480F8A6
:10223300EC648098500BCFEDCF900221E02FF0801B
:102243005C9002ECE08052900221E0FF9002ECE00F
:10225300FEC39F5048EEFDC3EF9DFFE49400FE9044
:102263000285E0FCA3E0F5828C8374FF932401FDD7
:10227300E433FC1245D49002EDEEF0A3EFF04E7080
:10228300079002EDF0A304F0900221E0FF9002ED2D
:10229300A3E0FDCEEDCEC3EF9E900221F09001119D
:1022A300E0FEA3E024FEF582EE3401F583E493FF20
:1022B300705EF517E51775F003A42425F582E43461
:1022C30002F583E0FEE51775F003A42425F8EEF686
:1022D300E51775F003A42426F582E43402F583E0C0
:1022E300FEE51775F003A42424F8EEF6E51775F060
:1022F30003A42427F582E43402F583E0FEE5177591
:10230300F003A42426F8EEF60517E517B410A5226A
:10231300EF6403706AF517E517907C039375F00378
:10232300A42425F582E43402F583E0FFE51775F074
:1023330003A42425F8EFF6E517907C039375F003C7
:10234300A42426F582E43402F583E0FFE51775F053
:1023530003A42424F8EFF6E517907C039375F003A8
:10236300A42427F582E43402F583E0FFE51775F032
:1023730003A42426F8EFF60517E517B41099229065
:102383000111E0FEA3E024FEF582EE3401F583E4BF
:1023930093FF64027075F517C37410951775F003F6
:1023A300A42425F582E43402F583E0FEE51775F0F5
:1023B30003A42425F8EEF6E517FDC374109DFDE490
:1023C3009400FC90022675F003ED124857EC75F06B
:1023D30003A42583F583E0FEE51775F003A4242405
:1023E300F8EEF690022775F003ED124857EC75F0FE
:1023F30003A42583F583E0FEE51775F003A42426E3
:10240300F8EEF60517E517B4108E22EF6401706934
:10241300F517E517907BF39375F003A42425F58254
:10242300E43402F583E0FFE51775F003A42425F8EF
:10243300EFF6E517907BF39375F003A42426F5825A
:10244300E43402F583E0FFE51775F003A42424F8D0
:10245300EFF6E517907BF39375F003A42427F58239
:10246300E43402F583E0FFE51775F003A42426F8AE
:10247300EFF60517E517B4109922E49002D7F0A3FD
:10248300F0A3F0A3F0900331F090032FF090032E0C
:10249300F0900307F0C874B3C8CC7402CCCD7401B8
:1024A300CD7B017A037919FE7F151244E67E007F06
:1024B300157D007B017A037919124890900309E096
:1024C3009002AEF07E007F047D007B017A037909E0
:1024D30012489090030E7410F07E007F047DFF7B02
:1024E300017A037910124890900316E09002B0F03D
:1024F300E4900316F0900000E0C43354E02411F597
:1025030082E43400F583E0FEA3E04E70037FFF22F4
:102513009002A7E0604824D4F582E43401F583E017
:1025230060229002A7E0243FF582E43401F583E0C2
:1025330070129002C9E054036003E014F09002C9E2
:10254300E04404F09002C8E07F0070027F01900233
:10255300C8EFF07003023055123E09023055E49083
:1025630002DAF09002DAE0FFC3941040030226225D
:1025730074402FF582E43401F583E07003022619D9
:10258300900000E0C43354E02411F582E43400F5F4
:1025930083C083C0829002DAE0D082D08375F002D8
:1025A300124857E0FCA3E0F5828C83740193FEB4D8
:1025B300010E9002B1E0FDEF6D60059002D78053EC
:1025C300EEB402119002B1E0FF9002DAE06F600511
:1025D3009002D8803E900000E0C43354E02411F50B
:1025E30082E43400F583C083C0829002DAE0FFD036
:1025F30082D08375F002124857E0FCA3E0F5828C89
:1026030083740193B4070F9002B1E0FEEF6E60068E
:102613009002D9E004F09002DAE004F0022566E4C7
:102623009002DAF09002DAE0FFC394104003022C28
:10263300329002B1E0FEEF6E70549002DAE0244073
:10264300F582E43401F583E06003022C2974D52F6D
:10265300F582E43401F583E06003022C299002AA99
:10266300E004F0E0D3940A5003022C29E4F0900232
:10267300DAE02403FF9002AFE0FD1267A09002AD01
:10268300E0FF126C2D9002B174FFF0022C2990022E
:10269300DAE0FF2440F582E43401F583E0700302BD
:1026A3002B07900000E0C43354E02411F582E43496
:1026B30000F58375F002EF124857E0FEA3E0FFF543
:1026C300828E83740193B4010612678F022C2990C2
:1026D3000000E0C43354E02411F582E43400F583B0
:1026E300C083C0829002DAE0D082D08375F00212F8
:1026F3004857E0FEA3E0FFF5828E837401936402E2
:10270300704012678F900319E0FF900000E0C4331C
:1027130054E02411F582E43400F583C083C0829031
:1027230002DAE0D082D08375F002124857E0FCA3AE
:10273300E0F5828C83740393FEEF4E900319F0024D
:102743002C29900000E0C43354E02411F582E434D2
:1027530000F583C083C0829002DAE0FFD082D08389
:1027630075F002124857E0FCA3E0FDF5828C8374F8
:102773000193640370559002D7E06003022C29A3F0
:10278300E06003022C29A3E06003022C2974D52FF7
:10279300F582E43401F583E06003022C299002DA28
:1027A300E0049002A7F0ED2403FEE43C9002ABF0BA
:1027B300A3CEF0E49002A5F0A3F09002C97402F056
:1027C3009002C814F0123E09022C29900000E0C4C4
:1027D3003354E02411F582E43400F583C083C082CE
:1027E3009002DAE0D082D08375F002124857E0FEFF
:1027F300A3E0F5828E83740193FF64046008EF64A1
:102803000560030229969002DAE0FF24D5F582E4FD
:102813003401F583E0700D74012FF582E43400F583
:10282300837402F0900000E0C43354E02411F58275
:10283300E43400F583C083C0829002DAE0D082D012
:102843008375F002124857E0FEA3E02402FFE43E42
:102853008F82F583E493FE740193FFE4FCFDFB7A1E
:1028630080F9F81246A2ECC0E0EDC0E0EEC0E0EF64
:10287300C0E0900111E0FEA3E024FAF582EE3401FA
:10288300F583E493FE740193FFCBEFCBCAEECAE466
:10289300F9F8D0E0FFD0E0FED0E0FDD0E0FC12710B
:1028A300CD9002DBEEF0A3EFF0900000E0C43354D0
:1028B300E02411F582E43400F583C083C0829002E2
:1028C300DAE0D082D08375F002124857E0FEA3E02D
:1028D3002404FFE43E8F82F583E493FE740193FFA7
:1028E300E4FCFDFB7A80F9F81246A2ECC0E0EDC0EF
:1028F300E0EEC0E0EFC0E0900111E0FEA3E024FCB5
:10290300F582EE3401F583E493FE740193FFCBEF7C
:10291300CBCAEECAE4F9F8D0E0FFD0E0FED0E0FD88
:10292300D0E0FC1271CD9002DDEEF0A3EFF0900247
:10293300DBE0FCA3E0FDCFEDCF900310F0ECA3F0C0
:102943009002DDE0FCA3E0FDCFEDCF900312F0ECAD
:10295300A3F0900000E0C43354E02411F582E43482
:1029630000F583C083C0829002DAE0FFD082D08377
:1029730075F002124857E0FCA3E0F5828C837401E2
:1029830093B4050790030EE04401F090030FEFF0BA
:10299300022C29900000E0C43354E02411F582E4B2
:1029A3003400F583C083C0829002DAE0FFD082D086
:1029B3008375F002124857E0FCA3E0F5828C837420
:1029C300019364066003022A9E74039320E70302C3
:1029D3002C299002B1E0F46003022C2974D52FF561
:1029E30082E43401F583E06003022C29900000E0C7
:1029F300C43354E02411F582E43400F583C083C06A
:102A0300829002DAE0D082D08375F002124857E058
:102A1300FCA3E0FDF5828C837402939002AFF090E7
:102A23000000E0FF049002ADF074132FF582E4344C
:102A330001F583E09002DFF08D828C83740393FFB2
:102A4300126C2D900000E02413F582E43401F58329
:102A5300E02404FF9002DFE0FEC3EF9E5403FF7007
:102A6300069002DAE0802DEFB4010A9002DAE090DA
:102A73007BF393801FEFB4020B9002DAE0FFC37481
:102A8300109F8010EF64036003022C329002DAE09F
:102A9300907C03939002B1F0022C32900000E0C4CA
:102AA3003354E02411F582E43400F583C083C082FB
:102AB3009002DAE0FFD082D08375F002124857E02B
:102AC300FCA3E0FDF5828C83740193640760030229
:102AD3002C2974D52FF582E43401F583E0600302D9
:102AE3002C298D828C8374039330E003022C29906C
:102AF30002DAE02401F582E43400F583E04402F0D5
:102B0300EF022BFE9002DAE0FF24D5F582E43401D4
:102B1300F583E0FE7003022C29900000E0C43354D7
:102B2300E02411F582E43400F58375F002EF1248D6
:102B330057E0FCA3E0F5828C83740193FFB405197D
:102B4300EE7003022C299002DAE02401F582E434CA
:102B530000F5837401F0022C29EF640670419000A4
:102B630000E0C43354E02411F582E43400F583C05B
:102B730083C0829002DAE0D082D08375F0021248DB
:102B830057E0FEA3E0F5828E83740393FF30E703DF
:102B9300022C299002B174FFF0126C2D022C2990A3
:102BA3000000E0C43354E02411F582E43400F583DB
:102BB300C083C0829002DAE0FFD082D08375F00236
:102BC300124857E0FCA3E0F5828C83740193FE6402
:102BD30007704C74039330E03374012FF582E434AF
:102BE30000F583E0FF20E1249002DAE0FD2401F503
:102BF30082E43400F583EF4402F0ED25E0241BF575
:102C030082E43401F583E4F0A3F0801A9002DAE061
:102C13002401F582E43400F583E054FDF08007EEEF
:102C2300B408037F01229002DAE004F0022627E4CD
:102C33009002DAF09002DAE0FFC394104003022E10
:102C430050900000E0C43354E02411F582E43400D2
:102C5300F58375F002EF124857E0FEA3E0F5828E8C
:102C630083740193FF64046008EF64056003022E1C
:102C730047900000E0C43354E02411F582E43400AB
:102C8300F583C083C0829002DAE0D082D08375F0EE
:102C930002124857E0FEA3E0F5828E83740393FF8C
:102CA30064016008EF64026003022E47900000E0B5
:102CB300C43354E02411F582E43400F583C083C0A7
:102CC300829002DAE0D082D08375F002124857E096
:102CD300FEA3E02402FFE43E8F82F583E493FE74B7
:102CE3000193FFE4FCFDFB7A80F9F81246A2ECC0E5
:102CF300E0EDC0E0EEC0E0EFC0E0900111E0FEA324
:102D0300E024FAF582EE3401F583E493FE74019333
:102D1300FFCBEFCBCAEECAE4F9F8D0E0FFD0E0FE78
:102D2300D0E0FDD0E0FC1271CD9002DBEEF0A3EF1A
:102D3300F0900000E0C43354E02411F582E4340041
:102D4300F583C083C0829002DAE0D082D08375F02D
:102D530002124857E0FEA3E02404FFE43E8F82F50D
:102D630083E493FE740193FFE4FCFDFB7A80F9F89E
:102D73001246A2ECC0E0EDC0E0EEC0E0EFC0E09090
:102D83000111E0FEA3E024FCF582EE3401F583E4B7
:102D930093FE740193FFCBEFCBCAEECAE4F9F8D0EC
:102DA300E0FFD0E0FED0E0FDD0E0FC1271CD900258
:102DB300DDEEF0A3EFF09002DBE0FCA3E0FDCFED4E
:102DC300CF900310F0ECA3F09002DDE0FCA3E0FD54
:102DD300CFEDCF900312F0ECA3F09002DAE0FF9076
:102DE300030FF0900000E0C43354E02411F582E4B3
:102DF3003400F58375F002EF124857E0FEA3E0F5C7
:102E0300828E8374039364027024049390030EB43C
:102E13000506E04401F08004E054FEF09002DAE09D
:102E23002401F582E43400F5837403F0801FE490F9
:102E3300030EF09002DAE02401F582E43400F58316
:102E4300E4F080099002DAE004F0022C37E4900207
:102E5300E0F09002DAF09002DAE0FFC3941040034E
:102E6300023039900000E0C43354E02411F582E4C9
:102E73003400F58375F002EF124857E0FEA3E0F546
:102E8300828E83740193640760030230309001FDE6
:102E9300E0FCA3E0FDA3E0FEA3E0FF900287E0F8DF
:102EA300A3E0F9A3E0FAA3E0FBD31247E340369093
:102EB30002DAE0FF25E0241BF582E43401F583E424
:102EC300F0A3F074012FF582E43400F583E054FBA2
:102ED300F09002DAE02401F582E43400F583E05453
:102EE300FDF00230309002DAE0FF2401F582E43491
:102EF30000F583E020E103023030900000E0C433AA
:102F030054E02411F582E43400F58375F002EF12E6
:102F13004857E0FEA3E0FF2404FDE43E8D82F583E1
:102F2300E493FC7401934C700612678F022FF9909F
:102F330002DAE0FF2401F582E43400F583E0FE3099
:102F4300E21174012FF582E43400F583EE54FBF0B3
:102F5300022FF99001FDA3A3E0FEA3E0FF9002DAA4
:102F6300E025E0241BF582E43401F583E0FCA3E0D3
:102F7300FDC3EF9DFFEE9CFE900000E0C43354E0E0
:102F83002411F582E43400F583C083C0829002DA11
:102F9300E0D082D08375F002124857E0FCA3E0FD35
:102FA3002404FBE43C8B82F583E493FA740193D30A
:102FB3009FEA9E50419002DAE0FF8D828C83740277
:102FC30093FDEF2403FF1267A09001FDA3A3E0FE8E
:102FD300A3E0FF9002DAE0FD25E0241BF582E43450
:102FE30001F583EEF0A3EFF074012DF582E43400D4
:102FF300F583E04404F0900000E0C43354E024116E
:10300300F582E43400F583C083C0829002DAE0D015
:1030130082D08375F002124857E0FEA3E0F5828E5A
:103023008374039330E0069002E0E004F09002DA48
:10303300E004F0022E599001FDE0FCA3E0FDA3E0C3
:10304300FEA3E0FF90028712481A9002E0E090028C
:10305300A9F0E4FF120066E4FF1257A39002A7E071
:1030630070031262089002DA7401F09002DAE0FF52
:103073002418F582E43403F583E0FE74B22FF5825D
:10308300E43402F583E06E60089003077401F08076
:103093000A9002DAE004F0E0B416D09002AEE0FF4A
:1030A300900309E06F6002801D9002DA7402F090D1
:1030B30002DAE0FFC39405501D74082FF582E4344F
:1030C30003F583E0600890032E7401F080089002FA
:1030D300DAE004F080D99002DA7403F09002DAE0C7
:1030E300FFC39407501E740D2FF582E43403F58358
:1030F300E0F4600890032F7401F080089002DAE096
:1031030004F080D89002B0E0FF900316E06F6006F1
:103113009003317401F09002B1E0F4601D90030755
:10312300E0701290032EE0700C90032FE070069075
:103133000331E06005E49002AFF09002A8E0B4012F
:1031430011E4900331F090032FF090032EF09003DD
:1031530007F07F0022C0E0C0F0C083C082C0D075FA
:10316300D00820D903023DC0E5D9543F7003023D86
:10317300AF14700302391B14602E24E27003023D66
:103183002214700302391124F1700302398E240EC4
:103193006003023DBC75D50063D440C20CE5D45432
:1031A300FC4402F5D4023DBC20DE03023DBC63D4E3
:1031B30080AFDB9002D2E4F0A3EFF09002D2A3E061
:1031C300F5D5900314E030E75790057FE075F040A4
:1031D300A42400F9740635F0FAC8E9C8CCEACCCDCA
:1031E3007401CD7B017A0579007E007F401244E6AD
:1031F3009005407452F0A37444F090057FE0FF04FF
:10320300F0900542EFF090057EE0FFA3E0C39F50EE
:103213000302390BE4F0900314E0547FF002390BFE
:103223009005407452F0900501E0900541F090053F
:1032330002E0900542F0900503E0900543F090050D
:1032430000E0B44410A3E0B44B0BA3E0B44206A3E4
:10325300E06443601A900500E064447052A3E064A4
:103263004C704CA3E064547046A3E06443704090F8
:103273000504E0C394314037E0D3943850319005CE
:1032830001E090057EB44B0B7408F0900504E02434
:10329300D980097404F0900504E024ED900314F040
:1032A30090057FE4F0900314E04480F002390B9022
:1032B3000500E064437023A3E0B44B1EA3E0B459BC
:1032C30019A3E0B45414900544E514F0900504E008
:1032D300F514900545E514023587900500E0644335
:1032E3006003023422A3E064526003023422A3E0A9
:1032F300644B6003023422A3E0644D600302342272
:10330300900153E0FFA3E0900544CFF0A3EFF090CA
:103313000155E0FFA3E0900546CFF0A3EFF0900145
:1033230064E02401FF900163E03400FE9001A7E014
:10333300FCA3E0FDD39FEC9E4008CEECCECFEDCFB7
:103343008000900160E024FFFD90015FE034FFFC0A
:10335300C3EF9DEE9C5026900164E02401FF900191
:1033630063E03400FE9001A7E0FCA3E0FDD39FECF3
:103373009E4008CEECCECFEDCF8010800E90016042
:10338300E024FFFF90015FE034FFFE900153EEF075
:10339300A3EFF0900166E02401FF900165E03400A3
:1033A300FE9001A9E0FCA3E0FDD39FEC9E4008CE74
:1033B300ECCECFEDCF8000900162E024FFFD9001C1
:1033C30061E034FFFCC3EF9DEE9C5026900166E064
:1033D3002401FF900165E03400FE9001A9E0FCA305
:1033E300E0FDD39FEC9E4008CEECCECFEDCF801016
:1033F300800E900162E024FFFF900161E034FFFE44
:10340300900155EEF0A3EFF0900153E0FDA3E0909F
:103413000548CDF0A3EDF0A3EEF0A3EF02358790BE
:103423000500E064436003023545A3E06452600392
:10343300023545A3E0644B6003023545A3E0645ABB
:103443006003023545900163E0FFA3E0900544CF9C
:10345300F0A3EFF090015FE0FFA3E0900546CFF00B
:10346300A3EFF0900165E0FFA3E0900548CFF0A340
:10347300EFF0900161E0FFA3E090054ACFF0A3EFE6
:10348300F0900504E0FEA3E0FF900153E0FCA3E00D
:10349300FDC3EF9DEE9C400302353A900506E0FE26
:1034A300A3E09DEE9C500302353AA3E0FEA3E0FFA8
:1034B300900155E0FCA3E0FDEF9DEE9C5079900553
:1034C3000AE0FEA3E09DEE9C406D900504E0FFA39F
:1034D300E0900163CFF0A3EFF0900506E0FFA3E0D7
:1034E30090015FCFF0A3EFF0900508E0FFA3E09019
:1034F3000165CFF0A3EFF090050AA3E0FF9001610F
:10350300EEF0A3EFF0A3E0FDA3E090054CCDF0A314
:10351300EDF090015FE0FDA3E090054ECDF0A3ED4B
:10352300F0900165E0FDA3E0900550CDF0A3EDF030
:10353300A3EEF0A3EF804D90054C74FFF0A3F002CF
:10354300390B900500E064437044A3E06445703E8A
:10355300A3E064437038A3E064447032A20F339055
:103563000544F0A210E433A3F0900504E024FF9295
:103573000FA3E024FF9210A20FE433900546F0A2BC
:1035830010E433A3F09003147432F002390B900566
:1035930000E0B44313A3E0B4450EA3E0B44309A38E
:1035A300E06446700302390B900500E06442702822
:1035B300A3E0B44623A3E0B4571EA3E0B45619C84E
:1035C3007444C8CC7405CCCD7401CD7BFF7A0079EB
:1035D3000E7E007F04023813900500E0644260030E
:1035E300023731A3E064556003023731A3E0644935
:1035F3006003023731A3E06444600302373190056E
:103603007DF090057DE0FF25E02439F582E4340365
:10361300F583E0FE74442FF582E43405F583EEF080
:1036230090057DE02444F582E43405F583E0C394FA
:1036330030402790057DE02444F582E43405F5838A
:10364300E0D39439501490057DE02444F582E434AA
:1036530005F583E024D0F00236DE90057DE02444B6
:10366300F582E43405F583E0C39461402690057D3B
:10367300E02444F582E43405F583E0D394665013E3
:1036830090057DE02444F582E43405F583E024A924
:10369300F0804890057DE02444F582E43405F58309
:1036A300E0C39441402690057DE02444F582E43450
:1036B30005F583E0D39446501390057DE02444F54B
:1036C30082E43405F583E024C9F0800F90057DE0A2
:1036D3002444F582E43405F583E4F090057DE004A9
:1036E300F0E0640C600302360590057DE4F090057C
:1036F3007DE0FF25E02444F582E43405F583E0C44E
:1037030054F0FEEF25E02445F582E43405F583E02B
:103713004EFF90057DE02444F582E43405F583EF04
:10372300F090057DE004F0E0B406C302390B900588
:1037330000E0644260030237E6A3E06449600302E9
:1037430037E6A3E0645060030237E6A3E064546005
:10375300030237E69001A7E0FFA3E0900544CFF012
:10376300A3EFF09001A9E0FFA3E0900546CFF0A3FB
:10377300EFF0A31248260000000090057DE4F090CE
:103783000548C083C082E0F8A3E0F9A3E0FAA3E010
:10379300FBE8C0E0E9C0E0EAC0E0EBC0E090057DF3
:1037A300E0F92440F582E43401F583E0FFE4FCFD15
:1037B300FEC8E9C8124807D0E0FBD0E0FAD0E0F930
:1037C300D0E0F8EB4FFFEA4EFEE94DFDE84CFCD0AC
:1037D30082D08312481A90057DE004F0E0B4139F71
:1037E30002390B900500E06442702BA3E0B4472636
:1037F300A3E0B45021A3E0B44D1CC87444C8CC74F6
:1038030005CCCD7401CD7BFF7ADA79007E007F3859
:103813001244E602390B900500E06442701DA3E0F8
:10382300B44418A3E0B44713A3E0B4430E7B017A76
:103833000579447D3812736302390B900500E06407
:10384300427028A3E064527022A3E0B4531DA3E0A6
:10385300B454187E007F3C7D207B017A05794412A5
:1038630048909003147464F002390B900500E064EF
:10387300427027A3E064427021A3E0B44F1CA3E08D
:10388300B454177E007F3C7D207B017A0579441276
:1038930048909003147465F0806E900500E06442D4
:1038A3007054A3E06443704EA3E064537048A3E0F4
:1038B30064437042FE7F3C7D207B017A057944128C
:1038C3004890900000E02431900544F0900504E016
:1038D300C394314019E0D394385013E0900545F078
:1038E30024CF900600F09003147466F0801A9005BC
:1038F3004574FFF080129005407452F0A37449F0B0
:10390300A3744EF0A37456F053D4FC023DBC75D39C
:103913000063D240C20B8068AFDB9002D2E4F0A315
:10392300EFF09002D2E0FEA3E0FF4E6053D3EF949A
:1039330002EE9400504A9002D2A3E0247FF58274F1
:10394300053EF583E0FF7E009002D2EEF0A3EFF098
:103953007F0020E0027F01EF24FFB3920A9002D29E
:10396300E0FEA3E0FF7D0020E1027D01ED24FFB333
:10397300920DEF7F0020E2027F01EF24FFB3920953
:10398300E5D254FC4402F5D2023DBC75DCC0AFDB8A
:103993009002D2E4F0A3EFF09002D2E07004A3E02F
:1039A30064086003023CF79004C7E0FE9004C6E09D
:1039B3007C002400FFEC3E900334F0A3EFF0900270
:1039C300D2E4F0A3F09002D1F09004C1E09003366A
:1039D300F09004C0E05460601A900336E01424FDB4
:1039E3004003023CFD24FB24FD4003023CFD800018
:1039F300023CF7900336E0B40B004003023CF59021
:103A03003A09F8282873023CCA023BF9023CF50242
:103A13003C49023CF5023BB6023A2A023CF5023B22
:103A2300C2023BE7023CFD9004C3E024FE602B147A
:103A3300604224E17003023AF024216003023B2F29
:103A430090035374FFF0A3747AF0A37446F09002CA
:103A5300D2E4F0A37412F0023B3590035374FFF0E9
:103A6300A3747BF0A3749DF09002D2E4F0A3744995
:103A7300F0023B359004C2E014602714603D1460EB
:103A83005324036003023B2F90035374FFF0A3748A
:103A93007AF0A37458F09002D2E4F0A37404F00215
:103AA3003B3590035374FFF0A3747AF0A37472F060
:103AB3009002D2E4F0A37424F0807790035374FF50
:103AC300F0A3747AF0A3745CF09002D2E4F0A374D0
:103AD30016F0805E9003537401F0A37403F0A37493
:103AE30037F09002D2E4F0A3741AF080459004C436
:103AF300E0FF701990035374FFF0A3747AF0A3747A
:103B030096F09002D2E4F0A374E5F08025EFB401BF
:103B13001990035374FFF0A3747BF0A3747BF090AC
:103B230002D2E4F0A37422F0800880009002D174E2
:103B3300FFF09002D2E0FEA3E0FFD3900335E09FB5
:103B4300900334E09E4005EEF0A3EFF0900334E0E1
:103B5300FEA3E0FFC39440EE9400400C7C007D4044
:103B6300CEECCECFEDCF80009002D2EEF0A3EFF0FB
:103B73009002D2E0FEA3E0FFC874C0C8CC7404CCAA
:103B8300CD7401CD900353E0FBA3E0FAA3E0F91257
:103B930044E69002D2E0FEA3E0FFC3900335E09F2A
:103BA300F0900334E09EF0900354EE8FF012460A37
:103BB300023CFD9004C2E0FF900334E4023CEF902A
:103BC3000333E09004C0F0C3900335E09401900305
:103BD30034E094005003023CFD9002D2E4F0A304CD
:103BE300F0023CFD9004C2E0900333F07003023C0A
:103BF300FDD20E023CFD9004C0E0541FFF6402702E
:103C0300359004C4E014601E1460202481600D14F8
:103C1300701EE5D454BC4402F5D4801AE5D254BCDA
:103C23004402F5D2801053D273800B53D4738006B1
:103C33009002D174FFF0EF700A900332E054FEF06B
:103C4300023CFD023CF79004C0E0541FFD70269037
:103C530004C3E0FE9004C2E0FBEB64014E701490D9
:103C63007BA49330E50A900332E04401F0023CFD6B
:103C7300023CF7807FED6402704B9004C3E0FE903A
:103C830004C2E0FDED4E703B9004C5E0FE9004C419
:103C9300E0FDEDFFEE702AEF24FE60112481601732
:103CA30014701EE5D454BF4403F5D4804DE5D454B9
:103CB3007F440CF5D48043E5D254BF4403F5D2804E
:103CC300398031802F802D9004C1E4F09004C0F03E
:103CD300900334E0FEA3E0FFC39402EE940090024D
:103CE300D24008E4F0A37402F0800FEEF0A3EFF0EB
:103CF300800880009002D174FFF09002D1E0B4FFFD
:103D03000675DCCF023DBC9002D2E0FEA3E0FF4E7D
:103D130060048FDD800375DD0075DCC0023DBC905F
:103D23000336E024FB606E14707A900334E0FEA344
:103D3300E0FFC39440EE9400400C7C007D40CEEC49
:103D4300CECFEDCF80009002D2EEF0A3EFF0900241
:103D5300D2E0FEA3E0FFC874C0C8CC7404CCCD7419
:103D630001CD900353E0FBA3E0FAA3E0F91244E68C
:103D73009002D2E0FEA3E0FFC3900335E09FF090F2
:103D83000334E09EF0900354EE8FF012460A8FDD69
:103D930063DC408024900334A3E0FFE5E354804FC9
:103DA300F5E3800375DD0075DC02800DAFDB900267
:103DB300D2E4F0A3EFF063DC80C2D9803E30D81F99
:103DC30075DC0275D20275D40275E300C2DAC2D97A
:103DD300C20EC20BC20C900332E4F0C2D8801C3076
:103DE300DA16C2DAE5DA90033230E206E04402F092
:103DF3008009E054FDF0800375D8FFD0D0D082D085
:103E030083D0F0D0E0329002E17403F09001FDE042
:103E1300FCA3E0FDA3E0FEA3E0FF90028FE0F8A384
:103E2300E0F9A3E0FAA3E0FBD31247E3400A9002D0
:103E33008B124826000000009001FDE0FCA3E0FD8A
:103E4300A3E0FEA3E0FF90028F12481A9001FDE069
:103E5300FCA3E0FDA3E0FEA3E0FF90028BE0F8A348
:103E6300E0F9A3E0FAA3E0FBD31247E3400C90028E
:103E7300A87401F0E49002C8F022E49002A8F09044
:103E830002E6F0A3F09002A7E0FF603B900000E0A1
:103E930075F020A4240FF582E5F03400F58375F066
:103EA30002EF124857E0FEA3E0FFF5828E8374020F
:103EB30093FD7C00EF2403FFE43EFEEF2DFFEC3E79
:103EC3009002E6F0A3EFF09002E1E0C39416400302
:103ED3000244159002E6E0FEA3E0FF9002ABE0FC93
:103EE300A3E0FDC39FEC9E4004E40242CC8D828C90
:103EF30083E493FFB4EA31ED2401FBE43C8B82F5C8
:103F030083E493FE54019002C8F0EE30E10990027D
:103F1300ACE024020240B79002ACE004F0700690DB
:103F230002ABE004F0024404EF64EB60030240548C
:103F3300ED2401FFE43C8F82F583E493FBB4021E7E
:103F4300ED2404FEE43C900293F0A3CEF09002AC87
:103F5300E02404F09002ABE03400F0024404900249
:103F6300A6E004F070069002A5E004F0ED2402FF41
:103F7300E43C8F82F583E493FEED2403FDE43C8D62
:103F830082F583E493FDEDFF9002E2EEF0A3EFF000
:103F9300EB600B9002C9E030E204540360339002FB
:103FA300ABE0FEA3E02401FFE43E8F82F583E493BC
:103FB30070079002C9E020E2189002E2E0FEA3E05D
:103FC300FF4E60149002A5E0FCA3E0C39FEC9E406B
:103FD300079002C9E04480F09002C9E0FF30E72770
:103FE3009002ACE02403F09002ABE03400F0EF5415
:103FF3007B9002C9F0E49002A5F0A3F074FF900255
:1040030093F0A3F0024404900293E0FEA3E0FFF4D4
:104013007002EEF460069002ABEE8030900000E098
:1040230075F020A4240FF582E5F03400F583C083F6
:10403300C0829002A7E0D082D08375F00212485765
:10404300E0FEA3E02403FFE43E9002ABF0A3EFF015
:10405300229002ABE0FEA3E0F5828E83E49364FE3C
:10406300705B9002ABE0FCA3E0FD2401FFE43C8F16
:1040730082F583E493FEED2402FDE43C8D82F58317
:10408300E493FDEDFF9002E9EEF0A3EFF0E4FCFD15
:104093009001FDE0F8A3E0F9A3E0FAA3E02FFFEA23
:1040A3003EFEED39FDEC38FC90028B12481A90026B
:1040B300ACE02403F09002ABE03400F0229002ABBA
:1040C300E0FEA3E0F5828E83E493FC64FD706190CF
:1040D30002E1E0FFD394034003024415900309E097
:1040E30060030244159002AB75F00112460A85F095
:1040F30082F583E493FD1267A09002ABE475F001AF
:1041030012460A85F082F583E493900319F0900236
:10411300E6E0FEA3E0FF9002ABE475F00112460A6D
:10412300FAEF65F07002EE6A60030244150242CCB6
:10413300EC64EC60149002ABE0FEA3E0F5828E83A6
:10414300E49364ED60030242D19002E1E0D394036F
:104153004003024415900309E060030244159002F2
:10416300ABE0FCA3E0FD2401FFE43C8F82F583E494
:1041730093FEED2402FDE43C8D82F583E493FDED93
:10418300FF9002E2EEF0FCA3EFF0CCCCCDCD900299
:10419300ABE0FAA3E0FB2403FFE43A8F82F583E468
:1041A30093FEEB2404FBE43A8B82F583E493FBEB6D
:1041B300FF9002E4EEF0A3EFF0CFEDCFCEECCEE430
:1041C300FCFDFB7A80F9F81246A2ECC0E0EDC0E0FA
:1041D300EEC0E0EFC0E0900111E0FEA3E024FAF5A9
:1041E30082EE3401F583E493FE740193FFCBEFCBAE
:1041F300CAEECAE4F9F8D0E0FFD0E0FED0E0FDD08B
:10420300E0FC1271CD9002E2EEF0A3EFF0A3E0FE2A
:10421300A3E0FFE4FCFDFB7A80F9F81246A2ECC0B0
:10422300E0EDC0E0EEC0E0EFC0E0900111E0FEA3DE
:10423300E024FCF582EE3401F583E493FE740193EC
:10424300FFCBEFCBCAEECAE4F9F8D0E0FFD0E0FE33
:10425300D0E0FDD0E0FC1271CD9002E4EEF0A3EFCC
:10426300F09002E2E0FCA3E0FDCFEDCF900310F06D
:10427300ECA3F09002E4E0FCA3E0FDCFEDCF9003CC
:1042830012F0ECA3F09002ABE0FEA3E0F5828E8384
:10429300E493B4ED0790030EE04401F09002ACE028
:1042A3002404F09002ABE03400F09002E6E0FEA3B9
:1042B300E0FF9002ABE475F00112460AFCEF65F0F3
:1042C3007002EE6C60030244159002A7F022900284
:1042D300ABE0FEA3E0F5828E83E49364FA6003020D
:1042E30043839002E87403F0F09002E1E0FC900253
:1042F300E8E0FFC39C502A9002ABE0FAA3E0F5820A
:104303008A83E493FE74182FF582E43403F583E083
:104313006E70069002E8F080089002E8E004F080F6
:10432300C89002E8E07003024415900309E06003BB
:10433300024415900319E060199002E1E0FF04F0D4
:104343009002ABE475F00112460A85F082F5830210
:1043530043FEEC640360030244159002E1E0FF04B2
:10436300F09002ABE475F00112460A85F082F58302
:10437300E493FD1267A0900319E04402F0024404A1
:104383009002E87403F0F09002E1E0FC9002E8E0B0
:10439300FFC39C502A9002ABE0FAA3E0F5828A8324
:1043A300E493FE74182FF582E43403F583E06E7012
:1043B300069002E8F080089002E8E004F080C890DC
:1043C30002E8E0604D900309E07047900319E07044
:1043D300149002E1E0FF04F09002ABE0FAA3E0F5F1
:1043E300828A838016ECB403299002E1E0FF04F093
:1043F3009002ABE0FCA3E0F5828C83E493FD1267AB
:10440300A09002ACE004F070069002ABE004F0026E
:104413003ECA22E709F608DFFA8046E709F208DF19
:10442300FA803E88828C83E709F0A3DFFA8032E3C7
:1044330009F608DFFA8078E309F208DFFA8070886A
:10444300828C83E309F0A3DFFA806489828A83E0A4
:10445300A3F608DFFA805889828A83E0A3F208DF93
:10446300FA804C80D280FA80C680D4806980F28042
:1044730033801080A680EA809A80A880DA80E28068
:10448300CA803389828A83ECFAE493A3C8C582C8BD
:10449300CCC583CCF0A3C8C582C8CCC583CCDFE927
:1044A300DEE7800D89828A83E493A3F608DFF9ECC3
:1044B300FAA9F0EDFB2289828A83ECFAE0A3C8C54E
:1044C30082C8CCC583CCF0A3C8C582C8CCC583CC75
:1044D300DFEADEE880DB89828A83E493A3F208DFE4
:1044E300F980CC88F0EF60010E4E60C388F0ED24B4
:1044F30002B4040050B9F582EB2402B4040050AFB7
:10450300232345822390446673BB010CE58229F57E
:1045130082E5833AF583E0225006E92582F8E62214
:10452300BBFE06E92582F8E222E58229F582E583CE
:104533003AF583E49322BB010689828A83F02250F1
:1045430002F722BBFE01F322F8BB010DE58229F538
:1045530082E5833AF583E8F0225006E92582C8F61E
:1045630022BBFE05E92582C8F222EF8DF0A4A8F054
:10457300CF8CF0A428CE8DF0A42EFE22BC000BBE5F
:104583000029EF8DF084FFADF022E4CCF875F0083C
:10459300EF2FFFEE33FEEC33FCEE9DEC984005FC71
:1045A300EE9DFE0FD5F0E9E4CEFD22EDF8F5F0EE39
:1045B3008420D21CFEADF075F008EF2FFFED33FD24
:1045C3004007985006D5F0F222C398FD0FD5F0EAC4
:1045D30022C2D5EC30E709B2D5E4C39DFDE49CFCCF
:1045E300EE30E715B2D5E4C39FFFE49EFE12457F8C
:1045F300C3E49DFDE49CFC800312457F30D507C3D3
:10460300E49FFFE49EFE22C5F0F8A3E028F0C5F086
:10461300F8E582158270021583E038F022BB010AA7
:1046230089828A83E0F5F0A3E022500687F009E748
:104633001922BBFE07E3F5F009E3192289828A8375
:10464300E493F5F074019322BB010789828A830204
:10465300460A500B09C5F027F7C5F01937F722BBF7
:10466300FE0D09F8E325F0F3C5F019E338F322F85A
:1046730089828A8374019325F0C5F0F8E493382284
:10468300BB010A89828A83F0E5F0A3F0225006F782
:1046930009A7F01922BBFE06F3E5F009F31922E896
:1046A3008FF0A4CC8BF0A42CFCE98EF0A42CFC8A14
:1046B300F0EDA42CFCEA8EF0A4CDA8F08BF0A42D91
:1046C300CC3825F0FDE98FF0A42CCD35F0FCEB8E32
:1046D300F0A4FEA9F0EB8FF0A4CFC5F02ECD39FEE8
:1046E300E43CFCEAA42DCE35F0FDE43CFC2275F05D
:1046F30008758200EF2FFFEE33FECD33CDCC33CCE4
:10470300C58233C5829BED9AEC99E58298400CF5FE
:1047130082EE9BFEED9AFDEC99FC0FD5F0D6E4CE2C
:10472300FBE4CDFAE4CCF9A88222B800C1B9005960
:10473300BA002DEC8BF084CFCECDFCE5F0CBF9782D
:1047430018EF2FFFEE33FEED33FDEC33FCEB33FBC1
:1047530010D703994004EB99FB0FD8E5E4F9FA224B
:104763007818EF2FFFEE33FEED33FDEC33FCC93346
:10477300C910D7059BE99A4007EC9BFCE99AF90F0E
:10478300D8E0E4C9FAE4CCFB2275F010EF2FFFEE7A
:1047930033FEED33FDCC33CCC833C810D7079BECC5
:1047A3009AE899400AED9BFDEC9AFCE899F80FD53D
:1047B300F0DAE4CDFBE4CCFAE4C8F922C3E49FFFCA
:1047C300E49EFEE49DFDE49CFC22EB9FF5F0EA9E53
:1047D30042F0E99D42F0EC6480C864809845F02281
:1047E300EB9FF5F0EA9E42F0E99D42F0E89C45F02C
:1047F30022E8600FECC313FCED13FDEE13FEEF1381
:10480300FFD8F122E8600FEFC333FFEE33FEED3341
:10481300FDEC33FCD8F122ECF0A3EDF0A3EEF0A312
:10482300EFF022A8828583F0D083D08212483D1214
:10483300483D12483D12483DE473E493A3C583C544
:10484300F0C583C8C582C8F0A3C583C5F0C583C8B6
:10485300C582C822A42582F582E5F03583F583223B
:10486300EC8EF0A4CCC5F0CCCDF8EFA4CEC5F02DE2
:10487300FDE43CFCE8A42EC8C5F03DFDE43CFCEFA0
:10488300A4FFE5F028FEE43DFDE43CFC22EF4E608E
:1048930012EF60010EEDBB010B89828A83F0A3DF67
:1048A300FCDEFA2289F05007F709DFFCA9F022BBEE
:1048B300FEFCF309DFFCA9F022BB010689828A838F
:1048C300E0225002E722BBFE02E32289828A83E4CC
:1048D3009322E0FCA3E0FDA3E0FEA3E0FF22F8E0C7
:1048E300FBA3A3E0F925F0F0E5821582700215839E
:1048F300E0FA38F022EBF0A3EAF0A3E9F022D08348
:10490300D082F8E4937012740193700DA3A393F80B
:10491300740193F5828883E4737402936860EFA350
:10492300A3A380DFE51724DAF582E43402F583E0FC
:104933000517229002D73007039002DAE475F001DD
:104943001248E10248BC2000E97F2ED2008018EF14
:10495300540F2490D43440D4FF30040BEF24BFB45D
:104963001A0050032461FFE51860021518051BE5C2
:104973001B7002051A30070E9002D7E475F001127E
:1049830048E1EF0245390273E47403D2078003E47C
:10499300C207F5179002D71248F8E4F518F51AF58F
:1049A3001BE51860077F2012496A80F57519FFC25D
:1049B30001C200C202C203C205C206C208124936BE
:1049C300FF700D3007057F0012497BAF1BAE1A2223
:1049D300B4255FC2D5C204124936FF24D0B40A00FD
:1049E300501A75F00A781830D50508B6FF0106C6C7
:1049F300A426F620D5047002D20380D924CFB41A9A
:104A030000EF5004C2E5D204024B7CD20180C6D22F
:104A13000080C0D20280BCD2D580BAD20580B47FD8
:104A23002012496A2002077401B5180040F11249A7
:104A330027FF12496A0249A4D208D2068095124977
:104A430027FB124927FA124927F94A4B7006794D79
:104A53007A4C7BFF20022EE518602A7E008E827539
:104A6300830012450C60060EEE651970F0C2D5EB9B
:104A7300C0E0EAC0E0E9C0E0EE124BC3D0E0F9D0F9
:104A8300E0FAD0E0FB1248BCFF60AAEBC0E0EAC04A
:104A9300E0E9C0E012496AD0E02401F9D0E0340033
:104AA300FAD0E0FBE5190460DCD519D980877BFFD8
:104AB3007A4B79BFD202809C791080027908C206B2
:104AC300C2088008D2D5790A8004790AC2D5E519CB
:104AD300047002F519E4FAFDFEFF124927FC7B0876
:104AE300200113124927FD7B1030000A124927FECB
:104AF300124927FF7B20EC3382D592D55013C3E4B0
:104B03003000069FFFE49EFEE42001039DFDE49C2C
:104B1300FCE4CBF8C201EC700CCFCECDCCE824F88A
:104B2300F870F38017C3EF33FFEE33FEED33FDEC84
:104B330033FCEB33FB994002FB0FD8E9EB30010563
:104B4300F8D0E0C448B201C0E00AEC4D4E4F7820E3
:104B53007B0070C2EAB5190040BCC0E0124BC5D05F
:104B6300F0D0E0200104C4C0E0C4B201C0F0124997
:104B730053D0F0D5F0EB0249A41249014A41534AFC
:104B8300BB584A124C4A0E424ABF4F4AC7444AC70F
:104B9300494A27434ACD554AB1464AB1454AB147E6
:104BA3004C6D504A162D4A1A2E4A3D2B4A1E234A53
:104BB3003B204C562A49D64800004A353F3F3F0028
:104BC300790AA2D5200314300509B910020404B9E7
:104BD300080104A2D52006025001042002689202B3
:104BE300B518005034C0E07F203003197F30A20293
:104BF30072067205500F124C1CC202C206C205C2D5
:104C0300087F30800F300503E9C0E012496A3005A0
:104C130003D0E0F9D0E0B518CC3005177F30B910D8
:104C23000C12496A7F583004077F788003B9080360
:104C330012496A3002057F2D02496A7F202008F855
:104C43007F2B2006F322920280CF286E756C6C298D
:104C530000D2011249273001F8C201781830D5017A
:104C630008F60249D62D504349581249272403B464
:104C730005004001E4904C689312495B743A124971
:104C83005BD203751804024ABBE4FD75F002EDA480
:104C93002400F582E5F034DAF583E493FA740193A2
:104CA300FBED25E0FFE433FE74632FF58274013ED0
:104CB300F583EAF0A3EBF075F002EDA42404F5828A
:104CC300E5F034DAF583E493FA740193FBED25E020
:104CD300FFE433FE745F2FF58274013EF583EAF03F
:104CE300A3EBF075F002EDA42408F582E5F034DAC5
:104CF300F583E493FA740193FBED25E0FFE433FEBF
:104D030074532FF58274013EF583EAF0A3EBF0743C
:104D1300632FF58274013EF583E0FEA3E0C394FFA5
:104D2300EE940F4015ED25E0FFE433FE74632FF599
:104D33008274013EF583E4F0A3F0ED25E0FFE43354
:104D4300FE745F2FF58274013EF583E0FEA3E0FF5E
:104D53004E6009D3EF94FFEE940F4018ED25E0FF6A
:104D6300E433FE745F2FF58274013EF583740FF014
:104D7300A374FFF0ED25E0FFE433FE745F2FF582AB
:104D830074013EF583E0FAA3E0FB74632FF58274AC
:104D9300013EF583E0FEA3E0C39BEE9A4026ED259A
:104DA300E0FFE433FE74632FF58274013EF583E480
:104DB300F0A3F0745F2FF58274013EF583740FF056
:104DC300A374FFF0ED25E0FFE433FE74532FF58267
:104DD30074013EF583E0FEA3E0FF4E6009C3EF9448
:104DE300FFEE940F4017ED25E0FFE433FE74532FDD
:104DF300F58274013EF5837408F0A3E4F0ED25E039
:104E0300FFE433FE74632FF58274013EF583E0FA09
:104E1300A3E0FB74532FF58274013EF583E0FEA3F8
:104E2300E0D39BEE9A402AED25E0FFE433FE745F66
:104E33002FF58274013EF583E0FAA3E0FB74532F50
:104E4300F58274013EF583E0FEA3E0C39BEE9A4036
:104E530036ED25E0FFE433FE74632FF58274013EE3
:104E6300F583E4F0A3F074532FF58274013EF583C8
:104E73007408F0A3E4F0745F2FF58274013EF583A8
:104E8300740FF0A374FFF0ED25E0FFE433FE7463C9
:104E93002FF58274013EF583E0FAA3E0FB74532FF0
:104EA300F58274013EF583E0FEA3E0C39BFBEE9A1B
:104EB300FAED25E0FFE433FE745B2FF58274013EC7
:104EC300F583EAF0A3EBF074532FF58274013EF5FA
:104ED30083E0FAA3E0FB745F2FF58274013EF58350
:104EE300E0FEA3E0C39BFBEE9AFAED25E0FFE4337B
:104EF300FE74572FF58274013EF583EAF0A3EBF0BD
:104F03000DED64026003024C8E90DA10E493F51405
:104F130090DA14E493FF13920FEFC313139210224A
:104F2300E49002DBF0A20A33A3F0A20DE433A3F072
:104F3300A209E433A3F09002A9E07F0060027F019D
:104F43009002DFEFF09002A7E07F0060027F019004
:104F530002E0EFF0900111E0FEA3E024F9F582EE08
:104F63003401F583E493C4540F60739002CAE0F8EC
:104F7300A3E0F9A3E0FAA3E0FB9001FDE0FCA3E0CA
:104F8300FDA3E0FEA3E0C39BFFEE9AFEED99FDECCB
:104F930098C0E0EDC0E0EEC0E0EFC0E0900111E0AA
:104FA300FEA3E024F9F582EE3401F583E493C454BF
:104FB3000F25E02436F582E4347AF583E493FE7416
:104FC3000193FFCBEFCBCAEECAE4F9F8D0E0FFD0F0
:104FD300E0FED0E0FDD0E0FCD31247E35017900190
:104FE30011E0FEA3E024F9F582EE3401F583E493A6
:104FF300540FFF700890022474FFF08046EF604363
:10500300C3940440028037EF14FDC8EDC87E0074DA
:1050130001088005C333CE33CED8F9FF900224E0D4
:10502300FCC39FEE6480F87480984012C8EDC87486
:1050330001088002C333D8FCFFC3EC9F8001E490D6
:105043000224F0E49002D7F09002D7E0FFC3940368
:105053004003025182E0FE900111E0FCA3E0FD2435
:10506300F6F582EC3401F583E5822EF582E435838F
:10507300F583E493FB540F24DBF582E43402F583D8
:10508300E0FAEBC41313135401FBEA6BFB74D82E41
:10509300F582E43402F583EBF074D82FF582E4341F
:1050A30002F583E0604BED24F9F582EC3401F583DE
:1050B300E493540F703B9002D7E024D8F582E43494
:1050C30002F583C083C082E0FF9002D7E0FEED24A7
:1050D300F3F582EC3401F583E5822EF582E4358322
:1050E300F583E493FEEF8EF0A4D082D083F00251D7
:1050F300799002D7E0FBED24F3F582EC3401F583DC
:10510300E5822BF582E43583F583E493FD7C0090FF
:105113000224E0F9FFC374FF9FFFE49400FE1245ED
:105123006D74D82BF582E43402F583E0FD12456DEE
:10513300CCEECCCDEFCD9002D7E0FF900111E0FA99
:10514300A3E024F0F582EA3401F583E5822FF582AA
:10515300E43583F583E49389F0A42DFFEC35F0FE69
:105163007C007DFF12457F9002D7E024D8F582E4CE
:105173003402F583EFF09002D7E004F002504B9035
:1051830002D8E0F5A5A3E0F59AA3E0F5A422011E59
:1051930000011C00C10F011F00011D00C1104103CC
:1051A3005A0041035B00410314004103170041030C
:1051B30030004103070041032E0041032F00410348
:1051C3003100560318010000000000000000000039
:1051D300000000000000000000000045030802007A
:1051E30000000047030D03100100000000420315F7
:1051F300040041033200C10EC10BC10CC10AC10D31
:10520300C1094401FD0000000001140254015308C8
:1052130000080008000800080008000FFF0FFF0047
:105223000000004401A70800080041013B010210EF
:1052330000000215000A021227104401AB0000000F
:105243000042013E00004201E80000420285DC000A
:105253005002750000000000000000000000000084
:105263000000005002650000000000000000000084
:10527300000000000000500255000102030405066F
:105283000708090A0B0C0D0E0F6030022500000001
:10529300000000000000000000000000000000000B
:1052A30000000000000000000000000000000000FB
:1052B3000000000000000000000000000020302477
:1052C30000000000000000000000000000000000DB
:1052D30000000000000000000000000000000000CB
:1052E30000000000000000000000000000000000BB
:1052F30044021400000000440218FFFF00014202B0
:105303001C000041021E0041021F00410220004117
:10531300022100410222FF410223004102240041F5
:10532300000000420111F2004102AE004102B00050
:105333004102A9004402CA000000004102A7004242
:1053430002AB00004202A500004102C9004102C8AD
:10535300004102A8004102B1FF4102AA004102AF8D
:10536300004102AD004402870000000044028B00AC
:1053730000000044028F00000000420293FFFF423E
:105383000295000042029700004202990000420287
:105393009B000042029D000042029F00004202A1C6
:1053A30000004202A30000009002D7EFF0E4A3F054
:1053B300EFC3940A403F9002D7E0FF94125036EFB8
:1053C30024F6FFEF25E0FEC3E49400FF74F29EFE93
:1053D3007408125EC39002D8EFF09002D7E024F66F
:1053E300FF1260719002D8E0700302554D9002D70E
:1053F300E024FE803B9002D7E0FFC3941E4034EFCD
:105403009426502FEF24E2FFEFFEE42400FFEE3456
:10541300DCFE7404125EC39002D8EFF07F01121514
:10542300029002D8E0700302554D9002D7E024F2B7
:10543300FD80299002D7E0B4322A1265A67B017A57
:105443000679009002E07401F07F007EDA125ECDEF
:105453009002D8EFF0700302554D7D187F03127050
:10546300F202554D9002D7E0B464161274A412717F
:10547300887F647E00127476E4F5A812002E02552C
:105483004D9002D7E0646560030255161274A412AE
:1054930071887F647E00127476E4F5A875D8FF7571
:1054A300E20690035A74AAF090035B7455F07E00F1
:1054B3007F407D007B017A06790012489090063E7A
:1054C3007480F0A374FEF07B017A0679009002E009
:1054D3007401F0E4FFFE125ECD9002D8EFF0E4F524
:1054E300FFF5A5F59A75A4FF7F207E03127476E479
:1054F300F5FFF5A5759AFFF5A47F207E0312747658
:10550300E4F5FF75A5FFF59AF5A47F207E031274D9
:105513007680CB9002D7E0B46630900600E090002E
:1055230000F0FD25E0FEC3E49400FF74F29E9001B9
:1055330011F0A3EFF0EDFEE42400FFEE34DC900263
:1055430085F0A3EFF07F011215029002D8E06059B5
:10555300E4F5FF75A5FFF59AF5A47F96FE12747620
:10556300E4F5A5759AFFF5A47F96FE127476E4F52B
:10557300A5F59A75A4FF7F96FE12747675A5FFE4D0
:10558300F59AF5A47F96FE127476E4F5A5759AFF55
:10559300F5A47F96FE127476E4F5A5F59A75A4FF3B
:1055A3007F96FE127476E4F5FF22E49002D7F0A30F
:1055B30074FFF0A3F0A3F0A37401F0439D209001C6
:1055C300E7E06009900152E070030257949001E60E
:1055D300E06009900151E070030257949001E5E007
:1055E3006009900150E07003025794E4F5FF1266DE
:1055F300AA7F01126A6D1266AA7F02126A6D126394
:105603005B9002DBE0251CF0E4F51DF51CE0C364B0
:10561300809481501275A5FF7401F07F027E001201
:105623007476E4F5A5801B9002DBE0D36480948A52
:105633004010759AFF740AF07F027E00127476E4BC
:10564300F59AE49002D7F0FFEF6404602EEF640C48
:10565300602974402FF582E43401F583E0FE601283
:1056630074D52FF582E43401F583E070059002D8F8
:10567300EFF0EE60069002D7E004F00FEFB410C82D
:105683009002D7E07004A374FFF09002D8E0FEF418
:10569300606674402EF582E43401F583E07022FFE6
:1056A300EF64046017EF640C601274402FF582E41A
:1056B3003401F583E060059002D8EFF00FEFB410EA
:1056C300DF9002D8E0FC907C9293FE90014CE0FDC9
:1056D300EE2D9002D9F0900144E0FF600FECC394EB
:1056E3000850099002D9E0240CF08012EF600F906B
:1056F30002D9E024F4F080069002D974FFF09002FE
:10570300D9E0FFA3E06F70030255C1EFC3941250B9
:105713004F9002D9E025E02413F582E4347CF5832D
:10572300E493F512740193F513AE12FFCBEFCBCADA
:10573300EECAE4F9F89002DBE0FF3395E0FEFDFCEE
:105743001246A278081247F4E47B03FAF9F81247E9
:105753002D8E158F16E4FD7F01126CB8D2A9802817
:105763009002D9E0FFD394305013EF907C6193F50E
:105773009E9002DBE0F59CC2A97D018006E4F59CC6
:10578300C2A9FD7F01126CB89002D9E0A3F00255C3
:10579300C1E4F59CC2A9FD7F01126CB8759E20225D
:1057A300E49002EBF0EF601EE49002A3F09002A1FC
:1057B300F09002A0F090029FF09002EBF09002A410
:1057C300F09002A3F02290029FE0FF900111E0FC11
:1057D300A3E024E1F582EC3401F583E49325E0149E
:1057E300FE851CF0A4FDC3EF9D90029FF0E4F51C21
:1057F300A3E0FFEE851DF0A4FEC3EF9EF0E4F51DCC
:105803009002ECF09002ECE0FF24A1F582E4340274
:10581300F583E0FE749F2FF582E43402F583E0FF05
:10582300D3EE6480F8EF64809840089002EB740133
:10583300F08018C3EE6480F8EF64809850089002FB
:10584300EB7402F08005E49002EBF0900111E0FEAE
:10585300A3E0F5828E83C083C0829002ECE0FFD088
:1058630082D08375F008124857E58224E0F582E57B
:10587300833401F583E493540F14600302595A905F
:1058830002EBE0FE700302597674A32FF582E43431
:1058930002F583E060299002ECE0FF24A3F582E4A3
:1058A3003402F583E4F074A12FF582E43402F58326
:1058B300E0FFEE25E024FDFEC3EF9EF00259769053
:1058C30002EBE0FF900111E0FCA3E0F5828C83C0C2
:1058D30083C0829002ECE0D082D08375F008124836
:1058E30057E58224E2F582E5833401F583E5822FCF
:1058F300F582E43583F583E493FD60057FFF12674A
:10590300A0900319E0FF9002EBE0FE900111E0FC90
:10591300A3E0F5828C83C083C0829002ECE0FDD0CB
:1059230082D08375F008124857E58224E5F582E5B5
:10593300833401F583E5822EF582E43583F583E430
:1059430093FEEF4E900319F074A32DF582E4340215
:10595300F5837401F0801C9002ECE0FF249FF58234
:10596300E43402F583E0FE74A12FF582E43402F5FA
:1059730083EEF09002ECE004F0E0C39402500302E3
:105983005807229002F5EEF0A3EFF0A3ECF0A3ED9D
:10599300F0A3EAF0A3EBF09002F5E0FAA3E0FB7CBE
:1059A300007DA7CFEBCFCEEACE12457F7C007D06EC
:1059B30012457FCFEDCF900304EFF0E075F0A7A47D
:1059C300FFC3EB9FFFEA95F0FECBEFCBCAEECA9085
:1059D30002F7A3E0FFA3A3E0FDCEEDCEC39F9003A8
:1059E30005F09002F7E0FEA3E0CDEBCDCCEACC12BC
:1059F300456D7C007DA712457FA3A3E0FDCEEDCED0
:105A0300C39F900306F0CEEACECFEBCFC374A79F1C
:105A1300FFE49EFE9002F7E0FCA3E0FD12456D7CDF
:105A2300007DA712457FA3A3E0FDCEEDCEC39FFF6C
:105A3300900304E0FD70119002FBE0FBA3E0FAA3E6
:105A4300E0F9EE124539801EEDB4012E900306E015
:105A5300FF9002FBE0FBA3E0FAA3E0F9EF12453964
:105A63009002F9A3E0FF9002FEE0FBA3E0FAA3E0BB
:105A7300F9EF1245399003058062900304E0FEB408
:105A8300022AA3E0FD9002FBE0FBA3E0FAA3E0F906
:105A9300ED1245399002F9A3E0FD9002FEE0FBA36D
:105AA300E0FAA3E0F9ED124539025B49EEB40330A5
:105AB300900305E0FF9002FBE0FBA3E0FAA3E0F90B
:105AC300EF124539900306E0FF9002FEE0FBA3E0EE
:105AD300FAA3E0F9EF1245399002F9A3E0FF8066DB
