:080000000275D102794E323283
:07000B00027DBE01060100A9
:100013000200067B017A0679009002EE7401F07FFC
:06002300007ED802671BFD
:0D002B0002000775A15575A1AA43B110226E
:03003B000279AB9C
:100043000234D7126CF3122663BF0109127EF81231
:100053007B41125D26127E39125861E4FF021502BC
:10006300027825EF6013E4900296F0A3F0900294D7
:10007300F0A3F0900292020585900111E0FEA3E047
:1000830024D5F582EE3401F583E493FD540175F034
:1000930002A424FFFEE5F034FF9002F9F0A3CEF0B2
:1000A300EDC313540175F002A424FFFEE5F034FF01
:1000B300A3F0A3CEF0900163E0FEA3E0FF9001A8BC
:1000C300E0FCA3E0FDD39FEC9E4008CEECCECFED49
:1000D300CF8000D3900160E09F90015FE09E4020BD
:1000E300900163E0FEA3E0FF9001A8E0FCA3E0FD24
:1000F300D39FEC9E4008CEECCECFEDCF800A800894
:1001030090015FE0FEA3E0FF9001A8EEF0A3EFF003
:10011300900165E0FEA3E0FF9001AAE0FCA3E0FDEF
:10012300D39FEC9E4008CEECCECFEDCF8000D39092
:100133000162E09F900161E09E4020900165E0FE36
:10014300A3E0FF9001AAE0FCA3E0FDD39FEC9E4057
:1001530008CEECCECFEDCF800A8008900161E0FE9F
:10016300A3E0FF9001AAEEF0A3EFF0900111E0FEEF
:10017300A3E024D5F582EE3401F583E493131354FD
:100183003F20E00302030A900153E0FEA3E0FF9047
:1001930001A8E0FCA3E0FDC39FEC9E9002F9E0FE02
:1001A3005037A3E0FFEEC0E0EFC0E0900153E0FE64
:1001B300A3E0FFC3ED9FFFEC9EFE3395E0FDFCE45F
:1001C300FB7A10F9F8124FE0ECC0E0EDC0E0EEC0AE
:1001D300E0EFC0E090015B803BA3E0FFEEC0E0EF07
:1001E300C0E0900153E0FEA3E0FF9001A8E0FCA370
:1001F300E0C39FFFEC9EFE3395E0FDFCE4FB7A1029
:10020300F9F8124FE0ECC0E0EDC0E0EEC0E0EFC063
:10021300E0900157E0FEA3E0FFCBEFCBCAEECAE4C8
:10022300F9F8D0E0FFD0E0FED0E0FDD0E0FC127B97
:10023300CBCDEFCDCCEECCD0E0FFD0E0FE124F0E15
:100243009002F9EEF0A3EFF0900155E0FEA3E0FF7A
:100253009001AAE0FCA3E0FDC39FEC9E9002FBE0AB
:10026300FE5037A3E0FFEEC0E0EFC0E0900155E0A1
:10027300FEA3E0FFC3ED9FFFEC9EFE3395E0FDFC84
:10028300E4FB7A10F9F8124FE0ECC0E0EDC0E0EEC9
:10029300C0E0EFC0E090015D803BA3E0FFEEC0E073
:1002A300EFC0E0900155E0FEA3E0FF9001AAE0FC5F
:1002B300A3E0C39FFFEC9EFE3395E0FDFCE4FB7AD5
:1002C30010F9F8124FE0ECC0E0EDC0E0EEC0E0EF53
:1002D300C0E0900159E0FEA3E0FFCBEFCBCAEECA2A
:1002E300E4F9F8D0E0FFD0E0FED0E0FDD0E0FC126E
:1002F3007BCBCDEFCDCCEECCD0E0FFD0E0FE124FE8
:100303000E9002FB020495900153E0FEA3E0FF90E0
:1003130001A8E0FCA3E0FDC39FEC9E9002FBE0FE7E
:100323005037A3E0FFEEC0E0EFC0E0900153E0FEE2
:10033300A3E0FFC3ED9FFFEC9EFE3395E0FDFCE4DD
:10034300FB7A10F9F8124FE0ECC0E0EDC0E0EEC02C
:10035300E0EFC0E090015B803BA3E0FFEEC0E0EF85
:10036300C0E0900153E0FEA3E0FF9001A8E0FCA3EE
:10037300E0C39FFFEC9EFE3395E0FDFCE4FB7A10A7
:10038300F9F8124FE0ECC0E0EDC0E0EEC0E0EFC0E2
:10039300E0900157E0FEA3E0FFCBEFCBCAEECAE447
:1003A300F9F8D0E0FFD0E0FED0E0FDD0E0FC127B16
:1003B300CBCDEFCDCCEECCD0E0FFD0E0FE124F0E94
:1003C3009002FBEEF0A3EFF0900155E0FEA3E0FFF7
:1003D3009001AAE0FCA3E0FDC39FEC9E9002F9E02C
:1003E300FE503EA3E0FFEEC0E0EFC0E0900155E019
:1003F300FEA3E0FFC3ED9FFFEC9EFEC3E49FFFE47B
:100403009EFE3395E0FDFCE4FB7A10F9F8124FE011
:10041300ECC0E0EDC0E0EEC0E0EFC0E090015D8035
:1004230042A3E0FFEEC0E0EFC0E0900155E0FEA381
:10043300E0FF9001AAE0FCA3E0C39FFFEC9EFEC394
:10044300E49FFFE49EFE3395E0FDFCE4FB7A10F9A4
:10045300F8124FE0ECC0E0EDC0E0EEC0E0EFC0E02A
:10046300900159E0FEA3E0FFCBEFCBCAEECAE4F95B
:10047300F8D0E0FFD0E0FED0E0FDD0E0FC127BCB73
:10048300CDEFCDCCEECCD0E0FFD0E0FE124F0E90FE
:1004930002F9EEF0A3EFF09002FBE0FEA3E0FFD33E
:1004A3009400EE648094804002800F9002FBE0FE93
:1004B300A3E0FFC3E49FFFE49EFE9002F9E0FCA3E8
:1004C300E0FDD39400EC648094804002800F90029E
:1004D300F9E0FCA3E0FDC3E49DFDE49CFCD3ED9FA8
:1004E300EE6480F8EC64809840259002F9E0FEA366
:1004F300E0FFD39400EE6480948040028034900245
:10050300F9E0FEA3E0FFC3E49FFFE49EFE80239097
:1005130002FBE0FEA3E0FFD39400EE6480948040EE
:1005230002800F9002FBE0FEA3E0FFC3E49FFFE421
:100533009EFECAEECACBEFCB900111E0FEA3E024EE
:10054300DCF582EE3401F583E493FF7E007C007DCD
:1005530015124F0EC3EB9FFFEA9EFE9002FDF0A320
:10056300EFF0D39400EE64809480501AE490029AE2
:10057300F0A3F0900298F0A3F0900296F0A3F0900D
:100583000294F0A3F022900111E0FEA3E0FF24D433
:10059300F582EE3401F583E493540F24FE700302D5
:1005A300078E147003020AC3147003020FB92403E5
:1005B3006003021501900292E07002A3E06003025F
:1005C3000798EF24DEF582EE3401F583E493701D82
:1005D300900111E0FEA3E024DFF582EE3401F58300
:1005E300E4937009900292F0A3F002071A900111AC
:1005F300E0FEA3E0FF24DEF582EE3401F583E4930D
:10060300FBEF24DFF582EE3401F583E493C39BFD16
:100613003395E0FC78039002FDE0FEA3E0CEA2E771
:1006230013CE13D8F8FF124F0EEEFD3395E0FCEB1B
:1006330025E0FFE433FEED2FFFEC3E9002FDF0A337
:10064300EFF0900298E0FEA3E0FFD39400EE648005
:1006530094804002800F900298E0FEA3E0FFC3E481
:100663009FFFE49EFE9002FDE0FCA3E0FDD39FEE1E
:100673006480F8EC648098500A900298ECF0A3ED43
:10068300F0806B900111E0FEA3E024DDF582EE34EF
:1006930001F583E4932401FDE433FC900298E0FE2A
:1006A300A3E0FFC39002FEE09FFF9002FDE09EFEE9
:1006B300124F75EEF0A3EFF04E7010900299E00424
:1006C300F0701C900298E004F080149002FDE0FEAC
:1006D300A3E0FF900299E02FF0900298E03EF090A3
:1006E3000298E0FFA3E09002FDCFF0A3EFF09002A9
:1006F300FDE0FEA3E0FFC374649FFFE49EFE90024F
:1007030092F0A3EFF0D39400EE64809480500890AD
:100713000292E4F0A304F09002F9E0FEA3E0FFA349
:10072300E0FCA3E0FDD39FEE6480F8EC6480984086
:1007330026E49FFFE49EFED3ED9FEE6480F8EC6415
:100743008098900111E0FE4007A3E024D7020AB489
:10075300A3E024D9020AB49002F9E0FEA3E0FFC3A8
:10076300E49FFFE49EFED39002FCE09FEE6480F8DA
:100773009002FBE0648098900111E0FE4006A3E044
:1007830024DA8004A3E024D8020AB4900292E07031
:1007930002A3E0600F900293E024FFF0900292E046
:1007A30034FFF022900111E0FEA3E0FF24DEF58286
:1007B300EE3401F583E4937017EF24DFF582EE3412
:1007C30001F583E4937009900292F0A3F00208FD0F
:1007D300900111E0FEA3E0FF24DEF582EE3401F583
:1007E30083E493FBEF24DFF582EE3401F583E49396
:1007F300C39BFD3395E0FC78039002FDE0FEA3E08C
:10080300CEA2E713CE13D8F8FF124F0EEEFD3395A9
:10081300E0FCEB25E0FFE433FEED2FFFEC3E90021E
:10082300FDF0A3EFF0900298E0FEA3E0FFD3940065
:10083300EE648094804002800F900298E0FEA3E073
:10084300FFC3E49FFFE49EFE9002FDE0FCA3E0FDF6
:10085300D39FEE6480F8EC648098500A900298EC81
:10086300F0A3EDF0806B900111E0FEA3E024DDF531
:1008730082EE3401F583E4932401FDE433FC90021A
:1008830098E0FEA3E0FFC39002FEE09FFF9002FD0D
:10089300E09EFE124F75EEF0A3EFF04E7010900243
:1008A30099E004F0701C900298E004F08014900228
:1008B300FDE0FEA3E0FF900299E02FF0900298E0A4
:1008C3003EF0900298E0FFA3E09002FDCFF0A3EF8B
:1008D300F09002FDE0FEA3E0FFC374649FFFE49E7B
:1008E300FE900292F0A3EFF0D39400EE6480948024
:1008F3005008900292E4F0A304F09002F9E0FEA302
:10090300E0FF7C007D03124F0ECAEECACBEFCBA3F0
:10091300E0FEA3E0FF7D07124F0ED3EF9BEA648056
:10092300F8EE648098403C9002F9E0FEA3E0FFE417
:100933009FFFE49EFE7D03124F0ECAEECACBEFCBA0
:10094300A3E0FEA3E0FF7D07124F0ED3EF9BEA6403
:1009530080F8EE648098400B900111E0FEA3E02440
:10096300D780689002F9E0FEA3E0FF7C007D0312CC
:100973004F0ECAEECACBEFCBA3E0FEA3E0FF7D0789
:10098300124F0EC3EF9BEA6480F8EE648098504ADE
:100993009002F9E0FEA3E0FFC3E49FFFE49EFE7D27
:1009A30003124F0ECAEECACBEFCBA3E0FEA3E0FFC8
:1009B3007D07124F0EC3EF9BEA6480F8EE648098C4
:1009C3005018900111E0FEA3E024D8F582EE340123
:1009D300F583E493FD7FFF1271389002F9E0FEA3E3
:1009E300E0FF7C007D07124F0ECAEECACBEFCBA30C
:1009F300E0FEA3E0FF7D03124F0ED3EF9BEA64807A
:100A0300F8EE648098403C9002F9E0FEA3E0FFE436
:100A13009FFFE49EFE7D07124F0ECAEECACBEFCBBB
:100A2300A3E0FEA3E0FF7D03124F0EC3EF9BEA6436
:100A330080F8EE648098500B900111E0FEA3E0244F
:100A4300D9806E9002F9E0FEA3E0FF7C007D0712DF
:100A53004F0ECAEECACBEFCBA3E0FEA3E0FF7D03AC
:100A6300124F0EC3EF9BEA6480F8EE648098400354
:100A73000215019002F9E0FEA3E0FFC3E49FFFE447
:100A83009EFE7D07124F0ECAEECACBEFCBA3E0FE4C
:100A9300A3E0FF7D03124F0ED3EF9BEA6480F8EED1
:100AA3006480985003021501900111E0FEA3E02435
:100AB300DAF582EE3401F583E493FD7FFF027138AA
:100AC300900111E0FEA3E024DFF582EE3401F5830B
:100AD300E493FB3395E0FA78039002F9E0FEA3E098
:100AE300CEA2E713CE13D8F8FFCDEBCDCCEACC12D0
:100AF3004F0E7804EFCEA2E713CE13D8F8FF90027F
:100B0300F9EEF0A3EFF07803A3E0FEA3E0CEA2E7B3
:100B130013CE13D8F8FFCDEBCDCCEACC124F0E7821
:100B230004EFCEA2E713CE13D8F8FF9002FBEEF04A
:100B3300A3EFF0900298E0FEA3E0FFD39400EE64ED
:100B43008094804002800F900298E0FEA3E0FFC3F0
:100B5300E49FFFE49EFE9002F9E0FCA3E0FDD39442
:100B630000EC648094804002800F9002F9E0FCA3C3
:100B7300E0FDC3E49DFDE49CFCD3ED9FEE6480F8AF
:100B8300EC6480985002802E900298E0FEA3E0FF70
:100B9300D39400EE648094804002800F900298E02A
:100BA300FEA3E0FFC3E49FFFE49EFED3EF9420EE99
:100BB3006480948340129002F9E0FFA3E0900298CE
:100BC300CFF0A3EFF0020CE7900298E0FEA3E0FF62
:100BD300D39400EE6480948040028007C3E49FFFB7
:100BE300E49EFECCEECCCDEFCD900111E0FAA3E074
:100BF300FB24DEF582EA3401F583E49375F00AA45D
:100C0300FFD3ED9FE5F06480F8EC648098405DEBE2
:100C130024DDF582EA3401F583E4932401FDE43312
:100C2300FC900298E0FEA3E0FF9002F9E0FAA3E053
:100C3300FBC39FFFEA9EFE124F759002FDEEF0A3E9
:100C4300EFF04E6003020CD3C3EA64809480500734
:100C53007EFF7FFF020CDBD3EB9400EA6480948079
:100C63007E0040047F0180027F00806C900111E0D0
:100C7300FEA3E024DDF582EE3401F583E49375F001
:100C83000AA42401FDE435F0FC900298E0FEA3E001
:100C9300FF9002F9E0FAA3E0FBC39FFFEA9EFE1276
:100CA3004F759002FDEEF0A3EFF04E7023C3EA649C
:100CB30080948050067EFF7FFF8013D3EB9400EA7D
:100CC300648094807E0040047F0180027F0080085E
:100CD3009002FDE0FEA3E0FF900299E02FF0900266
:100CE30098E03EF090029AE0FEA3E0FFD39400EE7A
:100CF300648094804002800F90029AE0FEA3E0FF9C
:100D0300C3E49FFFE49EFE9002FBE0FCA3E0FDD35F
:100D13009400EC648094804002800F9002FBE0FC1E
:100D2300A3E0FDC3E49DFDE49CFCD3ED9FEE648052
:100D3300F8EC6480985002802E90029AE0FEA3E0C3
:100D4300FFD39400EE648094804002800F90029A57
:100D5300E0FEA3E0FFC3E49FFFE49EFED3EF9420F5
:100D6300EE6480948340129002FBE0FFA3E09002C4
:100D73009ACFF0A3EFF0020E9390029AE0FEA3E065
:100D8300FFD39400EE6480948040028007C3E49F05
:100D9300FFE49EFECCEECCCDEFCD900111E0FAA3A3
:100DA300E0FB24DEF582EA3401F583E49375F00A6F
:100DB300A4FFD3ED9FE5F06480F8EC648098405A7B
:100DC300EB24DDF582EA3401F583E4932401FDE4A9
:100DD30033FC90029AE0FEA3E0FF9002FBE0FAA34B
:100DE300E0FBC39FFFEA9EFE124F75A3EEF0A3EF55
:100DF300F04E6003020E7FC3EA6480948050067E47
:100E0300FF7FFF807FD3EB9400EA648094807E00B1
:100E130040047F0180027F00806A900111E0FEA3FD
:100E2300E024DDF582EE3401F583E49375F00AA442
:100E33002401FDE435F0FC90029AE0FEA3E0FF906C
:100E430002FBE0FAA3E0FBC39FFFEA9EFE124F758D
:100E5300A3EEF0A3EFF04E7023C3EA6480948050B6
:100E6300067EFF7FFF8013D3EB9400EA64809480B7
:100E73007E0040047F0180027F0080089002FDE035
:100E8300FEA3E0FF90029BE02FF090029AE03EF079
:100E9300900298E0FEA3E0FF900295E02FF090020D
:100EA30094E03EF090029AE0FEA3E0FF900297E008
:100EB3002FF0900296E03EF0900294E0FEA3E0FF54
:100EC300D39440EE64809460400280047EE07F40CF
:100ED300C3EF94C0EE6480949F5019900294E0FE97
:100EE300A3E0FF9440EE648094604002800A7EE0B9
:100EF3007F4080047E1F7FC0900294EEF0A3EFF04A
:100F0300A3E0FEA3E0FFD39440EE6480946040022C
:100F130080047EE07F40C3EF94C0EE6480949F50D2
:100F230019900296E0FEA3E0FF9440EE6480946083
:100F33004002800A7EE07F4080047E1F7FC09002D3
:100F430096EEF0A3EFF0900294E0FCA3E0FD7806A8
:100F5300CEECCECEA2E713CE13D8F8900316F078DA
:100F630006900296E0FEA3E0CEA2E713CE13D8F8D4
:100F7300F404F9900317F0900316E0FF3395E0FEB5
:100F83007806EFC333CE33CED8F9FFC3ED9FFFEC22
:100F93009E900294F0A3EFF0E9FF3395E0FE78060C
:100FA300EFC333CE33CED8F9FF900297E02FF09002
:100FB3000296E03EF022900294E0FEA3E0FF90024E
:100FC300F9E0FCA3E0FDC39FFFEC9EFE7802EFCEA9
:100FD300A2E713CE13D8F8FF9002FDEEF0A3EFF0D3
:100FE3004E7023C3EC6480948050067EFF7FFF80A5
:100FF3001DD3ED9400EC648094807E0040047F0157
:1010030080027F0080089002FDE0FEA3E0FF9002D3
:1010130095E02FF0900294E03EF0900296E0FEA35C
:10102300E0FF9002FBE0FCA3E0FDC39FFFEC9EFE0C
:101033007802EFCEA2E713CE13D8F8FF9002FDEEAD
:10104300F0A3EFF04E7023C3EC6480948050067ECF
:10105300FF7FFF801DD3ED9400EC648094807E00BD
:1010630040047F0180027F0080089002FDE0FEA320
:10107300E0FF900297E02FF0900296E03EF090029E
:10108300F9E0FAA3E0FBD39400EA64809480900132
:1010930011E0FE4006A3E024DA8004A3E024D9F59E
:1010A30082EE3401F583E493FF900298E4F0A3EF1A
:1010B300F0D3ED9400EC64809480900111E0FE4045
:1010C30006A3E024D78004A3E024D8F582EE3401FC
:1010D300F583E493FF90029AE4F0A3EFF090029873
:1010E300E0FEA3E0FFC3941EEE648094804017D318
:1010F300EF9427EE64809480500CEF25E0FFEE33ED
:10110300FEEF24C68027900298E0FEA3E0FFC3947D
:1011130059EE648094804022D3EF9462EE6480940D
:10112300805017EF25E0FFEE33FEEF244FFFEE3440
:10113300FF900298F0A3EFF08007E4900298F0A3E9
:10114300F090029AE0FEA3E0FFC3941EEE64809445
:10115300804017D3EF9427EE64809480500CEF25E2
:10116300E0FFEE33FEEF24C6802790029AE0FEA351
:10117300E0FFC39459EE648094804022D3EF9462DD
:10118300EE648094805017EF25E0FFEE33FEEF24EA
:101193004FFFEE34FF90029AF0A3EFF08007E49044
:1011A300029AF0A3F0D3EB9401EA64809470400AAE
:1011B3009002F9E0FEA3E0FF80047EF07F01C3EF1D
:1011C30094FFEE6480948F50199002F9E0FEA3E03F
:1011D300FF9401EE648094704002800A7EF07F01E8
:1011E30080047E0F7FFF9002F9EEF0A3EFF0D3EDC2
:1011F3009401EC648094704008A3E0FEA3E0FF80B8
:10120300047EF07F01C3EF94FFEE6480948F501946
:101213009002FBE0FEA3E0FF9401EE648094704033
:1012230002800A7EF07F0180047E0F7FFF9002FB25
:10123300EEF0A3EFF0900298E0FEA3E0FFCBEFCB3C
:10124300CAEECAEA3395E0F9F8900294E0FEA3E00F
:10125300FFEE3395E0FDFC124FE0C8ECC8C9EDC9C1
:10126300CAEECACBEFCB900111E0FEA3E024DFF579
:1012730082EE3401F583E493FFE4FCFDFE124FE0BC
:10128300E47B7DFAF9F8127BCB900298EEF0A3EFA2
:10129300F0A3E0FEA3E0FFEE3395E0FDFC1250FD6A
:1012A300C8ECC8C9EDC9CAEECACBEFCB900296E031
:1012B300FEA3E0FFEE3395E0FDFC124FE0C8ECC85F
:1012C300C9EDC9CAEECACBEFCB900111E0FEA3E092
:1012D30024DFF582EE3401F583E493FFE4FCFDFEA5
:1012E300124FE0E47B7DFAF9F8127BCB90029AEE81
:1012F300F0A3EFF0900111E0FEA3E024DDF582EE10
:101303003401F583E493FFE4FCFDFE7BFF7A7FF970
:10131300F8124FE0E47B32FAF9F8127BCB9002F932
:10132300EEF0A3EFF0900111E0FEA3E024DEF582DE
:10133300EE3401F583E493FFE4FCFDFE7BFF7A7F4B
:10134300F9F8124FE0E47B32FAF9F8127BCB900202
:10135300FBEEF0A3EFF0D3900299E0940090029893
:10136300E06480948040479002F9E0FEA3E0FFCB65
:10137300EFCBCAEECAEA3395E0F9F8900298E0FEA3
:10138300A3E0FFEE3395E0FDFCEB2FFFEA3EFEE921
:101393003DFDE83CFCE47BFF7A7FF9F8C312510B77
:1013A300500C9002F9747FF0A374FFF08055C39042
:1013B3000298E06480948050369002F9E0FEA3E046
:1013C300FFCBEFCBCAEECAEA3395E0F9F890029867
:1013D300E0FEA3E0FFEE3395E0FDFCEB2FEA3EE9F0
:1013E3003DE83C335009E49002F9F0A3F0801490F7
:1013F3000298E0FEA3E0FF9002FAE02FF09002F9DA
:10140300E03EF0D390029BE0940090029AE0648067
:10141300948040479002FBE0FEA3E0FFCBEFCBCAF2
:10142300EECAEA3395E0F9F890029AE0FEA3E0FFF2
:10143300EE3395E0FDFCEB2FFFEA3EFEE93DFDE8D0
:101443003CFCE47BFF7A7FF9F8C312510B500C90FC
:1014530002FB747FF0A374FFF08056C390029AE0FE
:101463006480948050379002FBE0FEA3E0FFCBEF53
:10147300CBCAEECAEA3395E0F9F890029AE0FEA3EC
:10148300E0FFEE3395E0FDFCEB2FFFEA3EE93DE89C
:101493003C335009E49002FBF0A3F0801490029ACD
:1014A300E0FEA3E0FF9002FCE02FF09002FBE03EA1
:1014B300F09002F9E0FCA3E0FDCFEDCF90031CF028
:1014C300ECFFEFA3F09002FBE0FCA3E0FDCFEDCF38
:1014D30090031EF0ECFFEFA3F090031B7411F09048
:1014E3000292E07002A3E07F0070027F017E009011
:1014F3000292EEF0A3EFF025E014900316F022E43D
:101503009002F9F0A374FFF0E4F512F513EF604ACB
:101513009001F8E0FCA3E0FDA3E0FEA3E0FF90024E
:10152300101251589001F8E0FCA3E0FDA3E0FEA3E4
:10153300E02401FFE43EFEED34FFFDEC34FFFC90BC
:1015430002141251587E007F107D007B017A0279CC
:10155300721251F4E490021AF022900271E0FF54E7
:1015630070600DEF20E703022662547FF0022486A9
:101573009001F8A3A3A3E0FF90021BE0FEC3EF9E3C
:10158300C394145003022662E02414F0900282E014
:10159300FEA3E0F5828E8374F593700374F4936075
:1015A3002EE4F51074402510F582E43401F583E050
:1015B30060169001F8E0FCA3E0FDA3E0FEA3E0FFCA
:1015C30090021412515880070510E510B410D590FD
:1015D300021AE0540FFFBF021D7403F09001F8E0FC
:1015E300FCA3E0FDA3E0FEA3E0FF9002101251581C
:1015F30090021C74FFF090021AE0540F640360031E
:1016030002172D900218E0FEA3E0FFCBEFCBCAEE4A
:10161300CA900282E0FEA3E0F5828E8374F893FE03
:1016230074F993FFEF2BFFEE3AFEE433FDE433C08E
:10163300E0EDC0E0EEC0E0EFC0E0900210E0F8A300
:10164300E0F9A3E0FAA3E0FB9001F8E0FCA3E0FDDE
:10165300A3E0FEA3E0C39BFBEE9AFAED99F9EC98A5
:10166300F8D0E0FFD0E0FED0E0FDD0E0FCD3125193
:1016730021500302172D900282E0FEA3E0F5828E33
:101683008374F493FE74F593FF4E604C7C007D0AE3
:101693001251C7ECC0E0EDC0E0EEC0E0EFC0E09057
:1016A3000214E0F8A3E0F9A3E0FAA3E0FB9001F849
:1016B300E0FCA3E0FDA3E0FEA3E0C39BFBEE9AFAEC
:1016C300ED99F9EC98F8D0E0FFD0E0FED0E0FDD042
:1016D300E0FCD31251214052900282E0FEA3E0F5D8
:1016E300828E8374FB93700374FA93602E127A5E76
:1016F300CCEECCCDEFCDAF8AEF6CFEEDFF90028246
:10170300E0FCA3E0F5828C8374FA93FC74FB93FDF5
:10171300124F20CEECCECFEDCF80047E007F009021
:101723000218EEF0A3EFF0E4A3F090021AE0540FD6
:10173300600302190C04F09001F8E0FCA3E0FDA3A0
:10174300E0FEA3E0FF900210125158E490021CF057
:10175300900282E0FEA3E0F5828E8374F193FF7022
:10176300030218E8EFD39404501B900282E0FEA317
:10177300E0F5828E8374F1931475F008A4FD74F080
:10178300932D021900900282E0FEA3E0F5828E837E
:1017930074F193B40503021906E4F511F5109002F0
:1017A30082E0FEA3E0FFF5828E8374EB932401FDB8
:1017B300E433FCC3E5109DEC6480F87480985035E5
:1017C300E510C39409502EE58224E0F582E43583C5
:1017D300F583E5822510F582E43583F583E493FFF1
:1017E300600DD39404500874082511F51180020587
:1017F30011051080A9900282E0FEA3E0F5828E839A
:1018030074F193B4060F90021EE004F0C3951140E7
:101813002AE4F08026127A5EAD8AEF6DFFAD117C6B
:1018230000124F758D1090021EE065107007E511D0
:10183300D3940150E090021EE510F0E4F511F51089
:10184300900282E0FEA3E0FFF5828E8374EB932483
:1018530001FDE433FCD3E5109DEC6480F8748098BB
:10186300507FE5109409507990021EE0F9E5119933
:10187300403DE51024DFFDE433FCEF2DF582EE3C23
:10188300F583E493600DD394045008E92408C395C9
:1018930011F511E51024DFFFE433FE900282E0FC32
:1018A300A3E02FF582EC3EF583E493F510803290AC
:1018B3000282E0FCA3E024E0F582E43CF583E582C8
:1018C3002510F582E43583F583E493600DD3940406
:1018D300500874082511F51180020511051002182E
:1018E30043E510700890021F74C8F0801CE510D304
:1018F3009404500FE5101475F008A4251190021FED
:10190300F0800690021F7464F090021AE0540F6492
:101913000170599001F8A3A3E0FEA3E0FFCBEFCB46
:10192300CAEECA900210A3A3E0FEA3E0FFC3EB9F9D
:10193300FFEA9EFE900282E0FCA3E0F5828C83C363
:1019430074F7939F74F6939E502290021FE064C82D
:10195300601A9001F8E0FCA3E0FDA3E0FEA3E0FF22
:1019630090021012515890021CE004F090021FE004
:10197300FFC39420500FEF75F010A4248AF97482EA
:1019830035F0FA801B90021FE0B4643B900283E0C1
:101993002490FF900282E03400FECAEECAC9EFC968
:1019A3007BFFEBC0E0EAC0E0E9C0E0C87421C8CC2B
:1019B3007402CCCD7401CDD0E0F9D0E0FAD0E0FBD5
:1019C3007E007F10124E87900282E0FEA3E0FFCAE2
:1019D300EECAC9EFC97BFFEBC0E0EAC0E0E9C0E0B3
:1019E300C87431C8CC7402CCCD7401CDD0E0F9D029
:1019F300E0FAD0E0FB7E007F30124E87E4F51090D2
:101A03000282E0FEA3E0F5828E8374F393700302F7
:101A13001B5A74F29320E003021B5AE51075F0037E
:101A2300A42431F582E43402F583E0FFE51075F078
:101A330003A42432F582E43402F583E0FDE5107556
:101A4300F003A42433F582E43402F583E0C0E0908C
:101A530003077401F0A37402F0A374FBF0A37401F1
:101A6300F0A37402F0A374FDF0A37401F0A3740255
:101A7300F0A374FFF0D0E0FB126158900282E0FE05
:101A8300A3E0F5828E8374F393FFCBEFCBE4FAF9F3
:101A9300F89001F8E0FCA3E0FDA3E0FEA3E0FF1251
:101AA300506BE47BEA7A03F9F812506BCCE8CCCDA7
:101AB300E9CDCEEACECFEBCF9002FCE02FF090023F
:101AC300FBE03EF0C3A3E094EA9002FBE094034002
:101AD3000CA3E02416F09002FBE034FCF0E5107553
:101AE300F003A4FFAEF02431F974023EFA7B01EB5C
:101AF300C0E0EAC0E0E9C0E074322FF974023EFAB4
:101B0300EBC0E0EAC0E0E9C0E074332FF974023EB1
:101B1300FA900310EBF0A3EAF0A3E9F0D0E0F9D0D8
:101B2300E0FAD0E090030DF0A3EAF0A3E9F0D0E0EF
:101B3300F9D0E0FAD0E090030AF0A3EAF0A3E9F0C9
:101B43009002FBE0FEA3E0FFA3E0FCA3E0FDA3E023
:101B5300FAA3E0FB12654190021FE064C860030230
:101B63001DD3900282E0FEA3E0F5828E8374F79387
:101B7300700374F6937003021DD39001F8A3A3E0DE
:101B8300FEA3E0FFCBEFCBCAEECA900210A3A3E003
:101B9300FEA3E0FFC3EB9FFBEA9EFA900282E0FE06
:101BA300A3E0F5828E8374F693FE74F793FFD394C8
:101BB300E8EE9403400280047E037FE87C037DE823
:101BC300124F20CDEFCDCCEECCCFEBCFCEEACE1261
:101BD3004F207C037DEA124F209002FFECF0A3ED2F
:101BE300F09002FFE0FEA3E0FFC394F5EE94014002
:101BF3002D74E99FF074039E9002FFF0900282E03F
:101C0300FEA3E0F5828E8374FD9375F00384AFF039
:101C13007512008F1390021AE04480F0802F900217
:101C230082E0FEA3E0F5828E8374FC9375F0038457
:101C3300AFF07512008F1390021AE0B4810FE51014
:101C4300B40F037402F0E49002FFF0A3F090021AC1
:101C5300E0540F64016007E49002FFF0A3F0E51382
:101C63004512705DF51175F003E510A42511F58299
:101C7300E435F0F583E5822431F582E5833402F51A
:101C830083E0FF7E009002FFE0FCA3E0FD1251C75A
:101C9300E47BF47A01F9F812506B75F003E510A4B4
:101CA3002511F582E435F0F583E5822431F582E5EB
:101CB300833402F583EFF00511E511B403A8021D87
:101CC300CAE513640145126003021D579002FFE049
:101CD300FEA3E0FF7C007DFF1251C7E47BF47A0191
:101CE300F9F812506B740A2FF58274813EF583E480
:101CF30093FF9002FFE4F0A3EFF0E4F51175F00316
:101D0300E510A42511F582E435F0F583E58224314D
:101D1300F582E5833402F583E0FF7E009002FFE065
:101D2300FCA3E0FD124F0E7C007DFF124F2075F0E7
:101D330003E510A42511F582E435F0F583E582244B
:101D430031F582E5833402F583EFF00511E511B433
:101D530003AB80739002FFE0FEA3E02415F58274C9
:101D63007F3EF583E493FF9002FFE4F0A3EFF0E4FA
:101D7300F51175F003E510A42511F582E435F0F5AE
:101D830083E5822431F582E5833402F583E0FF7E27
:101D9300009002FFE0FCA3E0FD124F0E7C007DFFEC
:101DA300124F2075F003E510A42511F582E435F0F8
:101DB300F583E5822431F582E5833402F583EFF080
:101DC3000511E511B403AB9002F97401F0021F840D
:101DD30090021FE064C87003021F8474212510F56C
:101DE30082E43402F583E0FF90021CE0FEEF6E60B4
:101DF30003021EDE9002F904F0900282E0FEA3E0EB
:101E0300F5828E8374FC93FFC3741F9FF513E494D0
:101E130000F512D3E513940AE5126480948040150B
:101E2300AE12AF137C007D0A124F0EEF24A6F513FA
:101E3300EE34FFF51274722510F582E43402F58353
:101E4300E0FFC374FF9FFFE49400FED3EF9513E517
:101E5300126480F8EE6480987472400F2510F58246
:101E6300E43402F583E02513F0800C2510F582E4B9
:101E73003402F58374FFF0E4F51175F003E510A463
:101E83002511F582E435F0F583E5822431F582E509
:101E9300833402F583E0FF7E0074722510F582E43B
:101EA3003402F583E090810A93FD7C00124F0E7D8E
:101EB300FF124F2075F003E510A42511F582E435D8
:101EC300F0F583E5822431F582E5833402F583EF6F
:101ED300F00511E511B403A2021F84900282E0FE13
:101EE300A3E0F5828E8374FD932401FDE433FC7437
:101EF300722510F582E43402F583E0FBFF7E0012C5
:101F03004F758E128F13EB600BE51345127005F5B9
:101F13001275130174722510F582E43402F583E01F
:101F2300C39513F0E4F51175F003E510A42511F53D
:101F330082E435F0F583E5822431F582E5833402CA
:101F4300F583E0FF7E0074722510F582E43402F518
:101F530083E0FD7C00124F0E7DFF124F2075F003CE
:101F6300E510A42511F582E435F0F583E5822431EB
:101F7300F582E5833402F583EFF00511E511B4032F
:101F8300A674402510F582E43401F583E06079906E
:101F93000282E0FCA3E02510F582E43CF583746043
:101FA300932401FDE433FC74612510F582E43402CB
:101FB300F583E0FBFFC374FF9FFFE49400FE124F21
:101FC300758E128F13C374FF9B600BE5134512705C
:101FD30005F51275130174612510F582E43402F5D9
:101FE30083E02513F0900282E0FCA3E02510F58244
:101FF300E43CF583748093FF9002FAE0D39F50038F
:102003000220AFEFF00220AF900282E0FCA3E025B4
:1020130010F582E43CF5837470932401FDE433FCF2
:1020230074612510F582E43402F583E0FBFF7E0042
:10203300124F758E128F13EB600BE513451270056B
:10204300F51275130174612510F582E43402F583EA
:10205300E0C39513F0E4F51175F003E510A4251121
:10206300F582E435F0F583E5822431F582E58334A6
:1020730002F583E0FF90021DE0FEEF8EF0A4FFAEB9
:10208300F07C007DFF124F2075F003E510A42511AD
:10209300F582E435F0F583E5822431F582E5833476
:1020A30002F583EFF00511E511B403AC900282E071
:1020B300FEA3E0F5828E8374F393700302226D74A2
:1020C300F29320E10302226D900282E0FCA3E0FD83
:1020D300F5828C8375F003E510125195743093FFEC
:1020E3008D828C8375F003E510125195743193FD45
:1020F300900282E0FAA3E0F5828A8375F003E5108B
:10210300125195743293C0E09003077401F0A374E5
:1021130002F0A374FBF0A37401F0A37402F0A374A0
:10212300FDF0A37401F0A37402F0A374FFF0D0E0F8
:10213300FB126158900282E0FEA3E0F5828E837465
:10214300F393FFCBEFCBE4FAF9F89001F8E0FCA3AB
:10215300E0FDA3E0FEA3E0FF12506BE47BEA7A0309
:10216300F9F812506BCCE8CCCDE9CDCEEACECFEB6B
:10217300CF9002FCE02FF09002FBE03EF0C3A3E01F
:1021830094EA9002FBE09403400CA3E02416F09041
:1021930002FBE034FCF09002FBE0FEA3E0FFA3E0CF
:1021A300FCA3E0FD90030A7401F0A37403F0A3748D
:1021B30001F0A37401F0A37403F0A37402F0A374F9
:1021C30001F0A37403F0A37403F09002FFE0FAA3F9
:1021D300E0FB126541900301E0FFE51075F003A4F5
:1021E3002431F582E43402F583E0FDC3EF9DFFE47F
:1021F3009400FE74612510F582E43402F583E0FD5A
:102203007C00124F0E7DFF124F75E51075F003A48D
:102213002431F582E43402F583E02FF0900302E0E9
:10222300FFE51075F003A42432F582E43402F5834C
:10223300E0FDC3EF9DFFE49400FE74612510F58279
:10224300E43402F583E0FD7C00124F0E7DFF124F54
:1022530075E51075F003A42432F582E43402F583A6
:10226300E02FF0900303E002232F900282E0FAA311
:10227300E0FBF5828A8375F003E510125195743003
:1022830093FFE51075F003A42431F582E43402F5DD
:1022930083E0FDC3EF9DFFE49400FE74612510F518
:1022A30082E43402F583E0FD7C00124F0E7DFF12C1
:1022B3004F75E51075F003A42431F582E43402F57B
:1022C30083E02FF08B828A8375F003E5101251951A
:1022D300743193FFE51075F003A42432F582E434DE
:1022E30002F583E0FDC3EF9DFFE49400FE746125D6
:1022F30010F582E43402F583E0FD7C00124F0E7D7D
:10230300FF124F75E51075F003A42432F582E4340F
:1023130002F583E02FF0900282E0FEA3E0F5828EC7
:102323008375F003E510125195743293FFE5107530
:10233300F003A42433F582E43402F583E0FDC3EF14
:102343009DFFE49400FE74612510F582E43402F5E8
:1023530083E0FD7C00124F0E7DFF124F75E5107573
:10236300F003A42433F582E43402F583E02FF0056F
:1023730010E510C394105003021A029002F9E070A2
:102383000A90021AE0540F64016037900282E0FE63
:10239300A3E0F5828E8374F593700374F49360283D
:1023A3009001F8E0FCA3E0FDA3E0FEA3E0FF9002B0
:1023B30014E0F8A3E0F9A3E0FAA3E0FBC312512170
:1023C300700690021A7402F090021DE0FB9002FA6C
:1023D300E0FAD39B4067900282E0FEA3E0F5828E91
:1023E3008374FE93FF741F9FF513E49400F512D3D7
:1023F300E513940AE512648094804015AE12AF137E
:102403007C007D0A124F0EEF24A6F513EE34FFF580
:1024130012EBFFEAC39FFFE49400FED3EF9513E5AD
:10242300126480F8EE648098400990021DE0251341
:10243300F080509002FAE090021DF0804690021D59
:10244300E0FF9002FAE0FEC39F5038EEFDC3EF9D1C
:10245300FFE49400FE900282E0FCA3E0F5828C830B
:1024630074FF932401FDE433FC124F758E128F1316
:10247300E51345127005F51275130190021DE0C3B3
:102483009513F0900111E0FEA3E024FEF582EE34F3
:1024930001F583E493FF705EF510E51075F003A476
:1024A3002431F582E43402F583E0FEE51075F00390
:1024B300A4242BF8EEF6E51075F003A42432F5827C
:1024C300E43402F583E0FEE51075F003A4242AF852
:1024D300EEF6E51075F003A42433F582E43402F537
:1024E30083E0FEE51075F003A4242CF8EEF6051046
:1024F300E510B410A522EF6403706AF510E510909F
:1025030086D19375F003A42431F582E43402F58374
:10251300E0FFE51075F003A4242BF8EFF6E5109027
:1025230086D19375F003A42432F582E43402F58353
:10253300E0FFE51075F003A4242AF8EFF6E5109008
:1025430086D19375F003A42433F582E43402F58332
:10255300E0FFE51075F003A4242CF8EFF60510E571
:1025630010B4109922900111E0FEA3E024FEF5823D
:10257300EE3401F583E493FF64027075F510C374C0
:1025830010951075F003A42431F582E43402F58329
:10259300E0FEE51075F003A4242BF8EEF6E510FD3C
:1025A300C374109DFDE49400FC90023275F003EDBA
:1025B300125195EC75F003A42583F583E0FEE51035
:1025C30075F003A4242AF8EEF690023375F003EDB8
:1025D300125195EC75F003A42583F583E0FEE51015
:1025E30075F003A4242CF8EEF60510E510B4108E54
:1025F30022EF64017069F510E5109086C19375F0C0
:1026030003A42431F582E43402F583E0FFE5107579
:10261300F003A4242BF8EFF6E5109086C19375F030
:1026230003A42432F582E43402F583E0FFE5107558
:10263300F003A4242AF8EFF6E5109086C19375F011
:1026430003A42433F582E43402F583E0FFE5107537
:10265300F003A4242CF8EFF60510E510B41099222A
:10266300E49002E5F0A3F0A3F0A3F0900323F0902D
:10267300033EF090033CF090033BF0900313F0C84B
:1026830074C1C8CC7402CCCD7401CD7B017A0379BB
:1026930026FE7F15124E877E007F157D007B017A13
:1026A3000379261251F4900315E09002B8F07E00EE
:1026B3007F047D007B017A0379151251F490031A8C
:1026C3007410F07E007F047DFF7B017A03791C1276
:1026D30051F4900322E09002BCF0E4900322F090C6
:1026E3000340E054019002B3F0E4900341F09003FF
:1026F30040F0900000E0C43354E02411F582E43448
:1027030000F583E0FEA3E04E70037FFF229002B04A
:10271300E0604824D1F582E43401F583E06022903F
:1027230002B0E0243FF582E43401F583E0701290B7
:1027330002D7E054036003E014F09002D7E04404AE
:10274300F09002D6E07F0070027F019002D6EFF096
:1027530070030233B11242B90233B1E49002E8F0DC
:102763009002E8E0FFC39410400302281F74402F37
:10277300F582E43401F583E070030228169000002B
:10278300E0C43354E02411F582E43400F583C083BC
:10279300C0829002E8E0D082D08375F00212519596
:1027A300E0FCA3E0F5828C83740193FEB4010E90E8
:1027B30002BFE0FDEF6D60059002E58053EEB402C9
:1027C300119002BFE0FF9002E8E06F60059002E61F
:1027D300803E900000E0C43354E02411F582E434D9
:1027E30000F583C083C0829002E8E0FFD082D083EB
:1027F30075F002125195E0FCA3E0F5828C8374011D
:1028030093B4070F9002BFE0FEEF6E60069002E7FD
:10281300E004F09002E8E004F0022763E49002E8A9
:10282300F09002E8E0FFC394104003022F8E900261
:10283300BFE0FEEF6E70569002E8E02440F582E4BC
:102843003401F583E06003022F8574D22FF582E40F
:102853003401F583E06003022F859002B4E004F0B5
:10286300E0D3940A5003022F85E4F09002E8E024B9
:1028730003FF9002BAE0FD1271389002B7E0FF7DCA
:10288300021274A29002BF74FFF0022F859002E837
:10289300E0FF2440F582E43401F583E07003022D68
:1028A300B8900000E0C43354E02411F582E434000E
:1028B300F58375F002EF125195E0FEA3E0FFF58278
:1028C3008E83740193B40106127127022F85900041
:1028D30000E0C43354E02411F582E43400F583C0EE
:1028E30083C0829002E8E0D082D08375F002125157
:1028F30095E0FEA3E0FFF5828E837401936402707A
:1029030040127127900326E0FF900000E0C4335487
:10291300E02411F582E43400F583C083C082900281
:10292300E8E0D082D08375F002125195E0FCA3E079
:10293300F5828C83740393FEEF4E900326F0022FEF
:1029430085900000E0C43354E02411F582E43400A0
:10295300F583C083C0829002E8E0FFD082D0837504
:10296300F002125195E0FCA3E0FDF5828C83740123
:1029730093640370559002E5E06003022F85A3E0A2
:102983006003022F85A3E06003022F8574D22FF525
:1029930082E43401F583E06003022F859002E8E0CE
:1029A300049002B0F0ED2403FEE43C9002B5F0A3E2
:1029B300CEF0E49002AEF0A3F09002D77402F09050
:1029C30002D614F01242B9022F85900000E0C433FE
:1029D30054E02411F582E43400F583C083C082906F
:1029E30002E8E0D082D08375F002125195E0FEA395
:1029F300E0F5828E83740193FF64046008EF64053D
:102A03006003022B959002E8E0FF24D2F582E434C0
:102A130001F583E0700D74012FF582E43400F58332
:102A23007402F0900000E0C43354E02411F582E412
:102A33003400F583C083C0829002E8E0D082D08363
:102A430075F002125195E0FEA3E02402FFE43E8FED
:102A530082F583E493FE740193FFE4FCFDFB7A802B
:102A6300F9F8124FE0ECC0E0EDC0E0EEC0E0EFC0DB
:102A7300E0900111E0FEA3E024FAF582EE3401F5C3
:102A830083E493FE740193FFCBEFCBCAEECAE4F960
:102A9300F8D0E0FFD0E0FED0E0FDD0E0FC127BCB2D
:102AA3009002E9EEF0A3EFF0900000E0C43354E0AD
:102AB3002411F582E43400F583C083C0829002E8D8
:102AC300E0D082D08375F002125195E0FEA3E0249A
:102AD30004FFE43E8F82F583E493FE740193FFE4E5
:102AE300FCFDFB7A80F9F8124FE0ECC0E0EDC0E0AA
:102AF300EEC0E0EFC0E0900111E0FEA3E024FCF59E
:102B030082EE3401F583E493FE740193FFCBEFCBA4
:102B1300CAEECAE4F9F8D0E0FFD0E0FED0E0FDD081
:102B2300E0FC127BCB9002EBEEF0A3EFF09002E916
:102B3300E0FCA3E0FDCFEDCF90031CF0ECA3F090FD
:102B430002EBE0FCA3E0FDCFEDCF90031EF0ECA37E
:102B5300F0900000E0C43354E02411F582E4340023
:102B6300F583C083C0829002E8E0FFD082D08375F2
:102B7300F002125195E0FCA3E0F5828C837401937B
:102B8300B4050790031AE04401F090031BEFF00231
:102B93002F85900000E0C43354E02411F582E4341F
:102BA30000F583C083C0829002E8E0FFD082D08327
:102BB30075F002125195E0FCA3E0F5828C83740159
:102BC3009364066003022C9F74039320E703022F90
:102BD300859002BFE0F46003022F8574D22FF58243
:102BE300E43401F583E06003022F85900000E0C424
:102BF3003354E02411F582E43400F583C083C082AA
:102C03009002E8E0D082D08375F002125195E0FC87
:102C1300A3E0FDF5828C837402939002BAF09000D6
:102C230000E0FF049002B7F074132FF582E434013F
:102C3300F583E09002EDF08D828C83740393FF7D26
:102C4300011274A2900000E02413F582E43401F52C
:102C530083E02404FF9002EDE0FEC3EF9E5403FFE4
:102C630070069002E8E0802DEFB4010A9002E8E0DC
:102C73009086C193801FEFB4020B9002E8E0FFC37C
:102C830074109F8010EF64036003022F8E9002E89C
:102C9300E09086D1939002BFF0022F8E900000E067
:102CA300C43354E02411F582E43400F583C083C0B7
:102CB300829002E8E0FFD082D08375F00212519532
:102CC300E0FCA3E0FDF5828C83740193F964077043
:102CD3003274D22FF582E43401F583E06003022FCE
:102CE300858D828C8374039330E003022F859002D9
:102CF300E8E02401F582E43400F583E04402F0EFD8
:102D0300022EB1E964096003022F859002BDE0FF42
:102D1300900000E0C43354E02411F582E43400F55C
:102D230083C083C0829002E8E0FED082D08375F036
:102D330002125195E0FCA3E0F5828C837402935454
:102D430003FDC8EDC87401088002C333D8FC4F905B
:102D530002BDF074D22EF582E43401F583E0600302
:102D6300022F85900000E0C43354E02411F582E47F
:102D73003400F583C083C0829002E8E0D082D08320
:102D830075F002125195E0FEA3E0F5828E83740282
:102D930093C4540F9002BEF09002BDE0FFED2404F3
:102DA300FEC8EEC87401088002C333D8FC4F9002FA
:102DB300BDF0022F859002E8E0FF24D2F582E434CF
:102DC30001F583E0FE7003022F85900000E0C43319
:102DD30054E02411F582E43400F58375F002EF1218
:102DE3005195E0FCA3E0F5828C83740193FFB40555
:102DF30019EE7003022F859002E8E02401F582E4C6
:102E03003400F5837401F0022F85EF64067043905C
:102E13000000E0C43354E02411F582E43400F58368
:102E2300C083C0829002E8E0D082D08375F00212A2
:102E33005195E0FEA3E0F5828E83740393FF30E7A0
:102E430003022F859002BF74FFF0E4FD1274A20207
:102E53002F85900000E0C43354E02411F582E4345C
:102E630000F583C083C0829002E8E0FFD082D08364
:102E730075F002125195E0FCA3E0F5828C83740196
:102E830093FE6407704E74039330E03474012FF59E
:102E930082E43400F583E0FF20E1259002E8E0FDC1
:102EA3002401F582E43400F583EF4402F0ED25E0DC
:102EB300241BF582E43401F583E4F0A3F0022F85AB
:102EC3009002E8E02401F582E43400F583E054FD48
:102ED300F0022F85EEB408037F0122900000E0C4C6
:102EE3003354E02411F582E43400F583C083C082B7
:102EF3009002E8E0D082D08375F002125195E0FE93
:102F0300A3E0F5828E837401936409707574029350
:102F13005403D3940140399002BDE04480F0900003
:102F230000E0C43354E02411F582E43400F583C097
:102F330083C0829002E8E0D082D08375F002125100
:102F430095E0FEA3E0F5828E837404939002B9F0BA
:102F5300900000E0C43354E02411F582E43400F51A
:102F630083C083C0829002E8E0D082D08375F002F0
:102F7300125195E0FEA3E0F5828E837403939002D1
:102F8300BBF09002E8E004F0022824E49002E8F0A9
:102F93009002E8E0FFC3941040030231AC900000BC
:102FA300E0C43354E02411F582E43400F58375F072
:102FB30002EF125195E0FEA3E0F5828E8374019334
:102FC300FF64046008EF640560030231A39000000E
:102FD300E0C43354E02411F582E43400F583C08364
:102FE300C0829002E8E0D082D08375F0021251953E
:102FF300E0FEA3E0F5828E83740393FF640160080F
:10300300EF640260030231A3900000E0C43354E094
:103013002411F582E43400F583C083C0829002E872
:10302300E0D082D08375F002125195E0FEA3E02434
:1030330002FFE43E8F82F583E493FE740193FFE481
:10304300FCFDFB7A80F9F8124FE0ECC0E0EDC0E044
:10305300EEC0E0EFC0E0900111E0FEA3E024FAF53A
:1030630082EE3401F583E493FE740193FFCBEFCB3F
:10307300CAEECAE4F9F8D0E0FFD0E0FED0E0FDD01C
:10308300E0FC127BCB9002E9EEF0A3EFF09000009E
:10309300E0C43354E02411F582E43400F583C083A3
:1030A300C0829002E8E0D082D08375F0021251957D
:1030B300E0FEA3E02404FFE43E8F82F583E493FE65
:1030C300740193FFE4FCFDFB7A80F9F8124FE0EC06
:1030D300C0E0EDC0E0EEC0E0EFC0E0900111E0FE23
:1030E300A3E024FCF582EE3401F583E493FE74013E
:1030F30093FFCBEFCBCAEECAE4F9F8D0E0FFD0E000
:10310300FED0E0FDD0E0FC127BCB9002EBEEF0A30F
:10311300EFF09002E9E0FCA3E0FDCFEDCF90031CBC
:10312300F0ECA3F09002EBE0FCA3E0FDCFEDCF9039
:10313300031EF0ECA3F09002E8E0FF90031BF09075
:103143000000E0C43354E02411F582E43400F58335
:1031530075F002EF125195E0FEA3E0F5828E8374C1
:10316300039364027024049390031AB40506E044A5
:1031730001F08004E054FEF09002E8E02401F582BF
:10318300E43400F5837403F0801FE490031AF09095
:1031930002E8E02401F582E43400F583E4F08009D9
:1031A3009002E8E004F0022F93E49002EEF0900224
:1031B300E8F09002E8E0FFC39410400302339590D7
:1031C3000000E0C43354E02411F582E43400F583B5
:1031D30075F002EF125195E0FEA3E0F5828E837441
:1031E30001936407600302338C9001F8E0FCA3E0D1
:1031F300FDA3E0FEA3E0FF900284E0F8A3E0F9A3BF
:10320300E0FAA3E0FBD312512140369002E8E0FF3D
:1032130025E0241BF582E43401F583E4F0A3F07484
:10322300012FF582E43400F583E054FBF09002E8CB
:10323300E02401F582E43400F583E054FDF0023329
:103243008C9002E8E0FF2401F582E43400F583E08A
:1032530020E10302338C900000E0C43354E02411D6
:10326300F582E43400F58375F002EF125195E0FE28
:10327300A3E0FF2404FDE43E8D82F583E493FC7414
:1032830001934C70061271270233559002E8E0FF58
:103293002401F582E43400F583E0FE30E211740189
:1032A3002FF582E43400F583EE54FBF0023355909E
:1032B30001F8A3A3E0FEA3E0FF9002E8E025E024E9
:1032C3001BF582E43401F583E0FCA3E0FDC3EF9D2D
:1032D300FFEE9CFE900000E0C43354E02411F5821D
:1032E300E43400F583C083C0829002E8E0D082D04A
:1032F3008375F002125195E0FCA3E0FD2404FBE486
:103303003C8B82F583E493FA740193D39FEA9E5036
:10331300419002E8E0FF8D828C83740293FDEF24D9
:1033230003FF1271389001F8A3A3E0FEA3E0FF901E
:1033330002E8E0FD25E0241BF582E43401F583EE89
:10334300F0A3EFF074012DF582E43400F583E0443B
:1033530004F0900000E0C43354E02411F582E43417
:1033630000F583C083C0829002E8E0D082D08375E9
:10337300F002125195E0FEA3E0F5828E837403936D
:1033830030E0069002EEE004F09002E8E004F00280
:1033930031B59001F8E0FCA3E0FDA3E0FEA3E0FF5C
:1033A3009002841251589002EEE09002B2F0126B38
:1033B300C6E4FF120066E4FF1248C69002B0E07054
:1033C30003126A639002E87401F09002E8E0FF24BC
:1033D30025F582E43403F583E0FE74C02FF582E41F
:1033E3003402F583E06E60089003137401F0800AE1
:1033F3009002E8E004F0E0B416D09002B8E0FF9049
:103403000315E06F6002801D9002E87402F09002E1
:10341300E8E0FFC39405501D74142FF582E43403D0
:10342300F583E0600890033B7401F080089002E8A4
:10343300E004F080D99002E87403F09002E8E0FF22
:10344300C39407501E74192FF582E43403F583E007
:10345300F4600890033C7401F080089002E8E004F3
:10346300F080D89002BCE0FF900322E06F600690EA
:10347300033E7401F09002B3E0FF900340E06F70ED
:1034830004A3E060069003237401F09002BFE0F40C
:103493006023900313E0701890033BE070129003D5
:1034A3003CE0700C90033EE07006900323E060055F
:1034B300E49002BAF09002B1E0B40115E490032362
:1034C300F090033EF090033CF090033BF090031325
:1034D300F07F0022C0E0C0F0C083C082C0D075D0AE
:1034E3000820D90302426DE5D9543F1251A1425C31
:1034F300003D830135B40235230341CF203D7921BB
:1035030035A1223510233DF6300000426975D700FE
:1035130063D640C20DE5D654FC4402F5D602426997
:1035230020DE0302426963D680AFDB9002E0E4F061
:10353300A3EFF09002E0A3E0F5D7900580E064A547
:103543006003024269A3E0645A6003024269A3E094
:1035530064036003024269A3E07025900271E054A2
:103563000F44A0F0C87431C8CC7402CCCD7401CD23
:103573007B017A0579847E007F30124E870242698F
:10358300900583E0FF64017003024269EF64026007
:1035930003024269900271E0540FF002426975D54B
:1035A3000063D440C20CE5D454FC4402F5D4024277
:1035B3006920DE0302426963D480AFDB9002E0E45A
:1035C300F0A3EFF09002E0A3E0F5D5900320E03004
:1035D300E75790057FE075F040A42400F9740635A1
:1035E300F0FAC8E9C8CCEACCCD7401CD7B017A05E9
:1035F30079007E007F40124E879005407452F0A3FD
:103603007444F090057FE0FF04F0900542EFF090E2
:10361300057EE0FFA3E0C39F5003023D73E4F090F7
:103623000320E0547FF0023D739005407452F09004
:103633000501E0900541F0900502E0900542F0900D
:103643000503E0900543F0900500E0B44410A3E0C7
:10365300B44B0BA3E0B44206A3E06443601A9005A5
:1036630000E064447052A3E0644C704CA3E06454E3
:103673007046A3E064437040900504E0C394314076
:1036830037E0D394385031900501E090057EB44B78
:103693000B7408F0900504E024D980097404F090B9
:1036A3000504E024ED900320F090057FE4F09003FF
:1036B30020E04480F0023D73900500E064437023F2
:1036C300A3E0B44B1EA3E0B45919A3E0B45414907F
:1036D3000544E527F0900504E0F527900545E52727
:1036E300023990900500E06443600302382BA3E0A5
:1036F3006452600302382BA3E0644B600302382B4F
:10370300A3E0644D600302382B900153E0FFA3E074
:10371300900544CFF0A3EFF0900155E0FFA3E090B4
:103723000546CFF0A3EFF0900164E02401FF900180
:1037330063E03400FE9001A8E0FCA3E0FDD39FEC1E
:103743009E4008CEECCECFEDCF8000900160E02408
:10375300FFFD90015FE034FFFCC3EF9DEE9C50261C
:10376300900164E02401FF900163E03400FE9001C6
:10377300A8E0FCA3E0FDD39FEC9E4008CEECCECFA7
:10378300EDCF8010800E900160E024FFFF90015F79
:10379300E034FFFE900153EEF0A3EFF0900166E0FA
:1037A3002401FF900165E03400FE9001AAE0FCA330
:1037B300E0FDD39FEC9E4008CEECCECFEDCF800052
:1037C300900162E024FFFD900161E034FFFCC3EF50
:1037D3009DEE9C5026900166E02401FF900165E078
:1037E3003400FE9001AAE0FCA3E0FDD39FEC9E40D1
:1037F30008CEECCECFEDCF8010800E900162E02496
:10380300FFFF900161E034FFFE900155EEF0A3EF5E
:10381300F0900153E0FDA3E0900548CDF0A3EDF057
:10382300A3EEF0A3EF023990900500E06443600338
:1038330002394EA3E06452600302394EA3E0644BA5
:10384300600302394EA3E0645A600302394E9001CB
:1038530063E0FFA3E0900544CFF0A3EFF090015F96
:10386300E0FFA3E0900546CFF0A3EFF0900165E001
:10387300FFA3E0900548CFF0A3EFF0900161E0FFD4
:10388300A3E090054ACFF0A3EFF0900504E0FEA378
:10389300E0FF900153E0FCA3E0FDC3EF9DEE9C40ED
:1038A30003023943900506E0FEA3E09DEE9C50031E
:1038B300023943A3E0FEA3E0FF900155E0FCA3E03F
:1038C300FDEF9DEE9C507990050AE0FEA3E09DEE8E
:1038D3009C406D900504E0FFA3E0900163CFF0A34B
:1038E300EFF0900506E0FFA3E090015FCFF0A3EFB8
:1038F300F0900508E0FFA3E0900165CFF0A3EFF09F
:1039030090050AA3E0FF900161EEF0A3EFF0A3E0BE
:10391300FDA3E090054CCDF0A3EDF090015FE0FD39
:10392300A3E090054ECDF0A3EDF0900165E0FDA37B
:10393300E0900550CDF0A3EDF0A3EEF0A3EF804DA2
:1039430090054C74FFF0A3F0023D73900500E06412
:10395300437044A3E06445703EA3E064437038A31E
:10396300E064447032A21033900544F0A211E433B2
:10397300A3F0900504E024FF9210A3E024FF92112A
:10398300A210E433900546F0A211E433A3F09003B0
:10399300207432F0023D73900500E0B44313A3E0BA
:1039A300B4450EA3E0B44309A3E064467003023DAB
:1039B30073900500E064427028A3E0B44623A3E0BB
:1039C300B4571EA3E0B45619C87444C8CC7405CCCC
:1039D300CD7401CD7BFF7A00790E7E007F04023C1B
:1039E3001C900500E064426003023B3AA3E0645587
:1039F3006003023B3AA3E064496003023B3AA3E05D
:103A030064446003023B3A90057DF090057DE0FF3E
:103A130025E02449F582E43403F583E0FE74442F62
:103A2300F582E43405F583EEF090057DE02444F55A
:103A330082E43405F583E0C39430402790057DE0AC
:103A43002444F582E43405F583E0D394395014908B
:103A5300057DE02444F582E43405F583E024D0F0C9
:103A6300023AE790057DE02444F582E43405F583CA
:103A7300E0C39461402690057DE02444F582E4345C
:103A830005F583E0D39466501390057DE02444F557
:103A930082E43405F583E024A9F0804890057DE0B5
:103AA3002444F582E43405F583E0C3944140269031
:103AB300057DE02444F582E43405F583E0D39446A0
:103AC300501390057DE02444F582E43405F583E04A
:103AD30024C9F0800F90057DE02444F582E4340589
:103AE300F583E4F090057DE004F0E0640C600302EC
:103AF3003A0E90057DE4F090057DE0FF25E0244437
:103B0300F582E43405F583E0C454F0FEEF25E024A8
:103B130045F582E43405F583E04EFF90057DE0240E
:103B230044F582E43405F583EFF090057DE004F07D
:103B3300E0B406C3023D73900500E06442600302F3
:103B43003BEFA3E064496003023BEFA3E0645060F2
:103B530003023BEFA3E064546003023BEF9001A830
:103B6300E0FFA3E0900544CFF0A3EFF09001AAE0BB
:103B7300FFA3E0900546CFF0A3EFF0A3125164003A
:103B830000000090057DE4F0900548C083C082E00A
:103B9300F8A3E0F9A3E0FAA3E0FBE8C0E0E9C0E0A2
:103BA300EAC0E0EBC0E090057DE0F92440F582E453
:103BB3003401F583E0FFE4FCFDFEC8E9C81251457A
:103BC300D0E0FBD0E0FAD0E0F9D0E0F8EB4FFFEA29
:103BD3004EFEE94DFDE84CFCD082D0831251589043
:103BE300057DE004F0E0B4139F023D73900500E00F
:103BF3006442702BA3E0B44726A3E0B45021A3E0B2
:103C0300B44D1CC87444C8CC7405CCCD7401CD7BB1
:103C1300FF7ADA79007E007F38124E87023D739077
:103C23000500E06442701DA3E0B44418A3E0B44768
:103C330013A3E0B4430E7B017A0579447D38127DEA
:103C430091023D73900500E064427028A3E0645242
:103C53007022A3E0B4531DA3E0B454187E007F3C4C
:103C63007D207B017A0579441251F490032074641A
:103C7300F0023D73900500E064427028A3E06442C3
:103C83007022A3E0B44F1DA3E0B454187E007F3C20
:103C93007D207B017A0579441251F49003207465E9
:103CA300F0023D73900500E064427051A3E0644369
:103CB300704BA3E064537045A3E06443703FFE7F01
:103CC3003C7D207B017A0579441251F4900000E099
:103CD3002431900544F0900504E0C394314019E089
:103CE300D394385013E0900545F024CF900600F0AC
:103CF3009003207466F08078900545805C90050001
:103D0300E0B44217A3E0B44212A3E0B4550DA3E01C
:103D1300B45A089003207467F08055900500E0645E
:103D230042703BA3E064427035A3E06454702FA358
:103D3300E064567029A3E0D39430501AA3E06016D0
:103D4300940A5012900504E090020FF0900505E0EC
:103D5300900167F0801A90020F74FFF080129005B3
:103D6300407452F0A37449F0A3744EF0A37456F058
:103D730053D4FC02426975D30063D240C20B8068FE
:103D8300AFDB9002E0E4F0A3EFF09002E0E0FEA3EB
:103D9300E0FF4E6053D3EF9402EE9400504A90023A
:103DA300E0A3E0247FF58274043EF583E0FF7E0008
:103DB3009002E0EEF0A3EFF07F0020E0027F01EF3E
:103DC30024FFB3920A9002E0E0FEA3E0FF7D00200F
:103DD300E1027D01ED24FFB3920EEF7F0020E202AA
:103DE3007F01EF24FFB39209E5D254FC4402F5D2DC
:103DF30002426975DCC0AFDB9002E0E4F0A3EFF0B0
:103E03009002E0E07004A3E0640860030241A49020
:103E13000447E0FE900446E07C002400FFEC3E9063
:103E23000344F0A3EFF09002E0E4F0A3F09002DF8C
:103E3300F0900441E0900346F0900440E054606049
:103E43001A900346E01424FD40030241AA24FB24F4
:103E5300FD40030241AA80000241A4900346E0B45E
:103E63000B0040030241A2903E71F82828730241DF
:103E7300770240760241A20240DB0241A2024033B4
:103E8300023E920241A202403F0240640241AA90D4
:103E93000443E024FE602B14604224E17003023FDC
:103EA3005924216003023FAC90036374FFF0A374B1
:103EB30084F0A3749AF09002E0E4F0A37412F00289
:103EC3003FB290036374FFF0A37486F0A3744BF0C6
:103ED3009002E0E4F0A37469F0023FB2900442E080
:103EE30014602714603E14605424036003023FAC43
:103EF30090036374FFF0A37484F0A374ACF0900296
:103F0300E0E4F0A37404F0023FB290036374FFF0A3
:103F1300A37484F0A374C6F09002E0E4F0A37424C5
:103F2300F0023FB290036374FFF0A37484F0A374B0
:103F3300B0F09002E0E4F0A37416F0807290036393
:103F43007401F0A37403F0A37447F09002E0E4F06B
:103F5300A3741AF08059900444E0FF701A9003632D
:103F630074FFF0A37484F0A374EAF09002E0740188
:103F7300F0A3741DF08038EFB4010F90036374FF56
:103F8300F0A37486F0A374078011EFB402199003B1
:103F93006374FFF0A37486F0A37429F09002E0E445
:103FA300F0A37422F0800880009002DF74FFF09089
:103FB30002E0E0FEA3E0FFD3900345E09F900344BB
:103FC300E09E4005EEF0A3EFF0900344E0FEA3E093
:103FD300FFC39440EE9400400C7C007D40CEECCEB9
:103FE300CFEDCF80009002E0EEF0A3EFF09002E07F
:103FF300E0FEA3E0FFC87440C8CC7404CCCD7401C8
:10400300CD900363E0FBA3E0FAA3E0F9124E87909F
:1040130002E0E0FEA3E0FFC3900345E09FF09003BE
:1040230044E09EF0900364EE8FF0124FAB0241AA7E
:10403300900442E0FF900344E402419C900343E078
:10404300900440F0C3900345E09401900344E0944E
:104053000050030241AA9002E0E4F0A304F00241FD
:10406300AA900442E0900343F070030241AAD20FE6
:104073000241AA900440E0541FFF6402704A900476
:1040830044E01460381460261460142482602414FD
:10409300601214702DE5D654BC4402F5D680295322
:1040A300D6738024E5D454BC4402F5D4801A53D487
:1040B300738015E5D254BC4402F5D2800B53D273FE
:1040C30080069002DF74FFF0EF700A900342E05421
:1040D300FEF00241AA0241A4900440E0541FFD7087
:1040E30027900443E0FE900442E0FBEB64014E7032
:1040F300149086529330E50A900342E04401F002A3
:1041030041AA0241A40241A4ED64027065900443F4
:10411300E0FE900442E0FDED4E7055900445E0FE54
:10412300900444E0FDEDFFEE7044EF24FE602B1499
:1041330060142482602E146017147032E5D654BFC5
:104143004403F5D68061E5D6547F440CF5D68057F9
:10415300E5D454BF4403F5D4804DE5D4547F440CD7
:10416300F5D48043E5D254BF4403F5D2803980317E
:10417300802F802D900441E4F0900440F09003449C
:10418300E0FEA3E0FFC39402EE94009002E0400837
:10419300E4F0A37402F0800FEEF0A3EFF080088048
:1041A300009002DF74FFF09002DFE0B4FF0675DCDD
:1041B300CF0242699002E0E0FEA3E0FF4E60048F6D
:1041C300DD800375DD0075DCC0024269900346E0C3
:1041D30024FB606E14707A900344E0FEA3E0FFC3F7
:1041E3009440EE9400400C7C007D40CEECCECFEDAD
:1041F300CF80009002E0EEF0A3EFF09002E0E0FE4B
:10420300A3E0FFC87440C8CC7404CCCD7401CD9036
:104213000363E0FBA3E0FAA3E0F9124E879002E008
:10422300E0FEA3E0FFC3900345E09FF0900344E06A
:104233009EF0900364EE8FF0124FAB8FDD63DC4092
:104243008024900344A3E0FFE5E354804FF5E3802B
:104253000375DD0075DC02800DAFDB9002E0E4F056
:10426300A3EFF063DC80C2D9804130D82275DC0231
:1042730075D20275D40275D60275E300C2DAC2D9CB
:10428300C20FC20BC20C900342E4F0C2D8801C30B0
:10429300DA16C2DAE5DA90034230E206E04402F0CD
:1042A3008009E054FDF0800375D8FFD0D0D082D0D0
:1042B30083D0F0D0E0329002EF7403F09001F8E085
:1042C300FCA3E0FDA3E0FEA3E0FF90028CE0F8A3D3
:1042D300E0F9A3E0FAA3E0FBD3125121400A9002D4
:1042E30088125164000000009001F8E0FCA3E0FD97
:1042F300A3E0FEA3E0FF90028C1251589001F8E076
:10430300FCA3E0FDA3E0FEA3E0FF900288E0F8A396
:10431300E0F9A3E0FAA3E0FBD3125121400C900291
:10432300B17401F0E49002D6F022E49002B1F0906F
:1043330002F4F0A3F09002B0E0FF603B900000E0D5
:1043430075F020A4240FF582E5F03400F58375F0B1
:1043530002EF125195E0FEA3E0FFF5828E83740213
:1043630093FD7C00EF2403FFE43EFEEF2DFFEC3EC4
:104373009002F4F0A3EFF09002EFE0C39416400331
:104383000248C59002F4E0FEA3E0FF9002B5E0FC12
:10439300A3E0FDC39FEC9E4004E402477C8D828C26
:1043A30083E493FFB4EA31ED2401FBE43C8B82F513
:1043B30083E493FE54019002D6F0EE30E1099002BB
:1043C300B6E024020245679002B6E004F07006905E
:1043D30002B5E004F00248B4EF64EB600302450465
:1043E300ED2401FFE43C8F82F583E493FBB4021ECA
:1043F300ED2404FEE43C900290F0A3CEF09002B6CC
:10440300E02404F09002B5E03400F00248B49002D6
:10441300AFE004F070069002AEE004F0ED2402FF7A
:10442300E43C8F82F583E493FEED2403FDE43C8DAD
:1044330082F583E493FDEDFF9002F0EEF0A3EFF03D
:10444300EB600B9002D7E030E20454036033900238
:10445300B5E0FEA3E02401FFE43E8F82F583E493FD
:1044630070079002D7E020E2189002F0E0FEA3E08C
:10447300FF4E60149002AEE0FCA3E0C39FEC9E40AD
:10448300079002D7E04480F09002D7E0FF30E7279F
:104493009002B6E02403F09002B5E03400F0EF544C
:1044A3007B9002D7F0E49002AEF0A3F074FF900289
:1044B30090F0A3F00248B4900290E0FEA3E0FFF472
:1044C3007002EEF460069002B5EE8030900000E0DA
:1044D30075F020A4240FF582E5F03400F583C08342
:1044E300C0829002B0E0D082D08375F00212519561
:1044F300E0FEA3E02403FFE43E9002B5F0A3EFF057
:10450300229002B5E0FEA3E0F5828E83E49364FE7D
:10451300705B9002B5E0FCA3E0FD2401FFE43C8F57
:1045230082F583E493FEED2402FDE43C8D82F58362
:10453300E493FDEDFF9002F7EEF0A3EFF0E4FCFD52
:104543009001F8E0F8A3E0F9A3E0FAA3E02FFFEA73
:104553003EFEED39FDEC38FC900288125158900272
:10456300B6E02403F09002B5E03400F0229002B5E7
:10457300E0FEA3E0F5828E83E493FC64FD7061901A
:1045830002EFE0FFD3940340030248C5900315E014
:1045930060030248C59002B575F001124FAB85F078
:1045A30082F583E493FD1271389002B5E475F0014E
:1045B300124FAB85F082F583E493900326F09002CB
:1045C300F4E0FEA3E0FF9002B5E475F001124FABF7
:1045D300FAEF65F07002EE6A60030248C502477C99
:1045E300EC64EC60149002B5E0FEA3E0F5828E83E8
:1045F300E49364ED60030247819002EFE0D39403F8
:1046030040030248C5900315E060030248C59002C9
:10461300B5E0FCA3E0FD2401FFE43C8F82F583E4D5
:1046230093FEED2402FDE43C8D82F583E493FDEDDE
:10463300FF9002F0EEF0FCA3EFF0CCCCCDCD9002D6
:10464300B5E0FAA3E0FB2403FFE43A8F82F583E4A9
:1046530093FEEB2404FBE43A8B82F583E493FBEBB8
:10466300FF9002F2EEF0A3EFF0CFEDCFCEECCEE46D
:10467300FCFDFB7A80F9F8124FE0ECC0E0EDC0E0FE
:10468300EEC0E0EFC0E0900111E0FEA3E024FAF5F4
:1046930082EE3401F583E493FE740193FFCBEFCBF9
:1046A300CAEECAE4F9F8D0E0FFD0E0FED0E0FDD0D6
:1046B300E0FC127BCB9002F0EEF0A3EFF0A3E0FE60
:1046C300A3E0FFE4FCFDFB7A80F9F8124FE0ECC0B5
:1046D300E0EDC0E0EEC0E0EFC0E0900111E0FEA32A
:1046E300E024FCF582EE3401F583E493FE74019338
:1046F300FFCBEFCBCAEECAE4F9F8D0E0FFD0E0FE7F
:10470300D0E0FDD0E0FC127BCB9002F2EEF0A3EF01
:10471300F09002F0E0FCA3E0FDCFEDCF90031CF09E
:10472300ECA3F09002F2E0FCA3E0FDCFEDCF900309
:104733001EF0ECA3F09002B5E0FEA3E0F5828E83B9
:10474300E493B4ED0790031AE04401F09002B6E05D
:104753002404F09002B5E03400F09002F4E0FEA3EC
:10476300E0FF9002B5E475F001124FABFCEF65F08A
:104773007002EE6C60030248C59002B0F022900212
:10478300B5E0FEA3E0F5828E83E49364FA6003024E
:1047930048339002F67403F0F09002EFE0FC9002CD
:1047A300F6E0FFC39C502A9002B5E0FAA3E0F5823D
:1047B3008A83E493FE74252FF582E43403F583E0C2
:1047C3006E70069002F6F080089002F6E004F08026
:1047D300C89002F6E070030248C5900315E0600339
:1047E3000248C5900326E060199002EFE0FF04F051
:1047F3009002B5E475F001124FAB85F082F58302A8
:1048030048AEEC640360030248C59002EFE0FF0486
:10481300F09002B5E475F001124FAB85F082F58399
:10482300E493FD127138900326E04402F00248B489
:104833009002F67403F0F09002EFE0FC9002F6E0D1
:10484300FFC39C502A9002B5E0FAA3E0F5828A8365
:10485300E493FE74252FF582E43403F583E06E7050
:10486300069002F6F080089002F6E004F080C8900B
:1048730002F6E0604D900315E07047900326E07068
:10488300149002EFE0FF04F09002B5E0FAA3E0F524
:10489300828A838016ECB403299002EFE0FF04F0D0
:1048A3009002B5E0FCA3E0F5828C83E493FD1271E2
:1048B300389002B6E004F070069002B5E004F0020E
:1048C300437A22E49002F9F0A3F0A3F0EF6024E42A
:1048D3009002A0F090029EF090029CF09002A1F052
:1048E30090029FF090029DF09002A2F0A3F090023C
:1048F300FBF02290029CE0FF900111E0FCA3E0FD9D
:1049030024E1F582EC3401F583E49325E014851A60
:10491300F0A4FEC3EF9E90029CF0E4F51AA3E0FF1F
:10492300ED24E9F582EC3401F583E49325E0148565
:104933001BF0A4FEC3EF9E90029DF0E4F51B9002D2
:10494300FCF09002FCE0FF249EF582E43402F58340
:10495300E0FE749C2FF582E43402F583E0C39EFFEE
:10496300D36480948040089002FB7401F08015C3E7
:10497300EF6480948050089002FB7402F08005E499
:104983009002FBF0900111E0FEA3E0F5828E83C05C
:1049930083C0829002FCE0FFD082D08375F00812BE
:1049A3005195E58224E0F582E5833401F583E493B0
:1049B300540F24FE7003024A9B046003024D8B9044
:1049C30002FBE0FE7003024DA774A02FF582E434CE
:1049D30002F583E060299002FCE0FF24A0F582E465
:1049E3003402F583E4F0749E2FF582E43402F583F8
:1049F300E0FFEE25E024FDFEC3EF9EF0024DA790FD
:104A030002FBE0FF900111E0FCA3E0F5828C83C080
:104A130083C0829002FCE0D082D08375F0081251EB
:104A230095E58224E2F582E5833401F583E5822F5F
:104A3300F582E43583F583E493FD60057FFF12710E
:104A430038900326E0FF9002FBE0FE900111E0FCAA
:104A5300A3E0F5828C83C083C0829002FCE0FDD08A
:104A630082D08375F008125195E58224E5F582E53D
:104A7300833401F583E5822EF582E43583F583E4FF
:104A830093FEEF4E900326F074A02DF582E43402DA
:104A9300F5837401F0024DA79002FBE07003024D11
:104AA300A7A3E0FD24A0F582E43402F583E06027A8
:104AB300900340E0FC9002A2E0FAA3E0FB25E0FFB4
:104AC300EC4F900340F07807CEEACEEBCEA2E7138B
:104AD300CE13D8F8024D43900111E0FEA3E0F58216
:104AE3008E8375F008ED125195E58224E3F582E596
:104AF300833401F583E493FFC3941E5003024BD721
:104B0300EFD394274003024BD7900111A3E0F58222
:104B13008E83C083C0829002FCE0D082D08375F084
:104B230008125195E58224E4F582E5833401F58387
:104B3300E493FFC3941E5003024BD7EFD394274053
:104B430003024BD7900111A3E0F5828E83C083C08B
:104B5300829002FCE0D082D08375F008125195E573
:104B63008224E3F582E5833401F583E49324E3FFB0
:104B7300E434FFFE7C007D0A124F20CFEDCFEF75AA
:104B8300F00AA4FBAAF0900111E0FEA3E0F5828EE7
:104B930083C083C0829002FCE0D082D08375F0088A
:104BA300125195E58224E4F582E5833401F583E42B
:104BB3009324E3FFE434FFFE7C007D0A124F75EB80
:104BC3002DFFEA3CFEEF2401FFE43E9002A2F0A396
:104BD300EFF080099002A2E4F0A3740AF09002A21D
:104BE300E0FAA3E0FB9002FBE075F002A424FDFFD2
:104BF300E5F034FFFE7C007D0A124F0ECDEBCDCCE9
:104C0300EACC124F0E9002A2EEF0A3EFF090011146
:104C1300E0FEA3E0F5828E83C083C0829002FCE0B5
:104C2300FFD082D08375F008125195E58224E6F512
:104C330082E5833401F583E493FEB4010F74A02F5E
:104C4300F582E43402F5837401F08078EEB4021245
:104C53009002FCE024A0F582E43402F5837403F0AF
:104C63008062900111E0FEA3E0F5828E83C083C0D1
:104C7300829002FCE0FFD082D08375F00812519538
:104C8300E58224E6F582E5833401F583E493FEB4FB
:104C9300040F74A02FF582E43402F5837404F080CA
:104CA30023EE9002FCB4080FE024A0F582E4340262
:104CB300F5837405F0800DE024A0F582E43402F559
:104CC300837402F09002FCE024A0F582E43402F540
:104CD30083E0FD7C009002A2E0FEA3E0FF124F758B
:104CE300CAECCACBEDCB9002FCE024A0F582E434FD
:104CF30002F583E0FD7C009002A2E0FEA3E0FF1238
:104D03004F75CCEECCCDEFCDED2BFEEC3A9002F906
:104D1300F0A3CEF09002A2ECF0A3EDF0900340E0FC
:104D2300FD9002F9E0FAA3E0FB25E0FFED4F9003CD
:104D330040F07807CEEACEEBCEA2E713CE13D8F835
:104D4300900341F09002FCE0FF24A0F582E43402DA
:104D5300F583E014F074A02FF582E43402F583E0C8
:104D630070429002FCE0249EF582E43402F583C095
:104D730083C082E0FF9002FBE025E024FDFEC3EF49
:104D83009ED082D083F0801C9002FCE0FF249CF52F
:104D930082E43402F583E0FE749E2FF582E434024C
:104DA300F583EEF09002FCE004F0E0C394025003BC
:104DB30002494522E709F608DFFA8046E709F208C7
:104DC300DFFA803E88828C83E709F0A3DFFA803222
:104DD300E309F608DFFA8078E309F208DFFA807066
:104DE30088828C83E309F0A3DFFA806489828A8353
:104DF300E0A3F608DFFA805889828A83E0A3F208E9
:104E0300DFFA804C80D280FA80C680D4806980F239
:104E13008033801080A680EA809A80A880DA80E2BE
:104E230080CA803389828A83ECFAE493A3C8C5825B
:104E3300C8CCC583CCF0A3C8C582C8CCC583CCDF9E
:104E4300E9DEE7800D89828A83E493A3F608DFF91C
:104E5300ECFAA9F0EDFB2289828A83ECFAE0A3C87D
:104E6300C582C8CCC583CCF0A3C8C582C8CCC583D2
:104E7300CCDFEADEE880DB89828A83E493A3F2084D
:104E8300DFF980CC88F0EF60010E4E60C388F0ED4F
:104E93002402B4040050B9F582EB2402B404005098
:104EA300AF2323458223904E0773BB010CE5822970
:104EB300F582E5833AF583E0225006E92582F8E698
:104EC30022BBFE06E92582F8E222E58229F582E586
:104ED300833AF583E49322BB010689828A83F02215
:104EE3005002F722BBFE01F322F8BB010DE5822934
:104EF300F582E5833AF583E8F0225006E92582C876
:104F0300F622BBFE05E92582C8F222EF8DF0A4A8A4
:104F1300F0CF8CF0A428CE8DF0A42EFE22BC000B83
:104F2300BE0029EF8DF084FFADF022E4CCF875F0DC
:104F330008EF2FFFEE33FEEC33FCEE9DEC984005BB
:104F4300FCEE9DFE0FD5F0E9E4CEFD22EDF8F5F081
:104F5300EE8420D21CFEADF075F008EF2FFFED3389
:104F6300FD4007985006D5F0F222C398FD0FD5F007
:104F7300EA22C2D5EC30E709B2D5E4C39DFDE49C37
:104F8300FCEE30E715B2D5E4C39FFFE49EFE124F5B
:104F930020C3E49DFDE49CFC8003124F2030D50721
:104FA300C3E49FFFE49EFE22C5F0F8A3E028F0C50A
:104FB300F0F8E582158270021583E038F022BB0118
:104FC3000A89828A83F0E5F0A3F0225006F709A745
:104FD300F01922BBFE06F3E5F009F31922E88FF07E
:104FE300A4CC8BF0A42CFCE98EF0A42CFC8AF0ED6D
:104FF300A42CFCEA8EF0A4CDA8F08BF0A42DCC3821
:1050030025F0FDE98FF0A42CCD35F0FCEB8EF0A458
:10501300FEA9F0EB8FF0A4CFC5F02ECD39FEE43C12
:10502300FCEAA42DCE35F0FDE43CFC2275F00875B6
:105033008200EF2FFFEE33FECD33CDCC33CCC582D0
:1050430033C5829BED9AEC99E58298400CF582EE8C
:105053009BFEED9AFDEC99FC0FD5F0D6E4CEFBE474
:10506300CDFAE4CCF9A88222B800C1B90059BA003C
:105073002DEC8BF084CFCECDFCE5F0CBF97818EF97
:105083002FFFEE33FEED33FDEC33FCEB33FB10D798
:1050930003994004EB99FB0FD8E5E4F9FA22781859
:1050A300EF2FFFEE33FEED33FDEC33FCC933C910B4
:1050B300D7059BE99A4007EC9BFCE99AF90FD8E0E6
:1050C300E4C9FAE4CCFB2275F010EF2FFFEE33FEB8
:1050D300ED33FDCC33CCC833C810D7079BEC9AE82B
:1050E30099400AED9BFDEC9AFCE899F80FD5F0DAAC
:1050F300E4CDFBE4CCFAE4C8F922C3E49FFFE49EC9
:10510300FEE49DFDE49CFC22EB9FF5F0EA9E42F059
:10511300E99D42F0EC6480C864809845F022EB9FDF
:10512300F5F0EA9E42F0E99D42F0E89C45F022E862
:10513300600FECC313FCED13FDEE13FEEF13FFD86A
:10514300F122E8600FEFC333FFEE33FEED33FDECE6
:1051530033FCD8F122ECF0A3EDF0A3EEF0A3EFF0D3
:1051630022A8828583F0D083D08212517B12517B97
:1051730012517B12517BE473E493A3C583C5F0C53D
:1051830083C8C582C8F0A3C583C5F0C583C8C582DB
:10519300C822A42582F582E5F03583F58322D083E6
:1051A300D082F8E4937012740193700DA3A393F863
:1051B300740193F5828883E4737402936860EFA3A8
:1051C300A3A380DFEC8EF0A4CCC5F0CCCDF8EFA484
:1051D300CEC5F02DFDE43CFCE8A42EC8C5F03DFD92
:1051E300E43CFCEFA4FFE5F028FEE43DFDE43CFCD9
:1051F30022EF4E6012EF60010EEDBB010B89828A34
:1052030083F0A3DFFCDEFA2289F05007F709DFFC05
:10521300A9F022BBFEFCF309DFFCA9F022BB0106C7
:1052230089828A83E0225002E722BBFE02E32289BD
:10523300828A83E49322E0FCA3E0FDA3E0FEA3E0E3
:10524300FF22F8E0FBA3A3E0F925F0F0E582158245
:1052530070021583E0FA38F022EBF0A3EAF0A3E939
:10526300F022E51024E8F582E43402F583E005102A
:10527300229002E53007039002E8E475F001125230
:10528300450252202000E97F2ED2008018EF540FF0
:105293002490D43440D4FF30040BEF24BFB41A005D
:1052A30050032461FFE511600215110514E5147024
:1052B30002051330070E9002E5E475F00112524522
:1052C300EF024EDA027E127403D2078003E4C207B0
:1052D300F5109002E512525CE4F511F513F514E5AF
:1052E3001160077F201252A880F57512FFC201C218
:1052F30000C202C203C205C206C208125274FF7082
:105303000D3007057F001252B9AF14AE1322B42536
:105313005FC2D5C204125274FF24D0B40A00501ADB
:1053230075F00A781130D50508B6FF0106C6A42624
:10533300F620D5047002D20380D924CFB41A00EF2B
:105343005004C2E5D2040254BAD20180C6D200800E
:10535300C0D20280BCD2D580BAD20580B47F2012DD
:1053630052A82002077401B5110040F1125265FFE3
:105373001252A80252E2D208D2068095125265FB5D
:10538300125265FA125265F94A4B7006798B7A55B7
:105393007BFF20022EE511602A7E008E827583003A
:1053A300124EAD60060EEE651270F0C2D5EBC0E092
:1053B300EAC0E0E9C0E0EE125501D0E0F9D0E0FA2E
:1053C300D0E0FB125220FF60AAEBC0E0EAC0E0E9A4
:1053D300C0E01252A8D0E02401F9D0E03400FAD0A2
:1053E300E0FBE5120460DCD512D980877BFF7A5499
:1053F30079FDD202809C791080027908C206C20826
:105403008008D2D5790A8004790AC2D5E5120470DE
:1054130002F512E4FAFDFEFF125265FC7B0820013F
:1054230013125265FD7B1030000A125265FE1252B0
:1054330065FF7B20EC3382D592D55013C3E4300053
:10544300069FFFE49EFEE42001039DFDE49CFCE433
:10545300CBF8C201EC700CCFCECDCCE824F8F870B9
:10546300F38017C3EF33FFEE33FEED33FDEC33FC74
:10547300EB33FB994002FB0FD8E9EB300105F8D081
:10548300E0C448B201C0E00AEC4D4E4F78207B00E7
:1054930070C2EAB5120040BCC0E0125503D0F0D090
:1054A300E0200104C4C0E0C4B201C0F0125291D0A4
:1054B300F0D5F0EB0252E21251A1537F5353F95846
:1054C30053504C534C4253FD4F54054454054953D8
:1054D3006543540B5553EF4653EF4553EF4755ABD5
:1054E3005053542D53582E537B2B535C2353792005
:1054F30055942A531448000053733F3F3F00790AE1
:10550300A2D5200314300509B910020404B9080117
:1055130004A2D52006025001042002689202B511AC
:10552300005034C0E07F203003197F30A20272069E
:105533007205500F12555AC202C206C205C2087F35
:1055430030800F300503E9C0E01252A8300503D0C4
:10555300E0F9D0E0B511CC3005177F30B9100C124B
:1055630052A87F583004077F788003B9080312528A
:10557300A83002057F2D0252A87F202008F87F2B38
:105583002006F322920280CF286E756C6C2900D21C
:10559300011252653001F8C201781130D50108F6C5
:1055A3000253142D504349581252652403B4050085
:1055B3004001E49055A693125299743A125299D22B
:1055C300037511040253F9E4FD75F002EDA4240000
:1055D300F582E5F034DAF583E493FA740193FBED95
:1055E30025E0FFE433FE74632FF58274013EF583F7
:1055F300EAF0A3EBF075F002EDA42404F582E5F0E4
:1056030034DAF583E493FA740193FBED25E0FFE4C8
:1056130033FE745F2FF58274013EF583EAF0A3EB4A
:10562300F075F002EDA42408F582E5F034DAF58391
:10563300E493FA740193FBED25E0FFE433FE745326
:105643002FF58274013EF583EAF0A3EBF074632F28
:10565300F58274013EF583E0FEA3E0C394FFEE946C
:105663000F4015ED25E0FFE433FE74632FF58274DC
:10567300013EF583E4F0A3F0ED25E0FFE433FE748F
:105683005F2FF58274013EF583E0FEA3E0FF4E60D9
:1056930009D3EF94FFEE940F4018ED25E0FFE433B8
:1056A300FE745F2FF58274013EF583740FF0A374CB
:1056B300FFF0ED25E0FFE433FE745F2FF582740104
:1056C3003EF583E0FAA3E0FB74632FF58274013E99
:1056D300F583E0FEA3E0C39BEE9A4026ED25E0FFB1
:1056E300E433FE74632FF58274013EF583E4F0A383
:1056F300F0745F2FF58274013EF583740FF0A37489
:10570300FFF0ED25E0FFE433FE74532FF5827401BF
:105713003EF583E0FEA3E0FF4E6009C3EF94FFEE86
:10572300940F4017ED25E0FFE433FE74532FF58209
:1057330074013EF5837408F0A3E4F0ED25E0FFE483
:1057430033FE74632FF58274013EF583E0FAA3E020
:10575300FB74532FF58274013EF583E0FEA3E0D37F
:105763009BEE9A402AED25E0FFE433FE745F2FF5AC
:105773008274013EF583E0FAA3E0FB74532FF582B4
:1057830074013EF583E0FEA3E0C39BEE9A4036ED41
:1057930025E0FFE433FE74632FF58274013EF58345
:1057A300E4F0A3F074532FF58274013EF58374087B
:1057B300F0A3E4F0745F2FF58274013EF583740F58
:1057C300F0A374FFF0ED25E0FFE433FE74632FF5DF
:1057D3008274013EF583E0FAA3E0FB74532FF58254
:1057E30074013EF583E0FEA3E0C39BFBEE9AFAED62
:1057F30025E0FFE433FE745B2FF58274013EF583ED
:10580300EAF0A3EBF074532FF58274013EF583E0C5
:10581300FAA3E0FB745F2FF58274013EF583E0FE8B
:10582300A3E0C39BFBEE9AFAED25E0FFE433FE749D
:10583300572FF58274013EF583EAF0A3EBF00DEDEB
:10584300640260030255CC90DA10E493F52790DAF2
:1058530014E493FF139210EFC31313921122E490F5
:1058630002E9F0A20A33A3F0A20EE433A3F0A209E3
:10587300E433A3F09002B2E07F0060027F01900264
:10588300EDEFF09002B0E07F0060027F019002EE46
:10589300EFF0900111E0FEA3E024F9F582EE34016C
:1058A300F583E493C4540F60739002D8E0F8A3E047
:1058B300F9A3E0FAA3E0FB9001F8E0FCA3E0FDA369
:1058C300E0FEA3E0C39BFFEE9AFEED99FDEC98C0CA
:1058D300E0EDC0E0EEC0E0EFC0E0900111E0FEA318
:1058E300E024F9F582EE3401F583E493C4540F25E3
:1058F300E0248AF582E43484F583E493FE7401930F
:10590300FFCBEFCBCAEECAE4F9F8D0E0FFD0E0FE5C
:10591300D0E0FDD0E0FCD31251215017900111E0EB
:10592300FEA3E024F9F582EE3401F583E493540FEA
:10593300FF700890022074FFF08046EF6043C39429
:105943000440028037EF14FDC8EDC87E00740108DF
:105953008005C333CE33CED8F9FF900220E0FCC3D9
:105963009FEE6480F87480984012C8EDC8740108F3
:105973008002C333D8FCFFC3EC9F8001E490022074
:10598300F0E49002E5F09002E5E0FFC394034003E6
:10599300025AC0E0FE900111E0FCA3E0FD24F6F5FD
:1059A30082EC3401F583E5822EF582E43583F583B9
:1059B300E493FB540F24E9F582E43402F583E0FA1F
:1059C300EBC41313135401FBEA6BFB74E62EF5824D
:1059D300E43402F583EBF074E62FF582E43402F548
:1059E30083E0604BED24F9F582EC3401F583E49315
:1059F300540F703B9002E5E024E6F582E43402F5AF
:105A030083C083C082E0FF9002E5E0FEED24F3F55E
:105A130082EC3401F583E5822EF582E43583F58348
:105A2300E493FEEF8EF0A4D082D083F0025AB790B5
:105A330002E5E0FBED24F3F582EC3401F583E58226
:105A43002BF582E43583F583E493FD7C00900220FB
:105A5300E0F9FFC374FF9FFFE49400FE124F0E743E
:105A6300E62BF582E43402F583E0FD124F0ECCEE13
:105A7300CCCDEFCD9002E5E0FF900111E0FAA3E079
:105A830024F0F582EA3401F583E5822FF582E435CB
:105A930083F583E49389F0A42DFFEC35F0FE7C00BD
:105AA3007DFF124F209002E5E024E6F582E4340204
:105AB300F583EFF09002E5E004F00259899002E6E5
:105AC300E0F5A5A3E0F59AA3E0F5A422011C0001EB
:105AD3001A00C110011D00011B00C11141036A001E
