:08000000026920026C33323268
:07000B000270840100011BDB
:100013000200067B017A0679009002D77401F07F13
:06002300007ED8025BC75D
:0D002B0002000775A15575A1AA43B110226E
:03003B00026C90C4
:10004300022ED2EF4E601505A105A105A105A1055C
:0D005300A105A105A1EF1F70EA1E80E722A4
:10006300026B0AEF6013E4900290F0A3F090028E0B
:10007300F0A3F090028C020585900111E0FEA3E04D
:1000830024D5F582EE3401F583E493FD540175F034
:1000930002A424FFFEE5F034FF9002E2F0A3CEF0C9
:1000A300EDC313540175F002A424FFFEE5F034FF01
:1000B300A3F0A3CEF0900163E0FEA3E0FF9001A7BD
:1000C300E0FCA3E0FDD39FEC9E4008CEECCECFED49
:1000D300CF8000D3900160E09F90015FE09E4020BD
:1000E300900163E0FEA3E0FF9001A7E0FCA3E0FD25
:1000F300D39FEC9E4008CEECCECFEDCF800A800894
:1001030090015FE0FEA3E0FF9001A7EEF0A3EFF004
:10011300900165E0FEA3E0FF9001A9E0FCA3E0FDF0
:10012300D39FEC9E4008CEECCECFEDCF8000D39092
:100133000162E09F900161E09E4020900165E0FE36
:10014300A3E0FF9001A9E0FCA3E0FDD39FEC9E4058
:1001530008CEECCECFEDCF800A8008900161E0FE9F
:10016300A3E0FF9001A9EEF0A3EFF0900111E0FEF0
:10017300A3E024D5F582EE3401F583E493131354FD
:100183003F20E00302030A900153E0FEA3E0FF9047
:1001930001A7E0FCA3E0FDC39FEC9E9002E2E0FE1A
:1001A3005037A3E0FFEEC0E0EFC0E0900153E0FE64
:1001B300A3E0FFC3ED9FFFEC9EFE3395E0FDFCE45F
:1001C300FB7A10F9F81243E5ECC0E0EDC0E0EEC0B5
:1001D300E0EFC0E090015B803BA3E0FFEEC0E0EF07
:1001E300C0E0900153E0FEA3E0FF9001A7E0FCA371
:1001F300E0C39FFFEC9EFE3395E0FDFCE4FB7A1029
:10020300F9F81243E5ECC0E0EDC0E0EEC0E0EFC06A
:10021300E0900157E0FEA3E0FFCBEFCBCAEECAE4C8
:10022300F9F8D0E0FFD0E0FED0E0FDD0E0FC126EA4
:10023300C1CDEFCDCCEECCD0E0FFD0E0FE1242B08A
:100243009002E2EEF0A3EFF0900155E0FEA3E0FF91
:100253009001A9E0FCA3E0FDC39FEC9E9002E4E0C3
:10026300FE5037A3E0FFEEC0E0EFC0E0900155E0A1
:10027300FEA3E0FFC3ED9FFFEC9EFE3395E0FDFC84
:10028300E4FB7A10F9F81243E5ECC0E0EDC0E0EED0
:10029300C0E0EFC0E090015D803BA3E0FFEEC0E073
:1002A300EFC0E0900155E0FEA3E0FF9001A9E0FC60
:1002B300A3E0C39FFFEC9EFE3395E0FDFCE4FB7AD5
:1002C30010F9F81243E5ECC0E0EDC0E0EEC0E0EF5A
:1002D300C0E0900159E0FEA3E0FFCBEFCBCAEECA2A
:1002E300E4F9F8D0E0FFD0E0FED0E0FDD0E0FC126E
:1002F3006EC1CDEFCDCCEECCD0E0FFD0E0FE12420C
:10030300B09002E4020495900153E0FEA3E0FF9055
:1003130001A7E0FCA3E0FDC39FEC9E9002E4E0FE96
:100323005037A3E0FFEEC0E0EFC0E0900153E0FEE2
:10033300A3E0FFC3ED9FFFEC9EFE3395E0FDFCE4DD
:10034300FB7A10F9F81243E5ECC0E0EDC0E0EEC033
:10035300E0EFC0E090015B803BA3E0FFEEC0E0EF85
:10036300C0E0900153E0FEA3E0FF9001A7E0FCA3EF
:10037300E0C39FFFEC9EFE3395E0FDFCE4FB7A10A7
:10038300F9F81243E5ECC0E0EDC0E0EEC0E0EFC0E9
:10039300E0900157E0FEA3E0FFCBEFCBCAEECAE447
:1003A300F9F8D0E0FFD0E0FED0E0FDD0E0FC126E23
:1003B300C1CDEFCDCCEECCD0E0FFD0E0FE1242B009
:1003C3009002E4EEF0A3EFF0900155E0FEA3E0FF0E
:1003D3009001A9E0FCA3E0FDC39FEC9E9002E2E044
:1003E300FE503EA3E0FFEEC0E0EFC0E0900155E019
:1003F300FEA3E0FFC3ED9FFFEC9EFEC3E49FFFE47B
:100403009EFE3395E0FDFCE4FB7A10F9F81243E518
:10041300ECC0E0EDC0E0EEC0E0EFC0E090015D8035
:1004230042A3E0FFEEC0E0EFC0E0900155E0FEA381
:10043300E0FF9001A9E0FCA3E0C39FFFEC9EFEC395
:10044300E49FFFE49EFE3395E0FDFCE4FB7A10F9A4
:10045300F81243E5ECC0E0EDC0E0EEC0E0EFC0E031
:10046300900159E0FEA3E0FFCBEFCBCAEECAE4F95B
:10047300F8D0E0FFD0E0FED0E0FDD0E0FC126EC18A
:10048300CDEFCDCCEECCD0E0FFD0E0FE1242B09069
:1004930002E2EEF0A3EFF09002E4E0FEA3E0FFD36C
:1004A3009400EE648094804002800F9002E4E0FEAA
:1004B300A3E0FFC3E49FFFE49EFE9002E2E0FCA3FF
:1004C300E0FDD39400EC648094804002800F90029E
:1004D300E2E0FCA3E0FDC3E49DFDE49CFCD3ED9FBF
:1004E300EE6480F8EC64809840259002E2E0FEA37D
:1004F300E0FFD39400EE6480948040028034900245
:10050300E2E0FEA3E0FFC3E49FFFE49EFE802390AE
:1005130002E4E0FEA3E0FFD39400EE648094804005
:1005230002800F9002E4E0FEA3E0FFC3E49FFFE438
:100533009EFECAEECACBEFCB900111E0FEA3E024EE
:10054300DCF582EE3401F583E493FF7E007C007DCD
:10055300151242B0C3EB9FFFEA9EFE9002E6F0A3A2
:10056300EFF0D39400EE64809480501AE4900294E8
:10057300F0A3F0900292F0A3F0900290F0A3F09019
:10058300028EF0A3F022900111E0FEA3E0FF24D439
:10059300F582EE3401F583E493540F24FE700302D5
:1005A300078E147003020AC3147003020FB92403E5
:1005B300600302150190028CE07002A3E060030265
:1005C3000798EF24DEF582EE3401F583E493701D82
:1005D300900111E0FEA3E024DFF582EE3401F58300
:1005E300E493700990028CF0A3F002071A900111B2
:1005F300E0FEA3E0FF24DEF582EE3401F583E4930D
:10060300FBEF24DFF582EE3401F583E493C39BFD16
:100613003395E0FC78039002E6E0FEA3E0CEA2E788
:1006230013CE13D8F8FF1242B0EEFD3395E0FCEB86
:1006330025E0FFE433FEED2FFFEC3E9002E6F0A34E
:10064300EFF0900292E0FEA3E0FFD39400EE64800B
:1006530094804002800F900292E0FEA3E0FFC3E487
:100663009FFFE49EFE9002E6E0FCA3E0FDD39FEE35
:100673006480F8EC648098500A900292ECF0A3ED49
:10068300F0806B900111E0FEA3E024DDF582EE34EF
:1006930001F583E4932401FDE433FC900292E0FE30
:1006A300A3E0FFC39002E7E09FFF9002E6E09EFE17
:1006B300124317EEF0A3EFF04E7010900293E00494
:1006C300F0701C900292E004F080149002E6E0FEC9
:1006D300A3E0FF900293E02FF0900292E03EF090AF
:1006E3000292E0FFA3E09002E6CFF0A3EFF09002C6
:1006F300E6E0FEA3E0FFC374649FFFE49EFE900266
:100703008CF0A3EFF0D39400EE64809480500890B3
:10071300028CE4F0A304F09002E2E0FEA3E0FFA366
:10072300E0FCA3E0FDD39FEE6480F8EC6480984086
:1007330026E49FFFE49EFED3ED9FEE6480F8EC6415
:100743008098900111E0FE4007A3E024D7020AB489
:10075300A3E024D9020AB49002E2E0FEA3E0FFC3BF
:10076300E49FFFE49EFED39002E5E09FEE6480F8F1
:100773009002E4E0648098900111E0FE4006A3E05B
:1007830024DA8004A3E024D8020AB490028CE07037
:1007930002A3E0600F90028DE024FFF090028CE052
:1007A30034FFF022900111E0FEA3E0FF24DEF58286
:1007B300EE3401F583E4937017EF24DFF582EE3412
:1007C30001F583E493700990028CF0A3F00208FD15
:1007D300900111E0FEA3E0FF24DEF582EE3401F583
:1007E30083E493FBEF24DFF582EE3401F583E49396
:1007F300C39BFD3395E0FC78039002E6E0FEA3E0A3
:10080300CEA2E713CE13D8F8FF1242B0EEFD339514
:10081300E0FCEB25E0FFE433FEED2FFFEC3E90021E
:10082300E6F0A3EFF0900292E0FEA3E0FFD3940082
:10083300EE648094804002800F900292E0FEA3E079
:10084300FFC3E49FFFE49EFE9002E6E0FCA3E0FD0D
:10085300D39FEE6480F8EC648098500A900292EC87
:10086300F0A3EDF0806B900111E0FEA3E024DDF531
:1008730082EE3401F583E4932401FDE433FC90021A
:1008830092E0FEA3E0FFC39002E7E09FFF9002E641
:10089300E09EFE124317EEF0A3EFF04E70109002AD
:1008A30093E004F0701C900292E004F08014900234
:1008B300E6E0FEA3E0FF900293E02FF0900292E0C7
:1008C3003EF0900292E0FFA3E09002E6CFF0A3EFA8
:1008D300F09002E6E0FEA3E0FFC374649FFFE49E92
:1008E300FE90028CF0A3EFF0D39400EE648094802A
:1008F300500890028CE4F0A304F09002E2E0FEA31F
:10090300E0FF7C007D031242B0CAEECACBEFCBA35B
:10091300E0FEA3E0FF7D071242B0D3EF9BEA6480C1
:10092300F8EE648098403C9002E2E0FEA3E0FFE42E
:100933009FFFE49EFE7D031242B0CAEECACBEFCB0B
:10094300A3E0FEA3E0FF7D071242B0D3EF9BEA646E
:1009530080F8EE648098400B900111E0FEA3E02440
:10096300D780689002E2E0FEA3E0FF7C007D0312E3
:1009730042B0CAEECACBEFCBA3E0FEA3E0FF7D07F4
:100983001242B0C3EF9BEA6480F8EE648098504A49
:100993009002E2E0FEA3E0FFC3E49FFFE49EFE7D3E
:1009A300031242B0CAEECACBEFCBA3E0FEA3E0FF33
:1009B3007D071242B0C3EF9BEA6480F8EE6480982F
:1009C3005018900111E0FEA3E024D8F582EE340123
:1009D300F583E493FD7FFF1264929002E2E0FEA3AD
:1009E300E0FF7C007D071242B0CAEECACBEFCBA377
:1009F300E0FEA3E0FF7D031242B0D3EF9BEA6480E5
:100A0300F8EE648098403C9002E2E0FEA3E0FFE44D
:100A13009FFFE49EFE7D071242B0CAEECACBEFCB26
:100A2300A3E0FEA3E0FF7D031242B0C3EF9BEA64A1
:100A330080F8EE648098500B900111E0FEA3E0244F
:100A4300D9806E9002E2E0FEA3E0FF7C007D0712F6
:100A530042B0CAEECACBEFCBA3E0FEA3E0FF7D0317
:100A63001242B0C3EF9BEA6480F8EE6480984003BF
:100A73000215019002E2E0FEA3E0FFC3E49FFFE45E
:100A83009EFE7D071242B0CAEECACBEFCBA3E0FEB7
:100A9300A3E0FF7D031242B0D3EF9BEA6480F8EE3C
:100AA3006480985003021501900111E0FEA3E02435
:100AB300DAF582EE3401F583E493FD7FFF0264925D
:100AC300900111E0FEA3E024DFF582EE3401F5830B
:100AD300E493FB3395E0FA78039002E2E0FEA3E0AF
:100AE300CEA2E713CE13D8F8FFCDEBCDCCEACC12D0
:100AF30042B07804EFCEA2E713CE13D8F8FF9002EA
:100B0300E2EEF0A3EFF07803A3E0FEA3E0CEA2E7CA
:100B130013CE13D8F8FFCDEBCDCCEACC1242B0788C
:100B230004EFCEA2E713CE13D8F8FF9002E4EEF061
:100B3300A3EFF0900292E0FEA3E0FFD39400EE64F3
:100B43008094804002800F900292E0FEA3E0FFC3F6
:100B5300E49FFFE49EFE9002E2E0FCA3E0FDD39459
:100B630000EC648094804002800F9002E2E0FCA3DA
:100B7300E0FDC3E49DFDE49CFCD3ED9FEE6480F8AF
:100B8300EC6480985002802E900292E0FEA3E0FF76
:100B9300D39400EE648094804002800F900292E030
:100BA300FEA3E0FFC3E49FFFE49EFED3EF9420EE99
:100BB3006480948340129002E2E0FFA3E0900292EB
:100BC300CFF0A3EFF0020CE7900292E0FEA3E0FF68
:100BD300D39400EE6480948040028007C3E49FFFB7
:100BE300E49EFECCEECCCDEFCD900111E0FAA3E074
:100BF300FB24DEF582EA3401F583E49375F00AA45D
:100C0300FFD3ED9FE5F06480F8EC648098405DEBE2
:100C130024DDF582EA3401F583E4932401FDE43312
:100C2300FC900292E0FEA3E0FF9002E2E0FAA3E070
:100C3300FBC39FFFEA9EFE1243179002E6EEF0A36A
:100C4300EFF04E6003020CD3C3EA64809480500734
:100C53007EFF7FFF020CDBD3EB9400EA6480948079
:100C63007E0040047F0180027F00806C900111E0D0
:100C7300FEA3E024DDF582EE3401F583E49375F001
:100C83000AA42401FDE435F0FC900292E0FEA3E007
:100C9300FF9002E2E0FAA3E0FBC39FFFEA9EFE128D
:100CA30043179002E6EEF0A3EFF04E7023C3EA641D
:100CB30080948050067EFF7FFF8013D3EB9400EA7D
:100CC300648094807E0040047F0180027F0080085E
:100CD3009002E6E0FEA3E0FF900293E02FF0900283
:100CE30092E03EF0900294E0FEA3E0FFD39400EE86
:100CF300648094804002800F900294E0FEA3E0FFA2
:100D0300C3E49FFFE49EFE9002E4E0FCA3E0FDD376
:100D13009400EC648094804002800F9002E4E0FC35
:100D2300A3E0FDC3E49DFDE49CFCD3ED9FEE648052
:100D3300F8EC6480985002802E900294E0FEA3E0C9
:100D4300FFD39400EE648094804002800F9002945D
:100D5300E0FEA3E0FFC3E49FFFE49EFED3EF9420F5
:100D6300EE6480948340129002E4E0FFA3E09002DB
:100D730094CFF0A3EFF0020E93900294E0FEA3E071
:100D8300FFD39400EE6480948040028007C3E49F05
:100D9300FFE49EFECCEECCCDEFCD900111E0FAA3A3
:100DA300E0FB24DEF582EA3401F583E49375F00A6F
:100DB300A4FFD3ED9FE5F06480F8EC648098405A7B
:100DC300EB24DDF582EA3401F583E4932401FDE4A9
:100DD30033FC900294E0FEA3E0FF9002E4E0FAA368
:100DE300E0FBC39FFFEA9EFE124317A3EEF0A3EFBF
:100DF300F04E6003020E7FC3EA6480948050067E47
:100E0300FF7FFF807FD3EB9400EA648094807E00B1
:100E130040047F0180027F00806A900111E0FEA3FD
:100E2300E024DDF582EE3401F583E49375F00AA442
:100E33002401FDE435F0FC900294E0FEA3E0FF9072
:100E430002E4E0FAA3E0FBC39FFFEA9EFE1243170E
:100E5300A3EEF0A3EFF04E7023C3EA6480948050B6
:100E6300067EFF7FFF8013D3EB9400EA64809480B7
:100E73007E0040047F0180027F0080089002E6E04C
:100E8300FEA3E0FF900295E02FF0900294E03EF085
:100E9300900292E0FEA3E0FF90028FE02FF0900219
:100EA3008EE03EF0900294E0FEA3E0FF900291E01A
:100EB3002FF0900290E03EF090028EE0FEA3E0FF60
:100EC300D39440EE64809460400280047EE07F40CF
:100ED300C3EF94C0EE6480949F501990028EE0FE9D
:100EE300A3E0FF9440EE648094604002800A7EE0B9
:100EF3007F4080047E1F7FC090028EEEF0A3EFF050
:100F0300A3E0FEA3E0FFD39440EE6480946040022C
:100F130080047EE07F40C3EF94C0EE6480949F50D2
:100F230019900290E0FEA3E0FF9440EE6480946089
:100F33004002800A7EE07F4080047E1F7FC09002D3
:100F430090EEF0A3EFF090028EE0FCA3E0FD7806B4
:100F5300CEECCECEA2E713CE13D8F8900301F078EF
:100F630006900290E0FEA3E0CEA2E713CE13D8F8DA
:100F7300F404F9900302F0900301E0FF3395E0FEDF
:100F83007806EFC333CE33CED8F9FFC3ED9FFFEC22
:100F93009E90028EF0A3EFF0E9FF3395E0FE780612
:100FA300EFC333CE33CED8F9FF900291E02FF09008
:100FB3000290E03EF02290028EE0FEA3E0FF90025A
:100FC300E2E0FCA3E0FDC39FFFEC9EFE7802EFCEC0
:100FD300A2E713CE13D8F8FF9002E6EEF0A3EFF0EA
:100FE3004E7023C3EC6480948050067EFF7FFF80A5
:100FF3001DD3ED9400EC648094807E0040047F0157
:1010030080027F0080089002E6E0FEA3E0FF9002EA
:101013008FE02FF090028EE03EF0900290E0FEA36E
:10102300E0FF9002E4E0FCA3E0FDC39FFFEC9EFE23
:101033007802EFCEA2E713CE13D8F8FF9002E6EEC4
:10104300F0A3EFF04E7023C3EC6480948050067ECF
:10105300FF7FFF801DD3ED9400EC648094807E00BD
:1010630040047F0180027F0080089002E6E0FEA337
:10107300E0FF900291E02FF0900290E03EF09002AA
:10108300E2E0FAA3E0FBD39400EA64809480900149
:1010930011E0FE4006A3E024DA8004A3E024D9F59E
:1010A30082EE3401F583E493FF900292E4F0A3EF20
:1010B300F0D3ED9400EC64809480900111E0FE4045
:1010C30006A3E024D78004A3E024D8F582EE3401FC
:1010D300F583E493FF900294E4F0A3EFF09002927F
:1010E300E0FEA3E0FFC3941EEE648094804017D318
:1010F300EF9427EE64809480500CEF25E0FFEE33ED
:10110300FEEF24C68027900292E0FEA3E0FFC39483
:1011130059EE648094804022D3EF9462EE6480940D
:10112300805017EF25E0FFEE33FEEF244FFFEE3440
:10113300FF900292F0A3EFF08007E4900292F0A3F5
:10114300F0900294E0FEA3E0FFC3941EEE6480944B
:10115300804017D3EF9427EE64809480500CEF25E2
:10116300E0FFEE33FEEF24C68027900294E0FEA357
:10117300E0FFC39459EE648094804022D3EF9462DD
:10118300EE648094805017EF25E0FFEE33FEEF24EA
:101193004FFFEE34FF900294F0A3EFF08007E4904A
:1011A3000294F0A3F0D3EB9401EA64809470400AB4
:1011B3009002E2E0FEA3E0FF80047EF07F01C3EF34
:1011C30094FFEE6480948F50199002E2E0FEA3E056
:1011D300FF9401EE648094704002800A7EF07F01E8
:1011E30080047E0F7FFF9002E2EEF0A3EFF0D3EDD9
:1011F3009401EC648094704008A3E0FEA3E0FF80B8
:10120300047EF07F01C3EF94FFEE6480948F501946
:101213009002E4E0FEA3E0FF9401EE64809470404A
:1012230002800A7EF07F0180047E0F7FFF9002E43C
:10123300EEF0A3EFF0900292E0FEA3E0FFCBEFCB42
:10124300CAEECAEA3395E0F9F890028EE0FEA3E015
:10125300FFEE3395E0FDFC1243E5C8ECC8C9EDC9C8
:10126300CAEECACBEFCB900111E0FEA3E024DFF579
:1012730082EE3401F583E493FFE4FCFDFE1243E5C3
:10128300E47B7DFAF9F8126EC1900292EEF0A3EFBF
:10129300F0A3E0FEA3E0FFEE3395E0FDFC12450270
:1012A300C8ECC8C9EDC9CAEECACBEFCB900290E037
:1012B300FEA3E0FFEE3395E0FDFC1243E5C8ECC866
:1012C300C9EDC9CAEECACBEFCB900111E0FEA3E092
:1012D30024DFF582EE3401F583E493FFE4FCFDFEA5
:1012E3001243E5E47B7DFAF9F8126EC1900294EEA5
:1012F300F0A3EFF0900111E0FEA3E024DDF582EE10
:101303003401F583E493FFE4FCFDFE7BFF7A7FF970
:10131300F81243E5E47B32FAF9F8126EC19002E267
:10132300EEF0A3EFF0900111E0FEA3E024DEF582DE
:10133300EE3401F583E493FFE4FCFDFE7BFF7A7F4B
:10134300F9F81243E5E47B32FAF9F8126EC1900220
:10135300E4EEF0A3EFF0D3900293E09400900292B6
:10136300E06480948040479002E2E0FEA3E0FFCB7C
:10137300EFCBCAEECAEA3395E0F9F8900292E0FEA9
:10138300A3E0FFEE3395E0FDFCEB2FFFEA3EFEE921
:101393003DFDE83CFCE47BFF7A7FF9F8C31245107E
:1013A300500C9002E2747FF0A374FFF08055C39059
:1013B3000292E06480948050369002E2E0FEA3E063
:1013C300FFCBEFCBCAEECAEA3395E0F9F89002926D
:1013D300E0FEA3E0FFEE3395E0FDFCEB2FEA3EE9F0
:1013E3003DE83C335009E49002E2F0A3F08014900E
:1013F3000292E0FEA3E0FF9002E3E02FF09002E20E
:10140300E03EF0D3900295E09400900294E0648073
:10141300948040479002E4E0FEA3E0FFCBEFCBCA09
:10142300EECAEA3395E0F9F8900294E0FEA3E0FFF8
:10143300EE3395E0FDFCEB2FFFEA3EFEE93DFDE8D0
:101443003CFCE47BFF7A7FF9F8C3124510500C9003
:1014530002E4747FF0A374FFF08056C3900294E01B
:101463006480948050379002E4E0FEA3E0FFCBEF6A
:10147300CBCAEECAEA3395E0F9F8900294E0FEA3F2
:10148300E0FFEE3395E0FDFCEB2FFFEA3EE93DE89C
:101493003C335009E49002E4F0A3F08014900294EA
:1014A300E0FEA3E0FF9002E5E02FF09002E4E03ECF
:1014B300F09002E2E0FCA3E0FDCFEDCF900307F054
:1014C300ECFFEFA3F09002E4E0FCA3E0FDCFEDCF4F
:1014D300900309F0ECFFEFA3F09003067411F09072
:1014E300028CE07002A3E07F0070027F017E009017
:1014F300028CEEF0A3EFF025E014900301F022E458
:101503009002E2F0A374FFF0E4A3F0A3F0EF603ADB
:1015130090027CE0FEA3E0F5828E8374F493D3946F
:1015230000500F7E007F107D007B017A02796C12E0
:1015330045D390027CE0FEA3E0F5828E8374F4939E
:10154300D394015005E4900216F09001FDA3A3A3E8
:10155300E0FF900217E0FEC3EF9EC3941450030212
:1015630021F6E02414F0900216E0540FFFBF021A94
:101573007403F09001FDA3A3E0FFA3E0900214CF56
:10158300F0A3EFF090021874FFF0900216E0540FEE
:10159300FFBF03349001FDA3A3E0FEA3E0FF90028D
:1015A30014E0FCA3E0FDC3EF9DFFEE9CFE90027CE4
:1015B300E0FCA3E0F5828C83C374FB939F74FA93DE
:1015C3009E5005E4900216F0900216E0540F60035B
:1015D3000216E904F09001FDA3A3E0FFA3E090024B
:1015E30014CFF0A3EFF0E4900218F090027CE0FE39
:1015F300A3E0F5828E8374F693FF700990021A7448
:10160300C8F00216E9EFD39404501F90027CE0FE69
:10161300A3E0F5828E8374F6931475F008A4FD7429
:10162300F5932D90021AF00216E990027CE0FEA3D6
:10163300E0FFF5828E8374F693B4053C90021A742E
:1016430064F0EF2490FFE43EFECAEECAC9EFC97B03
:10165300FFEBC0E0EAC0E0E9C0E0C8744CC8CC745A
:1016630002CCCD7401CDD0E0F9D0E0FAD0E0FB7E1E
:10167300007F10124229806E90027CE0FEA3E0F509
:10168300828E8374F693FDB4060A90021AE0045422
:101693001FF08052EDB4072190021AE02408F0E015
:1016A300FFC394274004E4F0803CEFC3942040360A
:1016B30090021AE024E1F0802D90027CE0FEA3E08A
:1016C300F5828E8374F693B4081C126D99AD8AEF7C
:1016D3006DFF7C007D201243178D1890021AE06580
:1016E3001860E7E518F0900216E0540F64017045A6
:1016F3009001FDA3A3E0FEA3E0FF900214E0FCA38E
:10170300E0FDC3EF9DFDEE9CFC90027CE0FAA3E0BC
:10171300F5828A83C374F9939D74F8939C50169051
:10172300021AE064C8600E900214EEF0A3EFF0908A
:101733000218E004F090021AE0FFC394205034EF43
:1017430075F010A4242AF9747535F0FA7BFFEBC009
:10175300E0EAC0E0E9C0E0C8744CC8CC7402CCCD68
:101763007401CDD0E0F9D0E0FAD0E0FB7E007F1029
:1017730012422990027CE0FEA3E0FFCAEECAC9EF41
:10178300C97BFFEBC0E0EAC0E0E9C0E0C8741CC855
:10179300CC7402CCCD7401CDD0E0F9D0E0FAD0E026
:1017A300FB7E007F30124229E4F51790027CE0FEB5
:1017B300A3E0F5828E8374F79370030218FDE51797
:1017C30075F003A4241CF582E43402F583E0FFE5FD
:1017D3001775F003A4241DF582E43402F583E0FDBC
:1017E300E51775F003A4241EF582E43402F583E0C3
:1017F300C0E09002EF7401F0A37402F0A374E6F06A
:10180300A37401F0A37402F0A374E8F0A37401F0CD
:10181300A37402F0A374EAF0D0E0FB125A0A900218
:101823007CE0FEA3E0F5828E8374F793FFCBEFCBCE
:10183300E4FAF9F89001FDE0FCA3E0FDA3E0FEA3C8
:10184300E0FF124470E47BEA7A03F9F8124470CCA7
:10185300E8CCCDE9CDCEEACECFEBCF9002E7E02FB7
:10186300F09002E6E03EF0C3A3E094EA9002E6E0E3
:101873009403400CA3E02416F09002E6E034FCF05D
:10188300E51775F003A4FFAEF0241CF974023EFAC9
:101893007B01EBC0E0EAC0E0E9C0E0741D2FF974FE
:1018A300023EFAEBC0E0EAC0E0E9C0E0741E2FF9A3
:1018B30074023EFA9002F8EBF0A3EAF0A3E9F0D049
:1018C300E0F9D0E0FAD0E09002F5F0A3EAF0A3E962
:1018D300F0D0E0F9D0E0FAD0E09002F2F0A3EAF021
:1018E300A3E9F09002E6E0FEA3E0FFA3E0FCA3E09F
:1018F300FDA3E0FAA3E0FB1254B590021AE064C81A
:101903006003021B6190027CE0FEA3E0F5828E83FC
:1019130074F893FE74F993FF4E7003021B61D3EFC7
:1019230094E8EE9403400280047E037FE87C037D09
:10193300E81242C2CAEECACBEFCB9001FDA3A3E0EB
:10194300FEA3E0FF900214E0FCA3E0FDC3EF9DFFC4
:10195300EE9CFECDEBCDCCEACC1242C27C037DEAF9
:101963001242C29002EAECF0A3EDF09002EAE0FE2C
:10197300A3E0FFC394F5EE9401402B74E99FF07448
:10198300039E9002EAF090027CE0FEA3E0F5828ED3
:101993008374FD93FF9002E4E4F0A3EFF09002164A
:1019A300E04480F0802D90027CE0FEA3E0F5828E7F
:1019B3008374FC93FF9002E4E4F0A3EFF09002162B
:1019C300E0B4810FE517B40F037402F0E49002EA68
:1019D300F0A3F0900216E0540F64016007E4900254
:1019E300EAF0A3F09002E4E07002A3E0705DF51862
:1019F30075F003E517A42518F582E435F0F583E5C2
:101A030082241CF582E5833402F583E0FF7E009097
:101A130002EAE0FCA3E0FD1245A6E47BF47A01F9B7
:101A2300F812447075F003E517A42518F582E43520
:101A3300F0F583E582241CF582E5833402F583EF18
:101A4300F00518E518B403A8021B589002E4E070EF
:101A530004A3E064016003021AE59002EAE0FEA336
:101A6300E0FF7C007DFF1245A6E47BF47A01F9F8E0
:101A730012447074AA2FF58274733EF583E493FFC6
:101A83009002EAE4F0A3EFF0E4F51875F003E5172C
:101A9300A42518F582E435F0F583E582241CF5824C
:101AA300E5833402F583E0FF7E009002EAE0FCA3C5
:101AB300E0FD1242B07C007DFF1242C275F003E5E7
:101AC30017A42518F582E435F0F583E582241CF587
:101AD30082E5833402F583EFF00518E518B403AB10
:101AE30080739002EAE0FEA3E024B5F58274713EB0
:101AF300F583E493FF9002EAE4F0A3EFF0E4F51832
:101B030075F003E517A42518F582E435F0F583E5B0
:101B130082241CF582E5833402F583E0FF7E009086
:101B230002EAE0FCA3E0FD1242B07C007DFF12421A
:101B3300C275F003E517A42518F582E435F0F583A3
:101B4300E582241CF582E5833402F583EFF0051862
:101B5300E518B403AB9002E27401F0021D41900258
:101B63001AE064C87003021D41744C2517F582E422
:101B73003402F583E0FF900218E0FEEF6E6003028B
:101B83001C7F9002E204F090027CE0FEA3E0F58269
:101B93008E8374FC93FFC3741F9FFFE49400FE9035
:101BA30002E4F0A3EFF0D3940AEE64809480401D26
:101BB3009002E4E0FEA3E0FF7C007D0A1242B0EF56
:101BC30024A6FFEE34FF9002E4F0A3EFF0746C253B
:101BD30017F582E43402F583E0FFC374FF9FFFE44B
:101BE3009400FE9002E4E0FCA3E0FDC39FEE64805A
:101BF300F8EC6480985013CFEDCF746C2517F58201
:101C0300E43402F583E02FF0800E746C2517F5821F
:101C1300E43402F58374FFF0E4F51875F003E51777
:101C2300A42518F582E435F0F583E582241CF582BA
:101C3300E5833402F583E0FF7E00746C2517F5829B
:101C4300E43402F583E09073AA93FD7C001242B062
:101C53007DFF1242C275F003E517A42518F582E44F
:101C630035F0F583E582241CF582E5833402F583A0
:101C7300EFF00518E518B403A2021D4190027CE0C1
:101C8300FEA3E0F5828E8374FD932401FDE433FC0F
:101C9300746C2517F582E43402F583E0FBFF7E00C4
:101CA3001243179002E4EEF0A3EFF0EB6011900201
:101CB300E4E07002A3E070079002E4F0A304F07480
:101CC3006C2517F582E43402F583C083C082E0FFFC
:101CD3009002E4A3E0FDCEEDCEC3EF9ED082D0838D
:101CE300F0E4F51875F003E517A42518F582E4353B
:101CF300F0F583E582241CF582E5833402F583E065
:101D0300FF7E00746C2517F582E43402F583E0FD51
:101D13007C001242B07DFF1242C275F003E517A4A6
:101D23002518F582E435F0F583E582241CF582E578
:101D3300833402F583EFF00518E518B403A6744065
:101D43002517F582E43401F583E07003021DDA9070
:101D5300027CE0FCA3E02517F582E43CF583746084
:101D6300932401FDE433FC745C2517F582E434020B
:101D7300F583E0FBFFC374FF9FFFE49400FE12436F
:101D8300179002E4EEF0A3EFF0C374FF9B60119091
:101D930002E4E07002A3E070079002E4F0A304F011
:101DA3009002E4A3E0FF745C2517F582E43402F5A6
:101DB30083E02FF090027CE0FCA3E02517F582E49A
:101DC3003CF583748093FF9002E3E0D39F500302BA
:101DD3001E9AEFF0021E9A90027CE0FCA3E0251706
:101DE300F582E43CF5837470932401FDE433FC74C1
:101DF3005C2517F582E43402F583E0FBFF7E0012D5
:101E030043179002E4EEF0A3EFF0EB60119002E4CD
:101E1300E07002A3E070079002E4F0A304F0745CA6
:101E23002517F582E43402F583C083C082E0FF9076
:101E330002E4A3E0FDCEEDCEC3EF9ED082D083F0CB
:101E4300E4F51875F003E517A42518F582E435F0D9
:101E5300F583E582241CF582E5833402F583E0FFF4
:101E6300900219E0FEEF8EF0A4FFAEF07C007DFF40
:101E73001242C275F003E517A42518F582E435F084
:101E8300F583E582241CF582E5833402F583EFF0C4
:101E93000518E518B403ACE4F518E51775F003A4C9
:101EA3007C002518FFEC35F0FE90027CE0FCA3E0FB
:101EB3002FF582EC3EF583743093FF75F003E5173D
:101EC300A42518F582E435F0F583E582241CF58218
:101ED300E5833402F583E0FDC3EF9DFFE49400FE48
:101EE300745C2517F582E43402F583E0FD7C00126F
:101EF30042B07DFF12431775F003E517A42518F5CB
:101F030082E435F0F583E582241CF582E58334020F
:101F1300F583E02FF00518E51864036003021E9DA6
:101F23000517E517C3941050030217AE9002E2E0C1
:101F3300700D900216E0540FFFBF01037402F0907E
:101F43000219E0FB9002E3E0FAD39B407490027C19
:101F5300E0FEA3E0F5828E8374FE93FF741F9FFF60
:101F6300E49400FE9002E4F0A3EFF0D3940AEE644D
:101F7300809480401D9002E4E0FEA3E0FF7C007D9E
:101F83000A1242B0EF24A6FFEE34FF9002E4F0A35E
:101F9300EFF0EBFFEAC39FFFE49400FE9002E4E05E
:101FA300FCA3E0FDC39FEE6480F8EC648098500BC3
:101FB300CFEDCF900219E02FF0805C9002E3E08038
:101FC30052900219E0FF9002E3E0FEC39F5048EEF7
:101FD300FDC3EF9DFFE49400FE90027CE0FCA3E0D0
:101FE300F5828C8374FF932401FDE433FC124317C1
:101FF3009002E4EEF0A3EFF04E70079002E4F0A33A
:1020030004F0900219E0FF9002E4A3E0FDCEEDCED0
:10201300C3EF9E900219F0900111E0FEA3E024FEAD
:10202300F582EE3401F583E493FF705EF517E5174F
:1020330075F003A4241CF582E43402F583E0FEE585
:102043001775F003A42425F8EEF6E51775F003A43D
:10205300241DF582E43402F583E0FEE51775F003F1
:10206300A42424F8EEF6E51775F003A4241EF582E4
:10207300E43402F583E0FEE51775F003A42426F8A3
:10208300EEF60517E517B410A522EF6403706AF5A1
:1020930017E5179078F79375F003A4241CF582E4F1
:1020A3003402F583E0FFE51775F003A42425F8EF68
:1020B300F6E5179078F79375F003A4241DF582E4F1
:1020C3003402F583E0FFE51775F003A42424F8EF49
:1020D300F6E5179078F79375F003A4241EF582E4D0
:1020E3003402F583E0FFE51775F003A42426F8EF27
:1020F300F60517E517B4109922900111E0FEA3E04D
:1021030024FEF582EE3401F583E493FF64027075D7
:10211300F517C37410951775F003A4241CF582E416
:102123003402F583E0FEE51775F003A42425F8EEE9
:10213300F6E517FDC374109DFDE49400FC90021DA9
:1021430075F003ED12459AEC75F003A42583F5832E
:10215300E0FEE51775F003A42424F8EEF690021EC2
:1021630075F003ED12459AEC75F003A42583F5830E
:10217300E0FEE51775F003A42426F8EEF60517E54F
:1021830017B4108E22EF64017069F517E517907884
:10219300E79375F003A4241CF582E43402F583E08D
:1021A300FFE51775F003A42425F8EFF6E5179078FB
:1021B300E79375F003A4241DF582E43402F583E06C
:1021C300FFE51775F003A42424F8EFF6E5179078DC
:1021D300E79375F003A4241EF582E43402F583E04B
:1021E300FFE51775F003A42426F8EFF60517E517A6
:1021F300B4109922E49002CEF0A3F0A3F0A3F090E0
:102203000328F0900326F0900325F09002FEF0C817
:1022130074AAC8CC7402CCCD7401CD7B017A037946
:1022230010FE7F151242297E007F157D007B017A07
:102233000379101245D3900300E09002A5F07E00CD
:102243007F047D007B017A0379001245D390030557
:102253007410F07E007F047DFF7B017A03790712FF
:1022630045D390030DE09002A7F0E490030DF090A6
:102273000000E0C43354E02411F582E43400F58314
:10228300E0FEA3E04E70037FFF2290029EE06048D1
:1022930024D4F582E43401F583E0602290029EE0C9
:1022A300243FF582E43401F583E070129002C0E02C
:1022B30054036003E014F09002C0E04404F0900281
:1022C300BFE07F0070027F019002BFEFF070030256
:1022D3002DCF123B25022DCFE49002D1F09002D1F5
:1022E300E0FFC39410400302239C74402FF582E463
:1022F3003401F583E07003022393900000E0C433BC
:1023030054E02411F582E43400F583C083C0829045
:1023130002D1E0D082D08375F00212459AE0FCA38B
:10232300E0F5828C83740193FEB4010E9002A8E061
:10233300FDEF6D60059002CE8053EEB40211900262
:10234300A8E0FF9002D1E06F60059002CF803E903D
:102353000000E0C43354E02411F582E43400F58333
:10236300C083C0829002D1E0FFD082D08375F00297
:1023730012459AE0FCA3E0F5828C83740193B407C1
:102383000F9002A8E0FEEF6E60069002D0E004F02A
:102393009002D1E004F00222E0E49002D1F0900236
:1023A300D1E0FFC3941040030229AC9002A8E0FEE1
:1023B300EF6E70549002D1E02440F582E43401F5CD
:1023C30083E060030229A374D52FF582E43401F579
:1023D30083E060030229A39002A1E004F0E0D39418
:1023E3000A50030229A3E4F09002D1E02403FF90F2
:1023F30002A6E0FD1264929002A4E0FF126893909B
:1024030002A874FFF00229A39002D1E0FF2440F553
:1024130082E43401F583E07003022881900000E038
:10242300C43354E02411F582E43400F58375F002DB
:10243300EF12459AE0FEA3E0FFF5828E83740193C9
:10244300B401061264810229A3900000E0C433544E
:10245300E02411F582E43400F583C083C082900246
:10246300D1E0D082D08375F00212459AE0FEA3E05A
:10247300FFF5828E8374019364027040126481902D
:102483000310E0FF900000E0C43354E02411F58210
:10249300E43400F583C083C0829002D1E0D082D0BF
:1024A3008375F00212459AE0FCA3E0F5828C8374F5
:1024B3000393FEEF4E900310F00229A3900000E077
:1024C300C43354E02411F582E43400F583C083C09F
:1024D300829002D1E0FFD082D08375F00212459A38
:1024E300E0FCA3E0FDF5828C8374019364037055D3
:1024F3009002CEE060030229A3A3E060030229A3B4
:10250300A3E060030229A374D52FF582E43401F517
:1025130083E060030229A39002D1E00490029EF0BD
:10252300ED2403FEE43C9002A2F0A3CEF0E490027B
:102533009CF0A3F09002C07402F09002BF14F0125A
:102543003B250229A3900000E0C43354E02411F595
:1025530082E43400F583C083C0829002D1E0D0824C
:10256300D08375F00212459AE0FEA3E0F5828E83D4
:10257300740193FF64046008EF640560030227108D
:102583009002D1E0FF24D5F582E43401F583E070B5
:102593000D74012FF582E43400F5837402F090008A
:1025A30000E0C43354E02411F582E43400F583C021
:1025B30083C0829002D1E0D082D08375F0021245AD
:1025C3009AE0FEA3E02402FFE43E8F82F583E493C6
:1025D300FE740193FFE4FCFDFB7A80F9F81243E5F6
:1025E300ECC0E0EDC0E0EEC0E0EFC0E0900111E030
:1025F300FEA3E024FAF582EE3401F583E493FE743E
:102603000193FFCBEFCBCAEECAE4F9F8D0E0FFD0D9
:10261300E0FED0E0FDD0E0FC126EC19002D2EEF0FD
:10262300A3EFF0900000E0C43354E02411F582E4FA
:102633003400F583C083C0829002D1E0D082D0837E
:1026430075F00212459AE0FEA3E02404FFE43E8FF6
:1026530082F583E493FE740193FFE4FCFDFB7A802F
:10266300F9F81243E5ECC0E0EDC0E0EEC0E0EFC0E6
:10267300E0900111E0FEA3E024FCF582EE3401F5C5
:1026830083E493FE740193FFCBEFCBCAEECAE4F964
:10269300F8D0E0FFD0E0FED0E0FDD0E0FC126EC148
:1026A3009002D4EEF0A3EFF09002D2E0FCA3E0FDA1
:1026B300CFEDCF900307F0ECA3F09002D4E0FCA39E
:1026C300E0FDCFEDCF900309F0ECA3F0900000E024
:1026D300C43354E02411F582E43400F583C083C08D
:1026E300829002D1E0FFD082D08375F00212459A26
:1026F300E0FCA3E0F5828C83740193B40507900397
:1027030005E04401F0900306EFF00229A3900000D6
:10271300E0C43354E02411F582E43400F583C0832C
:10272300C0829002D1E0FFD082D08375F0021245BF
:102733009AE0FCA3E0F5828C837401936406600342
:1027430002281874039320E7030229A39002A8E048
:10275300F460030229A374D52FF582E43401F583D1
:10276300E060030229A3900000E0C43354E0241185
:10277300F582E43400F583C083C0829002D1E0D0B7
:1027830082D08375F00212459AE0FCA3E0FDF58246
:102793008C837402939002A6F0900000E0FF0490F3
:1027A30002A4F074132FF582E43401F583E0900260
:1027B300D6F08D828C83740393FF1268939000008C
:1027C300E02413F582E43401F583E02404FF90024E
:1027D300D6E0FEC3EF9E5403FF70069002D1E08063
:1027E3002DEFB4010A9002D1E09078E793801FEFB8
:1027F300B4020B9002D1E0FFC374109F8010EF640A
:102803000360030229AC9002D1E09078F793900221
:10281300A8F00229AC900000E0C43354E02411F581
:1028230082E43400F583C083C0829002D1E0FFD0FC
:1028330082D08375F00212459AE0FCA3E0FDF58295
:102843008C83740193640760030229A374D52FF565
:1028530082E43401F583E060030229A38D828C8333
:1028630074039330E0030229A39002D1E02401F51D
:1028730082E43400F583E04402F0EF022978900209
:10288300D1E0FF24D5F582E43401F583E0FE700343
:102893000229A3900000E0C43354E02411F582E43C
:1028A3003400F58375F002EF12459AE0FCA3E0F5DE
:1028B300828C83740193FFB40519EE70030229A37C
:1028C3009002D1E02401F582E43400F5837401F031
:1028D3000229A3EF64067041900000E0C43354E082
:1028E3002411F582E43400F583C083C0829002D1C1
:1028F300E0D082D08375F00212459AE0FEA3E0F5A2
:10290300828E83740393FF30E7030229A39002A806
:1029130074FFF01268930229A3900000E0C43354BB
:10292300E02411F582E43400F583C083C082900271
:10293300D1E0FFD082D08375F00212459AE0FCA368
:10294300E0F5828C83740193FE6407704C740393E7
:1029530030E03374012FF582E43400F583E0FF2087
:10296300E1249002D1E0FD2401F582E43400F583F3
:10297300EF4402F0ED25E0241BF582E43401F583F6
:10298300E4F0A3F0801A9002D1E02401F582E4344C
:1029930000F583E054FDF08007EEB408037F0122C5
:1029A3009002D1E004F00223A1E49002D1F090025E
:1029B300D1E0FFC394104003022BCA900000E0C48F
:1029C3003354E02411F582E43400F58375F002EF0B
:1029D30012459AE0FEA3E0F5828E83740193FF64AF
:1029E300046008EF64056003022BC1900000E0C49B
:1029F3003354E02411F582E43400F583C083C082AC
:102A03009002D1E0D082D08375F00212459AE0FEA5
:102A1300A3E0F5828E83740393FF64016008EF647F
:102A2300026003022BC1900000E0C43354E0241180
:102A3300F582E43400F583C083C0829002D1E0D0F4
:102A430082D08375F00212459AE0FEA3E02402FFD0
:102A5300E43E8F82F583E493FE740193FFE4FCFD6F
:102A6300FB7A80F9F81243E5ECC0E0EDC0E0EEC07C
:102A7300E0EFC0E0900111E0FEA3E024FAF582EE5E
:102A83003401F583E493FE740193FFCBEFCBCAEEDD
:102A9300CAE4F9F8D0E0FFD0E0FED0E0FDD0E0FCDE
:102AA300126EC19002D2EEF0A3EFF0900000E0C4EA
:102AB3003354E02411F582E43400F583C083C082EB
:102AC3009002D1E0D082D08375F00212459AE0FEE5
:102AD300A3E02404FFE43E8F82F583E493FE7401B4
:102AE30093FFE4FCFDFB7A80F9F81243E5ECC0E0C8
:102AF300EDC0E0EEC0E0EFC0E0900111E0FEA3E026
:102B030024FCF582EE3401F583E493FE740193FF14
:102B1300CBEFCBCAEECAE4F9F8D0E0FFD0E0FED0A9
:102B2300E0FDD0E0FC126EC19002D4EEF0A3EFF012
:102B33009002D2E0FCA3E0FDCFEDCF900307F0ECD1
:102B4300A3F09002D4E0FCA3E0FDCFEDCF90030906
:102B5300F0ECA3F09002D1E0FF900306F0900000A8
:102B6300E0C43354E02411F582E43400F58375F0B6
:102B730002EF12459AE0FEA3E0F5828E837403937D
:102B8300640270240493900305B40506E04401F045
:102B93008004E054FEF09002D1E02401F582E43495
:102BA30000F5837403F0801FE4900305F09002D1D5
:102BB300E02401F582E43400F583E4F08009900217
:102BC300D1E004F00229B1E49002D7F09002D1F0F1
:102BD3009002D1E0FFC394104003022DB390000094
:102BE300E0C43354E02411F582E43400F58375F036
:102BF30002EF12459AE0FEA3E0F5828E83740193FF
:102C030064076003022DAA9001FDE0FCA3E0FDA38D
:102C1300E0FEA3E0FF90027EE0F8A3E0F9A3E0FA70
:102C2300A3E0FBD312452640369002D1E0FF25E016
:102C3300241BF582E43401F583E4F0A3F074012F3F
:102C4300F582E43400F583E054FBF09002D1E024F4
:102C530001F582E43400F583E054FDF0022DAA90DF
:102C630002D1E0FF2401F582E43400F583E020E1A2
:102C730003022DAA900000E0C43354E02411F5822E
:102C8300E43400F58375F002EF12459AE0FEA3E009
:102C9300FF2404FDE43E8D82F583E493FC740193E9
:102CA3004C7006126481022D739002D1E0FF24015F
:102CB300F582E43400F583E0FE30E21174012FF570
:102CC30082E43400F583EE54FBF0022D739001FD92
:102CD300A3A3E0FEA3E0FF9002D1E025E0241BF5CF
:102CE30082E43401F583E0FCA3E0FDC3EF9DFFEE36
:102CF3009CFE900000E0C43354E02411F582E434D8
:102D030000F583C083C0829002D1E0D082D0837566
:102D1300F00212459AE0FCA3E0FD2404FBE43C8BA3
:102D230082F583E493FA740193D39FEA9E50419012
:102D330002D1E0FF8D828C83740293FDEF2403FFA5
:102D43001264929001FDA3A3E0FEA3E0FF9002D1E1
:102D5300E0FD25E0241BF582E43401F583EEF0A3C6
:102D6300EFF074012DF582E43400F583E04404F0C0
:102D7300900000E0C43354E02411F582E43400F5FC
:102D830083C083C0829002D1E0D082D08375F002E9
:102D930012459AE0FEA3E0F5828E8374039330E03C
:102DA300069002D7E004F09002D1E004F0022BD3A6
:102DB3009001FDE0FCA3E0FDA3E0FEA3E0FF900291
:102DC3007E12455D9002D7E09002A0F0E4FF12006E
:102DD30066E4FF1252D290029EE07003125EFA90F4
:102DE30002D17401F09002D1E0FF240FF582E434A4
:102DF30003F583E0FE74A92FF582E43402F583E042
:102E03006E60089002FE7401F0800A9002D1E00423
:102E1300F0E0B416D09002A5E0FF900300E06F60ED
:102E230002801D9002D17402F09002D1E0FFC3949E
:102E330005501D74FF2FF582E43402F583E060082A
:102E43009003257401F080089002D1E004F080D94A
:102E53009002D17403F09002D1E0FFC39407501E97
:102E630074042FF582E43403F583E0F460089003DF
:102E7300267401F080089002D1E004F080D890021B
:102E8300A7E0FF90030DE06F60069003287401F044
:102E93009002A8E0F4601D9002FEE07012900325FA
:102EA300E0700C900326E07006900328E06005E4D0
:102EB3009002A6F090029FE0B40111E4900328F081
:102EC300900326F0900325F09002FEF07F0022C0CD
:102ED300E0C0F0C083C082C0D075D00820D90302FF
:102EE3003ADCE5D9543F7003023ACB14700302363F
:102EF3003714602E24E27003023A3E147003023644
:102F03002D24F170030236AA240E6003023AD87509
:102F1300D50063D440C20CE5D454FC4402F5D4027A
:102F23003AD820DE03023AD863D480AFDB9002C9DB
:102F3300E4F0A3EFF09002C9A3E0F5D590030BE012
:102F430030E75790057FE075F040A42400F974063C
:102F530035F0FAC8E9C8CCEACCCD7401CD7B017A4F
:102F63000579007E007F401242299005407452F09B
:102F7300A37444F090057FE0FF04F0900542EFF066
:102F830090057EE0FFA3E0C39F5003023627E4F0E1
:102F930090030BE0547FF00236279005407452F003
:102FA300900501E0900541F0900502E0900542F0A4
:102FB300900503E0900543F0900500E0B44410A3AE
:102FC300E0B44B0BA3E0B44206A3E06443601A9061
:102FD3000500E064447052A3E0644C704CA3E064C9
:102FE300547046A3E064437040900504E0C39431F9
:102FF3004037E0D394385031900501E090057EB41A
:103003004B0B7408F0900504E024D980097404F094
:10301300900504E024ED90030BF090057FE4F0901D
:10302300030BE04480F0023627900500E064437010
:1030330023A3E0B44B1EA3E0B45919A3E0B4541482
:10304300900544E514F0900504E0F514900545E57A
:1030530014023301900500E06443600302319CA332
:10306300E06452600302319CA3E0644B60030231CD
:103073009CA3E0644D600302319C900153E0FFA3E5
:10308300E0900544CFF0A3EFF0900155E0FFA3E0FB
:10309300900546CFF0A3EFF0900164E02401FF9088
:1030A3000163E03400FE9001A7E0FCA3E0FDD39FA1
:1030B300EC9E4008CEECCECFEDCF8000900160E0D7
:1030C30024FFFD90015FE034FFFCC3EF9DEE9C50B5
:1030D30026900164E02401FF900163E03400FE9038
:1030E30001A7E0FCA3E0FDD39FEC9E4008CEECCE0D
:1030F300CFEDCF8010800E900160E024FFFF9001A0
:103103005FE034FFFE900153EEF0A3EFF090016611
:10311300E02401FF900165E03400FE9001A9E0FC8A
:10312300A3E0FDD39FEC9E4008CEECCECFEDCF8045
:1031330000900162E024FFFD900161E034FFFCC3D5
:10314300EF9DEE9C5026900166E02401FF900165FF
:10315300E03400FE9001A9E0FCA3E0FDD39FEC9EC8
:103163004008CEECCECFEDCF8010800E900162E010
:1031730024FFFF900161E034FFFE900155EEF0A3C0
:10318300EFF0900153E0FDA3E0900548CDF0A3EDEF
:10319300F0A3EEF0A3EF023301900500E064436077
:1031A300030232BFA3E0645260030232BFA3E064B0
:1031B3004B60030232BFA3E0645A60030232BF9044
:1031C3000163E0FFA3E0900544CFF0A3EFF090018B
:1031D3005FE0FFA3E0900546CFF0A3EFF090016519
:1031E300E0FFA3E0900548CFF0A3EFF0900161E08A
:1031F300FFA3E090054ACFF0A3EFF0900504E0FEB3
:10320300A3E0FF900153E0FCA3E0FDC3EF9DEE9C20
:1032130040030232B4900506E0FEA3E09DEE9C500D
:10322300030232B4A3E0FEA3E0FF900155E0FCA348
:10323300E0FDEF9DEE9C507990050AE0FEA3E09D32
:10324300EE9C406D900504E0FFA3E0900163CFF096
:10325300A3EFF0900506E0FFA3E090015FCFF0A39A
:10326300EFF0900508E0FFA3E0900165CFF0A3EF36
:10327300F090050AA3E0FF900161EEF0A3EFF0A345
:10328300E0FDA3E090054CCDF0A3EDF090015FE0ED
:10329300FDA3E090054ECDF0A3EDF0900165E0FDB8
:1032A300A3E0900550CDF0A3EDF0A3EEF0A3EF80E3
:1032B3004D90054C74FFF0A3F0023627900500E013
:1032C30064437044A3E06445703EA3E064437038F4
:1032D300A3E064447032A20F33900544F0A210E4DB
:1032E30033A3F0900504E024FF920FA3E024FF92A0
:1032F30010A20FE433900546F0A210E433A3F0903C
:10330300030B7432F0023627900500E0B44313A395
:10331300E0B4450EA3E0B44309A3E064467003029E
:103323003627900500E064427028A3E064527022BF
:10333300A3E0B4531DA3E0B454187E007F3C7D206A
:103343007B017A0579441245D390030B7464F00230
:103353003627900500E064427028A3E0644270229F
:10336300A3E0B44F1DA3E0B454187E007F3C7D203E
:103373007B017A0579441245D390030B7465F002FF
:103383003627900500E064427028A3E0B44623A3E7
:10339300E0B4571EA3E0B45619C87444C8CC7405EE
:1033A300CCCD7401CD7BFF7A00790E7E007F0402C1
:1033B30035EC900500E06442600302350BA3E06442
:1033C30055600302350BA3E06449600302350BA388
:1033D300E06444600302350B90057DF090057DE0C9
:1033E300FF25E02430F582E43403F583E0FE7444E2
:1033F3002FF582E43405F583EEF090057DE0244457
:10340300F582E43405F583E0C39430402790057DCD
:10341300E02444F582E43405F583E0D39439501471
:1034230090057DE02444F582E43405F583E024D05F
:10343300F00234B890057DE02444F582E43405F5C8
:1034430083E0C39461402690057DE02444F582E443
:103453003405F583E0D39466501390057DE024444E
:10346300F582E43405F583E024A9F0804890057DD6
:10347300E02444F582E43405F583E0C39441402617
:1034830090057DE02444F582E43405F583E0D3948C
:1034930046501390057DE02444F582E43405F5831A
:1034A300E024C9F0800F90057DE02444F582E434E4
:1034B30005F583E4F090057DE004F0E0640C60031F
:1034C3000233DF90057DE4F090057DE0FF25E024E5
:1034D30044F582E43405F583E0C454F0FEEF25E0BF
:1034E3002445F582E43405F583E04EFF90057DE045
:1034F3002444F582E43405F583EFF090057DE00480
:10350300F0E0B406C3023627900500E0644260038E
:103513000235BFA3E0644960030235BFA3E06450F2
:1035230060030235BFA3E0645460030235BF90011A
:10353300A7E0FFA3E0900544CFF0A3EFF09001A92B
:10354300E0FFA3E0900546CFF0A3EFF0A312456997
:103553000000000090057DE4F0900548C083C08220
:10356300E0F8A3E0F9A3E0FAA3E0FBE8C0E0E9C0D8
:10357300E0EAC0E0EBC0E090057DE0F92440F5828D
:10358300E43401F583E0FFE4FCFDFEC8E9C812451D
:103593004AD0E0FBD0E0FAD0E0F9D0E0F8EB4FFFFF
:1035A300EA4EFEE94DFDE84CFCD082D08312455D26
:1035B30090057DE004F0E0B4139F8068900500E07F
:1035C3006442702AA3E0B44725A3E0B45020A3E0EB
:1035D300B44D1BC87444C8CC7405CCCD7401CD7BE9
:1035E300FF7ADA79007E007F38124229803690050F
:1035F30000E06442701CA3E0B44417A3E0B4471294
:10360300A3E0B4430D7B017A0579447D38127057EA
:1036130080129005407452F0A37449F0A3744EF0E5
:10362300A37456F053D4FC023AD875D30063D24046
:10363300C20B8068AFDB9002C9E4F0A3EFF0900205
:10364300C9E0FEA3E0FF4E6053D3EF9402EE940073
:10365300504A9002C9A3E0247FF58274053EF583A6
:10366300E0FF7E009002C9EEF0A3EFF07F0020E0C0
:10367300027F01EF24FFB3920A9002C9E0FEA3E0A8
:10368300FF7D0020E1027D01ED24FFB3920DEF7F6A
:103693000020E2027F01EF24FFB39209E5D254FC3C
:1036A3004402F5D2023AD875DCC0AFDB9002C9E41C
:1036B300F0A3EFF09002C9E07004A3E06408600394
:1036C300023A139004C7E0FE9004C6E07C00240095
:1036D300FFEC3E90032BF0A3EFF09002C9E4F0A3BC
:1036E300F09002C8F09004C1E090032DF09004C064
:1036F300E05460601A90032DE01424FD4003023A65
:103703001924FB24FD4003023A198000023A139066
:10371300032DE0B40B004003023A11903725F8283B
:1037230028730239E6023915023A11023965023A61
:10373300110238D2023746023A110238DE02390347
:10374300023A199004C3E024FE602B14604224E182
:10375300700302380C2421600302384B90034A742F
:10376300FFF0A37477F0A3743AF09002C9E4F0A3D6
:103773007412F002385190034A74FFF0A37478F086
:10378300A37491F09002C9E4F0A37449F002385194
:103793009004C2E014602714603D14605324036056
:1037A3000302384B90034A74FFF0A37477F0A374B9
:1037B3004CF09002C9E4F0A37404F0023851900372
:1037C3004A74FFF0A37477F0A37466F09002C9E41F
:1037D300F0A37424F0807790034A74FFF0A3747706
:1037E300F0A37450F09002C9E4F0A37416F0805E65
:1037F30090034A7401F0A37403F0A3742EF09002B3
:10380300C9E4F0A3741AF080459004C4E0FF701972
:1038130090034A74FFF0A37477F0A3748AF09002C4
:10382300C9E4F0A374E5F08025EFB4011990034ACD
:1038330074FFF0A37478F0A3746FF09002C9E4F0FE
:10384300A37422F0800880009002C874FFF09002F5
:10385300C9E0FEA3E0FFD390032CE09F90032BE08D
:103863009E4005EEF0A3EFF090032BE0FEA3E0FFF4
:10387300C39440EE9400400C7C007D40CEECCECF50
:10388300EDCF80009002C9EEF0A3EFF09002C9E003
:10389300FEA3E0FFC874C0C8CC7404CCCD7401CDC2
:1038A30090034AE0FBA3E0FAA3E0F9124229900255
:1038B300C9E0FEA3E0FFC390032CE09FF090032B2D
:1038C300E09EF090034BEE8FF012434D023A1990B5
:1038D30004C2E0FF90032BE4023A0B90032AE0902A
:1038E30004C0F0C390032CE0940190032BE09400F8
:1038F3005003023A199002C9E4F0A304F0023A1902
:103903009004C2E090032AF07003023A19D20E0227
:103913003A199004C0E0541FFF640270359004C448
:10392300E014601E1460202481600D14701EE5D421
:1039330054BC4402F5D4801AE5D254BC4402F5D2F7
:10394300801053D273800B53D47380069002C874D3
:10395300FFF0EF700A900329E054FEF0023A1902D7
:103963003A139004C0E0541FFD70269004C3E0FE98
:103973009004C2E0FBEB64014E701490789893308E
:10398300E50A900329E04401F0023A19023A138050
:103993007FED6402704B9004C3E0FE9004C2E0FD2F
:1039A300ED4E703B9004C5E0FE9004C4E0FDEDFFD6
:1039B300EE702AEF24FE60112481601714701EE557
:1039C300D454BF4403F5D4804DE5D4547F440CF55F
:1039D300D48043E5D254BF4403F5D280398031808B
:1039E3002F802D9004C1E4F09004C0F090032BE0ED
:1039F300FEA3E0FFC39402EE94009002C94008E4E2
:103A0300F0A37402F0800FEEF0A3EFF080088000C3
:103A13009002C874FFF09002C8E0B4FF0675DCCFD3
:103A2300023AD89002C9E0FEA3E0FF4E60048FDDA6
:103A3300800375DD0075DCC0023AD890032DE024C5
:103A4300FB606E14707A90032BE0FEA3E0FFC39437
:103A530040EE9400400C7C007D40CEECCECFEDCF09
:103A630080009002C9EEF0A3EFF09002C9E0FEA33C
:103A7300E0FFC874C0C8CC7404CCCD7401CD9003EE
:103A83004AE0FBA3E0FAA3E0F91242299002C9E05D
:103A9300FEA3E0FFC390032CE09FF090032BE09E76
:103AA300F090034BEE8FF012434D8FDD63DC4080CB
:103AB3002490032BA3E0FFE5E354804FF5E3800359
:103AC30075DD0075DC02800DAFDB9002C9E4F0A365
:103AD300EFF063DC80C2D9803E30D81F75DC0275FD
:103AE300D20275D40275E300C2DAC2D9C20EC20B88
:103AF300C20C900329E4F0C2D8801C30DA16C2DA73
:103B0300E5DA90032930E206E04402F08009E0544C
:103B1300FDF0800375D8FFD0D0D082D083D0F0D011
:103B2300E0329002D87403F09001FDE0FCA3E0FDC5
:103B3300A3E0FEA3E0FF900286E0F8A3E0F9A3E090
:103B4300FAA3E0FBD3124526400A9002821245698C
:103B5300000000009001FDE0FCA3E0FDA3E0FEA354
:103B6300E0FF90028612455D9001FDE0FCA3E0FDBD
:103B7300A3E0FEA3E0FF900282E0F8A3E0F9A3E054
:103B8300FAA3E0FBD3124526400C90029F7401F088
:103B9300E49002BFF022E490029FF09002DDF0A3D4
:103BA300F090029EE0FF603B900000E075F020A4DF
:103BB300240FF582E5F03400F58375F002EF12452A
:103BC3009AE0FEA3E0FFF5828E83740293FD7C00EE
:103BD300EF2403FFE43EFEEF2DFFEC3E9002DDF009
:103BE300A3EFF09002D8E0C394164003024158902B
:103BF30002DDE0FEA3E0FF9002A2E0FCA3E0FDC330
:103C03009FEC9E4004E402400F8D828C83E493FF7B
:103C1300B4EA37ED2401FBE43C8B82F583E493FEA5
:103C230054019002BFF0EE30E10F9002A3E02402B2
:103C3300F09002A2E03400F0229002A3E004F070BE
:103C4300069002A2E004F0024147EF64EB60030236
:103C53003D76ED2401FFE43C8F82F583E493FBB4CE
:103C6300021EED2404FEE43C90028AF0A3CEF09001
:103C730002A3E02404F09002A2E03400F0023BE649
:103C830090029DE004F0700690029CE004F0ED24A5
:103C930002FFE43C8F82F583E493FEED2403FDE40D
:103CA3003C8D82F583E493FDEDFF9002D9EEF0A302
:103CB300EFF0EB600B9002C0E030E204540360339A
:103CC3009002A2E0FEA3E02401FFE43E8F82F5838D
:103CD300E49370079002C0E020E2189002D9E0FE5E
:103CE300A3E0FF4E601490029CE0FCA3E0C39FECB2
:103CF3009E40079002C0E04480F09002C0E0FF3095
:103D0300E7279002A3E02403F09002A2E03400F03E
:103D1300EF547B9002C0F0E490029CF0A3F074FF98
:103D230090028AF0A3F002414790028AE0FEA3E0EA
:103D3300FFF47002EEF460069002A2EE8030900071
:103D430000E075F020A4240FF582E5F03400F5833C
:103D5300C083C08290029EE0D082D08375F00212AD
:103D6300459AE0FEA3E02403FFE43E9002A2F0A301
:103D7300EFF0229002A2E0FEA3E0F5828E83E493AB
:103D830064FE707C9002A2E0FCA3E0FD2401FFE44A
:103D93003C8F82F583E493FEED2402FDE43C8D82A7
:103DA300F583E493FDEDFF9002E0EEF0A3EFF0E482
:103DB300FCFD9001FDE0F8A3E0F9A3E0FAA3E02FF6
:103DC300FFEA3EFEED39FDEC38FC90028212455DC0
:103DD3009002A3E02402F09002A2E03400F09002EB
:103DE300DDE0FEA3E0FF9002A2E475F00112434D73
:103DF300FCEF65F07002EE6C600302415802400F65
:103E03009002A2E0FEA3E0F5828E83E493FC64FDBE
:103E130070619002D8E0FFD39403400302415890AD
:103E23000300E060030241589002A275F0011243BF
:103E33004D85F082F583E493FD1264929002A2E42F
:103E430075F00112434D85F082F583E493900310DE
:103E5300F09002DDE0FEA3E0FF9002A2E475F00122
:103E630012434DFAEF65F07002EE6A6003024158A7
:103E730002400FEC64EC60149002A2E0FEA3E0F5B4
:103E8300828E83E49364ED60030240149002D8E0D1
:103E9300D394034003024158900300E060030241BE
:103EA300589002A2E0FCA3E0FD2401FFE43C8F82D2
:103EB300F583E493FEED2402FDE43C8D82F583E477
:103EC30093FDEDFF9002D9EEF0FCA3EFF0CCCCCD47
:103ED300CD9002A2E0FAA3E0FB2403FFE43A8F8231
:103EE300F583E493FEEB2404FBE43A8B82F583E44D
:103EF30093FBEBFF9002DBEEF0A3EFF0CFEDCFCE21
:103F0300ECCEE4FCFDFB7A80F9F81243E5ECC0E06B
:103F1300EDC0E0EEC0E0EFC0E0900111E0FEA3E0F1
:103F230024FAF582EE3401F583E493FE740193FFE2
:103F3300CBEFCBCAEECAE4F9F8D0E0FFD0E0FED075
:103F4300E0FDD0E0FC126EC19002D9EEF0A3EFF0D9
:103F5300A3E0FEA3E0FFE4FCFDFB7A80F9F8124343
:103F6300E5ECC0E0EDC0E0EEC0E0EFC0E090011191
:103F7300E0FEA3E024FCF582EE3401F583E493FE36
:103F8300740193FFCBEFCBCAEECAE4F9F8D0E0FF9C
:103F9300D0E0FED0E0FDD0E0FC126EC19002DBEE7B
:103FA300F0A3EFF09002D9E0FCA3E0FDCFEDCF90BA
:103FB3000307F0ECA3F09002DBE0FCA3E0FDCFED00
:103FC300CF900309F0ECA3F09002A2E0FEA3E0F58A
:103FD300828E83E493B4ED07900305E04401F090EF
:103FE30002A3E02404F09002A2E03400F09002DD8A
:103FF300E0FEA3E0FF9002A2E475F00112434DFC42
:10400300EF65F07002EE6C600302415890029EF07F
:10401300229002A2E0FEA3E0F5828E83E49364FA89
:1040230060030240C69002DF7403F0F09002D8E010
:10403300FC9002DFE0FFC39C502A9002A2E0FAA3A7
:10404300E0F5828A83E493FE740F2FF582E4340350
:10405300F583E06E70069002DFF080089002DFE0E7
:1040630004F080C89002DFE070030241589003001F
:10407300E06003024158900310E060199002D8E019
:10408300FF04F09002A2E475F00112434D85F08223
:10409300F583024141EC640360030241589002D866
:1040A300E0FF04F09002A2E475F00112434D85F0A5
:1040B30082F583E493FD126492900310E04402F0CE
:1040C3000241479002DF7403F0F09002D8E0FC90C5
:1040D30002DFE0FFC39C502A9002A2E0FAA3E0F5BE
:1040E300828A83E493FE740F2FF582E43403F5830D
:1040F300E06E70069002DFF080089002DFE004F0CB
:1041030080C89002DFE0604D900300E070479003A9
:1041130010E070149002D8E0FF04F09002A2E0FADD
:10412300A3E0F5828A838016ECB403299002D8E0D9
:10413300FF04F09002A2E0FCA3E0F5828C83E493F9
:10414300FD1264929002A3E004F070069002A2E0D4
:1041530004F0023BE622E709F608DFFA8046E709A6
:10416300F208DFFA803E88828C83E709F0A3DFFA46
:104173008032E309F608DFFA8078E309F208DFFA10
:10418300807088828C83E309F0A3DFFA80648982DC
:104193008A83E0A3F608DFFA805889828A83E0A342
:1041A300F208DFFA804C80D280FA80C680D480691E
:1041B30080F28033801080A680EA809A80A880DA1B
:1041C30080E280CA803389828A83ECFAE493A3C8AD
:1041D300C582C8CCC583CCF0A3C8C582C8CCC5836F
:1041E300CCDFE9DEE7800D89828A83E493A3F608B6
:1041F300DFF9ECFAA9F0EDFB2289828A83ECFAE07D
:10420300A3C8C582C8CCC583CCF0A3C8C582C8CC1B
:10421300C583CCDFEADEE880DB89828A83E493A36B
:10422300F208DFF980CC88F0EF60010E4E60C3889E
:10423300F0ED2402B4040050B9F582EB2402B40477
:104243000050AF23234582239041A973BB010CE5A2
:104253008229F582E5833AF583E0225006E9258237
:10426300F8E622BBFE06E92582F8E222E58229F57B
:1042730082E5833AF583E49322BB010689828A832C
:10428300F0225002F722BBFE01F322F8BB010DE539
:104293008229F582E5833AF583E8F0225006E92581
:1042A30082C8F622BBFE05E92582C8F222EF8DF013
:1042B300A4A8F0CF8CF0A428CE8DF0A42EFE22BCAF
:1042C300000BBE0029EF8DF084FFADF022E4CCF8A3
:1042D30075F008EF2FFFEE33FEEC33FCEE9DEC9808
:1042E3004005FCEE9DFE0FD5F0E9E4CEFD22EDF88E
:1042F300F5F0EE8420D21CFEADF075F008EF2FFF31
:10430300ED33FD4007985006D5F0F222C398FD0F18
:10431300D5F0EA22C2D5EC30E709B2D5E4C39DFD5E
:10432300E49CFCEE30E715B2D5E4C39FFFE49EFEA8
:104333001242C2C3E49DFDE49CFC80031242C230DE
:10434300D507C3E49FFFE49EFE22C5F0F8A3E0284F
:10435300F0C5F0F8E582158270021583E038F0228B
:10436300BB010A89828A83E0F5F0A3E02250068725
:10437300F009E71922BBFE07E3F5F009E3192289E7
:10438300828A83E493F5F074019322BB0107898247
:104393008A8302434D500B09C5F027F7C5F019373F
:1043A300F722BBFE0D09F8E325F0F3C5F019E33856
:1043B300F322F889828A8374019325F0C5F0F8E427
:1043C300933822BB010A89828A83F0E5F0A3F022A5
:1043D3005006F709A7F01922BBFE06F3E5F009F32F
:1043E3001922E88FF0A4CC8BF0A42CFCE98EF0A466
:1043F3002CFC8AF0EDA42CFCEA8EF0A4CDA8F08B63
:10440300F0A42DCC3825F0FDE98FF0A42CCD35F0A8
:10441300FCEB8EF0A4FEA9F0EB8FF0A4CFC5F02E39
:10442300CD39FEE43CFCEAA42DCE35F0FDE43CFCA2
:104433002275F008758200EF2FFFEE33FECD33CDEA
:10444300CC33CCC58233C5829BED9AEC99E5829837
:10445300400CF582EE9BFEED9AFDEC99FC0FD5F036
:10446300D6E4CEFBE4CDFAE4CCF9A88222B800C1AD
:10447300B90059BA002DEC8BF084CFCECDFCE5F01A
:10448300CBF97818EF2FFFEE33FEED33FDEC33FC61
:10449300EB33FB10D703994004EB99FB0FD8E5E40A
:1044A300F9FA227818EF2FFFEE33FEED33FDEC33EC
:1044B300FCC933C910D7059BE99A4007EC9BFCE97B
:1044C3009AF90FD8E0E4C9FAE4CCFB2275F010EFB7
:1044D3002FFFEE33FEED33FDCC33CCC833C810D7FA
:1044E300079BEC9AE899400AED9BFDEC9AFCE8994E
:1044F300F80FD5F0DAE4CDFBE4CCFAE4C8F922C333
:10450300E49FFFE49EFEE49DFDE49CFC22EB9FF50B
:10451300F0EA9E42F0E99D42F0EC6480C864809822
:1045230045F022EB9FF5F0EA9E42F0E99D42F0E868
:104533009C45F022E8600FECC313FCED13FDEE1372
:10454300FEEF13FFD8F122E8600FEFC333FFEE3322
:10455300FEED33FDEC33FCD8F122ECF0A3EDF0A338
:10456300EEF0A3EFF022A8828583F0D083D08212ED
:104573004580124580124580124580E473E493A37D
:10458300C583C5F0C583C8C582C8F0A3C583C5F07C
:10459300C583C8C582C822A42582F582E5F0358388
:1045A300F58322EC8EF0A4CCC5F0CCCDF8EFA4CEED
:1045B300C5F02DFDE43CFCE8A42EC8C5F03DFDE4A8
:1045C3003CFCEFA4FFE5F028FEE43DFDE43CFC22C7
:1045D300EF4E6012EF60010EEDBB010B89828A83FF
:1045E300F0A3DFFCDEFA2289F05007F709DFFCA90C
:1045F300F022BBFEFCF309DFFCA9F022BB01068914
:10460300828A83E0225002E722BBFE02E3228982F0
:104613008A83E49322E0FCA3E0FDA3E0FEA3E0FF92
:1046230022F8E0FBA3A3E0F925F0F0E58215827000
:10463300021583E0FA38F022EBF0A3EAF0A3E9F0E5
:1046430022D083D082F8E4937012740193700DA387
:10465300A393F8740193F5828883E47374029368D7
:1046630060EFA3A3A380DFE51724D1F582E434022E
:10467300F583E00517229002CE3007039002D1E4C0
:1046830075F0011246240245FF2000E97F2ED20077
:104693008018EF540F2490D43440D4FF30040BEF30
:1046A30024BFB41A0050032461FFE51860021518F3
:1046B300051BE51B7002051A30070E9002CEE47548
:1046C300F001124624EF02427C0270D87403D20731
:1046D3008003E4C207F5179002CE12463BE4F518B7
:1046E300F51AF51BE51860077F201246AD80F575B6
:1046F30019FFC201C200C202C203C205C206C20838
:10470300124679FF700D3007057F001246BEAF1BBE
:10471300AE1A22B4255FC2D5C204124679FF24D053
:10472300B40A00501A75F00A781830D50508B6FF98
:104733000106C6A426F620D5047002D20380D9242C
:10474300CFB41A00EF5004C2E5D2040248BFD2012D
:1047530080C6D20080C0D20280BCD2D580BAD20536
:1047630080B47F201246AD2002077401B5180040C3
:10477300F112466AFF1246AD0246E7D208D206801E
:104783009512466AFB12466AFA12466AF94A4B7058
:104793000679907A497BFF20022EE518602A7E0075
:1047A3008E8275830012424F60060EEE651970F01B
:1047B300C2D5EBC0E0EAC0E0E9C0E0EE124906D0A2
:1047C300E0F9D0E0FAD0E0FB1245FFFF60AAEBC0AE
:1047D300E0EAC0E0E9C0E01246ADD0E02401F9D040
:1047E300E03400FAD0E0FBE5190460DCD519D98088
:1047F300877BFF7A497902D202809C791080027903
:1048030008C206C2088008D2D5790A8004790AC290
:10481300D5E519047002F519E4FAFDFEFF12466AA4
:10482300FC7B0820011312466AFD7B1030000A123C
:10483300466AFE12466AFF7B20EC3382D592D5503E
:1048430013C3E43000069FFFE49EFEE42001039DB2
:10485300FDE49CFCE4CBF8C201EC700CCFCECDCCD4
:10486300E824F8F870F38017C3EF33FFEE33FEED5F
:1048730033FDEC33FCEB33FB994002FB0FD8E9EB40
:10488300300105F8D0E0C448B201C0E00AEC4D4E57
:104893004F78207B0070C2EAB5190040BCC0E0121B
:1048A3004908D0F0D0E0200104C4C0E0C4B201C084
:1048B300F0124696D0F0D5F0EB0246E71246444795
:1048C300845347FE5847554C47514248024F480AC4
:1048D30044480A49476A4348105547F44647F44554
:1048E30047F44749B05047592D475D2E47802B4722
:1048F3006123477E2049992A471948000047783F9A
:104903003F3F00790AA2D5200314300509B91002EC
:104913000404B9080104A2D52006025001042002B0
:10492300689202B518005034C0E07F203003197F2D
:1049330030A20272067205500F12495FC202C2060C
:10494300C205C2087F30800F300503E9C0E012467C
:10495300AD300503D0E0F9D0E0B518CC3005177FB2
:1049630030B9100C1246AD7F583004077F788003AE
:10497300B908031246AD3002057F2D0246AD7F20F4
:104983002008F87F2B2006F322920280CF286E7531
:104993006C6C2900D20112466A3001F8C201781802
:1049A30030D50108F60247192D5043495812466A7B
:1049B3002403B405004001E49049AB9312469E746E
:1049C3003A12469ED2037518040247FEE4FD75F0C1
:1049D30002EDA42400F582E5F034DAF583E493FADA
:1049E300740193FBED25E0FFE433FE74632FF5823E
:1049F30074013EF583EAF0A3EBF075F002EDA42415
:104A030004F582E5F034DAF583E493FA740193FB59
:104A1300ED25E0FFE433FE745F2FF58274013EF56C
:104A230083EAF0A3EBF075F002EDA42408F582E528
:104A3300F034DAF583E493FA740193FBED25E0FF98
:104A4300E433FE74532FF58274013EF583EAF0A339
:104A5300EBF074632FF58274013EF583E0FEA3E06F
:104A6300C394FFEE940F4015ED25E0FFE433FE748D
:104A7300632FF58274013EF583E4F0A3F0ED25E0A6
:104A8300FFE433FE745F2FF58274013EF583E0FE8D
:104A9300A3E0FF4E6009D3EF94FFEE940F4018EDAF
:104AA30025E0FFE433FE745F2FF58274013EF58346
:104AB300740FF0A374FFF0ED25E0FFE433FE745FA1
:104AC3002FF58274013EF583E0FAA3E0FB74632FB4
:104AD300F58274013EF583E0FEA3E0C39BEE9A40AA
:104AE30026ED25E0FFE433FE74632FF58274013E67
:104AF300F583E4F0A3F0745F2FF58274013EF58330
:104B0300740FF0A374FFF0ED25E0FFE433FE74535C
:104B13002FF58274013EF583E0FEA3E0FF4E6009AA
:104B2300C3EF94FFEE940F4017ED25E0FFE433FE4F
:104B330074532FF58274013EF5837408F0A3E4F0F7
:104B4300ED25E0FFE433FE74632FF58274013EF537
:104B530083E0FAA3E0FB74532FF58274013EF583DF
:104B6300E0FEA3E0D39BEE9A402AED25E0FFE43379
:104B7300FE745F2FF58274013EF583E0FAA3E0FB38
:104B830074532FF58274013EF583E0FEA3E0C39BCB
:104B9300EE9A4036ED25E0FFE433FE74632FF58291
:104BA30074013EF583E4F0A3F074532FF58274018E
:104BB3003EF5837408F0A3E4F0745F2FF58274016B
:104BC3003EF583740FF0A374FFF0ED25E0FFE433AB
:104BD300FE74632FF58274013EF583E0FAA3E0FBD4
:104BE30074532FF58274013EF583E0FEA3E0C39B6B
:104BF300FBEE9AFAED25E0FFE433FE745B2FF582BA
:104C030074013EF583EAF0A3EBF074532FF582743D
:104C1300013EF583E0FAA3E0FB745F2FF582740194
:104C23003EF583E0FEA3E0C39BFBEE9AFAED25E09D
:104C3300FFE433FE74572FF58274013EF583EAF0E7
:104C4300A3EBF00DED640260030249D190DA10E4A6
:104C530093F51490DA14E493FF13920FEFC3131335
:104C6300921022E49002D2F0A20A33A3F0A20DE440
:104C730033A3F0A209E433A3F09002A0E07F006025
:104C8300027F019002D6EFF090029EE07F00600267
:104C93007F019002D7EFF0900111E0FEA3E024F929
:104CA300F582EE3401F583E493C4540F60739002EC
:104CB300C1E0F8A3E0F9A3E0FAA3E0FB9001FDE073
:104CC300FCA3E0FDA3E0FEA3E0C39BFFEE9AFEED91
:104CD30099FDEC98C0E0EDC0E0EEC0E0EFC0E090DD
:104CE3000111E0FEA3E024F9F582EE3401F583E43B
:104CF30093C4540F25E0242AF582E43477F583E442
:104D030093FE740193FFCBEFCBCAEECAE4F9F8D05C
:104D1300E0FFD0E0FED0E0FDD0E0FCD3124526500A
:104D230017900111E0FEA3E024F9F582EE3401F5BA
:104D330083E493540FFF700890021B74FFF08046C6
:104D4300EF6043C3940440028037EF14FDC8EDC8FD
:104D53007E007401088005C333CE33CED8F9FF90AB
:104D6300021BE0FCC39FEE6480F87480984012C875
:104D7300EDC87401088002C333D8FCFFC3EC9F80E5
:104D830001E490021BF0E49002CEF09002CEE0FF2B
:104D9300C394034003024EC5E0FE900111E0FCA35F
:104DA300E0FD24F6F582EC3401F583E5822EF582ED
:104DB300E43583F583E493FB540F24D2F582E43482
:104DC30002F583E0FAEBC41313135401FBEA6BFB04
:104DD30074CF2EF582E43402F583EBF074CF2FF514
:104DE30082E43402F583E0604BED24F9F582EC3480
:104DF30001F583E493540F703B9002CEE024CFF58A
:104E030082E43402F583C083C082E0FF9002CEE0E7
:104E1300FEED24F3F582EC3401F583E5822EF58271
:104E2300E43583F583E493FEEF8EF0A4D082D08340
:104E3300F0024EBC9002CEE0FBED24F3F582EC349D
:104E430001F583E5822BF582E43583F583E493FD55
:104E53007C0090021BE0F9FFC374FF9FFFE4940002
:104E6300FE1242B074CF2BF582E43402F583E0FDE9
:104E73001242B0CCEECCCDEFCD9002CEE0FF90014C
:104E830011E0FAA3E024F0F582EA3401F583E58228
:104E93002FF582E43583F583E49389F0A42DFFECA9
:104EA30035F0FE7C007DFF1242C29002CEE024CF9B
:104EB300F582E43402F583EFF09002CEE004F002D1
:104EC3004D8E9002CFE0F5A5A3E0F59AA3E0F5A4FB
:104ED30022011E00011C00C10F011F00011D00C1A2
:104EE30010410351004103520041030B0041030EE3
:104EF30000410327004102FE004103250041032630
:104F0300004103280056030F0100000000000000C9
:104F13000000000000000000000000000000450247
:104F2300FF0200000000470304031001000000001B
:104F330042030C040041032900C10EC10BC10CC183
:104F43000AC10DC1094401FD00000000011402540F
:104F530001530800080008000800080008000FFFBC
:104F63000FFF000000004401A70800080041013BB7
:104F730001021000000215000A021227104401ABBF
:104F83000000000042013E00004201E8000042022E
:104F93007CDC0050026C00000000000000000000F8
:104FA30000000000000050025C0000000000000050
:104FB30000000000000000000050024C000102034A
:104FC3000405060708090A0B0C0D0E0F6030021CBE
:104FD30000000000000000000000000000000000CE
:104FE30000000000000000000000000000000000BE
:104FF30000000000000000000000000000000000AE
:105003002030240000000000000000000000000029
:10501300000000000000000000000000000000008D
:10502300000000000000000000000000000000007D
:105033000000004202140000410216004102170062
:10504300410218004102190041021A0041021B00EB
:1050530041000000420111F2004102A5004102A7F4
:10506300004102A0004402C10000000041029E0072
:105073004202A2000042029C00004102C000410221
:10508300BF0041029F004102A8FF4102A10041026B
:10509300A6004102A40044027E00000000440282F4
:1050A300000000004402860000000042028AFFFF65
:1050B30042028C000042028E000042029000004235
:1050C3000292000042029400004202960000420253
:1050D30098000042029A000000E49002CEF0A3740C
:1050E300FFF0A3F0A3F0A37401F0439D209001E728
:1050F300E06009900152E070030252C39001E6E0C0
:105103006009900151E070030252C39001E5E06031
:1051130009900150E070030252C3E4F5FF12639C4F
:105123007F0112675F12639C7F0212675F12604DFB
:105133009002D2E0251CF0E4F51DF51CE0C3648069
:105143009481501275A5FF7401F07F027E001271E5
:105153006AE4F5A5801B9002D2E0D36480948A4070
:1051630010759AFF740AF07F027E0012716AE4F5EB
:105173009AE49002CEF0FFEF6404602EEF640C60BB
:105183002974402FF582E43401F583E0FE60127444
:10519300D52FF582E43401F583E070059002CFEF5B
:1051A300F0EE60069002CEE004F00FEFB410C8906A
:1051B30002CEE07004A374FFF09002CFE0FEF4602F
:1051C3006674402EF582E43401F583E07022FFEF2C
:1051D30064046017EF640C601274402FF582E434AA
:1051E30001F583E060059002CFEFF00FEFB410DF1D
:1051F3009002CFE0FC90798693FE90014CE0FDEEA7
:105203002D9002D0F0900144E0FF600FECC39408AE
:1052130050099002D0E0240CF08012EF600F90024E
:10522300D0E024F4F080069002D074FFF09002D016
:10523300E0FFA3E06F70030250F0EFC39412504FEE
:105243009002D0E025E02407F582E43479F583E485
:1052530093F512740193F513AE12FFCBEFCBCAEEA5
:10526300CAE4F9F89002D2E0FF3395E0FEFDFC12A8
:1052730043E57808124537E47B03FAF9F8124470E2
:105283008E158F16E4FD7F011269ACD2A980289098
:1052930002D0E0FFD394305013EF90795593F59EED
:1052A3009002D2E0F59CC2A97D018006E4F59CC280
:1052B300A9FD7F011269AC9002D0E0A3F00250F087
:1052C300E4F59CC2A9FD7F011269AC759E2022E41E
:1052D3009002E2F0EF601EE490029AF0900298F0E0
:1052E300900297F0900296F09002E2F090029BF009
:1052F30090029AF022900296E0FF900111E0FCA345
:10530300E024E1F582EC3401F583E49325E014FE17
:10531300851CF0A4FDC3EF9D900296F0E4F51CA359
:10532300E0FFEE851DF0A4FEC3EF9EF0E4F51D90B3
:1053330002E3F09002E3E0FF2498F582E43402F5FF
:1053430083E0FE74962FF582E43402F583E0FFD305
:10535300EE6480F8EF64809840089002E27401F0F4
:105363008018C3EE6480F8EF64809850089002E2DE
:105373007402F08005E49002E2F0900111E0FEA3D4
:10538300E0F5828E83C083C0829002E3E0FFD08287
:10539300D08375F00812459AE58224E0F582E5830F
:1053A3003401F583E493540F14600302548990028B
:1053B300E2E0FE70030254A5749A2FF582E43402EE
:1053C300F583E060299002E3E0FF249AF582E43458
:1053D30002F583E4F074982FF582E43402F583E058
:1053E300FFEE25E024FDFEC3EF9EF00254A59002DC
:1053F300E2E0FF900111E0FCA3E0F5828C83C0831F
:10540300C0829002E3E0D082D08375F00812459AFF
:10541300E58224E2F582E5833401F583E5822FF505
:1054230082E43583F583E493FD60057FFF12649284
:10543300900310E0FF9002E2E0FE900111E0FCA374
:10544300E0F5828C83C083C0829002E3E0FDD082CA
:10545300D08375F00812459AE58224E5F582E58349
:105463003401F583E5822EF582E43583F583E493F5
:10547300FEEF4E900310F0749A2DF582E43402F59A
:10548300837401F0801C9002E3E0FF2496F582E42C
:105493003402F583E0FE74982FF582E43402F58339
:1054A300EEF09002E3E004F0E0C3940250030253F1
:1054B30036229002ECEEF0A3EFF0A3ECF0A3EDF0B4
:1054C300A3EAF0A3EBF09002ECE0FAA3E0FB7C008C
:1054D3007DA7CFEBCFCEEACE1242C27C007D06126F
:1054E30042C2CFEDCF9002FBEFF0E075F0A7A4FF2F
:1054F300C3EB9FFFEA95F0FECBEFCBCAEECA900257
:10550300EEA3E0FFA3A3E0FDCEEDCEC39F9002FC8C
:10551300F09002EEE0FEA3E0CDEBCDCCEACC12425C
:10552300B07C007DA71242C2A3A3E0FDCEEDCEC3A3
:105533009F9002FDF0CEEACECFEBCFC374A79FFFBF
:10554300E49EFE9002EEE0FCA3E0FD1242B07C007C
:105553007DA71242C2A3A3E0FDCEEDCEC39FFF9071
:1055630002FBE0FD70119002F2E0FBA3E0FAA3E07E
:10557300F9EE12427C801EEDB4012E9002FDE0FF95
:105583009002F2E0FBA3E0FAA3E0F9EF12427C9071
:1055930002F0A3E0FF9002F5E0FBA3E0FAA3E0F939
:1055A300EF12427C9002FC80629002FBE0FEB402A8
:1055B3002AA3E0FD9002F2E0FBA3E0FAA3E0F9EDF9
:1055C30012427C9002F0A3E0FD9002F5E0FBA3E021
:1055D300FAA3E0F9ED12427C025678EEB403309060
:1055E30002FCE0FF9002F2E0FBA3E0FAA3E0F9EF94
:1055F30012427C9002FDE0FF9002F5E0FBA3E0FA8B
:10560300A3E0F9EF12427C9002F0A3E0FF806690E2
:1056130002FBE0FEB4042E9002F2E0FBA3E0FAA347
:10562300E0F9EF12427C9002FCE0FF9002F5E0FB10
:10563300A3E0FAA3E0F9EF12427C9002F0A3E0FDAD
:10564300CFEDCF8030EEB4053B9002F0A3E0FFA393
:10565300E0FBA3E0FAA3E0F9EF12427C9002FCE046
:10566300FF9002F5E0FBA3E0FAA3E0F9EF12427C1E
:105673009002FDE0FF9002F8E0FBA3E0FAA3E0F95B
:10568300EF12427C229002CEEFF0E4A3F0EFC3943A
:105693000A403F9002CEE0FF94125036EF24F6FF0B
:1056A300EF25E0FEC3E49400FF74F29EFE7408123B
:1056B3005BBD9002CFEFF09002CEE024F6FF125DC7
:1056C3006B9002CFE070030257F39002CEE024FE0A
:1056D300803B9002CEE0FFC3941E4034EF942650EB
:1056E3002FEF24E2FFEFFEE42400FFEE34DCFE7430
:1056F30004125BBD9002CFEFF07F011215029002FE
:10570300CFE070030257F39002CEE024F2FD80292C
:105713009002CEE0B4322A1262987B017A067900B5
:105723009002D77401F07F007EDA125BC79002CF3C
:10573300EFF070030257F37D187F03126DE60257F3
:10574300F39002CEE0B46416127198126E7C7F64FB
:105753007E0012716AE4F5A812002E0257F390023C
:10576300CEE0646560030257F3127198126E7C7F7A
:10577300647E0012716AE4F5A875D8FF75E206909D
:10578300035174AAF09003527455F07E007F407D5C
:10579300007B017A0679001245D390063E7480F0AF
:1057A300A374FEF07B017A0679009002D77401F0AE
:1057B300E4FFFE125BC79002CFEFF0E4F5FFF5A51F
:1057C300F59A75A4FF7F207E0312716AE4F5FFF555
:1057D300A5759AFFF5A47F207E0312716AE4F5FF95
:1057E30075A5FFF59AF5A47F207E0312716A80CB1D
:1057F3009002CFE06059E4F5FF75A5FFF59AF5A493
:105803007F96FE12716AE4F5A5759AFFF5A47F965B
:10581300FE12716AE4F5A5F59A75A4FF7F96FE1250
:10582300716A75A5FFE4F59AF5A47F96FE12716A75
:10583300E4F5A5759AFFF5A47F96FE12716AE4F567
:10584300A5F59A75A4FF7F96FE12716AE4F5FF220F
:10585300C2A3C2A1C2A01270FF7F057E0012716AAB
:10586300E58720E4077F327E0012716A12617612A7
:10587300655B126CEDD2AFC2A77B017D807F021204
:1058830067FC7B017D017F021267FC7B017D027F48
:10589300021267FC7B017D087F021267FC759E2064
:1058A300539DFEE4F59AF5A4F5A57D017F041269E5
:1058B300AC7D017F101269AC7D017F201269ACE4DD
:1058C300FF12713AE4FF126F057F02126F0575F242
:1058D300107B017D017F8C7E001266C043AA04E425
:1058E300FB7D807F031267FC43B324D2E953C9EFE6
:1058F3007D01E4FF126FF2E4FDFCFF126FBAD28C5C
:105903007F01127181126F80E4F5FF126A35126311
:105913009C7F0112675F126B70126E7C126B7012A8
:10592300639C7F0212675F90030BE0FF20E7D9605F
:105933000A125688E490030BF080CD900327E070A1
:1059430028127120900325E025E0FF9002FEE04F2E
:10595300FF900326E025E025E04FFF900328E03386
:10596300333354F84F900327F09001FDA3A3A3E032
:10597300FF90030EE0FEC3EF9EC39408408A90039A
:1059830027E0FE600590030EEFF0EE601B90032905
:10599300E0B403141271A77F327E0012716A127190
:1059A300A77F327E0012716A900327E0FF30E00D7B
:1059B30054FEF07B017A03790F7D1680289003272C
:1059C300E0FF30E10D54FDF07B017A0279FF7D05A4
:1059D3008013900327E0FF30E21154FBF07B017A40
:1059E3000379047D07126F4502590B900327E0FFEB
:1059F30020E30302590B54F7F07B017A03790C7D02
:105A030002126F4502590B9002EEEBF09002ECEF9D
:105A1300F0A3EDF0EFD39D40079002ECE0FF80058B
:105A23009002EDE0FF9002EEE0FEEFD39E40159072
:105A330002EDE0FF9002ECE0FDD39F4005CFEDCFF8
:105A430080058003CFEECF9002F8EFF09002EDE0F7
:105A5300FF9002ECE0FEC39F5005CFEECF80009095
:105A630002EEE0FEEFC39E50159002EDE0FF9002C0
:105A7300ECE0FDC39F5005CFEDCF80058003CFEE53
:105A8300CF9002F8E0FEC39FA3F070119002EFE005
:105A9300FBA3E0FAA3E0F9E4F5F0025B599002EC12
:105AA300E06E70309002EEE0FF9002EDE0C39FFFE6
:105AB300E49400FE7C007DA71242B09002F9E0FD61
:105AC3001242C29002EFE0FBA3E0FAA3E0F9EE8FEB
:105AD300F0025B599002EDE0FF9002F8E06F703640
