:08000000026C45026F58323218
:07000B000273A90100011EB0
:100013000200067B017A0679009002E07401F07F0A
:06002300007ED8025EE43D
:0D002B0002000775A15575A1AA43B110226E
:03003B00026FB59C
:10004300023148EF4E601505A105A105A105A105E3
:0D005300A105A105A1EF1F70EA1E80E722A4
:10006300026E2FEF6013E4900299F0A3F0900297D1
:10007300F0A3F0900295020585900111E0FEA3E044
:1000830024D5F582EE3401F583E493FD540175F034
:1000930002A424FFFEE5F034FF9002EBF0A3CEF0C0
:1000A300EDC313540175F002A424FFFEE5F034FF01
:1000B300A3F0A3CEF0900163E0FEA3E0FF9001A7BD
:1000C300E0FCA3E0FDD39FEC9E4008CEECCECFED49
:1000D300CF8000D3900160E09F90015FE09E4020BD
:1000E300900163E0FEA3E0FF9001A7E0FCA3E0FD25
:1000F300D39FEC9E4008CEECCECFEDCF800A800894
:1001030090015FE0FEA3E0FF9001A7EEF0A3EFF004
:10011300900165E0FEA3E0FF9001A9E0FCA3E0FDF0
:10012300D39FEC9E4008CEECCECFEDCF8000D39092
:100133000162E09F900161E09E4020900165E0FE36
:10014300A3E0FF9001A9E0FCA3E0FDD39FEC9E4058
:1001530008CEECCECFEDCF800A8008900161E0FE9F
:10016300A3E0FF9001A9EEF0A3EFF0900111E0FEF0
:10017300A3E024D5F582EE3401F583E493131354FD
:100183003F20E00302030A900153E0FEA3E0FF9047
:1001930001A7E0FCA3E0FDC39FEC9E9002EBE0FE11
:1001A3005037A3E0FFEEC0E0EFC0E0900153E0FE64
:1001B300A3E0FFC3ED9FFFEC9EFE3395E0FDFCE45F
:1001C300FB7A10F9F81246B9ECC0E0EDC0E0EEC0DE
:1001D300E0EFC0E090015B803BA3E0FFEEC0E0EF07
:1001E300C0E0900153E0FEA3E0FF9001A7E0FCA371
:1001F300E0C39FFFEC9EFE3395E0FDFCE4FB7A1029
:10020300F9F81246B9ECC0E0EDC0E0EEC0E0EFC093
:10021300E0900157E0FEA3E0FFCBEFCBCAEECAE4C8
:10022300F9F8D0E0FFD0E0FED0E0FDD0E0FC1271A1
:10023300E6CDEFCDCCEECCD0E0FFD0E0FE1245848E
:100243009002EBEEF0A3EFF0900155E0FEA3E0FF88
:100253009001A9E0FCA3E0FDC39FEC9E9002EDE0BA
:10026300FE5037A3E0FFEEC0E0EFC0E0900155E0A1
:10027300FEA3E0FFC3ED9FFFEC9EFE3395E0FDFC84
:10028300E4FB7A10F9F81246B9ECC0E0EDC0E0EEF9
:10029300C0E0EFC0E090015D803BA3E0FFEEC0E073
:1002A300EFC0E0900155E0FEA3E0FF9001A9E0FC60
:1002B300A3E0C39FFFEC9EFE3395E0FDFCE4FB7AD5
:1002C30010F9F81246B9ECC0E0EDC0E0EEC0E0EF83
:1002D300C0E0900159E0FEA3E0FFCBEFCBCAEECA2A
:1002E300E4F9F8D0E0FFD0E0FED0E0FDD0E0FC126E
:1002F30071E6CDEFCDCCEECCD0E0FFD0E0FE1245E1
:10030300849002ED020495900153E0FEA3E0FF9078
:1003130001A7E0FCA3E0FDC39FEC9E9002EDE0FE8D
:100323005037A3E0FFEEC0E0EFC0E0900153E0FEE2
:10033300A3E0FFC3ED9FFFEC9EFE3395E0FDFCE4DD
:10034300FB7A10F9F81246B9ECC0E0EDC0E0EEC05C
:10035300E0EFC0E090015B803BA3E0FFEEC0E0EF85
:10036300C0E0900153E0FEA3E0FF9001A7E0FCA3EF
:10037300E0C39FFFEC9EFE3395E0FDFCE4FB7A10A7
:10038300F9F81246B9ECC0E0EDC0E0EEC0E0EFC012
:10039300E0900157E0FEA3E0FFCBEFCBCAEECAE447
:1003A300F9F8D0E0FFD0E0FED0E0FDD0E0FC127120
:1003B300E6CDEFCDCCEECCD0E0FFD0E0FE1245840D
:1003C3009002EDEEF0A3EFF0900155E0FEA3E0FF05
:1003D3009001A9E0FCA3E0FDC39FEC9E9002EBE03B
:1003E300FE503EA3E0FFEEC0E0EFC0E0900155E019
:1003F300FEA3E0FFC3ED9FFFEC9EFEC3E49FFFE47B
:100403009EFE3395E0FDFCE4FB7A10F9F81246B941
:10041300ECC0E0EDC0E0EEC0E0EFC0E090015D8035
:1004230042A3E0FFEEC0E0EFC0E0900155E0FEA381
:10043300E0FF9001A9E0FCA3E0C39FFFEC9EFEC395
:10044300E49FFFE49EFE3395E0FDFCE4FB7A10F9A4
:10045300F81246B9ECC0E0EDC0E0EEC0E0EFC0E05A
:10046300900159E0FEA3E0FFCBEFCBCAEECAE4F95B
:10047300F8D0E0FFD0E0FED0E0FDD0E0FC1271E662
:10048300CDEFCDCCEECCD0E0FFD0E0FE1245849092
:1004930002EBEEF0A3EFF09002EDE0FEA3E0FFD35A
:1004A3009400EE648094804002800F9002EDE0FEA1
:1004B300A3E0FFC3E49FFFE49EFE9002EBE0FCA3F6
:1004C300E0FDD39400EC648094804002800F90029E
:1004D300EBE0FCA3E0FDC3E49DFDE49CFCD3ED9FB6
:1004E300EE6480F8EC64809840259002EBE0FEA374
:1004F300E0FFD39400EE6480948040028034900245
:10050300EBE0FEA3E0FFC3E49FFFE49EFE802390A5
:1005130002EDE0FEA3E0FFD39400EE6480948040FC
:1005230002800F9002EDE0FEA3E0FFC3E49FFFE42F
:100533009EFECAEECACBEFCB900111E0FEA3E024EE
:10054300DCF582EE3401F583E493FF7E007C007DCD
:1005530015124584C3EB9FFFEA9EFE9002EFF0A3C2
:10056300EFF0D39400EE64809480501AE490029DDF
:10057300F0A3F090029BF0A3F0900299F0A3F09007
:100583000297F0A3F022900111E0FEA3E0FF24D430
:10059300F582EE3401F583E493540F24FE700302D5
:1005A300078E147003020AC3147003020FB92403E5
:1005B3006003021501900295E07002A3E06003025C
:1005C3000798EF24DEF582EE3401F583E493701D82
:1005D300900111E0FEA3E024DFF582EE3401F58300
:1005E300E4937009900295F0A3F002071A900111A9
:1005F300E0FEA3E0FF24DEF582EE3401F583E4930D
:10060300FBEF24DFF582EE3401F583E493C39BFD16
:100613003395E0FC78039002EFE0FEA3E0CEA2E77F
:1006230013CE13D8F8FF124584EEFD3395E0FCEBAF
:1006330025E0FFE433FEED2FFFEC3E9002EFF0A345
:10064300EFF090029BE0FEA3E0FFD39400EE648002
:1006530094804002800F90029BE0FEA3E0FFC3E47E
:100663009FFFE49EFE9002EFE0FCA3E0FDD39FEE2C
:100673006480F8EC648098500A90029BECF0A3ED40
:10068300F0806B900111E0FEA3E024DDF582EE34EF
:1006930001F583E4932401FDE433FC90029BE0FE27
:1006A300A3E0FFC39002F0E09FFF9002EFE09EFE05
:1006B3001245EBEEF0A3EFF04E701090029CE004B5
:1006C300F0701C90029BE004F080149002EFE0FEB7
:1006D300A3E0FF90029CE02FF090029BE03EF0909D
:1006E300029BE0FFA3E09002EFCFF0A3EFF09002B4
:1006F300EFE0FEA3E0FFC374649FFFE49EFE90025D
:1007030095F0A3EFF0D39400EE64809480500890AA
:100713000295E4F0A304F09002EBE0FEA3E0FFA354
:10072300E0FCA3E0FDD39FEE6480F8EC6480984086
:1007330026E49FFFE49EFED3ED9FEE6480F8EC6415
:100743008098900111E0FE4007A3E024D7020AB489
:10075300A3E024D9020AB49002EBE0FEA3E0FFC3B6
:10076300E49FFFE49EFED39002EEE09FEE6480F8E8
:100773009002EDE0648098900111E0FE4006A3E052
:1007830024DA8004A3E024D8020AB4900295E0702E
:1007930002A3E0600F900296E024FFF0900295E040
:1007A30034FFF022900111E0FEA3E0FF24DEF58286
:1007B300EE3401F583E4937017EF24DFF582EE3412
:1007C30001F583E4937009900295F0A3F00208FD0C
:1007D300900111E0FEA3E0FF24DEF582EE3401F583
:1007E30083E493FBEF24DFF582EE3401F583E49396
:1007F300C39BFD3395E0FC78039002EFE0FEA3E09A
:10080300CEA2E713CE13D8F8FF124584EEFD33953D
:10081300E0FCEB25E0FFE433FEED2FFFEC3E90021E
:10082300EFF0A3EFF090029BE0FEA3E0FFD3940070
:10083300EE648094804002800F90029BE0FEA3E070
:10084300FFC3E49FFFE49EFE9002EFE0FCA3E0FD04
:10085300D39FEE6480F8EC648098500A90029BEC7E
:10086300F0A3EDF0806B900111E0FEA3E024DDF531
:1008730082EE3401F583E4932401FDE433FC90021A
:100883009BE0FEA3E0FFC39002F0E09FFF9002EF26
:10089300E09EFE1245EBEEF0A3EFF04E70109002D7
:1008A3009CE004F0701C90029BE004F08014900222
:1008B300EFE0FEA3E0FF90029CE02FF090029BE0AC
:1008C3003EF090029BE0FFA3E09002EFCFF0A3EF96
:1008D300F09002EFE0FEA3E0FFC374649FFFE49E89
:1008E300FE900295F0A3EFF0D39400EE6480948021
:1008F3005008900295E4F0A304F09002EBE0FEA30D
:10090300E0FF7C007D03124584CAEECACBEFCBA384
:10091300E0FEA3E0FF7D07124584D3EF9BEA6480EA
:10092300F8EE648098403C9002EBE0FEA3E0FFE425
:100933009FFFE49EFE7D03124584CAEECACBEFCB34
:10094300A3E0FEA3E0FF7D07124584D3EF9BEA6497
:1009530080F8EE648098400B900111E0FEA3E02440
:10096300D780689002EBE0FEA3E0FF7C007D0312DA
:100973004584CAEECACBEFCBA3E0FEA3E0FF7D071D
:10098300124584C3EF9BEA6480F8EE648098504A72
:100993009002EBE0FEA3E0FFC3E49FFFE49EFE7D35
:1009A30003124584CAEECACBEFCBA3E0FEA3E0FF5C
:1009B3007D07124584C3EF9BEA6480F8EE64809858
:1009C3005018900111E0FEA3E024D8F582EE340123
:1009D300F583E493FD7FFF1267B79002EBE0FEA37C
:1009E300E0FF7C007D07124584CAEECACBEFCBA3A0
:1009F300E0FEA3E0FF7D03124584D3EF9BEA64800E
:100A0300F8EE648098403C9002EBE0FEA3E0FFE444
:100A13009FFFE49EFE7D07124584CAEECACBEFCB4F
:100A2300A3E0FEA3E0FF7D03124584C3EF9BEA64CA
:100A330080F8EE648098500B900111E0FEA3E0244F
:100A4300D9806E9002EBE0FEA3E0FF7C007D0712ED
:100A53004584CAEECACBEFCBA3E0FEA3E0FF7D0340
:100A6300124584C3EF9BEA6480F8EE6480984003E8
:100A73000215019002EBE0FEA3E0FFC3E49FFFE455
:100A83009EFE7D07124584CAEECACBEFCBA3E0FEE0
:100A9300A3E0FF7D03124584D3EF9BEA6480F8EE65
:100AA3006480985003021501900111E0FEA3E02435
:100AB300DAF582EE3401F583E493FD7FFF0267B735
:100AC300900111E0FEA3E024DFF582EE3401F5830B
:100AD300E493FB3395E0FA78039002EBE0FEA3E0A6
:100AE300CEA2E713CE13D8F8FFCDEBCDCCEACC12D0
:100AF30045847804EFCEA2E713CE13D8F8FF900213
:100B0300EBEEF0A3EFF07803A3E0FEA3E0CEA2E7C1
:100B130013CE13D8F8FFCDEBCDCCEACC12458478B5
:100B230004EFCEA2E713CE13D8F8FF9002EDEEF058
:100B3300A3EFF090029BE0FEA3E0FFD39400EE64EA
:100B43008094804002800F90029BE0FEA3E0FFC3ED
:100B5300E49FFFE49EFE9002EBE0FCA3E0FDD39450
:100B630000EC648094804002800F9002EBE0FCA3D1
:100B7300E0FDC3E49DFDE49CFCD3ED9FEE6480F8AF
:100B8300EC6480985002802E90029BE0FEA3E0FF6D
:100B9300D39400EE648094804002800F90029BE027
:100BA300FEA3E0FFC3E49FFFE49EFED3EF9420EE99
:100BB3006480948340129002EBE0FFA3E090029BD9
:100BC300CFF0A3EFF0020CE790029BE0FEA3E0FF5F
:100BD300D39400EE6480948040028007C3E49FFFB7
:100BE300E49EFECCEECCCDEFCD900111E0FAA3E074
:100BF300FB24DEF582EA3401F583E49375F00AA45D
:100C0300FFD3ED9FE5F06480F8EC648098405DEBE2
:100C130024DDF582EA3401F583E4932401FDE43312
:100C2300FC90029BE0FEA3E0FF9002EBE0FAA3E05E
:100C3300FBC39FFFEA9EFE1245EB9002EFEEF0A38B
:100C4300EFF04E6003020CD3C3EA64809480500734
:100C53007EFF7FFF020CDBD3EB9400EA6480948079
:100C63007E0040047F0180027F00806C900111E0D0
:100C7300FEA3E024DDF582EE3401F583E49375F001
:100C83000AA42401FDE435F0FC90029BE0FEA3E0FE
:100C9300FF9002EBE0FAA3E0FBC39FFFEA9EFE1284
:100CA30045EB9002EFEEF0A3EFF04E7023C3EA643E
:100CB30080948050067EFF7FFF8013D3EB9400EA7D
:100CC300648094807E0040047F0180027F0080085E
:100CD3009002EFE0FEA3E0FF90029CE02FF0900271
:100CE3009BE03EF090029DE0FEA3E0FFD39400EE74
:100CF300648094804002800F90029DE0FEA3E0FF99
:100D0300C3E49FFFE49EFE9002EDE0FCA3E0FDD36D
:100D13009400EC648094804002800F9002EDE0FC2C
:100D2300A3E0FDC3E49DFDE49CFCD3ED9FEE648052
:100D3300F8EC6480985002802E90029DE0FEA3E0C0
:100D4300FFD39400EE648094804002800F90029D54
:100D5300E0FEA3E0FFC3E49FFFE49EFED3EF9420F5
:100D6300EE6480948340129002EDE0FFA3E09002D2
:100D73009DCFF0A3EFF0020E9390029DE0FEA3E05F
:100D8300FFD39400EE6480948040028007C3E49F05
:100D9300FFE49EFECCEECCCDEFCD900111E0FAA3A3
:100DA300E0FB24DEF582EA3401F583E49375F00A6F
:100DB300A4FFD3ED9FE5F06480F8EC648098405A7B
:100DC300EB24DDF582EA3401F583E4932401FDE4A9
:100DD30033FC90029DE0FEA3E0FF9002EDE0FAA356
:100DE300E0FBC39FFFEA9EFE1245EBA3EEF0A3EFE9
:100DF300F04E6003020E7FC3EA6480948050067E47
:100E0300FF7FFF807FD3EB9400EA648094807E00B1
:100E130040047F0180027F00806A900111E0FEA3FD
:100E2300E024DDF582EE3401F583E49375F00AA442
:100E33002401FDE435F0FC90029DE0FEA3E0FF9069
:100E430002EDE0FAA3E0FBC39FFFEA9EFE1245EB2F
:100E5300A3EEF0A3EFF04E7023C3EA6480948050B6
:100E6300067EFF7FFF8013D3EB9400EA64809480B7
:100E73007E0040047F0180027F0080089002EFE043
:100E8300FEA3E0FF90029EE02FF090029DE03EF073
:100E930090029BE0FEA3E0FF900298E02FF0900207
:100EA30097E03EF090029DE0FEA3E0FF90029AE0FF
:100EB3002FF0900299E03EF0900297E0FEA3E0FF4E
:100EC300D39440EE64809460400280047EE07F40CF
:100ED300C3EF94C0EE6480949F5019900297E0FE94
:100EE300A3E0FF9440EE648094604002800A7EE0B9
:100EF3007F4080047E1F7FC0900297EEF0A3EFF047
:100F0300A3E0FEA3E0FFD39440EE6480946040022C
:100F130080047EE07F40C3EF94C0EE6480949F50D2
:100F230019900299E0FEA3E0FF9440EE6480946080
:100F33004002800A7EE07F4080047E1F7FC09002D3
:100F430099EEF0A3EFF0900297E0FCA3E0FD7806A2
:100F5300CEECCECEA2E713CE13D8F890030AF078E6
:100F630006900299E0FEA3E0CEA2E713CE13D8F8D1
:100F7300F404F990030BF090030AE0FF3395E0FECD
:100F83007806EFC333CE33CED8F9FFC3ED9FFFEC22
:100F93009E900297F0A3EFF0E9FF3395E0FE780609
:100FA300EFC333CE33CED8F9FF90029AE02FF090FF
:100FB3000299E03EF022900297E0FEA3E0FF900248
:100FC300EBE0FCA3E0FDC39FFFEC9EFE7802EFCEB7
:100FD300A2E713CE13D8F8FF9002EFEEF0A3EFF0E1
:100FE3004E7023C3EC6480948050067EFF7FFF80A5
:100FF3001DD3ED9400EC648094807E0040047F0157
:1010030080027F0080089002EFE0FEA3E0FF9002E1
:1010130098E02FF0900297E03EF0900299E0FEA353
:10102300E0FF9002EDE0FCA3E0FDC39FFFEC9EFE1A
:101033007802EFCEA2E713CE13D8F8FF9002EFEEBB
:10104300F0A3EFF04E7023C3EC6480948050067ECF
:10105300FF7FFF801DD3ED9400EC648094807E00BD
:1010630040047F0180027F0080089002EFE0FEA32E
:10107300E0FF90029AE02FF0900299E03EF0900298
:10108300EBE0FAA3E0FBD39400EA64809480900140
:1010930011E0FE4006A3E024DA8004A3E024D9F59E
:1010A30082EE3401F583E493FF90029BE4F0A3EF17
:1010B300F0D3ED9400EC64809480900111E0FE4045
:1010C30006A3E024D78004A3E024D8F582EE3401FC
:1010D300F583E493FF90029DE4F0A3EFF090029B6D
:1010E300E0FEA3E0FFC3941EEE648094804017D318
:1010F300EF9427EE64809480500CEF25E0FFEE33ED
:10110300FEEF24C6802790029BE0FEA3E0FFC3947A
:1011130059EE648094804022D3EF9462EE6480940D
:10112300805017EF25E0FFEE33FEEF244FFFEE3440
:10113300FF90029BF0A3EFF08007E490029BF0A3E3
:10114300F090029DE0FEA3E0FFC3941EEE64809442
:10115300804017D3EF9427EE64809480500CEF25E2
:10116300E0FFEE33FEEF24C6802790029DE0FEA34E
:10117300E0FFC39459EE648094804022D3EF9462DD
:10118300EE648094805017EF25E0FFEE33FEEF24EA
:101193004FFFEE34FF90029DF0A3EFF08007E49041
:1011A300029DF0A3F0D3EB9401EA64809470400AAB
:1011B3009002EBE0FEA3E0FF80047EF07F01C3EF2B
:1011C30094FFEE6480948F50199002EBE0FEA3E04D
:1011D300FF9401EE648094704002800A7EF07F01E8
:1011E30080047E0F7FFF9002EBEEF0A3EFF0D3EDD0
:1011F3009401EC648094704008A3E0FEA3E0FF80B8
:10120300047EF07F01C3EF94FFEE6480948F501946
:101213009002EDE0FEA3E0FF9401EE648094704041
:1012230002800A7EF07F0180047E0F7FFF9002ED33
:10123300EEF0A3EFF090029BE0FEA3E0FFCBEFCB39
:10124300CAEECAEA3395E0F9F8900297E0FEA3E00C
:10125300FFEE3395E0FDFC1246B9C8ECC8C9EDC9F1
:10126300CAEECACBEFCB900111E0FEA3E024DFF579
:1012730082EE3401F583E493FFE4FCFDFE1246B9EC
:10128300E47B7DFAF9F81271E690029BEEF0A3EF8E
:10129300F0A3E0FEA3E0FFEE3395E0FDFC1247D69A
:1012A300C8ECC8C9EDC9CAEECACBEFCB900299E02E
:1012B300FEA3E0FFEE3395E0FDFC1246B9C8ECC88F
:1012C300C9EDC9CAEECACBEFCB900111E0FEA3E092
:1012D30024DFF582EE3401F583E493FFE4FCFDFEA5
:1012E3001246B9E47B7DFAF9F81271E690029DEE9D
:1012F300F0A3EFF0900111E0FEA3E024DDF582EE10
:101303003401F583E493FFE4FCFDFE7BFF7A7FF970
:10131300F81246B9E47B32FAF9F81271E69002EB5F
:10132300EEF0A3EFF0900111E0FEA3E024DEF582DE
:10133300EE3401F583E493FFE4FCFDFE7BFF7A7F4B
:10134300F9F81246B9E47B32FAF9F81271E6900221
:10135300EDEEF0A3EFF0D390029CE0940090029B9B
:10136300E06480948040479002EBE0FEA3E0FFCB73
:10137300EFCBCAEECAEA3395E0F9F890029BE0FEA0
:10138300A3E0FFEE3395E0FDFCEB2FFFEA3EFEE921
:101393003DFDE83CFCE47BFF7A7FF9F8C31247E4A8
:1013A300500C9002EB747FF0A374FFF08055C39050
:1013B300029BE06480948050369002EBE0FEA3E051
:1013C300FFCBEFCBCAEECAEA3395E0F9F890029B64
:1013D300E0FEA3E0FFEE3395E0FDFCEB2FEA3EE9F0
:1013E3003DE83C335009E49002EBF0A3F080149005
:1013F300029BE0FEA3E0FF9002ECE02FF09002EBF3
:10140300E03EF0D390029EE0940090029DE0648061
:10141300948040479002EDE0FEA3E0FFCBEFCBCA00
:10142300EECAEA3395E0F9F890029DE0FEA3E0FFEF
:10143300EE3395E0FDFCEB2FFFEA3EFEE93DFDE8D0
:101443003CFCE47BFF7A7FF9F8C31247E4500C902D
:1014530002ED747FF0A374FFF08056C390029DE009
:101463006480948050379002EDE0FEA3E0FFCBEF61
:10147300CBCAEECAEA3395E0F9F890029DE0FEA3E9
:10148300E0FFEE3395E0FDFCEB2FFFEA3EE93DE89C
:101493003C335009E49002EDF0A3F0801490029DD8
:1014A300E0FEA3E0FF9002EEE02FF09002EDE03EBD
:1014B300F09002EBE0FCA3E0FDCFEDCF900310F042
:1014C300ECFFEFA3F09002EDE0FCA3E0FDCFEDCF46
:1014D300900312F0ECFFEFA3F090030F7411F09060
:1014E3000295E07002A3E07F0070027F017E00900E
:1014F3000295EEF0A3EFF025E01490030AF022E446
:101503009002EBF0A374FFF0E4A3F0A3F0EF603AD2
:10151300900285E0FEA3E0F5828E8374F093D3946A
:1015230000500F7E007F107D007B017A02797512D7
:1015330048A7900285E0FEA3E0F5828E8374F093C2
:10154300D394015005E490021EF09001FDA3A3A3E0
:10155300E0FF90021FE0FEC3EF9EC394145003020A
:10156300246CE02414F0900285E0FEA3E0F5828E63
:101573008374F593700374F493602EE4F517744049
:101583002517F582E43401F583E060169001FDE050
:10159300FCA3E0FDA3E0FEA3E0FF90021812483194
:1015A30080070517E517B410D590021EE0540FFF0E
:1015B300BF021D7403F09001FDE0FCA3E0FDA3E076
:1015C300FEA3E0FF90021412483190022074FFF052
:1015D30090021EE0540F640360030216FC90021C89
:1015E300E0FEA3E0FFCBEFCBCAEECA900285E0FE9C
:1015F300A3E0F5828E8374F893FE74F993FFEF2BC7
:10160300FFEE3AFEE433FDE433C0E0EDC0E0EEC0AC
:10161300E0EFC0E0900214E0F8A3E0F9A3E0FAA33E
:10162300E0FB9001FDE0FCA3E0FDA3E0FEA3E0C32B
:101633009BFBEE9AFAED99F9EC98F8D0E0FFD0E035
:10164300FED0E0FDD0E0FCD31247FA50030216FCB3
:10165300900285E0FEA3E0F5828E8374F593700318
:1016630074F4936042900218E0F8A3E0F9A3E0FA5F
:10167300A3E0FB9001FDE0FCA3E0FDA3E0FEA3E0FB
:101683009BFBEE9AFAED99F9EC98F8900285E0FE4F
:10169300A3E0F5828E8374F493FE74F593FFE4FC68
:1016A300FDD31247FA4052900285E0FEA3E0F58293
:1016B3008E8374FB93700374FA93602E1270BECC06
:1016C300EECCCDEFCDAF8AEF6CFEEDFF900285E05F
:1016D300FCA3E0F5828C8374FA93FC74FB93FD12F4
:1016E3004596CEECCECFEDCF80047E007F009002F6
:1016F3001CEEF0A3EFF0E4A3F090021EE0540F60A1
:10170300030218DB04F09001FDE0FCA3E0FDA3E07D
:10171300FEA3E0FF900214124831E4900220F090FF
:101723000285E0FEA3E0F5828E8374F293FF7003DB
:101733000218B7EFD39404501B900285E0FEA3E098
:10174300F5828E8374F2931475F008A4FD74F193FB
:101753002D0218CF900285E0FEA3E0F5828E8374FC
:10176300F293B405030218D5E4F518F51790028532
:10177300E0FEA3E0FFF5828E8374EB932401FDE486
:1017830033FCC3E5179DEC6480F87480985035E50D
:1017930017C39409502EE58224E0F582E43583F5DE
:1017A30083E5822517F582E43583F583E493FF60AF
:1017B3000DD39404500874082518F51880020518F1
:1017C300051780A9900285E0FEA3E0F5828E83745D
:1017D300F293B4060F900222E004F0C39518402A56
:1017E300E4F080261270BEAD8AEF6DFFAD187C0069
:1017F3001245EB8D17900222E065177007E518D3A9
:10180300940150E0900222E517F0E4F518F51790E3
:101813000285E0FEA3E0FFF5828E8374EB9324013F
:10182300FDE433FCD3E5179DEC6480F87480985095
:101833007FE51794095079900222E0F9E518994061
:101843003DE51724DFFDE433FCEF2DF582EE3CF597
:1018530083E493600DD394045008E92408C39518D6
:10186300F518E51724DFFFE433FE900285E0FCA3BF
:10187300E02FF582EC3EF583E493F5178032900276
:1018830085E0FCA3E024E0F582E43CF583E58225D2
:1018930017F582E43583F583E493600DD394045004
:1018A3000874082518F51880020518051702181280
:1018B300E517700890022374C8F0801CE517D394D1
:1018C30004500FE5171475F008A42518900223F0AF
:1018D30080069002237464F090021EE0540F6401AA
:1018E30070599001FDA3A3E0FEA3E0FFCBEFCBCAA9
:1018F300EECA900214A3A3E0FEA3E0FFC3EB9FFF95
:10190300EA9EFE900285E0FCA3E0F5828C83C3741B
:10191300F7939F74F6939E5022900223E064C8606D
:101923001A9001FDE0FCA3E0FDA3E0FEA3E0FF901D
:101933000214124831900220E004F0900223E0FFE9
:10194300C39420500FEF75F010A4244FF974783529
:10195300F0FA801B900223E0B4643B900286E024FB
:1019630090FF900285E03400FECAEECAC9EFC97B3E
:10197300FFEBC0E0EAC0E0E9C0E0C87455C8CC742E
:1019830002CCCD7401CDD0E0F9D0E0FAD0E0FB7EFB
:10199300007F101244FD900285E0FEA3E0FFCAEE33
:1019A300CAC9EFC97BFFEBC0E0EAC0E0E9C0E0C809
:1019B3007425C8CC7402CCCD7401CDD0E0F9D0E04D
:1019C300FAD0E0FB7E007F301244FDE4F51790026D
:1019D30085E0FEA3E0F5828E8374F3937003021B0C
:1019E30020E51775F003A42425F582E43402F5837A
:1019F300E0FFE51775F003A42426F582E43402F52D
:101A030083E0FDE51775F003A42427F582E434028F
:101A1300F583E0C0E09002F87401F0A37402F0A330
:101A230074EFF0A37401F0A37402F0A374F1F0A3B4
:101A33007401F0A37402F0A374F3F0D0E0FB125D21
:101A430027900285E0FEA3E0F5828E8374F393FF73
:101A5300CBEFCBE4FAF9F89001FDE0FCA3E0FDA3A2
:101A6300E0FEA3E0FF124744E47BEA7A03F9F812AD
:101A73004744CCE8CCCDE9CDCEEACECFEBCF900234
:101A8300F0E02FF09002EFE03EF0C3A3E094EA9081
:101A930002EFE09403400CA3E02416F09002EFE081
:101AA30034FCF0E51775F003A4FFAEF02425F974B8
:101AB300023EFA7B01EBC0E0EAC0E0E9C0E0742635
:101AC3002FF974023EFAEBC0E0EAC0E0E9C0E0742B
:101AD300272FF974023EFA900301EBF0A3EAF0A377
:101AE300E9F0D0E0F9D0E0FAD0E09002FEF0A3EA0A
:101AF300F0A3E9F0D0E0F9D0E0FAD0E09002FBF0F7
:101B0300A3EAF0A3E9F09002EFE0FEA3E0FFA3E075
:101B1300FCA3E0FDA3E0FAA3E0FB12599D9002238E
:101B2300E064C86003021D9D900285E0FEA3E0F51A
:101B3300828E8374F793700374F6937003021D9D72
:101B43009001FDA3A3E0FEA3E0FFCBEFCBCAEECA57
:101B5300900214A3A3E0FEA3E0FFC3EB9FFBEA9E66
:101B6300FA900285E0FEA3E0F5828E8374F693FE7D
:101B730074F793FFD394E8EE9403400280047E034A
:101B83007FE87C037DE8124596CDEFCDCCEECCCF3C
:101B9300EBCFCEEACE1245967C037DEA12459690B2
:101BA30002F3ECF0A3EDF09002F3E0FEA3E0FFC339
:101BB30094F5EE9401402B74E99FF074039E900218
:101BC300F3F0900285E0FEA3E0F5828E8374FD932B
:101BD300FF9002EDE4F0A3EFF090021EE04480F0EA
:101BE300802D900285E0FEA3E0F5828E8374FC9342
:101BF300FF9002EDE4F0A3EFF090021EE0B4810F3A
:101C0300E517B40F037402F0E49002F3F0A3F0902D
:101C1300021EE0540F64016007E49002F3F0A3F0A6
:101C23009002EDE07002A3E0705DF51875F003E536
:101C330017A42518F582E435F0F583E5822425F50C
:101C430082E5833402F583E0FF7E009002F3E0FC3B
:101C5300A3E0FD12487AE47BF47A01F9F8124744D1
:101C630075F003E517A42518F582E435F0F583E54F
:101C7300822425F582E5833402F583EFF00518E528
:101C830018B403A8021D949002EDE07004A3E0646D
:101C9300016003021D219002F3E0FEA3E0FF7C003C
:101CA3007DFF12487AE47BF47A01F9F81247447411
:101CB300CF2FF58274763EF583E493FF9002F3E42D
:101CC300F0A3EFF0E4F51875F003E517A42518F574
:101CD30082E435F0F583E5822425F582E583340239
:101CE300F583E0FF7E009002F3E0FCA3E0FD1245E4
:101CF300847C007DFF12459675F003E517A4251833
:101D0300F582E435F0F583E5822425F582E5833415
:101D130002F583EFF00518E518B403AB8073900266
:101D2300F3E0FEA3E024DAF58274743EF583E493D2
:101D3300FF9002F3E4F0A3EFF0E4F51875F003E588
:101D430017A42518F582E435F0F583E5822425F5FB
:101D530082E5833402F583E0FF7E009002F3E0FC2A
:101D6300A3E0FD1245847C007DFF12459675F003C8
:101D7300E517A42518F582E435F0F583E5822425DB
:101D8300F582E5833402F583EFF00518E518B40313
:101D9300AB9002EB7401F0021F7D900223E064C854
:101DA3007003021F7D74552517F582E43402F58311
:101DB300E0FF900220E0FEEF6E6003021EBB900284
:101DC300EB04F0900285E0FEA3E0F5828E8374FCC1
:101DD30093FFC3741F9FFFE49400FE9002EDF0A3F2
:101DE300EFF0D3940AEE64809480401D9002EDE0FE
:101DF300FEA3E0FF7C007D0A124584EF24A6FFEEDC
:101E030034FF9002EDF0A3EFF074752517F582E42B
:101E13003402F583E0FFC374FF9FFFE49400FE9058
:101E230002EDE0FCA3E0FDC39FEE6480F8EC648068
:101E3300985013CFEDCF74752517F582E43402F56E
:101E430083E02FF0800E74752517F582E43402F5D4
:101E53008374FFF0E4F51875F003E517A42518F56E
:101E630082E435F0F583E5822425F582E5833402A7
:101E7300F583E0FF7E0074752517F582E43402F5DF
:101E830083E09076CF93FD7C001245847DFF12455D
:101E93009675F003E517A42518F582E435F0F5836C
:101EA300E5822425F582E5833402F583EFF00518F6
:101EB300E518B403A2021F7D900285E0FEA3E0F5BE
:101EC300828E8374FD932401FDE433FC747525171E
:101ED300F582E43402F583E0FBFF7E001245EB90CC
:101EE30002EDEEF0A3EFF0EB60119002EDE0700273
:101EF300A3E070079002EDF0A304F074752517F5C5
:101F030082E43402F583C083C082E0FF9002EDA334
:101F1300E0FDCEEDCEC3EF9ED082D083F0E4F51882
:101F230075F003E517A42518F582E435F0F583E58C
:101F3300822425F582E5833402F583E0FF7E007475
:101F4300752517F582E43402F583E0FD7C00124524
:101F5300847DFF12459675F003E517A42518F582D5
:101F6300E435F0F583E5822425F582E5833402F533
:101F730083EFF00518E518B403A674402517F5821E
:101F8300E43401F583E07003022016900285E0FC3F
:101F9300A3E02517F582E43CF5837460932401FDE7
:101FA300E433FC74652517F582E43402F583E0FB22
:101FB300FFC374FF9FFFE49400FE1245EB9002ED14
:101FC300EEF0A3EFF0C374FF9B60119002EDE0709D
:101FD30002A3E070079002EDF0A304F09002EDA3DA
:101FE300E0FF74652517F582E43402F583E02FF0F2
:101FF300900285E0FCA3E02517F582E43CF58374A9
:102003008093FF9002ECE0D39F50030220D6EFF0C1
:102013000220D6900285E0FCA3E02517F582E43C7C
:10202300F5837470932401FDE433FC74652517F57F
:1020330082E43402F583E0FBFF7E001245EB90025D
:10204300EDEEF0A3EFF0EB60119002EDE07002A370
:10205300E070079002EDF0A304F074652517F58294
:10206300E43402F583C083C082E0FF9002EDA3E075
:10207300FDCEEDCEC3EF9ED082D083F0E4F518758C
:10208300F003E517A42518F582E435F0F583E5821E
:102093002425F582E5833402F583E0FF900221E0F5
:1020A300FEEF8EF0A4FFAEF07C007DFF1245967527
:1020B300F003E517A42518F582E435F0F583E582EE
:1020C3002425F582E5833402F583EFF00518E5183E
:1020D300B403ACE4F518E51775F003A47C002518E8
:1020E300FFEC35F0FE900285E0FCA3E02FF582ECD7
:1020F3003EF583743093FF75F003E517A42518F5B7
:1021030082E435F0F583E5822425F582E583340204
:10211300F583E0FDC3EF9DFFE49400FE746525178E
:10212300F582E43402F583E0FD7C001245847DFFF3
:102133001245EB75F003E517A42518F582E435F095
:10214300F583E5822425F582E5833402F583E02FC8
:10215300F00518E518640360030220D90517E51795
:10216300C3941050030219D19002EBE0700A90025D
:102173001EE0540F64016037900285E0FEA3E0F592
:10218300828E8374F593700374F49360289001FD39
:10219300E0FCA3E0FDA3E0FEA3E0FF900218E0F85B
:1021A300A3E0F9A3E0FAA3E0FBC31247FA70069099
:1021B300021E7402F0900221E0FB9002ECE0FAD3DD
:1021C3009B4074900285E0FEA3E0F5828E8374FE4B
:1021D30093FF741F9FFFE49400FE9002EDF0A3EFC2
:1021E300F0D3940AEE64809480401D9002EDE0FEEB
:1021F300A3E0FF7C007D0A124584EF24A6FFEE34A2
:10220300FF9002EDF0A3EFF0EBFFEAC39FFFE4942E
:1022130000FE9002EDE0FCA3E0FDC39FEE6480F8B6
:10222300EC648098500BCFEDCF900221E02FF0802B
:102233005C9002ECE08052900221E0FF9002ECE01F
:10224300FEC39F5048EEFDC3EF9DFFE49400FE9054
:102253000285E0FCA3E0F5828C8374FF932401FDE7
:10226300E433FC1245EB9002EDEEF0A3EFF04E7079
:10227300079002EDF0A304F0900221E0FF9002ED3D
:10228300A3E0FDCEEDCEC3EF9E900221F0900111AD
:10229300E0FEA3E024FEF582EE3401F583E493FF30
:1022A300705EF517E51775F003A42425F582E43471
:1022B30002F583E0FEE51775F003A42425F8EEF696
:1022C300E51775F003A42426F582E43402F583E0D0
:1022D300FEE51775F003A42424F8EEF6E51775F070
:1022E30003A42427F582E43402F583E0FEE51775A1
:1022F300F003A42426F8EEF60517E517B410A5227B
:10230300EF6403706AF517E517907C1C9375F0036F
:10231300A42425F582E43402F583E0FFE51775F084
:1023230003A42425F8EFF6E517907C1C9375F003BE
:10233300A42426F582E43402F583E0FFE51775F063
:1023430003A42424F8EFF6E517907C1C9375F0039F
:10235300A42427F582E43402F583E0FFE51775F042
:1023630003A42426F8EFF60517E517B41099229075
:102373000111E0FEA3E024FEF582EE3401F583E4CF
:1023830093FF64027075F517C37410951775F00306
:10239300A42425F582E43402F583E0FEE51775F005
:1023A30003A42425F8EEF6E517FDC374109DFDE4A0
:1023B3009400FC90022675F003ED12486EEC75F064
:1023C30003A42583F583E0FEE51775F003A4242415
:1023D300F8EEF690022775F003ED12486EEC75F0F7
:1023E30003A42583F583E0FEE51775F003A42426F3
:1023F300F8EEF60517E517B4108E22EF6401706945
:10240300F517E517907C0C9375F003A42425F5824A
:10241300E43402F583E0FFE51775F003A42425F8FF
:10242300EFF6E517907C0C9375F003A42426F58250
:10243300E43402F583E0FFE51775F003A42424F8E0
:10244300EFF6E517907C0C9375F003A42427F5822F
:10245300E43402F583E0FFE51775F003A42426F8BE
:10246300EFF60517E517B4109922E49002D7F0A30D
:10247300F0A3F0A3F0900331F090032FF090032E1C
:10248300F0900307F0C874B3C8CC7402CCCD7401C8
:10249300CD7B017A037919FE7F151244FD7E007FFF
:1024A300157D007B017A0379191248A7900309E08F
:1024B3009002AEF07E007F047D007B017A037909F0
:1024C3001248A790030E7410F07E007F047DFF7BFB
:1024D300017A0379101248A7900316E09002B0F036
:1024E300E4900316F0900000E0C43354E02411F5A7
:1024F30082E43400F583E0FEA3E04E70037FFF2205
:102503009002A7E0604824D4F582E43401F583E027
:1025130060229002A7E0243FF582E43401F583E0D2
:1025230070129002C9E054036003E014F09002C9F2
:10253300E04404F09002C8E07F0070027F01900243
:10254300C8EFF07003023045123DF9023045E490C4
:1025530002DAF09002DAE0FFC3941040030226127D
:1025630074402FF582E43401F583E07003022609F9
:10257300900000E0C43354E02411F582E43400F504
:1025830083C083C0829002DAE0D082D08375F002E8
:1025930012486EE0FCA3E0F5828C83740193FEB4D1
:1025A300010E9002B1E0FDEF6D60059002D78053FC
:1025B300EEB402119002B1E0FF9002DAE06F600521
:1025C3009002D8803E900000E0C43354E02411F51B
:1025D30082E43400F583C083C0829002DAE0FFD046
:1025E30082D08375F00212486EE0FCA3E0F5828C82
:1025F30083740193B4070F9002B1E0FEEF6E60069F
:102603009002D9E004F09002DAE004F0022556E4E7
:102613009002DAF09002DAE0FFC394104003022C38
:10262300229002B1E0FEEF6E70549002DAE0244093
:10263300F582E43401F583E06003022C1974D52F8D
:10264300F582E43401F583E06003022C199002AAB9
:10265300E004F0E0D3940A5003022C19E4F0900252
:10266300DAE02403FF9002AFE0FD1267B79002ADFA
:10267300E0FF126BB89002B174FFF0022C199002C4
:10268300DAE0FF2440F582E43401F583E0700302CD
:102693002AF7900000E0C43354E02411F582E434B7
:1026A30000F58375F002EF12486EE0FEA3E0FFF53C
:1026B300828E83740193B401061267A6022C1990CB
:1026C3000000E0C43354E02411F582E43400F583C0
:1026D300C083C0829002DAE0D082D08375F0021208
:1026E300486EE0FEA3E0FFF5828E837401936402DB
:1026F30070401267A6900319E0FF900000E0C43316
:1027030054E02411F582E43400F583C083C0829041
:1027130002DAE0D082D08375F00212486EE0FCA3A7
:10272300E0F5828C83740393FEEF4E900319F0025D
:102733002C19900000E0C43354E02411F582E434F2
:1027430000F583C083C0829002DAE0FFD082D08399
:1027530075F00212486EE0FCA3E0FDF5828C8374F1
:102763000193640370559002D7E06003022C19A310
:10277300E06003022C19A3E06003022C1974D52F27
:10278300F582E43401F583E06003022C199002DA48
:10279300E0049002A7F0ED2403FEE43C9002ABF0CA
:1027A300A3CEF0E49002A5F0A3F09002C97402F066
:1027B3009002C814F0123DF9022C19900000E0C4F5
:1027C3003354E02411F582E43400F583C083C082DE
:1027D3009002DAE0D082D08375F00212486EE0FEF8
:1027E300A3E0F5828E83740193FF64046008EF64B1
:1027F3000560030229869002DAE0FF24D5F582E41E
:102803003401F583E0700D74012FF582E43400F593
:10281300837402F0900000E0C43354E02411F58285
:10282300E43400F583C083C0829002DAE0D082D022
:102833008375F00212486EE0FEA3E02402FFE43E3B
:102843008F82F583E493FE740193FFE4FCFDFB7A2E
:1028530080F9F81246B9ECC0E0EDC0E0EEC0E0EF5D
:10286300C0E0900111E0FEA3E024FAF582EE34010A
:10287300F583E493FE740193FFCBEFCBCAEECAE476
:10288300F9F8D0E0FFD0E0FED0E0FDD0E0FC12711B
:10289300E69002DBEEF0A3EFF0900000E0C43354C7
:1028A300E02411F582E43400F583C083C0829002F2
:1028B300DAE0D082D08375F00212486EE0FEA3E026
:1028C3002404FFE43E8F82F583E493FE740193FFB7
:1028D300E4FCFDFB7A80F9F81246B9ECC0E0EDC0E8
:1028E300E0EEC0E0EFC0E0900111E0FEA3E024FCC5
:1028F300F582EE3401F583E493FE740193FFCBEF8D
:10290300CBCAEECAE4F9F8D0E0FFD0E0FED0E0FD98
:10291300D0E0FC1271E69002DDEEF0A3EFF090023E
:10292300DBE0FCA3E0FDCFEDCF900310F0ECA3F0D0
:102933009002DDE0FCA3E0FDCFEDCF900312F0ECBD
:10294300A3F0900000E0C43354E02411F582E43492
:1029530000F583C083C0829002DAE0FFD082D08387
:1029630075F00212486EE0FCA3E0F5828C837401DB
:1029730093B4050790030EE04401F090030FEFF0CA
:10298300022C19900000E0C43354E02411F582E4D2
:102993003400F583C083C0829002DAE0FFD082D096
:1029A3008375F00212486EE0FCA3E0F5828C837419
:1029B300019364066003022A8E74039320E70302E3
:1029C3002C199002B1E0F46003022C1974D52FF591
:1029D30082E43401F583E06003022C19900000E0E7
:1029E300C43354E02411F582E43400F583C083C07A
:1029F300829002DAE0D082D08375F00212486EE052
:102A0300FCA3E0FDF5828C837402939002AFF090F7
:102A13000000E0FF049002ADF074132FF582E4345C
:102A230001F583E09002DFF08D828C83740393FFC2
:102A3300126BB8900000E02413F582E43401F583AF
:102A4300E02404FF9002DFE0FEC3EF9E5403FF7017
:102A5300069002DAE0802DEFB4010A9002DAE090EA
:102A63007C0C93801FEFB4020B9002DAE0FFC37477
:102A7300109F8010EF64036003022C229002DAE0BF
:102A8300907C1C939002B1F0022C22900000E0C4D1
:102A93003354E02411F582E43400F583C083C0820B
:102AA3009002DAE0FFD082D08375F00212486EE024
:102AB300FCA3E0FDF5828C83740193640760030239
:102AC3002C1974D52FF582E43401F583E0600302F9
:102AD3002C198D828C8374039330E003022C19909C
:102AE30002DAE02401F582E43400F583E04402F0E5
:102AF300EF022BEE9002DAE0FF24D5F582E43401F5
:102B0300F583E0FE7003022C19900000E0C43354F7
:102B1300E02411F582E43400F58375F002EF1248E6
:102B23006EE0FCA3E0F5828C83740193FFB4051976
:102B3300EE7003022C199002DAE02401F582E434EA
:102B430000F5837401F0022C19EF640670419000C4
:102B530000E0C43354E02411F582E43400F583C06B
:102B630083C0829002DAE0D082D08375F0021248EB
:102B73006EE0FEA3E0F5828E83740393FF30E703D8
:102B8300022C199002B174FFF0126BB8022C199049
:102B93000000E0C43354E02411F582E43400F583EB
:102BA300C083C0829002DAE0FFD082D08375F00246
:102BB30012486EE0FCA3E0F5828C83740193FE64FB
:102BC30007704C74039330E03374012FF582E434BF
:102BD30000F583E0FF20E1249002DAE0FD2401F513
:102BE30082E43400F583EF4402F0ED25E0241BF585
:102BF30082E43401F583E4F0A3F0801A9002DAE072
:102C03002401F582E43400F583E054FDF08007EEFF
:102C1300B408037F01229002DAE004F0022617E4ED
:102C23009002DAF09002DAE0FFC394104003022E20
:102C330040900000E0C43354E02411F582E43400F2
:102C4300F58375F002EF12486EE0FEA3E0F5828E85
:102C530083740193FF64046008EF64056003022E2C
:102C630037900000E0C43354E02411F582E43400CB
:102C7300F583C083C0829002DAE0D082D08375F0FE
:102C83000212486EE0FEA3E0F5828E83740393FF85
:102C930064016008EF64026003022E37900000E0D5
:102CA300C43354E02411F582E43400F583C083C0B7
:102CB300829002DAE0D082D08375F00212486EE08F
:102CC300FEA3E02402FFE43E8F82F583E493FE74C7
:102CD3000193FFE4FCFDFB7A80F9F81246B9ECC0DE
:102CE300E0EDC0E0EEC0E0EFC0E0900111E0FEA334
:102CF300E024FAF582EE3401F583E493FE74019344
:102D0300FFCBEFCBCAEECAE4F9F8D0E0FFD0E0FE88
:102D1300D0E0FDD0E0FC1271E69002DBEEF0A3EF11
:102D2300F0900000E0C43354E02411F582E4340051
:102D3300F583C083C0829002DAE0D082D08375F03D
:102D43000212486EE0FEA3E02404FFE43E8F82F506
:102D530083E493FE740193FFE4FCFDFB7A80F9F8AE
:102D63001246B9ECC0E0EDC0E0EEC0E0EFC0E09089
:102D73000111E0FEA3E024FCF582EE3401F583E4C7
:102D830093FE740193FFCBEFCBCAEECAE4F9F8D0FC
:102D9300E0FFD0E0FED0E0FDD0E0FC1271E690024F
:102DA300DDEEF0A3EFF09002DBE0FCA3E0FDCFED5E
:102DB300CF900310F0ECA3F09002DDE0FCA3E0FD64
:102DC300CFEDCF900312F0ECA3F09002DAE0FF9086
:102DD300030FF0900000E0C43354E02411F582E4C3
:102DE3003400F58375F002EF12486EE0FEA3E0F5C0
:102DF300828E8374039364027024049390030EB44D
:102E03000506E04401F08004E054FEF09002DAE0AD
:102E13002401F582E43400F5837403F0801FE49009
:102E2300030EF09002DAE02401F582E43400F58326
:102E3300E4F080099002DAE004F0022C27E4900227
:102E4300E0F09002DAF09002DAE0FFC3941040035E
:102E5300023029900000E0C43354E02411F582E4E9
:102E63003400F58375F002EF12486EE0FEA3E0F53F
:102E7300828E83740193640760030230209001FD06
:102E8300E0FCA3E0FDA3E0FEA3E0FF900287E0F8EF
:102E9300A3E0F9A3E0FAA3E0FBD31247FA4036908C
:102EA30002DAE0FF25E0241BF582E43401F583E434
:102EB300F0A3F074012FF582E43400F583E054FBB2
:102EC300F09002DAE02401F582E43400F583E05463
:102ED300FDF00230209002DAE0FF2401F582E434B1
:102EE30000F583E020E103023020900000E0C433CA
:102EF30054E02411F582E43400F58375F002EF12F7
:102F0300486EE0FEA3E0FF2404FDE43E8D82F583DA
:102F1300E493FC7401934C70061267A6022FE990A8
:102F230002DAE0FF2401F582E43400F583E0FE30A9
:102F3300E21174012FF582E43400F583EE54FBF0C3
:102F4300022FE99001FDA3A3E0FEA3E0FF9002DAC4
:102F5300E025E0241BF582E43401F583E0FCA3E0E3
:102F6300FDC3EF9DFFEE9CFE900000E0C43354E0F0
:102F73002411F582E43400F583C083C0829002DA21
:102F8300E0D082D08375F00212486EE0FCA3E0FD2E
:102F93002404FBE43C8B82F583E493FA740193D31A
:102FA3009FEA9E50419002DAE0FF8D828C83740287
:102FB30093FDEF2403FF1267B79001FDA3A3E0FE87
:102FC300A3E0FF9002DAE0FD25E0241BF582E43460
:102FD30001F583EEF0A3EFF074012DF582E43400E4
:102FE300F583E04404F0900000E0C43354E024117E
:102FF300F582E43400F583C083C0829002DAE0D026
:1030030082D08375F00212486EE0FEA3E0F5828E53
:103013008374039330E0069002E0E004F09002DA58
:10302300E004F0022E499001FDE0FCA3E0FDA3E0E3
:10303300FEA3E0FF9002871248319002E0E0900285
:10304300A9F0E4FF120066E4FF1257BA9002A7E06A
:10305300700312621F9002DA7401F09002DAE0FF4B
:103063002418F582E43403F583E0FE74B22FF5826D
:10307300E43402F583E06E60089003077401F08086
:103083000A9002DAE004F0E0B416D09002AEE0FF5A
:10309300900309E06F6002801D9002DA7402F090E1
:1030A30002DAE0FFC39405501D74082FF582E4345F
:1030B30003F583E0600890032E7401F0800890020A
:1030C300DAE004F080D99002DA7403F09002DAE0D7
:1030D300FFC39407501E740D2FF582E43403F58368
:1030E300E0F4600890032F7401F080089002DAE0A6
:1030F30004F080D89002B0E0FF900316E06F600602
:103103009003317401F09002B1E0F4601D90030765
:10311300E0701290032EE0700C90032FE070069085
:103123000331E06005E49002AFF09002A8E0B4013F
:1031330011E4900331F090032FF090032EF09003ED
:1031430007F07F0022C0E0C0F0C083C082C0D0750A
:10315300D00820D903023DB0E5D9543F7003023DA6
:103163009F14700302390B14602E24E27003023D96
:103173001214700302390124F1700302397E240E04
:103183006003023DAC75D50063D440C20CE5D45452
:10319300FC4402F5D4023DAC20DE03023DAC63D413
:1031A30080AFDB9002D2E4F0A3EFF09002D2A3E071
:1031B300F5D5900314E030E75790057FE075F040B4
:1031C300A42400F9740635F0FAC8E9C8CCEACCCDDA
:1031D3007401CD7B017A0579007E007F401244FDA6
:1031E3009005407452F0A37444F090057FE0FF040F
:1031F300F0900542EFF090057EE0FFA3E0C39F50FF
:10320300030238FBE4F0900314E0547FF00238FB30
:103213009005407452F0900501E0900541F090054F
:1032230002E0900542F0900503E0900543F090051D
:1032330000E0B44410A3E0B44B0BA3E0B44206A3F4
:10324300E06443601A900500E064447052A3E064B4
:103253004C704CA3E064547046A3E0644370409008
:103263000504E0C394314037E0D3943850319005DE
:1032730001E090057EB44B0B7408F0900504E02444
:10328300D980097404F0900504E024ED900314F050
:1032930090057FE4F0900314E04480F00238FB9043
:1032A3000500E064437023A3E0B44B1EA3E0B459CC
:1032B30019A3E0B45414900544E514F0900504E018
:1032C300F514900545E514023577900500E0644355
:1032D3006003023412A3E064526003023412A3E0D9
:1032E300644B6003023412A3E0644D6003023412A2
:1032F300900153E0FFA3E0900544CFF0A3EFF090DB
:103303000155E0FFA3E0900546CFF0A3EFF0900155
:1033130064E02401FF900163E03400FE9001A7E024
:10332300FCA3E0FDD39FEC9E4008CEECCECFEDCFC7
:103333008000900160E024FFFD90015FE034FFFC1A
:10334300C3EF9DEE9C5026900164E02401FF9001A1
:1033530063E03400FE9001A7E0FCA3E0FDD39FEC03
:103363009E4008CEECCECFEDCF8010800E90016052
:10337300E024FFFF90015FE034FFFE900153EEF085
:10338300A3EFF0900166E02401FF900165E03400B3
:10339300FE9001A9E0FCA3E0FDD39FEC9E4008CE84
:1033A300ECCECFEDCF8000900162E024FFFD9001D1
:1033B30061E034FFFCC3EF9DEE9C5026900166E074
:1033C3002401FF900165E03400FE9001A9E0FCA315
:1033D300E0FDD39FEC9E4008CEECCECFEDCF801026
:1033E300800E900162E024FFFF900161E034FFFE54
:1033F300900155EEF0A3EFF0900153E0FDA3E090B0
:103403000548CDF0A3EDF0A3EEF0A3EF02357790DE
:103413000500E064436003023535A3E064526003B2
:10342300023535A3E0644B6003023535A3E0645AEB
:103433006003023535900163E0FFA3E0900544CFBC
:10344300F0A3EFF090015FE0FFA3E0900546CFF01B
:10345300A3EFF0900165E0FFA3E0900548CFF0A350
:10346300EFF0900161E0FFA3E090054ACFF0A3EFF6
:10347300F0900504E0FEA3E0FF900153E0FCA3E01D
:10348300FDC3EF9DEE9C400302352A900506E0FE46
:10349300A3E09DEE9C500302352AA3E0FEA3E0FFC8
:1034A300900155E0FCA3E0FDEF9DEE9C5079900563
:1034B3000AE0FEA3E09DEE9C406D900504E0FFA3AF
:1034C300E0900163CFF0A3EFF0900506E0FFA3E0E7
:1034D30090015FCFF0A3EFF0900508E0FFA3E09029
:1034E3000165CFF0A3EFF090050AA3E0FF9001611F
:1034F300EEF0A3EFF0A3E0FDA3E090054CCDF0A325
:10350300EDF090015FE0FDA3E090054ECDF0A3ED5B
:10351300F0900165E0FDA3E0900550CDF0A3EDF040
:10352300A3EEF0A3EF804D90054C74FFF0A3F002DF
:1035330038FB900500E064437044A3E06445703EAB
:10354300A3E064437038A3E064447032A20F339065
:103553000544F0A210E433A3F0900504E024FF92A5
:103563000FA3E024FF9210A20FE433900546F0A2CC
:1035730010E433A3F09003147432F00238FB900587
:1035830000E0B44313A3E0B4450EA3E0B44309A39E
:10359300E0644670030238FB900500E06442702843
:1035A300A3E0B44623A3E0B4571EA3E0B45619C85E
:1035B3007444C8CC7405CCCD7401CD7BFF7A0079FB
:1035C3000E7E007F04023803900500E0644260032E
:1035D300023721A3E064556003023721A3E0644965
:1035E3006003023721A3E06444600302372190059E
:1035F3007DF090057DE0FF25E02439F582E4340376
:10360300F583E0FE74442FF582E43405F583EEF090
:1036130090057DE02444F582E43405F583E0C3940A
:1036230030402790057DE02444F582E43405F5839A
:10363300E0D39439501490057DE02444F582E434BA
:1036430005F583E024D0F00236CE90057DE02444D6
:10365300F582E43405F583E0C39461402690057D4B
:10366300E02444F582E43405F583E0D394665013F3
:1036730090057DE02444F582E43405F583E024A934
:10368300F0804890057DE02444F582E43405F58319
:10369300E0C39441402690057DE02444F582E43460
:1036A30005F583E0D39446501390057DE02444F55B
:1036B30082E43405F583E024C9F0800F90057DE0B2
:1036C3002444F582E43405F583E4F090057DE004B9
:1036D300F0E0640C60030235F590057DE4F090059D
:1036E3007DE0FF25E02444F582E43405F583E0C45E
:1036F30054F0FEEF25E02445F582E43405F583E03C
:103703004EFF90057DE02444F582E43405F583EF14
:10371300F090057DE004F0E0B406C30238FB9005A9
:1037230000E0644260030237D6A3E0644960030209
:1037330037D6A3E0645060030237D6A3E064546035
:10374300030237D69001A7E0FFA3E0900544CFF032
:10375300A3EFF09001A9E0FFA3E0900546CFF0A30B
:10376300EFF0A312483D0000000090057DE4F090C7
:103773000548C083C082E0F8A3E0F9A3E0FAA3E020
:10378300FBE8C0E0E9C0E0EAC0E0EBC0E090057D03
:10379300E0F92440F582E43401F583E0FFE4FCFD25
:1037A300FEC8E9C812481ED0E0FBD0E0FAD0E0F929
:1037B300D0E0F8EB4FFFEA4EFEE94DFDE84CFCD0BC
:1037C30082D08312483190057DE004F0E0B4139F6A
:1037D3000238FB900500E06442702BA3E0B4472657
:1037E300A3E0B45021A3E0B44D1CC87444C8CC7406
:1037F30005CCCD7401CD7BFF7ADA79007E007F386A
:103803001244FD0238FB900500E06442701DA3E002
:10381300B44418A3E0B44713A3E0B4430E7B017A86
:103823000579447D3812737C0238FB900500E0640F
:10383300427028A3E064527022A3E0B4531DA3E0B6
:10384300B454187E007F3C7D207B017A05794412B5
:1038530048A79003147464F00238FB900500E064F9
:10386300427027A3E064427021A3E0B44F1CA3E09D
:10387300B454177E007F3C7D207B017A0579441286
:1038830048A79003147465F0806E900500E06442CD
:103893007054A3E06443704EA3E064537048A3E004
:1038A30064437042FE7F3C7D207B017A057944129C
:1038B30048A7900000E02431900544F0900504E00F
:1038C300C394314019E0D394385013E0900545F088
:1038D30024CF900600F09003147466F0801A9005CC
:1038E3004574FFF080129005407452F0A37449F0C0
:1038F300A3744EF0A37456F053D4FC023DAC75D3BD
:103903000063D240C20B8068AFDB9002D2E4F0A325
:10391300EFF09002D2E0FEA3E0FF4E6053D3EF94AA
:1039230002EE9400504A9002D2A3E0247FF5827401
:10393300053EF583E0FF7E009002D2EEF0A3EFF0A8
:103943007F0020E0027F01EF24FFB3920A9002D2AE
:10395300E0FEA3E0FF7D0020E1027D01ED24FFB343
:10396300920DEF7F0020E2027F01EF24FFB3920963
:10397300E5D254FC4402F5D2023DAC75DCC0AFDBAA
:103983009002D2E4F0A3EFF09002D2E07004A3E03F
:1039930064086003023CE79004C7E0FE9004C6E0BD
:1039A3007C002400FFEC3E900334F0A3EFF0900280
:1039B300D2E4F0A3F09002D1F09004C1E09003367A
:1039C300F09004C0E05460601A900336E01424FDC4
:1039D3004003023CED24FB24FD4003023CED800048
:1039E300023CE7900336E0B40B004003023CE59051
:1039F30039F9F8282873023CBA023BE9023CE50294
:103A03003C39023CE5023BA6023A1A023CE5023B82
:103A1300B2023BD7023CED9004C3E024FE602B14BA
:103A2300604224E17003023AE024216003023B1F59
:103A330090035374FFF0A3747AF0A3745FF09002C1
:103A4300D2E4F0A37412F0023B2590035374FFF009
:103A5300A3747BF0A374B6F09002D2E4F0A374498C
:103A6300F0023B259004C2E014602714603D14600B
:103A73005324036003023B1F90035374FFF0A374AA
:103A83007AF0A37471F09002D2E4F0A37404F0020C
:103A93003B2590035374FFF0A3747AF0A3748BF067
:103AA3009002D2E4F0A37424F0807790035374FF60
:103AB300F0A3747AF0A37475F09002D2E4F0A374C7
:103AC30016F0805E9003537401F0A37403F0A374A3
:103AD30037F09002D2E4F0A3741AF080459004C446
:103AE300E0FF701990035374FFF0A3747AF0A3748A
:103AF300AFF09002D2E4F0A374E5F08025EFB401B7
:103B03001990035374FFF0A3747BF0A37494F090A3
:103B130002D2E4F0A37422F0800880009002D174F2
:103B2300FFF09002D2E0FEA3E0FFD3900335E09FC5
:103B3300900334E09E4005EEF0A3EFF0900334E0F1
:103B4300FEA3E0FFC39440EE9400400C7C007D4054
:103B5300CEECCECFEDCF80009002D2EEF0A3EFF00B
:103B63009002D2E0FEA3E0FFC874C0C8CC7404CCBA
:103B7300CD7401CD900353E0FBA3E0FAA3E0F91267
:103B830044FD9002D2E0FEA3E0FFC3900335E09F23
:103B9300F0900334E09EF0900354EE8FF012462130
:103BA300023CED9004C2E0FF900334E4023CDF905A
:103BB3000333E09004C0F0C3900335E09401900315
:103BC30034E094005003023CED9002D2E4F0A304ED
:103BD300F0023CED9004C2E0900333F07003023C2A
:103BE300EDD20E023CED9004C0E0541FFF6402705E
:103BF300359004C4E014601E1460202481600D1409
:103C0300701EE5D454BC4402F5D4801AE5D254BCEA
:103C13004402F5D2801053D273800B53D4738006C1
:103C23009002D174FFF0EF700A900332E054FEF07B
:103C3300023CED023CE79004C0E0541FFD70269067
:103C430004C3E0FE9004C2E0FBEB64014E701490E9
:103C53007BBD9330E50A900332E04401F0023CED72
:103C6300023CE7807FED6402704B9004C3E0FE905A
:103C730004C2E0FDED4E703B9004C5E0FE9004C429
:103C8300E0FDEDFFEE702AEF24FE60112481601742
:103C930014701EE5D454BF4403F5D4804DE5D454C9
:103CA3007F440CF5D48043E5D254BF4403F5D2805E
:103CB300398031802F802D9004C1E4F09004C0F04E
:103CC300900334E0FEA3E0FFC39402EE940090025D
:103CD300D24008E4F0A37402F0800FEEF0A3EFF0FB
:103CE300800880009002D174FFF09002D1E0B4FF0D
:103CF3000675DCCF023DAC9002D2E0FEA3E0FF4E9E
:103D030060048FDD800375DD0075DCC0023DAC907F
:103D13000336E024FB606E14707A900334E0FEA354
:103D2300E0FFC39440EE9400400C7C007D40CEEC59
:103D3300CECFEDCF80009002D2EEF0A3EFF0900251
:103D4300D2E0FEA3E0FFC874C0C8CC7404CCCD7429
:103D530001CD900353E0FBA3E0FAA3E0F91244FD85
:103D63009002D2E0FEA3E0FFC3900335E09FF09002
:103D73000334E09EF0900354EE8FF01246218FDD62
:103D830063DC408024900334A3E0FFE5E354804FD9
:103D9300F5E3800375DD0075DC02800DAFDB900277
:103DA300D2E4F0A3EFF063DC80C2D9803E30D81FA9
:103DB30075DC0275D20275D40275E300C2DAC2D98A
:103DC300C20EC20BC20C900332E4F0C2D8801C3086
:103DD300DA16C2DAE5DA90033230E206E04402F0A2
:103DE3008009E054FDF0800375D8FFD0D0D082D095
:103DF30083D0F0D0E0329002E17403F09001FDE053
:103E0300FCA3E0FDA3E0FEA3E0FF90028FE0F8A394
:103E1300E0F9A3E0FAA3E0FBD31247FA400A9002C9
:103E23008B12483D000000009001FDE0FCA3E0FD83
:103E3300A3E0FEA3E0FF90028F1248319001FDE062
:103E4300FCA3E0FDA3E0FEA3E0FF90028BE0F8A358
:103E5300E0F9A3E0FAA3E0FBD31247FA400C900287
:103E6300A87401F0E49002C8F022E49002A8F09054
:103E730002E6F0A3F09002A7E0FF603B900000E0B1
:103E830075F020A4240FF582E5F03400F58375F076
:103E930002EF12486EE0FEA3E0FFF5828E83740208
:103EA30093FD7C00EF2403FFE43EFEEF2DFFEC3E89
:103EB3009002E6F0A3EFF09002E1E0C39416400312
:103EC30002442C9002E6E0FEA3E0FF9002ABE0FC8C
:103ED300A3E0FDC39FEC9E4004E40242E38D828C89
:103EE30083E493FFB4EA37ED2401FBE43C8B82F5D2
:103EF30083E493FE54019002C8F0EE30E10F900288
:103F0300ACE02402F09002ABE03400F0229002AC6B
:103F1300E004F070069002ABE004F002441BEF648F
:103F2300EB600302404AED2401FFE43C8F82F583FA
:103F3300E493FBB4021EED2404FEE43C900293F0F0
:103F4300A3CEF09002ACE02404F09002ABE0340086
:103F5300F0023EBA9002A6E004F070069002A5E0DB
:103F630004F0ED2402FFE43C8F82F583E493FEED3D
:103F73002403FDE43C8D82F583E493FDEDFF900281
:103F8300E2EEF0A3EFF0EB600B9002C9E030E20445
:103F9300540360339002ABE0FEA3E02401FFE43E50
:103FA3008F82F583E49370079002C9E020E21890B2
:103FB30002E2E0FEA3E0FF4E60149002A5E0FCA342
:103FC300E0C39FEC9E40079002C9E04480F090025A
:103FD300C9E0FF30E7279002ACE02403F09002AB86
:103FE300E03400F0EF547B9002C9F0E49002A5F0B6
:103FF300A3F074FF900293F0A3F002441B9002938A
:10400300E0FEA3E0FFF47002EEF460069002ABEE74
:104013008030900000E075F020A4240FF582E5F0D5
:104023003400F583C083C0829002A7E0D082D0839E
:1040330075F00212486EE0FEA3E02403FFE43E9015
:1040430002ABF0A3EFF0229002ABE0FEA3E0F58217
:104053008E83E49364FE707C9002ABE0FCA3E0FDEE
:104063002401FFE43C8F82F583E493FEED2402FDFB
:10407300E43C8D82F583E493FDEDFF9002E9EEF0DD
:10408300A3EFF0E4FCFD9001FDE0F8A3E0F9A3E069
:10409300FAA3E02FFFEA3EFEED39FDEC38FC900277
:1040A3008B1248319002ACE02402F09002ABE03472
:1040B30000F09002E6E0FEA3E0FF9002ABE475F0AF
:1040C30001124621FCEF65F07002EE6C60030244BE
:1040D3002C0242E39002ABE0FEA3E0F5828E83E480
:1040E30093FC64FD70619002E1E0FFD3940340030D
:1040F30002442C900309E0600302442C9002AB7548
:10410300F00112462185F082F583E493FD1267B72F
:104113009002ABE475F00112462185F082F583E449
:1041230093900319F09002E6E0FEA3E0FF9002AB48
:10413300E475F001124621FAEF65F07002EE6A6051
:104143000302442C0242E3EC64EC60149002ABE003
:10415300FEA3E0F5828E83E49364ED60030242E8FC
:104163009002E1E0D39403400302442C900309E05E
:10417300600302442C9002ABE0FCA3E0FD2401FFAA
:10418300E43C8F82F583E493FEED2402FDE43C8D51
:1041930082F583E493FDEDFF9002E2EEF0FCA3EFE2
:1041A300F0CCCCCDCD9002ABE0FAA3E0FB2403FF2F
:1041B300E43A8F82F583E493FEEB2404FBE43A8B29
:1041C30082F583E493FBEBFF9002E4EEF0A3EFF0C0
:1041D300CFEDCFCEECCEE4FCFDFB7A80F9F81246AE
:1041E300B9ECC0E0EDC0E0EEC0E0EFC0E09001113B
:1041F300E0FEA3E024FAF582EE3401F583E493FEB6
:10420300740193FFCBEFCBCAEECAE4F9F8D0E0FF19
:10421300D0E0FED0E0FDD0E0FC1271E69002E2EEC9
:10422300F0A3EFF0A3E0FEA3E0FFE4FCFDFB7A8044
:10423300F9F81246B9ECC0E0EDC0E0EEC0E0EFC023
:10424300E0900111E0FEA3E024FCF582EE3401F5D9
:1042530083E493FE740193FFCBEFCBCAEECAE4F978
:10426300F8D0E0FFD0E0FED0E0FDD0E0FC1271E634
:104273009002E4EEF0A3EFF09002E2E0FCA3E0FD95
:10428300CFEDCF900310F0ECA3F09002E4E0FCA399
:10429300E0FDCFEDCF900312F0ECA3F09002ABE082
:1042A300FEA3E0F5828E83E493B4ED0790030EE062
:1042B3004401F09002ACE02404F09002ABE034003F
:1042C300F09002E6E0FEA3E0FF9002ABE475F0019C
:1042D300124621FCEF65F07002EE6C600302442C81
:1042E3009002A7F0229002ABE0FEA3E0F5828E835A
:1042F300E49364FA600302439A9002E87403F0F0D3
:104303009002E1E0FC9002E8E0FFC39C502A900297
:10431300ABE0FAA3E0F5828A83E493FE74182FF5E9
:1043230082E43403F583E06E70069002E8F08008BF
:104333009002E8E004F080C89002E8E070030244D1
:104343002C900309E0600302442C900319E06019E8
:104353009002E1E0FF04F09002ABE475F001124635
:104363002185F082F583024415EC64036003024463
:104373002C9002E1E0FF04F09002ABE475F001122F
:10438300462185F082F583E493FD1267B790031904
:10439300E04402F002441B9002E87403F0F0900240
:1043A300E1E0FC9002E8E0FFC39C502A9002ABE0FE
:1043B300FAA3E0F5828A83E493FE74182FF582E46E
:1043C3003403F583E06E70069002E8F080089002F3
:1043D300E8E004F080C89002E8E0604D900309E053
:1043E3007047900319E070149002E1E0FF04F0902D
:1043F30002ABE0FAA3E0F5828A838016ECB40329CA
:104403009002E1E0FF04F09002ABE0FCA3E0F58250
:104413008C83E493FD1267B79002ACE004F070065E
:104423009002ABE004F0023EBA22E709F608DFFA95
:104433008046E709F208DFFA803E88828C83E70929
:10444300F0A3DFFA8032E309F608DFFA8078E309A4
:10445300F208DFFA807088828C83E309F0A3DFFA25
:10446300806489828A83E0A3F608DFFA8058898210
:104473008A83E0A3F208DFFA804C80D280FA80C6F8
:1044830080D4806980F28033801080A680EA809A8D
:1044930080A880DA80E280CA803389828A83ECFA3A
:1044A300E493A3C8C582C8CCC583CCF0A3C8C58296
:1044B300C8CCC583CCDFE9DEE7800D89828A83E43B
:1044C30093A3F608DFF9ECFAA9F0EDFB2289828ABF
:1044D30083ECFAE0A3C8C582C8CCC583CCF0A3C8DB
:1044E300C582C8CCC583CCDFEADEE880DB89828A5B
:1044F30083E493A3F208DFF980CC88F0EF60010E28
:104503004E60C388F0ED2402B4040050B9F582EB89
:104513002402B4040050AF232345822390447D73C7
:10452300BB010CE58229F582E5833AF583E022504D
:1045330006E92582F8E622BBFE06E92582F8E22297
:10454300E58229F582E5833AF583E49322BB0106EC
:1045530089828A83F0225002F722BBFE01F322F8FC
:10456300BB010DE58229F582E5833AF583E8F02264
:104573005006E92582C8F622BBFE05E92582C8F26A
:1045830022EF8DF0A4A8F0CF8CF0A428CE8DF0A458
:104593002EFE22BC000BBE0029EF8DF084FFADF090
:1045A30022E4CCF875F008EF2FFFEE33FEEC33FC7A
:1045B300EE9DEC984005FCEE9DFE0FD5F0E9E4CEB0
:1045C300FD22EDF8F5F0EE8420D21CFEADF075F07F
:1045D30008EF2FFFED33FD4007985006D5F0F22288
:1045E300C398FD0FD5F0EA22C2D5EC30E709B2D566
:1045F300E4C39DFDE49CFCEE30E715B2D5E4C39F14
:10460300FFE49EFE124596C3E49DFDE49CFC8003FB
:1046130012459630D507C3E49FFFE49EFE22C5F002
:10462300F8A3E028F0C5F0F8E5821582700215833F
:10463300E038F022BB010A89828A83E0F5F0A3E027
:1046430022500687F009E71922BBFE07E3F5F009BC
:10465300E3192289828A83E493F5F074019322BBE0
:10466300010789828A83024621500B09C5F027F787
:10467300C5F01937F722BBFE0D09F8E325F0F3C5A2
:10468300F019E338F322F889828A8374019325F0C1
:10469300C5F0F8E4933822BB010A89828A83F0E5E6
:1046A300F0A3F0225006F709A7F01922BBFE06F388
:1046B300E5F009F31922E88FF0A4CC8BF0A42CFCCD
:1046C300E98EF0A42CFC8AF0EDA42CFCEA8EF0A475
:1046D300CDA8F08BF0A42DCC3825F0FDE98FF0A404
:1046E3002CCD35F0FCEB8EF0A4FEA9F0EB8FF0A4FB
:1046F300CFC5F02ECD39FEE43CFCEAA42DCE35F037
:10470300FDE43CFC2275F008758200EF2FFFEE33C9
:10471300FECD33CDCC33CCC58233C5829BED9AEC31
:1047230099E58298400CF582EE9BFEED9AFDEC999B
:10473300FC0FD5F0D6E4CEFBE4CDFAE4CCF9A882A5
:1047430022B800C1B90059BA002DEC8BF084CFCE4A
:10475300CDFCE5F0CBF97818EF2FFFEE33FEED3308
:10476300FDEC33FCEB33FB10D703994004EB99FBCF
:104773000FD8E5E4F9FA227818EF2FFFEE33FEEDB8
:1047830033FDEC33FCC933C910D7059BE99A4007C5
:10479300EC9BFCE99AF90FD8E0E4C9FAE4CCFB22DC
:1047A30075F010EF2FFFEE33FEED33FDCC33CCC8A5
:1047B30033C810D7079BEC9AE899400AED9BFDECB0
:1047C3009AFCE899F80FD5F0DAE4CDFBE4CCFAE4EF
:1047D300C8F922C3E49FFFE49EFEE49DFDE49CFC34
:1047E30022EB9FF5F0EA9E42F0E99D42F0EC6480F3
:1047F300C864809845F022EB9FF5F0EA9E42F0E909
:104803009D42F0E89C45F022E8600FECC313FCEDF9
:1048130013FDEE13FEEF13FFD8F122E8600FEFC391
:1048230033FFEE33FEED33FDEC33FCD8F122ECF035
:10483300A3EDF0A3EEF0A3EFF022A8828583F0D0DE
:1048430083D082124854124854124854124854E4F4
:1048530073E493A3C583C5F0C583C8C582C8F0A319
:10486300C583C5F0C583C8C582C822A42582F58245
:10487300E5F03583F58322EC8EF0A4CCC5F0CCCDE6
:10488300F8EFA4CEC5F02DFDE43CFCE8A42EC8C58A
:10489300F03DFDE43CFCEFA4FFE5F028FEE43DFD24
:1048A300E43CFC22EF4E6012EF60010EEDBB010B06
:1048B30089828A83F0A3DFFCDEFA2289F05007F7AE
:1048C30009DFFCA9F022BBFEFCF309DFFCA9F022FF
:1048D300BB010689828A83E0225002E722BBFE02E3
:1048E300E32289828A83E49322E0FCA3E0FDA3E030
:1048F300FEA3E0FF22F8E0FBA3A3E0F925F0F0E537
:1049030082158270021583E0FA38F022EBF0A3EAF5
:10491300F0A3E9F022D083D082F8E49370127401FB
:1049230093700DA3A393F8740193F5828883E473C2
:104933007402936860EFA3A3A380DFE51724DAF57D
:1049430082E43402F583E00517229002D73007038F
:104953009002DAE475F0011248F80248D32000E926
:104963007F2ED2008018EF540F2490D43440D4FF0C
:1049730030040BEF24BFB41A0050032461FFE51881
:1049830060021518051BE51B7002051A30070E900F
:1049930002D7E475F0011248F8EF0245500273FDA7
:1049A3007403D2078003E4C207F5179002D71249B4
:1049B3000FE4F518F51AF51BE51860077F20124977
:1049C3008180F57519FFC201C200C202C203C2058C
:1049D300C206C20812494DFF700D3007057F001251
:1049E3004992AF1BAE1A22B4255FC2D5C204124945
:1049F3004DFF24D0B40A00501A75F00A781830D548
:104A03000508B6FF0106C6A426F620D5047002D217
:104A13000380D924CFB41A00EF5004C2E5D20402B4
:104A23004B93D20180C6D20080C0D20280BCD2D5C3
:104A330080BAD20580B47F20124981200207740115
:104A4300B5180040F112493EFF1249810249BBD219
:104A530008D206809512493EFB12493EFA12493E9E
:104A6300F94A4B700679647A4C7BFF20022EE518D5
:104A7300602A7E008E8275830012452360060EEE47
:104A8300651970F0C2D5EBC0E0EAC0E0E9C0E0EE22
:104A9300124BDAD0E0F9D0E0FAD0E0FB1248D3FFB2
:104AA30060AAEBC0E0EAC0E0E9C0E0124981D0E0CF
:104AB3002401F9D0E03400FAD0E0FBE5190460DC0E
:104AC300D519D980877BFF7A4B79D6D202809C791E
:104AD3001080027908C206C2088008D2D5790A80FC
:104AE30004790AC2D5E519047002F519E4FAFDFE4A
:104AF300FF12493EFC7B0820011312493EFD7B1047
:104B030030000A12493EFE12493EFF7B20EC3382FD
:104B1300D592D55013C3E43000069FFFE49EFEE414
:104B23002001039DFDE49CFCE4CBF8C201EC700C76
:104B3300CFCECDCCE824F8F870F38017C3EF33FF62
:104B4300EE33FEED33FDEC33FCEB33FB994002FB1C
:104B53000FD8E9EB300105F8D0E0C448B201C0E05A
:104B63000AEC4D4E4F78207B0070C2EAB519004025
:104B7300BCC0E0124BDCD0F0D0E0200104C4C0E0A4
:104B8300C4B201C0F012496AD0F0D5F0EB0249BBC0
:104B93001249184A58534AD2584A294C4A25424A7C
:104BA300D64F4ADE444ADE494A3E434AE4554AC8A0
:104BB300464AC8454AC8474C84504A2D2D4A312E8F
:104BC3004A542B4A35234A52204C6D2A49ED48005A
:104BD300004A4C3F3F3F00790AA2D5200314300519
:104BE30009B910020404B9080104A2D52006025031
:104BF30001042002689202B518005034C0E07F20FF
:104C03003003197F30A20272067205500F124C3323
:104C1300C202C206C205C2087F30800F300503E915
:104C2300C0E0124981300503D0E0F9D0E0B518CCDB
:104C33003005177F30B9100C1249817F58300407B3
:104C43007F788003B908031249813002057F2D0262
:104C530049817F202008F87F2B2006F322920280CF
:104C6300CF286E756C6C2900D20112493E3001F8D1
:104C7300C201781830D50108F60249ED2D50434999
:104C83005812493E2403B405004001E4904C7F933D
:104C9300124972743A124972D203751804024AD245
:104CA300E4FD75F002EDA42400F582E5F034DAF5B5
:104CB30083E493FA740193FBED25E0FFE433FE7480
:104CC300632FF58274013EF583EAF0A3EBF075F0F0
:104CD30002EDA42404F582E5F034DAF583E493FAD3
:104CE300740193FBED25E0FFE433FE745F2FF5823F
:104CF30074013EF583EAF0A3EBF075F002EDA42412
:104D030008F582E5F034DAF583E493FA740193FB52
:104D1300ED25E0FFE433FE74532FF58274013EF575
:104D230083EAF0A3EBF074632FF58274013EF583FD
:104D3300E0FEA3E0C394FFEE940F4015ED25E0FFE2
:104D4300E433FE74632FF58274013EF583E4F0A32C
:104D5300F0ED25E0FFE433FE745F2FF58274013E2E
:104D6300F583E0FEA3E0FF4E6009D3EF94FFEE94DA
:104D73000F4018ED25E0FFE433FE745F2FF58274D6
:104D8300013EF583740FF0A374FFF0ED25E0FFE41B
:104D930033FE745F2FF58274013EF583E0FAA3E0DE
:104DA300FB74632FF58274013EF583E0FEA3E0C339
:104DB3009BEE9A4026ED25E0FFE433FE74632FF566
:104DC3008274013EF583E4F0A3F0745F2FF58274DF
:104DD300013EF583740FF0A374FFF0ED25E0FFE4CB
:104DE30033FE74532FF58274013EF583E0FEA3E096
:104DF300FF4E6009C3EF94FFEE940F4017ED25E0DB
:104E0300FFE433FE74532FF58274013EF583740877
:104E1300F0A3E4F0ED25E0FFE433FE74632FF582A5
:104E230074013EF583E0FAA3E0FB74532FF582741B
:104E3300013EF583E0FEA3E0D39BEE9A402AED25E5
:104E4300E0FFE433FE745F2FF58274013EF583E0E7
:104E5300FAA3E0FB74532FF58274013EF583E0FE61
:104E6300A3E0C39BEE9A4036ED25E0FFE433FE74E6
:104E7300632FF58274013EF583E4F0A3F074532F9E
:104E8300F58274013EF5837408F0A3E4F0745F2F98
:104E9300F58274013EF583740FF0A374FFF0ED25E2
:104EA300E0FFE433FE74632FF58274013EF583E083
:104EB300FAA3E0FB74532FF58274013EF583E0FE01
:104EC300A3E0C39BFBEE9AFAED25E0FFE433FE7407
:104ED3005B2FF58274013EF583EAF0A3EBF0745384
:104EE3002FF58274013EF583E0FAA3E0FB745F2F94
:104EF300F58274013EF583E0FEA3E0C39BFBEE9ACB
:104F0300FAED25E0FFE433FE74572FF58274013E7A
:104F1300F583EAF0A3EBF00DED64026003024CA508
:104F230090DA10E493F51490DA14E493FF13920FDC
:104F3300EFC31313921022E49002DBF0A20A33A30F
:104F4300F0A20DE433A3F0A209E433A3F09002A985
:104F5300E07F0060027F019002DFEFF09002A7E0A4
:104F63007F0060027F019002E0EFF0900111E0FE0C
:104F7300A3E024F9F582EE3401F583E493C4540FDE
:104F830060739002CAE0F8A3E0F9A3E0FAA3E0FBA0
:104F93009001FDE0FCA3E0FDA3E0FEA3E0C39BFFC3
:104FA300EE9AFEED99FDEC98C0E0EDC0E0EEC0E0B6
:104FB300EFC0E0900111E0FEA3E024F9F582EE34A6
:104FC30001F583E493C4540F25E0244FF582E434C0
:104FD3007AF583E493FE740193FFCBEFCBCAEECA59
:104FE300E4F9F8D0E0FFD0E0FED0E0FDD0E0FCD360
:104FF3001247FA5017900111E0FEA3E024F9F5825D
:10500300EE3401F583E493540FFF70089002247487
:10501300FFF08046EF6043C3940440028037EF14EF
:10502300FDC8EDC87E007401088005C333CE33CEBE
:10503300D8F9FF900224E0FCC39FEE6480F87480EB
:10504300984012C8EDC87401088002C333D8FCFF2E
:10505300C3EC9F8001E4900224F0E49002D7F09027
:1050630002D7E0FFC394034003025199E0FE90018D
:1050730011E0FCA3E0FD24F6F582EC3401F583E5B1
:10508300822EF582E43583F583E493FB540F24DB0E
:10509300F582E43402F583E0FAEBC41313135401ED
:1050A300FBEA6BFB74D82EF582E43402F583EBF054
:1050B30074D82FF582E43402F583E0604BED24F9D4
:1050C300F582EC3401F583E493540F703B9002D7DF
:1050D300E024D8F582E43402F583C083C082E0FF84
:1050E3009002D7E0FEED24F3F582EC3401F583E57D
:1050F300822EF582E43583F583E493FEEF8EF0A4EC
:10510300D082D083F00251909002D7E0FBED24F3DC
:10511300F582EC3401F583E5822BF582E43583F5E2
:1051230083E493FD7C00900224E0F9FFC374FF9FA6
:10513300FFE49400FE12458474D82BF582E4340214
:10514300F583E0FD124584CCEECCCDEFCD9002D7B4
:10515300E0FF900111E0FAA3E024F0F582EA3401C4
:10516300F583E5822FF582E43583F583E49389F0B3
:10517300A42DFFEC35F0FE7C007DFF1245969002D6
:10518300D7E024D8F582E43402F583EFF09002D718
:10519300E004F00250629002D8E0F5A5A3E0F59A8E
:1051A300A3E0F5A422011E00011C00C10F011F0092
:1051B300011D00C11041035A0041035B0041031468
:1051C3000041031700410330004103070041032E50
:1051D3000041032F00410331005603180100000072
:1051E30000000000000000000000000000000000BC
:1051F3000000450308020000000047030D031001EF
:1052030000000000420315040041033200C10EC137
:105213000BC10CC10AC10DC1094401FD000000000E
:105223000114025401530800080008000800080094
:1052330008000FFF0FFF000000004401A70800084B
:105243000041013B01021000000215000A0212276F
:10525300104401AB0000000042013E00004201E89F
:105263000000420285DC00500275000000000000CF
:105273000000000000000000000050026500000074
:105283000000000000000000000000000050025574
:10529300000102030405060708090A0B0C0D0E0F93
:1052A3006030022500000000000000000000000044
:1052B30000000000000000000000000000000000EB
:1052C30000000000000000000000000000000000DB
:1052D3000000000020302400000000000000000057
:1052E30000000000000000000000000000000000BB
:1052F30000000000000000000000000000000000AB
:1053030000000000000000440214000000004402FA
:1053130018FFFF000142021C000041021E0041026F
:105323001F004102200041022100410222FF4102ED
:1053330023004102240041000000420111F2004118
:1053430002AE004102B0004102A9004402CA0000BB
:1053530000004102A7004202AB00004202A5000088
:105363004102C9004102C8004102A8004102B1FF45
:105373004102AA004102AF004102AD00440287008E
:1053830000000044028B0000000044028F00000074
:1053930000420293FFFF4202950000420297000081
:1053A300420299000042029B000042029D0000421B
:1053B300029F00004202A100004202A300000090ED
:1053C30002D7EFF0E4A3F0EFC3940A403F9002D773
:1053D300E0FF94125036EF24F6FFEF25E0FEC3E41E
:1053E3009400FF74F29EFE7408125EDA9002D8EF06
:1053F300F09002D7E024F6FF1260889002D8E070A4
:10540300030255649002D7E024FE803B9002D7E06C
:10541300FFC3941E4034EF9426502FEF24E2FFEF96
:10542300FEE42400FFEE34DCFE7404125EDA900224
:10543300D8EFF07F011215029002D8E070030255F5
:10544300649002D7E024F2FD80299002D7E0B432C1
:105453002A1265BD7B017A0679009002E07401F09F
:105463007F007EDA125EE49002D8EFF070030255FB
:10547300647D187F0312710B0255649002D7E0B468
:1054830064161274BD1271A17F647E0012748FE4DE
:10549300F5A812002E0255649002D7E064656003FC
:1054A30002552D1274BD1271A17F647E0012748F98
:1054B300E4F5A875D8FF75E20690035A74AAF09034
:1054C300035B7455F07E007F407D007B017A067993
:1054D300001248A790063E7480F0A374FEF07B018F
:1054E3007A0679009002E07401F0E4FFFE125EE4B4
:1054F3009002D8EFF0E4F5FFF5A5F59A75A4FF7FC8
:10550300207E0312748FE4F5FFF5A5759AFFF5A4C9
:105513007F207E0312748FE4F5FF75A5FFF59AF5DE
:10552300A47F207E0312748F80CB9002D7E0B466F1
:1055330030900600E0900000F0FD25E0FEC3E49407
:1055430000FF74F29E900111F0A3EFF0EDFEE4244E
:1055530000FFEE34DC900285F0A3EFF07F0112151B
:10556300029002D8E06059E4F5FF75A5FFF59AF5BE
:10557300A47F96FE12748FE4F5A5759AFFF5A47FB8
:1055830096FE12748FE4F5A5F59A75A4FF7F96FE37
:1055930012748F75A5FFE4F59AF5A47F96FE127435
:1055A3008FE4F5A5759AFFF5A47F96FE12748FE438
:1055B300F5A5F59A75A4FF7F96FE12748FE4F5FFA7
:1055C30022E49002D7F0A374FFF0A3F0A3F0A37436
:1055D30001F0439D209001E7E06009900152E070E3
:1055E300030257AB9001E6E06009900151E07003BC
:1055F3000257AB9001E5E06009900150E0700302AF
:1056030057ABE4F5FF1266C17F01126A841266C1CB
:105613007F02126A841263729002DBE0251CF0E4BD
:10562300F51DF51CE0C364809481501275A5FF74C9
:1056330001F07F027E0012748FE4F5A5801B9002B7
:10564300DBE0D36480948A4010759AFF740AF07F7C
:10565300027E0012748FE4F59AE49002D7F0FFEF14
:105663006404602EEF640C602974402FF582E434E7
:1056730001F583E0FE601274D52FF582E43401F561
:1056830083E070059002D8EFF0EE60069002D7E059
:1056930004F00FEFB410C89002D7E07004A374FFB6
:1056A300F09002D8E0FEF4606674402EF582E43494
:1056B30001F583E07022FFEF64046017EF640C6070
:1056C3001274402FF582E43401F583E06005900203
:1056D300D8EFF00FEFB410DF9002D8E0FC907CAB72
:1056E30093FE90014CE0FDEE2D9002D9F090014421
:1056F300E0FF600FECC3940850099002D9E0240C3A
:10570300F08012EF600F9002D9E024F4F08006904D
:1057130002D974FFF09002D9E0FFA3E06F70030297
:1057230055D8EFC39412504F9002D9E025E0242CB2
:10573300F582E4347CF583E493F512740193F51355
:10574300AE12FFCBEFCBCAEECAE4F9F89002DBE06E
:10575300FF3395E0FEFDFC1246B9780812480BE4CE
:105763007B03FAF9F81247448E158F16E4FD7F0187
:10577300126CD1D2A980289002D9E0FFD394305083
:1057830013EF907C7A93F59E9002DBE0F59CC2A91F
:105793007D018006E4F59CC2A9FD7F01126CD190C6
:1057A30002D9E0A3F00255D8E4F59CC2A9FD7F011C
:1057B300126CD1759E2022E49002EBF0EF601EE4A0
:1057C3009002A3F09002A1F09002A0F090029FF04B
:1057D3009002EBF09002A4F09002A3F02290029FBB
:1057E300E0FF900111E0FCA3E024E1F582EC340139
:1057F300F583E49325E014FE851CF0A4FDC3EF9D1F
:1058030090029FF0E4F51CA3E0FFEE851DF0A4FEDB
:10581300C3EF9EF0E4F51D9002ECF09002ECE0FF84
:1058230024A1F582E43402F583E0FE749F2FF58210
:10583300E43402F583E0FFD3EE6480F8EF648098EC
:1058430040089002EB7401F08018C3EE6480F8EF17
:1058530064809850089002EB7402F08005E4900293
:10586300EBF0900111E0FEA3E0F5828E83C083C0CC
:10587300829002ECE0FFD082D08375F00812486E6C
:10588300E58224E0F582E5833401F583E493540F44
:105893001460030259719002EBE0FE700302598D0C
:1058A30074A32FF582E43402F583E060299002ECBF
:1058B300E0FF24A3F582E43402F583E4F074A12F1E
:1058C300F582E43402F583E0FFEE25E024FDFEC318
:1058D300EF9EF002598D9002EBE0FF900111E0FC86
:1058E300A3E0F5828C83C083C0829002ECE0D08277
:1058F300D08375F00812486EE58224E2F582E583D1
:105903003401F583E5822FF582E43583F583E4934F
:10591300FD60057FFF1267B7900319E0FF9002EB6C
:10592300E0FE900111E0FCA3E0F5828C83C083C00C
:10593300829002ECE0FDD082D08375F00812486EAD
:10594300E58224E5F582E5833401F583E5822EF5CE
:1059530082E43583F583E493FEEF4E900319F074EC
:10596300A32DF582E43402F5837401F0801C9002C8
:10597300ECE0FF249FF582E43402F583E0FE74A19A
:105983002FF582E43402F583EEF09002ECE004F0AC
:10599300E0C39402500302581E229002F5EEF0A3D6
:1059A300EFF0A3ECF0A3EDF0A3EAF0A3EBF0900289
:1059B300F5E0FAA3E0FB7C007DA7CFEBCFCEEACEE8
:1059C3001245967C007D06124596CFEDCF900304D9
:1059D300EFF0E075F0A7A4FFC3EB9FFFEA95F0FE9D
:1059E300CBEFCBCAEECA9002F7A3E0FFA3A3E0FD7F
:1059F300CEEDCEC39F900305F09002F7E0FEA3E047
:105A0300CDEBCDCCEACC1245847C007DA712459624
:105A1300A3A3E0FDCEEDCEC39F900306F0CEEACE66
:105A2300CFEBCFC374A79FFFE49EFE9002F7E0FC89
:105A3300A3E0FD1245847C007DA7124596A3A3E055
:105A4300FDCEEDCEC39FFF900304E0FD70119002E5
:105A5300FBE0FBA3E0FAA3E0F9EE124550801EED54
:105A6300B4012E900306E0FF9002FBE0FBA3E0FAF3
:105A7300A3E0F9EF1245509002F9A3E0FF9002FE74
:105A8300E0FBA3E0FAA3E0F9EF1245509003058091
:105A930062900304E0FEB4022AA3E0FD9002FBE05F
:105AA300FBA3E0FAA3E0F9ED1245509002F9A3E05D
:105AB300FD9002FEE0FBA3E0FAA3E0F9ED124550EE
:105AC300025B60EEB40330900305E0FF9002FBE05D
:105AD300FBA3E0FAA3E0F9EF124550900306E0FFC1
