:080000000274670277E432325A
:07000B00027C6601060208F9
:100013000200067B017A06790090031A7401F07FCF
:06002300007ED80265B169
:0D002B0002000775A15575A1AA43B110226E
:03003B0002784107
:1000430002323D1258CE9003117407F0900311E071
:10005300FFF4600B126755900311E014F080ED225A
:100063000276BBEF6013E4900012F0A3F09000104F
:10007300F0A3F090000E020585900182E0FEA3E05C
:1000830024D5F582EE3401F583E493FD540175F034
:1000930002A424FFFEE5F034FF900325F0A3CEF085
:1000A300EDC313540175F002A424FFFEE5F034FF01
:1000B300A3F0A3CEF09001F8E0FEA3E0FF90023D91
:1000C300E0FCA3E0FDD39FEC9E4008CEECCECFED49
:1000D300CF8000D39001F5E09F9001F4E09E402093
:1000E3009001F8E0FEA3E0FF90023DE0FCA3E0FDF9
:1000F300D39FEC9E4008CEECCECFEDCF800A800894
:100103009001F4E0FEA3E0FF90023DEEF0A3EFF0D8
:100113009001FAE0FEA3E0FF90023FE0FCA3E0FDC4
:10012300D39FEC9E4008CEECCECFEDCF8000D39092
:1001330001F7E09F9001F6E09E40209001FAE0FE77
:10014300A3E0FF90023FE0FCA3E0FDD39FEC9E40C1
:1001530008CEECCECFEDCF800A80089001F6E0FE0A
:10016300A3E0FF90023FEEF0A3EFF0900182E0FEE8
:10017300A3E024D5F582EE3401F583E493131354FD
:100183003F20E00302030A9001E8E0FEA3E0FF90B2
:10019300023DE0FCA3E0FDC39FEC9E900325E0FE3F
:1001A3005037A3E0FFEEC0E0EFC0E09001E8E0FECF
:1001B300A3E0FFC3ED9FFFEC9EFE3395E0FDFCE45F
:1001C300FB7A10F9F812486AECC0E0EDC0E0EEC02B
:1001D300E0EFC0E09001F0803BA3E0FFEEC0E0EF72
:1001E300C0E09001E8E0FEA3E0FF90023DE0FCA345
:1001F300E0C39FFFEC9EFE3395E0FDFCE4FB7A1029
:10020300F9F812486AECC0E0EDC0E0EEC0E0EFC0E0
:10021300E09001ECE0FEA3E0FFCBEFCBCAEECAE433
:10022300F9F8D0E0FFD0E0FED0E0FDD0E0FC127A98
:10023300ADCDEFCDCCEECCD0E0FFD0E0FE124798B1
:10024300900325EEF0A3EFF09001EAE0FEA3E0FFB8
:1002530090023FE0FCA3E0FDC39FEC9E900327E0E8
:10026300FE5037A3E0FFEEC0E0EFC0E09001EAE00C
:10027300FEA3E0FFC3ED9FFFEC9EFE3395E0FDFC84
:10028300E4FB7A10F9F812486AECC0E0EDC0E0EE46
:10029300C0E0EFC0E09001F2803BA3E0FFEEC0E0DE
:1002A300EFC0E09001EAE0FEA3E0FF90023FE0FC34
:1002B300A3E0C39FFFEC9EFE3395E0FDFCE4FB7AD5
:1002C30010F9F812486AECC0E0EDC0E0EEC0E0EFD0
:1002D300C0E09001EEE0FEA3E0FFCBEFCBCAEECA95
:1002E300E4F9F8D0E0FFD0E0FED0E0FDD0E0FC126E
:1002F3007AADCDEFCDCCEECCD0E0FFD0E0FE12470F
:10030300989003270204959001E8E0FEA3E0FF9094
:10031300023DE0FCA3E0FDC39FEC9E900327E0FEBB
:100323005037A3E0FFEEC0E0EFC0E09001E8E0FE4D
:10033300A3E0FFC3ED9FFFEC9EFE3395E0FDFCE4DD
:10034300FB7A10F9F812486AECC0E0EDC0E0EEC0A9
:10035300E0EFC0E09001F0803BA3E0FFEEC0E0EFF0
:10036300C0E09001E8E0FEA3E0FF90023DE0FCA3C3
:10037300E0C39FFFEC9EFE3395E0FDFCE4FB7A10A7
:10038300F9F812486AECC0E0EDC0E0EEC0E0EFC05F
:10039300E09001ECE0FEA3E0FFCBEFCBCAEECAE4B2
:1003A300F9F8D0E0FFD0E0FED0E0FDD0E0FC127A17
:1003B300ADCDEFCDCCEECCD0E0FFD0E0FE12479830
:1003C300900327EEF0A3EFF09001EAE0FEA3E0FF35
:1003D30090023FE0FCA3E0FDC39FEC9E900325E069
:1003E300FE503EA3E0FFEEC0E0EFC0E09001EAE084
:1003F300FEA3E0FFC3ED9FFFEC9EFEC3E49FFFE47B
:100403009EFE3395E0FDFCE4FB7A10F9F812486A8E
:10041300ECC0E0EDC0E0EEC0E0EFC0E09001F280A0
:1004230042A3E0FFEEC0E0EFC0E09001EAE0FEA3EC
:10043300E0FF90023FE0FCA3E0C39FFFEC9EFEC3FE
:10044300E49FFFE49EFE3395E0FDFCE4FB7A10F9A4
:10045300F812486AECC0E0EDC0E0EEC0E0EFC0E0A7
:100463009001EEE0FEA3E0FFCBEFCBCAEECAE4F9C6
:10047300F8D0E0FFD0E0FED0E0FDD0E0FC127AAD92
:10048300CDEFCDCCEECCD0E0FFD0E0FE124798907C
:100493000325EEF0A3EFF0900327E0FEA3E0FFD3E4
:1004A3009400EE648094804002800F900327E0FE66
:1004B300A3E0FFC3E49FFFE49EFE900325E0FCA3BB
:1004C300E0FDD39400EC648094804002800F90039D
:1004D30025E0FCA3E0FDC3E49DFDE49CFCD3ED9F7C
:1004E300EE6480F8EC6480984025900325E0FEA339
:1004F300E0FFD39400EE6480948040028034900344
:1005030025E0FEA3E0FFC3E49FFFE49EFE8023906B
:100513000327E0FEA3E0FFD39400EE6480948040C1
:1005230002800F900327E0FEA3E0FFC3E49FFFE4F4
:100533009EFECAEECACBEFCB900182E0FEA3E0247D
:10054300DCF582EE3401F583E493FF7E007C007DCD
:1005530015124798C3EB9FFFEA9EFE900329F0A371
:10056300EFF0D39400EE64809480501AE490001668
:10057300F0A3F0900014F0A3F0900012F0A3F09019
:100583000010F0A3F022900182E0FEA3E0FF24D448
:10059300F582EE3401F583E493540F24FE700302D5
:1005A300078E147003020AC3147003020FB92403E5
:1005B300600302150190000EE07002A3E0600302E5
:1005C3000798EF24DEF582EE3401F583E493701D82
:1005D300900182E0FEA3E024DFF582EE3401F5838F
:1005E300E493700990000EF0A3F002071A900182C1
:1005F300E0FEA3E0FF24DEF582EE3401F583E4930D
:10060300FBEF24DFF582EE3401F583E493C39BFD16
:100613003395E0FC7803900329E0FEA3E0CEA2E744
:1006230013CE13D8F8FF124798EEFD3395E0FCEB99
:1006330025E0FFE433FEED2FFFEC3E900329F0A30A
:10064300EFF0900014E0FEA3E0FFD39400EE64808B
:1006530094804002800F900014E0FEA3E0FFC3E407
:100663009FFFE49EFE900329E0FCA3E0FDD39FEEF1
:100673006480F8EC648098500A900014ECF0A3EDC9
:10068300F0806B900182E0FEA3E024DDF582EE347E
:1006930001F583E4932401FDE433FC900014E0FEB0
:1006A300A3E0FFC390032AE09FFF900329E09EFE8F
:1006B3001247FFEEF0A3EFF04E7010900015E00428
:1006C300F0701C900014E004F08014900329E0FE05
:1006D300A3E0FF900015E02FF0900014E03EF090AF
:1006E3000014E0FFA3E0900329CFF0A3EFF0900301
:1006F30029E0FEA3E0FFC374649FFFE49EFE900025
:100703000EF0A3EFF0D39400EE6480948050089031
:10071300000EE4F0A304F0900325E0FEA3E0FFA3A2
:10072300E0FCA3E0FDD39FEE6480F8EC6480984086
:1007330026E49FFFE49EFED3ED9FEE6480F8EC6415
:100743008098900182E0FE4007A3E024D7020AB418
:10075300A3E024D9020AB4900325E0FEA3E0FFC37B
:10076300E49FFFE49EFED3900328E09FEE6480F8AD
:10077300900327E0648098900182E0FE4006A3E0A6
:1007830024DA8004A3E024D8020AB490000EE070B7
:1007930002A3E0600F90000FE024FFF090000EE052
:1007A30034FFF022900182E0FEA3E0FF24DEF58215
:1007B300EE3401F583E4937017EF24DFF582EE3412
:1007C30001F583E493700990000EF0A3F00208FD95
:1007D300900182E0FEA3E0FF24DEF582EE3401F512
:1007E30083E493FBEF24DFF582EE3401F583E49396
:1007F300C39BFD3395E0FC7803900329E0FEA3E05F
:10080300CEA2E713CE13D8F8FF124798EEFD339527
:10081300E0FCEB25E0FFE433FEED2FFFEC3E90031D
:1008230029F0A3EFF0900014E0FEA3E0FFD39400BF
:10083300EE648094804002800F900014E0FEA3E0F9
:10084300FFC3E49FFFE49EFE900329E0FCA3E0FDC9
:10085300D39FEE6480F8EC648098500A900014EC07
:10086300F0A3EDF0806B900182E0FEA3E024DDF5C0
:1008730082EE3401F583E4932401FDE433FC90001C
:1008830014E0FEA3E0FFC390032AE09FFF90032937
:10089300E09EFE1247FFEEF0A3EFF04E70109000C3
:1008A30015E004F0701C900014E004F08014900331
:1008B30029E0FEA3E0FF900015E02FF0900014E084
:1008C3003EF0900014E0FFA3E0900329CFF0A3EFE4
:1008D300F0900329E0FEA3E0FFC374649FFFE49E4E
:1008E300FE90000EF0A3EFF0D39400EE64809480AA
:1008F300500890000EE4F0A304F0900325E0FEA35B
:10090300E0FF7C007D03124798CAEECACBEFCBA36E
:10091300E0FEA3E0FF7D07124798D3EF9BEA6480D4
:10092300F8EE648098403C900325E0FEA3E0FFE4EA
:100933009FFFE49EFE7D03124798CAEECACBEFCB1E
:10094300A3E0FEA3E0FF7D07124798D3EF9BEA6481
:1009530080F8EE648098400B900182E0FEA3E024CF
:10096300D78068900325E0FEA3E0FF7C007D03129F
:100973004798CAEECACBEFCBA3E0FEA3E0FF7D0707
:10098300124798C3EF9BEA6480F8EE648098504A5C
:10099300900325E0FEA3E0FFC3E49FFFE49EFE7DFA
:1009A30003124798CAEECACBEFCBA3E0FEA3E0FF46
:1009B3007D07124798C3EF9BEA6480F8EE64809842
:1009C3005018900182E0FEA3E024D8F582EE3401B2
:1009D300F583E493FD7FFF126FCE900325E0FEA322
:1009E300E0FF7C007D07124798CAEECACBEFCBA38A
:1009F300E0FEA3E0FF7D03124798D3EF9BEA6480F8
:100A0300F8EE648098403C900325E0FEA3E0FFE409
:100A13009FFFE49EFE7D07124798CAEECACBEFCB39
:100A2300A3E0FEA3E0FF7D03124798C3EF9BEA64B4
:100A330080F8EE648098500B900182E0FEA3E024DE
:100A4300D9806E900325E0FEA3E0FF7C007D0712B2
:100A53004798CAEECACBEFCBA3E0FEA3E0FF7D032A
:100A6300124798C3EF9BEA6480F8EE6480984003D2
:100A7300021501900325E0FEA3E0FFC3E49FFFE41A
:100A83009EFE7D07124798CAEECACBEFCBA3E0FECA
:100A9300A3E0FF7D03124798D3EF9BEA6480F8EE4F
:100AA3006480985003021501900182E0FEA3E024C4
:100AB300DAF582EE3401F583E493FD7FFF026FCE16
:100AC300900182E0FEA3E024DFF582EE3401F5839A
:100AD300E493FB3395E0FA7803900325E0FEA3E06B
:100AE300CEA2E713CE13D8F8FFCDEBCDCCEACC12D0
:100AF30047987804EFCEA2E713CE13D8F8FF9003FC
:100B030025EEF0A3EFF07803A3E0FEA3E0CEA2E787
:100B130013CE13D8F8FFCDEBCDCCEACC124798789F
:100B230004EFCEA2E713CE13D8F8FF900327EEF01D
:100B3300A3EFF0900014E0FEA3E0FFD39400EE6473
:100B43008094804002800F900014E0FEA3E0FFC376
:100B5300E49FFFE49EFE900325E0FCA3E0FDD39415
:100B630000EC648094804002800F900325E0FCA396
:100B7300E0FDC3E49DFDE49CFCD3ED9FEE6480F8AF
:100B8300EC6480985002802E900014E0FEA3E0FFF6
:100B9300D39400EE648094804002800F900014E0B0
:100BA300FEA3E0FFC3E49FFFE49EFED3EF9420EE99
:100BB300648094834012900325E0FFA3E090001427
:100BC300CFF0A3EFF0020CE7900014E0FEA3E0FFE8
:100BD300D39400EE6480948040028007C3E49FFFB7
:100BE300E49EFECCEECCCDEFCD900182E0FAA3E003
:100BF300FB24DEF582EA3401F583E49375F00AA45D
:100C0300FFD3ED9FE5F06480F8EC648098405DEBE2
:100C130024DDF582EA3401F583E4932401FDE43312
:100C2300FC900014E0FEA3E0FF900325E0FAA3E0AC
:100C3300FBC39FFFEA9EFE1247FF900329EEF0A33A
:100C4300EFF04E6003020CD3C3EA64809480500734
:100C53007EFF7FFF020CDBD3EB9400EA6480948079
:100C63007E0040047F0180027F00806C900182E05F
:100C7300FEA3E024DDF582EE3401F583E49375F001
:100C83000AA42401FDE435F0FC900014E0FEA3E087
:100C9300FF900325E0FAA3E0FBC39FFFEA9EFE1249
:100CA30047FF900329EEF0A3EFF04E7023C3EA64ED
:100CB30080948050067EFF7FFF8013D3EB9400EA7D
:100CC300648094807E0040047F0180027F0080085E
:100CD300900329E0FEA3E0FF900015E02FF09000C1
:100CE30014E03EF0900016E0FEA3E0FFD39400EE84
:100CF300648094804002800F900016E0FEA3E0FF22
:100D0300C3E49FFFE49EFE900327E0FCA3E0FDD332
:100D13009400EC648094804002800F900327E0FCF1
:100D2300A3E0FDC3E49DFDE49CFCD3ED9FEE648052
:100D3300F8EC6480985002802E900016E0FEA3E049
:100D4300FFD39400EE648094804002800F900016DD
:100D5300E0FEA3E0FFC3E49FFFE49EFED3EF9420F5
:100D6300EE648094834012900327E0FFA3E0900099
:100D730016CFF0A3EFF0020E93900016E0FEA3E06F
:100D8300FFD39400EE6480948040028007C3E49F05
:100D9300FFE49EFECCEECCCDEFCD900182E0FAA332
:100DA300E0FB24DEF582EA3401F583E49375F00A6F
:100DB300A4FFD3ED9FE5F06480F8EC648098405A7B
:100DC300EB24DDF582EA3401F583E4932401FDE4A9
:100DD30033FC900016E0FEA3E0FF900327E0FAA3A4
:100DE300E0FBC39FFFEA9EFE1247FFA3EEF0A3EFD3
:100DF300F04E6003020E7FC3EA6480948050067E47
:100E0300FF7FFF807FD3EB9400EA648094807E00B1
:100E130040047F0180027F00806A900182E0FEA38C
:100E2300E024DDF582EE3401F583E49375F00AA442
:100E33002401FDE435F0FC900016E0FEA3E0FF90F2
:100E43000327E0FAA3E0FBC39FFFEA9EFE1247FFDE
:100E5300A3EEF0A3EFF04E7023C3EA6480948050B6
:100E6300067EFF7FFF8013D3EB9400EA64809480B7
:100E73007E0040047F0180027F008008900329E008
:100E8300FEA3E0FF900017E02FF0900016E03EF085
:100E9300900014E0FEA3E0FF900011E02FF090001B
:100EA30010E03EF0900016E0FEA3E0FF900013E098
:100EB3002FF0900012E03EF0900010E0FEA3E0FF60
:100EC300D39440EE64809460400280047EE07F40CF
:100ED300C3EF94C0EE6480949F5019900010E0FE1D
:100EE300A3E0FF9440EE648094604002800A7EE0B9
:100EF3007F4080047E1F7FC0900010EEF0A3EFF0D0
:100F0300A3E0FEA3E0FFD39440EE6480946040022C
:100F130080047EE07F40C3EF94C0EE6480949F50D2
:100F230019900012E0FEA3E0FF9440EE6480946009
:100F33004002800A7EE07F4080047E1F7FC09000D5
:100F430012EEF0A3EFF0900010E0FCA3E0FD7806B2
:100F5300CEECCECEA2E713CE13D8F8900041F078B2
:100F630006900012E0FEA3E0CEA2E713CE13D8F85A
:100F7300F404F9900042F0900041E0FF3395E0FE65
:100F83007806EFC333CE33CED8F9FFC3ED9FFFEC22
:100F93009E900010F0A3EFF0E9FF3395E0FE780692
:100FA300EFC333CE33CED8F9FF900013E02FF09088
:100FB3000012E03EF022900010E0FEA3E0FF900359
:100FC30025E0FCA3E0FDC39FFFEC9EFE7802EFCE7D
:100FD300A2E713CE13D8F8FF900329EEF0A3EFF0A6
:100FE3004E7023C3EC6480948050067EFF7FFF80A5
:100FF3001DD3ED9400EC648094807E0040047F0157
:1010030080027F008008900329E0FEA3E0FF9000A8
:1010130011E02FF0900010E03EF0900012E0FEA3EC
:10102300E0FF900327E0FCA3E0FDC39FFFEC9EFEDF
:101033007802EFCEA2E713CE13D8F8FF900329EE80
:10104300F0A3EFF04E7023C3EC6480948050067ECF
:10105300FF7FFF801DD3ED9400EC648094807E00BD
:1010630040047F0180027F008008900329E0FEA3F3
:10107300E0FF900013E02FF0900012E03EF09003A9
:1010830025E0FAA3E0FBD39400EA64809480900106
:1010930082E0FE4006A3E024DA8004A3E024D9F52D
:1010A30082EE3401F583E493FF900014E4F0A3EFA0
:1010B300F0D3ED9400EC64809480900182E0FE40D4
:1010C30006A3E024D78004A3E024D8F582EE3401FC
:1010D300F583E493FF900016E4F0A3EFF09000147F
:1010E300E0FEA3E0FFC3941EEE648094804017D318
:1010F300EF9427EE64809480500CEF25E0FFEE33ED
:10110300FEEF24C68027900014E0FEA3E0FFC39403
:1011130059EE648094804022D3EF9462EE6480940D
:10112300805017EF25E0FFEE33FEEF244FFFEE3440
:10113300FF900014F0A3EFF08007E4900014F0A3F5
:10114300F0900016E0FEA3E0FFC3941EEE648094CB
:10115300804017D3EF9427EE64809480500CEF25E2
:10116300E0FFEE33FEEF24C68027900016E0FEA3D7
:10117300E0FFC39459EE648094804022D3EF9462DD
:10118300EE648094805017EF25E0FFEE33FEEF24EA
:101193004FFFEE34FF900016F0A3EFF08007E490CA
:1011A3000016F0A3F0D3EB9401EA64809470400A34
:1011B300900325E0FEA3E0FF80047EF07F01C3EFF0
:1011C30094FFEE6480948F5019900325E0FEA3E012
:1011D300FF9401EE648094704002800A7EF07F01E8
:1011E30080047E0F7FFF900325EEF0A3EFF0D3ED95
:1011F3009401EC648094704008A3E0FEA3E0FF80B8
:10120300047EF07F01C3EF94FFEE6480948F501946
:10121300900327E0FEA3E0FF9401EE648094704006
:1012230002800A7EF07F0180047E0F7FFF900327F8
:10123300EEF0A3EFF0900014E0FEA3E0FFCBEFCBC2
:10124300CAEECAEA3395E0F9F8900010E0FEA3E095
:10125300FFEE3395E0FDFC12486AC8ECC8C9EDC93E
:10126300CAEECACBEFCB900182E0FEA3E024DFF508
:1012730082EE3401F583E493FFE4FCFDFE12486A39
:10128300E47B7DFAF9F8127AAD900014EEF0A3EF47
:10129300F0A3E0FEA3E0FFEE3395E0FDFC124987E7
:1012A300C8ECC8C9EDC9CAEECACBEFCB900012E0B7
:1012B300FEA3E0FFEE3395E0FDFC12486AC8ECC8DC
:1012C300C9EDC9CAEECACBEFCB900182E0FEA3E021
:1012D30024DFF582EE3401F583E493FFE4FCFDFEA5
:1012E30012486AE47B7DFAF9F8127AAD900016EEA3
:1012F300F0A3EFF0900182E0FEA3E024DDF582EE9F
:101303003401F583E493FFE4FCFDFE7BFF7A7FF970
:10131300F812486AE47B32FAF9F8127AAD900325A1
:10132300EEF0A3EFF0900182E0FEA3E024DEF5826D
:10133300EE3401F583E493FFE4FCFDFE7BFF7A7F4B
:10134300F9F812486AE47B32FAF9F8127AAD90039D
:1013530027EEF0A3EFF0D3900015E0940090001473
:10136300E0648094804047900325E0FEA3E0FFCB38
:10137300EFCBCAEECAEA3395E0F9F8900014E0FE29
:10138300A3E0FFEE3395E0FDFCEB2FFFEA3EFEE921
:101393003DFDE83CFCE47BFF7A7FF9F8C3124995F5
:1013A300500C900325747FF0A374FFF08055C39015
:1013B3000014E0648094805036900325E0FEA3E09F
:1013C300FFCBEFCBCAEECAEA3395E0F9F8900014ED
:1013D300E0FEA3E0FFEE3395E0FDFCEB2FEA3EE9F0
:1013E3003DE83C335009E4900325F0A3F0801490CA
:1013F3000014E0FEA3E0FF900326E02FF090032506
:10140300E03EF0D3900017E09400900016E0648073
:1014130094804047900327E0FEA3E0FFCBEFCBCAC5
:10142300EECAEA3395E0F9F8900016E0FEA3E0FF78
:10143300EE3395E0FDFCEB2FFFEA3EFEE93DFDE8D0
:101443003CFCE47BFF7A7FF9F8C3124995500C907A
:101453000327747FF0A374FFF08056C3900016E057
:10146300648094805037900327E0FEA3E0FFCBEF26
:10147300CBCAEECAEA3395E0F9F8900016E0FEA372
:10148300E0FFEE3395E0FDFCEB2FFFEA3EE93DE89C
:101493003C335009E4900327F0A3F0801490001626
:1014A300E0FEA3E0FF900328E02FF0900327E03E47
:1014B300F0900325E0FCA3E0FDCFEDCF900047F0D3
:1014C300ECFFEFA3F0900327E0FCA3E0FDCFEDCF0B
:1014D300900049F0ECFFEFA3F09000467411F090F8
:1014E300000EE07002A3E07F0070027F017E009097
:1014F300000EEEF0A3EFF025E014900041F022E49B
:10150300900325F0A374FFF0E4F525F526EF604A78
:1015130090027CE0FCA3E0FDA3E0FEA3E0FF9002C9
:10152300941249E290027CE0FCA3E0FDA3E0FEA359
:10153300E02401FFE43EFEED34FFFDEC34FFFC90BC
:1015430002981249E27E007F107D007B017A0279C6
:10155300F6124A7EE490029EF0229002F5E0FF54D8
:1015630070600BEF20E7030223CA547FF02290023E
:101573007CA3A3A3E0FF90029FE0FEC3EF9EC3946E
:101583001450030223CAE02414F0900306E0FEA3E0
:10159300E0F5828E8374F593700374F493602EE404
:1015A300F52374282523F582E43400F583E06016DF
:1015B30090027CE0FCA3E0FDA3E0FEA3E0FF900229
:1015C300981249E280070523E523B410D590029EC3
:1015D300E0540FFFBF021D7403F090027CE0FCA3F4
:1015E300E0FDA3E0FEA3E0FF9002941249E2900223
:1015F300A074FFF090029EE0540F6403600302178F
:101603002B90029CE0FEA3E0FFCBEFCBCAEECA9087
:101613000306E0FEA3E0F5828E8374F893FE74F96B
:1016230093FFEF2BFFEE3AFEE433FDE433C0E0ED2E
:10163300C0E0EEC0E0EFC0E0900294E0F8A3E0F970
:10164300A3E0FAA3E0FB90027CE0FCA3E0FDA3E0AF
:10165300FEA3E0C39BFBEE9AFAED99F9EC98F8D060
:10166300E0FFD0E0FED0E0FDD0E0FCD31249AB5068
:101673000302172B900306E0FEA3E0F5828E83742A
:10168300F493FE74F593FF4E604C7C007D0A124A7E
:1016930051ECC0E0EDC0E0EEC0E0EFC0E090029896
:1016A300E0F8A3E0F9A3E0FAA3E0FB90027CE0FCFE
:1016B300A3E0FDA3E0FEA3E0C39BFBEE9AFAED9942
:1016C300F9EC98F8D0E0FFD0E0FED0E0FDD0E0FCEC
:1016D300D31249AB4052900306E0FEA3E0F5828E9D
:1016E3008374FB93700374FA93602E1278F4CCEE38
:1016F300CCCDEFCDAF8AEF6CFEEDFF900306E0FC9F
:10170300A3E0F5828C8374FA93FC74FB93FD124778
:10171300AACEECCECFEDCF80047E007F0090029C5A
:10172300EEF0A3EFF0E4A3F090029EE0540F600309
:1017330002190A04F090027CE0FCA3E0FDA3E0FEA2
:10174300A3E0FF9002941249E2E49002A0F0900318
:1017530006E0FEA3E0F5828E8374F193FF7003022B
:1017630018E6EFD39404501B900306E0FEA3E0F5C4
:10177300828E8374F1931475F008A4FD74F0932D95
:101783000218FE900306E0FEA3E0F5828E8374F157
:1017930093B40503021904E4F524F523900306E04A
:1017A300FEA3E0FFF5828E8374EB932401FDE43303
:1017B300FCC3E5239DEC6480F87480985035E523E1
:1017C300C39409502EE58224E0F582E43583F58342
:1017D300E5822523F582E43583F583E493FF600DE9
:1017E300D39404500874082524F5248002052405A5
:1017F3002380A9900306E0FEA3E0F5828E8374F1B3
:1018030093B4060F9002A2E004F0C39524402AE4A7
:10181300F080261278F4AD8AEF6DFFAD247C0012C0
:1018230047FF8D239002A2E065237007E524D3943C
:101833000150E09002A2E523F0E4F524F5239003A0
:1018430006E0FEA3E0FFF5828E8374EB932401FD93
:10185300E433FCD3E5239DEC6480F8748098507FD7
:10186300E523940950799002A2E0F9E52499403DDB
:10187300E52324DFFDE433FCEF2DF582EE3CF58315
:10188300E493600DD394045008E92408C39524F528
:1018930024E52324DFFFE433FE900306E0FCA3E00A
:1018A3002FF582EC3EF583E493F523803290030613
:1018B300E0FCA3E024E0F582E43CF583E582252304
:1018C300F582E43583F583E493600DD394045008E3
:1018D30074082524F524800205240523021841E514
:1018E3002370089002A374C8F0801CE523D39404EA
:1018F300500FE5231475F008A425249002A3F0806B
:10190300069002A37464F090029EE0540F64017089
:101913005990027CA3A3E0FEA3E0FFCBEFCBCAEE7A
:10192300CA900294A3A3E0FEA3E0FFC3EB9FFFEAE8
:101933009EFE900306E0FCA3E0F5828C83C374F75C
:10194300939F74F6939E50229002A3E064C8601A9A
:1019530090027CE0FCA3E0FDA3E0FEA3E0FF900285
:10196300941249E29002A0E004F09002A3E0FFC3C6
:101973009420500FEF75F010A424D2F9748035F041
:10198300FA801B9002A3E0B4643B900307E0249029
:10199300FF900306E03400FECAEECAC9EFC97BFF1D
:1019A300EBC0E0EAC0E0E9C0E0C874A5C8CC7402AB
:1019B300CCCD7401CDD0E0F9D0E0FAD0E0FB7E00CD
:1019C3007F10124711900306E0FEA3E0FFCAEECAA0
:1019D300C9EFC97BFFEBC0E0EAC0E0E9C0E0C8742F
:1019E300B5C8CC7402CCCD7401CDD0E0F9D0E0FA07
:1019F300D0E0FB7E007F30124711E4F5239003060D
:101A0300E0FEA3E0F5828E8374F3937003021B0759
:101A130074F29320E003021B07E52375F003A4246B
:101A2300B5F582E43402F583E0C0E0E52375F00305
:101A3300A424B6F582E43402F583E0C0E0E523751F
:101A4300F003A424B7F582E43402F583E0C0E0E5B3
:101A53002375F003A4FFAEF024B5F974023EFA7BBC
:101A630001EBC0E0EAC0E0E9C0E074B62FF974020C
:101A73003EFAEBC0E0EAC0E0E9C0E074B72FF974C6
:101A8300023EFA900337EBF0A3EAF0A3E9F0D0E0CB
:101A9300F9D0E0FAD0E0900334F0A3EAF0A3E9F040
:101AA300D0E0F9D0E0FAD0E0FB900331F0A3EAF004
:101AB300A3E9F0900306E0FEA3E0F5828E8374F3BE
:101AC30093FFCBEFCBE4FAF9F890027CE0FCA3E0C0
:101AD300FDA3E0FEA3E0FF1248F5E47BEA7A03F9F5
:101AE300F81248F5CCE8CCCDE9CDCEEACECFEBCF9A
:101AF30090032FEEF0A3EFF0D0E0FBD0E0FDD0E0B9
:101B0300FF1252FD9002A3E064C86003021D80909F
:101B13000306E0FEA3E0F5828E8374F793700374EB
:101B2300F6937003021D8090027CA3A3E0FEA3E062
:101B3300FFCBEFCBCAEECA900294A3A3E0FEA3E0CF
:101B4300FFC3EB9FFBEA9EFA900306E0FEA3E0F5DA
:101B5300828E8374F693FE74F793FFD394E8EE9426
:101B630003400280047E037FE87C037DE81247AADA
:101B7300CDEFCDCCEECCCFEBCFCEEACE1247AA7CC5
:101B8300037DEA1247AA900327ECF0A3EDF0C39478
:101B9300F5EC94014035900327E0FEA3E0FF74E9E0
:101BA3009FF074039E900327F0900306E0FEA3E0EA
:101BB300F5828E8374FD9375F00384AFF075250071
:101BC3008F2690029EE04480F0802F900306E0FE73
:101BD300A3E0F5828E8374FC9375F00384AFF075F4
:101BE30025008F2690029EE0B4810FE523B40F03F6
:101BF3007402F0E4900327F0A3F090029EE0540FE8
:101C030064016007E4900327F0A3F0E526452570FF
:101C13005DF52475F003E523A42524F582E435F06E
:101C2300F583E58224B5F582E5833402F583E0FF8D
:101C33007E00900327E0FCA3E0FD124A51E47BF40D
:101C43007A01F9F81248F575F003E523A42524F584
:101C530082E435F0F583E58224B5F582E583340229
:101C6300F583EFF00524E524B403A8021D77E526E8
:101C7300640145256003021D04900327E0FEA3E0F1
:101C8300FF7C007DFF124A51E47BF47A01F9F812DC
:101C930048F574D22FF582747F3EF583E493FF9069
:101CA3000327E4F0A3EFF0E4F52475F003E523A4A0
:101CB3002524F582E435F0F583E58224B5F582E544
:101CC300833402F583E0FF7E00900327E0FCA3E06A
:101CD300FD1247987C007DFF1247AA75F003E523A8
:101CE300A42524F582E435F0F583E58224B5F58255
:101CF300E5833402F583EFF00524E524B403AB80D8
:101D030073900327E0FEA3E024DDF582747D3EF5A6
:101D130083E493FF900327E4F0A3EFF0E4F5247545
:101D2300F003E523A42524F582E435F0F583E58269
:101D330024B5F582E5833402F583E0FF7E0090034A
:101D430027E0FCA3E0FD1247987C007DFF1247AA21
:101D530075F003E523A42524F582E435F0F583E546
:101D63008224B5F582E5833402F583EFF00524E59B
:101D730024B403AB9003257401F0021F319002A336
:101D8300E064C87003021F3174A52523F582E4348F
:101D930002F583E0FF9002A0E0FEEF6E6003021EF7
:101DA3008B90032504F0900306E0FEA3E0F5828EFA
:101DB3008374FC93FFC3741F9FF526E49400F525F9
:101DC300D3E526940AE525648094804015AE25AFBB
:101DD300267C007D0A124798EF24A6F526EE34FFF1
:101DE300F52574F62523F582E43402F583E0FFC379
:101DF30074FF9FFFE49400FED3EF9526E5256480EE
:101E0300F8EE64809874F6400F2523F582E43402DB
:101E1300F583E02526F0800C2523F582E43402F5D2
:101E23008374FFF0E4F52475F003E523A42524F57A
:101E330082E435F0F583E58224B5F582E583340247
:101E4300F583E0FF7E0074F62523F582E43402F582
:101E530083E0907FD293FD7C001247987DFF124769
:101E6300AA75F003E523A42524F582E435F0F58370
:101E7300E58224B5F582E5833402F583EFF005248A
:101E8300E524B403A2021F31900306E0FEA3E0F5AC
:101E9300828E8374FD932401FDE433FC74F62523C1
:101EA300F582E43402F583E0FBFF7E001247FF8EE8
:101EB300258F26EB600BE52645257005F525752650
:101EC3000174F62523F582E43402F583E0C39526F5
:101ED300F0E4F52475F003E523A42524F582E43525
:101EE300F0F583E58224B5F582E5833402F583E0DA
:101EF300FF7E0074F62523F582E43402F583E0FDCA
:101F03007C001247987DFF1247AA75F003E523A4CE
:101F13002524F582E435F0F583E58224B5F582E5E1
:101F2300833402F583EFF00524E524B403A6742873
:101F33002523F582E43400F583E06079900306E01D
:101F4300FCA3E02523F582E43CF58374609324012C
:101F5300FDE433FC74E52523F582E43402F583E0E4
:101F6300FBFFC374FF9FFFE49400FE1247FF8E251F
:101F73008F26C374FF9B600BE52645257005F52569
:101F830075260174E52523F582E43402F583E02503
:101F930026F0900306E0FCA3E02523F582E43CF55C
:101FA30083748093FF900326E0D39F500302205C49
:101FB300EFF002205C900306E0FCA3E02523F5820A
:101FC300E43CF5837470932401FDE433FC74E5254C
:101FD30023F582E43402F583E0FBFF7E001247FF22
:101FE3008E258F26EB600BE52645257005F52575B7
:101FF300260174E52523F582E43402F583E0C395D5
:1020030026F0E4F52475F003E523A42524F582E402
:1020130035F0F583E58224B5F582E5833402F58353
:10202300E0FF9002A1E0FEEF8EF0A4FFAEF07C0093
:102033007DFF1247AA75F003E523A42524F582E466
:1020430035F0F583E58224B5F582E5833402F58323
:10205300EFF00524E524B403AC900306E0FCA3E011
:10206300FDF5828C8374F393FE70030221B374F243
:102073009320E1030221B3900306A3E0F5828C834E
:1020830075F003E523124A1F743093C0E08D828CF0
:102093008375F003E523124A1F743193C0E0900364
:1020A30006A3E0F5828C8375F003E523124A1F74BF
:1020B3003293FBC0E0CBEECBE4FAF9F890027CE07C
:1020C300FCA3E0FDA3E0FEA3E0FF1248F5E47BEAF6
:1020D3007A03F9F81248F5CCE8CCCDE9CDCEEACEB7
:1020E300CFEBCF90032FEEF0A3EFF0A37401F0A397
:1020F3007403F0A37429F0A37401F0A37403F0A391
:10210300742AF0A37401F0A37403F0A3742BF0D02A
:10211300E0FBD0E0FDD0E0FF1252FD900329E0FF89
:10212300E52375F003A424B5F582E43402F583E0D6
:10213300FDC3EF9DFFE49400FE74E52523F582E4DF
:102143003402F583E0FD7C001247987DFF1247FFC0
:10215300E52375F003A424B5F582E43402F583E0A6
:102163002FF090032AE0FFE52375F003A424B6F5CE
:1021730082E43402F583E0FDC3EF9DFFE49400FEA7
:1021830074E52523F582E43402F583E0FD7C001237
:1021930047987DFF1247FFE52375F003A424B6F5A6
:1021A30082E43402F583E02FF090032BE0022275E2
:1021B300900306E0FAA3E0FBF5828A8375F003E55A
:1021C30023124A1F743093FFE52375F003A424B54B
:1021D300F582E43402F583E0FDC3EF9DFFE4940050
:1021E300FE74E52523F582E43402F583E0FD7C00EB
:1021F3001247987DFF1247FFE52375F003A424B52A
:10220300F582E43402F583E02FF08B828A8375F044
:1022130003E523124A1F743193FFE52375F003A4EA
:1022230024B6F582E43402F583E0FDC3EF9DFFE4B9
:102233009400FE74E52523F582E43402F583E0FD82
:102243007C001247987DFF1247FFE52375F003A436
:1022530024B6F582E43402F583E02FF0900306E020
:10226300FEA3E0F5828E8375F003E523124A1F7403
:102273003293FFE52375F003A424B7F582E4340217
:10228300F583E0FDC3EF9DFFE49400FE74E5252391
:10229300F582E43402F583E0FD7C001247987DFF6C
:1022A3001247FFE52375F003A424B7F582E4340253
:1022B300F583E02FF00523E523C394105003021A9E
:1022C30000900325E0700A90029EE0540F640160C1
:1022D30037900306E0FEA3E0F5828E8374F59370D6
:1022E3000374F493602890027CE0FCA3E0FDA3E078
:1022F300FEA3E0FF900298E0F8A3E0F9A3E0FAA3BD
:10230300E0FBC31249AB700690029E7402F0900288
:10231300A1E0FB900326E0FAD39B4065900306E01F
:10232300FEA3E0F5828E8374FE93FF741F9FF52650
:10233300E49400F525D3E526940AE525648094808A
:102343004015AE25AF267C007D0A124798EF24A6E0
:10235300F526EE34FFF525EBFFEAC39FFFE4940077
:10236300FED3EF9526E5256480F8EE648098400857
:102373009002A1E02526F022900326E09002A1F02E
:10238300229002A1E0FF900326E0FEC39F5038EEA7
:10239300FDC3EF9DFFE49400FE900306E0FCA3E081
:1023A300F5828C8374FF932401FDE433FC1247FF11
:1023B3008E258F26E52645257005F5257526019082
:1023C30002A1E0C39526F022E4900311F0A3F0A349
:1023D300F0A3F0900056F09001B9F0900181F090D5
:1023E3000180F090003BF0C87489C8CC7401CCCD57
:1023F3007401CD7B017A00795AFE7F151247117E55
:10240300007F157D007B017A00795A124A7E900085
:1024130040E0900053F07E007F047D007B017A0052
:102423007940124A7E9000457410F07E007F047D4F
:10243300FF7B017A007947124A7E900055E09001B4
:1024430084F0E4900055F09001DDE0540190004EDB
:10245300F0E49001DEF09001DDF090004DE0C43334
:1024630054E02480F582E43400F583E0FEA3E04EDB
:1024730070037FFF2290003EE06048249DF582E4D4
:102483003401F583E0602290003EE02427F582E4E6
:102493003400F583E070129001DBE054036003E045
:1024A30014F09001DBE04404F09001DAE07F007067
:1024B300027F019001DAEFF0700302311912403408
:1024C300023119E4900314F0900314E0FFC3941055
:1024D300400302258774282FF582E43400F583E056
:1024E300700302257E90004DE0C43354E02480F550
:1024F30082E43400F583C083C082900314E0D08269
:10250300D08375F002124A1FE0FCA3E0F5828C83AE
:10251300740193FEB4010E900187E0FDEF6D600539
:102523009003118053EEB40211900187E0FF9003F2
:1025330014E06F6005900312803E90004DE0C433B9
:1025430054E02480F582E43400F583C083C0829094
:102553000314E0FFD082D08375F002124A1FE0FC1F
:10256300A3E0F5828C83740193B4070F900187E095
:10257300FEEF6E6006900313E004F0900314E00492
:10258300F00224CBE4900314F0900314E0FFC3940F
:10259300104003022CF6900187E0FEEF6E70569018
:1025A3000314E02428F582E43400F583E060030299
:1025B3002CED749E2FF582E43401F583E060030271
:1025C3002CED90004FE004F0E0D3940A5003022C6A
:1025D300EDE4F0900314E02403FF900058E0FD12B3
:1025E3006FCE900052E0FF7D021273389001877422
:1025F300FFF0022CED900314E0FF2428F582E4346D
:1026030000F583E07003022B2090004DE0C43354A7
:10261300E02480F582E43400F58375F002EF124A7A
:102623001FE0FEA3E0FFF5828E83740193B40106DD
:10263300126FBD022CED90004DE0C43354E02480B2
:10264300F582E43400F583C083C082900314E0D0A4
:1026530082D08375F002124A1FE0FEA3E0FFF582E9
:102663008E8374019364027040126FBD90005AE030
:10267300FF90004DE0C43354E02480F582E434003D
:10268300F583C083C082900314E0D082D08375F0B9
:1026930002124A1FE0FCA3E0F5828C83740393FECD
:1026A300EF4E90005AF0022CED90004DE0C43354ED
:1026B300E02480F582E43400F583C083C082900374
:1026C30014E0FFD082D08375F002124A1FE0FCA30E
:1026D300E0FDF5828C8374019364037055900311BC
:1026E300E06003022CEDA3E06003022CEDA3E060A5
:1026F30003022CED749E2FF582E43401F583E06030
:1027030003022CED900314E00490003EF0ED24034B
:10271300FEE43C900050F0A3CEF0E490003CF0A324
:10272300F09001DB7402F09001DA14F012403402ED
:102733002CED90004DE0C43354E02480F582E43462
:1027430000F583C083C082900314E0D082D08375E8
:10275300F002124A1FE0FEA3E0F5828E8374019318
:10276300FF64046008EF640560030228FD9003140E
:10277300E0FF249EF582E43401F583E0700D74706C
:102783002FF582E43400F5837402F090004DE0C429
:102793003354E02480F582E43400F583C083C0829F
:1027A300900314E0D082D08375F002124A1FE0FE3A
:1027B300A3E02402FFE43E8F82F583E493FE7401D9
:1027C30093FFE4FCFDFB7A80F9F812486AECC0E061
:1027D300EDC0E0EEC0E0EFC0E0900182E0FEA3E0D8
:1027E30024FAF582EE3401F583E493FE740193FF3A
:1027F300CBEFCBCAEECAE4F9F8D0E0FFD0E0FED0CD
:10280300E0FDD0E0FC127AAD900315EEF0A3EFF0FB
:1028130090004DE0C43354E02480F582E43400F5A5
:1028230083C083C082900314E0D082D08375F0020A
:10283300124A1FE0FEA3E02404FFE43E8F82F583E7
:10284300E493FE740193FFE4FCFDFB7A80F9F81234
:10285300486AECC0E0EDC0E0EEC0E0EFC0E09001FC
:1028630082E0FEA3E024FCF582EE3401F583E493D9
:10287300FE740193FFCBEFCBCAEECAE4F9F8D0E0C4
:10288300FFD0E0FED0E0FDD0E0FC127AAD9003175C
:10289300EEF0A3EFF0900315E0FCA3E0FDCFEDCF46
:1028A300900047F0ECA3F0900317E0FCA3E0FDCF0A
:1028B300EDCF900049F0ECA3F090004DE0C4335409
:1028C300E02480F582E43400F583C083C082900362
:1028D30014E0FFD082D08375F002124A1FE0FCA3FC
:1028E300E0F5828C83740193B40507900045E044BE
:1028F30001F0900046EFF0022CED90004DE0C43360
:1029030054E02480F582E43400F583C083C08290D0
:102913000314E0FFD082D08375F002124A1FE0FC5B
:10292300A3E0F5828C8374019364066003022A0793
:1029330074039320E703022CED900187E0F4600316
:10294300022CED749E2FF582E43401F583E06003DD
:10295300022CED90004DE0C43354E02480F582E472
:102963003400F583C083C082900314E0D082D08307
:1029730075F002124A1FE0FCA3E0FDF5828C83741C
:102983000293900058F090004DE0FF04900052F045
:1029930074B12FF582E43401F583E0900319F08DCF
:1029A300828C83740393FF7D0112733890004DE092
:1029B30024B1F582E43401F583E02404FF90031984
:1029C300E0FEC3EF9E5403FF7006900314E0802DD6
:1029D300EFB4010A900314E090850993801FEFB4CC
:1029E300020B900314E0FFC374109F8010EF640385
:1029F3006003022CF6900314E090851993900187ED
:102A0300F0022CF690004DE0C43354E02480F582AC
:102A1300E43400F583C083C082900314E0FFD082C6
:102A2300D08375F002124A1FE0FCA3E0FDF5828C0F
:102A330083740193F964077032749E2FF582E43432
:102A430001F583E06003022CED8D828C8374039384
:102A530030E003022CED900314E02470F582E4349B
:102A630000F583E04402F0EF022C19E964096003E6
:102A7300022CED900185E0FF90004DE0C43354E05B
:102A83002480F582E43400F583C083C0829003146C
:102A9300E0FED082D08375F002124A1FE0FCA3E06F
:102AA300F5828C837402935403FDC8EDC874010846
:102AB3008002C333D8FC4F900185F0749E2EF582BB
:102AC300E43401F583E06003022CED90004DE0C493
:102AD3003354E02480F582E43400F583C083C0825C
:102AE300900314E0D082D08375F002124A1FE0FEF7
:102AF300A3E0F5828E83740293C4540F900186F091
:102B0300900185E0FFED2404FEC8EEC8740108803F
:102B130002C333D8FC4F900185F0022CED900314CF
:102B2300E0FF249EF582E43401F583E0FE700302A6
:102B33002CED90004DE0C43354E02480F582E4345E
:102B430000F58375F002EF124A1FE0FCA3E0F58263
:102B53008C83740193FFB40519EE7003022CED907E
:102B63000314E02470F582E43400F5837401F00269
:102B73002CEDEF6406704390004DE0C43354E02421
:102B830080F582E43400F583C083C082900314E0AF
:102B9300D082D08375F002124A1FE0FEA3E0F582D3
:102BA3008E83740393FF30E703022CED9001877447
:102BB300FFF0E4FD127338022CED90004DE0C433B6
:102BC30054E02480F582E43400F583C083C082900E
:102BD3000314E0FFD082D08375F002124A1FE0FC99
:102BE300A3E0F5828C83740193FE6407704E740333
:102BF3009330E03474702FF582E43400F583E0FF02
:102C030020E125900314E0FD2470F582E43400F5FF
:102C130083EF4402F0ED25E024BAF582E43401F5B4
:102C230083E4F0A3F0022CED900314E02470F5820A
:102C3300E43400F583E054FDF0022CEDEEB4080318
:102C43007F012290004DE0C43354E02480F582E4F8
:102C53003400F583C083C082900314E0D082D08314
:102C630075F002124A1FE0FEA3E0F5828E83740121
:102C730093640970757402935403D394014039909B
:102C83000185E04480F090004DE0C43354E024809B
:102C9300F582E43400F583C083C082900314E0D04E
:102CA30082D08375F002124A1FE0FEA3E0F5828E04
:102CB30083740493900057F090004DE0C43354E0C4
:102CC3002480F582E43400F583C083C0829003142A
:102CD300E0D082D08375F002124A1FE0FEA3E0F534
:102CE300828E8374039390006FF0900314E004F0DA
:102CF30002258CE4900314F0900314E0FFC39410B6
:102D03004003022F1490004DE0C43354E02480F5B7
:102D130082E43400F58375F002EF124A1FE0FEA34C
:102D2300E0F5828E83740193FF64046008EF640509
:102D33006003022F0B90004DE0C43354E02480F570
:102D430082E43400F583C083C082900314E0D08210
:102D5300D08375F002124A1FE0FEA3E0F5828E8352
:102D6300740393FF64016008EF64026003022F0B96
:102D730090004DE0C43354E02480F582E43400F540
:102D830083C083C082900314E0D082D08375F002A5
:102D9300124A1FE0FEA3E02402FFE43E8F82F58384
:102DA300E493FE740193FFE4FCFDFB7A80F9F812CF
:102DB300486AECC0E0EDC0E0EEC0E0EFC0E0900197
:102DC30082E0FEA3E024FAF582EE3401F583E49376
:102DD300FE740193FFCBEFCBCAEECAE4F9F8D0E05F
:102DE300FFD0E0FED0E0FDD0E0FC127AAD900315F9
:102DF300EEF0A3EFF090004DE0C43354E02480F5EF
:102E030082E43400F583C083C082900314E0D0824F
:102E1300D08375F002124A1FE0FEA3E02404FFE40E
:102E23003E8F82F583E493FE740193FFE4FCFDFB84
:102E33007A80F9F812486AECC0E0EDC0E0EEC0E039
:102E4300EFC0E0900182E0FEA3E024FCF582EE34C3
:102E530001F583E493FE740193FFCBEFCBCAEECA73
:102E6300E4F9F8D0E0FFD0E0FED0E0FDD0E0FC12C2
:102E73007AAD900317EEF0A3EFF0900315E0FCA3F7
:102E8300E0FDCFEDCF900047F0ECA3F0900317E007
:102E9300FCA3E0FDCFEDCF900049F0ECA3F090034D
:102EA30014E0FF900046F090004DE0C43354E0245A
:102EB30080F582E43400F58375F002EF124A1FE0D7
:102EC300FEA3E0F5828E837403936402702404935B
:102ED300900045B40506E04401F08004E054FEF0A0
:102EE300900314E02470F582E43400F5837403F056
:102EF300801FE4900045F0900314E02470F582E411
:102F03003400F583E4F08009900314E004F0022C0C
:102F1300FBE490031AF0900314F0900314E0FFC352
:102F2300941040030230FD90004DE0C43354E0247C
:102F330080F582E43400F58375F002EF124A1FE056
:102F4300FEA3E0F5828E837401936407600302306D
:102F5300F490027CE0FCA3E0FDA3E0FEA3E0FF907D
:102F63000000E0F8A3E0F9A3E0FAA3E0FBD31249E1
:102F7300AB4036900314E0FF25E024BAF582E43435
:102F830001F583E4F0A3F074702FF582E43400F5C7
:102F930083E054FBF0900314E02470F582E43400E2
:102FA300F583E054FDF00230F4900314E0FF247045
:102FB300F582E43400F583E020E1030230F490006D
:102FC3004DE0C43354E02480F582E43400F5837586
:102FD300F002EF124A1FE0FEA3E0FF2404FDE43EEB
:102FE3008D82F583E493FC7401934C7006126FBDDC
:102FF3000230BD900314E0FF2470F582E43400F541
:1030030083E0FE30E21174702FF582E43400F5831F
:10301300EE54FBF00230BD90027CA3A3E0FEA3E0DC
:10302300FF900314E025E024BAF582E43401F5832C
:10303300E0FCA3E0FDC3EF9DFFEE9CFE90004DE09E
:10304300C43354E02480F582E43400F583C083C0A4
:1030530082900314E0D082D08375F002124A1FE0FD
:10306300FCA3E0FD2404FBE43C8B82F583E493FAA8
:10307300740193D39FEA9E5041900314E0FF8D8225
:103083008C83740293FDEF2403FF126FCE90027CB6
:10309300A3A3E0FEA3E0FF900314E0FD25E024BA20
:1030A300F582E43401F583EEF0A3EFF074702DF5AF
:1030B30082E43400F583E04404F090004DE0C4332F
:1030C30054E02480F582E43400F583C083C0829009
:1030D3000314E0D082D08375F002124A1FE0FEA3EE
:1030E300E0F5828E8374039330E00690031AE004C4
:1030F300F0900314E004F0022F1D90027CE0FCA387
:10310300E0FDA3E0FEA3E0FF9000001249E290037C
:103113001AE090004CF0126A5CE4FF120066E4FFD0
:10312300124AEF90003EE070031268F990031474A2
:1031330001F0900314E0FF2459F582E43400F58391
:10314300E0FE74882FF582E43401F583E06E6008B5
:1031530090003B7401F0800A900314E004F0E0B4A3
:1031630016D0900053E0FF900040E06F6002801D96
:103173009003147402F0900314E0FFC39405501DF0
:10318300743F2FF582E43400F583E06008900180FA
:103193007401F08008900314E004F080D9900314C4
:1031A3007403F0900314E0FFC39407501E74442F7C
:1031B300F582E43400F583E0F46008900181740142
:1031C300F08008900314E004F080D8900184E0FFBD
:1031D300900055E06F60069001B97401F090004EC5
:1031E300E0FF9001DDE06F7004A3E06006900056FD
:1031F3007401F0900187E0F4602190003BE07016C9
:10320300900180E07010A3E0700C9001B9E07006AB
:10321300900056E06005E4900058F090004BE0B455
:103223000115E4900056F09001B9F0900181F090FF
:103233000180F090003BF07F0022C0E0C0F0C0832B
:10324300C082C0D075D00820D903023FE8E5D95425
:103253003F124A2B3FD7003AFE01331A0232890349
:103263003F4A203AF4213307223276233B71300060
:10327300003FE475D70063D640C20DE5D654FC4445
:1032830002F5D6023FE420DE03023FE463D680AFBB
:10329300DB90030CE4F0A3EFF090030CA3E0F5D76D
:1032A300900580E064A56003023FE4A3E0645A60F4
:1032B30003023FE4A3E064036003023FE4A3E0707E
:1032C300259002F5E0540F44A0F0C874B5C8CC743F
:1032D30002CCCD7401CD7B017A0579847E007F30E9
:1032E300124711023FE4900583E0FF64017003027B
:1032F3003FE4EF64026003023FE49002F5E0540F01
:10330300F0023FE475D50063D440C20CE5D454FC0D
:103313004402F5D4023FE420DE03023FE463D48099
:10332300AFDB90030CE4F0A3EFF090030CA3E0F504
:10333300D5900362E030E75790057FE075F040A435
:103343002400F9740635F0FAC8E9C8CCEACCCD7488
:1033530001CD7B017A0579007E007F4012471190F1
:1033630005407452F0A37444F090057FE0FF04F02D
:10337300900542EFF090057EE0FFA3E0C39F50036A
:10338300023AEEE4F0900362E0547FF0023AEE90EA
:1033930005407452F0900501E0900541F09005025C
:1033A300E0900542F0900503E0900543F09005009E
:1033B300E0B44410A3E0B44B0BA3E0B44206A3E093
:1033C3006443601A900500E064447052A3E0644CC7
:1033D300704CA3E064547046A3E0644370409005CE
:1033E30004E0C394314037E0D39438503190050161
:1033F300E090057EB44B0B7408F0900504E024D9EB
:1034030080097404F0900504E024ED900362F090C9
:10341300057FE4F0900362E04480F0023AEE900509
:1034230000E064437023A3E0B44B1EA3E0B4591936
:10343300A3E0B45414900544E514F0900504E0F5BA
:1034430014900545E5140236F6900500E0644360E8
:1034530003023591A3E064526003023591A3E06453
:103463004B6003023591A3E0644D600302359190F4
:1034730001E8E0FFA3E0900544CFF0A3EFF0900153
:10348300EAE0FFA3E0900546CFF0A3EFF09001F947
:10349300E02401FF9001F8E03400FE90023DE0FCDF
:1034A300A3E0FDD39FEC9E4008CEECCECFEDCF80C2
:1034B300009001F5E024FFFD9001F4E034FFFCC32C
:1034C300EF9DEE9C50269001F9E02401FF9001F856
:1034D300E03400FE90023DE0FCA3E0FDD39FEC9EB0
:1034E3004008CEECCECFEDCF8010800E9001F5E0FA
:1034F30024FFFF9001F4E034FFFE9001E8EEF0A317
:10350300EFF09001FBE02401FF9001FAE03400FEAC
:1035130090023FE0FCA3E0FDD39FEC9E4008CEEC7D
:10352300CECFEDCF80009001F7E024FFFD9001F6B0
:10353300E034FFFCC3EF9DEE9C50269001FBE0249A
:1035430001FF9001FAE03400FE90023FE0FCA3E0AB
:10355300FDD39FEC9E4008CEECCECFEDCF80108004
:103563000E9001F7E024FFFF9001F6E034FFFE9098
:1035730001EAEEF0A3EFF09001E8E0FDA3E090058F
:1035830048CDF0A3EDF0A3EEF0A3EF0236F69005DD
:1035930000E0644360030236B4A3E06452600302B4
:1035A30036B4A3E0644B60030236B4A3E0645A600C
:1035B300030236B49001F8E0FFA3E0900544CFF096
:1035C300A3EFF09001F4E0FFA3E0900546CFF0A352
:1035D300EFF09001FAE0FFA3E0900548CFF0A3EFEE
:1035E300F09001F6E0FFA3E090054ACFF0A3EFF0DF
:1035F300900504E0FEA3E0FF9001E8E0FCA3E0FDFA
:10360300C3EF9DEE9C40030236A9900506E0FEA39E
:10361300E09DEE9C50030236A9A3E0FEA3E0FF90D9
:1036230001EAE0FCA3E0FDEF9DEE9C507990050AD2
:10363300E0FEA3E09DEE9C406D900504E0FFA3E057
:103643009001F8CFF0A3EFF0900506E0FFA3E09020
:1036530001F4CFF0A3EFF0900508E0FFA3E09001A1
:10366300FACFF0A3EFF090050AA3E0FF9001F6EE86
:10367300F0A3EFF0A3E0FDA3E090054CCDF0A3EDA4
:10368300F09001F4E0FDA3E090054ECDF0A3EDF042
:103693009001FAE0FDA3E0900550CDF0A3EDF0A377
:1036A300EEF0A3EF804D90054C74FFF0A3F0023AC7
:1036B300EE900500E064437044A3E06445703EA3CC
:1036C300E064437038A3E064447032A21033900581
:1036D30044F0A211E433A3F0900504E024FF921018
:1036E300A3E024FF9211A210E433900546F0A21147
:1036F300E433A3F09003627432F0023AEE900500D3
:10370300E0B44313A3E0B4450EA3E0B44309A3E03C
:1037130064467003023AEE900500E064427028A309
:10372300E0B44623A3E0B4571EA3E0B45619C8740B
:1037330044C8CC7405CCCD7401CD7BFF7A00790EDF
:103743007E007F04023997900500E0644260030223
:1037530038A0A3E0645560030238A0A3E064496085
:10376300030238A0A3E0644460030238A090057DFF
:10377300F090057DE0FF25E02441F582E43403F574
:1037830083E0FE74442FF582E43405F583EEF09074
:10379300057DE02444F582E43405F583E0C39430E9
:1037A300402790057DE02444F582E43405F583E069
:1037B300D39439501490057DE02444F582E4340514
:1037C300F583E024D0F002384D90057DE02444F5E4
:1037D30082E43405F583E0C39461402690057DE0DF
:1037E3002444F582E43405F583E0D39466501390C2
:1037F300057DE02444F582E43405F583E024A9F053
:10380300804890057DE02444F582E43405F583E0A7
:10381300C39441402690057DE02444F582E43405B9
:10382300F583E0D39446501390057DE02444F5825C
:10383300E43405F583E024C9F0800F90057DE0248E
:1038430044F582E43405F583E4F090057DE004F06B
:10385300E0640C600302377490057DE4F090057D0D
:10386300E0FF25E02444F582E43405F583E0C45405
:10387300F0FEEF25E02445F582E43405F583E04EC0
:10388300FF90057DE02444F582E43405F583EFF0F1
:1038930090057DE004F0E0B406C3023AEE90050023
:1038A300E06442600302396AA3E0644960030239B9
:1038B3006AA3E06450600302396AA3E064546003BE
:1038C30002396A90023DE0FFA3E0900544CFF0A3E4
:1038D300EFF090023FE0FFA3E0900546CFF0A3EFA7
:1038E300F0A3E4F0A3F0900241E090054AF09002C7
:1038F30042E090054BF0A31249EE00000000900552
:103903007DE4F090054CC083C082E0F8A3E0F9A306
:10391300E0FAA3E0FBE8C0E0E9C0E0EAC0E0EBC006
:10392300E090057DE0F92428F582E43400F583E096
:10393300FFE4FCFDFEC8E9C81249CFD0E0FBD0E0AC
:10394300FAD0E0F9D0E0F8EB4FFFEA4EFEE94DFD87
:10395300E84CFCD082D0831249E290057DE004F06C
:10396300E0B4139F023AEE900500E06442702BA38B
:10397300E0B44726A3E0B45021A3E0B44D1CC874BF
:1039830044C8CC7405CCCD7401CD7BFF7ADA7900C1
:103993007E007F38124711023AEE900500E0644240
:1039A300701DA3E0B44418A3E0B44713A3E0B443E9
:1039B3000E7B017A0579447D38127C39023AEE9008
:1039C3000500E064427028A3E064527022A3E0B4CF
:1039D300531DA3E0B454187E007F3C7D207B017A05
:1039E300057944124A7E9003627464F0023AEE90C1
:1039F3000500E064427028A3E064427022A3E0B4AF
:103A03004F1DA3E0B454187E007F3C7D207B017AD8
:103A1300057944124A7E9003627465F0023AEE908F
:103A23000500E064427051A3E06443704BA3E0647B
:103A3300537045A3E06443703FFE7F3C7D207B01D0
:103A43007A057944124A7E90004DE0243190054472
:103A5300F0900504E0C394314019E0D39438501337
:103A6300E0900545F024CF900600F0900362746661
:103A7300F08078900545805C900500E0B44217A380
:103A8300E0B44212A3E0B4550DA3E0B45A08900386
:103A9300627467F08055900500E06442703BA3E0D8
:103AA30064427035A3E06454702FA3E06456702918
:103AB300A3E0D39430501AA3E06016940A501290F6
:103AC3000504E0900293F0900505E09001FCF0807E
:103AD3001A90029374FFF080129005407452F0A381
:103AE3007449F0A3744EF0A37456F053D4FC023F10
:103AF300E475D30063D240C20B8068AFDB90030C44
:103B0300E4F0A3EFF090030CE0FEA3E0FF4E60535C
:103B1300D3EF9402EE9400504A90030CA3E0247F69
:103B2300F58274043EF583E0FF7E0090030CEEF013
:103B3300A3EFF07F0020E0027F01EF24FFB3920A9E
:103B430090030CE0FEA3E0FF7D0020E1027D01ED88
:103B530024FFB3920EEF7F0020E2027F01EF24FFE8
:103B6300B39209E5D254FC4402F5D2023FE475DC7A
:103B7300C0AFDB90030CE4F0A3EFF090030CE07014
:103B830004A3E064086003023F1F900447E0FE9033
:103B93000446E07C002400FFEC3E90033CF0A3EFDE
:103BA300F090030CE4F0A3F090030BF0900441E0D9
:103BB30090033EF0900440E05460601A90033EE0AE
:103BC3001424FD4003023F2524FB24FD4003023F50
:103BD300258000023F1F90033EE0B40B0040030228
:103BE3003F1D903BECF8282873023EF2023DF102A0
:103BF3003F1D023E56023F1D023DAE023C0D023FF9
:103C03001D023DBA023DDF023F25900443E024FE3E
:103C1300602B14604224E17003023CD4242160032E
:103C2300023D2790035B74FFF0A37482F0A374E258
:103C3300F090030CE4F0A37412F0023D2D90035BAB
:103C430074FFF0A37484F0A37493F090030CE4F076
:103C5300A37469F0023D2D900442E01460271460C0
:103C63003E14605424036003023D2790035B74FFFA
:103C7300F0A37482F0A374F4F090030CE4F0A37443
:103C830004F0023D2D90035B74FFF0A37483F0A353
:103C9300740EF090030CE4F0A37424F0023D2D9015
:103CA300035B74FFF0A37482F0A374F8F090030C29
:103CB300E4F0A37416F0807290035B7401F0A374B4
:103CC30003F0A3743FF090030CE4F0A3741AF080A4
:103CD30059900444E0FF701A90035B74FFF0A374DF
:103CE30083F0A37432F090030C7401F0A3741DF0FD
:103CF3008038EFB4010F90035B74FFF0A37484F07A
:103D0300A3744F8011EFB4021990035B74FFF0A307
:103D13007484F0A37471F090030CE4F0A37422F0A4
:103D23008008800090030B74FFF090030CE0FEA367
:103D3300E0FFD390033DE09F90033CE09E4005EEFF
:103D4300F0A3EFF090033CE0FEA3E0FFC39440EE4A
:103D53009400400C7C007D40CEECCECFEDCF8000B4
:103D630090030CEEF0A3EFF090030CE0FEA3E0FF52
:103D7300C87440C8CC7404CCCD7401CD90035BE00F
:103D8300FBA3E0FAA3E0F912471190030CE0FEA3B2
:103D9300E0FFC390033DE09FF090033CE09EF09072
:103DA300035CEE8FF0124835023F25900442E0FF9A
:103DB30090033CE4023F1790033BE0900440F0C3C0
:103DC30090033DE0940190033CE094005003023FD4
:103DD3002590030CE4F0A304F0023F25900442E095
:103DE30090033BF07003023F25D20F023F2590045E
:103DF30040E0541FFF6402704A900444E0146038AA
:103E03001460261460142482602414601214702D2C
:103E1300E5D654BC4402F5D6802953D6738024E5F5
:103E2300D454BC4402F5D4801A53D4738015E5D21C
:103E330054BC4402F5D2800B53D273800690030B1B
:103E430074FFF0EF700A90033AE054FEF0023F254E
:103E5300023F1F900440E0541FFD7027900443E08D
:103E6300FE900442E0FBEB64014E701490849A933D
:103E730030E50A90033AE04401F0023F25023F1F78
:103E8300023F1FED64027065900443E0FE9004421C
:103E9300E0FDED4E7055900445E0FE900444E0FDD6
:103EA300EDFFEE7044EF24FE602B14601424826057
:103EB3002E146017147032E5D654BF4403F5D68030
:103EC30061E5D6547F440CF5D68057E5D454BF44FE
:103ED30003F5D4804DE5D4547F440CF5D48043E5F9
:103EE300D254BF4403F5D280398031802F802D9086
:103EF3000441E4F0900440F090033CE0FEA3E0FFB3
:103F0300C39402EE940090030C4008E4F0A37402FF
:103F1300F0800FEEF0A3EFF08008800090030B74A5
:103F2300FFF090030BE0B4FF0675DCCF023FE49093
:103F3300030CE0FEA3E0FF4E60048FDD800375DD1C
:103F43000075DCC0023FE490033EE024FB606E1486
:103F5300707A90033CE0FEA3E0FFC39440EE94002C
:103F6300400C7C007D40CEECCECFEDCF80009003A3
:103F73000CEEF0A3EFF090030CE0FEA3E0FFC87497
:103F830040C8CC7404CCCD7401CD90035BE0FBA39B
:103F9300E0FAA3E0F912471190030CE0FEA3E0FF5F
:103FA300C390033DE09FF090033CE09EF090035CE0
:103FB300EE8FF01248358FDD63DC40802490033CA4
:103FC300A3E0FFE5E354804FF5E3800375DD00755F
:103FD300DC02800DAFDB90030CE4F0A3EFF063DCB5
:103FE30080C2D9804130D82275DC0275D20275D4E3
:103FF3000275D60275E300C2DAC2D9C20FC20BC280
:104003000C90033AE4F0C2D8801C30DA16C2DAE529
:10401300DA90033A30E206E04402F08009E054FD0E
:10402300F0800375D8FFD0D0D082D083D0F0D0E019
:104033003290031B7403F090027CE0FCA3E0FDA329
:10404300E0FEA3E0FF900008E0F8A3E0F9A3E0FAA4
:10405300A3E0FBD31249AB400A9000041249EE00DF
:1040630000000090027CE0FCA3E0FDA3E0FEA3E0DF
:10407300FF9000081249E290027CE0FCA3E0FDA35C
:10408300E0FEA3E0FF900004E0F8A3E0F9A3E0FA68
:10409300A3E0FBD31249AB400C90004B7401F0E456
:1040A3009001DAF022E490004BF0900320F0A3F0AB
:1040B30090003EE0FF603B90004DE075F020A424AB
:1040C3007EF582E5F03400F58375F002EF124A1FA6
:1040D300E0FEA3E0FFF5828E83740293FD7C00EF84
:1040E3002403FFE43EFEEF2DFFEC3E900320F0A3FC
:1040F300EFF090031BE0C394164003024640900385
:1041030020E0FEA3E0FF900050E0FCA3E0FDC39F8E
:10411300EC9E4004E40244F78D828C83E493FFB465
:10412300EA31ED2401FBE43C8B82F583E493FE54F6
:10413300019001DAF0EE30E109900051E02402022F
:1041430042E2900051E004F07006900050E004F069
:1041530002462FEF64EB600302427FED2401FFE48C
:104163003C8F82F583E493FBB4021EED2404FEE44A
:104173003C90000CF0A3CEF0900051E02404F090AA
:104183000050E03400F002462F90003DE004F07050
:104193000690003CE004F0ED2402FFE43C8F82F53E
:1041A30083E493FEED2403FDE43C8D82F583E493E5
:1041B300FDEDFF90031CEEF0A3EFF0EB600B90011D
:1041C300DBE030E20454036033900050E0FEA3E0F0
:1041D3002401FFE43E8F82F583E49370079001DBB3
:1041E300E020E21890031CE0FEA3E0FF4E60149071
:1041F300003CE0FCA3E0C39FEC9E40079001DBE0A2
:104203004480F09001DBE0FF30E727900051E02489
:1042130003F0900050E03400F0EF547B9001DBF0AA
:10422300E490003CF0A3F074FF90000CF0A3F002C4
:10423300462F90000CE0FEA3E0FFF47002EEF46062
:1042430006900050EE803090004DE075F020A424DD
:104253007EF582E5F03400F583C083C08290003E92
:10426300E0D082D08375F002124A1FE0FEA3E0245F
:1042730003FFE43E900050F0A3EFF022900050E0E3
:10428300FEA3E0F5828E83E49364FE705B9000509E
:10429300E0FCA3E0FD2401FFE43C8F82F583E4937B
:1042A300FEED2402FDE43C8D82F583E493FDEDFFF6
:1042B300900323EEF0A3EFF0E4FCFD90027CE0F822
:1042C300A3E0F9A3E0FAA3E02FFFEA3EFEED39FDF8
:1042D300EC38FC9000041249E2900051E02403F012
:1042E300900050E03400F022900050E0FEA3E0F58F
:1042F300828E83E493FC64FD706190031BE0FFD323
:1043030094034003024640900040E06003024640AD
:1043130090005075F00112483585F082F583E493DF
:10432300FD126FCE900050E475F00112483585F010
:1043330082F583E49390005AF0900320E0FEA3E01B
:10434300FF900050E475F001124835FAEF65F07004
:1043530002EE6A60030246400244F7EC64EC601428
:10436300900050E0FEA3E0F5828E83E49364ED6059
:10437300030244FC90031BE0D39403400302464032
:10438300900040E06003024640900050E0FCA3E050
:10439300FD2401FFE43C8F82F583E493FEED2402C8
:1043A300FDE43C8D82F583E493FDEDFF90031CEE69
:1043B300F0FCA3EFF0CCCCCDCD900050E0FAA3E01D
:1043C300FB2403FFE43A8F82F583E493FEEB24049A
:1043D300FBE43A8B82F583E493FBEBFF90031EEE41
:1043E300F0A3EFF0CFEDCFCEECCEE4FCFDFB7A8073
:1043F300F9F812486AECC0E0EDC0E0EEC0E0EFC0AF
:10440300E0900182E0FEA3E024FAF582EE3401F5A8
:1044130083E493FE740193FFCBEFCBCAEECAE4F9B6
:10442300F8D0E0FFD0E0FED0E0FDD0E0FC127AADA2
:1044330090031CEEF0A3EFF0A3E0FEA3E0FFE4FC87
:10444300FDFB7A80F9F812486AECC0E0EDC0E0EEBB
:10445300C0E0EFC0E0900182E0FEA3E024FCF5821F
:10446300EE3401F583E493FE740193FFCBEFCBCAE3
:10447300EECAE4F9F8D0E0FFD0E0FED0E0FDD0E0F2
:10448300FC127AAD90031EEEF0A3EFF090031CE054
:10449300FCA3E0FDCFEDCF900047F0ECA3F0900339
:1044A3001EE0FCA3E0FDCFEDCF900049F0ECA3F0BC
:1044B300900050E0FEA3E0F5828E83E493B4ED0711
:1044C300900045E04401F0900051E02404F0900096
:1044D30050E03400F0900320E0FEA3E0FF90005092
:1044E300E475F001124835FCEF65F07002EE6C6084
:1044F3000302464090003EF022900050E0FEA3E00D
:10450300F5828E83E49364FA60030245AE9003223E
:104513007403F0F090031BE0FC900322E0FFC39CC4
:10452300502A900050E0FAA3E0F5828A83E493FED8
:1045330074592FF582E43400F583E06E700690031E
:1045430022F08008900322E004F080C8900322E068
:104553007003024640900040E06003024640900032
:104563005AE0601990031BE0FF04F0900050E475DB
:10457300F00112483585F082F583024629EC640385
:10458300600302464090031BE0FF04F0900050E4F8
:1045930075F00112483585F082F583E493FD126FBF
:1045A300CE90005AE04402F002462F900322740397
:1045B300F0F090031BE0FC900322E0FFC39C502A21
:1045C300900050E0FAA3E0F5828A83E493FE7459E5
:1045D3002FF582E43400F583E06E7006900322F039
:1045E3008008900322E004F080C8900322E0604D2D
:1045F300900040E0704790005AE0701490031BE075
:10460300FF04F0900050E0FAA3E0F5828A8380165D
:10461300ECB4032990031BE0FF04F0900050E0FC8E
:10462300A3E0F5828C83E493FD126FCE900051E0FA
:1046330004F07006900050E004F00240F522E70910
:10464300F608DFFA8046E709F208DFFA803E88823F
:104653008C83E709F0A3DFFA8032E309F608DFFA77
:104663008078E309F208DFFA807088828C83E3099B
:10467300F0A3DFFA806489828A83E0A3F608DFFA75
:10468300805889828A83E0A3F208DFFA804C80D2C3
:1046930080FA80C680D4806980F28033801080A63F
:1046A30080EA809A80A880DA80E280CA8033898297
:1046B3008A83ECFAE493A3C8C582C8CCC583CCF043
:1046C300A3C8C582C8CCC583CCDFE9DEE7800D89EA
:1046D300828A83E493A3F608DFF9ECFAA9F0EDFBF1
:1046E3002289828A83ECFAE0A3C8C582C8CCC58339
:1046F300CCF0A3C8C582C8CCC583CCDFEADEE88092
:10470300DB89828A83E493A3F208DFF980CC88F003
:10471300EF60010E4E60C388F0ED2402B404005034
:10472300B9F582EB2402B4040050AF23234582235E
:1047330090469173BB010CE58229F582E5833AF536
:1047430083E0225006E92582F8E622BBFE06E9252E
:1047530082F8E222E58229F582E5833AF583E49340
:1047630022BB010689828A83F0225002F722BBFE14
:1047730001F322F8BB010DE58229F582E5833AF5C1
:1047830083E8F0225006E92582C8F622BBFE05E93C
:104793002582C8F222EF8DF0A4A8F0CF8CF0A428D4
:1047A300CE8DF0A42EFE22BC000BBE0029EF8DF0AF
:1047B30084FFADF022E4CCF875F008EF2FFFEE3361
:1047C300FEEC33FCEE9DEC984005FCEE9DFE0FD510
:1047D300F0E9E4CEFD22EDF8F5F0EE8420D21CFEE4
:1047E300ADF075F008EF2FFFED33FD40079850064D
:1047F300D5F0F222C398FD0FD5F0EA22C2D5EC30F2
:10480300E709B2D5E4C39DFDE49CFCEE30E715B2A5
:10481300D5E4C39FFFE49EFE1247AAC3E49DFDE4D3
:104823009CFC80031247AA30D507C3E49FFFE49E94
:10483300FE22C5F0F8A3E028F0C5F0F8E582158262
:1048430070021583E038F022BB010A89828A83F063
:10485300E5F0A3F0225006F709A7F01922BBFE06E4
:10486300F3E5F009F31922E88FF0A4CC8BF0A42C24
:10487300FCE98EF0A42CFC8AF0EDA42CFCEA8EF06B
:10488300A4CDA8F08BF0A42DCC3825F0FDE98FF052
:10489300A42CCD35F0FCEB8EF0A4FEA9F0EB8FF049
:1048A300A4CFC5F02ECD39FEE43CFCEAA42DCE35D1
:1048B300F0FDE43CFC2275F008758200EF2FFFEE5B
:1048C30033FECD33CDCC33CCC58233C5829BED9A39
:1048D300EC99E58298400CF582EE9BFEED9AFDEC97
:1048E30099FC0FD5F0D6E4CEFBE4CDFAE4CCF9A8DD
:1048F3008222B800C1B90059BA002DEC8BF084CFE5
:10490300CECDFCE5F0CBF97818EF2FFFEE33FEEDBB
:1049130033FDEC33FCEB33FB10D703994004EB99E5
:10492300FB0FD8E5E4F9FA227818EF2FFFEE33FEF8
:10493300ED33FDEC33FCC933C910D7059BE99A402D
:1049430007EC9BFCE99AF90FD8E0E4C9FAE4CCFB45
:104953002275F010EF2FFFEE33FEED33FDCC33CC99
:10496300C833C810D7079BEC9AE899400AED9BFD22
:10497300EC9AFCE899F80FD5F0DAE4CDFBE4CCFA35
:10498300E4C8F922C3E49FFFE49EFEE49DFDE49C9A
:10499300FC22EB9FF5F0EA9E42F0E99D42F0EC64C5
:1049A30080C864809845F022EB9FF5F0EA9E42F0C0
:1049B300E99D42F0E89C45F022E8600FECC313FC4C
:1049C300ED13FDEE13FEEF13FFD8F122E8600FEFB6
:1049D300C333FFEE33FEED33FDEC33FCD8F122ECB1
:1049E300F0A3EDF0A3EEF0A3EFF022A8828583F00D
:1049F300D083D082124A05124A05124A05124A058B
:104A0300E473E493A3C583C5F0C583C8C582C8F026
:104A1300A3C583C5F0C583C8C582C822A42582F572
:104A230082E5F03583F58322D083D082F8E4937056
:104A330012740193700DA3A393F8740193F5828804
:104A430083E4737402936860EFA3A3A380DFEC8E07
:104A5300F0A4CCC5F0CCCDF8EFA4CEC5F02DFDE489
:104A63003CFCE8A42EC8C5F03DFDE43CFCEFA4FFEC
:104A7300E5F028FEE43DFDE43CFC22EF4E6012EF3E
:104A830060010EEDBB010B89828A83F0A3DFFCDE9C
:104A9300FA2289F05007F709DFFCA9F022BBFEFCDC
:104AA300F309DFFCA9F022BB010689828A83E02295
:104AB3005002E722BBFE02E32289828A83E4932227
:104AC300E0FCA3E0FDA3E0FEA3E0FF22F8E0FBA3EC
:104AD300A3E0F925F0F0E582158270021583E0FA70
:104AE30038F022EBF0A3EAF0A3E9F022E4900325E7
:104AF300F0A3F0A3F0EF6024E490001AF090001804
:104B0300F0900241F090001BF0900019F0900242E7
:104B1300F090001CF0A3F0900327F022E490032808
:104B2300F0900328E0FF2441F582E43402F583E0AA
:104B3300FE74182FF582E43400F583E0FFC3EE9F83
:104B4300FFD36480948040089003277401F080159C
:104B5300C3EF6480948050089003277402F08005AB
:104B6300E4900327F0900182E0FEA3E0F5828E83B8
:104B7300C083C082900328E0FFD082D08375F00801
:104B8300124A1FE58224E0F582E5833401F583E4CC
:104B930093540F24FE7003024C7C046003024F6C99
:104BA300900327E0FE7003024F88741A2FF582E406
:104BB3003400F583E06029900328E0FF241AF5828E
:104BC300E43400F583E4F074182FF582E43400F53F
:104BD30083E0FFEE25E024FDFEC3EF9EF0024F8845
:104BE300900327E0FF900182E0FCA3E0F5828C8331
:104BF300C083C082900328E0D082D08375F008126E
:104C03004A1FE58224E2F582E5833401F583E582D8
:104C13002FF582E43583F583E493FD60057FFF126E
:104C23006FCE90005AE0FF900327E0FE900182E0F0
:104C3300FCA3E0F5828C83C083C082900328E0FD4F
:104C4300D082D08375F008124A1FE58224E5F582ED
:104C5300E5833401F583E5822EF582E43583F5831C
:104C6300E493FEEF4E90005AF0741A2DF582E4346B
:104C730000F5837401F0024F88900327E07003026C
:104C83004F88A3E0FD241AF582E43400F583E06045
:104C9300279001DDE0FC90001CE0FAA3E0FB25E097
:104CA300FFEC4F9001DDF07807CEEACEEBCEA2E722
:104CB30013CE13D8F8024F24900182E0FEA3E0F54F
:104CC300828E8375F008ED124A1FE58224E3F58294
:104CD300E5833401F583E493FFC3941E5003024D2F
:104CE300B8EFD394274003024DB8900182A3E0F5B7
:104CF300828E83C083C082900328E0D082D08375E4
:104D0300F008124A1FE58224E4F582E5833401F5B5
:104D130083E493FFC3941E5003024DB8EFD394274B
:104D23004003024DB8900182A3E0F5828E83C083D5
:104D3300C082900328E0D082D08375F008124A1F06
:104D4300E58224E3F582E5833401F583E49324E3E8
:104D5300FFE434FFFE7C007D0A1247AACFEDCFEFBC
:104D630075F00AA4FBAAF0900182E0FEA3E0F582AD
:104D73008E83C083C082900328E0D082D08375F0F5
:104D830008124A1FE58224E4F582E5833401F583A2
:104D9300E49324E3FFE434FFFE7C007D0A1247FF23
:104DA300EB2DFFEA3CFEEF2401FFE43E90001CF0F4
:104DB300A3EFF0800990001CE4F0A3740AF09000C4
:104DC3001CE0FAA3E0FB900327E075F002A424FDA6
:104DD300FFE5F034FFFE7C007D0A124798CDEBCD52
:104DE300CCEACC12479890001CEEF0A3EFF09001B0
:104DF30082E0FEA3E0F5828E83C083C08290032805
:104E0300E0FFD082D08375F008124A1FE58224E6C2
:104E1300F582E5833401F583E493FEB4010F741A3C
:104E23002FF582E43400F5837401F08078EEB40248
:104E330012900328E0241AF582E43400F583740306
:104E4300F08062900182E0FEA3E0F5828E83C0834E
:104E5300C082900328E0FFD082D08375F008124A05
:104E63001FE58224E6F582E5833401F583E493FEAE
:104E7300B4040F741A2FF582E43400F5837404F03C
:104E83008023EE900328B4080FE0241AF582E4345B
:104E930000F5837405F0800DE0241AF582E43400F4
:104EA300F5837402F0900328E0241AF582E43400B9
:104EB300F583E0FD7C0090001CE0FEA3E0FF1247B9
:104EC300FFCAECCACBEDCB900328E0241AF582E4A9
:104ED3003400F583E0FD7C0090001CE0FEA3E0FFBE
:104EE3001247FFCCEECCCDEFCDED2BFEEC3A900389
:104EF30025F0A3CEF090001CECF0A3EDF09001DDC3
:104F0300E0FD900325E0FAA3E0FB25E0FFED4F90E1
:104F130001DDF07807CEEACEEBCEA2E713CE13D8AD
:104F2300F89001DEF0900328E0FF241AF582E434C0
:104F330000F583E014F0741A2FF582E43400F5834E
:104F4300E07042900328E02418F582E43400F583EE
:104F5300C083C082E0FF900327E025E024FDFEC369
:104F6300EF9ED082D083F0801C900328E0FF244181
:104F7300F582E43402F583E0FE74182FF582E434FD
:104F830000F583EEF0900328E004F0E0C3940250B0
:104F930003024B2422E5232414F582E43403F5832E
:104FA300E0052322900311300703900314E475F006
:104FB30001124ACF024AAA2000E97F2ED2008018AC
:104FC300EF540F2490D43440D4FF30040BEF24BFAC
:104FD300B41A0050032461FFE52460021524052759
:104FE300E5277002052630070E900311E475F001E2
:104FF300124ACFEF024764027CBA7403D2078003DC
:10500300E4C207F523900311124AE6E4F524F526DA
:10501300F527E52460077F20124FDB80F57525FF18
:10502300C201C200C202C203C205C206C208124FB5
:10503300A7FF700D3007057F00124FECAF27AE2698
:1050430022B4255FC2D5C204124FA7FF24D0B40AED
:1050530000501A75F00A782430D50508B6FF01060A
:10506300C6A426F620D5047002D20380D924CFB477
:105073001A00EF5004C2E5D2040251EDD20180C6FA
:10508300D20080C0D20280BCD2D580BAD20580B40F
:105093007F20124FDB2002077401B5240040F11278
:1050A3004F98FF124FDB025015D208D2068095129B
:1050B3004F98FB124F98FA124F98F94A4B700679A2
:1050C300BE7A527BFF20022EE524602A7E008E8268
:1050D30075830012473760060EEE652570F0C2D562
:1050E300EBC0E0EAC0E0E9C0E0EE125234D0E0F9F0
:1050F300D0E0FAD0E0FB124AAAFF60AAEBC0E0EAD4
:10510300C0E0E9C0E0124FDBD0E02401F9D0E03485
:1051130000FAD0E0FBE5250460DCD525D980877B48
:10512300FF7A527930D202809C791080027908C2CA
:1051330006C2088008D2D5790A8004790AC2D5E567
:1051430025047002F525E4FAFDFEFF124F98FC7B5F
:1051530008200113124F98FD7B1030000A124F985C
:10516300FE124F98FF7B20EC3382D592D55013C3A8
:10517300E43000069FFFE49EFEE42001039DFDE46E
:105183009CFCE4CBF8C201EC700CCFCECDCCE82470
:10519300F8F870F38017C3EF33FFEE33FEED33FD02
:1051A300EC33FCEB33FB994002FB0FD8E9EB300106
:1051B30005F8D0E0C448B201C0E00AEC4D4E4F7888
:1051C300207B0070C2EAB5250040BCC0E012523615
:1051D300D0F0D0E0200104C4C0E0C4B201C0F0129A
:1051E3004FC4D0F0D5F0EB025015124A2B50B253F6
:1051F300512C5850834C507F4251304F51384451B9
:105203003849509843513E55512246512245512227
:105213004752DE5050872D508B2E50AE2B508F238C
:1052230050AC2052C72A504748000050A63F3F3F8A
:1052330000790AA2D5200314300509B91002040429
:10524300B9080104A2D52006025001042002689285
:1052530002B524005034C0E07F203003197F30A210
:105263000272067205500F12528DC202C206C205A7
:10527300C2087F30800F300503E9C0E0124FDB30F6
:105283000503D0E0F9D0E0B524CC3005177F30B961
:10529300100C124FDB7F583004077F788003B90866
:1052A30003124FDB3002057F2D024FDB7F202008E6
:1052B300F87F2B2006F322920280CF286E756C6C48
:1052C3002900D201124F983001F8C201782430D559
:1052D3000108F60250472D50434958124F982403B2
:1052E300B405004001E49052D993124FCC743A12A2
:1052F3004FCCD20375240402512C90032CEFF0D32E
:105303009D4004E0FF8003CFEDCFEFD39B4010908F
:10531300032CE0FFD39D40028008CFEDCF8003CF65
:10532300EBCF8F2790032CE0FFC39D50028003CF68
:10533300EDCFEFC39B501090032CE0FFC39D5002B1
:105343008008CFEDCF8003CFEBCF8F28C3E5279520
:1053530028F5297007F52AF52B02545390032CE006
:1053630065277042EDC39B401EEDFFEBFDEF9DFFF4
:10537300E49400FE7C007DA7124798AD291247AA4A
:105383008E2A8F2B025453EBC39DFFE49400FE7CC3
:10539300007DA7124798AD291247AAC374EA9FF567
:1053A3002B7403025450E5276D704E90032CE0FFDD
:1053B300EBD39F401FEB9FFFE49400FE7C007DA78F
:1053C300124798AD291247AAEF244EF52BEE34016C
:1053D300F52A807C90032CE0FFEBFDC3EF9DFFE4F7
:1053E3009400FE7C007DA7124798AD291247AAC3FB
:1053F300744E9FF52B74018054CFEBCFE5276F706C
:105403004F90032CE0FFD39D401FEF9DFFE49400DA
:10541300FE7C007DA7124798AD291247AAEF249C72
:10542300F52BEE3402F52A8027CFEDCF90032CE045
:10543300FDC3EF9DFFE49400FE7C007DA712479817
:10544300AD291247AAC3749C9FF52B74029EF52ABB
:1054530090032FE0FEA3E0252BF52BEE352AF52A4A
:10546300C3E52B94EAE52A9403400C7416252BF527
:105473002B74FC352AF52AC3E52B94A7E52A94005F
:105483005005E4F52C8043C3E52B944EE52A9401A3
:105493005005752C018033C3E52B94F5E52A94015F
:1054A3005005752C028023C3E52B949CE52A9402B6
:1054B3005005752C038013C3E52B9443E52A94030D
:1054C3005005752C048003752C05E52C75F0A7A4F5
:1054D300FEC3E52B9EF52DC3E5279529F528E52C7D
:1054E30030E00DAF297E00AD2D7C0012479880136C
:1054F300C374A7952DFDE49400FCAF297E001247E9
:10550300987C007DA71247AAC3E5279FF529E52CC0
:10551300701F900331E0FBA3E0FAA3E0F9E5271243
:105523004764900334E0FBA3E0FAA3E0F9E52980A4
:1055330022E52CB40130900331E0FBA3E0FAA3E0B1
:10554300F9E529124764900334E0FBA3E0FAA3E0F2
:10555300F9E527124764900337E0FBA3E0FAA3E0E1
:10556300F9E528025630E52CB40230900331E0FB14
:10557300A3E0FAA3E0F9E528124764900334E0FBC3
:10558300A3E0FAA3E0F9E527124764900337E0FBB1
:10559300A3E0FAA3E0F9E529025630E52CB4032F82
:1055A300900331E0FBA3E0FAA3E0F9E52812476496
:1055B300900334E0FBA3E0FAA3E0F9E52912476482
:1055C300900337E0FBA3E0FAA3E0F9E527805EE56B
:1055D3002C900331B4042CE0FBA3E0FAA3E0F9E53B
:1055E30029124764900334E0FBA3E0FAA3E0F9E552
:1055F30028124764900337E0FBA3E0FAA3E0F9E540
:1056030027802AE0FBA3E0FAA3E0F9E52712476429
:10561300900334E0FBA3E0FAA3E0F9E52812476422
:10562300900337E0FBA3E0FAA3E0F9E5291247640E
:1056330022013000012E00C110013100012F00C1F1
:1056430011410365004103660041036200410363A6
:10565300004103640041033A00C10FC10BC10CC1F7
:105663000DC10AC10EC10944027C000000000114EF
:10567300025401E8080008000800080008000800B8
:105683000FFF0FFF0000000044023D080008004226
:10569300024100004101E301021000000215000A6B
:1056A30002122710410293FF4101FC000217000080
:1056B300021B0000021900004401E4000000002066
:1056C3003032000000000000000000000000000075
:1056D30000000000000000000000000000000000C7
:1056E30000000000000000000000000000000000B7
:1056F3000000420182F20041004D00602001BA0027
:105703000000000000000000000000000000000096
:105713000000000000000000000000000000005036
:105723000070000000000000000000000000000006
:10573300000041003B004101800041018100410123
:10574300B900410056005600590100000000000056
:105753000000000000000000000000000000004501
:10576300003F020000000047004403100100000056
:105773000042005404004301DC05000041005300D3
:105783004101840041004E00410185004101860032
:1057930041006F284100570F41004C004401DF00D6
:1057A30000000041003E00420050000042003C0067
:1057B300004101DB004101DA0041004B0041018758
:1057C300FF41004F004100580041005200440000D7
:1057D3000000000044000400000000440008000032
:1057E300000042000CFFFF42000E000042001000C8
:1057F30000420012000042001400004200160000A4
:10580300420018000042001A000042001C00004140
:10581300001E0041001F014400200000000044005E
:1058230024000000004102F500420306DC005002A0
:10583300F60000000000000000000000000000006F
:10584300005002E50000000000000000000000001E
:10585300000000005002A50000000000000000004E
:1058630000000000000000603002B50000000000EE
:105873000000000000000000000000000000000025
:105883000000000000000000000000000000000015
:10589300000000000000000000000044029400002B
:1058A3000000440298FFFF000142029C00004102F5
:1058B3009E0041029F004102A0004102A10041025B
:1058C300A2FF4102A3004102A40000E4FD75F0021F
:1058D300EDA42400F582E5F034DAF583E493FA7459
:1058E3000193FBED25E0FFE433FE74F82FF582749A
:1058F300013EF583EAF0A3EBF075F002EDA4240476
:10590300F582E5F034DAF583E493FA740193FBED61
:1059130025E0FFE433FE74F42FF58274013EF58332
:10592300EAF0A3EBF075F002EDA42408F582E5F0AC
:1059330034DAF583E493FA740193FBED25E0FFE495
:1059430033FE74E82FF58274013EF583EAF0A3EB8E
:10595300F074F82FF58274013EF583E0FEA3E0C3F3
:1059630094FFEE940F4015ED25E0FFE433FE74F849
:105973002FF58274013EF583E4F0A3F0ED25E0FFFB
:10598300E433FE74F42FF58274013EF583E0FEA345
:10599300E0FF4E6009D3EF94FFEE940F4018ED251E
:1059A300E0FFE433FE74F42FF58274013EF5837453
:1059B3000FF0A374FFF0ED25E0FFE433FE74F42F42
:1059C300F58274013EF583E0FAA3E0FB74F82FF54A
:1059D3008274013EF583E0FEA3E0C39BEE9A40266A
:1059E300ED25E0FFE433FE74F82FF58274013EF5F4
:1059F30083E4F0A3F074F42FF58274013EF583740D
:105A03000FF0A374FFF0ED25E0FFE433FE74E82FFD
:105A1300F58274013EF583E0FEA3E0FF4E6009C307
:105A2300EF94FFEE940F4017ED25E0FFE433FE748F
:105A3300E82FF58274013EF5837408F0A3E4F0EDDA
:105A430025E0FFE433FE74F82FF58274013EF583FD
:105A5300E0FAA3E0FB74E82FF58274013EF583E0DE
:105A6300FEA3E0D39BEE9A402AED25E0FFE433FE4C
:105A730074F42FF58274013EF583E0FAA3E0FB741E
:105A8300E82FF58274013EF583E0FEA3E0C39BEEAD
:105A93009A4036ED25E0FFE433FE74F82FF5827467
:105AA300013EF583E4F0A3F074E82FF58274013E20
:105AB300F5837408F0A3E4F074F42FF58274013EC7
:105AC300F583740FF0A374FFF0ED25E0FFE433FEDC
:105AD30074F82FF58274013EF583E0FAA3E0FB74BA
