:080000000263680266EC323273
:07000B00026B6E01000117FA
:100013000200067B017A0679009002C77401F07F23
:06002300007ED802571315
:0D002B0002000775A15575A1AA43B110226E
:03003B0002674910
:10004300022E54EF4E601505A105A105A105A105DA
:0D005300A105A105A1EF1F70EA1E80E722A4
:100063000265C3EF6013E4900280F0A3F090027E78
:10007300F0A3F090027C020507900111E0FEA3E0DB
:1000830024D5F582EE3401F583E493FD540175F034
:1000930002A424FFFEE5F034FF9002D2F0A3CEF0D9
:1000A300EDC313540175F002A424FFFEE5F034FF01
:1000B300A3F0A3CEF0900111E0FEA3E024D5F582D6
:1000C300EE3401F583E4931313543F20E00302025B
:1000D30070900153E0FEA3E0FF900197E0FCA3E0E2
:1000E300FDC39FEC9E9002D2E0FE503CA3E0FFEEE6
:1000F300C0E0EFC0E0900153E0FEA3E0FFC3ED9F3B
:10010300FFEC9EFE3395E0FDFCE4FB7A10F9F81258
:1001130041D8ECC0E0EDC0E0EEC0E0EFC0E09001FC
:1001230053E0FEA3E0FF8049A3E0FFEEC0E0EFC091
:10013300E0900153E0FEA3E0FF900197E0FCA3E011
:10014300C39FFFEC9EFE3395E0FDFCE4FB7A10F9C0
:10015300F81241D8ECC0E0EDC0E0EEC0E0EFC0E043
:10016300900153E0FEA3E0FFC374FF9FFF740F9E53
:10017300FECBEFCBCAEECAE4F9F8D0E0FFD0E0FE45
:10018300D0E0FDD0E0FC12697ACDEFCDCCEECCD03F
:10019300E0FFD0E0FE1240A39002D2EEF0A3EFF016
:1001A300900155E0FEA3E0FF900199E0FCA3E0FD80
:1001B300C39FEC9E9002D4E0FE503CA3E0FFEEC050
:1001C300E0EFC0E0900155E0FEA3E0FFC3ED9FFF29
:1001D300EC9EFE3395E0FDFCE4FB7A10F9F8124146
:1001E300D8ECC0E0EDC0E0EEC0E0EFC0E090015518
:1001F300E0FEA3E0FF8049A3E0FFEEC0E0EFC0E034
:10020300900155E0FEA3E0FF900199E0FCA3E0C359
:100213009FFFEC9EFE3395E0FDFCE4FB7A10F9F8BA
:100223001241D8ECC0E0EDC0E0EEC0E0EFC0E090DA
:100233000155E0FEA3E0FFC374FF9FFF740F9EFE12
:10024300CBEFCBCAEECAE4F9F8D0E0FFD0E0FED0A2
:10025300E0FDD0E0FC12697ACDEFCDCCEECCD0E05E
:10026300FFD0E0FE1240A39002D402041790015382
:10027300E0FEA3E0FF900197E0FCA3E0FDC39FEC49
:100283009E9002D4E0FE503CA3E0FFEEC0E0EFC03E
:10029300E0900153E0FEA3E0FFC3ED9FFFEC9EFE61
:1002A3003395E0FDFCE4FB7A10F9F81241D8ECC079
:1002B300E0EDC0E0EEC0E0EFC0E0900153E0FEA34C
:1002C300E0FF8049A3E0FFEEC0E0EFC0E090015300
:1002D300E0FEA3E0FF900197E0FCA3E0C39FFFECE7
:1002E3009EFE3395E0FDFCE4FB7A10F9F81241D849
:1002F300ECC0E0EDC0E0EEC0E0EFC0E0900153E001
:10030300FEA3E0FFC374FF9FFF740F9EFECBEFCBF2
:10031300CAEECAE4F9F8D0E0FFD0E0FED0E0FDD0A9
:10032300E0FC12697ACDEFCDCCEECCD0E0FFD0E08B
:10033300FE1240A39002D4EEF0A3EFF0900155E03B
:10034300FEA3E0FF900199E0FCA3E0FDC39FEC9EB8
:100353009002D2E0FE5043A3E0FFEEC0E0EFC0E026
:10036300900155E0FEA3E0FFC3ED9FFFEC9EFEC3AB
:10037300E49FFFE49EFE3395E0FDFCE4FB7A10F975
:10038300F81241D8ECC0E0EDC0E0EEC0E0EFC0E011
:10039300900155E0FEA3E0FF8050A3E0FFEEC0E034
:1003A300EFC0E0900155E0FEA3E0FF900199E0FC6F
:1003B300A3E0C39FFFEC9EFEC3E49FFFE49EFE33D6
:1003C30095E0FDFCE4FB7A10F9F81241D8ECC0E0AB
:1003D300EDC0E0EEC0E0EFC0E0900155E0FEA3E029
:1003E300FFC374FF9FFF740F9EFECBEFCBCAEECA11
:1003F300E4F9F8D0E0FFD0E0FED0E0FDD0E0FC125D
:10040300697ACDEFCDCCEECCD0E0FFD0E0FE124048
:10041300A39002D2EEF0A3EFF09002D4E0FEA3E0AB
:10042300FFD39400EE648094804002800F9002D446
:10043300E0FEA3E0FFC3E49FFFE49EFE9002D2E050
:10044300FCA3E0FDD39400EC648094804002800F11
:100453009002D2E0FCA3E0FDC3E49DFDE49CFCD349
:10046300ED9FEE6480F8EC64809840259002D2E022
:10047300FEA3E0FFD39400EE6480948040028034B6
:100483009002D2E0FEA3E0FFC3E49FFFE49EFE8060
:10049300239002D4E0FEA3E0FFD39400EE648094A3
:1004A300804002800F9002D4E0FEA3E0FFC3E49FEC
:1004B300FFE49EFECAEECACBEFCB900111E0FEA390
:1004C300E024DCF582EE3401F583E493FF7E007CC7
:1004D300007D151240A3C3EB9FFFEA9EFE9002D658
:1004E300F0A3EFF0D39400EE64809480501AE4906C
:1004F3000284F0A3F0900282F0A3F0900280F0A3B4
:10050300F090027EF0A3F022900111E0FEA3E0FF41
:1005130024D4F582EE3401F583E493540F24FE7062
:1005230003020710147003020A45147003020F3B01
:100533002403600302148390027CE07002A3E06052
:100543000302071AEF24DEF582EE3401F583E49308
:10055300701D900111E0FEA3E024DFF582EE34016B
:10056300F583E493700990027CF0A3F002069C905B
:100573000111E0FEA3E0FF24DEF582EE3401F583F2
:10058300E493FBEF24DFF582EE3401F583E493C3B8
:100593009BFD3395E0FC78039002D6E0FEA3E0CE0A
:1005A300A2E713CE13D8F8FF1240A3EEFD3395E074
:1005B300FCEB25E0FFE433FEED2FFFEC3E9002D68B
:1005C300F0A3EFF0900282E0FEA3E0FFD39400EEED
:1005D300648094804002800F900282E0FEA3E0FFDB
:1005E300C3E49FFFE49EFE9002D6E0FCA3E0FDD3AC
:1005F3009FEE6480F8EC648098500A900282ECF0DD
:10060300A3EDF0806B900111E0FEA3E024DDF58201
:10061300EE3401F583E4932401FDE433FC9002827C
:10062300E0FEA3E0FFC39002D7E09FFF9002D6E075
:100633009EFE12410AEEF0A3EFF04E70109002837B
:10064300E004F0701C900282E004F080149002D663
:10065300E0FEA3E0FF900283E02FF0900282E03EF1
:10066300F0900282E0FFA3E09002D6CFF0A3EFF078
:100673009002D6E0FEA3E0FFC374649FFFE49EFEF6
:1006830090027CF0A3EFF0D39400EE64809480504A
:100693000890027CE4F0A304F09002D2E0FEA3E011
:1006A300FFA3E0FCA3E0FDD39FEE6480F8EC64803D
:1006B300984026E49FFFE49EFED3ED9FEE6480F80E
:1006C300EC648098900111E0FE4007A3E024D70278
:1006D3000A36A3E024D9020A369002D2E0FEA3E050
:1006E300FFC3E49FFFE49EFED39002D5E09FEE6438
:1006F30080F89002D4E0648098900111E0FE4006F7
:10070300A3E024DA8004A3E024D8020A3690027C12
:10071300E07002A3E0600F90027DE024FFF09002FE
:100723007CE034FFF022900111E0FEA3E0FF24DE21
:10073300F582EE3401F583E4937017EF24DFF5823D
:10074300EE3401F583E493700990027CF0A3F00288
:10075300087F900111E0FEA3E0FF24DEF582EE3472
:1007630001F583E493FBEF24DFF582EE3401F58397
:10077300E493C39BFD3395E0FC78039002D6E0FE3F
:10078300A3E0CEA2E713CE13D8F8FF1240A3EEFDE9
:100793003395E0FCEB25E0FFE433FEED2FFFEC3E69
:1007A3009002D6F0A3EFF0900282E0FEA3E0FFD325
:1007B3009400EE648094804002800F900282E0FEF9
:1007C300A3E0FFC3E49FFFE49EFE9002D6E0FCA3F8
:1007D300E0FDD39FEE6480F8EC648098500A9002A9
:1007E30082ECF0A3EDF0806B900111E0FEA3E02416
:1007F300DDF582EE3401F583E4932401FDE433FC5B
:10080300900282E0FEA3E0FFC39002D7E09FFF9037
:1008130002D6E09EFE12410AEEF0A3EFF04E7010F6
:10082300900283E004F0701C900282E004F08014D4
:100833009002D6E0FEA3E0FF900283E02FF0900247
:1008430082E03EF0900282E0FFA3E09002D6CFF078
:10085300A3EFF09002D6E0FEA3E0FFC374649FFF12
:10086300E49EFE90027CF0A3EFF0D39400EE64804C
:100873009480500890027CE4F0A304F09002D2E04C
:10088300FEA3E0FF7C007D031240A3CAEECACBEFB8
:10089300CBA3E0FEA3E0FF7D071240A3D3EF9BEAC7
:1008A3006480F8EE648098403C9002D2E0FEA3E0BE
:1008B300FFE49FFFE49EFE7D031240A3CAEECACB72
:1008C300EFCBA3E0FEA3E0FF7D071240A3D3EF9B92
:1008D300EA6480F8EE648098400B900111E0FEA377
:1008E300E024D780689002D2E0FEA3E0FF7C007D85
:1008F300031240A3CAEECACBEFCBA3E0FEA3E0FFF3
:100903007D071240A3C3EF9BEA6480F8EE648098EE
:10091300504A9002D2E0FEA3E0FFC3E49FFFE49EAF
:10092300FE7D031240A3CAEECACBEFCBA3E0FEA326
:10093300E0FF7D071240A3C3EF9BEA6480F8EE64F7
:1009430080985018900111E0FEA3E024D8F582EEC0
:100953003401F583E493FD7FFF125EDA9002D2E067
:10096300FEA3E0FF7C007D071240A3CAEECACBEFD3
:10097300CBA3E0FEA3E0FF7D031240A3D3EF9BEAEA
:100983006480F8EE648098403C9002D2E0FEA3E0DD
:10099300FFE49FFFE49EFE7D071240A3CAEECACB8D
:1009A300EFCBA3E0FEA3E0FF7D031240A3C3EF9BC5
:1009B300EA6480F8EE648098500B900111E0FEA386
:1009C300E024D9806E9002D2E0FEA3E0FF7C007D9C
:1009D300071240A3CAEECACBEFCBA3E0FEA3E0FF0E
:1009E3007D031240A3C3EF9BEA6480F8EE64809812
:1009F30040030214839002D2E0FEA3E0FFC3E49F0E
:100A0300FFE49EFE7D071240A3CAEECACBEFCBA341
:100A1300E0FEA3E0FF7D031240A3D3EF9BEA6480D3
:100A2300F8EE6480985003021483900111E0FEA352
:100A3300E024DAF582EE3401F583E493FD7FFF02CF
:100A43005EDA900111E0FEA3E024DFF582EE3401CB
:100A5300F583E493FB3395E0FA78039002D2E0FE4A
:100A6300A3E0CEA2E713CE13D8F8FFCDEBCDCCEAAB
:100A7300CC1240A37804EFCEA2E713CE13D8F8FF2D
:100A83009002D2EEF0A3EFF07803A3E0FEA3E0CE52
:100A9300A2E713CE13D8F8FFCDEBCDCCEACC1240AE
:100AA300A37804EFCEA2E713CE13D8F8FF9002D4B5
:100AB300EEF0A3EFF0900282E0FEA3E0FFD39400F8
:100AC300EE648094804002800F900282E0FEA3E0F7
:100AD300FFC3E49FFFE49EFE9002D2E0FCA3E0FD8F
:100AE300D39400EC648094804002800F9002D2E0A3
:100AF300FCA3E0FDC3E49DFDE49CFCD3ED9FEE6409
:100B030080F8EC6480985002802E900282E0FEA36D
:100B1300E0FFD39400EE648094804002800F900243
:100B230082E0FEA3E0FFC3E49FFFE49EFED3EF94C5
:100B330020EE6480948340129002D2E0FFA3E09001
:100B43000282CFF0A3EFF0020C69900282E0FEA3D1
:100B5300E0FFD39400EE6480948040028007C3E4F6
:100B63009FFFE49EFECCEECCCDEFCD900111E0FAD9
:100B7300A3E0FB24DEF582EA3401F583E49375F008
:100B83000AA4FFD3ED9FE5F06480F8EC64809840FD
:100B93005DEB24DDF582EA3401F583E4932401FD62
:100BA300E433FC900282E0FEA3E0FF9002D2E0FA7D
:100BB300A3E0FBC39FFFEA9EFE12410A9002D6EE1A
:100BC300F0A3EFF04E6003020C55C3EA64809480F7
:100BD30050077EFF7FFF020C5DD3EB9400EA648035
:100BE30094807E0040047F0180027F00806C90012E
:100BF30011E0FEA3E024DDF582EE3401F583E493F6
:100C030075F00AA42401FDE435F0FC900282E0FEB5
:100C1300A3E0FF9002D2E0FAA3E0FBC39FFFEA9EAA
:100C2300FE12410A9002D6EEF0A3EFF04E7023C3FA
:100C3300EA6480948050067EFF7FFF8013D3EB9499
:100C430000EA648094807E0040047F0180027F007C
:100C530080089002D6E0FEA3E0FF900283E02FF02D
:100C6300900282E03EF0900284E0FEA3E0FFD39482
:100C730000EE648094804002800F900284E0FEA323
:100C8300E0FFC3E49FFFE49EFE9002D4E0FCA3E0F8
:100C9300FDD39400EC648094804002800F9002D4D2
:100CA300E0FCA3E0FDC3E49DFDE49CFCD3ED9FEEDB
:100CB3006480F8EC6480985002802E900284E0FEF9
:100CC300A3E0FFD39400EE648094804002800F90F1
:100CD3000284E0FEA3E0FFC3E49FFFE49EFED3EFA4
:100CE3009420EE6480948340129002D4E0FFA3E04A
:100CF300900284CFF0A3EFF0020E15900284E0FE81
:100D0300A3E0FFD39400EE6480948040028007C385
:100D1300E49FFFE49EFECCEECCCDEFCD900111E03D
:100D2300FAA3E0FB24DEF582EA3401F583E493754C
:100D3300F00AA4FFD3ED9FE5F06480F8EC6480989B
:100D4300405AEB24DDF582EA3401F583E493240170
:100D5300FDE433FC900284E0FEA3E0FF9002D4E0C4
:100D6300FAA3E0FBC39FFFEA9EFE12410AA3EEF043
:100D7300A3EFF04E6003020E01C3EA648094805037
:100D8300067EFF7FFF807FD3EB9400EA648094802C
:100D93007E0040047F0180027F00806A900111E0A1
:100DA300FEA3E024DDF582EE3401F583E49375F0D0
:100DB3000AA42401FDE435F0FC900284E0FEA3E0E4
:100DC300FF9002D4E0FAA3E0FBC39FFFEA9EFE126A
:100DD300410AA3EEF0A3EFF04E7023C3EA648094BC
:100DE3008050067EFF7FFF8013D3EB9400EA64807C
:100DF30094807E0040047F0180027F00800890027F
:100E0300D6E0FEA3E0FF900285E02FF0900284E09D
:100E13003EF0900282E0FEA3E0FF90027FE02FF01D
:100E230090027EE03EF0900284E0FEA3E0FF900299
:100E330081E02FF0900280E03EF090027EE0FEA37E
:100E4300E0FFD39440EE64809460400280047EE02F
:100E53007F40C3EF94C0EE6480949F501990027E4C
:100E6300E0FEA3E0FF9440EE648094604002800AB9
:100E73007EE07F4080047E1F7FC090027EEEF0A361
:100E8300EFF0A3E0FEA3E0FFD39440EE6480946010
:100E9300400280047EE07F40C3EF94C0EE64809400
:100EA3009F5019900280E0FEA3E0FF9440EE64801F
:100EB30094604002800A7EE07F4080047E1F7FC0F2
:100EC300900280EEF0A3EFF090027EE0FCA3E0FD41
:100ED3007806CEECCECEA2E713CE13D8F89002F16B
:100EE300F07806900280E0FEA3E0CEA2E713CE13D3
:100EF300D8F8F404F99002F2F09002F1E0FF339590
:100F0300E0FE7806EFC333CE33CED8F9FFC3ED9FAF
:100F1300FFEC9E90027EF0A3EFF0E9FF3395E0FE35
:100F23007806EFC333CE33CED8F9FF900281E02F9A
:100F3300F0900280E03EF02290027EE0FEA3E0FF0C
:100F43009002D2E0FCA3E0FDC39FFFEC9EFE78027B
:100F5300EFCEA2E713CE13D8F8FF9002D6EEF0A39C
:100F6300EFF04E7023C3EC6480948050067EFF7FC5
:100F7300FF801DD3ED9400EC648094807E004004D8
:100F83007F0180027F0080089002D6E0FEA3E0FF8D
:100F930090027FE02FF090027EE03EF0900280E02E
:100FA300FEA3E0FF9002D4E0FCA3E0FDC39FFFECAF
:100FB3009EFE7802EFCEA2E713CE13D8F8FF90027D
:100FC300D6EEF0A3EFF04E7023C3EC648094805010
:100FD300067EFF7FFF801DD3ED9400EC6480948038
:100FE3007E0040047F0180027F0080089002D6E0EB
:100FF300FEA3E0FF900281E02FF0900280E03EF03C
:101003009002D2E0FAA3E0FBD39400EA64809480D8
:10101300900111E0FE4006A3E024DA8004A3E0245B
:10102300D9F582EE3401F583E493FF900282E4F074
:10103300A3EFF0D3ED9400EC64809480900111E071
:10104300FE4006A3E024D78004A3E024D8F582EE73
:101053003401F583E493FF900284E4F0A3EFF0906E
:101063000282E0FEA3E0FFC3941EEE6480948040FE
:1010730017D3EF9427EE64809480500CEF25E0FFA4
:10108300EE33FEEF24C68027900282E0FEA3E0FF4A
:10109300C39459EE648094804022D3EF9462EE644B
:1010A3008094805017EF25E0FFEE33FEEF244FFFCF
:1010B300EE34FF900282F0A3EFF08007E490028207
:1010C300F0A3F0900284E0FEA3E0FFC3941EEE645D
:1010D3008094804017D3EF9427EE64809480500C63
:1010E300EF25E0FFEE33FEEF24C68027900284E075
:1010F300FEA3E0FFC39459EE648094804022D3EFB3
:101103009462EE648094805017EF25E0FFEE33FE87
:10111300EF244FFFEE34FF900284F0A3EFF080073B
:10112300E4900284F0A3F0D3EB9401EA648094701A
:10113300400A9002D2E0FEA3E0FF80047EF07F012C
:10114300C3EF94FFEE6480948F50199002D2E0FEB7
:10115300A3E0FF9401EE648094704002800A7EF065
:101163007F0180047E0F7FFF9002D2EEF0A3EFF0A9
:10117300D3ED9401EC648094704008A3E0FEA3E0F7
:10118300FF80047EF07F01C3EF94FFEE6480948FB1
:1011930050199002D4E0FEA3E0FF9401EE64809422
:1011A300704002800A7EF07F0180047E0F7FFF90F3
:1011B30002D4EEF0A3EFF0900282E0FEA3E0FFCBB7
:1011C300EFCBCAEECAEA3395E0F9F890027EE0FE6F
:1011D300A3E0FFEE3395E0FDFC1241D8C8ECC8C98B
:1011E300EDC9CAEECACBEFCB900111E0FEA3E02418
:1011F300DFF582EE3401F583E493FFE4FCFDFE1298
:1012030041D8E47B7DFAF9F812697A900282EEF014
:10121300A3EFF0A3E0FEA3E0FFEE3395E0FDFC12A5
:1012230042F5C8ECC8C9EDC9CAEECACBEFCB9002F0
:1012330080E0FEA3E0FFEE3395E0FDFC1241D8C849
:10124300ECC8C9EDC9CAEECACBEFCB900111E0FEE1
:10125300A3E024DFF582EE3401F583E493FFE4FC9D
:10126300FDFE1241D8E47B7DFAF9F812697A900207
:1012730084EEF0A3EFF0900111E0FEA3E024DDF58E
:1012830082EE3401F583E493FFE4FCFDFE7BFF7AF9
:101293007FF9F81241D8E47B32FAF9F812697A90AF
:1012A30002D2EEF0A3EFF0900111E0FEA3E024DE02
:1012B300F582EE3401F583E493FFE4FCFDFE7BFF4E
:1012C3007A7FF9F81241D8E47B32FAF9F812697A95
:1012D3009002D4EEF0A3EFF0D3900283E094009059
:1012E3000282E06480948040479002D2E0FEA3E053
:1012F300FFCBEFCBCAEECAEA3395E0F9F89002824E
:10130300E0FEA3E0FFEE3395E0FDFCEB2FFFEA3EAA
:10131300FEE93DFDE83CFCE47BFF7A7FF9F8C3126C
:101323004303500C9002D2747FF0A374FFF08055F6
:10133300C3900282E06480948050369002D2E0FE33
:10134300A3E0FFCBEFCBCAEECAEA3395E0F9F890FE
:101353000282E0FEA3E0FFEE3395E0FDFCEB2FEA13
:101363003EE93DE83C335009E49002D2F0A3F0801B
:1013730014900282E0FEA3E0FF9002D3E02FF090EE
:1013830002D2E03EF0D3900285E09400900284E024
:101393006480948040479002D4E0FEA3E0FFCBEF4B
:1013A300CBCAEECAEA3395E0F9F8900284E0FEA3D3
:1013B300E0FFEE3395E0FDFCEB2FFFEA3EFEE93D57
:1013C300FDE83CFCE47BFF7A7FF9F8C3124303504A
:1013D3000C9002D4747FF0A374FFF08056C3900284
:1013E30084E06480948050379002D4E0FEA3E0FF51
:1013F300CBEFCBCAEECAEA3395E0F9F8900284E06A
:10140300FEA3E0FFEE3395E0FDFCEB2FFFEA3EE9A0
:101413003DE83C335009E49002D4F0A3F0801490EB
:101423000284E0FEA3E0FF9002D5E02FF09002D407
:10143300E03EF09002D2E0FCA3E0FDCFEDCF9002BE
:10144300F7F0ECFFEFA3F09002D4E0FCA3E0FDCFB4
:10145300EDCF9002F9F0ECFFEFA3F09002F67411D8
:10146300F090027CE07002A3E07F0070027F017EB7
:101473000090027CEEF0A3EFF025E0149002F1F06F
:1014830022E49002D2F0A374FFF0E4A3F0A3F0EF00
:10149300603A90026CE0FEA3E0F5828E8374F493CD
:1014A300D39400500F7E007F107D007B017A027978
:1014B3005C1243C690026CE0FEA3E0F5828E837457
:1014C300F493D394015005E4900206F09001EDA348
:1014D300A3A3E0FF900207E0FEC3EF9EC394145062
:1014E30003022178E02414F0900206E0540FFFBFBA
:1014F300021A7403F09001EDA3A3E0FFA3E09002AE
:1015030004CFF0A3EFF090020874FFF0900206E01E
:10151300540FFFBF03349001EDA3A3E0FEA3E0FF4C
:10152300900204E0FCA3E0FDC3EF9DFFEE9CFE9060
:10153300026CE0FCA3E0F5828C83C374FB939F747D
:10154300FA939E5005E4900206F0900206E0540FD1
:10155300600302166B04F09001EDA3A3E0FFA3E088
:10156300900204CFF0A3EFF0E4900208F090026C35
:10157300E0FEA3E0F5828E8374F693FF7009900278
:101583000A74C8F002166BEFD39404501F90026CD8
:10159300E0FEA3E0F5828E8374F6931475F008A43D
:1015A300FD74F5932D90020AF002166B90026CE025
:1015B300FEA3E0FFF5828E8374F693B4053C90029C
:1015C3000A7464F0EF2490FFE43EFECAEECAC9EF4A
:1015D300C97BFFEBC0E0EAC0E0E9C0E0C8743CC8E7
:1015E300CC7402CCCD7401CDD0E0F9D0E0FAD0E0D8
:1015F300FB7E007F1012401C806E90026CE0FEA305
:10160300E0F5828E8374F693FDB4060A90020AE035
:1016130004541FF08052EDB4072190020AE024081D
:10162300F0E0FFC394274004E4F0803CEFC3942030
:10163300403690020AE024E1F0802D90026CE0FE37
:10164300A3E0F5828E8374F693B4081C126852AD3E
:101653008AEF6DFF7C007D2012410A8D1890020AEB
:10166300E0651860E7E518F0900206E0540F6401A6
:1016730070459001EDA3A3E0FEA3E0FF900204E018
:10168300FCA3E0FDC3EF9DFDEE9CFC90026CE0FA31
:10169300A3E0F5828A83C374F9939D74F8939C50F5
:1016A3001690020AE064C8600E900204EEF0A3EF05
:1016B300F0900208E004F090020AE0FFC394205087
:1016C30034EF75F010A42414F9747035F0FA7BFF2D
:1016D300EBC0E0EAC0E0E9C0E0C8743CC8CC7402E7
:1016E300CCCD7401CDD0E0F9D0E0FAD0E0FB7E00A0
:1016F3007F1012401C90026CE0FEA3E0FFCAEECA0A
:10170300C9EFC97BFFEBC0E0EAC0E0E9C0E0C87401
:101713000CC8CC7402CCCD7401CDD0E0F9D0E0FA82
:10172300D0E0FB7E007F3012401CE4F51790026C82
:10173300E0FEA3E0F5828E8374F793700302187FB3
:10174300E51775F003A4240CF582E43402F583E075
:10175300FFE51775F003A4240DF582E43402F58345
:10176300E0FDE51775F003A4240EF582E43402F5D9
:1017730083E0C0E09002DF7401F0A37402F0A3746D
:10178300D6F0A37401F0A37402F0A374D8F0A37489
:1017930001F0A37402F0A374DAF0D0E0FB12555603
:1017A30090026CE0FEA3E0F5828E8374F793FFCB87
:1017B300EFCBE4FAF9F89001EDE0FCA3E0FDA3E040
:1017C300FEA3E0FF124263E47BEA7A03F9F81242D4
:1017D30063CCE8CCCDE9CDCEEACECFEBCF9002D728
:1017E300E02FF09002D6E03EF0C3A3E094EA90022B
:1017F300D6E09403400CA3E02416F09002D6E03424
:10180300FCF0E51775F003A4FFAEF0240CF97402A5
:101813003EFA7B01EBC0E0EAC0E0E9C0E0740D2FC3
:10182300F974023EFAEBC0E0EAC0E0E9C0E0740EEE
:101833002FF974023EFA9002E8EBF0A3EAF0A3E971
:10184300F0D0E0F9D0E0FAD0E09002E5F0A3EAF0BE
:10185300A3E9F0D0E0F9D0E0FAD0E09002E2F0A3FF
:10186300EAF0A3E9F09002D6E0FEA3E0FFA3E0FCD8
:10187300A3E0FDA3E0FAA3E0FB12500190020AE00B
:1018830064C86003021AE390026CE0FEA3E0F582F1
:101893008E8374F893FE74F993FF4E7003021AE378
:1018A300D3EF94E8EE9403400280047E037FE87C48
:1018B300037DE81240B5CAEECACBEFCB9001EDA38E
:1018C300A3E0FEA3E0FF900204E0FCA3E0FDC3EF6E
:1018D3009DFFEE9CFECDEBCDCCEACC1240B57C0354
:1018E3007DEA1240B59002DAECF0A3EDF09002DA53
:1018F300E0FEA3E0FFC394F5EE9401402B74E99F4F
:10190300F074039E9002DAF090026CE0FEA3E0F51F
:10191300828E8374FD93FF9002D4E4F0A3EFF090E2
:101923000206E04480F0802D90026CE0FEA3E0F517
:10193300828E8374FC93FF9002D4E4F0A3EFF090C3
:101943000206E0B4810FE517B40F037402F0E490CC
:1019530002DAF0A3F0900206E0540F64016007E49A
:101963009002DAF0A3F09002D4E07002A3E0705D7D
:10197300F51875F003E517A42518F582E435F0F59D
:1019830083E582240CF582E5833402F583E0FF7E50
:10199300009002DAE0FCA3E0FD124399E47BF47AC1
:1019A30001F9F812426375F003E517A42518F582CF
:1019B300E435F0F583E582240CF582E5833402F502
:1019C30083EFF00518E518B403A8021ADA9002D4DD
:1019D300E07004A3E064016003021A679002DAE096
:1019E300FEA3E0FF7C007DFF124399E47BF47A01C0
:1019F300F9F812426374942FF582746E3EF583E412
:101A030093FF9002DAE4F0A3EFF0E4F51875F00326
:101A1300E517A42518F582E435F0F583E582240C57
:101A2300F582E5833402F583E0FF7E009002DAE07D
:101A3300FCA3E0FD1240A37C007DFF1240B575F0CE
:101A430003E517A42518F582E435F0F583E5822430
:101A53000CF582E5833402F583EFF00518E518B43D
:101A630003AB80739002DAE0FEA3E0249FF5827457
:101A73006C3EF583E493FF9002DAE4F0A3EFF0E425
:101A8300F51875F003E517A42518F582E435F0F58C
:101A930083E582240CF582E5833402F583E0FF7E3F
:101AA300009002DAE0FCA3E0FD1240A37C007DFF7E
:101AB3001240B575F003E517A42518F582E435F057
:101AC300F583E582240CF582E5833402F583EFF098
:101AD3000518E518B403AB9002D27401F0021CC3DD
:101AE30090020AE064C87003021CC3743C2517F516
:101AF30082E43402F583E0FF900208E0FEEF6E60BB
:101B030003021C019002D204F090026CE0FEA3E0F9
:101B1300F5828E8374FC93FFC3741F9FFFE49400CC
:101B2300FE9002D4F0A3EFF0D3940AEE6480948085
:101B3300401D9002D4E0FEA3E0FF7C007D0A12402A
:101B4300A3EF24A6FFEE34FF9002D4F0A3EFF074CA
:101B53005C2517F582E43402F583E0FFC374FF9F2D
:101B6300FFE49400FE9002D4E0FCA3E0FDC39FEEEB
:101B73006480F8EC6480985013CFEDCF745C251724
:101B8300F582E43402F583E02FF0800E745C2517B0
:101B9300F582E43402F58374FFF0E4F51875F0037D
:101BA300E517A42518F582E435F0F583E582240CC6
:101BB300F582E5833402F583E0FF7E00745C25172C
:101BC300F582E43402F583E0906E9493FD7C001279
:101BD30040A37DFF1240B575F003E517A42518F562
:101BE30082E435F0F583E582240CF582E583340243
:101BF300F583EFF00518E518B403A2021CC39002A5
:101C03006CE0FEA3E0F5828E8374FD932401FDE472
:101C130033FC745C2517F582E43402F583E0FBFFA3
:101C23007E0012410A9002D4EEF0A3EFF0EB6011B4
:101C33009002D4E07002A3E070079002D4F0A304F2
:101C4300F0745C2517F582E43402F583C083C08207
:101C5300E0FF9002D4A3E0FDCEEDCEC3EF9ED08291
:101C6300D083F0E4F51875F003E517A42518F58281
:101C7300E435F0F583E582240CF582E5833402F53F
:101C830083E0FF7E00745C2517F582E43402F5835C
:101C9300E0FD7C001240A37DFF1240B575F003E523
:101CA30017A42518F582E435F0F583E582240CF5B5
:101CB30082E5833402F583EFF00518E518B403A633
:101CC30074402517F582E43401F583E07003021DA7
:101CD3005C90026CE0FCA3E02517F582E43CF583FD
:101CE3007460932401FDE433FC744C2517F582E4FE
:101CF3003402F583E0FBFFC374FF9FFFE49400FE0F
:101D030012410A9002D4EEF0A3EFF0C374FF9B607C
:101D1300119002D4E07002A3E070079002D4F0A304
:101D230004F09002D4A3E0FF744C2517F582E43449
:101D330002F583E02FF090026CE0FCA3E02517F599
:101D430082E43CF583748093FF9002D3E0D39F50E9
:101D530003021E1CEFF0021E1C90026CE0FCA3E0C9
:101D63002517F582E43CF5837470932401FDE43375
:101D7300FC744C2517F582E43402F583E0FBFF7E07
:101D83000012410A9002D4EEF0A3EFF0EB60119041
:101D930002D4E07002A3E070079002D4F0A304F031
:101DA300744C2517F582E43402F583C083C082E0C6
:101DB300FF9002D4A3E0FDCEEDCEC3EF9ED082D040
:101DC30083F0E4F51875F003E517A42518F582E40C
:101DD30035F0F583E582240CF582E5833402F5833F
:101DE300E0FF900209E0FEEF8EF0A4FFAEF07C006E
:101DF3007DFF1240B575F003E517A42518F582E4BD
:101E030035F0F583E582240CF582E5833402F5830E
:101E1300EFF00518E518B403ACE4F518E51775F011
:101E230003A47C002518FFEC35F0FE90026CE0FC67
:101E3300A3E02FF582EC3EF583743093FF75F00336
:101E4300E517A42518F582E435F0F583E582240C23
:101E5300F582E5833402F583E0FDC3EF9DFFE4944F
:101E630000FE744C2517F582E43402F583E0FD7C13
:101E7300001240A37DFF12410A75F003E517A42564
:101E830018F582E435F0F583E582240CF582E583C9
:101E93003402F583E02FF00518E5186403600302AC
:101EA3001E1F0517E517C394105003021730900245
:101EB300D2E0700D900206E0540FFFBF01037402DD
:101EC300F0900209E0FB9002D3E0FAD39B407490B8
:101ED300026CE0FEA3E0F5828E8374FE93FF741F11
:101EE3009FFFE49400FE9002D4F0A3EFF0D3940A92
:101EF300EE64809480401D9002D4E0FEA3E0FF7C5A
:101F0300007D0A1240A3EF24A6FFEE34FF9002D413
:101F1300F0A3EFF0EBFFEAC39FFFE49400FE90020F
:101F2300D4E0FCA3E0FDC39FEE6480F8EC648098EA
:101F3300500BCFEDCF900209E02FF0805C9002D3DD
:101F4300E08052900209E0FF9002D3E0FEC39F506D
:101F530048EEFDC3EF9DFFE49400FE90026CE0FCAD
:101F6300A3E0F5828C8374FF932401FDE433FC1218
:101F7300410A9002D4EEF0A3EFF04E70079002D422
:101F8300F0A304F0900209E0FF9002D4A3E0FDCE99
:101F9300EDCEC3EF9E900209F0900111E0FEA3E0A5
:101FA30024FEF582EE3401F583E493FF705EF517AA
:101FB300E51775F003A4240CF582E43402F583E0FD
:101FC300FEE51775F003A42425F8EEF6E51775F082
:101FD30003A4240DF582E43402F583E0FEE51775CE
:101FE300F003A42424F8EEF6E51775F003A4240EF9
:101FF300F582E43402F583E0FEE51775F003A424CB
:1020030026F8EEF60517E517B410A522EF64037062
:102013006AF517E5179073E19375F003A4240CF5A3
:1020230082E43402F583E0FFE51775F003A4242569
:10203300F8EFF6E5179073E19375F003A4240DF51B
:1020430082E43402F583E0FFE51775F003A424244A
:10205300F8EFF6E5179073E19375F003A4240EF5FA
:1020630082E43402F583E0FFE51775F003A4242628
:10207300F8EFF60517E517B4109922900111E0FE69
:10208300A3E024FEF582EE3401F583E493FF6402BA
:102093007075F517C37410951775F003A4240CF528
:1020A30082E43402F583E0FEE51775F003A42425EA
:1020B300F8EEF6E517FDC374109DFDE49400FC9063
:1020C300020D75F003ED12438DEC75F003A4258327
:1020D300F583E0FEE51775F003A42424F8EEF690EB
:1020E300020E75F003ED12438DEC75F003A4258306
:1020F300F583E0FEE51775F003A42426F8EEF60554
:1021030017E517B4108E22EF64017069F517E51710
:102113009073D19375F003A4240CF582E43402F593
:1021230083E0FFE51775F003A42425F8EFF6E51720
:102133009073D19375F003A4240DF582E43402F572
:1021430083E0FFE51775F003A42424F8EFF6E51701
:102153009073D19375F003A4240EF582E43402F551
:1021630083E0FFE51775F003A42426F8EFF60517BF
:10217300E517B4109922E49002BEF0A3F0A3F0A3F4
:10218300F0900318F0900316F0900315F09002EE10
:10219300F0C8749AC8CC7402CCCD7401CD7B017A9B
:1021A300037900FE7F1512401C7E007F157D007BA6
:1021B300017A0379001243C69002F0E0900295F091
:1021C3007E007F047D007B017A0279F01243C69082
:1021D30002F57410F07E007F047DFF7B017A0279A3
:1021E300F71243C69002FDE0900297F0E49002FDDF
:1021F300F0900000E0C43354E02411F582E434008D
:10220300F583E0FEA3E04E70037FFF2290028EE091
:10221300604824C4F582E43401F583E0602290022F
:102223008EE0243FF582E43401F583E070129002DE
:10223300B0E054036003E014F09002B0E04404F013
:102243009002AFE07F0070027F019002AFEFF07069
:1022530003022D51123939022D51E49002C1F0903D
:1022630002C1E0FFC39410400302231E74402FF504
:1022730082E43401F583E07003022315900000E04B
:10228300C43354E02411F582E43400F583C083C0E1
:10229300829002C1E0D082D08375F00212438DE0B8
:1022A300FCA3E0F5828C83740193FEB4010E9002CB
:1022B30098E0FDEF6D60059002BE8053EEB402110D
:1022C300900298E0FF9002C1E06F60059002BF802A
:1022D3003E900000E0C43354E02411F582E434005E
:1022E300F583C083C0829002C1E0FFD082D08375A2
:1022F300F00212438DE0FCA3E0F5828C837401931A
:10230300B4070F900298E0FEEF6E60069002C0E003
:1023130004F09002C1E004F0022262E49002C1F0F2
:102323009002C1E0FFC39410400302292E9002984B
:10233300E0FEEF6E70549002C1E02440F582E43475
:1023430001F583E0600302292574C52FF582E43487
:1023530001F583E06003022925900291E004F0E097
:10236300D3940A5003022925E4F09002C1E0240328
:10237300FF900296E0FD125EDA900294E0FF126293
:10238300DB90029874FFF00229259002C1E0FF243C
:1023930040F582E43401F583E070030228039000E2
:1023A30000E0C43354E02411F582E43400F583756E
:1023B300F002EF12438DE0FEA3E0FFF5828E8374FB
:1023C3000193B40106125EC9022925900000E0C4FE
:1023D3003354E02411F582E43400F583C083C082D2
:1023E3009002C1E0D082D08375F00212438DE0FEEB
:1023F300A3E0FFF5828E8374019364027040125E42
:10240300C9900300E0FF900000E0C43354E02411BE
:10241300F582E43400F583C083C0829002C1E0D02A
:1024230082D08375F00212438DE0FCA3E0F5828C29
:1024330083740393FEEF4E900300F002292590006E
:1024430000E0C43354E02411F582E43400F583C082
:1024530083C0829002C1E0FFD082D08375F0021264
:10246300438DE0FCA3E0FDF5828C83740193640348
:1024730070559002BEE06003022925A3E0600302C9
:102483002925A3E0600302292574C52FF582E434CE
:1024930001F583E060030229259002C1E004900264
:1024A3008EF0ED2403FEE43C900292F0A3CEF0E420
:1024B30090028CF0A3F09002B07402F09002AF147B
:1024C300F0123939022925900000E0C43354E02486
:1024D30011F582E43400F583C083C0829002C1E029
:1024E300D082D08375F00212438DE0FEA3E0F58223
:1024F3008E83740193FF64046008EF640560030234
:1025030026929002C1E0FF24C5F582E43401F583ED
:10251300E0700D74012FF582E43400F5837402F04A
:10252300900000E0C43354E02411F582E43400F554
:1025330083C083C0829002C1E0D082D08375F00251
:1025430012438DE0FEA3E02402FFE43E8F82F58375
:10255300E493FE740193FFE4FCFDFB7A80F9F81227
:1025630041D8ECC0E0EDC0E0EEC0E0EFC0E0900188
:1025730011E0FEA3E024FAF582EE3401F583E4933F
:10258300FE740193FFCBEFCBCAEECAE4F9F8D0E0B7
:10259300FFD0E0FED0E0FDD0E0FC12697A9002C2E9
:1025A300EEF0A3EFF0900000E0C43354E02411F503
:1025B30082E43400F583C083C0829002C1E0D082FC
:1025C300D08375F00212438DE0FEA3E02404FFE400
:1025D3003E8F82F583E493FE740193FFE4FCFDFBDD
:1025E3007A80F9F81241D8ECC0E0EDC0E0EEC0E02B
:1025F300EFC0E0900111E0FEA3E024FCF582EE348D
:1026030001F583E493FE740193FFCBEFCBCAEECACB
:10261300E4F9F8D0E0FFD0E0FED0E0FDD0E0FC121A
:10262300697A9002C4EEF0A3EFF09002C2E0FCA33B
:10263300E0FDCFEDCF9002F7F0ECA3F09002C4E001
:10264300FCA3E0FDCFEDCF9002F9F0ECA3F09000F6
:1026530000E0C43354E02411F582E43400F583C070
:1026630083C0829002C1E0FFD082D08375F0021252
:10267300438DE0FCA3E0F5828C83740193B40507DA
:102683009002F5E04401F09002F6EFF00229259064
:102693000000E0C43354E02411F582E43400F583F0
:1026A300C083C0829002C1E0FFD082D08375F00264
:1026B30012438DE0FCA3E0F5828C837401936406DE
:1026C300600302279A74039320E7030229259002EB
:1026D30098E0F4600302292574C52FF582E43401E0
:1026E300F583E06003022925900000E0C43354E041
:1026F3002411F582E43400F583C083C0829002C1C3
:10270300E0D082D08375F00212438DE0FCA3E0FD9C
:10271300F5828C83740293900296F0900000E0FFA0
:1027230004900294F074132FF582E43401F583E0EE
:102733009002C6F08D828C83740393FF1262DB9048
:102743000000E02413F582E43401F583E02404FF60
:102753009002C6E0FEC3EF9E5403FF70069002C1D1
:10276300E0802DEFB4010A9002C1E09073D1938011
:102773001FEFB4020B9002C1E0FFC374109F8010DF
:10278300EF6403600302292E9002C1E09073E1938A
:10279300900298F002292E900000E0C43354E02404
:1027A30011F582E43400F583C083C0829002C1E056
:1027B300FFD082D08375F00212438DE0FCA3E0FDCD
:1027C300F5828C837401936407600302292574C521
:1027D3002FF582E43401F583E060030229258D821D
:1027E3008C8374039330E0030229259002C1E02413
:1027F30001F582E43400F583E04402F0EF0228FAA5
:102803009002C1E0FF24C5F582E43401F583E0FEC4
:102813007003022925900000E0C43354E02411F52D
:1028230082E43400F58375F002EF12438DE0FCA3DC
:10283300E0F5828C83740193FFB40519EE700302F3
:1028430029259002C1E02401F582E43400F5837464
:1028530001F0022925EF64067041900000E0C433C3
:1028630054E02411F582E43400F583C083C08290E0
:1028730002C1E0D082D08375F00212438DE0FEA343
:10288300E0F5828E83740393FF30E70302292590DA
:10289300029874FFF01262DB022925900000E0C465
:1028A3003354E02411F582E43400F583C083C082FD
:1028B3009002C1E0FFD082D08375F00212438DE015
:1028C300FCA3E0F5828C83740193FE6407704C745F
:1028D300039330E03374012FF582E43400F583E091
:1028E300FF20E1249002C1E0FD2401F582E43400DD
:1028F300F583EF4402F0ED25E0241BF582E4340177
:10290300F583E4F0A3F0801A9002C1E02401F5827C
:10291300E43400F583E054FDF08007EEB408037F50
:1029230001229002C1E004F0022323E49002C1F0EB
:102933009002C1E0FFC394104003022B4C900000AF
:10294300E0C43354E02411F582E43400F58375F0D8
:1029530002EF12438DE0FEA3E0F5828E83740193B0
:10296300FF64046008EF64056003022B43900000DA
:10297300E0C43354E02411F582E43400F583C083CA
:10298300C0829002C1E0D082D08375F00212438DE1
:10299300E0FEA3E0F5828E83740393FF6401600875
:1029A300EF64026003022B43900000E0C43354E061
:1029B3002411F582E43400F583C083C0829002C100
:1029C300E0D082D08375F00212438DE0FEA3E024B1
:1029D30002FFE43E8F82F583E493FE740193FFE4E8
:1029E300FCFDFB7A80F9F81241D8ECC0E0EDC0E0C1
:1029F300EEC0E0EFC0E0900111E0FEA3E024FAF5A1
:102A030082EE3401F583E493FE740193FFCBEFCBA5
:102A1300CAEECAE4F9F8D0E0FFD0E0FED0E0FDD082
:102A2300E0FC12697A9002C2EEF0A3EFF09000008E
:102A3300E0C43354E02411F582E43400F583C08309
:102A4300C0829002C1E0D082D08375F00212438D20
:102A5300E0FEA3E02404FFE43E8F82F583E493FECB
:102A6300740193FFE4FCFDFB7A80F9F81241D8EC82
:102A7300C0E0EDC0E0EEC0E0EFC0E0900111E0FE89
:102A8300A3E024FCF582EE3401F583E493FE7401A4
:102A930093FFCBEFCBCAEECAE4F9F8D0E0FFD0E066
:102AA300FED0E0FDD0E0FC12697A9002C4EEF0A300
:102AB300EFF09002C2E0FCA3E0FDCFEDCF9002F770
:102AC300F0ECA3F09002C4E0FCA3E0FDCFEDCF90C7
:102AD30002F9F0ECA3F09002C1E0FF9002F6F0904F
:102AE3000000E0C43354E02411F582E43400F5839C
:102AF30075F002EF12438DE0FEA3E0F5828E83743E
:102B030003936402702404939002F5B40506E04431
:102B130001F08004E054FEF09002C1E02401F5824C
:102B2300E43400F5837403F0801FE49002F5F09021
:102B330002C1E02401F582E43400F583E4F0800966
:102B43009002C1E004F0022933E49002C7F090023E
:102B5300C1F09002C1E0FFC394104003022D3590F1
:102B63000000E0C43354E02411F582E43400F5831B
:102B730075F002EF12438DE0FEA3E0F5828E8374BD
:102B8300019364076003022D2C9001EDE0FCA3E0A8
:102B9300FDA3E0FEA3E0FF90026EE0F8A3E0F9A33B
:102BA300E0FAA3E0FBD312431940369002C1E0FFE1
:102BB30025E0241BF582E43401F583E4F0A3F074EB
:102BC300012FF582E43400F583E054FBF09002C159
:102BD300E02401F582E43400F583E054FDF0022D96
:102BE3002C9002C1E0FF2401F582E43400F583E078
:102BF30020E103022D2C900000E0C43354E02411A3
:102C0300F582E43400F58375F002EF12438DE0FEA4
:102C1300A3E0FF2404FDE43E8D82F583E493FC747A
:102C230001934C7006125EC9022CF59002C1E0FFBD
:102C33002401F582E43400F583E0FE30E2117401EF
:102C43002FF582E43400F583EE54FBF0022CF5906B
:102C530001EDA3A3E0FEA3E0FF9002C1E025E02481
:102C63001BF582E43401F583E0FCA3E0FDC3EF9D93
:102C7300FFEE9CFE900000E0C43354E02411F58283
:102C8300E43400F583C083C0829002C1E0D082D0D7
:102C93008375F00212438DE0FCA3E0FD2404FBE402
:102CA3003C8B82F583E493FA740193D39FEA9E509D
:102CB300419002C1E0FF8D828C83740293FDEF2467
:102CC30003FF125EDA9001EDA3A3E0FEA3E0FF9001
:102CD30002C1E0FD25E0241BF582E43401F583EE17
:102CE300F0A3EFF074012DF582E43400F583E044A2
:102CF30004F0900000E0C43354E02411F582E4347E
:102D030000F583C083C0829002C1E0D082D0837576
:102D1300F00212438DE0FEA3E0F5828E83740393E9
:102D230030E0069002C7E004F09002C1E004F00234
:102D33002B559001EDE0FCA3E0FDA3E0FEA3E0FF33
:102D430090026E1243509002C7E0900290F0E4FFAD
:102D5300120066E4FF124E1E90028EE07003125AB8
:102D6300469002C17401F09002C1E0FF24FFF58296
:102D7300E43402F583E0FE74992FF582E43402F51E
:102D830083E06E60089002EE7401F0800A9002C145
:102D9300E004F0E0B416D0900295E0FF9002F0E07A
:102DA3006F6002801D9002C17402F09002C1E0FFC7
:102DB300C39405501D74EF2FF582E43402F583E0CC
:102DC30060089003157401F080089002C1E004F0DC
:102DD30080D99002C17403F09002C1E0FFC394074D
:102DE300501E74F42FF582E43402F583E0F4600896
:102DF3009003167401F080089002C1E004F080D8BB
:102E0300900297E0FF9002FDE06F60069003187454
:102E130001F0900298E0F4601D9002EEE0701290D1
:102E23000315E0700C900316E07006900318E06041
:102E330005E4900296F090028FE0B40111E4900350
:102E430018F0900316F0900315F09002EEF07F0057
:102E530022C0E0C0F0C083C082C0D075D00820D9A2
:102E6300030238F0E5D9543F70030238DF147003CE
:102E730002344B14602E24E27003023852147003A0
:102E830002344124F170030234BE240E600302387D
:102E9300EC75D50063D440C20CE5D454FC4402F570
:102EA300D40238EC20DE030238EC63D480AFDB902D
:102EB30002B9E4F0A3EFF09002B9A3E0F5D59002D4
:102EC300FBE030E75A90057FE075F040A42400F959
:102ED300740635F0FAC8E9C8CCEACCCD7401CD7BD1
:102EE300017A0579007E007F4012401C90054074F2
:102EF30052F0A37444F090057FE0FF04F090054284
:102F0300EFF053D4FC90057EE0FFA3E0C39F500392
:102F13000238ECE4F09002FBE0547FF00238EC90CE
:102F23000500E0FFB4440BA3E0B44B06A3E0644206
:102F33006013EF64447068900501E0644C7060A313
:102F4300E06454705A900503E0FFC394314050EF9E
:102F5300D39438504A900501E090057EB44B0B742E
:102F630008F0900503E024D980097404F090050368
:102F7300E024ED9002FBF09005407452F0900501BF
:102F8300E0900541F0900502E0900542F053D4FC37
:102F930090057FE4F09002FBE04480F00238EC906F
:102FA3000500E06443702BA3E0FF644B7024A3E0AF
:102FB300B4461F900540EFF0900502E0900541F004
:102FC300A3E514F0900503E0F514900543E514021E
:102FD300311A900500E0FD644360030230D2A3E0A0
:102FE300FF645260030230D2A3E0644B60030230FB
:102FF300D2900540EFF0900502E0900541F090017A
:1030030053E0FAA3E0FBEA900542F0CFEBCFEFA346
:10301300F0900155E0FAA3E0FBEA900544F0CFEB12
:10302300CFEFA3F0900197E0FEA3E0FFD39401EE6E
:103033009400400280047E007F01C3EF94FEEE946F
:103043000F5017900197E0FEA3E0FF9401EE940068
:103053004002800A7E007F0180047E0F7FFE900184
:1030630053EEF0A3EFF0900199E0FEA3E0FFD394B9
:1030730001EE9400400280047E007F01C3EF94FEC2
:10308300EE940F5017900199E0FEA3E0FF9401EE38
:1030930094004002800A7E007F0180047E0F7FFE41
:1030A300900155EEF0A3EFF0900153E0FAA3E0FB9B
:1030B300EA900546F0CFEBCFEFA3F0900155E0FA8D
:1030C300A3E0FBEA900548F0CFEBCFEFA38048EDF8
:1030D30064437050900501E0FF64457047A3E064CA
:1030E300437041900540EFF0900502E0900541F0F8
:1030F300A20FE433A3F0A210E433A3F0900503E09E
:1031030024FF920FA3E024FF9210A20FE433900553
:1031130044F0A210E433A3F053D4FC9002FB7432C6
:10312300F00238EC900500E0B4431AA3E0FFB44585
:1031330014A3E0B4460F900540EFF0900502E09031
:10314300054102343A900500E06442704BA3E06409
:10315300527045A3E06453703FA3E0645470399008
:1031630005407452F0900501E0900541F09005028E
:10317300E0900542F0900503E0900543F07E007F68
:103183003C7D207B017A0579441243C653D4FC90DD
:1031930002FB7464F00238EC900500E06442704B6B
:1031A300A3E064427045A3E0644F703FA3E064541E
:1031B30070399005407452F0900501E0900541F09C
:1031C300900502E0900542F0900503E0900543F07E
:1031D3007E007F3C7D207B017A0579441243C653F0
:1031E300D4FC9002FB7465F00238EC900500E064B7
:1031F300427049A3E064467043A3E06457703DA363
:10320300E0645670379005407452F0900501E090E9
:103213000541F0900502E0900542F0900503E0902F
:103223000543F0C87444C8CC7405CCCD7401CD7B80
:10323300FF7A00790E7E007F040233DF900500E001
:1032430064426003023391A3E06455600302339147
:10325300A3E064496003023391A3E0644460030282
:1032630033919005407452F0900501E0900541F0D0
:10327300900502E0900542F0900503E0900543F0CD
:1032830090057DE4F090057DE0FF25E02420F582A4
:10329300E43403F583E0FE74442FF582E43405F54A
:1032A30083EEF090057DE02444F582E43405F58354
:1032B300E0FFC394304019EFD39439501390057D48
:1032C300E02444F582E43405F583E024D0F08069FA
:1032D30090057DE02444F582E43405F583E0FFC3E3
:1032E30094614019EFD39466501390057DE0244414
:1032F300F582E43405F583E024A9F0803C90057D54
:10330300E02444F582E43405F583E0FFC3944140AF
:1033130019EFD39446501390057DE02444F582E4DD
:103323003405F583E024C9F0800F90057DE0244443
:10333300F582E43405F583E4F090057DE004F0E0E4
:10334300640C600302328890057DE4F090057DE013
:10335300FFC39406400302343BE0FE25E02444F51A
:1033630082E43405F583E0C454F0FDEE25E0244502
:10337300F582E43405F583E04DFE74442FF582E4D1
:103383003405F583EEF090057DE004F080BE9005F2
:1033930000E06442704BA3E064477045A3E06450CF
:1033A300703FA3E0644D70399005407452F090056E
:1033B30001E0900541F0900502E0900542F0900590
:1033C30003E0900543F0C87444C8CC7405CCCD74B5
:1033D30001CD7BFF7ADA79007E007F3812401C80B2
:1033E30057900500E06442703DA3E064447037A346
:1033F300E064477031A3E06443702B90054074523E
:10340300F0900501E0900541F0900502E09005423F
:10341300F0900503E0900543F07B017A0579447D44
:1034230038126B4180129005407452F0A37449F036
:10343300A3744EF0A37456F053D4FC0238EC75D346
:103443000063D240C20B8068AFDB9002B9E4F0A303
:10345300EFF09002B9E0FEA3E0FF4E6053D3EF9488
:1034630002EE9400504A9002B9A3E0247FF58274DF
:10347300053EF583E0FF7E009002B9EEF0A3EFF086
:103483007F0020E0027F01EF24FFB3920A9002B98C
:10349300E0FEA3E0FF7D0020E1027D01ED24FFB308
:1034A300920DEF7F0020E2027F01EF24FFB3920928
:1034B300E5D254FC4402F5D20238EC75DCC0AFDB34
:1034C3009002B9E4F0A3EFF09002B9E07004A3E036
:1034D300640860030238279004C7E0FE9004C6E046
:1034E3007C002400FFEC3E90031BF0A3EFF090025E
:1034F300B9E4F0A3F09002B8F09004C1E090031D8A
:10350300F09004C0E05460601A90031DE01424FDA1
:10351300400302382D24FB24FD400302382D800094
:1035230002382790031DE0B40B00400302382590B6
:103533003539F82828730237FA0237290238250269
:1035430037790238250236E602355A023825023623
:10355300F202371702382D9004C3E024FE602B14C7
:10356300604224E170030236202421600302365FA7
:1035730090033A74FFF0A37472F0A37424F09002E2
:10358300B9E4F0A37412F002366590033A74FFF0C5
:10359300A37473F0A3747BF09002B9E4F0A37449AD
:1035A300F00236659004C2E014602714603D146095
:1035B300532403600302365F90033A74FFF0A3744D
:1035C30072F0A37436F09002B9E4F0A37404F0022D
:1035D300366590033A74FFF0A37472F0A37450F04D
:1035E3009002B9E4F0A37424F0807790033A74FF57
:1035F300F0A37472F0A3743AF09002B9E4F0A374E8
:1036030016F0805E90033A7401F0A37403F0A37480
:103613001EF09002B9E4F0A3741AF080459004C43C
:10362300E0FF701990033A74FFF0A37472F0A3746F
:1036330074F09002B9E4F0A374E5F08025EFB401CF
:103643001990033A74FFF0A37473F0A37459F090C4
:1036530002B9E4F0A37422F0800880009002B874E9
:10366300FFF09002B9E0FEA3E0FFD390031CE09FBC
:1036730090031BE09E4005EEF0A3EFF090031BE0E8
:10368300FEA3E0FFC39440EE9400400C7C007D4019
:10369300CEECCECFEDCF80009002B9EEF0A3EFF0E9
:1036A3009002B9E0FEA3E0FFC874C0C8CC7404CC98
:1036B300CD7401CD90033AE0FBA3E0FAA3E0F91245
:1036C300401C9002B9E0FEA3E0FFC390031CE09FFF
:1036D300F090031BE09EF090033BEE8FF01241400D
:1036E30002382D9004C2E0FF90031BE402381F90C0
:1036F300031AE09004C0F0C390031CE0940190030C
:103703001BE09400500302382D9002B9E4F0A304A7
:10371300F002382D9004C2E090031AF070030238CF
:103723002DD20E02382D9004C0E0541FFF640270A6
:10373300359004C4E014601E1460202481600D14CD
:10374300701EE5D454BC4402F5D4801AE5D254BCAF
:103753004402F5D2801053D273800B53D473800686
:103763009002B874FFF0EF700A900319E054FEF072
:1037730002382D0238279004C0E0541FFD702690B4
:1037830004C3E0FE9004C2E0FBEB64014E701490AE
:1037930073829330E50A900319E04401F002382D57
:1037A300023827807FED6402704B9004C3E0FE90E3
:1037B30004C2E0FDED4E703B9004C5E0FE9004C4EE
:1037C300E0FDEDFFEE702AEF24FE60112481601707
:1037D30014701EE5D454BF4403F5D4804DE5D4548E
:1037E3007F440CF5D48043E5D254BF4403F5D28023
:1037F300398031802F802D9004C1E4F09004C0F013
:1038030090031BE0FEA3E0FFC39402EE940090023A
:10381300B94008E4F0A37402F0800FEEF0A3EFF0D8
:10382300800880009002B874FFF09002B8E0B4FF03
:103833000675DCCF0238EC9002B9E0FEA3E0FF4E40
:1038430060048FDD800375DD0075DCC00238EC9009
:10385300031DE024FB606E14707A90031BE0FEA34B
:10386300E0FFC39440EE9400400C7C007D40CEEC1E
:10387300CECFEDCF80009002B9EEF0A3EFF090022F
:10388300B9E0FEA3E0FFC874C0C8CC7404CCCD7407
:1038930001CD90033AE0FBA3E0FAA3E0F912401C48
:1038A3009002B9E0FEA3E0FFC390031CE09FF090F9
:1038B300031BE09EF090033BEE8FF01241408FDD3F
:1038C30063DC40802490031BA3E0FFE5E354804FB7
:1038D300F5E3800375DD0075DC02800DAFDB90023C
:1038E300B9E4F0A3EFF063DC80C2D9803E30D81F87
:1038F30075DC0275D20275D40275E300C2DAC2D94F
:10390300C20EC20BC20C900319E4F0C2D8801C3063
:10391300DA16C2DAE5DA90031930E206E04402F07F
:103923008009E054FDF0800375D8FFD0D0D082D059
:1039330083D0F0D0E0329002C87403F09001EDE040
:10394300FCA3E0FDA3E0FEA3E0FF900276E0F8A372
:10395300E0F9A3E0FAA3E0FBD3124319400A900273
:103963007212435C000000009001EDE0FCA3E0FD57
:10397300A3E0FEA3E0FF9002761243509001EDE036
:10398300FCA3E0FDA3E0FEA3E0FF900272E0F8A336
:10399300E0F9A3E0FAA3E0FBD3124319400C900231
:1039A3008F7401F0E49002AFF022E490028FF09064
:1039B30002CDF0A3F090028EE0FF603B900000E0A8
:1039C30075F020A4240FF582E5F03400F58375F03B
:1039D30002EF12438DE0FEA3E0FFF5828E837402B3
:1039E30093FD7C00EF2403FFE43EFEEF2DFFEC3E4E
:1039F3009002CDF0A3EFF09002C8E0C39416400309
:103A0300023F4B9002CDE0FEA3E0FF900292E0FC68
:103A1300A3E0FDC39FEC9E4004E4023E028D828C32
:103A230083E493FFB4EA37ED2401FBE43C8B82F596
:103A330083E493FE54019002AFF0EE30E10F900265
:103A430093E02402F0900292E03400F0229002937B
:103A5300E004F07006900292E004F0023F3AEF6453
:103A6300EB6003023B8AED2401FFE43C8F82F58384
:103A7300E493FBB4021EED2404FEE43C90027AF0CE
:103A8300A3CEF0900293E02404F0900292E034007D
:103A9300F00239FA90028DE004F0700690028CE097
:103AA30004F0ED2402FFE43C8F82F583E493FEED02
:103AB3002403FDE43C8D82F583E493FDEDFF900246
:103AC300C9EEF0A3EFF0EB600B9002B0E030E2043C
:103AD30054036033900292E0FEA3E02401FFE43E2E
:103AE3008F82F583E49370079002B0E020E2189090
:103AF30002C9E0FEA3E0FF4E601490028CE0FCA339
:103B0300E0C39FEC9E40079002B0E04480F0900237
:103B1300B0E0FF30E727900293E02403F090029295
:103B2300E03400F0EF547B9002B0F0E490028CF0AC
:103B3300A3F074FF90027AF0A3F0023F3A90027A66
:103B4300E0FEA3E0FFF47002EEF46006900292EE52
:103B53008030900000E075F020A4240FF582E5F09A
:103B63003400F583C083C08290028EE0D082D0837C
:103B730075F00212438DE0FEA3E02403FFE43E90C0
:103B83000292F0A3EFF022900292E0FEA3E0F5820E
:103B93008E83E49364FE707C900292E0FCA3E0FDCC
:103BA3002401FFE43C8F82F583E493FEED2402FDC0
:103BB300E43C8D82F583E493FDEDFF9002D0EEF0BB
:103BC300A3EFF0E4FCFD9001EDE0F8A3E0F9A3E03E
:103BD300FAA3E02FFFEA3EFEED39FDEC38FC90023C
:103BE30072124350900293E02402F0900292E03468
:103BF30000F09002CDE0FEA3E0FF900292E475F0A6
:103C030001124140FCEF65F07002EE6C6003023F6D
:103C13004B023E02900292E0FEA3E0F5828E83E423
:103C230093FC64FD70619002C8E0FFD394034003EA
:103C3300023F4B9002F0E06003023F4B900292750B
:103C4300F00112414085F082F583E493FD125EDAC0
:103C5300900292E475F00112414085F082F583E40D
:103C630093900300F09002CDE0FEA3E0FF90029258
:103C7300E475F001124140FAEF65F07002EE6A60FC
:103C830003023F4B023E02EC64ED6003023E0790E9
:103C930002C8E0D394034003023F4B9002F0E0607C
:103CA30003023F4B900292E0FCA3E0FD2401FFE4FA
:103CB3003C8F82F583E493FEED2402FDE43C8D8288
:103CC300F583E493FDEDFF9002C9EEF0FCA3EFF062
:103CD300CCCCCDCD900292E0FAA3E0FB2403FFE429
:103CE3003A8F82F583E493FEEB2404FBE43A8B8260
:103CF300F583E493FBEBFF9002CBEEF0A3EFF0CF61
:103D0300EDCFCEECCEE4FCFDFB7A80F9F81241D87E
:103D1300ECC0E0EDC0E0EEC0E0EFC0E0900111E0E8
:103D2300FEA3E024FAF582EE3401F583E493FE74F6
:103D33000193FFCBEFCBCAEECAE4F9F8D0E0FFD092
:103D4300E0FED0E0FDD0E0FC12697A9002C9EEF00B
:103D5300A3EFF0A3E0FEA3E0FFE4FCFDFB7A80F910
:103D6300F81241D8ECC0E0EDC0E0EEC0E0EFC0E0F7
:103D7300900111E0FEA3E024FCF582EE3401F5830B
:103D8300E493FE740193FFCBEFCBCAEECAE4F9F8D8
:103D9300D0E0FFD0E0FED0E0FDD0E0FC12697A90E5
:103DA30002CBEEF0A3EFF09002C9E0FCA3E0FDCF5D
:103DB300EDCF9002F7F0ECA3F09002CBE0FCA3E090
:103DC300FDCFEDCF9002F9F0ECA3F09002F5E044C3
:103DD30001F0900293E02404F0900292E03400F0AA
:103DE3009002CDE0FEA3E0FF900292E475F0011291
:103DF3004140FCEF65F07002EE6C6003023F4B90B4
:103E0300028EF022900292E0FEA3E0F5828E83E41C
:103E13009364FA6003023EB99002CF7403F0F0900A
:103E230002C8E0FC9002CFE0FFC39C502A900292AC
:103E3300E0FAA3E0F5828A83E493FE74FF2FF58210
:103E4300E43402F583E06E70069002CFF0800890B0
:103E530002CFE004F080C89002CFE07003023F4B32
:103E63009002F0E06003023F4B900300E060199082
:103E730002C8E0FF04F0900292E475F001124140A1
:103E830085F082F583023F34EC64036003023F4B09
:103E93009002C8E0FF04F0900292E475F001124131
:103EA3004085F082F583E493FD125EDA900300E02F
:103EB3004402F0023F3A9002CF7403F0F09002C83C
:103EC300E0FC9002CFE0FFC39C502A900292E0FAFC
:103ED300A3E0F5828A83E493FE74FF2FF582E43432
:103EE30002F583E06E70069002CFF080089002CF57
:103EF300E004F080C89002CFE0604D9002F0E070E3
:103F030047900300E070149002C8E0FF04F09002B1
:103F130092E0FAA3E0F5828A838016ECB403299039
:103F230002C8E0FF04F0900292E0FCA3E0F5828C6B
:103F330083E493FD125EDA900293E004F07006903E
:103F43000292E004F00239FA22E709F608DFFA8068
:103F530046E709F208DFFA803E88828C83E709F09E
:103F6300A3DFFA8032E309F608DFFA8078E309F287
:103F730008DFFA807088828C83E309F0A3DFFA807C
:103F83006489828A83E0A3F608DFFA805889828AEB
:103F930083E0A3F208DFFA804C80D280FA80C680E7
:103FA300D4806980F28033801080A680EA809A8072
:103FB300A880DA80E280CA803389828A83ECFAE4BB
:103FC30093A3C8C582C8CCC583CCF0A3C8C582C897
:103FD300CCC583CCDFE9DEE7800D89828A83E49355
:103FE300A3F608DFF9ECFAA9F0EDFB2289828A83B4
:103FF300ECFAE0A3C8C582C8CCC583CCF0A3C8C57E
:1040030082C8CCC583CCDFEADEE880DB89828A8381
:10401300E493A3F208DFF980CC88F0EF60010E4E41
:1040230060C388F0ED2402B4040050B9F582EB2498
:1040330002B4040050AF2323458223903F9C73BBFB
:10404300010CE58229F582E5833AF583E0225006E7
:10405300E92582F8E622BBFE06E92582F8E222E59D
:104063008229F582E5833AF583E49322BB0106892D
:10407300828A83F0225002F722BBFE01F322F8BBAF
:10408300010DE58229F582E5833AF583E8F02250B4
:1040930006E92582C8F622BBFE05E92582C8F2227D
:1040A300EF8DF0A4A8F0CF8CF0A428CE8DF0A42E31
:1040B300FE22BC000BBE0029EF8DF084FFADF02281
:1040C300E4CCF875F008EF2FFFEE33FEEC33FCEE93
:1040D3009DEC984005FCEE9DFE0FD5F0E9E4CEFD86
:1040E30022EDF8F5F0EE8420D21CFEADF075F00859
:1040F300EF2FFFED33FD4007985006D5F0F222C3B2
:1041030098FD0FD5F0EA22C2D5EC30E709B2D5E429
:10411300C39DFDE49CFCEE30E715B2D5E4C39FFFDD
:10412300E49EFE1240B5C3E49DFDE49CFC800312B3
:1041330040B530D507C3E49FFFE49EFE22C5F0F8E7
:10414300A3E028F0C5F0F8E582158270021583E03C
:1041530038F022BB010A89828A83E0F5F0A3E022CA
:10416300500687F009E71922BBFE07E3F5F009E3E0
:10417300192289828A83E493F5F074019322BB01A7
:104183000789828A83024140500B09C5F027F7C58E
:10419300F01937F722BBFE0D09F8E325F0F3C5F05C
:1041A30019E338F322F889828A8374019325F0C5D1
:1041B300F0F8E4933822BB010A89828A83F0E5F0A0
:1041C300A3F0225006F709A7F01922BBFE06F3E578
:1041D300F009F31922E88FF0A4CC8BF0A42CFCE9AE
:1041E3008EF0A42CFC8AF0EDA42CFCEA8EF0A4CD76
:1041F300A8F08BF0A42DCC3825F0FDE98FF0A42C8A
:10420300CD35F0FCEB8EF0A4FEA9F0EB8FF0A4CF3C
:10421300C5F02ECD39FEE43CFCEAA42DCE35F0FDED
:10422300E43CFC2275F008758200EF2FFFEE33FEAD
:10423300CD33CDCC33CCC58233C5829BED9AEC997B
:10424300E58298400CF582EE9BFEED9AFDEC99FC1D
:104253000FD5F0D6E4CEFBE4CDFAE4CCF9A8822264
:10426300B800C1B90059BA002DEC8BF084CFCECD84
:10427300FCE5F0CBF97818EF2FFFEE33FEED33FDBD
:10428300EC33FCEB33FB10D703994004EB99FB0FA2
:10429300D8E5E4F9FA227818EF2FFFEE33FEED3379
:1042A300FDEC33FCC933C910D7059BE99A4007ECF1
:1042B3009BFCE99AF90FD8E0E4C9FAE4CCFB227538
:1042C300F010EF2FFFEE33FEED33FDCC33CCC833CC
:1042D300C810D7079BEC9AE899400AED9BFDEC9A2E
:1042E300FCE899F80FD5F0DAE4CDFBE4CCFAE4C8A6
:1042F300F922C3E49FFFE49EFEE49DFDE49CFC22BF
:10430300EB9FF5F0EA9E42F0E99D42F0EC6480C831
:1043130064809845F022EB9FF5F0EA9E42F0E99D18
:1043230042F0E89C45F022E8600FECC313FCED1368
:10433300FDEE13FEEF13FFD8F122E8600FEFC33356
:10434300FFEE33FEED33FDEC33FCD8F122ECF0A3AA
:10435300EDF0A3EEF0A3EFF022A8828583F0D083E3
:10436300D082124373124373124373124373E47381
:10437300E493A3C583C5F0C583C8C582C8F0A3C5AC
:1043830083C5F0C583C8C582C822A42582F582E50A
:10439300F03583F58322EC8EF0A4CCC5F0CCCDF8B8
:1043A300EFA4CEC5F02DFDE43CFCE8A42EC8C5F077
:1043B3003DFDE43CFCEFA4FFE5F028FEE43DFDE415
:1043C3003CFC22EF4E6012EF60010EEDBB010B8946
:1043D300828A83F0A3DFFCDEFA2289F05007F70913
:1043E300DFFCA9F022BBFEFCF309DFFCA9F022BB32
:1043F300010689828A83E0225002E722BBFE02E3A0
:104403002289828A83E49322E0FCA3E0FDA3E0FEF9
:10441300A3E0FF22F8E0FBA3A3E0F925F0F0E58297
:10442300158270021583E0FA38F022EBF0A3EAF06C
:10443300A3E9F022D083D082F8E49370127401933D
:10444300700DA3A393F8740193F5828883E47374C6
:1044530002936860EFA3A3A380DFE51724C1F5826D
:10446300E43402F583E00517229002BE300703907F
:1044730002C1E475F0011244170243F22000E97F00
:104483002ED2008018EF540F2490D43440D4FF3040
:10449300040BEF24BFB41A0050032461FFE5186036
:1044A300021518051BE51B7002051A30070E900252
:1044B300BEE475F001124417EF02406F026BC27441
:1044C30003D2078003E4C207F5179002BE12442EFD
:1044D300E4F518F51AF51BE51860077F201244A0D0
:1044E30080F57519FFC201C200C202C203C205C230
:1044F30006C20812446CFF700D3007057F0012449A
:10450300B1AF1BAE1A22B4255FC2D5C20412446CEC
:10451300FF24D0B40A00501A75F00A781830D50574
:1045230008B6FF0106C6A426F620D5047002D203FE
:1045330080D924CFB41A00EF5004C2E5D204024656
:10454300B2D20180C6D20080C0D20280BCD2D58054
:10455300BAD20580B47F201244A02002077401B5AB
:10456300180040F112445DFF1244A00244DAD2085D
:10457300D206809512445DFB12445DFA12445DF944
:104583004A4B700679837A477BFF20022EE5186039
:104593002A7E008E8275830012404260060EEE650D
:1045A3001970F0C2D5EBC0E0EAC0E0E9C0E0EE125A
:1045B30046F9D0E0F9D0E0FAD0E0FB1243F2FF6015
:1045C300AAEBC0E0EAC0E0E9C0E01244A0D0E024D6
:1045D30001F9D0E03400FAD0E0FBE5190460DCD542
:1045E30019D980877BFF7A4679F5D202809C7910AE
:1045F30080027908C206C2088008D2D5790A8004ED
:10460300790AC2D5E519047002F519E4FAFDFEFF33
:1046130012445DFC7B0820011312445DFD7B1030C6
:10462300000A12445DFE12445DFF7B20EC3382D509
:1046330092D55013C3E43000069FFFE49EFEE420AE
:1046430001039DFDE49CFCE4CBF8C201EC700CCFAC
:10465300CECDCCE824F8F870F38017C3EF33FFEE28
:1046630033FEED33FDEC33FCEB33FB994002FB0FE0
:10467300D8E9EB300105F8D0E0C448B201C0E00A44
:10468300EC4D4E4F78207B0070C2EAB5190040BC58
:10469300C0E01246FBD0F0D0E0200104C4C0E0C467
:1046A300B201C0F0124489D0F0D5F0EB0244DA1223
:1046B300443745775345F15845484C45444245F501
:1046C3004F45FD4445FD49455D4346035545E74692
:1046D30045E74545E74747A350454C2D45502E45F3
:1046E300732B455423457120478C2A450C48000001
:1046F300456B3F3F3F00790AA2D5200314300509DB
:10470300B910020404B9080104A2D520060250011D
:10471300042002689202B518005034C0E07F2030B4
:1047230003197F30A20272067205500F124752C25C
:1047330002C206C205C2087F30800F300503E9C0FC
:10474300E01244A0300503D0E0F9D0E0B518CC3036
:1047530005177F30B9100C1244A07F583004077F2F
:10476300788003B908031244A03002057F2D024468
:10477300A07F202008F87F2B2006F322920280CF0F
:10478300286E756C6C2900D20112445D3001F8C2A9
:1047930001781830D50108F602450C2D50434958CD
:1047A30012445D2403B405004001E490479E931234
:1047B3004491743A124491D2037518040245F1E40A
:1047C3009002C2F0A20A33A3F0A20DE433A3F0A235
:1047D30009E433A3F0900290E07F0060027F019030
:1047E30002C6EFF090028EE07F0060027F0190022C
:1047F300C7EFF0900111E0FEA3E024F9F582EE3457
:1048030001F583E493C4540F60739002B1E0F8A3FD
:10481300E0F9A3E0FAA3E0FB9001EDE0FCA3E0FDE7
:10482300A3E0FEA3E0C39BFFEE9AFEED99FDEC9897
:10483300C0E0EDC0E0EEC0E0EFC0E0900111E0FEAB
:10484300A3E024F9F582EE3401F583E493C4540F15
:1048530025E02414F582E43472F583E493FE7401B5
:1048630093FFCBEFCBCAEECAE4F9F8D0E0FFD0E078
:10487300FED0E0FDD0E0FCD3124319501790011194
:10488300E0FEA3E024F9F582EE3401F583E49354CA
:104893000FFF700890020B74FFF08046EF6043C374
:1048A300940440028037EF14FDC8EDC87E00740104
:1048B300088005C333CE33CED8F9FF90020BE0FC5A
:1048C300C39FEE6480F87480984012C8EDC87401E9
:1048D300088002C333D8FCFFC3EC9F8001E490023D
:1048E3000BF0E49002BEF09002BEE0FFC3940340DD
:1048F30003024A21E0FE900111E0FCA3E0FD24F64F
:10490300F582EC3401F583E5822EF582E43583F5F7
:1049130083E493FB540F24C2F582E43402F583E06D
:10492300FAEBC41313135401FBEA6BFB74BF2EF5AC
:1049330082E43402F583EBF074BF2FF582E4340292
:10494300F583E0604BED24F9F582EC3401F583E463
:1049530093540F703B9002BEE024BFF582E434020F
:10496300F583C083C082E0FF9002BEE0FEED24F336
:10497300F582EC3401F583E5822EF582E43583F587
:1049830083E493FEEF8EF0A4D082D083F0024A1822
:104993009002BEE0FBED24F3F582EC3401F583E5F0
:1049A300822BF582E43583F583E493FD7C0090024A
:1049B3000BE0F9FFC374FF9FFFE49400FE1240A3D2
:1049C30074BF2BF582E43402F583E0FD1240A3CCDF
:1049D300EECCCDEFCD9002BEE0FF900111E0FAA343
:1049E300E024F0F582EA3401F583E5822FF582E4D1
:1049F3003583F583E49389F0A42DFFEC35F0FE7C39
:104A0300007DFF1240B59002BEE024BFF582E4347E
:104A130002F583EFF09002BEE004F00248EA900250
:104A2300BFE0F5A5A3E0F59AA3E0F5A422011E00DB
:104A3300011C00C10F011F00011D00C110410341F2
:104A430000410342004102FB004102FE0041031703
:104A5300004102EE00410315004103160041031813
:104A6300005602FF010000000000000000000000EB
:104A7300000000000000000000004502EF020000FB
:104A830000004702F4031001000000004202FC048E
:104A93000041031900C10EC10BC10CC10AC10DC1F4
:104AA300094401ED00000000011402440153080011
:104AB30008004401970800080041013B010210006F
:104AC300000215000A0212271044019B0000000097
:104AD30042013E00004201D8000042026CDC00505B
:104AE300025C000000000000000000000000000065
:104AF300000050024C000000000000000000000015
:104B0300000000000050023C0001020304050607F8
:104B130008090A0B0C0D0E0F6030020C0000000098
:104B23000000000000000000000000000000000082
:104B33000000000000000000000000000000000072
:104B430000000000000000000000000020302400EE
:104B53000000000000000000000000000000000052
:104B63000000000000000000000000000000000042
:104B730000000000000000000000000000000042F0
:104B8300020400004102060041020700410208003E
:104B93004102090041020A0041020B0041000000EA
:104BA300420111F200410295004102970041029037
:104BB300004402B10000000041028E004202920054
:104BC3000042028C00004102B0004102AF004102EA
:104BD3008F00410298FF4102910041029600410279
:104BE300940044026E0000000044027200000000C2
:104BF3004402760000000042027AFFFF42027C007A
:104C03000042027E00004202800000420282000055
:104C130042028400004202860000420288000042F1
:104C2300028A000000E49002BEF0A374FFF0A3F038
:104C3300A3F0A37401F0439D209001D7E060099095
:104C43000152E07003024E0F9001D6E0600990011B
:104C530051E07003024E0F9001D5E06009900150BE
:104C6300E07003024E0FE4F5FF125DE47F01126171
:104C7300A7125DE47F021261A7125B999002C2E062
:104C8300251CF0E4F51DF51CE0C3648094815012EB
:104C930075A5FF7401F07F027E00126C54E4F5A544
:104CA300801B9002C2E0D36480948A4010759AFFFF
:104CB300740AF07F027E00126C54E4F59AE49002C9
:104CC300BEF0FFEF6404602EEF640C602974402F84
:104CD300F582E43401F583E0FE601274C52FF5829A
:104CE300E43401F583E070059002BFEFF0EE600657
:104CF3009002BEE004F00FEFB410C89002BEE07063
:104D030004A374FFF09002BFE0FEF4606674402ECB
:104D1300F582E43401F583E07022FFEF6404601749
:104D2300EF640C601274402FF582E43401F583E0E4
:104D330060059002BFEFF00FEFB410DF9002BFE009
:104D4300FC90747093FE90014CE0FDEE2D9002C038
:104D5300F0900144E0FF600FECC394085009900207
:104D6300C0E0240CF08012EF600F9002C0E024F446
:104D7300F080069002C074FFF09002C0E0FFA3E051
:104D83006F7003024C3CEFC39412504F9002C0E08B
:104D930025E024F1F582E43473F583E493F512748A
:104DA3000193F513AE12FFCBEFCBCAEECAE4F9F8C9
:104DB3009002C2E0FF3395E0FEFDFC1241D8780873
:104DC30012432AE47B03FAF9F81242638E158F1615
:104DD300E4FD7F011263F4D2A980289002C0E0FFB2
:104DE300D394305013EF90743F93F59E9002C2E03A
:104DF300F59CC2A97D018006E4F59CC2A9FD7F0153
:104E03001263F49002C0E0A3F0024C3CE4F59CC2B0
:104E1300A9FD7F011263F4759E2022E49002D2F073
:104E2300EF601EE490028AF0900288F0900287F00F
:104E3300900286F09002D2F090028BF090028AF0FA
:104E430022900286E0FF900111E0FCA3E024E1F54B
:104E530082EC3401F583E49325E014FE851CF0A471
:104E6300FDC3EF9D900286F0E4F51CA3E0FFEE8501
:104E73001DF0A4FEC3EF9EF0E4F51D9002D3F09065
:104E830002D3E0FF2488F582E43402F583E0FE7464
:104E9300862FF582E43402F583E0FFD3EE6480F8D5
:104EA300EF64809840089002D27401F08018C3EE3A
:104EB3006480F8EF64809850089002D27402F08006
:104EC30005E49002D2F0900111E0FEA3E0F5828E9A
:104ED30083C083C0829002D3E0FFD082D08375F079
:104EE3000812438DE58224E0F582E5833401F583DE
:104EF300E493540F146003024FD59002D2E0FE7086
:104F030003024FF1748A2FF582E43402F583E060E3
:104F1300299002D3E0FF248AF582E43402F583E486
:104F2300F074882FF582E43402F583E0FFEE25E088
:104F330024FDFEC3EF9EF0024FF19002D2E0FF90FA
:104F43000111E0FCA3E0F5828C83C083C082900250
:104F5300D3E0D082D08375F00812438DE58224E23A
:104F6300F582E5833401F583E5822FF582E4358309
:104F7300F583E493FD60057FFF125EDA900300E0A2
:104F8300FF9002D2E0FE900111E0FCA3E0F5828CD9
:104F930083C083C0829002D3E0FDD082D08375F0BA
:104FA3000812438DE58224E5F582E5833401F58318
:104FB300E5822EF582E43583F583E493FEEF4E908C
:104FC3000300F0748A2DF582E43402F5837401F052
:104FD300801C9002D3E0FF2486F582E43402F5833B
:104FE300E0FE74882FF582E43402F583EEF090023C
:104FF300D3E004F0E0C394025003024E82229002F5
:10500300DCEEF0A3EFF0A3ECF0A3EDF0A3EAF0A342
:10501300EBF09002DCE0FAA3E0FB7C007DA7CFEB92
:10502300CFCEEACE1240B57C007D061240B5CFED5F
:10503300CF9002EBEFF0E075F0A7A4FFC3EB9FFF67
:10504300EA95F0FECBEFCBCAEECA9002DEA3E0FFF7
:10505300A3A3E0FDCEEDCEC39F9002ECF09002DE61
:10506300E0FEA3E0CDEBCDCCEACC1240A37C007DE7
:10507300A71240B5A3A3E0FDCEEDCEC39F9002EDF2
:10508300F0CEEACECFEBCFC374A79FFFE49EFE9092
:1050930002DEE0FCA3E0FD1240A37C007DA71240EA
:1050A300B5A3A3E0FDCEEDCEC39FFF9002EBE0FDE1
:1050B30070119002E2E0FBA3E0FAA3E0F9EE1240E4
:1050C3006F801EEDB4012E9002EDE0FF9002E2E04E
:1050D300FBA3E0FAA3E0F9EF12406F9002E0A3E034
:1050E300FF9002E5E0FBA3E0FAA3E0F9EF12406FC3
:1050F3009002EC80629002EBE0FEB4022AA3E0FD92
:105103009002E2E0FBA3E0FAA3E0F9ED12406F9016
:1051130002E0A3E0FD9002E5E0FBA3E0FAA3E0F9DF
:10512300ED12406F0251C4EEB403309002ECE0FF85
:105133009002E2E0FBA3E0FAA3E0F9EF12406F90E4
:1051430002EDE0FF9002E5E0FBA3E0FAA3E0F9EF54
:1051530012406F9002E0A3E0FF80669002EBE0FE56
:10516300B4042E9002E2E0FBA3E0FAA3E0F9EF120D
:10517300406F9002ECE0FF9002E5E0FBA3E0FAA3AE
:10518300E0F9EF12406F9002E0A3E0FDCFEDCF8096
:1051930030EEB4053B9002E0A3E0FFA3E0FBA3E005
:1051A300FAA3E0F9EF12406F9002ECE0FF9002E502
:1051B300E0FBA3E0FAA3E0F9EF12406F9002EDE009
:1051C300FF9002E8E0FBA3E0FAA3E0F9EF12406FDF
:1051D300229002BEEFF0E4A3F0EFC3940A403F90A5
:1051E30002BEE0FF94125036EF24F6FFEF25E0FEF7
:1051F300C3E49400FF74F29EFE74081257099002F0
:10520300BFEFF09002BEE024F6FF1258B79002BF42
:10521300E0700302533F9002BEE024FE803B900205
:10522300BEE0FFC3941E4034EF9426502FEF24E2D8
:10523300FFEFFEE42400FFEE34DCFE740412570992
:105243009002BFEFF07F011214849002BFE070035D
:1052530002533F9002BEE024F2FD80299002BEE09B
:10526300B4322A126B107B017A0679009002C7745C
:1052730001F07F007EDA1257139002BFEFF0700344
:1052830002533F7D187F0312689F02533F9002BE73
:10529300E0B46416126C821269357F647E00126C6E
:1052A30054E4F5A812002E02533F9002BEE0646559
:1052B300600302533F126C821269357F647E0012D1
:1052C3006C54E4F5A875D8FF75E20690034174AAFF
:1052D300F09003427455F07E007F407D007B017A9D
:1052E3000679001243C690063E7480F0A374FEF064
:1052F3007B017A0679009002C77401F0E4FFFE1285
:1053030057139002BFEFF0E4F5FFF5A5F59A75A4E6
:10531300FF7F207E03126C54E4F5FFF5A5759AFF19
:10532300F5A47F207E03126C54E4F5FF75A5FFF509
:105333009AF5A47F207E03126C5480CB9002BFE0C9
:105343006059E4F5FF75A5FFF59AF5A47F96FE1263
:105353006C54E4F5A5759AFFF5A47F96FE126C5480
:10536300E4F5A5F59A75A4FF7F96FE126C5475A516
:10537300FFE4F59AF5A47F96FE126C54E4F5A57547
:105383009AFFF5A47F96FE126C54E4F5A5F59A7581
:10539300A4FF7F96FE126C54E4F5FF22C2A3C2A1C0
:1053A300C2A0126BE97F057E00126C54E58720E4EE
:1053B300077F327E00126C54125CC2125FA3126725
:1053C300A6D2AFC2A77B017D807F021262447B011C
:1053D3007D017F021262447B017D027F02126244DF
:1053E3007B017D087F02126244759E20539DFEE47B
:1053F300F59AF5A4F5A57D017F041263F47D017F81
:10540300101263F47D017F201263F4E4FF126C2415
:10541300E4FF1269BE7F021269BE75F2107B017D43
:10542300017F8C7E0012610843AA04E4FB7D807F28
:105433000312624443B324D2E953C9EF7D01E4FF6D
:10544300126AABE4FDFCFF126A73D28C7F01126C0B
:105453006B126A39E4F5FF1264EE125DE47F011208
:1054630061A7126629126935126629125DE47F026B
:105473001261A79002FBE0FF20E7D9600A1251D422
:10548300E49002FBF080CD900317E07028126C0AC1
:10549300900315E025E0FF9002EEE04FFF90031626
:1054A300E025E025E04FFF900318E033333354F851
:1054B3004F900317F09001EDA3A3A3E0FF9002FE2A
:1054C300E0FEC3EF9EC39408408A900317E0FE609A
:1054D300059002FEEFF0EE601B900319E0B4031495
:1054E300126C917F327E00126C54126C917F327E6B
:1054F30000126C54900317E0FF30E00D54FEF07B74
:10550300017A0279FF7D168028900317E0FF30E1CE
:105513000D54FDF07B017A0279EF7D058013900332
:1055230017E0FF30E21154FBF07B017A0279F47D3E
:10553300071269FE025457900317E0FF20E30302AA
:10554300545754F7F07B017A0279FC7D021269FE0D
:105553000254579002DEEBF09002DCEFF0A3EDF083
:10556300EFD39D40079002DCE0FF80059002DDE071
:10557300FF9002DEE0FEEFD39E40159002DDE0FFD8
:105583009002DCE0FDD39F4005CFEDCF8005800383
:10559300CFEECF9002E8EFF09002DDE0FF9002DC67
:1055A300E0FEC39F5005CFEECF80009002DEE0FE09
:1055B300EFC39E50159002DDE0FF9002DCE0FDC3D7
:1055C3009F5005CFEDCF80058003CFEECF9002E84B
:1055D300E0FEC39FA3F070119002DFE0FBA3E0FAAB
:1055E300A3E0F9E4F5F00256A59002DCE06E70301A
:1055F3009002DEE0FF9002DDE0C39FFFE49400FE33
:105603007C007DA71240A39002E9E0FD1240B59013
:1056130002DFE0FBA3E0FAA3E0F9EE8FF00256A568
:105623009002DDE0FF9002E8E06F70369002DCE06C
:10563300FF9002DEE0C39FFFE49400FE7C007DA7A1
:105643001240A39002E9E0FD1240B5EF244EFFEEB5
:105653003401F99002DFE0FBA3E0FAA3E0C98FF085
:1056630080409002DEE0FF9002E8E06F7037900226
:10567300DDE0FF9002DCE0C39FFFE49400FE7C00CA
:105683007DA71240A39002E9E0FD1240B5EF249CF0
:10569300FFEE3402F99002DFE0FBA3E0FAA3E0C9D6
:1056A3008FF01241B99002DFE0FBA3E0FAA3E0F927
:1056B300124156D394EAE5F094034008740375F05D
:1056C300EA1241819002E8E070109002E2E0FBA34D
:1056D300E0FAA3E0F9E4F5F080139002E9E0FF902B
:1056E30002E2E0FBA3E0FAA3E0F9E48FF01241B990
:1056F3009002E8E0FF9002E5E0FBA3E0FAA3E0F903
:10570300E48FF00241B97B017A0679009002C7F079
:105713009002C2EEF0A3EFF0A3EBF0A3EAF0A3E94B
:10572300F090034174AAF09003427455F0E49002A0
:10573300C8F0A3F09002C7E0FFA3E0FCA3E0FDC321
:105743009FEC940040030258557806CEECCEEDC38F
:1057530033CE33CED8F9FF9002C3E02FFF9002C2BD
:10576300E03EFE12655BEF60277F017E00126C5402
:1057730078069002C8E0FEA3E0C333CE33CED8F957
:10578300FF9002C3E02FFF9002C2E03EFE12655B72
:105793009002C8E0FCA3E0FD7806CEECCEC333CE86
:1057A30033CED8F9FF9002C3E02FFF9002C2E03E50
:1057B300FEC0E0EFC0E07806CEECCEEDC333CE33CF
:1057C300CED8F9FF9002C4A3E0FAA3E02FF9EA3E92
:1057D300FACCEACCCDE9CDD0E0FFD0E0FE7B40129D
:1057E300605EEF60597F017E00126C549002C8E046
:1057F300FCA3E0FD7806CEECCEC333CE33CED8F98E
:10580300FF9002C3E02FFF9002C2E03EFEC0E0EF34
:10581300C0E07806CEECCEEDC333CE33CED8F9FF5D
:105823009002C4A3E0FAA3E02FF9EA3EFACCEACC53
:10583300CDE9CDD0E0FFD0E0FE7B4012605E900268
:10584300C9E004F060030257379002C8E004F00295
:105853005737E4900341F0900342F09002C8F0A35D
:10586300F09002C7E075F040A4FFA3E0FCA3E0FDC5
:10587300C39FEC95F0503A9002C4E0FBA3E0FAA377
:10588300E0F98D828C83124042FF9002C3E02DFD2C
:105893009002C2E03C8D82F583E4936F60037F0145
:1058A300229002C9E004F070B89002C8E004F080CE
:1058B300B07F00229002C0EFF0C394084003025A65
:1058C30045E0F925E0FEC3E494009002C2F074F2CF
:1058D3009E9002C1F0900111E0FEA3E0FF24FEFDC3
:1058E300EE3401FCC3ED9FFDEC9EFC9002C1E0FA97
:1058F300A3E0FB2DFDEA3C8D82F583E493FD741355
:1059030029F582E43401F583EDF0900112E024FFE0
:10591300FD900111E03401FCC3ED9FFFEC9ECF2B02
:10592300CF3A8F82F583E493B401289002C0E0FF5D
:10593300900000F09002C1E0FDA3E0900111CDF0D2
:10594300A3EDF0EFFEE42400FFEE34DC90026CF0F4
:10595300A3EFF0E49002C3F09002C1E0FEA3E0FFE6
:105963009002C0E0C43354E02411F582E43400F51E
:1059730083C083C0829002C3E0FDD082D08375F0E0
:105983000212438DEEF0A3EFF09002C1E0FEA3E01C
:10599300FFF5828E83E493FBED2401FDE433FCEDFC
:1059A3006B7001EC600280768F828E83740193FFAB
:1059B3006003B408089002C2E024028031EFB4010E
:1059C300089002C2E024038025EF64026004EFB470
:1059D30006089002C2E024048014EF64046009EF17
:1059E30064056004EFB407109002C2E02406F0904F
:1059F30002C1E03400F0803CEFB403229002C1E026
:105A0300FEA3E0F5828E837402932403FFE433FE46
:105A13009002C2E02FF09002C1E03EF080169002A7
:105A2300C0E0C43354E02411F582E43400F583E488
:105A3300F0A3F0229002C3E004F0E06410600302DC
:105A4300595B22900111E0FEA3E0FF24E0F582EE12
:105A53003401F583E493C4540F9002C8F0EF24E2B9
:105A6300F582EE3401F583E4939002CBF0900111BB
:105A7300A3E024E5F582EE3401F583E4939002CEAE
:105A8300F0EF24E8F582EE3401F583E493C4540F78
:105A93009002C9F0900111A3E0FF24EAF582EE34ED
:105AA30001F583E4939002CCF0EF24EDF582EE341C
:105AB30001F583E4939002CFF0900111A3E024D485
:105AC300F582EE3401F583E493FDC4540F9002CACA
:105AD300F0EF24D6F582EE3401F583E4939002CD02
