:080000000263FA02677E32324E
:07000B00026C000100011866
:100013000200067B017A0679009002C77401F07F23
:06002300007ED80257A583
:0D002B0002000775A15575A1AA43B110226E
:03003B000267DB7E
:10004300022E54EF4E601505A105A105A105A105DA
:0D005300A105A105A1EF1F70EA1E80E722A4
:10006300026655EF6013E4900280F0A3F090027EE5
:10007300F0A3F090027C020507900111E0FEA3E0DB
:1000830024D5F582EE3401F583E493FD540175F034
:1000930002A424FFFEE5F034FF9002D2F0A3CEF0D9
:1000A300EDC313540175F002A424FFFEE5F034FF01
:1000B300A3F0A3CEF0900111E0FEA3E024D5F582D6
:1000C300EE3401F583E4931313543F20E00302025B
:1000D30070900153E0FEA3E0FF900197E0FCA3E0E2
:1000E300FDC39FEC9E9002D2E0FE503CA3E0FFEEE6
:1000F300C0E0EFC0E0900153E0FEA3E0FFC3ED9F3B
:10010300FFEC9EFE3395E0FDFCE4FB7A10F9F81258
:10011300426AECC0E0EDC0E0EEC0E0EFC0E0900169
:1001230053E0FEA3E0FF8049A3E0FFEEC0E0EFC091
:10013300E0900153E0FEA3E0FF900197E0FCA3E011
:10014300C39FFFEC9EFE3395E0FDFCE4FB7A10F9C0
:10015300F812426AECC0E0EDC0E0EEC0E0EFC0E0B0
:10016300900153E0FEA3E0FFC374FF9FFF740F9E53
:10017300FECBEFCBCAEECAE4F9F8D0E0FFD0E0FE45
:10018300D0E0FDD0E0FC126A0CCDEFCDCCEECCD0AC
:10019300E0FFD0E0FE1241359002D2EEF0A3EFF083
:1001A300900155E0FEA3E0FF900199E0FCA3E0FD80
:1001B300C39FEC9E9002D4E0FE503CA3E0FFEEC050
:1001C300E0EFC0E0900155E0FEA3E0FFC3ED9FFF29
:1001D300EC9EFE3395E0FDFCE4FB7A10F9F8124245
:1001E3006AECC0E0EDC0E0EEC0E0EFC0E090015586
:1001F300E0FEA3E0FF8049A3E0FFEEC0E0EFC0E034
:10020300900155E0FEA3E0FF900199E0FCA3E0C359
:100213009FFFEC9EFE3395E0FDFCE4FB7A10F9F8BA
:1002230012426AECC0E0EDC0E0EEC0E0EFC0E09047
:100233000155E0FEA3E0FFC374FF9FFF740F9EFE12
:10024300CBEFCBCAEECAE4F9F8D0E0FFD0E0FED0A2
:10025300E0FDD0E0FC126A0CCDEFCDCCEECCD0E0CB
:10026300FFD0E0FE1241359002D4020417900153EF
:10027300E0FEA3E0FF900197E0FCA3E0FDC39FEC49
:100283009E9002D4E0FE503CA3E0FFEEC0E0EFC03E
:10029300E0900153E0FEA3E0FFC3ED9FFFEC9EFE61
:1002A3003395E0FDFCE4FB7A10F9F812426AECC0E6
:1002B300E0EDC0E0EEC0E0EFC0E0900153E0FEA34C
:1002C300E0FF8049A3E0FFEEC0E0EFC0E090015300
:1002D300E0FEA3E0FF900197E0FCA3E0C39FFFECE7
:1002E3009EFE3395E0FDFCE4FB7A10F9F812426AB6
:1002F300ECC0E0EDC0E0EEC0E0EFC0E0900153E001
:10030300FEA3E0FFC374FF9FFF740F9EFECBEFCBF2
:10031300CAEECAE4F9F8D0E0FFD0E0FED0E0FDD0A9
:10032300E0FC126A0CCDEFCDCCEECCD0E0FFD0E0F8
:10033300FE1241359002D4EEF0A3EFF0900155E0A8
:10034300FEA3E0FF900199E0FCA3E0FDC39FEC9EB8
:100353009002D2E0FE5043A3E0FFEEC0E0EFC0E026
:10036300900155E0FEA3E0FFC3ED9FFFEC9EFEC3AB
:10037300E49FFFE49EFE3395E0FDFCE4FB7A10F975
:10038300F812426AECC0E0EDC0E0EEC0E0EFC0E07E
:10039300900155E0FEA3E0FF8050A3E0FFEEC0E034
:1003A300EFC0E0900155E0FEA3E0FF900199E0FC6F
:1003B300A3E0C39FFFEC9EFEC3E49FFFE49EFE33D6
:1003C30095E0FDFCE4FB7A10F9F812426AECC0E018
:1003D300EDC0E0EEC0E0EFC0E0900155E0FEA3E029
:1003E300FFC374FF9FFF740F9EFECBEFCBCAEECA11
:1003F300E4F9F8D0E0FFD0E0FED0E0FDD0E0FC125D
:100403006A0CCDEFCDCCEECCD0E0FFD0E0FE1241B4
:10041300359002D2EEF0A3EFF09002D4E0FEA3E019
:10042300FFD39400EE648094804002800F9002D446
:10043300E0FEA3E0FFC3E49FFFE49EFE9002D2E050
:10044300FCA3E0FDD39400EC648094804002800F11
:100453009002D2E0FCA3E0FDC3E49DFDE49CFCD349
:10046300ED9FEE6480F8EC64809840259002D2E022
:10047300FEA3E0FFD39400EE6480948040028034B6
:100483009002D2E0FEA3E0FFC3E49FFFE49EFE8060
:10049300239002D4E0FEA3E0FFD39400EE648094A3
:1004A300804002800F9002D4E0FEA3E0FFC3E49FEC
:1004B300FFE49EFECAEECACBEFCB900111E0FEA390
:1004C300E024DCF582EE3401F583E493FF7E007CC7
:1004D300007D15124135C3EB9FFFEA9EFE9002D6C5
:1004E300F0A3EFF0D39400EE64809480501AE4906C
:1004F3000284F0A3F0900282F0A3F0900280F0A3B4
:10050300F090027EF0A3F022900111E0FEA3E0FF41
:1005130024D4F582EE3401F583E493540F24FE7062
:1005230003020710147003020A45147003020F3B01
:100533002403600302148390027CE07002A3E06052
:100543000302071AEF24DEF582EE3401F583E49308
:10055300701D900111E0FEA3E024DFF582EE34016B
:10056300F583E493700990027CF0A3F002069C905B
:100573000111E0FEA3E0FF24DEF582EE3401F583F2
:10058300E493FBEF24DFF582EE3401F583E493C3B8
:100593009BFD3395E0FC78039002D6E0FEA3E0CE0A
:1005A300A2E713CE13D8F8FF124135EEFD3395E0E1
:1005B300FCEB25E0FFE433FEED2FFFEC3E9002D68B
:1005C300F0A3EFF0900282E0FEA3E0FFD39400EEED
:1005D300648094804002800F900282E0FEA3E0FFDB
:1005E300C3E49FFFE49EFE9002D6E0FCA3E0FDD3AC
:1005F3009FEE6480F8EC648098500A900282ECF0DD
:10060300A3EDF0806B900111E0FEA3E024DDF58201
:10061300EE3401F583E4932401FDE433FC9002827C
:10062300E0FEA3E0FFC39002D7E09FFF9002D6E075
:100633009EFE12419CEEF0A3EFF04E7010900283E9
:10064300E004F0701C900282E004F080149002D663
:10065300E0FEA3E0FF900283E02FF0900282E03EF1
:10066300F0900282E0FFA3E09002D6CFF0A3EFF078
:100673009002D6E0FEA3E0FFC374649FFFE49EFEF6
:1006830090027CF0A3EFF0D39400EE64809480504A
:100693000890027CE4F0A304F09002D2E0FEA3E011
:1006A300FFA3E0FCA3E0FDD39FEE6480F8EC64803D
:1006B300984026E49FFFE49EFED3ED9FEE6480F80E
:1006C300EC648098900111E0FE4007A3E024D70278
:1006D3000A36A3E024D9020A369002D2E0FEA3E050
:1006E300FFC3E49FFFE49EFED39002D5E09FEE6438
:1006F30080F89002D4E0648098900111E0FE4006F7
:10070300A3E024DA8004A3E024D8020A3690027C12
:10071300E07002A3E0600F90027DE024FFF09002FE
:100723007CE034FFF022900111E0FEA3E0FF24DE21
:10073300F582EE3401F583E4937017EF24DFF5823D
:10074300EE3401F583E493700990027CF0A3F00288
:10075300087F900111E0FEA3E0FF24DEF582EE3472
:1007630001F583E493FBEF24DFF582EE3401F58397
:10077300E493C39BFD3395E0FC78039002D6E0FE3F
:10078300A3E0CEA2E713CE13D8F8FF124135EEFD56
:100793003395E0FCEB25E0FFE433FEED2FFFEC3E69
:1007A3009002D6F0A3EFF0900282E0FEA3E0FFD325
:1007B3009400EE648094804002800F900282E0FEF9
:1007C300A3E0FFC3E49FFFE49EFE9002D6E0FCA3F8
:1007D300E0FDD39FEE6480F8EC648098500A9002A9
:1007E30082ECF0A3EDF0806B900111E0FEA3E02416
:1007F300DDF582EE3401F583E4932401FDE433FC5B
:10080300900282E0FEA3E0FFC39002D7E09FFF9037
:1008130002D6E09EFE12419CEEF0A3EFF04E701064
:10082300900283E004F0701C900282E004F08014D4
:100833009002D6E0FEA3E0FF900283E02FF0900247
:1008430082E03EF0900282E0FFA3E09002D6CFF078
:10085300A3EFF09002D6E0FEA3E0FFC374649FFF12
:10086300E49EFE90027CF0A3EFF0D39400EE64804C
:100873009480500890027CE4F0A304F09002D2E04C
:10088300FEA3E0FF7C007D03124135CAEECACBEF25
:10089300CBA3E0FEA3E0FF7D07124135D3EF9BEA34
:1008A3006480F8EE648098403C9002D2E0FEA3E0BE
:1008B300FFE49FFFE49EFE7D03124135CAEECACBDF
:1008C300EFCBA3E0FEA3E0FF7D07124135D3EF9BFF
:1008D300EA6480F8EE648098400B900111E0FEA377
:1008E300E024D780689002D2E0FEA3E0FF7C007D85
:1008F30003124135CAEECACBEFCBA3E0FEA3E0FF60
:100903007D07124135C3EF9BEA6480F8EE6480985B
:10091300504A9002D2E0FEA3E0FFC3E49FFFE49EAF
:10092300FE7D03124135CAEECACBEFCBA3E0FEA393
:10093300E0FF7D07124135C3EF9BEA6480F8EE6464
:1009430080985018900111E0FEA3E024D8F582EEC0
:100953003401F583E493FD7FFF125F6C9002D2E0D4
:10096300FEA3E0FF7C007D07124135CAEECACBEF40
:10097300CBA3E0FEA3E0FF7D03124135D3EF9BEA57
:100983006480F8EE648098403C9002D2E0FEA3E0DD
:10099300FFE49FFFE49EFE7D07124135CAEECACBFA
:1009A300EFCBA3E0FEA3E0FF7D03124135C3EF9B32
:1009B300EA6480F8EE648098500B900111E0FEA386
:1009C300E024D9806E9002D2E0FEA3E0FF7C007D9C
:1009D30007124135CAEECACBEFCBA3E0FEA3E0FF7B
:1009E3007D03124135C3EF9BEA6480F8EE6480987F
:1009F30040030214839002D2E0FEA3E0FFC3E49F0E
:100A0300FFE49EFE7D07124135CAEECACBEFCBA3AE
:100A1300E0FEA3E0FF7D03124135D3EF9BEA648040
:100A2300F8EE6480985003021483900111E0FEA352
:100A3300E024DAF582EE3401F583E493FD7FFF02CF
:100A43005F6C900111E0FEA3E024DFF582EE340138
:100A5300F583E493FB3395E0FA78039002D2E0FE4A
:100A6300A3E0CEA2E713CE13D8F8FFCDEBCDCCEAAB
:100A7300CC1241357804EFCEA2E713CE13D8F8FF9A
:100A83009002D2EEF0A3EFF07803A3E0FEA3E0CE52
:100A9300A2E713CE13D8F8FFCDEBCDCCEACC1241AD
:100AA300357804EFCEA2E713CE13D8F8FF9002D423
:100AB300EEF0A3EFF0900282E0FEA3E0FFD39400F8
:100AC300EE648094804002800F900282E0FEA3E0F7
:100AD300FFC3E49FFFE49EFE9002D2E0FCA3E0FD8F
:100AE300D39400EC648094804002800F9002D2E0A3
:100AF300FCA3E0FDC3E49DFDE49CFCD3ED9FEE6409
:100B030080F8EC6480985002802E900282E0FEA36D
:100B1300E0FFD39400EE648094804002800F900243
:100B230082E0FEA3E0FFC3E49FFFE49EFED3EF94C5
:100B330020EE6480948340129002D2E0FFA3E09001
:100B43000282CFF0A3EFF0020C69900282E0FEA3D1
:100B5300E0FFD39400EE6480948040028007C3E4F6
:100B63009FFFE49EFECCEECCCDEFCD900111E0FAD9
:100B7300A3E0FB24DEF582EA3401F583E49375F008
:100B83000AA4FFD3ED9FE5F06480F8EC64809840FD
:100B93005DEB24DDF582EA3401F583E4932401FD62
:100BA300E433FC900282E0FEA3E0FF9002D2E0FA7D
:100BB300A3E0FBC39FFFEA9EFE12419C9002D6EE88
:100BC300F0A3EFF04E6003020C55C3EA64809480F7
:100BD30050077EFF7FFF020C5DD3EB9400EA648035
:100BE30094807E0040047F0180027F00806C90012E
:100BF30011E0FEA3E024DDF582EE3401F583E493F6
:100C030075F00AA42401FDE435F0FC900282E0FEB5
:100C1300A3E0FF9002D2E0FAA3E0FBC39FFFEA9EAA
:100C2300FE12419C9002D6EEF0A3EFF04E7023C368
:100C3300EA6480948050067EFF7FFF8013D3EB9499
:100C430000EA648094807E0040047F0180027F007C
:100C530080089002D6E0FEA3E0FF900283E02FF02D
:100C6300900282E03EF0900284E0FEA3E0FFD39482
:100C730000EE648094804002800F900284E0FEA323
:100C8300E0FFC3E49FFFE49EFE9002D4E0FCA3E0F8
:100C9300FDD39400EC648094804002800F9002D4D2
:100CA300E0FCA3E0FDC3E49DFDE49CFCD3ED9FEEDB
:100CB3006480F8EC6480985002802E900284E0FEF9
:100CC300A3E0FFD39400EE648094804002800F90F1
:100CD3000284E0FEA3E0FFC3E49FFFE49EFED3EFA4
:100CE3009420EE6480948340129002D4E0FFA3E04A
:100CF300900284CFF0A3EFF0020E15900284E0FE81
:100D0300A3E0FFD39400EE6480948040028007C385
:100D1300E49FFFE49EFECCEECCCDEFCD900111E03D
:100D2300FAA3E0FB24DEF582EA3401F583E493754C
:100D3300F00AA4FFD3ED9FE5F06480F8EC6480989B
:100D4300405AEB24DDF582EA3401F583E493240170
:100D5300FDE433FC900284E0FEA3E0FF9002D4E0C4
:100D6300FAA3E0FBC39FFFEA9EFE12419CA3EEF0B1
:100D7300A3EFF04E6003020E01C3EA648094805037
:100D8300067EFF7FFF807FD3EB9400EA648094802C
:100D93007E0040047F0180027F00806A900111E0A1
:100DA300FEA3E024DDF582EE3401F583E49375F0D0
:100DB3000AA42401FDE435F0FC900284E0FEA3E0E4
:100DC300FF9002D4E0FAA3E0FBC39FFFEA9EFE126A
:100DD300419CA3EEF0A3EFF04E7023C3EA6480942A
:100DE3008050067EFF7FFF8013D3EB9400EA64807C
:100DF30094807E0040047F0180027F00800890027F
:100E0300D6E0FEA3E0FF900285E02FF0900284E09D
:100E13003EF0900282E0FEA3E0FF90027FE02FF01D
:100E230090027EE03EF0900284E0FEA3E0FF900299
:100E330081E02FF0900280E03EF090027EE0FEA37E
:100E4300E0FFD39440EE64809460400280047EE02F
:100E53007F40C3EF94C0EE6480949F501990027E4C
:100E6300E0FEA3E0FF9440EE648094604002800AB9
:100E73007EE07F4080047E1F7FC090027EEEF0A361
:100E8300EFF0A3E0FEA3E0FFD39440EE6480946010
:100E9300400280047EE07F40C3EF94C0EE64809400
:100EA3009F5019900280E0FEA3E0FF9440EE64801F
:100EB30094604002800A7EE07F4080047E1F7FC0F2
:100EC300900280EEF0A3EFF090027EE0FCA3E0FD41
:100ED3007806CEECCECEA2E713CE13D8F89002F16B
:100EE300F07806900280E0FEA3E0CEA2E713CE13D3
:100EF300D8F8F404F99002F2F09002F1E0FF339590
:100F0300E0FE7806EFC333CE33CED8F9FFC3ED9FAF
:100F1300FFEC9E90027EF0A3EFF0E9FF3395E0FE35
:100F23007806EFC333CE33CED8F9FF900281E02F9A
:100F3300F0900280E03EF02290027EE0FEA3E0FF0C
:100F43009002D2E0FCA3E0FDC39FFFEC9EFE78027B
:100F5300EFCEA2E713CE13D8F8FF9002D6EEF0A39C
:100F6300EFF04E7023C3EC6480948050067EFF7FC5
:100F7300FF801DD3ED9400EC648094807E004004D8
:100F83007F0180027F0080089002D6E0FEA3E0FF8D
:100F930090027FE02FF090027EE03EF0900280E02E
:100FA300FEA3E0FF9002D4E0FCA3E0FDC39FFFECAF
:100FB3009EFE7802EFCEA2E713CE13D8F8FF90027D
:100FC300D6EEF0A3EFF04E7023C3EC648094805010
:100FD300067EFF7FFF801DD3ED9400EC6480948038
:100FE3007E0040047F0180027F0080089002D6E0EB
:100FF300FEA3E0FF900281E02FF0900280E03EF03C
:101003009002D2E0FAA3E0FBD39400EA64809480D8
:10101300900111E0FE4006A3E024DA8004A3E0245B
:10102300D9F582EE3401F583E493FF900282E4F074
:10103300A3EFF0D3ED9400EC64809480900111E071
:10104300FE4006A3E024D78004A3E024D8F582EE73
:101053003401F583E493FF900284E4F0A3EFF0906E
:101063000282E0FEA3E0FFC3941EEE6480948040FE
:1010730017D3EF9427EE64809480500CEF25E0FFA4
:10108300EE33FEEF24C68027900282E0FEA3E0FF4A
:10109300C39459EE648094804022D3EF9462EE644B
:1010A3008094805017EF25E0FFEE33FEEF244FFFCF
:1010B300EE34FF900282F0A3EFF08007E490028207
:1010C300F0A3F0900284E0FEA3E0FFC3941EEE645D
:1010D3008094804017D3EF9427EE64809480500C63
:1010E300EF25E0FFEE33FEEF24C68027900284E075
:1010F300FEA3E0FFC39459EE648094804022D3EFB3
:101103009462EE648094805017EF25E0FFEE33FE87
:10111300EF244FFFEE34FF900284F0A3EFF080073B
:10112300E4900284F0A3F0D3EB9401EA648094701A
:10113300400A9002D2E0FEA3E0FF80047EF07F012C
:10114300C3EF94FFEE6480948F50199002D2E0FEB7
:10115300A3E0FF9401EE648094704002800A7EF065
:101163007F0180047E0F7FFF9002D2EEF0A3EFF0A9
:10117300D3ED9401EC648094704008A3E0FEA3E0F7
:10118300FF80047EF07F01C3EF94FFEE6480948FB1
:1011930050199002D4E0FEA3E0FF9401EE64809422
:1011A300704002800A7EF07F0180047E0F7FFF90F3
:1011B30002D4EEF0A3EFF0900282E0FEA3E0FFCBB7
:1011C300EFCBCAEECAEA3395E0F9F890027EE0FE6F
:1011D300A3E0FFEE3395E0FDFC12426AC8ECC8C9F8
:1011E300EDC9CAEECACBEFCB900111E0FEA3E02418
:1011F300DFF582EE3401F583E493FFE4FCFDFE1298
:10120300426AE47B7DFAF9F8126A0C900282EEF0EE
:10121300A3EFF0A3E0FEA3E0FFEE3395E0FDFC12A5
:101223004387C8ECC8C9EDC9CAEECACBEFCB90025D
:1012330080E0FEA3E0FFEE3395E0FDFC12426AC8B6
:10124300ECC8C9EDC9CAEECACBEFCB900111E0FEE1
:10125300A3E024DFF582EE3401F583E493FFE4FC9D
:10126300FDFE12426AE47B7DFAF9F8126A0C9002E1
:1012730084EEF0A3EFF0900111E0FEA3E024DDF58E
:1012830082EE3401F583E493FFE4FCFDFE7BFF7AF9
:101293007FF9F812426AE47B32FAF9F8126A0C9089
:1012A30002D2EEF0A3EFF0900111E0FEA3E024DE02
:1012B300F582EE3401F583E493FFE4FCFDFE7BFF4E
:1012C3007A7FF9F812426AE47B32FAF9F8126A0C6F
:1012D3009002D4EEF0A3EFF0D3900283E094009059
:1012E3000282E06480948040479002D2E0FEA3E053
:1012F300FFCBEFCBCAEECAEA3395E0F9F89002824E
:10130300E0FEA3E0FFEE3395E0FDFCEB2FFFEA3EAA
:10131300FEE93DFDE83CFCE47BFF7A7FF9F8C3126C
:101323004395500C9002D2747FF0A374FFF0805564
:10133300C3900282E06480948050369002D2E0FE33
:10134300A3E0FFCBEFCBCAEECAEA3395E0F9F890FE
:101353000282E0FEA3E0FFEE3395E0FDFCEB2FEA13
:101363003EE93DE83C335009E49002D2F0A3F0801B
:1013730014900282E0FEA3E0FF9002D3E02FF090EE
:1013830002D2E03EF0D3900285E09400900284E024
:101393006480948040479002D4E0FEA3E0FFCBEF4B
:1013A300CBCAEECAEA3395E0F9F8900284E0FEA3D3
:1013B300E0FFEE3395E0FDFCEB2FFFEA3EFEE93D57
:1013C300FDE83CFCE47BFF7A7FF9F8C312439550B8
:1013D3000C9002D4747FF0A374FFF08056C3900284
:1013E30084E06480948050379002D4E0FEA3E0FF51
:1013F300CBEFCBCAEECAEA3395E0F9F8900284E06A
:10140300FEA3E0FFEE3395E0FDFCEB2FFFEA3EE9A0
:101413003DE83C335009E49002D4F0A3F0801490EB
:101423000284E0FEA3E0FF9002D5E02FF09002D407
:10143300E03EF09002D2E0FCA3E0FDCFEDCF9002BE
:10144300F7F0ECFFEFA3F09002D4E0FCA3E0FDCFB4
:10145300EDCF9002F9F0ECFFEFA3F09002F67411D8
:10146300F090027CE07002A3E07F0070027F017EB7
:101473000090027CEEF0A3EFF025E0149002F1F06F
:1014830022E49002D2F0A374FFF0E4A3F0A3F0EF00
:10149300603A90026CE0FEA3E0F5828E8374F493CD
:1014A300D39400500F7E007F107D007B017A027978
:1014B3005C12445890026CE0FEA3E0F5828E8374C4
:1014C300F493D394015005E4900206F09001EDA348
:1014D300A3A3E0FF900207E0FEC3EF9EC394145062
:1014E30003022178E02414F0900206E0540FFFBFBA
:1014F300021A7403F09001EDA3A3E0FFA3E09002AE
:1015030004CFF0A3EFF090020874FFF0900206E01E
:10151300540FFFBF03349001EDA3A3E0FEA3E0FF4C
:10152300900204E0FCA3E0FDC3EF9DFFEE9CFE9060
:10153300026CE0FCA3E0F5828C83C374FB939F747D
:10154300FA939E5005E4900206F0900206E0540FD1
:10155300600302166B04F09001EDA3A3E0FFA3E088
:10156300900204CFF0A3EFF0E4900208F090026C35
:10157300E0FEA3E0F5828E8374F693FF7009900278
:101583000A74C8F002166BEFD39404501F90026CD8
:10159300E0FEA3E0F5828E8374F6931475F008A43D
:1015A300FD74F5932D90020AF002166B90026CE025
:1015B300FEA3E0FFF5828E8374F693B4053C90029C
:1015C3000A7464F0EF2490FFE43EFECAEECAC9EF4A
:1015D300C97BFFEBC0E0EAC0E0E9C0E0C8743CC8E7
:1015E300CC7402CCCD7401CDD0E0F9D0E0FAD0E0D8
:1015F300FB7E007F101240AE806E90026CE0FEA373
:10160300E0F5828E8374F693FDB4060A90020AE035
:1016130004541FF08052EDB4072190020AE024081D
:10162300F0E0FFC394274004E4F0803CEFC3942030
:10163300403690020AE024E1F0802D90026CE0FE37
:10164300A3E0F5828E8374F693B4081C1268E4ADAC
:101653008AEF6DFF7C007D2012419C8D1890020A59
:10166300E0651860E7E518F0900206E0540F6401A6
:1016730070459001EDA3A3E0FEA3E0FF900204E018
:10168300FCA3E0FDC3EF9DFDEE9CFC90026CE0FA31
:10169300A3E0F5828A83C374F9939D74F8939C50F5
:1016A3001690020AE064C8600E900204EEF0A3EF05
:1016B300F0900208E004F090020AE0FFC394205087
:1016C30034EF75F010A424A6F9747035F0FA7BFF9B
:1016D300EBC0E0EAC0E0E9C0E0C8743CC8CC7402E7
:1016E300CCCD7401CDD0E0F9D0E0FAD0E0FB7E00A0
:1016F3007F101240AE90026CE0FEA3E0FFCAEECA78
:10170300C9EFC97BFFEBC0E0EAC0E0E9C0E0C87401
:101713000CC8CC7402CCCD7401CDD0E0F9D0E0FA82
:10172300D0E0FB7E007F301240AEE4F51790026CF0
:10173300E0FEA3E0F5828E8374F793700302187FB3
:10174300E51775F003A4240CF582E43402F583E075
:10175300FFE51775F003A4240DF582E43402F58345
:10176300E0FDE51775F003A4240EF582E43402F5D9
:1017730083E0C0E09002DF7401F0A37402F0A3746D
:10178300D6F0A37401F0A37402F0A374D8F0A37489
:1017930001F0A37402F0A374DAF0D0E0FB1255E871
:1017A30090026CE0FEA3E0F5828E8374F793FFCB87
:1017B300EFCBE4FAF9F89001EDE0FCA3E0FDA3E040
:1017C300FEA3E0FF1242F5E47BEA7A03F9F8124242
:1017D300F5CCE8CCCDE9CDCEEACECFEBCF9002D796
:1017E300E02FF09002D6E03EF0C3A3E094EA90022B
:1017F300D6E09403400CA3E02416F09002D6E03424
:10180300FCF0E51775F003A4FFAEF0240CF97402A5
:101813003EFA7B01EBC0E0EAC0E0E9C0E0740D2FC3
:10182300F974023EFAEBC0E0EAC0E0E9C0E0740EEE
:101833002FF974023EFA9002E8EBF0A3EAF0A3E971
:10184300F0D0E0F9D0E0FAD0E09002E5F0A3EAF0BE
:10185300A3E9F0D0E0F9D0E0FAD0E09002E2F0A3FF
:10186300EAF0A3E9F09002D6E0FEA3E0FFA3E0FCD8
:10187300A3E0FDA3E0FAA3E0FB12509390020AE079
:1018830064C86003021AE390026CE0FEA3E0F582F1
:101893008E8374F893FE74F993FF4E7003021AE378
:1018A300D3EF94E8EE9403400280047E037FE87C48
:1018B300037DE8124147CAEECACBEFCB9001EDA3FB
:1018C300A3E0FEA3E0FF900204E0FCA3E0FDC3EF6E
:1018D3009DFFEE9CFECDEBCDCCEACC1241477C03C1
:1018E3007DEA1241479002DAECF0A3EDF09002DAC0
:1018F300E0FEA3E0FFC394F5EE9401402B74E99F4F
:10190300F074039E9002DAF090026CE0FEA3E0F51F
:10191300828E8374FD93FF9002D4E4F0A3EFF090E2
:101923000206E04480F0802D90026CE0FEA3E0F517
:10193300828E8374FC93FF9002D4E4F0A3EFF090C3
:101943000206E0B4810FE517B40F037402F0E490CC
:1019530002DAF0A3F0900206E0540F64016007E49A
:101963009002DAF0A3F09002D4E07002A3E0705D7D
:10197300F51875F003E517A42518F582E435F0F59D
:1019830083E582240CF582E5833402F583E0FF7E50
:10199300009002DAE0FCA3E0FD12442BE47BF47A2E
:1019A30001F9F81242F575F003E517A42518F5823D
:1019B300E435F0F583E582240CF582E5833402F502
:1019C30083EFF00518E518B403A8021ADA9002D4DD
:1019D300E07004A3E064016003021A679002DAE096
:1019E300FEA3E0FF7C007DFF12442BE47BF47A012D
:1019F300F9F81242F574262FF582746F3EF583E4ED
:101A030093FF9002DAE4F0A3EFF0E4F51875F00326
:101A1300E517A42518F582E435F0F583E582240C57
:101A2300F582E5833402F583E0FF7E009002DAE07D
:101A3300FCA3E0FD1241357C007DFF12414775F0A8
:101A430003E517A42518F582E435F0F583E5822430
:101A53000CF582E5833402F583EFF00518E518B43D
:101A630003AB80739002DAE0FEA3E02431F58274C5
:101A73006D3EF583E493FF9002DAE4F0A3EFF0E424
:101A8300F51875F003E517A42518F582E435F0F58C
:101A930083E582240CF582E5833402F583E0FF7E3F
:101AA300009002DAE0FCA3E0FD1241357C007DFFEB
:101AB30012414775F003E517A42518F582E435F0C4
:101AC300F583E582240CF582E5833402F583EFF098
:101AD3000518E518B403AB9002D27401F0021CC3DD
:101AE30090020AE064C87003021CC3743C2517F516
:101AF30082E43402F583E0FF900208E0FEEF6E60BB
:101B030003021C019002D204F090026CE0FEA3E0F9
:101B1300F5828E8374FC93FFC3741F9FFFE49400CC
:101B2300FE9002D4F0A3EFF0D3940AEE6480948085
:101B3300401D9002D4E0FEA3E0FF7C007D0A124129
:101B430035EF24A6FFEE34FF9002D4F0A3EFF07438
:101B53005C2517F582E43402F583E0FFC374FF9F2D
:101B6300FFE49400FE9002D4E0FCA3E0FDC39FEEEB
:101B73006480F8EC6480985013CFEDCF745C251724
:101B8300F582E43402F583E02FF0800E745C2517B0
:101B9300F582E43402F58374FFF0E4F51875F0037D
:101BA300E517A42518F582E435F0F583E582240CC6
:101BB300F582E5833402F583E0FF7E00745C25172C
:101BC300F582E43402F583E0906F2693FD7C0012E6
:101BD30041357DFF12414775F003E517A42518F53C
:101BE30082E435F0F583E582240CF582E583340243
:101BF300F583EFF00518E518B403A2021CC39002A5
:101C03006CE0FEA3E0F5828E8374FD932401FDE472
:101C130033FC745C2517F582E43402F583E0FBFFA3
:101C23007E0012419C9002D4EEF0A3EFF0EB601122
:101C33009002D4E07002A3E070079002D4F0A304F2
:101C4300F0745C2517F582E43402F583C083C08207
:101C5300E0FF9002D4A3E0FDCEEDCEC3EF9ED08291
:101C6300D083F0E4F51875F003E517A42518F58281
:101C7300E435F0F583E582240CF582E5833402F53F
:101C830083E0FF7E00745C2517F582E43402F5835C
:101C9300E0FD7C001241357DFF12414775F003E5FD
:101CA30017A42518F582E435F0F583E582240CF5B5
:101CB30082E5833402F583EFF00518E518B403A633
:101CC30074402517F582E43401F583E07003021DA7
:101CD3005C90026CE0FCA3E02517F582E43CF583FD
:101CE3007460932401FDE433FC744C2517F582E4FE
:101CF3003402F583E0FBFFC374FF9FFFE49400FE0F
:101D030012419C9002D4EEF0A3EFF0C374FF9B60EA
:101D1300119002D4E07002A3E070079002D4F0A304
:101D230004F09002D4A3E0FF744C2517F582E43449
:101D330002F583E02FF090026CE0FCA3E02517F599
:101D430082E43CF583748093FF9002D3E0D39F50E9
:101D530003021E1CEFF0021E1C90026CE0FCA3E0C9
:101D63002517F582E43CF5837470932401FDE43375
:101D7300FC744C2517F582E43402F583E0FBFF7E07
:101D83000012419C9002D4EEF0A3EFF0EB601190AF
:101D930002D4E07002A3E070079002D4F0A304F031
:101DA300744C2517F582E43402F583C083C082E0C6
:101DB300FF9002D4A3E0FDCEEDCEC3EF9ED082D040
:101DC30083F0E4F51875F003E517A42518F582E40C
:101DD30035F0F583E582240CF582E5833402F5833F
:101DE300E0FF900209E0FEEF8EF0A4FFAEF07C006E
:101DF3007DFF12414775F003E517A42518F582E42A
:101E030035F0F583E582240CF582E5833402F5830E
:101E1300EFF00518E518B403ACE4F518E51775F011
:101E230003A47C002518FFEC35F0FE90026CE0FC67
:101E3300A3E02FF582EC3EF583743093FF75F00336
:101E4300E517A42518F582E435F0F583E582240C23
:101E5300F582E5833402F583E0FDC3EF9DFFE4944F
:101E630000FE744C2517F582E43402F583E0FD7C13
:101E7300001241357DFF12419C75F003E517A4253F
:101E830018F582E435F0F583E582240CF582E583C9
:101E93003402F583E02FF00518E5186403600302AC
:101EA3001E1F0517E517C394105003021730900245
:101EB300D2E0700D900206E0540FFFBF01037402DD
:101EC300F0900209E0FB9002D3E0FAD39B407490B8
:101ED300026CE0FEA3E0F5828E8374FE93FF741F11
:101EE3009FFFE49400FE9002D4F0A3EFF0D3940A92
:101EF300EE64809480401D9002D4E0FEA3E0FF7C5A
:101F0300007D0A124135EF24A6FFEE34FF9002D480
:101F1300F0A3EFF0EBFFEAC39FFFE49400FE90020F
:101F2300D4E0FCA3E0FDC39FEE6480F8EC648098EA
:101F3300500BCFEDCF900209E02FF0805C9002D3DD
:101F4300E08052900209E0FF9002D3E0FEC39F506D
:101F530048EEFDC3EF9DFFE49400FE90026CE0FCAD
:101F6300A3E0F5828C8374FF932401FDE433FC1218
:101F7300419C9002D4EEF0A3EFF04E70079002D490
:101F8300F0A304F0900209E0FF9002D4A3E0FDCE99
:101F9300EDCEC3EF9E900209F0900111E0FEA3E0A5
:101FA30024FEF582EE3401F583E493FF705EF517AA
:101FB300E51775F003A4240CF582E43402F583E0FD
:101FC300FEE51775F003A42425F8EEF6E51775F082
:101FD30003A4240DF582E43402F583E0FEE51775CE
:101FE300F003A42424F8EEF6E51775F003A4240EF9
:101FF300F582E43402F583E0FEE51775F003A424CB
:1020030026F8EEF60517E517B410A522EF64037062
:102013006AF517E5179074739375F003A4240CF510
:1020230082E43402F583E0FFE51775F003A4242569
:10203300F8EFF6E5179074739375F003A4240DF588
:1020430082E43402F583E0FFE51775F003A424244A
:10205300F8EFF6E5179074739375F003A4240EF567
:1020630082E43402F583E0FFE51775F003A4242628
:10207300F8EFF60517E517B4109922900111E0FE69
:10208300A3E024FEF582EE3401F583E493FF6402BA
:102093007075F517C37410951775F003A4240CF528
:1020A30082E43402F583E0FEE51775F003A42425EA
:1020B300F8EEF6E517FDC374109DFDE49400FC9063
:1020C300020D75F003ED12441FEC75F003A4258394
:1020D300F583E0FEE51775F003A42424F8EEF690EB
:1020E300020E75F003ED12441FEC75F003A4258373
:1020F300F583E0FEE51775F003A42426F8EEF60554
:1021030017E517B4108E22EF64017069F517E51710
:102113009074639375F003A4240CF582E43402F500
:1021230083E0FFE51775F003A42425F8EFF6E51720
:102133009074639375F003A4240DF582E43402F5DF
:1021430083E0FFE51775F003A42424F8EFF6E51701
:102153009074639375F003A4240EF582E43402F5BE
:1021630083E0FFE51775F003A42426F8EFF60517BF
:10217300E517B4109922E49002BEF0A3F0A3F0A3F4
:10218300F0900318F0900316F0900315F09002EE10
:10219300F0C8749AC8CC7402CCCD7401CD7B017A9B
:1021A300037900FE7F151240AE7E007F157D007B14
:1021B300017A0379001244589002F0E0900295F0FE
:1021C3007E007F047D007B017A0279F012445890EF
:1021D30002F57410F07E007F047DFF7B017A0279A3
:1021E300F71244589002FDE0900297F0E49002FD4C
:1021F300F0900000E0C43354E02411F582E434008D
:10220300F583E0FEA3E04E70037FFF2290028EE091
:10221300604824C4F582E43401F583E0602290022F
:102223008EE0243FF582E43401F583E070129002DE
:10223300B0E054036003E014F09002B0E04404F013
:102243009002AFE07F0070027F019002AFEFF07069
:1022530003022D511239CB022D51E49002C1F090AB
:1022630002C1E0FFC39410400302231E74402FF504
:1022730082E43401F583E07003022315900000E04B
:10228300C43354E02411F582E43400F583C083C0E1
:10229300829002C1E0D082D08375F00212441FE025
:1022A300FCA3E0F5828C83740193FEB4010E9002CB
:1022B30098E0FDEF6D60059002BE8053EEB402110D
:1022C300900298E0FF9002C1E06F60059002BF802A
:1022D3003E900000E0C43354E02411F582E434005E
:1022E300F583C083C0829002C1E0FFD082D08375A2
:1022F300F00212441FE0FCA3E0F5828C8374019387
:10230300B4070F900298E0FEEF6E60069002C0E003
:1023130004F09002C1E004F0022262E49002C1F0F2
:102323009002C1E0FFC39410400302292E9002984B
:10233300E0FEEF6E70549002C1E02440F582E43475
:1023430001F583E0600302292574C52FF582E43487
:1023530001F583E06003022925900291E004F0E097
:10236300D3940A5003022925E4F09002C1E0240328
:10237300FF900296E0FD125F6C900294E0FF1263FF
:102383006D90029874FFF00229259002C1E0FF24AA
:1023930040F582E43401F583E070030228039000E2
:1023A30000E0C43354E02411F582E43400F583756E
:1023B300F002EF12441FE0FEA3E0FFF5828E837468
:1023C3000193B40106125F5B022925900000E0C46B
:1023D3003354E02411F582E43400F583C083C082D2
:1023E3009002C1E0D082D08375F00212441FE0FE58
:1023F300A3E0FFF5828E8374019364027040125F41
:102403005B900300E0FF900000E0C43354E024112C
:10241300F582E43400F583C083C0829002C1E0D02A
:1024230082D08375F00212441FE0FCA3E0F5828C96
:1024330083740393FEEF4E900300F002292590006E
:1024430000E0C43354E02411F582E43400F583C082
:1024530083C0829002C1E0FFD082D08375F0021264
:10246300441FE0FCA3E0FDF5828C837401936403B5
:1024730070559002BEE06003022925A3E0600302C9
:102483002925A3E0600302292574C52FF582E434CE
:1024930001F583E060030229259002C1E004900264
:1024A3008EF0ED2403FEE43C900292F0A3CEF0E420
:1024B30090028CF0A3F09002B07402F09002AF147B
:1024C300F01239CB022925900000E0C43354E024F4
:1024D30011F582E43400F583C083C0829002C1E029
:1024E300D082D08375F00212441FE0FEA3E0F58290
:1024F3008E83740193FF64046008EF640560030234
:1025030026929002C1E0FF24C5F582E43401F583ED
:10251300E0700D74012FF582E43400F5837402F04A
:10252300900000E0C43354E02411F582E43400F554
:1025330083C083C0829002C1E0D082D08375F00251
:1025430012441FE0FEA3E02402FFE43E8F82F583E2
:10255300E493FE740193FFE4FCFDFB7A80F9F81227
:10256300426AECC0E0EDC0E0EEC0E0EFC0E09001F5
:1025730011E0FEA3E024FAF582EE3401F583E4933F
:10258300FE740193FFCBEFCBCAEECAE4F9F8D0E0B7
:10259300FFD0E0FED0E0FDD0E0FC126A0C9002C256
:1025A300EEF0A3EFF0900000E0C43354E02411F503
:1025B30082E43400F583C083C0829002C1E0D082FC
:1025C300D08375F00212441FE0FEA3E02404FFE46D
:1025D3003E8F82F583E493FE740193FFE4FCFDFBDD
:1025E3007A80F9F812426AECC0E0EDC0E0EEC0E098
:1025F300EFC0E0900111E0FEA3E024FCF582EE348D
:1026030001F583E493FE740193FFCBEFCBCAEECACB
:10261300E4F9F8D0E0FFD0E0FED0E0FDD0E0FC121A
:102623006A0C9002C4EEF0A3EFF09002C2E0FCA3A8
:10263300E0FDCFEDCF9002F7F0ECA3F09002C4E001
:10264300FCA3E0FDCFEDCF9002F9F0ECA3F09000F6
:1026530000E0C43354E02411F582E43400F583C070
:1026630083C0829002C1E0FFD082D08375F0021252
:10267300441FE0FCA3E0F5828C83740193B4050747
:102683009002F5E04401F09002F6EFF00229259064
:102693000000E0C43354E02411F582E43400F583F0
:1026A300C083C0829002C1E0FFD082D08375F00264
:1026B30012441FE0FCA3E0F5828C8374019364064B
:1026C300600302279A74039320E7030229259002EB
:1026D30098E0F4600302292574C52FF582E43401E0
:1026E300F583E06003022925900000E0C43354E041
:1026F3002411F582E43400F583C083C0829002C1C3
:10270300E0D082D08375F00212441FE0FCA3E0FD09
:10271300F5828C83740293900296F0900000E0FFA0
:1027230004900294F074132FF582E43401F583E0EE
:102733009002C6F08D828C83740393FF12636D90B5
:102743000000E02413F582E43401F583E02404FF60
:102753009002C6E0FEC3EF9E5403FF70069002C1D1
:10276300E0802DEFB4010A9002C1E090746393807E
:102773001FEFB4020B9002C1E0FFC374109F8010DF
:10278300EF6403600302292E9002C1E090747393F7
:10279300900298F002292E900000E0C43354E02404
:1027A30011F582E43400F583C083C0829002C1E056
:1027B300FFD082D08375F00212441FE0FCA3E0FD3A
:1027C300F5828C837401936407600302292574C521
:1027D3002FF582E43401F583E060030229258D821D
:1027E3008C8374039330E0030229259002C1E02413
:1027F30001F582E43400F583E04402F0EF0228FAA5
:102803009002C1E0FF24C5F582E43401F583E0FEC4
:102813007003022925900000E0C43354E02411F52D
:1028230082E43400F58375F002EF12441FE0FCA349
:10283300E0F5828C83740193FFB40519EE700302F3
:1028430029259002C1E02401F582E43400F5837464
:1028530001F0022925EF64067041900000E0C433C3
:1028630054E02411F582E43400F583C083C08290E0
:1028730002C1E0D082D08375F00212441FE0FEA3B0
:10288300E0F5828E83740393FF30E70302292590DA
:10289300029874FFF012636D022925900000E0C4D2
:1028A3003354E02411F582E43400F583C083C082FD
:1028B3009002C1E0FFD082D08375F00212441FE082
:1028C300FCA3E0F5828C83740193FE6407704C745F
:1028D300039330E03374012FF582E43400F583E091
:1028E300FF20E1249002C1E0FD2401F582E43400DD
:1028F300F583EF4402F0ED25E0241BF582E4340177
:10290300F583E4F0A3F0801A9002C1E02401F5827C
:10291300E43400F583E054FDF08007EEB408037F50
:1029230001229002C1E004F0022323E49002C1F0EB
:102933009002C1E0FFC394104003022B4C900000AF
:10294300E0C43354E02411F582E43400F58375F0D8
:1029530002EF12441FE0FEA3E0F5828E837401931D
:10296300FF64046008EF64056003022B43900000DA
:10297300E0C43354E02411F582E43400F583C083CA
:10298300C0829002C1E0D082D08375F00212441F4E
:10299300E0FEA3E0F5828E83740393FF6401600875
:1029A300EF64026003022B43900000E0C43354E061
:1029B3002411F582E43400F583C083C0829002C100
:1029C300E0D082D08375F00212441FE0FEA3E0241E
:1029D30002FFE43E8F82F583E493FE740193FFE4E8
:1029E300FCFDFB7A80F9F812426AECC0E0EDC0E02E
:1029F300EEC0E0EFC0E0900111E0FEA3E024FAF5A1
:102A030082EE3401F583E493FE740193FFCBEFCBA5
:102A1300CAEECAE4F9F8D0E0FFD0E0FED0E0FDD082
:102A2300E0FC126A0C9002C2EEF0A3EFF0900000FB
:102A3300E0C43354E02411F582E43400F583C08309
:102A4300C0829002C1E0D082D08375F00212441F8D
:102A5300E0FEA3E02404FFE43E8F82F583E493FECB
:102A6300740193FFE4FCFDFB7A80F9F812426AECEF
:102A7300C0E0EDC0E0EEC0E0EFC0E0900111E0FE89
:102A8300A3E024FCF582EE3401F583E493FE7401A4
:102A930093FFCBEFCBCAEECAE4F9F8D0E0FFD0E066
:102AA300FED0E0FDD0E0FC126A0C9002C4EEF0A36D
:102AB300EFF09002C2E0FCA3E0FDCFEDCF9002F770
:102AC300F0ECA3F09002C4E0FCA3E0FDCFEDCF90C7
:102AD30002F9F0ECA3F09002C1E0FF9002F6F0904F
:102AE3000000E0C43354E02411F582E43400F5839C
:102AF30075F002EF12441FE0FEA3E0F5828E8374AB
:102B030003936402702404939002F5B40506E04431
:102B130001F08004E054FEF09002C1E02401F5824C
:102B2300E43400F5837403F0801FE49002F5F09021
:102B330002C1E02401F582E43400F583E4F0800966
:102B43009002C1E004F0022933E49002C7F090023E
:102B5300C1F09002C1E0FFC394104003022D3590F1
:102B63000000E0C43354E02411F582E43400F5831B
:102B730075F002EF12441FE0FEA3E0F5828E83742A
:102B8300019364076003022D2C9001EDE0FCA3E0A8
:102B9300FDA3E0FEA3E0FF90026EE0F8A3E0F9A33B
:102BA300E0FAA3E0FBD31243AB40369002C1E0FF4F
:102BB30025E0241BF582E43401F583E4F0A3F074EB
:102BC300012FF582E43400F583E054FBF09002C159
:102BD300E02401F582E43400F583E054FDF0022D96
:102BE3002C9002C1E0FF2401F582E43400F583E078
:102BF30020E103022D2C900000E0C43354E02411A3
:102C0300F582E43400F58375F002EF12441FE0FE11
:102C1300A3E0FF2404FDE43E8D82F583E493FC747A
:102C230001934C7006125F5B022CF59002C1E0FF2A
:102C33002401F582E43400F583E0FE30E2117401EF
:102C43002FF582E43400F583EE54FBF0022CF5906B
:102C530001EDA3A3E0FEA3E0FF9002C1E025E02481
:102C63001BF582E43401F583E0FCA3E0FDC3EF9D93
:102C7300FFEE9CFE900000E0C43354E02411F58283
:102C8300E43400F583C083C0829002C1E0D082D0D7
:102C93008375F00212441FE0FCA3E0FD2404FBE46F
:102CA3003C8B82F583E493FA740193D39FEA9E509D
:102CB300419002C1E0FF8D828C83740293FDEF2467
:102CC30003FF125F6C9001EDA3A3E0FEA3E0FF906E
:102CD30002C1E0FD25E0241BF582E43401F583EE17
:102CE300F0A3EFF074012DF582E43400F583E044A2
:102CF30004F0900000E0C43354E02411F582E4347E
:102D030000F583C083C0829002C1E0D082D0837576
:102D1300F00212441FE0FEA3E0F5828E8374039356
:102D230030E0069002C7E004F09002C1E004F00234
:102D33002B559001EDE0FCA3E0FDA3E0FEA3E0FF33
:102D430090026E1243E29002C7E0900290F0E4FF1B
:102D5300120066E4FF124EB090028EE07003125A26
:102D6300D89002C17401F09002C1E0FF24FFF58204
:102D7300E43402F583E0FE74992FF582E43402F51E
:102D830083E06E60089002EE7401F0800A9002C145
:102D9300E004F0E0B416D0900295E0FF9002F0E07A
:102DA3006F6002801D9002C17402F09002C1E0FFC7
:102DB300C39405501D74EF2FF582E43402F583E0CC
:102DC30060089003157401F080089002C1E004F0DC
:102DD30080D99002C17403F09002C1E0FFC394074D
:102DE300501E74F42FF582E43402F583E0F4600896
:102DF3009003167401F080089002C1E004F080D8BB
:102E0300900297E0FF9002FDE06F60069003187454
:102E130001F0900298E0F4601D9002EEE0701290D1
:102E23000315E0700C900316E07006900318E06041
:102E330005E4900296F090028FE0B40111E4900350
:102E430018F0900316F0900315F09002EEF07F0057
:102E530022C0E0C0F0C083C082C0D075D00820D9A2
:102E630003023982E5D9543F7003023971147003A8
:102E73000234DD14602E24E270030238E41470037C
:102E83000234D324F17003023550240E6003023957
:102E93007E75D50063D440C20CE5D454FC4402F5DE
:102EA300D402397E20DE0302397E63D480AFDB9007
:102EB30002B9E4F0A3EFF09002B9A3E0F5D59002D4
:102EC300FBE030E75A90057FE075F040A42400F959
:102ED300740635F0FAC8E9C8CCEACCCD7401CD7BD1
:102EE300017A0579007E007F401240AE9005407460
:102EF30052F0A37444F090057FE0FF04F090054284
:102F0300EFF053D4FC90057EE0FFA3E0C39F500392
:102F130002397EE4F09002FBE0547FF002397E90A8
:102F23000500E0B44410A3E0B44B0BA3E0B44206A5
:102F3300A3E06443601A900500E064447073A3E067
:102F4300644C706DA3E064547067A3E064437061E4
:102F5300900504E0C394314058E0D3943850529024
:102F63000501E090057EB44B0B7408F0900504E076
:102F730024D980097404F0900504E024ED9002FB49
:102F8300F09005407452F0900501E0900541F090F7
:102F93000502E0900542F0900503E0900543F053ED
:102FA300D4FC90057FE4F09002FBE04480F002390A
:102FB3007E900500E064437042A3E0644B703CA341
:102FC300E064597036A3E064547030900540745245
:102FD300F0900501E0900541F0900502E090054274
:102FE300F0900503E0900543F0A3E514F090050489
:102FF300E0F514900545E514023172900500E06494
:10300300436003023113A3E064526003023113A34C
:10301300E0644B6003023113A3E0644D60030231AB
:10302300139005407452F0900501E0900541F09033
:103033000502E0900542F0900503E0900543F0900F
:103043000153E0FCA3E0FDEC900544F0CFEDCFEF9E
:10305300A3F0900155E0FCA3E0FDEC900546F0CF12
:10306300EDCFEFA3F0900197E0FEA3E0FFD394012F
:10307300EE9400400280047E007F01C3EF94FEEED5
:10308300940F5017900197E0FEA3E0FF9401EE9494
:10309300004002800A7E007F0180047E0F7FFE9045
:1030A3000153EEF0A3EFF0900199E0FEA3E0FFD30C
:1030B3009401EE9400400280047E007F01C3EF94EC
:1030C300FEEE940F5017900199E0FEA3E0FF9401E8
:1030D300EE94004002800A7E007F0180047E0F7F11
:1030E300FE900155EEF0A3EFF0900153E0FCA3E056
:1030F300FDEC900548F0CFEDCFEFA3F0900155E044
:10310300FCA3E0FDEC90054AF0CFEDCFEFA3805F89
:10311300900500E064437064A3E06445705EA3E03F
:1031230064437058A3E0644470529005407452F0B5
:10313300900501E0900541F0900502E0900542F012
:10314300900503E0900543F0A20FE433A3F0A2102F
:10315300E433A3F0900504E024FF920FA3E024FFDF
:103163009210A20FE433900546F0A210E433A3F0CB
:1031730053D4FC9002FB7432F002397E900500E0D8
:1031830064437030A3E06445702AA3E0B44325A3ED
:10319300E0B446209005407452F0900501E090059C
:1031A30041F0900502E0900542F0900503E09005A0
:1031B300430234CC900500E06442704BA3E06452B8
:1031C3007045A3E06453703FA3E0645470399005E5
:1031D300407452F0900501E0900541F0900502E043
:1031E300900542F0900503E0900543F07E007F3C9C
:1031F3007D207B017A05794412445853D4FC900214
:10320300FB7464F002397E900500E06442704BA3C6
:10321300E064427045A3E0644F703FA3E0645470E0
:10322300399005407452F0900501E0900541F0900B
:103233000502E0900542F0900503E0900543F07E1F
:10324300007F3C7D207B017A05794412445853D496
:10325300FC9002FB7465F002397E900500E0644245
:103263007049A3E064467043A3E06457703DA3E054
:10327300645670379005407452F0900501E0900554
:1032830041F0900502E0900542F0900503E09005BF
:1032930043F0C87444C8CC7405CCCD7401CD7BFF16
:1032A3007A00790E7E007F04023471900500E06499
:1032B300426003023423A3E064556003023423A372
:1032C300E064496003023423A3E0644460030234EE
:1032D300239005407452F0900501E0900541F09071
:1032E3000502E0900542F0900503E0900543F0905D
:1032F300057DE4F090057DE0FF25E02420F582E4E0
:103303003403F583E0FE74442FF582E43405F5833A
:10331300EEF090057DE02444F582E43405F583E086
:10332300C39430402790057DE02444F582E43405BE
:10333300F583E0D39439501490057DE02444F5825D
:10334300E43405F583E024D0F00233D090057DE02A
:103353002444F582E43405F583E0C3946140269068
:10336300057DE02444F582E43405F583E0D39466D7
:10337300501390057DE02444F582E43405F583E0A1
:1033830024A9F0804890057DE02444F582E43405C7
:10339300F583E0C39441402690057DE02444F58203
:1033A300E43405F583E0D39446501390057DE0247F
:1033B30044F582E43405F583E024C9F0800F9005D9
:1033C3007DE02444F582E43405F583E4F090057D43
:1033D300E004F0E0640C60030232F790057DE4F052
:1033E30090057DE0FF25E02444F582E43405F58370
:1033F300E0C454F0FEEF25E02445F582E43405F5FE
:1034030083E04EFF90057DE02444F582E43405F526
:1034130083EFF090057DE004F0E0B406C30234CD01
:10342300900500E06442704BA3E064477045A3E05D
:103433006450703FA3E0644D70399005407452F0BE
:10344300900501E0900541F0900502E0900542F0FF
:10345300900503E0900543F0C87444C8CC7405CCD0
:10346300CD7401CD7BFF7ADA79007E007F3812407C
:10347300AE8057900500E06442703DA3E064447061
:1034830037A3E064477031A3E06443702B90054099
:103493007452F0900501E0900541F0900502E09030
:1034A3000542F0900503E0900543F07B017A05792E
:1034B300447D38126BD380129005407452F0A3748C
:1034C30049F0A3744EF0A37456F053D4FC02397E32
:1034D30075D30063D240C20B8068AFDB9002B9E4BE
:1034E300F0A3EFF09002B9E0FEA3E0FF4E6053D3E8
:1034F300EF9402EE9400504A9002B9A3E0247FF5C2
:103503008274053EF583E0FF7E009002B9EEF0A3DE
:10351300EFF07F0020E0027F01EF24FFB3920A90D7
:1035230002B9E0FEA3E0FF7D0020E1027D01ED246E
:10353300FFB3920DEF7F0020E2027F01EF24FFB380
:103543009209E5D254FC4402F5D202397E75DCC0FF
:10355300AFDB9002B9E4F0A3EFF09002B9E070049E
:10356300A3E0640860030238B99004C7E0FE900446
:10357300C6E07C002400FFEC3E90031BF0A3EFF0B9
:103583009002B9E4F0A3F09002B8F09004C1E09087
:10359300031DF09004C0E05460601A90031DE01412
:1035A30024FD40030238BF24FB24FD40030238BF3F
:1035B30080000238B990031DE0B40B0040030238C9
:1035C300B79035CBF828287302388C0237BB023802
:1035D300B702380B0238B70237780235EC0238B736
:1035E3000237840237A90238BF9004C3E024FE6087
:1035F3002B14604224E170030236B22421600302DB
:1036030036F190033A74FFF0A37472F0A374B6F02A
:103613009002B9E4F0A37412F00236F790033A74FF
:10362300FFF0A37474F0A3740DF09002B9E4F0A357
:103633007449F00236F79004C2E014602714603D29
:10364300146053240360030236F190033A74FFF0CD
:10365300A37472F0A374C8F09002B9E4F0A37404E5
:10366300F00236F790033A74FFF0A37472F0A37478
:10367300E2F09002B9E4F0A37424F0807790033A67
:1036830074FFF0A37472F0A374CCF09002B9E4F069
:10369300A37416F0805E90033A7401F0A37403F0F0
:1036A300A3741EF09002B9E4F0A3741AF08045905D
:1036B30004C4E0FF701990033A74FFF0A37473F02D
:1036C300A37406F09002B9E4F0A374E5F08025EF4B
:1036D300B4011990033A74FFF0A37473F0A374EB6D
:1036E300F09002B9E4F0A37422F080088000900205
:1036F300B874FFF09002B9E0FEA3E0FFD390031C7F
:10370300E09F90031BE09E4005EEF0A3EFF09003D3
:103713001BE0FEA3E0FFC39440EE9400400C7C004A
:103723007D40CEECCECFEDCF80009002B9EEF0A37A
:10373300EFF09002B9E0FEA3E0FFC874C0C8CC74F8
:1037430004CCCD7401CD90033AE0FBA3E0FAA3E0EF
:10375300F91240AE9002B9E0FEA3E0FFC390031C50
:10376300E09FF090031BE09EF090033BEE8FF0127E
:1037730041D20238BF9004C2E0FF90031BE4023839
:10378300B190031AE09004C0F0C390031CE09401CD
:1037930090031BE0940050030238BF9002B9E4F099
:1037A300A304F00238BF9004C2E090031AF0700340
:1037B3000238BFD20E0238BF9004C0E0541FFF642A
:1037C3000270359004C4E014601E146020248160EC
:1037D3000D14701EE5D454BC4402F5D4801AE5D20E
:1037E30054BC4402F5D2801053D273800B53D4736C
:1037F30080069002B874FFF0EF700A900319E0544A
:10380300FEF00238BF0238B99004C0E0541FFD70C7
:10381300269004C3E0FE9004C2E0FBEB64014E700B
:10382300149074149330E50A900319E04401F002F4
:1038330038BF0238B9807FED6402704B9004C3E057
:10384300FE9004C2E0FDED4E703B9004C5E0FE9097
:1038530004C4E0FDEDFFEE702AEF24FE6011248125
:10386300601714701EE5D454BF4403F5D4804DE5AE
:10387300D4547F440CF5D48043E5D254BF4403F5BC
:10388300D280398031802F802D9004C1E4F09004E0
:10389300C0F090031BE0FEA3E0FFC39402EE94008C
:1038A3009002B94008E4F0A37402F0800FEEF0A395
:1038B300EFF0800880009002B874FFF09002B8E047
:1038C300B4FF0675DCCF02397E9002B9E0FEA3E0B7
:1038D300FF4E60048FDD800375DD0075DCC00239A7
:1038E3007E90031DE024FB606E14707A90031BE04E
:1038F300FEA3E0FFC39440EE9400400C7C007D40A7
:10390300CEECCECFEDCF80009002B9EEF0A3EFF076
:103913009002B9E0FEA3E0FFC874C0C8CC7404CC25
:10392300CD7401CD90033AE0FBA3E0FAA3E0F912D2
:1039330040AE9002B9E0FEA3E0FFC390031CE09FFA
:10394300F090031BE09EF090033BEE8FF01241D208
:103953008FDD63DC40802490031BA3E0FFE5E35489
:10396300804FF5E3800375DD0075DC02800DAFDB6E
:103973009002B9E4F0A3EFF063DC80C2D9803E305B
:10398300D81F75DC0275D20275D40275E300C2DA62
:10399300C2D9C20EC20BC20C900319E4F0C2D88084
:1039A3001C30DA16C2DAE5DA90031930E206E04495
:1039B30002F08009E054FDF0800375D8FFD0D0D029
:1039C30082D083D0F0D0E0329002C87403F090012B
:1039D300EDE0FCA3E0FDA3E0FEA3E0FF900276E0B0
:1039E300F8A3E0F9A3E0FAA3E0FBD31243AB400A48
:1039F3009002721243EE000000009001EDE0FCA380
:103A0300E0FDA3E0FEA3E0FF9002761243E2900103
:103A1300EDE0FCA3E0FDA3E0FEA3E0FF900272E073
:103A2300F8A3E0F9A3E0FAA3E0FBD31243AB400C05
:103A330090028F7401F0E49002AFF022E490028FC1
:103A4300F09002CDF0A3F090028EE0FF603B900077
:103A530000E075F020A4240FF582E5F03400F5832F
:103A630075F002EF12441FE0FEA3E0FFF5828E83A0
:103A7300740293FD7C00EF2403FFE43EFEEF2DFF71
:103A8300EC3E9002CDF0A3EFF09002C8E0C3941691
:103A93004003023FDD9002CDE0FEA3E0FF900292DF
:103AA300E0FCA3E0FDC39FEC9E4004E4023E948D42
:103AB300828C83E493FFB4EA37ED2401FBE43C8B6F
:103AC30082F583E493FE54019002AFF0EE30E10FF0
:103AD300900293E02402F0900292E03400F02290EE
:103AE3000293E004F07006900292E004F0023FCCEF
:103AF300EF64EB6003023C1CED2401FFE43C8F8286
:103B0300F583E493FBB4021EED2404FEE43C90022F
:103B13007AF0A3CEF0900293E02404F0900292E0B6
:103B23003400F0023A8C90028DE004F070069002AB
:103B33008CE004F0ED2402FFE43C8F82F583E493F0
:103B4300FEED2403FDE43C8D82F583E493FDEDFF5C
:103B53009002C9EEF0A3EFF0EB600B9002B0E030FF
:103B6300E20454036033900292E0FEA3E02401FFD9
:103B7300E43E8F82F583E49370079002B0E020E285
:103B8300189002C9E0FEA3E0FF4E601490028CE09F
:103B9300FCA3E0C39FEC9E40079002B0E04480F09A
:103BA3009002B0E0FF30E727900293E02403F09007
:103BB3000292E03400F0EF547B9002B0F0E4900204
:103BC3008CF0A3F074FF90027AF0A3F0023FCC9044
:103BD300027AE0FEA3E0FFF47002EEF460069002C6
:103BE30092EE8030900000E075F020A4240FF5825F
:103BF300E5F03400F583C083C08290028EE0D0826A
:103C0300D08375F00212441FE0FEA3E02403FFE417
:103C13003E900292F0A3EFF022900292E0FEA3E026
:103C2300F5828E83E49364FE707C900292E0FCA3A1
:103C3300E0FD2401FFE43C8F82F583E493FEED2451
:103C430002FDE43C8D82F583E493FDEDFF9002D009
:103C5300EEF0A3EFF0E4FCFD9001EDE0F8A3E0F952
:103C6300A3E0FAA3E02FFFEA3EFEED39FDEC38FCBA
:103C73009002721243E2900293E02402F0900292C7
:103C8300E03400F09002CDE0FEA3E0FF900292E466
:103C930075F0011241D2FCEF65F07002EE6C600327
:103CA300023FDD023E94900292E0FEA3E0F5828E95
:103CB30083E493FC64FD70619002C8E0FFD3940336
:103CC3004003023FDD9002F0E06003023FDD90021B
:103CD3009275F0011241D285F082F583E493FD12CF
:103CE3005F6C900292E475F0011241D285F082F587
:103CF30083E493900300F09002CDE0FEA3E0FF90F5
:103D03000292E475F0011241D2FAEF65F07002EE0F
:103D13006A6003023FDD023E94EC64ED6003023E01
:103D2300999002C8E0D394034003023FDD9002F070
:103D3300E06003023FDD900292E0FCA3E0FD24017A
:103D4300FFE43C8F82F583E493FEED2402FDE43C23
:103D53008D82F583E493FDEDFF9002C9EEF0FCA3A1
:103D6300EFF0CCCCCDCD900292E0FAA3E0FB24039C
:103D7300FFE43A8F82F583E493FEEB2404FBE43AF9
:103D83008B82F583E493FBEBFF9002CBEEF0A3EF82
:103D9300F0CFEDCFCEECCEE4FCFDFB7A80F9F81248
:103DA300426AECC0E0EDC0E0EEC0E0EFC0E090019D
:103DB30011E0FEA3E024FAF582EE3401F583E493E7
:103DC300FE740193FFCBEFCBCAEECAE4F9F8D0E05F
:103DD300FFD0E0FED0E0FDD0E0FC126A0C9002C9F7
:103DE300EEF0A3EFF0A3E0FEA3E0FFE4FCFDFB7A1B
:103DF30080F9F812426AECC0E0EDC0E0EEC0E0EFFB
:103E0300C0E0900111E0FEA3E024FCF582EE340152
:103E1300F583E493FE740193FFCBEFCBCAEECAE4C0
:103E2300F9F8D0E0FFD0E0FED0E0FDD0E0FC126A6C
:103E33000C9002CBEEF0A3EFF09002C9E0FCA3E0FC
:103E4300FDCFEDCF9002F7F0ECA3F09002CBE0FCB6
:103E5300A3E0FDCFEDCF9002F9F0ECA3F09002F5D3
:103E6300E04401F0900293E02404F0900292E034E5
:103E730000F09002CDE0FEA3E0FF900292E475F023
:103E8300011241D2FCEF65F07002EE6C6003023F59
:103E9300DD90028EF022900292E0FEA3E0F5828E86
:103EA30083E49364FA6003023F4B9002CF7403F000
:103EB300F09002C8E0FC9002CFE0FFC39C502A9030
:103EC3000292E0FAA3E0F5828A83E493FE74FF2F63
:103ED300F582E43402F583E06E70069002CFF08041
:103EE300089002CFE004F080C89002CFE070030294
:103EF3003FDD9002F0E06003023FDD900300E060ED
:103F0300199002C8E0FF04F0900292E475F00112E8
:103F130041D285F082F583023FC6EC64036003025D
:103F23003FDD9002C8E0FF04F0900292E475F001D7
:103F33001241D285F082F583E493FD125F6C900306
:103F430000E04402F0023FCC9002CF7403F0F09003
:103F530002C8E0FC9002CFE0FFC39C502A9002927B
:103F6300E0FAA3E0F5828A83E493FE74FF2FF582DF
:103F7300E43402F583E06E70069002CFF08008907F
:103F830002CFE004F080C89002CFE0604D9002F0D1
:103F9300E07047900300E070149002C8E0FF04F063
:103FA300900292E0FAA3E0F5828A838016ECB403D0
:103FB300299002C8E0FF04F0900292E0FCA3E0F530
:103FC300828C83E493FD125F6C900293E004F070A3
:103FD30006900292E004F0023A8C22E709F608DF29
:103FE300FA8046E709F208DFFA803E88828C83E78D
:103FF30009F0A3DFFA8032E309F608DFFA8078E3F9
:1040030009F208DFFA807088828C83E309F0A3DF6A
:10401300FA806489828A83E0A3F608DFFA805889EC
:10402300828A83E0A3F208DFFA804C80D280FA8090
:10403300C680D4806980F28033801080A680EA80B5
:104043009A80A880DA80E280CA803389828A83ECEE
:10405300FAE493A3C8C582C8CCC583CCF0A3C8C572
:1040630082C8CCC583CCDFE9DEE7800D89828A83F1
:10407300E493A3F608DFF9ECFAA9F0EDFB228982B9
:104083008A83ECFAE0A3C8C582C8CCC583CCF0A36D
:10409300C8C582C8CCC583CCDFEADEE880DB898271
:1040A3008A83E493A3F208DFF980CC88F0EF600100
:1040B3000E4E60C388F0ED2402B4040050B9F582BB
:1040C300EB2402B4040050AF232345822390402EF7
:1040D30073BB010CE58229F582E5833AF583E0227F
:1040E3005006E92582F8E622BBFE06E92582F8E2BE
:1040F30022E58229F582E5833AF583E49322BB0125
:104103000689828A83F0225002F722BBFE01F32242
:10411300F8BB010DE58229F582E5833AF583E8F0E2
:10412300225006E92582C8F622BBFE05E92582C88E
:10413300F222EF8DF0A4A8F0CF8CF0A428CE8DF05E
:10414300A42EFE22BC000BBE0029EF8DF084FFAD30
:10415300F022E4CCF875F008EF2FFFEE33FEEC33DA
:10416300FCEE9DEC984005FCEE9DFE0FD5F0E9E4D6
:10417300CEFD22EDF8F5F0EE8420D21CFEADF075F5
:10418300F008EF2FFFED33FD4007985006D5F0F20E
:1041930022C398FD0FD5F0EA22C2D5EC30E709B26D
:1041A300D5E4C39DFDE49CFCEE30E715B2D5E4C332
:1041B3009FFFE49EFE124147C3E49DFDE49CFC8007
:1041C3000312414730D507C3E49FFFE49EFE22C597
:1041D300F0F8A3E028F0C5F0F8E582158270021527
:1041E30083E038F022BB010A89828A83E0F5F0A3D9
:1041F300E022500687F009E71922BBFE07E3F5F03A
:1042030009E3192289828A83E493F5F074019322E6
:10421300BB010789828A830241D2500B09C5F0276B
:10422300F7C5F01937F722BBFE0D09F8E325F0F3C4
:10423300C5F019E338F322F889828A837401932540
:10424300F0C5F0F8E4933822BB010A89828A83F02F
:10425300E5F0A3F0225006F709A7F01922BBFE06EA
:10426300F3E5F009F31922E88FF0A4CC8BF0A42C2A
:10427300FCE98EF0A42CFC8AF0EDA42CFCEA8EF071
:10428300A4CDA8F08BF0A42DCC3825F0FDE98FF058
:10429300A42CCD35F0FCEB8EF0A4FEA9F0EB8FF04F
:1042A300A4CFC5F02ECD39FEE43CFCEAA42DCE35D7
:1042B300F0FDE43CFC2275F008758200EF2FFFEE61
:1042C30033FECD33CDCC33CCC58233C5829BED9A3F
:1042D300EC99E58298400CF582EE9BFEED9AFDEC9D
:1042E30099FC0FD5F0D6E4CEFBE4CDFAE4CCF9A8E3
:1042F3008222B800C1B90059BA002DEC8BF084CFEB
:10430300CECDFCE5F0CBF97818EF2FFFEE33FEEDC1
:1043130033FDEC33FCEB33FB10D703994004EB99EB
:10432300FB0FD8E5E4F9FA227818EF2FFFEE33FEFE
:10433300ED33FDEC33FCC933C910D7059BE99A4033
:1043430007EC9BFCE99AF90FD8E0E4C9FAE4CCFB4B
:104353002275F010EF2FFFEE33FEED33FDCC33CC9F
:10436300C833C810D7079BEC9AE899400AED9BFD28
:10437300EC9AFCE899F80FD5F0DAE4CDFBE4CCFA3B
:10438300E4C8F922C3E49FFFE49EFEE49DFDE49CA0
:10439300FC22EB9FF5F0EA9E42F0E99D42F0EC64CB
:1043A30080C864809845F022EB9FF5F0EA9E42F0C6
:1043B300E99D42F0E89C45F022E8600FECC313FC52
:1043C300ED13FDEE13FEEF13FFD8F122E8600FEFBC
:1043D300C333FFEE33FEED33FDEC33FCD8F122ECB7
:1043E300F0A3EDF0A3EEF0A3EFF022A8828583F013
:1043F300D083D082124405124405124405124405A9
:10440300E473E493A3C583C5F0C583C8C582C8F02C
:10441300A3C583C5F0C583C8C582C822A42582F578
:1044230082E5F03583F58322EC8EF0A4CCC5F0CC85
:10443300CDF8EFA4CEC5F02DFDE43CFCE8A42EC8D6
:10444300C5F03DFDE43CFCEFA4FFE5F028FEE43DB0
:10445300FDE43CFC22EF4E6012EF60010EEDBB0168
:104463000B89828A83F0A3DFFCDEFA2289F05007EE
:10447300F709DFFCA9F022BBFEFCF309DFFCA9F07E
:1044830022BB010689828A83E0225002E722BBFE17
:1044930002E32289828A83E49322E0FCA3E0FDA362
:1044A300E0FEA3E0FF22F8E0FBA3A3E0F925F0F090
:1044B300E582158270021583E0FA38F022EBF0A34F
:1044C300EAF0A3E9F022D083D082F8E49370127467
:1044D3000193700DA3A393F8740193F5828883E489
:1044E300737402936860EFA3A3A380DFE51724C16D
:1044F300F582E43402F583E00517229002BE30070B
:10450300039002C1E475F0011244A902448420001F
:10451300E97F2ED2008018EF540F2490D43440D476
:10452300FF30040BEF24BFB41A0050032461FFE5EE
:104533001860021518051BE51B7002051A30070EDB
:104543009002BEE475F0011244A9EF024101026C2E
:10455300547403D2078003E4C207F5179002BE1216
:1045630044C0E4F518F51AF51BE51860077F20121F
:10457300453280F57519FFC201C200C202C203C2EF
:1045830005C206C2081244FEFF700D3007057F0006
:10459300124543AF1BAE1A22B4255FC2D5C2041223
:1045A30044FEFF24D0B40A00501A75F00A7818307C
:1045B300D50508B6FF0106C6A426F620D504700269
:1045C300D20380D924CFB41A00EF5004C2E5D20439
:1045D300024744D20180C6D20080C0D20280BCD23E
:1045E300D580BAD20580B47F2012453220020774E9
:1045F30001B5180040F11244EFFF12453202456C39
:10460300D208D20680951244EFFB1244EFFA12440B
:10461300EFF94A4B700679157A487BFF20022EE5A5
:1046230018602A7E008E827583001240D460060EC5
:10463300EE651970F0C2D5EBC0E0EAC0E0E9C0E076
:10464300EE12478BD0E0F9D0E0FAD0E0FB124484BD
:10465300FF60AAEBC0E0EAC0E0E9C0E0124532D057
:10466300E02401F9D0E03400FAD0E0FBE51904605E
:10467300DCD519D980877BFF7A477987D202809C62
:10468300791080027908C206C2088008D2D5790A57
:104693008004790AC2D5E519047002F519E4FAFD1C
:1046A300FEFF1244EFFC7B082001131244EFFD7B55
:1046B3001030000A1244EFFE1244EFFF7B20EC336C
:1046C30082D592D55013C3E43000069FFFE49EFECB
:1046D300E42001039DFDE49CFCE4CBF8C201EC70F3
:1046E3000CCFCECDCCE824F8F870F38017C3EF33AA
:1046F300FFEE33FEED33FDEC33FCEB33FB9940026D
:10470300FB0FD8E9EB300105F8D0E0C448B201C093
:10471300E00AEC4D4E4F78207B0070C2EAB51900D9
:1047230040BCC0E012478DD0F0D0E0200104C4C0EB
:10473300E0C4B201C0F012451BD0F0D5F0EB024546
:104743006C1244C946095346835845DA4C45D64250
:1047530046874F468F44468F4945EF434695554616
:10476300794646794546794748355045DE2D45E239
:104773002E46052B45E623460320481E2A459E4820
:10478300000045FD3F3F3F00790AA2D520031430C6
:104793000509B910020404B9080104A2D5200602D0
:1047A3005001042002689202B518005034C0E07F23
:1047B300203003197F30A20272067205500F124790
:1047C300E4C202C206C205C2087F30800F3005036F
:1047D300E9C0E0124532300503D0E0F9D0E0B51866
:1047E300CC3005177F30B9100C1245327F58300496
:1047F300077F788003B908031245323002057F2D05
:104803000245327F202008F87F2B2006F3229202F4
:1048130080CF286E756C6C2900D2011244EF3001F1
:10482300F8C201781830D50108F602459E2D504391
:1048330049581244EF2403B405004001E490483082
:1048430093124523743A124523D203751804024682
:1048530083E49002C2F0A20A33A3F0A20DE433A3CF
:10486300F0A209E433A3F0900290E07F0060027F9E
:10487300019002C6EFF090028EE07F0060027F019C
:104883009002C7EFF0900111E0FEA3E024F9F58256
:10489300EE3401F583E493C4540F60739002B1E0E6
:1048A300F8A3E0F9A3E0FAA3E0FB9001EDE0FCA399
:1048B300E0FDA3E0FEA3E0C39BFFEE9AFEED99FDAE
:1048C300EC98C0E0EDC0E0EEC0E0EFC0E090011175
:1048D300E0FEA3E024F9F582EE3401F583E493C40A
:1048E300540F25E024A6F582E43472F583E493FEA5
:1048F300740193FFCBEFCBCAEECAE4F9F8D0E0FF23
:10490300D0E0FED0E0FDD0E0FCD31243AB501790D3
:104913000111E0FEA3E024F9F582EE3401F583E40E
:1049230093540FFF700890020B74FFF08046EF6002
:1049330043C3940440028037EF14FDC8EDC87E00E2
:104943007401088005C333CE33CED8F9FF90020B30
:10495300E0FCC39FEE6480F87480984012C8EDC8F1
:104963007401088002C333D8FCFFC3EC9F8001E4C9
:1049730090020BF0E49002BEF09002BEE0FFC394FD
:10498300034003024AB3E0FE900111E0FCA3E0FD03
:1049930024F6F582EC3401F583E5822EF582E435C5
:1049A30083F583E493FB540F24C2F582E43402F5C8
:1049B30083E0FAEBC41313135401FBEA6BFB74BFDC
:1049C3002EF582E43402F583EBF074BF2FF582E415
:1049D3003402F583E0604BED24F9F582EC3401F504
:1049E30083E493540F703B9002BEE024BFF582E44E
:1049F3003402F583C083C082E0FF9002BEE0FEED87
:104A030024F3F582EC3401F583E5822EF582E43557
:104A130083F583E493FEEF8EF0A4D082D083F0027B
:104A23004AAA9002BEE0FBED24F3F582EC3401F5D3
:104A330083E5822BF582E43583F583E493FD7C00E3
:104A430090020BE0F9FFC374FF9FFFE49400FE1292
:104A5300413574BF2BF582E43402F583E0FD124146
:104A630035CCEECCCDEFCD9002BEE0FF900111E04E
:104A7300FAA3E024F0F582EA3401F583E5822FF509
:104A830082E43583F583E49389F0A42DFFEC35F0BC
:104A9300FE7C007DFF1241479002BEE024BFF582F9
:104AA300E43402F583EFF09002BEE004F002497CA7
:104AB3009002BFE0F5A5A3E0F59AA3E0F5A42201D7
:104AC3001E00011C00C10F011F00011D00C1104188
:104AD300034100410342004102FB004102FE004149
:104AE3000317004102EE0041031500410316004184
:104AF3000318005602FF0100000000000000000040
:104B03000000000000000000000000004502EF026A
:104B1300000000004702F4031001000000004202FD
:104B2300FC040041031900C10EC10BC10CC10AC131
:104B33000DC1094401ED00000000011402440153BA
:104B4300080008004401970800080041013B0102E6
:104B53001000000215000A0212271044019B0000F6
:104B6300000042013E00004201D8000042026CDC1A
:104B73000050025C00000000000000000000000084
:104B83000000000050024C00000000000000000084
:104B93000000000000000050023C00010203040575
:104BA300060708090A0B0C0D0E0F6030020C0000FB
:104BB30000000000000000000000000000000000F2
:104BC30000000000000000000000000000000000E2
:104BD3000000000000000000000000000000203082
:104BE300240000000000000000000000000000009E
:104BF30000000000000000000000000000000000B2
:104C030000000000000000000000000000000000A1
:104C13000042020400004102060041020700410273
:104C230008004102090041020A0041020B00410051
:104C33000000420111F20041029500410297004138
:104C43000290004402B10000000041028E004202C3
:104C530092000042028C00004102B0004102AF000A
:104C630041028F00410298FF4102910041029600E8
:104C73004102940044026E000000004402720000EE
:104C830000004402760000000042027AFFFF420265
:104C93007C000042027E0000420280000042028249
:104CA30000004202840000420286000042028800A3
:104CB3000042028A000000E49002BEF0A374FFF0F9
:104CC300A3F0A3F0A37401F0439D209001D7E0600B
:104CD30009900152E07003024EA19001D6E06009F1
:104CE300900151E07003024EA19001D5E06009905C
:104CF3000150E07003024EA1E4F5FF125E767F01DE
:104D0300126239125E767F02126239125C2B9002B4
:104D1300C2E0251CF0E4F51DF51CE0C3648094811A
:104D2300501275A5FF7401F07F027E00126CE6E459
:104D3300F5A5801B9002C2E0D36480948A4010756D
:104D43009AFF740AF07F027E00126CE6E4F59AE49F
:104D53009002BEF0FFEF6404602EEF640C602974D0
:104D6300402FF582E43401F583E0FE601274C52F11
:104D7300F582E43401F583E070059002BFEFF0EEB5
:104D830060069002BEE004F00FEFB410C89002BEBC
:104D9300E07004A374FFF09002BFE0FEF460667459
:104DA300402EF582E43401F583E07022FFEF6404C2
:104DB3006017EF640C601274402FF582E43401F540
:104DC30083E060059002BFEFF00FEFB410DF9002B5
:104DD300BFE0FC90750293FE90014CE0FDEE2D9038
:104DE30002C0F0900144E0FF600FECC39408500947
:104DF3009002C0E0240CF08012EF600F9002C0E03C
:104E030024F4F080069002C074FFF09002C0E0FF2B
:104E1300A3E06F7003024CCEEFC39412504F900285
:104E2300C0E025E02483F582E43474F583E493F54C
:104E330012740193F513AE12FFCBEFCBCAEECAE4A3
:104E4300F9F89002C2E0FF3395E0FEFDFC12426ADE
:104E530078081243BCE47B03FAF9F81242F58E1585
:104E63008F16E4FD7F01126486D2A980289002C0C8
:104E7300E0FFD394305013EF9074D193F59E9002DA
:104E8300C2E0F59CC2A97D018006E4F59CC2A9FDA0
:104E93007F011264869002C0E0A3F0024CCEE4F5D9
:104EA3009CC2A9FD7F01126486759E2022E49002B4
:104EB300D2F0EF601EE490028AF0900288F0900234
:104EC30087F0900286F09002D2F090028BF090026D
:104ED3008AF022900286E0FF900111E0FCA3E02417
:104EE300E1F582EC3401F583E49325E014FE851C9F
:104EF300F0A4FDC3EF9D900286F0E4F51CA3E0FF50
:104F0300EE851DF0A4FEC3EF9EF0E4F51D9002D3E1
:104F1300F09002D3E0FF2488F582E43402F583E0C5
:104F2300FE74862FF582E43402F583E0FFD3EE644A
:104F330080F8EF64809840089002D27401F08018E2
:104F4300C3EE6480F8EF64809850089002D2740234
:104F5300F08005E49002D2F0900111E0FEA3E0F5A9
:104F6300828E83C083C0829002D3E0FFD082D0833D
:104F730075F00812441FE58224E0F582E5833401CD
:104F8300F583E493540F1460030250679002D2E058
:104F9300FE7003025083748A2FF582E43402F58392
:104FA300E060299002D3E0FF248AF582E43402F51D
:104FB30083E4F074882FF582E43402F583E0FFEE96
:104FC30025E024FDFEC3EF9EF00250839002D2E061
:104FD300FF900111E0FCA3E0F5828C83C083C082C3
:104FE3009002D3E0D082D08375F00812441FE5828B
:104FF30024E2F582E5833401F583E5822FF582E42B
:105003003583F583E493FD60057FFF125F6C9003A6
:1050130000E0FF9002D2E0FE900111E0FCA3E0F576
:10502300828C83C083C0829002D3E0FDD082D08380
:1050330075F00812441FE58224E5F582E583340107
:10504300F583E5822EF582E43583F583E493FEEF61
:105053004E900300F0748A2DF582E43402F58374D4
:1050630001F0801C9002D3E0FF2486F582E4340231
:10507300F583E0FE74882FF582E43402F583EEF0C5
:105083009002D3E004F0E0C394025003024F1422D1
:105093009002DCEEF0A3EFF0A3ECF0A3EDF0A3EAB3
:1050A300F0A3EBF09002DCE0FAA3E0FB7C007DA729
:1050B300CFEBCFCEEACE1241477C007D06124147AB
:1050C300CFEDCF9002EBEFF0E075F0A7A4FFC3EBB9
:1050D3009FFFEA95F0FECBEFCBCAEECA9002DEA3A8
:1050E300E0FFA3A3E0FDCEEDCEC39F9002ECF090D2
:1050F30002DEE0FEA3E0CDEBCDCCEACC1241357C61
:10510300007DA7124147A3A3E0FDCEEDCEC39F9040
:1051130002EDF0CEEACECFEBCFC374A79FFFE49EA0
:10512300FE9002DEE0FCA3E0FD1241357C007DA78A
:10513300124147A3A3E0FDCEEDCEC39FFF9002EB48
:10514300E0FD70119002E2E0FBA3E0FAA3E0F9EEC8
:10515300124101801EEDB4012E9002EDE0FF90029A
:10516300E2E0FBA3E0FAA3E0F9EF1241019002E0D1
:10517300A3E0FF9002E5E0FBA3E0FAA3E0F9EF125E
:1051830041019002EC80629002EBE0FEB4022AA39C
:10519300E0FD9002E2E0FBA3E0FAA3E0F9ED1241A7
:1051A300019002E0A3E0FD9002E5E0FBA3E0FAA397
:1051B300E0F9ED124101025256EEB403309002ECD5
:1051C300E0FF9002E2E0FBA3E0FAA3E0F9EF124173
:1051D300019002EDE0FF9002E5E0FBA3E0FAA3E01B
:1051E300F9EF1241019002E0A3E0FF80669002EB29
:1051F300E0FEB4042E9002E2E0FBA3E0FAA3E0F9A0
:10520300EF1241019002ECE0FF9002E5E0FBA3E026
:10521300FAA3E0F9EF1241019002E0A3E0FDCFED24
:10522300CF8030EEB4053B9002E0A3E0FFA3E0FBA8
:10523300A3E0FAA3E0F9EF1241019002ECE0FF9042
:1052430002E5E0FBA3E0FAA3E0F9EF1241019002CB
:10525300EDE0FF9002E8E0FBA3E0FAA3E0F9EF1230
:105263004101229002BEEFF0E4A3F0EFC3940A40A1
:105273003F9002BEE0FF94125036EF24F6FFEF2575
:10528300E0FEC3E49400FF74F29EFE740812579B81
:105293009002BFEFF09002BEE024F6FF125949904E
:1052A30002BFE070030253D19002BEE024FE803BB4
:1052B3009002BEE0FFC3941E4034EF9426502FEFBC
:1052C30024E2FFEFFEE42400FFEE34DCFE7404125C
:1052D300579B9002BFEFF07F011214849002BFE04E
:1052E30070030253D19002BEE024F2FD80299002A4
:1052F300BEE0B4322A126BA27B017A0679009002D7
:10530300C77401F07F007EDA1257A59002BFEFF059
:1053130070030253D17D187F031269310253D19078
:1053230002BEE0B46416126D141269C77F647E0076
:10533300126CE6E4F5A812002E0253D19002BEE0EF
:10534300646560030253D1126D141269C77F647ED2
:1053530000126CE6E4F5A875D8FF75E206900341E8
:1053630074AAF09003427455F07E007F407D007B69
:10537300017A06790012445890063E7480F0A374B3
:10538300FEF07B017A0679009002C77401F0E4FF16
:10539300FE1257A59002BFEFF0E4F5FFF5A5F59ACD
:1053A30075A4FF7F207E03126CE6E4F5FFF5A57577
:1053B3009AFFF5A47F207E03126CE6E4F5FF75A542
:1053C300FFF59AF5A47F207E03126CE680CB900252
:1053D300BFE06059E4F5FF75A5FFF59AF5A47F9644
:1053E300FE126CE6E4F5A5759AFFF5A47F96FE120E
:1053F3006CE6E4F5A5F59A75A4FF7F96FE126CE6BC
:1054030075A5FFE4F59AF5A47F96FE126CE6E4F524
:10541300A5759AFFF5A47F96FE126CE6E4F5A5F553
:105423009A75A4FF7F96FE126CE6E4F5FF22C2A3F1
:10543300C2A1C2A0126C7B7F057E00126CE6E587D9
:1054430020E4077F327E00126CE6125D5412603551
:10545300126838D2AFC2A77B017D807F021262D669
:105463007B017D017F021262D67B017D027F0212E6
:1054730062D67B017D087F021262D6759E20539D02
:10548300FEE4F59AF5A4F5A57D017F041264867DFB
:10549300017F101264867D017F20126486E4FF126F
:1054A3006CB6E4FF126A507F02126A5075F2107BE9
:1054B300017D017F8C7E0012619A43AA04E4FB7D87
:1054C300807F031262D643B324D2E953C9EF7D012F
:1054D300E4FF126B3DE4FDFCFF126B05D28C7F01F0
:1054E300126CFD126ACBE4F5FF126580125E767FC3
:1054F300011262391266BB1269C71266BB125E766D
:105503007F021262399002FBE0FF20E7D9600A12A2
:105513005266E49002FBF080CD900317E0702812EE
:105523006C9C900315E025E0FF9002EEE04FFF90A6
:105533000316E025E025E04FFF900318E0333333F3
:1055430054F84F900317F09001EDA3A3A3E0FF904D
:1055530002FEE0FEC3EF9EC39408408A900317E067
:10556300FE60059002FEEFF0EE601B900319E0B4BD
:105573000314126D237F327E00126CE6126D237FBB
:10558300327E00126CE6900317E0FF30E00D54FE0C
:10559300F07B017A0279FF7D168028900317E0FFE4
:1055A30030E10D54FDF07B017A0279EF7D05801324
:1055B300900317E0FF30E21154FBF07B017A02798C
:1055C300F47D07126A900254E9900317E0FF20E389
:1055D300030254E954F7F07B017A0279FC7D02124D
:1055E3006A900254E99002DEEBF09002DCEFF0A344
:1055F300EDF0EFD39D40079002DCE0FF80059002C1
:10560300DDE0FF9002DEE0FEEFD39E40159002DD69
:10561300E0FF9002DCE0FDD39F4005CFEDCF800596
:105623008003CFEECF9002E8EFF09002DDE0FF9031
:1056330002DCE0FEC39F5005CFEECF80009002DE78
:10564300E0FEEFC39E50159002DDE0FF9002DCE028
:10565300FDC39F5005CFEDCF80058003CFEECF90E4
:1056630002E8E0FEC39FA3F070119002DFE0FBA30A
:10567300E0FAA3E0F9E4F5F00257379002DCE06EBC
:1056830070309002DEE0FF9002DDE0C39FFFE49400
:1056930000FE7C007DA71241359002E9E0FD124136
:1056A300479002DFE0FBA3E0FAA3E0F9EE8FF002FC
:1056B30057379002DDE0FF9002E8E06F703690020A
:1056C300DCE0FF9002DEE0C39FFFE49400FE7C0079
:1056D3007DA71241359002E9E0FD124147EF244EC8
:1056E300FFEE3401F99002DFE0FBA3E0FAA3E0C987
:1056F3008FF080409002DEE0FF9002E8E06F7037A9
:105703009002DDE0FF9002DCE0C39FFFE49400FE23
:105713007C007DA71241359002E9E0FD124147EF7D
:10572300249CFFEE3402F99002DFE0FBA3E0FAA32E
:10573300E0C98FF012424B9002DFE0FBA3E0FAA333
:10574300E0F91241E8D394EAE5F0940340087403C6
:1057530075F0EA1242139002E8E070109002E2E062
:10576300FBA3E0FAA3E0F9E4F5F080139002E9E08B
:10577300FF9002E2E0FBA3E0FAA3E0F9E48FF0126A
:10578300424B9002E8E0FF9002E5E0FBA3E0FAA3BE
:10579300E0F9E48FF002424B7B017A067900900234
:1057A300C7F09002C2EEF0A3EFF0A3EBF0A3EAF090
:1057B300A3E9F090034174AAF09003427455F0E416
:1057C3009002C8F0A3F09002C7E0FFA3E0FCA3E0BF
:1057D300FDC39FEC940040030258E77806CEECCE5D
:1057E300EDC333CE33CED8F9FF9002C3E02FFF9041
:1057F30002C2E03EFE1265EDEF60277F017E0012DC
:105803006CE678069002C8E0FEA3E0C333CE33CE45
:10581300D8F9FF9002C3E02FFF9002C2E03EFE12D0
:1058230065ED9002C8E0FCA3E0FD7806CEECCEC3A4
:1058330033CE33CED8F9FF9002C3E02FFF9002C2DC
:10584300E03EFEC0E0EFC0E07806CEECCEEDC33321
:10585300CE33CED8F9FF9002C4A3E0FAA3E02FF928
:10586300EA3EFACCEACCCDE9CDD0E0FFD0E0FE7B36
:10587300401260F0EF60597F017E00126CE69002E7
:10588300C8E0FCA3E0FD7806CEECCEC333CE33CE26
:10589300D8F9FF9002C3E02FFF9002C2E03EFEC0A2
:1058A300E0EFC0E07806CEECCEEDC333CE33CED8F6
:1058B300F9FF9002C4A3E0FAA3E02FF9EA3EFACC81
:1058C300EACCCDE9CDD0E0FFD0E0FE7B401260F022
:1058D3009002C9E004F060030257C99002C8E004D3
:1058E300F00257C9E4900341F0900342F09002C8DC
:1058F300F0A3F09002C7E075F040A4FFA3E0FCA37F
:10590300E0FDC39FEC95F0503A9002C4E0FBA3E0A6
:10591300FAA3E0F98D828C831240D4FF9002C3E096
:105923002DFD9002C2E03C8D82F583E4936F60030A
:105933007F01229002C9E004F070B89002C8E0042D
:10594300F080B07F00229002C0EFF0C394084003C0
:10595300025AD7E0F925E0FEC3E494009002C2F0B6
:1059630074F29E9002C1F0900111E0FEA3E0FF24C7
:10597300FEFDEE3401FCC3ED9FFDEC9EFC9002C1E5
:10598300E0FAA3E0FB2DFDEA3C8D82F583E493FD71
:10599300741329F582E43401F583EDF0900112E0EC
:1059A30024FFFD900111E03401FCC3ED9FFFEC9E49
:1059B300CF2BCF3A8F82F583E493B401289002C0B2
:1059C300E0FF900000F09002C1E0FDA3E090011120
:1059D300CDF0A3EDF0EFFEE42400FFEE34DC900203
:1059E3006CF0A3EFF0E49002C3F09002C1E0FEA3D9
:1059F300E0FF9002C0E0C43354E02411F582E434A4
:105A030000F583C083C0829002C3E0FDD082D083BF
:105A130075F00212441FEEF0A3EFF09002C1E0FE16
:105A2300A3E0FFF5828E83E493FBED2401FDE433D1
:105A3300FCED6B7001EC600280768F828E837401C3
:105A430093FF6003B408089002C2E024028031EFA0
:105A5300B401089002C2E024038025EF64026004CD
:105A6300EFB406089002C2E024048014EF640460DB
:105A730009EF64056004EFB407109002C2E0240646
:105A8300F09002C1E03400F0803CEFB403229002B6
:105A9300C1E0FEA3E0F5828E837402932403FFE446
:105AA30033FE9002C2E02FF09002C1E03EF0801678
:105AB3009002C0E0C43354E02411F582E43400F5CD
:105AC30083E4F0A3F0229002C3E004F0E0641060EA
:105AD300030259ED22900111E0FEA3E0FF24E0F55B
