:080000000274E402786132325F
:07000B00027D9F01060204C3
:100013000200067B017A06790090031A7401F07FCF
:06002300007ED80265A07A
:0D002B0002000775A15575A1AA43B110226E
:03003B000278BE8A
:1000430002341DEF4E601505A105A105A105A1050B
:0D005300A105A105A1EF1F70EA1E80E722A4
:10006300027738EF6013E4900224F0A3F0900222A9
:10007300F0A3F0900220020585900111E0FEA3E0B9
:1000830024D5F582EE3401F583E493FD540175F034
:1000930002A424FFFEE5F034FF900325F0A3CEF085
:1000A300EDC313540175F002A424FFFEE5F034FF01
:1000B300A3F0A3CEF0900163E0FEA3E0FF9001A8BC
:1000C300E0FCA3E0FDD39FEC9E4008CEECCECFED49
:1000D300CF8000D3900160E09F90015FE09E4020BD
:1000E300900163E0FEA3E0FF9001A8E0FCA3E0FD24
:1000F300D39FEC9E4008CEECCECFEDCF800A800894
:1001030090015FE0FEA3E0FF9001A8EEF0A3EFF003
:10011300900165E0FEA3E0FF9001AAE0FCA3E0FDEF
:10012300D39FEC9E4008CEECCECFEDCF8000D39092
:100133000162E09F900161E09E4020900165E0FE36
:10014300A3E0FF9001AAE0FCA3E0FDD39FEC9E4057
:1001530008CEECCECFEDCF800A8008900161E0FE9F
:10016300A3E0FF9001AAEEF0A3EFF0900111E0FEEF
:10017300A3E024D5F582EE3401F583E493131354FD
:100183003F20E00302030A900153E0FEA3E0FF9047
:1001930001A8E0FCA3E0FDC39FEC9E900325E0FED5
:1001A3005037A3E0FFEEC0E0EFC0E0900153E0FE64
:1001B300A3E0FFC3ED9FFFEC9EFE3395E0FDFCE45F
:1001C300FB7A10F9F8124A4AECC0E0EDC0E0EEC049
:1001D300E0EFC0E090015B803BA3E0FFEEC0E0EF07
:1001E300C0E0900153E0FEA3E0FF9001A8E0FCA370
:1001F300E0C39FFFEC9EFE3395E0FDFCE4FB7A1029
:10020300F9F8124A4AECC0E0EDC0E0EEC0E0EFC0FE
:10021300E0900157E0FEA3E0FFCBEFCBCAEECAE4C8
:10022300F9F8D0E0FFD0E0FED0E0FDD0E0FC127B97
:1002330077CDEFCDCCEECCD0E0FFD0E0FE12497805
:10024300900325EEF0A3EFF0900155E0FEA3E0FF4D
:100253009001AAE0FCA3E0FDC39FEC9E900327E07E
:10026300FE5037A3E0FFEEC0E0EFC0E0900155E0A1
:10027300FEA3E0FFC3ED9FFFEC9EFE3395E0FDFC84
:10028300E4FB7A10F9F8124A4AECC0E0EDC0E0EE64
:10029300C0E0EFC0E090015D803BA3E0FFEEC0E073
:1002A300EFC0E0900155E0FEA3E0FF9001AAE0FC5F
:1002B300A3E0C39FFFEC9EFE3395E0FDFCE4FB7AD5
:1002C30010F9F8124A4AECC0E0EDC0E0EEC0E0EFEE
:1002D300C0E0900159E0FEA3E0FFCBEFCBCAEECA2A
:1002E300E4F9F8D0E0FFD0E0FED0E0FDD0E0FC126E
:1002F3007B77CDEFCDCCEECCD0E0FFD0E0FE124942
:1003030078900327020495900153E0FEA3E0FF9049
:1003130001A8E0FCA3E0FDC39FEC9E900327E0FE51
:100323005037A3E0FFEEC0E0EFC0E0900153E0FEE2
:10033300A3E0FFC3ED9FFFEC9EFE3395E0FDFCE4DD
:10034300FB7A10F9F8124A4AECC0E0EDC0E0EEC0C7
:10035300E0EFC0E090015B803BA3E0FFEEC0E0EF85
:10036300C0E0900153E0FEA3E0FF9001A8E0FCA3EE
:10037300E0C39FFFEC9EFE3395E0FDFCE4FB7A10A7
:10038300F9F8124A4AECC0E0EDC0E0EEC0E0EFC07D
:10039300E0900157E0FEA3E0FFCBEFCBCAEECAE447
:1003A300F9F8D0E0FFD0E0FED0E0FDD0E0FC127B16
:1003B30077CDEFCDCCEECCD0E0FFD0E0FE12497884
:1003C300900327EEF0A3EFF0900155E0FEA3E0FFCA
:1003D3009001AAE0FCA3E0FDC39FEC9E900325E0FF
:1003E300FE503EA3E0FFEEC0E0EFC0E0900155E019
:1003F300FEA3E0FFC3ED9FFFEC9EFEC3E49FFFE47B
:100403009EFE3395E0FDFCE4FB7A10F9F8124A4AAC
:10041300ECC0E0EDC0E0EEC0E0EFC0E090015D8035
:1004230042A3E0FFEEC0E0EFC0E0900155E0FEA381
:10043300E0FF9001AAE0FCA3E0C39FFFEC9EFEC394
:10044300E49FFFE49EFE3395E0FDFCE4FB7A10F9A4
:10045300F8124A4AECC0E0EDC0E0EEC0E0EFC0E0C5
:10046300900159E0FEA3E0FFCBEFCBCAEECAE4F95B
:10047300F8D0E0FFD0E0FED0E0FDD0E0FC127B77C7
:10048300CDEFCDCCEECCD0E0FFD0E0FE124978909A
:100493000325EEF0A3EFF0900327E0FEA3E0FFD3E4
:1004A3009400EE648094804002800F900327E0FE66
:1004B300A3E0FFC3E49FFFE49EFE900325E0FCA3BB
:1004C300E0FDD39400EC648094804002800F90039D
:1004D30025E0FCA3E0FDC3E49DFDE49CFCD3ED9F7C
:1004E300EE6480F8EC6480984025900325E0FEA339
:1004F300E0FFD39400EE6480948040028034900344
:1005030025E0FEA3E0FFC3E49FFFE49EFE8023906B
:100513000327E0FEA3E0FFD39400EE6480948040C1
:1005230002800F900327E0FEA3E0FFC3E49FFFE4F4
:100533009EFECAEECACBEFCB900111E0FEA3E024EE
:10054300DCF582EE3401F583E493FF7E007C007DCD
:1005530015124978C3EB9FFFEA9EFE900329F0A38F
:10056300EFF0D39400EE64809480501AE490022854
:10057300F0A3F0900226F0A3F0900224F0A3F090F1
:100583000222F0A3F022900111E0FEA3E0FF24D4A5
:10059300F582EE3401F583E493540F24FE700302D5
:1005A300078E147003020AC3147003020FB92403E5
:1005B3006003021501900220E07002A3E0600302D1
:1005C3000798EF24DEF582EE3401F583E493701D82
:1005D300900111E0FEA3E024DFF582EE3401F58300
:1005E300E4937009900220F0A3F002071A9001111E
:1005F300E0FEA3E0FF24DEF582EE3401F583E4930D
:10060300FBEF24DFF582EE3401F583E493C39BFD16
:100613003395E0FC7803900329E0FEA3E0CEA2E744
:1006230013CE13D8F8FF124978EEFD3395E0FCEBB7
:1006330025E0FFE433FEED2FFFEC3E900329F0A30A
:10064300EFF0900226E0FEA3E0FFD39400EE648077
:1006530094804002800F900226E0FEA3E0FFC3E4F3
:100663009FFFE49EFE900329E0FCA3E0FDD39FEEF1
:100673006480F8EC648098500A900226ECF0A3EDB5
:10068300F0806B900111E0FEA3E024DDF582EE34EF
:1006930001F583E4932401FDE433FC900226E0FE9C
:1006A300A3E0FFC390032AE09FFF900329E09EFE8F
:1006B3001249DFEEF0A3EFF04E7010900227E00432
:1006C300F0701C900226E004F08014900329E0FEF1
:1006D300A3E0FF900227E02FF0900226E03EF09087
:1006E3000226E0FFA3E0900329CFF0A3EFF09003ED
:1006F30029E0FEA3E0FFC374649FFFE49EFE900223
:1007030020F0A3EFF0D39400EE648094805008901F
:100713000220E4F0A304F0900325E0FEA3E0FFA38E
:10072300E0FCA3E0FDD39FEE6480F8EC6480984086
:1007330026E49FFFE49EFED3ED9FEE6480F8EC6415
:100743008098900111E0FE4007A3E024D7020AB489
:10075300A3E024D9020AB4900325E0FEA3E0FFC37B
:10076300E49FFFE49EFED3900328E09FEE6480F8AD
:10077300900327E0648098900111E0FE4006A3E017
:1007830024DA8004A3E024D8020AB4900220E070A3
:1007930002A3E0600F900221E024FFF0900220E02A
:1007A30034FFF022900111E0FEA3E0FF24DEF58286
:1007B300EE3401F583E4937017EF24DFF582EE3412
:1007C30001F583E4937009900220F0A3F00208FD81
:1007D300900111E0FEA3E0FF24DEF582EE3401F583
:1007E30083E493FBEF24DFF582EE3401F583E49396
:1007F300C39BFD3395E0FC7803900329E0FEA3E05F
:10080300CEA2E713CE13D8F8FF124978EEFD339545
:10081300E0FCEB25E0FFE433FEED2FFFEC3E90031D
:1008230029F0A3EFF0900226E0FEA3E0FFD39400AB
:10083300EE648094804002800F900226E0FEA3E0E5
:10084300FFC3E49FFFE49EFE900329E0FCA3E0FDC9
:10085300D39FEE6480F8EC648098500A900226ECF3
:10086300F0A3EDF0806B900111E0FEA3E024DDF531
:1008730082EE3401F583E4932401FDE433FC90021A
:1008830026E0FEA3E0FFC390032AE09FFF90032925
:10089300E09EFE1249DFEEF0A3EFF04E70109002DF
:1008A30027E004F0701C900226E004F0801490030B
:1008B30029E0FEA3E0FF900227E02FF0900226E05C
:1008C3003EF0900226E0FFA3E0900329CFF0A3EFD0
:1008D300F0900329E0FEA3E0FFC374649FFFE49E4E
:1008E300FE900220F0A3EFF0D39400EE6480948096
:1008F3005008900220E4F0A304F0900325E0FEA347
:10090300E0FF7C007D03124978CAEECACBEFCBA38C
:10091300E0FEA3E0FF7D07124978D3EF9BEA6480F2
:10092300F8EE648098403C900325E0FEA3E0FFE4EA
:100933009FFFE49EFE7D03124978CAEECACBEFCB3C
:10094300A3E0FEA3E0FF7D07124978D3EF9BEA649F
:1009530080F8EE648098400B900111E0FEA3E02440
:10096300D78068900325E0FEA3E0FF7C007D03129F
:100973004978CAEECACBEFCBA3E0FEA3E0FF7D0725
:10098300124978C3EF9BEA6480F8EE648098504A7A
:10099300900325E0FEA3E0FFC3E49FFFE49EFE7DFA
:1009A30003124978CAEECACBEFCBA3E0FEA3E0FF64
:1009B3007D07124978C3EF9BEA6480F8EE64809860
:1009C3005018900111E0FEA3E024D8F582EE340123
:1009D300F583E493FD7FFF126FBD900325E0FEA333
:1009E300E0FF7C007D07124978CAEECACBEFCBA3A8
:1009F300E0FEA3E0FF7D03124978D3EF9BEA648016
:100A0300F8EE648098403C900325E0FEA3E0FFE409
:100A13009FFFE49EFE7D07124978CAEECACBEFCB57
:100A2300A3E0FEA3E0FF7D03124978C3EF9BEA64D2
:100A330080F8EE648098500B900111E0FEA3E0244F
:100A4300D9806E900325E0FEA3E0FF7C007D0712B2
:100A53004978CAEECACBEFCBA3E0FEA3E0FF7D0348
:100A6300124978C3EF9BEA6480F8EE6480984003F0
:100A7300021501900325E0FEA3E0FFC3E49FFFE41A
:100A83009EFE7D07124978CAEECACBEFCBA3E0FEE8
:100A9300A3E0FF7D03124978D3EF9BEA6480F8EE6D
:100AA3006480985003021501900111E0FEA3E02435
:100AB300DAF582EE3401F583E493FD7FFF026FBD27
:100AC300900111E0FEA3E024DFF582EE3401F5830B
:100AD300E493FB3395E0FA7803900325E0FEA3E06B
:100AE300CEA2E713CE13D8F8FFCDEBCDCCEACC12D0
:100AF30049787804EFCEA2E713CE13D8F8FF90031A
:100B030025EEF0A3EFF07803A3E0FEA3E0CEA2E787
:100B130013CE13D8F8FFCDEBCDCCEACC12497878BD
:100B230004EFCEA2E713CE13D8F8FF900327EEF01D
:100B3300A3EFF0900226E0FEA3E0FFD39400EE645F
:100B43008094804002800F900226E0FEA3E0FFC362
:100B5300E49FFFE49EFE900325E0FCA3E0FDD39415
:100B630000EC648094804002800F900325E0FCA396
:100B7300E0FDC3E49DFDE49CFCD3ED9FEE6480F8AF
:100B8300EC6480985002802E900226E0FEA3E0FFE2
:100B9300D39400EE648094804002800F900226E09C
:100BA300FEA3E0FFC3E49FFFE49EFED3EF9420EE99
:100BB300648094834012900325E0FFA3E090022613
:100BC300CFF0A3EFF0020CE7900226E0FEA3E0FFD4
:100BD300D39400EE6480948040028007C3E49FFFB7
:100BE300E49EFECCEECCCDEFCD900111E0FAA3E074
:100BF300FB24DEF582EA3401F583E49375F00AA45D
:100C0300FFD3ED9FE5F06480F8EC648098405DEBE2
:100C130024DDF582EA3401F583E4932401FDE43312
:100C2300FC900226E0FEA3E0FF900325E0FAA3E098
:100C3300FBC39FFFEA9EFE1249DF900329EEF0A358
:100C4300EFF04E6003020CD3C3EA64809480500734
:100C53007EFF7FFF020CDBD3EB9400EA6480948079
:100C63007E0040047F0180027F00806C900111E0D0
:100C7300FEA3E024DDF582EE3401F583E49375F001
:100C83000AA42401FDE435F0FC900226E0FEA3E073
:100C9300FF900325E0FAA3E0FBC39FFFEA9EFE1249
:100CA30049DF900329EEF0A3EFF04E7023C3EA640B
:100CB30080948050067EFF7FFF8013D3EB9400EA7D
:100CC300648094807E0040047F0180027F0080085E
:100CD300900329E0FEA3E0FF900227E02FF09002AB
:100CE30026E03EF0900228E0FEA3E0FFD39400EE5E
:100CF300648094804002800F900228E0FEA3E0FF0E
:100D0300C3E49FFFE49EFE900327E0FCA3E0FDD332
:100D13009400EC648094804002800F900327E0FCF1
:100D2300A3E0FDC3E49DFDE49CFCD3ED9FEE648052
:100D3300F8EC6480985002802E900228E0FEA3E035
:100D4300FFD39400EE648094804002800F900228C9
:100D5300E0FEA3E0FFC3E49FFFE49EFED3EF9420F5
:100D6300EE648094834012900327E0FFA3E0900297
:100D730028CFF0A3EFF0020E93900228E0FEA3E049
:100D8300FFD39400EE6480948040028007C3E49F05
:100D9300FFE49EFECCEECCCDEFCD900111E0FAA3A3
:100DA300E0FB24DEF582EA3401F583E49375F00A6F
:100DB300A4FFD3ED9FE5F06480F8EC648098405A7B
:100DC300EB24DDF582EA3401F583E4932401FDE4A9
:100DD30033FC900228E0FEA3E0FF900327E0FAA390
:100DE300E0FBC39FFFEA9EFE1249DFA3EEF0A3EFF1
:100DF300F04E6003020E7FC3EA6480948050067E47
:100E0300FF7FFF807FD3EB9400EA648094807E00B1
:100E130040047F0180027F00806A900111E0FEA3FD
:100E2300E024DDF582EE3401F583E49375F00AA442
:100E33002401FDE435F0FC900228E0FEA3E0FF90DE
:100E43000327E0FAA3E0FBC39FFFEA9EFE1249DFFC
:100E5300A3EEF0A3EFF04E7023C3EA6480948050B6
:100E6300067EFF7FFF8013D3EB9400EA64809480B7
:100E73007E0040047F0180027F008008900329E008
:100E8300FEA3E0FF900229E02FF0900228E03EF05D
:100E9300900226E0FEA3E0FF900223E02FF09002F1
:100EA30022E03EF0900228E0FEA3E0FF900225E05E
:100EB3002FF0900224E03EF0900222E0FEA3E0FF38
:100EC300D39440EE64809460400280047EE07F40CF
:100ED300C3EF94C0EE6480949F5019900222E0FE09
:100EE300A3E0FF9440EE648094604002800A7EE0B9
:100EF3007F4080047E1F7FC0900222EEF0A3EFF0BC
:100F0300A3E0FEA3E0FFD39440EE6480946040022C
:100F130080047EE07F40C3EF94C0EE6480949F50D2
:100F230019900224E0FEA3E0FF9440EE64809460F5
:100F33004002800A7EE07F4080047E1F7FC09002D3
:100F430024EEF0A3EFF0900222E0FCA3E0FD78068C
:100F5300CEECCECEA2E713CE13D8F8900240F078B1
:100F630006900224E0FEA3E0CEA2E713CE13D8F846
:100F7300F404F9900241F0900240E0FF3395E0FE63
:100F83007806EFC333CE33CED8F9FFC3ED9FFFEC22
:100F93009E900222F0A3EFF0E9FF3395E0FE78067E
:100FA300EFC333CE33CED8F9FF900225E02FF09074
:100FB3000224E03EF022900222E0FEA3E0FF900331
:100FC30025E0FCA3E0FDC39FFFEC9EFE7802EFCE7D
:100FD300A2E713CE13D8F8FF900329EEF0A3EFF0A6
:100FE3004E7023C3EC6480948050067EFF7FFF80A5
:100FF3001DD3ED9400EC648094807E0040047F0157
:1010030080027F008008900329E0FEA3E0FF9002A6
:1010130023E02FF0900222E03EF0900224E0FEA3B2
:10102300E0FF900327E0FCA3E0FDC39FFFEC9EFEDF
:101033007802EFCEA2E713CE13D8F8FF900329EE80
:10104300F0A3EFF04E7023C3EC6480948050067ECF
:10105300FF7FFF801DD3ED9400EC648094807E00BD
:1010630040047F0180027F008008900329E0FEA3F3
:10107300E0FF900225E02FF0900224E03EF0900381
:1010830025E0FAA3E0FBD39400EA64809480900106
:1010930011E0FE4006A3E024DA8004A3E024D9F59E
:1010A30082EE3401F583E493FF900226E4F0A3EF8C
:1010B300F0D3ED9400EC64809480900111E0FE4045
:1010C30006A3E024D78004A3E024D8F582EE3401FC
:1010D300F583E493FF900228E4F0A3EFF090022657
:1010E300E0FEA3E0FFC3941EEE648094804017D318
:1010F300EF9427EE64809480500CEF25E0FFEE33ED
:10110300FEEF24C68027900226E0FEA3E0FFC394EF
:1011130059EE648094804022D3EF9462EE6480940D
:10112300805017EF25E0FFEE33FEEF244FFFEE3440
:10113300FF900226F0A3EFF08007E4900226F0A3CD
:10114300F0900228E0FEA3E0FFC3941EEE648094B7
:10115300804017D3EF9427EE64809480500CEF25E2
:10116300E0FFEE33FEEF24C68027900228E0FEA3C3
:10117300E0FFC39459EE648094804022D3EF9462DD
:10118300EE648094805017EF25E0FFEE33FEEF24EA
:101193004FFFEE34FF900228F0A3EFF08007E490B6
:1011A3000228F0A3F0D3EB9401EA64809470400A20
:1011B300900325E0FEA3E0FF80047EF07F01C3EFF0
:1011C30094FFEE6480948F5019900325E0FEA3E012
:1011D300FF9401EE648094704002800A7EF07F01E8
:1011E30080047E0F7FFF900325EEF0A3EFF0D3ED95
:1011F3009401EC648094704008A3E0FEA3E0FF80B8
:10120300047EF07F01C3EF94FFEE6480948F501946
:10121300900327E0FEA3E0FF9401EE648094704006
:1012230002800A7EF07F0180047E0F7FFF900327F8
:10123300EEF0A3EFF0900226E0FEA3E0FFCBEFCBAE
:10124300CAEECAEA3395E0F9F8900222E0FEA3E081
:10125300FFEE3395E0FDFC124A4AC8ECC8C9EDC95C
:10126300CAEECACBEFCB900111E0FEA3E024DFF579
:1012730082EE3401F583E493FFE4FCFDFE124A4A57
:10128300E47B7DFAF9F8127B77900226EEF0A3EF68
:10129300F0A3E0FEA3E0FFEE3395E0FDFC124B6705
:1012A300C8ECC8C9EDC9CAEECACBEFCB900224E0A3
:1012B300FEA3E0FFEE3395E0FDFC124A4AC8ECC8FA
:1012C300C9EDC9CAEECACBEFCB900111E0FEA3E092
:1012D30024DFF582EE3401F583E493FFE4FCFDFEA5
:1012E300124A4AE47B7DFAF9F8127B77900228EEE2
:1012F300F0A3EFF0900111E0FEA3E024DDF582EE10
:101303003401F583E493FFE4FCFDFE7BFF7A7FF970
:10131300F8124A4AE47B32FAF9F8127B77900325F4
:10132300EEF0A3EFF0900111E0FEA3E024DEF582DE
:10133300EE3401F583E493FFE4FCFDFE7BFF7A7F4B
:10134300F9F8124A4AE47B32FAF9F8127B779003F0
:1013530027EEF0A3EFF0D3900227E094009002264B
:10136300E0648094804047900325E0FEA3E0FFCB38
:10137300EFCBCAEECAEA3395E0F9F8900226E0FE15
:10138300A3E0FFEE3395E0FDFCEB2FFFEA3EFEE921
:101393003DFDE83CFCE47BFF7A7FF9F8C3124B7513
:1013A300500C900325747FF0A374FFF08055C39015
:1013B3000226E0648094805036900325E0FEA3E08B
:1013C300FFCBEFCBCAEECAEA3395E0F9F8900226D9
:1013D300E0FEA3E0FFEE3395E0FDFCEB2FEA3EE9F0
:1013E3003DE83C335009E4900325F0A3F0801490CA
:1013F3000226E0FEA3E0FF900326E02FF0900325F2
:10140300E03EF0D3900229E09400900228E064804B
:1014130094804047900327E0FEA3E0FFCBEFCBCAC5
:10142300EECAEA3395E0F9F8900228E0FEA3E0FF64
:10143300EE3395E0FDFCEB2FFFEA3EFEE93DFDE8D0
:101443003CFCE47BFF7A7FF9F8C3124B75500C9098
:101453000327747FF0A374FFF08056C3900228E043
:10146300648094805037900327E0FEA3E0FFCBEF26
:10147300CBCAEECAEA3395E0F9F8900228E0FEA35E
:10148300E0FFEE3395E0FDFCEB2FFFEA3EE93DE89C
:101493003C335009E4900327F0A3F0801490022812
:1014A300E0FEA3E0FF900328E02FF0900327E03E47
:1014B300F0900325E0FCA3E0FDCFEDCF900246F0D2
:1014C300ECFFEFA3F0900327E0FCA3E0FDCFEDCF0B
:1014D300900248F0ECFFEFA3F09002457411F090F6
:1014E3000220E07002A3E07F0070027F017E009083
:1014F3000220EEF0A3EFF025E014900240F022E486
:10150300900325F0A374FFF0E4F525F526EF604A78
:101513009001FAE0FCA3E0FDA3E0FEA3E0FF90024C
:1015230094124BC29001FAE0FCA3E0FDA3E0FEA3FA
:10153300E02401FFE43EFEED34FFFDEC34FFFC90BC
:101543000298124BC27E007F107D007B017A0279E4
:10155300F6124C5EE490029EF0229002F5E0FF54F6
:1015630070600DEF20E7030225AA547FF00223CE1B
:101573009001FAA3A3A3E0FF90029FE0FEC3EF9EB6
:10158300C3941450030225AAE02414F0900306E048
:10159300FEA3E0F5828E8374F593700374F4936075
:1015A3002EE4F52374402523F582E43401F583E02A
:1015B30060169001FAE0FCA3E0FDA3E0FEA3E0FFC8
:1015C300900298124BC280070523E523B410D590EF
:1015D300029EE0540FFFBF021D7403F09001FAE076
:1015E300FCA3E0FDA3E0FEA3E0FF900294124BC234
:1015F3009002A074FFF090029EE0540F6403600316
:1016030002172D90029CE0FEA3E0FFCBEFCBCAEEC6
:10161300CA900306E0FEA3E0F5828E8374F893FE7E
:1016230074F993FFEF2BFFEE3AFEE433FDE433C08E
:10163300E0EDC0E0EEC0E0EFC0E0900294E0F8A37C
:10164300E0F9A3E0FAA3E0FB9001FAE0FCA3E0FDDC
:10165300A3E0FEA3E0C39BFBEE9AFAED99F9EC98A5
:10166300F8D0E0FFD0E0FED0E0FDD0E0FCD3124B99
:101673008B500302172D900306E0FEA3E0F5828E44
:101683008374F493FE74F593FF4E604C7C007D0AE3
:10169300124C31ECC0E0EDC0E0EEC0E0EFC0E090F2
:1016A3000298E0F8A3E0F9A3E0FAA3E0FB9001FAC3
:1016B300E0FCA3E0FDA3E0FEA3E0C39BFBEE9AFAEC
:1016C300ED99F9EC98F8D0E0FFD0E0FED0E0FDD042
:1016D300E0FCD3124B8B4052900306E0FEA3E0F5EF
:1016E300828E8374FB93700374FA93602E1279BE17
:1016F300CCEECCCDEFCDAF8AEF6CFEEDFF900306C1
:10170300E0FCA3E0F5828C8374FA93FC74FB93FDF5
:1017130012498ACEECCECFEDCF80047E007F0090BD
:10172300029CEEF0A3EFF0E4A3F090029EE0540FCE
:10173300600302190C04F09001FAE0FCA3E0FDA39E
:10174300E0FEA3E0FF900294124BC2E49002A0F0EB
:10175300900306E0FEA3E0F5828E8374F193FF709D
:10176300030218E8EFD39404501B900306E0FEA392
:10177300E0F5828E8374F1931475F008A4FD74F080
:10178300932D021900900306E0FEA3E0F5828E83F9
:1017930074F193B40503021906E4F524F5239003C9
:1017A30006E0FEA3E0FFF5828E8374EB932401FD34
:1017B300E433FCC3E5239DEC6480F87480985035D2
:1017C300E523C39409502EE58224E0F582E43583B2
:1017D300F583E5822523F582E43583F583E493FFDE
:1017E300600DD39404500874082524F52480020561
:1017F30024052380A9900306E0FEA3E0F5828E83EF
:1018030074F193B4060F9002A2E004F0C395244050
:101813002AE4F080261279BEAD8AEF6DFFAD247CF9
:10182300001249DF8D239002A2E065237007E524AF
:10183300D3940150E09002A2E523F0E4F524F523CC
:10184300900306E0FEA3E0FFF5828E8374EB9324FE
:1018530001FDE433FCD3E5239DEC6480F8748098A8
:10186300507FE523940950799002A2E0F9E5249989
:10187300403DE52324DFFDE433FCEF2DF582EE3C10
:10188300F583E493600DD394045008E92408C395C9
:1018930024F524E52324DFFFE433FE900306E0FC74
:1018A300A3E02FF582EC3EF583E493F52380329099
:1018B3000306E0FCA3E024E0F582E43CF583E58243
:1018C3002523F582E43583F583E493600DD39404F3
:1018D300500874082524F5248002052405230218E2
:1018E30043E52370089002A374C8F0801CE523D35A
:1018F3009404500FE5231475F008A425249002A343
:10190300F080069002A37464F090029EE0540F648A
:101913000170599001FAA3A3E0FEA3E0FFCBEFCB44
:10192300CAEECA900294A3A3E0FEA3E0FFC3EB9F19
:10193300FFEA9EFE900306E0FCA3E0F5828C83C3DE
:1019430074F7939F74F6939E50229002A3E064C8A9
:10195300601A9001FAE0FCA3E0FDA3E0FEA3E0FF20
:10196300900294124BC29002A0E004F09002A3E014
:10197300FFC39420500FEF75F010A424D1F97481A4
:1019830035F0FA801B9002A3E0B4643B900307E0B8
:101993002490FF900306E03400FECAEECAC9EFC9E3
:1019A3007BFFEBC0E0EAC0E0E9C0E0C874A5C8CCA7
:1019B3007402CCCD7401CDD0E0F9D0E0FAD0E0FBD5
:1019C3007E007F101248F1900306E0FEA3E0FFCAF9
:1019D300EECAC9EFC97BFFEBC0E0EAC0E0E9C0E0B3
:1019E300C874B5C8CC7402CCCD7401CDD0E0F9D0A5
:1019F300E0FAD0E0FB7E007F301248F1E4F523905B
:101A03000306E0FEA3E0F5828E8374F39370030272
:101A13001B0974F29320E003021B09E52375F0030D
:101A2300A424B5F582E43402F583E0C0E0E5237530
:101A3300F003A424B6F582E43402F583E0C0E0E5C4
:101A43002375F003A424B7F582E43402F583E0C0E0
:101A5300E0E52375F003A4FFAEF024B5F974023E6C
:101A6300FA7B01EBC0E0EAC0E0E9C0E074B62FF90D
:101A730074023EFAEBC0E0EAC0E0E9C0E074B72FBD
:101A8300F974023EFA90033BEBF0A3EAF0A3E9F00A
:101A9300D0E0F9D0E0FAD0E0900338F0A3EAF0A365
:101AA300E9F0D0E0F9D0E0FAD0E0FB900335F0A301
:101AB300EAF0A3E9F0900306E0FEA3E0F5828E834B
:101AC30074F393FFCBEFCBE4FAF9F89001FAE0FC5F
:101AD300A3E0FDA3E0FEA3E0FF124AD5E47BEA7A8C
:101AE30003F9F8124AD5CCE8CCCDE9CDCEEACECF76
:101AF300EBCF900333EEF0A3EFF0D0E0FBD0E0FDAB
:101B0300D0E0FF1254DD9002A3E064C86003021D1D
:101B130082900306E0FEA3E0F5828E8374F7937050
:101B23000374F6937003021D829001FAA3A3E0FEEF
:101B3300A3E0FFCBEFCBCAEECA900294A3A3E0FECF
:101B4300A3E0FFC3EB9FFBEA9EFA900306E0FEA32C
:101B5300E0F5828E8374F693FE74F793FFD394E8D3
:101B6300EE9403400280047E037FE87C037DE81249
:101B7300498ACDEFCDCCEECCCFEBCFCEEACE124916
:101B83008A7C037DEA12498A90032BECF0A3EDF0E3
:101B9300C394F5EC9401403590032BE0FEA3E0FFE2
:101BA30074E99FF074039E90032BF0900306E0FE0C
:101BB300A3E0F5828E8374FD9375F00384AFF07513
:101BC30025008F2690029EE04480F0802F9003062C
:101BD300E0FEA3E0F5828E8374FC9375F00384AF7B
:101BE300F07525008F2690029EE0B4810FE523B4A3
:101BF3000F037402F0E490032BF0A3F090029EE035
:101C0300540F64016007E490032BF0A3F0E526452D
:101C130025705DF52475F003E523A42524F582E4FE
:101C230035F0F583E58224B5F582E5833402F58347
:101C3300E0FF7E0090032BE0FCA3E0FD124C31E4B7
:101C43007BF47A01F9F8124AD575F003E523A4254C
:101C530024F582E435F0F583E58224B5F582E58346
:101C63003402F583EFF00524E524B403A8021D79BB
:101C7300E526640145256003021D0690032BE0FE63
:101C8300A3E0FF7C007DFF124C31E47BF47A01F981
:101C9300F8124AD574D12FF58274803EF583E4930C
:101CA300FF90032BE4F0A3EFF0E4F52475F003E5D4
:101CB30023A42524F582E435F0F583E58224B5F5E4
:101CC30082E5833402F583E0FF7E0090032BE0FC82
:101CD300A3E0FD1249787C007DFF12498A75F00369
:101CE300E523A42524F582E435F0F583E58224B5C4
:101CF300F582E5833402F583EFF00524E524B4038C
:101D0300AB807390032BE0FEA3E024DCF582747EAA
:101D13003EF583E493FF90032BE4F0A3EFF0E4F5A7
:101D23002475F003E523A42524F582E435F0F58337
:101D3300E58224B5F582E5833402F583E0FF7E0076
:101D430090032BE0FCA3E0FD1249787C007DFF1299
:101D5300498A75F003E523A42524F582E435F0F5DB
:101D630083E58224B5F582E5833402F583EFF0053C
:101D730024E524B403AB9003257401F0021F3390D0
:101D830002A3E064C87003021F3374A52523F58200
:101D9300E43402F583E0FF9002A0E0FEEF6E6003FF
:101DA300021E8D90032504F0900306E0FEA3E0F5E8
:101DB300828E8374FC93FFC3741F9FF526E4940003
:101DC300F525D3E526940AE525648094804015AE75
:101DD30025AF267C007D0A124978EF24A6F526EE6E
:101DE30034FFF52574F62523F582E43402F583E008
:101DF300FFC374FF9FFFE49400FED3EF9526E52510
:101E03006480F8EE64809874F6400F2523F582E42D
:101E13003402F583E02526F0800C2523F582E43493
:101E230002F58374FFF0E4F52475F003E523A4259C
:101E330024F582E435F0F583E58224B5F582E58364
:101E43003402F583E0FF7E0074F62523F582E43443
:101E530002F583E09080D193FD7C001249787DFFE9
:101E630012498A75F003E523A42524F582E435F0AD
:101E7300F583E58224B5F582E5833402F583EFF03B
:101E83000524E524B403A2021F33900306E0FEA356
:101E9300E0F5828E8374FD932401FDE433FC74F634
:101EA3002523F582E43402F583E0FBFF7E0012492B
:101EB300DF8E258F26EB600BE52645257005F5257E
:101EC30075260174F62523F582E43402F583E0C315
:101ED3009526F0E4F52475F003E523A42524F58283
:101EE300E435F0F583E58224B5F582E5833402F524
:101EF30083E0FF7E0074F62523F582E43402F58344
:101F0300E0FD7C001249787DFF12498A75F003E5F4
:101F130023A42524F582E435F0F583E58224B5F581
:101F230082E5833402F583EFF00524E524B403A6A8
:101F330074402523F582E43401F583E0607990034E
:101F430006E0FCA3E02523F582E43CF5837460936B
:101F53002401FDE433FC74E52523F582E43402F522
:101F630083E0FBFFC374FF9FFFE49400FE1249DF8D
:101F73008E258F26C374FF9B600BE52645257005D0
:101F8300F52575260174E52523F582E43402F583EE
:101F9300E02526F0900306E0FCA3E02523F582E488
:101FA3003CF583748093FF900326E0D39F50030294
:101FB300205EEFF002205E900306E0FCA3E0252301
:101FC300F582E43CF5837470932401FDE433FC74DF
:101FD300E52523F582E43402F583E0FBFF7E00125E
:101FE30049DF8E258F26EB600BE52645257005F529
:101FF3002575260174E52523F582E43402F583E093
:10200300C39526F0E4F52475F003E523A42524F510
:1020130082E435F0F583E58224B5F582E583340265
:10202300F583E0FF9002A1E0FEEF8EF0A4FFAEF097
:102033007C007DFF12498A75F003E523A42524F56E
:1020430082E435F0F583E58224B5F582E583340235
:10205300F583EFF00524E524B403AC900306E0FC1C
:10206300A3E0FDF5828C8374F393FE70030221B524
:1020730074F29320E1030221B5900306A3E0F582F5
:102083008C8375F003E523124BFF743093C0E08D0E
:10209300828C8375F003E523124BFF743193C0E008
:1020A300900306A3E0F5828C8375F003E523124BBE
:1020B300FF743293FBC0E0CBEECBE4FAF9F8900166
:1020C300FAE0FCA3E0FDA3E0FEA3E0FF124AD5E49F
:1020D3007BEA7A03F9F8124AD5CCE8CCCDE9CDCE28
:1020E300EACECFEBCF900333EEF0A3EFF0A374016E
:1020F300F0A37403F0A3742DF0A37401F0A374038D
:10210300F0A3742EF0A37401F0A37403F0A3742F4F
:10211300F0D0E0FBD0E0FDD0E0FF1254DD90032DC2
:10212300E0FFE52375F003A424B5F582E43402F55A
:1021330083E0FDC3EF9DFFE49400FE74E52523F5E2
:1021430082E43402F583E0FD7C001249787DFF12BE
:1021530049DFE52375F003A424B5F582E43402F5E1
:1021630083E02FF090032EE0FFE52375F003A42412
:10217300B6F582E43402F583E0FDC3EF9DFFE494FA
:1021830000FE74E52523F582E43402F583E0FD7C4B
:10219300001249787DFF1249DFE52375F003A4247B
:1021A300B6F582E43402F583E02FF090032FE002CA
:1021B3002277900306E0FAA3E0FBF5828A8375F0A9
:1021C30003E523124BFF743093FFE52375F003A45B
:1021D30024B5F582E43402F583E0FDC3EF9DFFE40B
:1021E3009400FE74E52523F582E43402F583E0FDD3
:1021F3007C001249787DFF1249DFE52375F003A4C3
:1022030024B5F582E43402F583E02FF08B828A83D0
:1022130075F003E523124BFF743193FFE52375F04B
:1022230003A424B6F582E43402F583E0FDC3EF9DF5
:10223300FFE49400FE74E52523F582E43402F5837C
:10224300E0FD7C001249787DFF1249DFE52375F03C
:1022530003A424B6F582E43402F583E02FF090035F
:1022630006E0FEA3E0F5828E8375F003E523124BAF
:10227300FF743293FFE52375F003A424B7F582E4DA
:102283003402F583E0FDC3EF9DFFE49400FE74E5A3
:102293002523F582E43402F583E0FD7C00124978BE
:1022A3007DFF1249DFE52375F003A424B7F582E42B
:1022B3003402F583E02FF00523E523C39410500384
:1022C300021A02900325E0700A90029EE0540F6404
:1022D300016037900306E0FEA3E0F5828E8374F578
:1022E30093700374F49360289001FAE0FCA3E0FD7B
:1022F300A3E0FEA3E0FF900298E0F8A3E0F9A3E0D7
:10230300FAA3E0FBC3124B8B700690029E7402F09B
:102313009002A1E0FB900326E0FAD39B4067900371
:1023230006E0FEA3E0F5828E8374FE93FF741F9F85
:10233300F526E49400F525D3E526940AE525648083
:1023430094804015AE25AF267C007D0A124978EFB4
:1023530024A6F526EE34FFF525EBFFEAC39FFFE441
:102363009400FED3EF9526E5256480F8EE6480980B
:1023730040099002A1E02526F08050900326E090CA
:1023830002A1F080469002A1E0FF900326E0FEC385
:102393009F5038EEFDC3EF9DFFE49400FE900306CB
:1023A300E0FCA3E0F5828C8374FF932401FDE43306
:1023B300FC1249DF8E258F26E52645257005F52578
:1023C3007526019002A1E0C39526F0900111E0FE6D
:1023D300A3E024FEF582EE3401F583E493FF705EFF
:1023E300F523E52375F003A424B5F582E43402F55F
:1023F30083E0FEE52375F003A42433F8EEF6E5232A
:1024030075F003A424B6F582E43402F583E0FEE517
:102413002375F003A42432F8EEF6E52375F003A444
:1024230024B7F582E43402F583E0FEE52375F00377
:10243300A42434F8EEF60523E523B410A522EF64B3
:1024430003706AF523E52390861B9375F003A42498
:10245300B5F582E43402F583E0FFE52375F003A4C8
:102463002433F8EFF6E52390861B9375F003A42439
:10247300B6F582E43402F583E0FFE52375F003A4A7
:102483002432F8EFF6E52390861B9375F003A4241A
:10249300B7F582E43402F583E0FFE52375F003A486
:1024A3002434F8EFF60523E523B4109922900111A3
:1024B300E0FEA3E024FEF582EE3401F583E493FF0E
:1024C30064027075F523C37410952375F003A42477
:1024D300B5F582E43402F583E0FEE52375F003A449
:1024E3002433F8EEF6E523FDC374109DFDE4940058
:1024F300FC9002B675F003ED124BFFEC75F003A4EC
:102503002583F583E0FEE52375F003A42432F8EE7A
:10251300F69002B775F003ED124BFFEC75F003A4D0
:102523002583F583E0FEE52375F003A42434F8EE58
:10253300F60523E523B4108E22EF64017069F523B9
:10254300E52390860B9375F003A424B5F582E43458
:1025530002F583E0FFE52375F003A42433F8EFF6D7
:10256300E52390860B9375F003A424B6F582E43437
:1025730002F583E0FFE52375F003A42432F8EFF6B8
:10258300E52390860B9375F003A424B7F582E43416
:1025930002F583E0FFE52375F003A42434F8EFF696
:1025A3000523E523B4109922E4900311F0A3F0A3CB
:1025B300F0A3F0900254F090028AF090026FF09032
:1025C300026EF090023AF0C87475C8CC7402CCCD98
:1025D3007401CD7B017A027958FE7F151248F17E92
:1025E300007F157D007B017A027958124C5E9002C0
:1025F3003FE0900251F07E007F047D007B017A0270
:10260300793F124C5E9002447410F07E007F047D8B
:10261300FF7B017A027946124C5E900253E09002EE
:1026230070F0E4900253F090028EE0540190024C5B
:10263300F0E490028FF090028EF0900000E0C4333B
:1026430054E02411F582E43400F583E0FEA3E04E68
:1026530070037FFF2290023DE0604824D3F582E4BB
:102663003401F583E0602290023DE0243FF582E4EB
:102673003401F583E0701290028CE054036003E0B0
:1026830014F090028CE04404F090028BE07F007021
:10269300027F0190028BEFF070030232F9124214B1
:1026A3000232F9E4900314F0900314E0FFC3941092
:1026B300400302276774402FF582E43401F583E079
:1026C300700302275E900000E0C43354E02411F548
:1026D30082E43400F583C083C082900314E0D08287
:1026E300D08375F002124BFFE0FCA3E0F5828C83EC
:1026F300740193FEB4010E900273E0FDEF6D60056B
:102703009003118053EEB40211900273E0FF900323
:1027130014E06F6005900312803E900000E0C43324
:1027230054E02411F582E43400F583C083C0829021
:102733000314E0FFD082D08375F002124BFFE0FC5C
:10274300A3E0F5828C83740193B4070F900273E0C6
:10275300FEEF6E6006900313E004F0900314E004B0
:10276300F00226ABE4900314F0900314E0FFC3944B
:10277300104003022ED6900273E0FEEF6E70569067
:102783000314E02440F582E43401F583E06003029E
:102793002ECD74D42FF582E43401F583E060030277
:1027A3002ECD90024DE004F0E0D3940A5003022EA4
:1027B300CDE4F0900314E02403FF900256E0FD12F1
:1027C3006FBD900250E0FF7D021273279002737475
:1027D300FFF0022ECD900314E0FF2440F582E43491
:1027E30001F583E07003022D00900000E0C4335430
:1027F300E02411F582E43400F58375F002EF124B07
:10280300FFE0FEA3E0FFF5828E83740193B401061B
:10281300126FAC022ECD900000E0C43354E02411BB
:10282300F582E43400F583C083C082900314E0D0C2
:1028330082D08375F002124BFFE0FEA3E0FFF58226
:102843008E8374019364027040126FAC900258E05F
:10285300FF900000E0C43354E02411F582E4340017
:10286300F583C083C082900314E0D082D08375F0D7
:1028730002124BFFE0FCA3E0F5828C83740393FE0A
:10288300EF4E900258F0022ECD900000E0C4335476
:10289300E02411F582E43400F583C083C082900301
:1028A30014E0FFD082D08375F002124BFFE0FCA34B
:1028B300E0FDF5828C8374019364037055900311DA
:1028C300E06003022ECDA3E06003022ECDA3E060FF
:1028D30003022ECD74D42FF582E43401F583E06036
:1028E30003022ECD900314E00490023DF0ED240387
:1028F300FEE43C90024EF0A3CEF0E490023BF0A342
:10290300F090028C7402F090028B14F012421402C5
:102913002ECD900000E0C43354E02411F582E4345A
:1029230000F583C083C082900314E0D082D0837506
:10293300F002124BFFE0FEA3E0F5828E8374019355
:10294300FF64046008EF64056003022ADD9003144A
:10295300E0FF24D4F582E43401F583E0700D7401C3
:102963002FF582E43400F5837402F0900000E0C494
:102973003354E02411F582E43400F583C083C0822C
:10298300900314E0D082D08375F002124BFFE0FE77
:10299300A3E02402FFE43E8F82F583E493FE7401F7
:1029A30093FFE4FCFDFB7A80F9F8124A4AECC0E09D
:1029B300EDC0E0EEC0E0EFC0E0900111E0FEA3E067
:1029C30024FAF582EE3401F583E493FE740193FF58
:1029D300CBEFCBCAEECAE4F9F8D0E0FFD0E0FED0EB
:1029E300E0FDD0E0FC127B77900315EEF0A3EFF04F
:1029F300900000E0C43354E02411F582E43400F580
:102A030083C083C082900314E0D082D08375F00228
:102A1300124BFFE0FEA3E02404FFE43E8F82F58324
:102A2300E493FE740193FFE4FCFDFB7A80F9F81252
:102A33004A4AECC0E0EDC0E0EEC0E0EFC0E0900138
:102A430011E0FEA3E024FCF582EE3401F583E49368
:102A5300FE740193FFCBEFCBCAEECAE4F9F8D0E0E2
:102A6300FFD0E0FED0E0FDD0E0FC127B77900317AF
:102A7300EEF0A3EFF0900315E0FCA3E0FDCFEDCF64
:102A8300900246F0ECA3F0900317E0FCA3E0FDCF27
:102A9300EDCF900248F0ECA3F0900000E0C4335473
:102AA300E02411F582E43400F583C083C0829003EF
:102AB30014E0FFD082D08375F002124BFFE0FCA339
:102AC300E0F5828C83740193B40507900244E044DB
:102AD30001F0900245EFF0022ECD900000E0C433E8
:102AE30054E02411F582E43400F583C083C082905E
:102AF3000314E0FFD082D08375F002124BFFE0FC99
:102B0300A3E0F5828C8374019364066003022BE7D0
:102B130074039320E703022ECD900273E0F4600365
:102B2300022ECD74D42FF582E43401F583E06003E3
:102B3300022ECD900000E0C43354E02411F582E46A
:102B43003400F583C083C082900314E0D082D08325
:102B530075F002124BFFE0FCA3E0FDF5828C837459
:102B63000293900256F0900000E0FF04900250F0B0
:102B730074132FF582E43401F583E0900319F08D8B
:102B8300828C83740393FF7D01127327900000E00E
:102B93002413F582E43401F583E02404FF90031940
:102BA300E0FEC3EF9E5403FF7006900314E0802DF4
:102BB300EFB4010A900314E090860B93801FEFB4E7
:102BC300020B900314E0FFC374109F8010EF6403A3
:102BD3006003022ED6900314E090861B9390027339
:102BE300F0022ED6900000E0C43354E02411F582A5
:102BF300E43400F583C083C082900314E0FFD082E5
:102C0300D08375F002124BFFE0FCA3E0FDF5828C4C
:102C130083740193F96407703274D42FF582E4341A
:102C230001F583E06003022ECD8D828C83740393C0
:102C330030E003022ECD900314E02401F582E43446
:102C430000F583E04402F0EF022DF9E96409600323
:102C5300022ECD900271E0FF900000E0C43354E0F7
:102C63002411F582E43400F583C083C082900314F9
:102C7300E0FED082D08375F002124BFFE0FCA3E0AC
:102C8300F5828C837402935403FDC8EDC874010864
:102C93008002C333D8FC4F900271F074D42EF582B6
:102CA300E43401F583E06003022ECD900000E0C41C
:102CB3003354E02411F582E43400F583C083C082E9
:102CC300900314E0D082D08375F002124BFFE0FE34
:102CD300A3E0F5828E83740293C4540F900272F0C2
:102CE300900271E0FFED2404FEC8EEC87401088071
:102CF30002C333D8FC4F900271F0022ECD9003141F
:102D0300E0FF24D4F582E43401F583E0FE7003028E
:102D13002ECD900000E0C43354E02411F582E43456
:102D230000F58375F002EF124BFFE0FCA3E0F582A0
:102D33008C83740193FFB40519EE7003022ECD90BA
:102D43000314E02401F582E43400F5837401F002F6
:102D53002ECDEF64067043900000E0C43354E024AA
:102D630011F582E43400F583C083C082900314E03C
:102D7300D082D08375F002124BFFE0FEA3E0F58210
:102D83008E83740393FF30E703022ECD9002737496
:102D9300FFF0E4FD127327022ECD900000E0C43350
:102DA30054E02411F582E43400F583C083C082909B
:102DB3000314E0FFD082D08375F002124BFFE0FCD6
:102DC300A3E0F5828C83740193FE6407704E740351
:102DD3009330E03474012FF582E43400F583E0FF8F
:102DE30020E125900314E0FD2401F582E43400F58D
:102DF30083EF4402F0ED25E0241BF582E43401F572
:102E030083E4F0A3F0022ECD900314E02401F582B5
:102E1300E43400F583E054FDF0022ECDEEB4080354
:102E23007F0122900000E0C43354E02411F582E4D2
:102E33003400F583C083C082900314E0D082D08332
:102E430075F002124BFFE0FEA3E0F5828E8374015E
:102E530093640970757402935403D39401403990B9
:102E63000271E04480F0900000E0C43354E0241188
:102E7300F582E43400F583C083C082900314E0D06C
:102E830082D08375F002124BFFE0FEA3E0F5828E41
:102E930083740493900255F0900000E0C43354E02F
:102EA3002411F582E43400F583C083C082900314B7
:102EB300E0D082D08375F002124BFFE0FEA3E0F571
:102EC300828E8374039390026DF0900314E004F0F8
:102ED30002276CE4900314F0900314E0FFC39410F2
:102EE30040030230F4900000E0C43354E02411F5B1
:102EF30082E43400F58375F002EF124BFFE0FEA38A
:102F0300E0F5828E83740193FF64046008EF640527
:102F130060030230EB900000E0C43354E02411F569
:102F230082E43400F583C083C082900314E0D0822E
:102F3300D08375F002124BFFE0FEA3E0F5828E838F
:102F4300740393FF64016008EF640260030230EBD3
:102F5300900000E0C43354E02411F582E43400F51A
:102F630083C083C082900314E0D082D08375F002C3
:102F7300124BFFE0FEA3E02402FFE43E8F82F583C1
:102F8300E493FE740193FFE4FCFDFB7A80F9F812ED
:102F93004A4AECC0E0EDC0E0EEC0E0EFC0E09001D3
:102FA30011E0FEA3E024FAF582EE3401F583E49305
:102FB300FE740193FFCBEFCBCAEECAE4F9F8D0E07D
:102FC300FFD0E0FED0E0FDD0E0FC127B779003154C
:102FD300EEF0A3EFF0900000E0C43354E02411F5C9
:102FE30082E43400F583C083C082900314E0D0826E
:102FF300D08375F002124BFFE0FEA3E02404FFE44C
:103003003E8F82F583E493FE740193FFE4FCFDFBA2
:103013007A80F9F8124A4AECC0E0EDC0E0EEC0E075
:10302300EFC0E0900111E0FEA3E024FCF582EE3452
:1030330001F583E493FE740193FFCBEFCBCAEECA91
:10304300E4F9F8D0E0FFD0E0FED0E0FDD0E0FC12E0
:103053007B77900317EEF0A3EFF0900315E0FCA34A
:10306300E0FDCFEDCF900246F0ECA3F0900317E024
:10307300FCA3E0FDCFEDCF900248F0ECA3F090036A
:1030830014E0FF900245F0900000E0C43354E024C4
:1030930011F582E43400F58375F002EF124BFFE083
:1030A300FEA3E0F5828E8374039364027024049379
:1030B300900244B40506E04401F08004E054FEF0BD
:1030C300900314E02401F582E43400F5837403F0E3
:1030D300801FE4900244F0900314E02401F582E49D
:1030E3003400F583E4F08009900314E004F0022E29
:1030F300DBE490031AF0900314F0900314E0FFC391
:10310300941040030232DD900000E0C43354E02405
:1031130011F582E43400F58375F002EF124BFFE002
:10312300FEA3E0F5828E8374019364076003023289
:10313300D49001FAE0FCA3E0FDA3E0FEA3E0FF903E
:103143000212E0F8A3E0F9A3E0FAA3E0FBD3124BE9
:103153008B4036900314E0FF25E0241BF582E43412
:1031630001F583E4F0A3F074012FF582E43400F554
:1031730083E054FBF0900314E02401F582E434006F
:10318300F583E054FDF00232D4900314E0FF2401F0
:10319300F582E43400F583E020E1030232D49000A9
:1031A30000E0C43354E02411F582E43400F5837560
:1031B300F002EF124BFFE0FEA3E0FF2404FDE43E28
:1031C3008D82F583E493FC7401934C7006126FAC0B
:1031D30002329D900314E0FF2401F582E43400F5EC
:1031E30083E0FE30E21174012FF582E43400F583AD
:1031F300EE54FBF002329D9001FAA3A3E0FEA3E09C
:10320300FF900314E025E0241BF582E43401F583E9
:10321300E0FCA3E0FDC3EF9DFFEE9CFE900000E009
:10322300C43354E02411F582E43400F583C083C031
:1032330082900314E0D082D08375F002124BFFE03A
:10324300FCA3E0FD2404FBE43C8B82F583E493FAC6
:10325300740193D39FEA9E5041900314E0FF8D8243
:103263008C83740293FDEF2403FF126FBD9001FA68
:10327300A3A3E0FEA3E0FF900314E0FD25E0241BDD
:10328300F582E43401F583EEF0A3EFF074012DF53C
:1032930082E43400F583E04404F0900000E0C4339A
:1032A30054E02411F582E43400F583C083C0829096
:1032B3000314E0D082D08375F002124BFFE0FEA32B
:1032C300E0F5828E8374039330E00690031AE004E2
:1032D300F0900314E004F00230FD9001FAE0FCA347
:1032E300E0FDA3E0FEA3E0FF900212124BC29003A5
:1032F3001AE090024BF0126A4BE4FF120066E4FFFF
:10330300124CCF90023DE070031268E890031474EE
:1033130001F0900314E0FF2457F582E43402F583AF
:10332300E0FE74742FF582E43402F583E06E6008E6
:1033330090023A7401F0800A900314E004F0E0B4C0
:1033430016D0900251E0FF90023FE06F6002801DB3
:103353009003147402F0900314E0FFC39405501D0E
:10336300743E2FF582E43402F583E0600890026E28
:103373007401F08008900314E004F080D9900314E2
:103383007403F0900314E0FFC39407501E74432F9B
:10339300F582E43402F583E0F4600890026F74016F
:1033A300F08008900314E004F080D8900270E0FFEE
:1033B300900253E06F600690028A7401F090024C11
:1033C300E0FF90028EE06F7004A3E0600690025469
:1033D3007401F0900273E0F4602190023AE07016F9
:1033E30090026EE07010A3E0700C90028AE0700609
:1033F300900254E06005E4900256F090024AE0B473
:103403000115E4900254F090028AF090026FF0905C
:10341300026EF090023AF07F0022C0E0C0F0C08359
:10342300C082C0D075D00820D9030241C8E5D95461
:103433003F124C0B41B7003CDE0134FA02346903FE
:10344300412A203CD42134E7223456233D51300015
:103453000041C475D70063D640C20DE5D654FC4481
:1034630002F5D60241C420DE030241C463D680AF15
:10347300DB90030CE4F0A3EFF090030CA3E0F5D78B
:10348300900580E064A560030241C4A3E0645A6030
:10349300030241C4A3E0640360030241C4A3E070D8
:1034A300259002F5E0540F44A0F0C874B5C8CC745D
:1034B30002CCCD7401CD7B017A0579847E007F3007
:1034C3001248F10241C4900583E0FF6401700302D6
:1034D30041C4EF640260030241C49002F5E0540F5B
:1034E300F00241C475D50063D440C20CE5D454FC4A
:1034F3004402F5D40241C420DE030241C463D480F4
:10350300AFDB90030CE4F0A3EFF090030CA3E0F522
:10351300D5900366E030E75790057FE075F040A44F
:103523002400F9740635F0FAC8E9C8CCEACCCD74A6
:1035330001CD7B017A0579007E007F401248F1902E
:1035430005407452F0A37444F090057FE0FF04F04B
:10355300900542EFF090057EE0FFA3E0C39F500388
:10356300023CCEE4F0900366E0547FF0023CCE9040
:1035730005407452F0900501E0900541F09005027A
:10358300E0900542F0900503E0900543F0900500BC
:10359300E0B44410A3E0B44B0BA3E0B44206A3E0B1
:1035A3006443601A900500E064447052A3E0644CE5
:1035B300704CA3E064547046A3E0644370409005EC
:1035C30004E0C394314037E0D3943850319005017F
:1035D300E090057EB44B0B7408F0900504E024D909
:1035E30080097404F0900504E024ED900366F090E4
:1035F300057FE4F0900366E04480F0023CCE900542
:1036030000E064437023A3E0B44B1EA3E0B4591954
:10361300A3E0B45414900544E514F0900504E0F5D8
:1036230014900545E5140238D6900500E064436024
:1036330003023771A3E064526003023771A3E064AD
:103643004B6003023771A3E0644D6003023771904E
:103653000153E0FFA3E0900544CFF0A3EFF0900106
:1036630055E0FFA3E0900546CFF0A3EFF09001648F
:10367300E02401FF900163E03400FE9001A8E0FC28
:10368300A3E0FDD39FEC9E4008CEECCECFEDCF80E0
:1036930000900160E024FFFD90015FE034FFFCC374
:1036A300EF9DEE9C5026900164E02401FF9001639E
:1036B300E03400FE9001A8E0FCA3E0FDD39FEC9E64
:1036C3004008CEECCECFEDCF8010800E900160E0AD
:1036D30024FFFF90015FE034FFFE900153EEF0A35F
:1036E300EFF0900166E02401FF900165E03400FEF5
:1036F3009001AAE0FCA3E0FDD39FEC9E4008CEEC32
:10370300CECFEDCF8000900162E024FFFD900161F8
:10371300E034FFFCC3EF9DEE9C5026900166E0244D
:1037230001FF900165E03400FE9001AAE0FCA3E0F4
:10373300FDD39FEC9E4008CEECCECFEDCF80108022
:103743000E900162E024FFFF900161E034FFFE90E0
:103753000155EEF0A3EFF0900153E0FDA3E09005D7
:1037630048CDF0A3EDF0A3EEF0A3EF0238D6900519
:1037730000E064436003023894A3E06452600302F0
:103783003894A3E0644B6003023894A3E0645A6066
:1037930003023894900163E0FFA3E0900544CFF067
:1037A300A3EFF090015FE0FFA3E0900546CFF0A305
:1037B300EFF0900165E0FFA3E0900548CFF0A3EFA1
:1037C300F0900161E0FFA3E090054ACFF0A3EFF092
:1037D300900504E0FEA3E0FF900153E0FCA3E0FDAD
:1037E300C3EF9DEE9C4003023889900506E0FEA3DB
:1037F300E09DEE9C5003023889A3E0FEA3E0FF9016
:103803000155E0FCA3E0FDEF9DEE9C507990050A85
:10381300E0FEA3E09DEE9C406D900504E0FFA3E075
:10382300900163CFF0A3EFF0900506E0FFA3E090D3
:10383300015FCFF0A3EFF0900508E0FFA3E0900154
:1038430065CFF0A3EFF090050AA3E0FF900161EECE
:10385300F0A3EFF0A3E0FDA3E090054CCDF0A3EDC2
:10386300F090015FE0FDA3E090054ECDF0A3EDF0F5
:10387300900165E0FDA3E0900550CDF0A3EDF0A32A
:10388300EEF0A3EF804D90054C74FFF0A3F0023CE3
:10389300CE900500E064437044A3E06445703EA30A
:1038A300E064437038A3E064447032A2103390059F
:1038B30044F0A211E433A3F0900504E024FF921036
:1038C300A3E024FF9211A210E433900546F0A21165
:1038D300E433A3F09003667432F0023CCE9005000B
:1038E300E0B44313A3E0B4450EA3E0B44309A3E05B
:1038F30064467003023CCE900500E064427028A346
:10390300E0B44623A3E0B4571EA3E0B45619C87429
:1039130044C8CC7405CCCD7401CD7BFF7A00790EFD
:103923007E007F04023B77900500E064426003025F
:103933003A80A3E064556003023A80A3E0644960DF
:1039430003023A80A3E064446003023A8090057D59
:10395300F090057DE0FF25E02445F582E43403F58E
:1039630083E0FE74442FF582E43405F583EEF09092
:10397300057DE02444F582E43405F583E0C3943007
:10398300402790057DE02444F582E43405F583E087
:10399300D39439501490057DE02444F582E4340532
:1039A300F583E024D0F0023A2D90057DE02444F520
:1039B30082E43405F583E0C39461402690057DE0FD
:1039C3002444F582E43405F583E0D39466501390E0
:1039D300057DE02444F582E43405F583E024A9F071
:1039E300804890057DE02444F582E43405F583E0C6
:1039F300C39441402690057DE02444F582E43405D8
:103A0300F583E0D39446501390057DE02444F5827A
:103A1300E43405F583E024C9F0800F90057DE024AC
:103A230044F582E43405F583E4F090057DE004F089
:103A3300E0640C600302395490057DE4F090057D49
:103A4300E0FF25E02444F582E43405F583E0C45423
:103A5300F0FEEF25E02445F582E43405F583E04EDE
:103A6300FF90057DE02444F582E43405F583EFF00F
:103A730090057DE004F0E0B406C3023CCE9005005F
:103A8300E064426003023B4AA3E064496003023BF3
:103A93004AA3E064506003023B4AA3E0645460031A
:103AA300023B4A9001A8E0FFA3E0900544CFF0A3B6
:103AB300EFF09001AAE0FFA3E0900546CFF0A3EF5B
:103AC300F0A3E4F0A3F09001ACE090054AF090017C
:103AD300ADE090054BF0A3124BCE00000000900523
:103AE3007DE4F090054CC083C082E0F8A3E0F9A325
:103AF300E0FAA3E0FBE8C0E0E9C0E0EAC0E0EBC025
:103B0300E090057DE0F92440F582E43401F583E09B
:103B1300FFE4FCFDFEC8E9C8124BAFD0E0FBD0E0E8
:103B2300FAD0E0F9D0E0F8EB4FFFEA4EFEE94DFDA5
:103B3300E84CFCD082D083124BC290057DE004F0A8
:103B4300E0B4139F023CCE900500E06442702BA3C7
:103B5300E0B44726A3E0B45021A3E0B44D1CC874DD
:103B630044C8CC7405CCCD7401CD7BFF7ADA7900DF
:103B73007E007F381248F1023CCE900500E064429B
:103B8300701DA3E0B44418A3E0B44713A3E0B44307
:103B93000E7B017A0579447D38127D72023CCE900A
:103BA3000500E064427028A3E064527022A3E0B4ED
:103BB300531DA3E0B454187E007F3C7D207B017A23
:103BC300057944124C5E9003667464F0023CCE9017
:103BD3000500E064427028A3E064427022A3E0B4CD
:103BE3004F1DA3E0B454187E007F3C7D207B017AF7
:103BF300057944124C5E9003667465F0023CCE90E6
:103C03000500E064427051A3E06443704BA3E06499
:103C1300537045A3E06443703FFE7F3C7D207B01EE
:103C23007A057944124C5E900000E02431900544FB
:103C3300F0900504E0C394314019E0D39438501355
:103C4300E0900545F024CF900600F090036674667B
:103C5300F08078900545805C900500E0B44217A39E
:103C6300E0B44212A3E0B4550DA3E0B45A089003A4
:103C7300667467F08055900500E06442703BA3E0F2
:103C830064427035A3E06454702FA3E06456702936
:103C9300A3E0D39430501AA3E06016940A50129014
:103CA3000504E0900211F0900505E0900167F080B3
:103CB3001A90021174FFF080129005407452F0A321
:103CC3007449F0A3744EF0A37456F053D4FC02412C
:103CD300C475D30063D240C20B8068AFDB90030C82
:103CE300E4F0A3EFF090030CE0FEA3E0FF4E60537B
:103CF300D3EF9402EE9400504A90030CA3E0247F88
:103D0300F58274043EF583E0FF7E0090030CEEF031
:103D1300A3EFF07F0020E0027F01EF24FFB3920ABC
:103D230090030CE0FEA3E0FF7D0020E1027D01EDA6
:103D330024FFB3920EEF7F0020E2027F01EF24FF06
:103D4300B39209E5D254FC4402F5D20241C475DCB6
:103D5300C0AFDB90030CE4F0A3EFF090030CE07032
:103D630004A3E0640860030240FF900447E0FE9070
:103D73000446E07C002400FFEC3E900340F0A3EFF8
:103D8300F090030CE4F0A3F090030BF0900441E0F7
:103D9300900342F0900440E05460601A900342E0C4
:103DA3001424FD400302410524FB24FD400302418A
:103DB3000580000240FF900342E0B40B0040030281
:103DC30040FD903DCCF82828730240D2023FD10237
:103DD30040FD0240360240FD023F8E023DED0240AF
:103DE300FD023F9A023FBF024105900443E024FED7
:103DF300602B14604224E17003023EB4242160036B
:103E0300023F0790035F74FFF0A37483F0A374E190
:103E1300F090030CE4F0A37412F0023F0D90035FE3
:103E230074FFF0A37485F0A37492F090030CE4F094
:103E3300A37469F0023F0D900442E01460271460FC
:103E43003E14605424036003023F0790035F74FF32
:103E5300F0A37483F0A374F3F090030CE4F0A37461
:103E630004F0023F0D90035F74FFF0A37484F0A38A
:103E7300740DF090030CE4F0A37424F0023F0D9052
:103E8300035F74FFF0A37483F0A374F7F090030C43
:103E9300E4F0A37416F0807290035F7401F0A374CE
:103EA30003F0A37443F090030CE4F0A3741AF080BE
:103EB30059900444E0FF701A90035F74FFF0A374F9
:103EC30084F0A37431F090030C7401F0A3741DF01B
:103ED3008038EFB4010F90035F74FFF0A37485F093
:103EE300A3744E8011EFB4021990035F74FFF0A323
:103EF3007485F0A37470F090030CE4F0A37422F0C3
:103F03008008800090030B74FFF090030CE0FEA385
:103F1300E0FFD3900341E09F900340E09E4005EE15
:103F2300F0A3EFF0900340E0FEA3E0FFC39440EE64
:103F33009400400C7C007D40CEECCECFEDCF8000D2
:103F430090030CEEF0A3EFF090030CE0FEA3E0FF70
:103F5300C87440C8CC7404CCCD7401CD90035FE029
:103F6300FBA3E0FAA3E0F91248F190030CE0FEA3EF
:103F7300E0FFC3900341E09FF0900340E09EF09088
:103F83000360EE8FF0124A15024105900442E0FFF0
:103F9300900340E40240F790033FE0900440F0C3F5
:103FA300900341E09401900340E0940050030241E8
:103FB3000590030CE4F0A304F0024105900442E0F1
:103FC30090033FF07003024105D20F0241059004B4
:103FD30040E0541FFF6402704A900444E0146038C8
:103FE3001460261460142482602414601214702D4B
:103FF300E5D654BC4402F5D6802953D6738024E514
:10400300D454BC4402F5D4801A53D4738015E5D23A
:1040130054BC4402F5D2800B53D273800690030B39
:1040230074FFF0EF700A90033EE054FEF002410586
:104033000240FF900440E0541FFD7027900443E0CA
:10404300FE900442E0FBEB64014E7014908599935B
:1040530030E50A90033EE04401F00241050240FFCF
:104063000240FFED64027065900443E0FE90044259
:10407300E0FDED4E7055900445E0FE900444E0FDF4
:10408300EDFFEE7044EF24FE602B14601424826075
:104093002E146017147032E5D654BF4403F5D6804E
:1040A30061E5D6547F440CF5D68057E5D454BF441C
:1040B30003F5D4804DE5D4547F440CF5D48043E517
:1040C300D254BF4403F5D280398031802F802D90A4
:1040D3000441E4F0900440F0900340E0FEA3E0FFCD
:1040E300C39402EE940090030C4008E4F0A374021E
:1040F300F0800FEEF0A3EFF08008800090030B74C4
:10410300FFF090030BE0B4FF0675DCCF0241C490CF
:10411300030CE0FEA3E0FF4E60048FDD800375DD3A
:104123000075DCC00241C4900342E024FB606E14BE
:10413300707A900340E0FEA3E0FFC39440EE940046
:10414300400C7C007D40CEECCECFEDCF80009003C1
:104153000CEEF0A3EFF090030CE0FEA3E0FFC874B5
:1041630040C8CC7404CCCD7401CD90035FE0FBA3B5
:10417300E0FAA3E0F91248F190030CE0FEA3E0FF9C
:10418300C3900341E09FF0900340E09EF0900360F2
:10419300EE8FF0124A158FDD63DC408024900340DC
:1041A300A3E0FFE5E354804FF5E3800375DD00757D
:1041B300DC02800DAFDB90030CE4F0A3EFF063DCD3
:1041C30080C2D9804130D82275DC0275D20275D401
:1041D3000275D60275E300C2DAC2D9C20FC20BC29E
:1041E3000C90033EE4F0C2D8801C30DA16C2DAE544
:1041F300DA90033E30E206E04402F08009E054FD29
:10420300F0800375D8FFD0D0D082D083D0F0D0E037
:104213003290031B7403F09001FAE0FCA3E0FDA3CA
:10422300E0FEA3E0FF90021AE0F8A3E0F9A3E0FAAE
:10423300A3E0FBD3124B8B400A900216124BCE0025
:104243000000009001FAE0FCA3E0FDA3E0FEA3E080
:10425300FF90021A124BC29001FAE0FCA3E0FDA307
:10426300E0FEA3E0FF900216E0F8A3E0F9A3E0FA72
:10427300A3E0FBD3124B8B400C90024A7401F0E491
:1042830090028BF022E490024AF0900320F0A3F016
:1042930090023DE0FF603B900000E075F020A42415
:1042A3000FF582E5F03400F58375F002EF124BFF52
:1042B300E0FEA3E0FFF5828E83740293FD7C00EFA2
:1042C3002403FFE43EFEEF2DFFEC3E900320F0A31A
:1042D300EFF090031BE0C3941640030248209003C1
:1042E30020E0FEA3E0FF90024EE0FCA3E0FDC39FAD
:1042F300EC9E4004E40246D78D828C83E493FFB4A2
:10430300EA31ED2401FBE43C8B82F583E493FE5414
:104313000190028BF0EE30E10990024FE02402029B
:1043230044C290024FE004F0700690024EE004F0A5
:1043330002480FEF64EB600302445FED2401FFE4E6
:104343003C8F82F583E493FBB4021EED2404FEE468
:104353003C90021EF0A3CEF090024FE02404F090B4
:10436300024EE03400F002480F90023CE004F0708B
:104373000690023BE004F0ED2402FFE43C8F82F55B
:1043830083E493FEED2403FDE43C8D82F583E49303
:10439300FDEDFF90031CEEF0A3EFF0EB600B90023A
:1043A3008CE030E2045403603390024EE0FEA3E05D
:1043B3002401FFE43E8F82F583E493700790028C1F
:1043C300E020E21890031CE0FEA3E0FF4E6014908F
:1043D300023BE0FCA3E0C39FEC9E400790028CE00D
:1043E3004480F090028CE0FF30E72790024FE024F6
:1043F30003F090024EE03400F0EF547B90028CF017
:10440300E490023BF0A3F074FF90021EF0A3F002CD
:10441300480F90021EE0FEA3E0FFF47002EEF4608A
:104423000690024EEE8030900000E075F020A42448
:104433000FF582E5F03400F583C083C08290023D1E
:10444300E0D082D08375F002124BFFE0FEA3E0249C
:1044530003FFE43E90024EF0A3EFF02290024EE001
:10446300FEA3E0F5828E83E49364FE705B90024EBC
:10447300E0FCA3E0FD2401FFE43C8F82F583E49399
:10448300FEED2402FDE43C8D82F583E493FDEDFF14
:10449300900323EEF0A3EFF0E4FCFD9001FAE0F8C3
:1044A300A3E0F9A3E0FAA3E02FFFEA3EFEED39FD16
:1044B300EC38FC900216124BC290024FE02403F03A
:1044C30090024EE03400F02290024EE0FEA3E0F5AD
:1044D300828E83E493FC64FD706190031BE0FFD341
:1044E3009403400302482090023FE0600302482007
:1044F30090024E75F001124A1585F082F583E4931C
:10450300FD126FBD90024EE475F001124A1585F05D
:1045130082F583E493900258F0900320E0FEA3E039
:10452300FF90024EE475F001124A15FAEF65F07040
:1045330002EE6A60030248200246D7EC64EC601482
:1045430090024EE0FEA3E0F5828E83E49364ED6077
:10455300030246DC90031BE0D3940340030248208C
:1045630090023FE0600302482090024EE0FCA3E08B
:10457300FD2401FFE43C8F82F583E493FEED2402E6
:10458300FDE43C8D82F583E493FDEDFF90031CEE87
:10459300F0FCA3EFF0CCCCCDCD90024EE0FAA3E03B
:1045A300FB2403FFE43A8F82F583E493FEEB2404B8
:1045B300FBE43A8B82F583E493FBEBFF90031EEE5F
:1045C300F0A3EFF0CFEDCFCEECCEE4FCFDFB7A8091
:1045D300F9F8124A4AECC0E0EDC0E0EEC0E0EFC0EB
:1045E300E0900111E0FEA3E024FAF582EE3401F538
:1045F30083E493FE740193FFCBEFCBCAEECAE4F9D5
:10460300F8D0E0FFD0E0FED0E0FDD0E0FC127B77F5
:1046130090031CEEF0A3EFF0A3E0FEA3E0FFE4FCA5
:10462300FDFB7A80F9F8124A4AECC0E0EDC0E0EEF7
:10463300C0E0EFC0E0900111E0FEA3E024FCF582AE
:10464300EE3401F583E493FE740193FFCBEFCBCA01
:10465300EECAE4F9F8D0E0FFD0E0FED0E0FDD0E010
:10466300FC127B7790031EEEF0A3EFF090031CE0A7
:10467300FCA3E0FDCFEDCF900246F0ECA3F0900356
:104683001EE0FCA3E0FDCFEDCF900248F0ECA3F0D9
:1046930090024EE0FEA3E0F5828E83E493B4ED072F
:1046A300900244E04401F090024FE02404F09002B1
:1046B3004EE03400F0900320E0FEA3E0FF90024EB2
:1046C300E475F001124A15FCEF65F07002EE6C60C0
:1046D3000302482090023DF02290024EE0FEA3E048
:1046E300F5828E83E49364FA600302478E9003227B
:1046F3007403F0F090031BE0FC900322E0FFC39CE3
:10470300502A90024EE0FAA3E0F5828A83E493FEF6
:1047130074572FF582E43402F583E06E700690033C
:1047230022F08008900322E004F080C8900322E086
:10473300700302482090023FE06003024820900289
:1047430058E0601990031BE0FF04F090024EE475FB
:10475300F001124A1585F082F583024809EC6403DF
:10476300600302482090031BE0FF04F090024EE434
:1047730075F001124A1585F082F583E493FD126FFB
:10478300BD900258E04402F002480F9003227403E4
:10479300F0F090031BE0FC900322E0FFC39C502A3F
:1047A30090024EE0FAA3E0F5828A83E493FE745705
:1047B3002FF582E43402F583E06E7006900322F055
:1047C3008008900322E004F080C8900322E0604D4B
:1047D30090023FE07047900258E0701490031BE092
:1047E300FF04F090024EE0FAA3E0F5828A8380167C
:1047F300ECB4032990031BE0FF04F090024EE0FCAD
:10480300A3E0F5828C83E493FD126FBD90024FE029
:1048130004F0700690024EE004F00242D522E7094C
:10482300F608DFFA8046E709F208DFFA803E88825D
:104833008C83E709F0A3DFFA8032E309F608DFFA95
:104843008078E309F208DFFA807088828C83E309B9
:10485300F0A3DFFA806489828A83E0A3F608DFFA93
:10486300805889828A83E0A3F208DFFA804C80D2E1
:1048730080FA80C680D4806980F28033801080A65D
:1048830080EA809A80A880DA80E280CA80338982B5
:104893008A83ECFAE493A3C8C582C8CCC583CCF061
:1048A300A3C8C582C8CCC583CCDFE9DEE7800D8908
:1048B300828A83E493A3F608DFF9ECFAA9F0EDFB0F
:1048C3002289828A83ECFAE0A3C8C582C8CCC58357
:1048D300CCF0A3C8C582C8CCC583CCDFEADEE880B0
:1048E300DB89828A83E493A3F208DFF980CC88F022
:1048F300EF60010E4E60C388F0ED2402B404005053
:10490300B9F582EB2402B4040050AF23234582237C
:1049130090487173BB010CE58229F582E5833AF572
:1049230083E0225006E92582F8E622BBFE06E9254C
:1049330082F8E222E58229F582E5833AF583E4935E
:1049430022BB010689828A83F0225002F722BBFE32
:1049530001F322F8BB010DE58229F582E5833AF5DF
:1049630083E8F0225006E92582C8F622BBFE05E95A
:104973002582C8F222EF8DF0A4A8F0CF8CF0A428F2
:10498300CE8DF0A42EFE22BC000BBE0029EF8DF0CD
:1049930084FFADF022E4CCF875F008EF2FFFEE337F
:1049A300FEEC33FCEE9DEC984005FCEE9DFE0FD52E
:1049B300F0E9E4CEFD22EDF8F5F0EE8420D21CFE02
:1049C300ADF075F008EF2FFFED33FD40079850066B
:1049D300D5F0F222C398FD0FD5F0EA22C2D5EC3010
:1049E300E709B2D5E4C39DFDE49CFCEE30E715B2C4
:1049F300D5E4C39FFFE49EFE12498AC3E49DFDE410
:104A03009CFC800312498A30D507C3E49FFFE49ED0
:104A1300FE22C5F0F8A3E028F0C5F0F8E582158280
:104A230070021583E038F022BB010A89828A83F081
:104A3300E5F0A3F0225006F709A7F01922BBFE0602
:104A4300F3E5F009F31922E88FF0A4CC8BF0A42C42
:104A5300FCE98EF0A42CFC8AF0EDA42CFCEA8EF089
:104A6300A4CDA8F08BF0A42DCC3825F0FDE98FF070
:104A7300A42CCD35F0FCEB8EF0A4FEA9F0EB8FF067
:104A8300A4CFC5F02ECD39FEE43CFCEAA42DCE35EF
:104A9300F0FDE43CFC2275F008758200EF2FFFEE79
:104AA30033FECD33CDCC33CCC58233C5829BED9A57
:104AB300EC99E58298400CF582EE9BFEED9AFDECB5
:104AC30099FC0FD5F0D6E4CEFBE4CDFAE4CCF9A8FB
:104AD3008222B800C1B90059BA002DEC8BF084CF03
:104AE300CECDFCE5F0CBF97818EF2FFFEE33FEEDDA
:104AF30033FDEC33FCEB33FB10D703994004EB9904
:104B0300FB0FD8E5E4F9FA227818EF2FFFEE33FE16
:104B1300ED33FDEC33FCC933C910D7059BE99A404B
:104B230007EC9BFCE99AF90FD8E0E4C9FAE4CCFB63
:104B33002275F010EF2FFFEE33FEED33FDCC33CCB7
:104B4300C833C810D7079BEC9AE899400AED9BFD40
:104B5300EC9AFCE899F80FD5F0DAE4CDFBE4CCFA53
:104B6300E4C8F922C3E49FFFE49EFEE49DFDE49CB8
:104B7300FC22EB9FF5F0EA9E42F0E99D42F0EC64E3
:104B830080C864809845F022EB9FF5F0EA9E42F0DE
:104B9300E99D42F0E89C45F022E8600FECC313FC6A
:104BA300ED13FDEE13FEEF13FFD8F122E8600FEFD4
:104BB300C333FFEE33FEED33FDEC33FCD8F122ECCF
:104BC300F0A3EDF0A3EEF0A3EFF022A8828583F02B
:104BD300D083D082124BE5124BE5124BE5124BE525
:104BE300E473E493A3C583C5F0C583C8C582C8F045
:104BF300A3C583C5F0C583C8C582C822A42582F591
:104C030082E5F03583F58322D083D082F8E4937074
:104C130012740193700DA3A393F8740193F5828822
:104C230083E4737402936860EFA3A3A380DFEC8E25
:104C3300F0A4CCC5F0CCCDF8EFA4CEC5F02DFDE4A7
:104C43003CFCE8A42EC8C5F03DFDE43CFCEFA4FF0A
:104C5300E5F028FEE43DFDE43CFC22EF4E6012EF5C
:104C630060010EEDBB010B89828A83F0A3DFFCDEBA
:104C7300FA2289F05007F709DFFCA9F022BBFEFCFA
:104C8300F309DFFCA9F022BB010689828A83E022B3
:104C93005002E722BBFE02E32289828A83E4932245
:104CA300E0FCA3E0FDA3E0FEA3E0FF22F8E0FBA30A
:104CB300A3E0F925F0F0E582158270021583E0FA8E
:104CC30038F022EBF0A3EAF0A3E9F022E490032505
:104CD300F0A3F0A3F0EF6024E490022CF090022AFA
:104CE300F09001ACF090022DF090022BF09001AD0A
:104CF300F090022EF0A3F0900327F022E490032813
:104D0300F0900328E0FF24ACF582E43401F583E05E
:104D1300FE742A2FF582E43402F583E0FFC3EE9F8D
:104D2300FFD36480948040089003277401F08015BA
:104D3300C3EF6480948050089003277402F08005C9
:104D4300E4900327F0900111E0FEA3E0F5828E8347
:104D5300C083C082900328E0FFD082D08375F0081F
:104D6300124BFFE58224E0F582E5833401F583E409
:104D730093540F24FE7003024E5C04600302514CF3
:104D8300900327E0FE7003025168742C2FF582E430
:104D93003402F583E06029900328E0FF242CF58298
:104DA300E43402F583E4F0742A2FF582E43402F547
:104DB30083E0FFEE25E024FDFEC3EF9EF002516881
:104DC300900327E0FF900111E0FCA3E0F5828C83C0
:104DD300C083C082900328E0D082D08375F008128C
:104DE3004BFFE58224E2F582E5833401F583E58216
:104DF3002FF582E43583F583E493FD60057FFF128D
:104E03006FBD900258E0FF900327E0FE900111E090
:104E1300FCA3E0F5828C83C083C082900328E0FD6D
:104E2300D082D08375F008124BFFE58224E5F5822A
:104E3300E5833401F583E5822EF582E43583F5833A
:104E4300E493FEEF4E900258F0742C2DF582E43477
:104E530002F5837401F0025168900327E0700302A6
:104E63005168A3E0FD242CF582E43402F583E0606D
:104E73002790028EE0FC90022EE0FAA3E0FB25E0EF
:104E8300FFEC4F90028EF07807CEEACEEBCEA2E78E
:104E930013CE13D8F8025104900111E0FEA3E0F5FC
:104EA300828E8375F008ED124BFFE58224E3F582D1
:104EB300E5833401F583E493FFC3941E5003024F4B
:104EC30098EFD394274003024F98900111A3E0F584
:104ED300828E83C083C082900328E0D082D0837502
:104EE300F008124BFFE58224E4F582E5833401F5F3
:104EF30083E493FFC3941E5003024F98EFD3942788
:104F03004003024F98900111A3E0F5828E83C08382
:104F1300C082900328E0D082D08375F008124BFF43
:104F2300E58224E3F582E5833401F583E49324E306
:104F3300FFE434FFFE7C007D0A12498ACFEDCFEFF8
:104F430075F00AA4FBAAF0900111E0FEA3E0F5823C
:104F53008E83C083C082900328E0D082D08375F013
:104F630008124BFFE58224E4F582E5833401F583DF
:104F7300E49324E3FFE434FFFE7C007D0A1249DF5F
:104F8300EB2DFFEA3CFEEF2401FFE43E90022EF0FE
:104F9300A3EFF0800990022EE4F0A3740AF09002CC
:104FA3002EE0FAA3E0FB900327E075F002A424FDB2
:104FB300FFE5F034FFFE7C007D0A124978CDEBCD8E
:104FC300CCEACC12497890022EEEF0A3EFF09001D8
:104FD30011E0FEA3E0F5828E83C083C08290032894
:104FE300E0FFD082D08375F008124BFFE58224E600
:104FF300F582E5833401F583E493FEB4010F742C49
:105003002FF582E43402F5837401F08078EEB40264
:1050130012900328E0242CF582E43402F583740310
:10502300F08062900111E0FEA3E0F5828E83C083DD
:10503300C082900328E0FFD082D08375F008124B22
:10504300FFE58224E6F582E5833401F583E493FEEC
:10505300B4040F742C2FF582E43402F5837404F046
:105063008023EE900328B4080FE0242CF582E43467
:1050730002F5837405F0800DE0242CF582E43402FC
:10508300F5837402F0900328E0242CF582E43402C3
:10509300F583E0FD7C0090022EE0FEA3E0FF1249C1
:1050A300DFCAECCACBEDCB900328E0242CF582E4D5
:1050B3003402F583E0FD7C0090022EE0FEA3E0FFC6
:1050C3001249DFCCEECCCDEFCDED2BFEEC3A9003C5
:1050D30025F0A3CEF090022EECF0A3EDF090028E1B
:1050E300E0FD900325E0FAA3E0FB25E0FFED4F9000
:1050F300028EF07807CEEACEEBCEA2E713CE13D81A
:10510300F890028FF0900328E0FF242CF582E4341A
:1051130002F583E014F0742C2FF582E43402F58356
:10512300E07042900328E0242AF582E43402F583F8
:10513300C083C082E0FF900327E025E024FDFEC387
:10514300EF9ED082D083F0801C900328E0FF24AC34
:10515300F582E43401F583E0FE742A2FF582E4340A
:1051630002F583EEF0900328E004F0E0C3940250CC
:1051730003024D0422E5232414F582E43403F5836A
:10518300E0052322900311300703900314E475F024
:1051930001124CAF024C8A2000E97F2ED200801806
:1051A300EF540F2490D43440D4FF30040BEF24BFCA
:1051B300B41A0050032461FFE52460021524052777
:1051C300E5277002052630070E900311E475F00100
:1051D300124CAFEF024944027DF37403D2078003FC
:1051E300E4C207F523900311124CC6E4F524F52617
:1051F300F527E52460077F201251BB80F57525FF55
:10520300C201C200C202C203C205C206C2081251D1
:1052130087FF700D3007057F001251CCAF27AE26F4
:1052230022B4255FC2D5C204125187FF24D0B40A29
:1052330000501A75F00A782430D50508B6FF010628
:10524300C6A426F620D5047002D20380D924CFB495
:105253001A00EF5004C2E5D2040253CDD20180C636
:10526300D20080C0D20280BCD2D580BAD20580B42D
:105273007F201251BB2002077401B5240040F112B4
:105283005178FF1251BB0251F5D208D20680951214
:105293005178FB125178FA125178F94A4B7006791A
:1052A3009E7A547BFF20022EE524602A7E008E82A4
:1052B30075830012491760060EEE652570F0C2D59E
:1052C300EBC0E0EAC0E0E9C0E0EE125414D0E0F92C
:1052D300D0E0FAD0E0FB124C8AFF60AAEBC0E0EA10
:1052E300C0E0E9C0E01251BBD0E02401F9D0E034C2
:1052F30000FAD0E0FBE5250460DCD525D980877B67
:10530300FF7A547910D202809C791080027908C206
:1053130006C2088008D2D5790A8004790AC2D5E585
:1053230025047002F525E4FAFDFEFF125178FC7B9B
:1053330008200113125178FD7B1030000A125178B6
:10534300FE125178FF7B20EC3382D592D55013C3E4
:10535300E43000069FFFE49EFEE42001039DFDE48C
:105363009CFCE4CBF8C201EC700CCFCECDCCE8248E
:10537300F8F870F38017C3EF33FFEE33FEED33FD20
:10538300EC33FCEB33FB994002FB0FD8E9EB300124
:1053930005F8D0E0C448B201C0E00AEC4D4E4F78A6
:1053A300207B0070C2EAB5250040BCC0E012541651
:1053B300D0F0D0E0200104C4C0E0C4B201C0F012B8
:1053C30051A4D0F0D5F0EB0251F5124C0B5292538D
:1053D300530C5852634C525F4253104F531844536B
:1053E3001849527843531E555302465302455302FC
:1053F3004754BE5052672D526B2E528E2B526F2341
:10540300528C2054A72A522748000052863F3F3F20
:1054130000790AA2D5200314300509B91002040447
:10542300B9080104A2D520060250010420026892A3
:1054330002B524005034C0E07F203003197F30A22E
:105443000272067205500F12546DC202C206C205E3
:10545300C2087F30800F300503E9C0E01251BB3032
:105463000503D0E0F9D0E0B524CC3005177F30B97F
:10547300100C1251BB7F583004077F788003B908A2
:10548300031251BB3002057F2D0251BB7F20200840
:10549300F87F2B2006F322920280CF286E756C6C66
:1054A3002900D2011251783001F8C201782430D595
:1054B3000108F60252272D5043495812517824030C
:1054C300B405004001E49054B9931251AC743A12FC
:1054D30051ACD20375240402530C900330EFF0D384
:1054E3009D4004E0FF8003CFEDCFEFD39B401090AE
:1054F3000330E0FFD39D40028008CFEDCF8003CF80
:10550300EBCF8F27900330E0FFC39D50028003CF82
:10551300EDCFEFC39B5010900330E0FFC39D5002CB
:105523008008CFEDCF8003CFEBCF8F28C3E527953E
:1055330028F5297007F52AF52B025633900330E03E
:1055430065277042EDC39B401EEDFFEBFDEF9DFF12
:10555300E49400FE7C007DA7124978AD2912498AA4
:105563008E2A8F2B025633EBC39DFFE49400FE7CFF
:10557300007DA7124978AD2912498AC374EA9FF5C1
:105583002B7403025630E5276D704E900330E0FF15
:10559300EBD39F401FEB9FFFE49400FE7C007DA7AD
:1055A300124978AD2912498AEF244EF52BEE3401C6
:1055B300F52A807C900330E0FFEBFDC3EF9DFFE411
:1055C3009400FE7C007DA7124978AD2912498AC355
:1055D300744E9FF52B74018054CFEBCFE5276F708A
:1055E3004F900330E0FFD39D401FEF9DFFE49400F5
:1055F300FE7C007DA7124978AD2912498AEF249CCD
:10560300F52BEE3402F52A8027CFEDCF900330E05F
:10561300FDC3EF9DFFE49400FE7C007DA712497853
:10562300AD2912498AC3749C9FF52B74029EF52AF7
:10563300900333E0FEA3E0252BF52BEE352AF52A64
:10564300C3E52B94EAE52A9403400C7416252BF545
:105653002B74FC352AF52AC3E52B94A7E52A94007D
:105663005005E4F52C8043C3E52B944EE52A9401C1
:105673005005752C018033C3E52B94F5E52A94017D
:105683005005752C028023C3E52B949CE52A9402D4
:105693005005752C038013C3E52B9443E52A94032B
:1056A3005005752C048003752C05E52C75F0A7A413
:1056B300FEC3E52B9EF52DC3E5279529F528E52C9B
:1056C30030E00DAF297E00AD2D7C001249788013A8
:1056D300C374A7952DFDE49400FCAF297E00124905
:1056E300787C007DA712498AC3E5279FF529E52C1D
:1056F300701F900335E0FBA3E0FAA3E0F9E527125E
:105703004944900338E0FBA3E0FAA3E0F9E52980DC
:1057130022E52CB40130900335E0FBA3E0FAA3E0CB
:10572300F9E529124944900338E0FBA3E0FAA3E02A
:10573300F9E52712494490033BE0FBA3E0FAA3E019
:10574300F9E528025810E52CB40230900335E0FB4C
:10575300A3E0FAA3E0F9E528124944900338E0FBFB
:10576300A3E0FAA3E0F9E52712494490033BE0FBE9
:10577300A3E0FAA3E0F9E529025810E52CB4032FBE
:10578300900335E0FBA3E0FAA3E0F9E528124944CE
:10579300900338E0FBA3E0FAA3E0F9E529124944BA
:1057A30090033BE0FBA3E0FAA3E0F9E527805EE585
:1057B3002C900335B4042CE0FBA3E0FAA3E0F9E555
:1057C30029124944900338E0FBA3E0FAA3E0F9E58A
:1057D3002812494490033BE0FBA3E0FAA3E0F9E578
:1057E30027802AE0FBA3E0FAA3E0F9E52712494466
:1057F300900338E0FBA3E0FAA3E0F9E5281249445B
:1058030090033BE0FBA3E0FAA3E0F9E52912494446
:1058130022E4FD75F002EDA42400F582E5F034DA0C
:10582300F583E493FA740193FBED25E0FFE433FE83
:1058330074632FF58274013EF583EAF0A3EBF075F0
:10584300F002EDA42404F582E5F034DAF583E49361
:10585300FA740193FBED25E0FFE433FE745F2FF54B
:105863008274013EF583EAF0A3EBF075F002EDA438
:105873002408F582E5F034DAF583E493FA740193AE
:10588300FBED25E0FFE433FE74532FF58274013EF4
:10589300F583EAF0A3EBF074632FF58274013EF510
:1058A30083E0FEA3E0C394FFEE940F4015ED25E0E3
:1058B300FFE433FE74632FF58274013EF583E4F055
:1058C300A3F0ED25E0FFE433FE745F2FF58274014E
:1058D3003EF583E0FEA3E0FF4E6009D3EF94FFEEB5
:1058E300940F4018ED25E0FFE433FE745F2FF5823B
:1058F30074013EF583740FF0A374FFF0ED25E0FF10
:10590300E433FE745F2FF58274013EF583E0FAA35E
:10591300E0FB74632FF58274013EF583E0FEA3E0A0
:10592300C39BEE9A4026ED25E0FFE433FE74632F1C
:10593300F58274013EF583E4F0A3F0745F2FF582E2
:1059430074013EF583740FF0A374FFF0ED25E0FFBF
:10595300E433FE74532FF58274013EF583E0FEA316
:10596300E0FF4E6009C3EF94FFEE940F4017ED255F
:10597300E0FFE433FE74532FF58274013EF5837424
:1059830008F0A3E4F0ED25E0FFE433FE74632FF5A4
:105993008274013EF583E0FAA3E0FB74532FF58292
:1059A30074013EF583E0FEA3E0D39BEE9A402AED1B
:1059B30025E0FFE433FE745F2FF58274013EF58327
:1059C300E0FAA3E0FB74532FF58274013EF583E004
:1059D300FEA3E0C39BEE9A4036ED25E0FFE433FEE1
:1059E30074632FF58274013EF583E4F0A3F07453DE
:1059F3002FF58274013EF5837408F0A3E4F0745F1D
:105A03002FF58274013EF583740FF0A374FFF0ED5C
:105A130025E0FFE433FE74632FF58274013EF583C2
:105A2300E0FAA3E0FB74532FF58274013EF583E0A3
:105A3300FEA3E0C39BFBEE9AFAED25E0FFE433FE01
:105A4300745B2FF58274013EF583EAF0A3EBF074E7
:105A5300532FF58274013EF583E0FAA3E0FB745FF4
:105A63002FF58274013EF583E0FEA3E0C39BFBEEBA
:105A73009AFAED25E0FFE433FE74572FF5827401A3
:105A83003EF583EAF0A3EBF00DED640260030258E8
:105A93001690DA10E493F51490DA14E493FF13925A
:105AA30010EFC31313921122E4900315F0A20A33EB
:105AB300A3F0A20EE433A3F0A209E433A3F090020F
:105AC3004BE07F0060027F01900319EFF090023DED
:105AD300E07F0060027F0190031AEFF0900111E074
