:08000000026D6F02710D323236
:07000B0002755E01000123F4
:100013000200067B017A0679009002DA7401F07F10
:06002300007ED8025F0D13
:0D002B0002000775A15575A1AA43B110226E
:03003B0002716AE5
:10004300023328EF4E601505A105A105A105A10501
:0D005300A105A105A1EF1F70EA1E80E722A4
:10006300026FE4EF6013E4900293F0A3F090029127
:10007300F0A3F090028F020585900111E0FEA3E04A
:1000830024D5F582EE3401F583E493FD540175F034
:1000930002A424FFFEE5F034FF9002E5F0A3CEF0C6
:1000A300EDC313540175F002A424FFFEE5F034FF01
:1000B300A3F0A3CEF0900163E0FEA3E0FF9001A7BD
:1000C300E0FCA3E0FDD39FEC9E4008CEECCECFED49
:1000D300CF8000D3900160E09F90015FE09E4020BD
:1000E300900163E0FEA3E0FF9001A7E0FCA3E0FD25
:1000F300D39FEC9E4008CEECCECFEDCF800A800894
:1001030090015FE0FEA3E0FF9001A7EEF0A3EFF004
:10011300900165E0FEA3E0FF9001A9E0FCA3E0FDF0
:10012300D39FEC9E4008CEECCECFEDCF8000D39092
:100133000162E09F900161E09E4020900165E0FE36
:10014300A3E0FF9001A9E0FCA3E0FDD39FEC9E4058
:1001530008CEECCECFEDCF800A8008900161E0FE9F
:10016300A3E0FF9001A9EEF0A3EFF0900111E0FEF0
:10017300A3E024D5F582EE3401F583E493131354FD
:100183003F20E00302030A900153E0FEA3E0FF9047
:1001930001A7E0FCA3E0FDC39FEC9E9002E5E0FE17
:1001A3005037A3E0FFEEC0E0EFC0E0900153E0FE64
:1001B300A3E0FFC3ED9FFFEC9EFE3395E0FDFCE45F
:1001C300FB7A10F9F8124891ECC0E0EDC0E0EEC004
:1001D300E0EFC0E090015B803BA3E0FFEEC0E0EF07
:1001E300C0E0900153E0FEA3E0FF9001A7E0FCA371
:1001F300E0C39FFFEC9EFE3395E0FDFCE4FB7A1029
:10020300F9F8124891ECC0E0EDC0E0EEC0E0EFC0B9
:10021300E0900157E0FEA3E0FFCBEFCBCAEECAE4C8
:10022300F9F8D0E0FFD0E0FED0E0FDD0E0FC12739F
:100233009BCDEFCDCCEECCD0E0FFD0E0FE12475CFF
:100243009002E5EEF0A3EFF0900155E0FEA3E0FF8E
:100253009001A9E0FCA3E0FDC39FEC9E9002E7E0C0
:10026300FE5037A3E0FFEEC0E0EFC0E0900155E0A1
:10027300FEA3E0FFC3ED9FFFEC9EFE3395E0FDFC84
:10028300E4FB7A10F9F8124891ECC0E0EDC0E0EE1F
:10029300C0E0EFC0E090015D803BA3E0FFEEC0E073
:1002A300EFC0E0900155E0FEA3E0FF9001A9E0FC60
:1002B300A3E0C39FFFEC9EFE3395E0FDFCE4FB7AD5
:1002C30010F9F8124891ECC0E0EDC0E0EEC0E0EFA9
:1002D300C0E0900159E0FEA3E0FFCBEFCBCAEECA2A
:1002E300E4F9F8D0E0FFD0E0FED0E0FDD0E0FC126E
:1002F300739BCDEFCDCCEECCD0E0FFD0E0FE124728
:100303005C9002E7020495900153E0FEA3E0FF90A6
:1003130001A7E0FCA3E0FDC39FEC9E9002E7E0FE93
:100323005037A3E0FFEEC0E0EFC0E0900153E0FEE2
:10033300A3E0FFC3ED9FFFEC9EFE3395E0FDFCE4DD
:10034300FB7A10F9F8124891ECC0E0EDC0E0EEC082
:10035300E0EFC0E090015B803BA3E0FFEEC0E0EF85
:10036300C0E0900153E0FEA3E0FF9001A7E0FCA3EF
:10037300E0C39FFFEC9EFE3395E0FDFCE4FB7A10A7
:10038300F9F8124891ECC0E0EDC0E0EEC0E0EFC038
:10039300E0900157E0FEA3E0FFCBEFCBCAEECAE447
:1003A300F9F8D0E0FFD0E0FED0E0FDD0E0FC12731E
:1003B3009BCDEFCDCCEECCD0E0FFD0E0FE12475C7E
:1003C3009002E7EEF0A3EFF0900155E0FEA3E0FF0B
:1003D3009001A9E0FCA3E0FDC39FEC9E9002E5E041
:1003E300FE503EA3E0FFEEC0E0EFC0E0900155E019
:1003F300FEA3E0FFC3ED9FFFEC9EFEC3E49FFFE47B
:100403009EFE3395E0FDFCE4FB7A10F9F812489167
:10041300ECC0E0EDC0E0EEC0E0EFC0E090015D8035
:1004230042A3E0FFEEC0E0EFC0E0900155E0FEA381
:10043300E0FF9001A9E0FCA3E0C39FFFEC9EFEC395
:10044300E49FFFE49EFE3395E0FDFCE4FB7A10F9A4
:10045300F8124891ECC0E0EDC0E0EEC0E0EFC0E080
:10046300900159E0FEA3E0FFCBEFCBCAEECAE4F95B
:10047300F8D0E0FFD0E0FED0E0FDD0E0FC12739BAB
:10048300CDEFCDCCEECCD0E0FFD0E0FE12475C90B8
:1004930002E5EEF0A3EFF09002E7E0FEA3E0FFD366
:1004A3009400EE648094804002800F9002E7E0FEA7
:1004B300A3E0FFC3E49FFFE49EFE9002E5E0FCA3FC
:1004C300E0FDD39400EC648094804002800F90029E
:1004D300E5E0FCA3E0FDC3E49DFDE49CFCD3ED9FBC
:1004E300EE6480F8EC64809840259002E5E0FEA37A
:1004F300E0FFD39400EE6480948040028034900245
:10050300E5E0FEA3E0FFC3E49FFFE49EFE802390AB
:1005130002E7E0FEA3E0FFD39400EE648094804002
:1005230002800F9002E7E0FEA3E0FFC3E49FFFE435
:100533009EFECAEECACBEFCB900111E0FEA3E024EE
:10054300DCF582EE3401F583E493FF7E007C007DCD
:100553001512475CC3EB9FFFEA9EFE9002E9F0A3EE
:10056300EFF0D39400EE64809480501AE4900297E5
:10057300F0A3F0900295F0A3F0900293F0A3F09013
:100583000291F0A3F022900111E0FEA3E0FF24D436
:10059300F582EE3401F583E493540F24FE700302D5
:1005A300078E147003020AC3147003020FB92403E5
:1005B300600302150190028FE07002A3E060030262
:1005C3000798EF24DEF582EE3401F583E493701D82
:1005D300900111E0FEA3E024DFF582EE3401F58300
:1005E300E493700990028FF0A3F002071A900111AF
:1005F300E0FEA3E0FF24DEF582EE3401F583E4930D
:10060300FBEF24DFF582EE3401F583E493C39BFD16
:100613003395E0FC78039002E9E0FEA3E0CEA2E785
:1006230013CE13D8F8FF12475CEEFD3395E0FCEBD5
:1006330025E0FFE433FEED2FFFEC3E9002E9F0A34B
:10064300EFF0900295E0FEA3E0FFD39400EE648008
:1006530094804002800F900295E0FEA3E0FFC3E484
:100663009FFFE49EFE9002E9E0FCA3E0FDD39FEE32
:100673006480F8EC648098500A900295ECF0A3ED46
:10068300F0806B900111E0FEA3E024DDF582EE34EF
:1006930001F583E4932401FDE433FC900295E0FE2D
:1006A300A3E0FFC39002EAE09FFF9002E9E09EFE11
:1006B3001247C3EEF0A3EFF04E7010900296E004E1
:1006C300F0701C900295E004F080149002E9E0FEC3
:1006D300A3E0FF900296E02FF0900295E03EF090A9
:1006E3000295E0FFA3E09002E9CFF0A3EFF09002C0
:1006F300E9E0FEA3E0FFC374649FFFE49EFE900263
:100703008FF0A3EFF0D39400EE64809480500890B0
:10071300028FE4F0A304F09002E5E0FEA3E0FFA360
:10072300E0FCA3E0FDD39FEE6480F8EC6480984086
:1007330026E49FFFE49EFED3ED9FEE6480F8EC6415
:100743008098900111E0FE4007A3E024D7020AB489
:10075300A3E024D9020AB49002E5E0FEA3E0FFC3BC
:10076300E49FFFE49EFED39002E8E09FEE6480F8EE
:100773009002E7E0648098900111E0FE4006A3E058
:1007830024DA8004A3E024D8020AB490028FE07034
:1007930002A3E0600F900290E024FFF090028FE04C
:1007A30034FFF022900111E0FEA3E0FF24DEF58286
:1007B300EE3401F583E4937017EF24DFF582EE3412
:1007C30001F583E493700990028FF0A3F00208FD12
:1007D300900111E0FEA3E0FF24DEF582EE3401F583
:1007E30083E493FBEF24DFF582EE3401F583E49396
:1007F300C39BFD3395E0FC78039002E9E0FEA3E0A0
:10080300CEA2E713CE13D8F8FF12475CEEFD339563
:10081300E0FCEB25E0FFE433FEED2FFFEC3E90021E
:10082300E9F0A3EFF0900295E0FEA3E0FFD394007C
:10083300EE648094804002800F900295E0FEA3E076
:10084300FFC3E49FFFE49EFE9002E9E0FCA3E0FD0A
:10085300D39FEE6480F8EC648098500A900295EC84
:10086300F0A3EDF0806B900111E0FEA3E024DDF531
:1008730082EE3401F583E4932401FDE433FC90021A
:1008830095E0FEA3E0FFC39002EAE09FFF9002E938
:10089300E09EFE1247C3EEF0A3EFF04E70109002FD
:1008A30096E004F0701C900295E004F0801490022E
:1008B300E9E0FEA3E0FF900296E02FF0900295E0BE
:1008C3003EF0900295E0FFA3E09002E9CFF0A3EFA2
:1008D300F09002E9E0FEA3E0FFC374649FFFE49E8F
:1008E300FE90028FF0A3EFF0D39400EE6480948027
:1008F300500890028FE4F0A304F09002E5E0FEA319
:10090300E0FF7C007D0312475CCAEECACBEFCBA3AA
:10091300E0FEA3E0FF7D0712475CD3EF9BEA648010
:10092300F8EE648098403C9002E5E0FEA3E0FFE42B
:100933009FFFE49EFE7D0312475CCAEECACBEFCB5A
:10094300A3E0FEA3E0FF7D0712475CD3EF9BEA64BD
:1009530080F8EE648098400B900111E0FEA3E02440
:10096300D780689002E5E0FEA3E0FF7C007D0312E0
:10097300475CCAEECACBEFCBA3E0FEA3E0FF7D0743
:1009830012475CC3EF9BEA6480F8EE648098504A98
:100993009002E5E0FEA3E0FFC3E49FFFE49EFE7D3B
:1009A3000312475CCAEECACBEFCBA3E0FEA3E0FF82
:1009B3007D0712475CC3EF9BEA6480F8EE6480987E
:1009C3005018900111E0FEA3E024D8F582EE340123
:1009D300F583E493FD7FFF12696E9002E5E0FEA3C9
:1009E300E0FF7C007D0712475CCAEECACBEFCBA3C6
:1009F300E0FEA3E0FF7D0312475CD3EF9BEA648034
:100A0300F8EE648098403C9002E5E0FEA3E0FFE44A
:100A13009FFFE49EFE7D0712475CCAEECACBEFCB75
:100A2300A3E0FEA3E0FF7D0312475CC3EF9BEA64F0
:100A330080F8EE648098500B900111E0FEA3E0244F
:100A4300D9806E9002E5E0FEA3E0FF7C007D0712F3
:100A5300475CCAEECACBEFCBA3E0FEA3E0FF7D0366
:100A630012475CC3EF9BEA6480F8EE64809840030E
:100A73000215019002E5E0FEA3E0FFC3E49FFFE45B
:100A83009EFE7D0712475CCAEECACBEFCBA3E0FE06
:100A9300A3E0FF7D0312475CD3EF9BEA6480F8EE8B
:100AA3006480985003021501900111E0FEA3E02435
:100AB300DAF582EE3401F583E493FD7FFF02696E7C
:100AC300900111E0FEA3E024DFF582EE3401F5830B
:100AD300E493FB3395E0FA78039002E5E0FEA3E0AC
:100AE300CEA2E713CE13D8F8FFCDEBCDCCEACC12D0
:100AF300475C7804EFCEA2E713CE13D8F8FF900239
:100B0300E5EEF0A3EFF07803A3E0FEA3E0CEA2E7C7
:100B130013CE13D8F8FFCDEBCDCCEACC12475C78DB
:100B230004EFCEA2E713CE13D8F8FF9002E7EEF05E
:100B3300A3EFF0900295E0FEA3E0FFD39400EE64F0
:100B43008094804002800F900295E0FEA3E0FFC3F3
:100B5300E49FFFE49EFE9002E5E0FCA3E0FDD39456
:100B630000EC648094804002800F9002E5E0FCA3D7
:100B7300E0FDC3E49DFDE49CFCD3ED9FEE6480F8AF
:100B8300EC6480985002802E900295E0FEA3E0FF73
:100B9300D39400EE648094804002800F900295E02D
:100BA300FEA3E0FFC3E49FFFE49EFED3EF9420EE99
:100BB3006480948340129002E5E0FFA3E0900295E5
:100BC300CFF0A3EFF0020CE7900295E0FEA3E0FF65
:100BD300D39400EE6480948040028007C3E49FFFB7
:100BE300E49EFECCEECCCDEFCD900111E0FAA3E074
:100BF300FB24DEF582EA3401F583E49375F00AA45D
:100C0300FFD3ED9FE5F06480F8EC648098405DEBE2
:100C130024DDF582EA3401F583E4932401FDE43312
:100C2300FC900295E0FEA3E0FF9002E5E0FAA3E06A
:100C3300FBC39FFFEA9EFE1247C39002E9EEF0A3B7
:100C4300EFF04E6003020CD3C3EA64809480500734
:100C53007EFF7FFF020CDBD3EB9400EA6480948079
:100C63007E0040047F0180027F00806C900111E0D0
:100C7300FEA3E024DDF582EE3401F583E49375F001
:100C83000AA42401FDE435F0FC900295E0FEA3E004
:100C9300FF9002E5E0FAA3E0FBC39FFFEA9EFE128A
:100CA30047C39002E9EEF0A3EFF04E7023C3EA646A
:100CB30080948050067EFF7FFF8013D3EB9400EA7D
:100CC300648094807E0040047F0180027F0080085E
:100CD3009002E9E0FEA3E0FF900296E02FF090027D
:100CE30095E03EF0900297E0FEA3E0FFD39400EE80
:100CF300648094804002800F900297E0FEA3E0FF9F
:100D0300C3E49FFFE49EFE9002E7E0FCA3E0FDD373
:100D13009400EC648094804002800F9002E7E0FC32
:100D2300A3E0FDC3E49DFDE49CFCD3ED9FEE648052
:100D3300F8EC6480985002802E900297E0FEA3E0C6
:100D4300FFD39400EE648094804002800F9002975A
:100D5300E0FEA3E0FFC3E49FFFE49EFED3EF9420F5
:100D6300EE6480948340129002E7E0FFA3E09002D8
:100D730097CFF0A3EFF0020E93900297E0FEA3E06B
:100D8300FFD39400EE6480948040028007C3E49F05
:100D9300FFE49EFECCEECCCDEFCD900111E0FAA3A3
:100DA300E0FB24DEF582EA3401F583E49375F00A6F
:100DB300A4FFD3ED9FE5F06480F8EC648098405A7B
:100DC300EB24DDF582EA3401F583E4932401FDE4A9
:100DD30033FC900297E0FEA3E0FF9002E7E0FAA362
:100DE300E0FBC39FFFEA9EFE1247C3A3EEF0A3EF0F
:100DF300F04E6003020E7FC3EA6480948050067E47
:100E0300FF7FFF807FD3EB9400EA648094807E00B1
:100E130040047F0180027F00806A900111E0FEA3FD
:100E2300E024DDF582EE3401F583E49375F00AA442
:100E33002401FDE435F0FC900297E0FEA3E0FF906F
:100E430002E7E0FAA3E0FBC39FFFEA9EFE1247C35B
:100E5300A3EEF0A3EFF04E7023C3EA6480948050B6
:100E6300067EFF7FFF8013D3EB9400EA64809480B7
:100E73007E0040047F0180027F0080089002E9E049
:100E8300FEA3E0FF900298E02FF0900297E03EF07F
:100E9300900295E0FEA3E0FF900292E02FF0900213
:100EA30091E03EF0900297E0FEA3E0FF900294E011
:100EB3002FF0900293E03EF0900291E0FEA3E0FF5A
:100EC300D39440EE64809460400280047EE07F40CF
:100ED300C3EF94C0EE6480949F5019900291E0FE9A
:100EE300A3E0FF9440EE648094604002800A7EE0B9
:100EF3007F4080047E1F7FC0900291EEF0A3EFF04D
:100F0300A3E0FEA3E0FFD39440EE6480946040022C
:100F130080047EE07F40C3EF94C0EE6480949F50D2
:100F230019900293E0FEA3E0FF9440EE6480946086
:100F33004002800A7EE07F4080047E1F7FC09002D3
:100F430093EEF0A3EFF0900291E0FCA3E0FD7806AE
:100F5300CEECCECEA2E713CE13D8F8900302F078EE
:100F630006900293E0FEA3E0CEA2E713CE13D8F8D7
:100F7300F404F9900303F0900302E0FF3395E0FEDD
:100F83007806EFC333CE33CED8F9FFC3ED9FFFEC22
:100F93009E900291F0A3EFF0E9FF3395E0FE78060F
:100FA300EFC333CE33CED8F9FF900294E02FF09005
:100FB3000293E03EF022900291E0FEA3E0FF900254
:100FC300E5E0FCA3E0FDC39FFFEC9EFE7802EFCEBD
:100FD300A2E713CE13D8F8FF9002E9EEF0A3EFF0E7
:100FE3004E7023C3EC6480948050067EFF7FFF80A5
:100FF3001DD3ED9400EC648094807E0040047F0157
:1010030080027F0080089002E9E0FEA3E0FF9002E7
:1010130092E02FF0900291E03EF0900293E0FEA365
:10102300E0FF9002E7E0FCA3E0FDC39FFFEC9EFE20
:101033007802EFCEA2E713CE13D8F8FF9002E9EEC1
:10104300F0A3EFF04E7023C3EC6480948050067ECF
:10105300FF7FFF801DD3ED9400EC648094807E00BD
:1010630040047F0180027F0080089002E9E0FEA334
:10107300E0FF900294E02FF0900293E03EF09002A4
:10108300E5E0FAA3E0FBD39400EA64809480900146
:1010930011E0FE4006A3E024DA8004A3E024D9F59E
:1010A30082EE3401F583E493FF900295E4F0A3EF1D
:1010B300F0D3ED9400EC64809480900111E0FE4045
:1010C30006A3E024D78004A3E024D8F582EE3401FC
:1010D300F583E493FF900297E4F0A3EFF090029579
:1010E300E0FEA3E0FFC3941EEE648094804017D318
:1010F300EF9427EE64809480500CEF25E0FFEE33ED
:10110300FEEF24C68027900295E0FEA3E0FFC39480
:1011130059EE648094804022D3EF9462EE6480940D
:10112300805017EF25E0FFEE33FEEF244FFFEE3440
:10113300FF900295F0A3EFF08007E4900295F0A3EF
:10114300F0900297E0FEA3E0FFC3941EEE64809448
:10115300804017D3EF9427EE64809480500CEF25E2
:10116300E0FFEE33FEEF24C68027900297E0FEA354
:10117300E0FFC39459EE648094804022D3EF9462DD
:10118300EE648094805017EF25E0FFEE33FEEF24EA
:101193004FFFEE34FF900297F0A3EFF08007E49047
:1011A3000297F0A3F0D3EB9401EA64809470400AB1
:1011B3009002E5E0FEA3E0FF80047EF07F01C3EF31
:1011C30094FFEE6480948F50199002E5E0FEA3E053
:1011D300FF9401EE648094704002800A7EF07F01E8
:1011E30080047E0F7FFF9002E5EEF0A3EFF0D3EDD6
:1011F3009401EC648094704008A3E0FEA3E0FF80B8
:10120300047EF07F01C3EF94FFEE6480948F501946
:101213009002E7E0FEA3E0FF9401EE648094704047
:1012230002800A7EF07F0180047E0F7FFF9002E739
:10123300EEF0A3EFF0900295E0FEA3E0FFCBEFCB3F
:10124300CAEECAEA3395E0F9F8900291E0FEA3E012
:10125300FFEE3395E0FDFC124891C8ECC8C9EDC917
:10126300CAEECACBEFCB900111E0FEA3E024DFF579
:1012730082EE3401F583E493FFE4FCFDFE12489112
:10128300E47B7DFAF9F812739B900295EEF0A3EFDD
:10129300F0A3E0FEA3E0FFEE3395E0FDFC1249AEC0
:1012A300C8ECC8C9EDC9CAEECACBEFCB900293E034
:1012B300FEA3E0FFEE3395E0FDFC124891C8ECC8B5
:1012C300C9EDC9CAEECACBEFCB900111E0FEA3E092
:1012D30024DFF582EE3401F583E493FFE4FCFDFEA5
:1012E300124891E47B7DFAF9F812739B900297EE12
:1012F300F0A3EFF0900111E0FEA3E024DDF582EE10
:101303003401F583E493FFE4FCFDFE7BFF7A7FF970
:10131300F8124891E47B32FAF9F812739B9002E5D4
:10132300EEF0A3EFF0900111E0FEA3E024DEF582DE
:10133300EE3401F583E493FFE4FCFDFE7BFF7A7F4B
:10134300F9F8124891E47B32FAF9F812739B900290
:10135300E7EEF0A3EFF0D3900296E09400900295AD
:10136300E06480948040479002E5E0FEA3E0FFCB79
:10137300EFCBCAEECAEA3395E0F9F8900295E0FEA6
:10138300A3E0FFEE3395E0FDFCEB2FFFEA3EFEE921
:101393003DFDE83CFCE47BFF7A7FF9F8C31249BCCE
:1013A300500C9002E5747FF0A374FFF08055C39056
:1013B3000295E06480948050369002E5E0FEA3E05D
:1013C300FFCBEFCBCAEECAEA3395E0F9F89002956A
:1013D300E0FEA3E0FFEE3395E0FDFCEB2FEA3EE9F0
:1013E3003DE83C335009E49002E5F0A3F08014900B
:1013F3000295E0FEA3E0FF9002E6E02FF09002E505
:10140300E03EF0D3900298E09400900297E064806D
:10141300948040479002E7E0FEA3E0FFCBEFCBCA06
:10142300EECAEA3395E0F9F8900297E0FEA3E0FFF5
:10143300EE3395E0FDFCEB2FFFEA3EFEE93DFDE8D0
:101443003CFCE47BFF7A7FF9F8C31249BC500C9053
:1014530002E7747FF0A374FFF08056C3900297E015
:101463006480948050379002E7E0FEA3E0FFCBEF67
:10147300CBCAEECAEA3395E0F9F8900297E0FEA3EF
:10148300E0FFEE3395E0FDFCEB2FFFEA3EE93DE89C
:101493003C335009E49002E7F0A3F08014900297E4
:1014A300E0FEA3E0FF9002E8E02FF09002E7E03EC9
:1014B300F09002E5E0FCA3E0FDCFEDCF900308F050
:1014C300ECFFEFA3F09002E7E0FCA3E0FDCFEDCF4C
:1014D30090030AF0ECFFEFA3F09003077411F09070
:1014E300028FE07002A3E07F0070027F017E009014
:1014F300028FEEF0A3EFF025E014900302F022E454
:101503009002E5F0A374FFF0E4F512F513EF604ADF
:101513009001F7E0FCA3E0FDA3E0FEA3E0FF90024F
:101523000E124A099001F7E0FCA3E0FDA3E0FEA33D
:10153300E02401FFE43EFEED34FFFDEC34FFFC90BC
:101543000212124A097E007F107D007B017A027924
:101553006F124A7FE4900218F0229001F7A3A3A32D
:10156300E0FF900219E0FEC3EF9EC3941450030200
:10157300264CE02414F090027FE0FEA3E0F5828E77
:101583008374F593700374F493602EE4F510744040
:101593002510F582E43401F583E060169001F7E04D
:1015A300FCA3E0FDA3E0FEA3E0FF900212124A09B0
:1015B30080070510E510B410D5900218E0540FFF12
:1015C300BF021D7403F09001F7E0FCA3E0FDA3E06C
:1015D300FEA3E0FF90020E124A0990021A74FFF074
:1015E300900218E0540F6403600302171790021669
:1015F300E0FEA3E0FFCBEFCBCAEECA90027FE0FE92
:10160300A3E0F5828E8374F893FE74F993FFEF2BB6
:10161300FFEE3AFEE433FDE433C0E0EDC0E0EEC09C
:10162300E0EFC0E090020EE0F8A3E0F9A3E0FAA334
:10163300E0FB9001F7E0FCA3E0FDA3E0FEA3E0C321
:101643009BFBEE9AFAED99F9EC98F8D0E0FFD0E025
:10165300FED0E0FDD0E0FCD31249D25003021717AD
:1016630090027FE0FEA3E0F5828E8374F493FE7410
:10167300F593FF4E604C7C007D0A124A52ECC0E0A9
:10168300EDC0E0EEC0E0EFC0E0900212E0F8A3E0AE
:10169300F9A3E0FAA3E0FB9001F7E0FCA3E0FDA3CC
:1016A300E0FEA3E0C39BFBEE9AFAED99F9EC98F800
:1016B300D0E0FFD0E0FED0E0FDD0E0FCD31249D271
:1016C300405290027FE0FEA3E0F5828E8374FB9389
:1016D300700374FA93602E127273CCEECCCDEFCDFF
:1016E300AF8AEF6CFEEDFF90027FE0FCA3E0F58292
:1016F3008C8374FA93FC74FB93FD12476ECEECCE8D
:10170300CFEDCF80047E007F00900216EEF0A3EFB2
:10171300F0E4A3F0900218E0540F60030218F604FB
:10172300F09001F7E0FCA3E0FDA3E0FEA3E0FF904F
:10173300020E124A09E490021AF090027FE0FEA31F
:10174300E0F5828E8374F193FF70030218D2EFD316
:101753009404501B90027FE0FEA3E0F5828E837415
:10176300F1931475F008A4FD74F0932D0218EA9018
:10177300027FE0FEA3E0F5828E8374F193B4050348
:101783000218F0E4F511F51090027FE0FEA3E0FFEC
:10179300F5828E8374EB932401FDE433FCC3E510DF
:1017A3009DEC6480F87480985035E510C39409501B
:1017B3002EE58224E0F582E43583F583E582251066
:1017C300F582E43583F583E493FF600DD3940450ED
:1017D3000874082511F51180020511051080A990E0
:1017E300027FE0FEA3E0F5828E8374F193B4060FCB
:1017F30090021CE004F0C39511402AE4F080261205
:101803007273AD8AEF6DFFAD117C001247C38D106B
:1018130090021CE065107007E511D3940150E0902D
:10182300021CE510F0E4F511F51090027FE0FEA331
:10183300E0FFF5828E8374EB932401FDE433FCD344
:10184300E5109DEC6480F8748098507FE51094094E
:10185300507990021CE0F9E51199403DE51024DF31
:10186300FDE433FCEF2DF582EE3CF583E493600D4C
:10187300D394045008E92408C39511F511E5102405
:10188300DFFFE433FE90027FE0FCA3E02FF582EC60
:101893003EF583E493F510803290027FE0FCA3E0F1
:1018A30024E0F582E43CF583E5822510F582E435F6
:1018B30083F583E493600DD39404500874082511D1
:1018C300F51180020511051002182DE5107008901E
:1018D300021D74C8F0801CE510D39404500FE5106A
:1018E3001475F008A4251190021DF0800690021DC6
:1018F3007464F0900218E0540F640170599001F77A
:10190300A3A3E0FEA3E0FFCBEFCBCAEECA90020E87
:10191300A3A3E0FEA3E0FFC3EB9FFFEA9EFE9002BA
:101923007FE0FCA3E0F5828C83C374F7939F74F686
:10193300939E502290021DE064C8601A9001F7E064
:10194300FCA3E0FDA3E0FEA3E0FF90020E124A0910
:1019530090021AE004F090021DE0FFC39420500FA0
:10196300EF75F010A42404F9747A35F0FA801B9013
:10197300021DE0B4643B900280E02490FF90027F5C
:10198300E03400FECAEECAC9EFC97BFFEBC0E0EA50
:10199300C0E0E9C0E0C8744FC8CC7402CCCD740178
:1019A300CDD0E0F9D0E0FAD0E0FB7E007F10124604
:1019B300D590027FE0FEA3E0FFCAEECAC9EFC97B60
:1019C300FFEBC0E0EAC0E0E9C0E0C8741FC8CC7414
:1019D30002CCCD7401CDD0E0F9D0E0FAD0E0FB7EAB
:1019E300007F301246D5E4F51090027FE0FEA3E0BD
:1019F300F5828E8374F3937003021B4474F2932075
:101A0300E003021B44E51075F003A4241FF582E4F0
:101A13003402F583E0FFE51075F003A42420F5827A
:101A2300E43402F583E0FDE51075F003A42421F509
:101A330082E43402F583E0C0E09002F37401F0A382
:101A43007402F0A374E7F0A37401F0A37402F0A38B
:101A530074E9F0A37401F0A37402F0A374EBF0D063
:101A6300E0FB12624890027FE0FEA3E0F5828E83E2
:101A730074F393FFCBEFCBE4FAF9F89001F7E0FCB2
:101A8300A3E0FDA3E0FEA3E0FF12491CE47BEA7A96
:101A930003F9F812491CCCE8CCCDE9CDCEEACECF80
:101AA300EBCF9002E8E02FF09002E7E03EF0C3A313
:101AB300E094EA9002E7E09403400CA3E02416F0DC
:101AC3009002E7E034FCF0E51075F003A4FFAEF0FC
:101AD300241FF974023EFA7B01EBC0E0EAC0E0E99F
:101AE300C0E074202FF974023EFAEBC0E0EAC0E0D4
:101AF300E9C0E074212FF974023EFA9002FCEBF086
:101B0300A3EAF0A3E9F0D0E0F9D0E0FAD0E0900244
:101B1300F9F0A3EAF0A3E9F0D0E0F9D0E0FAD0E0DD
:101B23009002F6F0A3EAF0A3E9F09002E7E0FEA347
:101B3300E0FFA3E0FCA3E0FDA3E0FAA3E0FB125B5C
:101B43007C90021DE064C86003021DBD90027FE02B
:101B5300FEA3E0F5828E8374F793700374F693709B
:101B630003021DBD9001F7A3A3E0FEA3E0FFCBEFAB
:101B7300CBCAEECA90020EA3A3E0FEA3E0FFC3EB21
:101B83009FFBEA9EFA90027FE0FEA3E0F5828E833C
:101B930074F693FE74F793FFD394E8EE9403400234
:101BA30080047E037FE87C037DE812476ECDEFCD92
:101BB300CCEECCCFEBCFCEEACE12476E7C037DEAE0
:101BC30012476E9002EBECF0A3EDF09002EBE0FE17
:101BD300A3E0FFC394F5EE9401402D74E99FF074E4
:101BE300039E9002EBF090027FE0FEA3E0F5828E6D
:101BF3008374FD9375F00384AFF07512008F139017
:101C03000218E04480F0802F90027FE0FEA3E0F50D
:101C1300828E8374FC9375F00384AFF07512008F8A
:101C230013900218E0B4810FE510B40F037402F0AF
:101C3300E49002EBF0A3F0900218E0540F6401600B
:101C430007E49002EBF0A3F0E5134512705DF51184
:101C530075F003E510A42511F582E435F0F583E56D
:101C630082241FF582E5833402F583E0FF7E009032
:101C730002EBE0FCA3E0FD124A52E47BF47A01F9A3
:101C8300F812491C75F003E510A42511F582E4351B
:101C9300F0F583E582241FF582E5833402F583EFB3
:101CA300F00511E511B403A8021DB4E51364014561
:101CB300126003021D419002EBE0FEA3E0FF7C00F3
:101CC3007DFF124A52E47BF47A01F9F812491C743D
:101CD300842FF58274783EF583E493FF9002EBE45E
:101CE300F0A3EFF0E4F51175F003E510A42511F569
:101CF30082E435F0F583E582241FF582E58334021F
:101D0300F583E0FF7E009002EBE0FCA3E0FD1247C9
:101D13005C7C007DFF12476E75F003E510A425116E
:101D2300F582E435F0F583E582241FF582E58334FB
:101D330002F583EFF00511E511B403AB8073900254
:101D4300EBE0FEA3E0248FF58274763EF583E49303
:101D5300FF9002EBE4F0A3EFF0E4F51175F003E577
:101D630010A42511F582E435F0F583E582241FF5EF
:101D730082E5833402F583E0FF7E009002EBE0FC12
:101D8300A3E0FD12475C7C007DFF12476E75F003F4
:101D9300E510A42511F582E435F0F583E582241FCF
:101DA300F582E5833402F583EFF00511E511B40301
:101DB300AB9002E57401F0021F6E90021DE064C84F
:101DC3007003021F6E744F2510F582E43402F5830D
:101DD300E0FF90021AE0FEEF6E6003021EC890025D
:101DE300E504F090027FE0FEA3E0F5828E8374FCAD
:101DF30093FFC3741F9FF513E49400F512D3E51307
:101E0300940AE512648094804015AE12AF137C00EF
:101E13007D0A12475CEF24A6F513EE34FFF5127426
:101E23006F2510F582E43402F583E0FFC374FF9F4E
:101E3300FFE49400FED3EF9513E5126480F8EE649B
:101E43008098746F400F2510F582E43402F583E027
:101E53002513F0800C2510F582E43402F58374FF1A
:101E6300F0E4F51175F003E510A42511F582E435CE
:101E7300F0F583E582241FF582E5833402F583E0E0
:101E8300FF7E00746F2510F582E43402F583E09041
:101E9300788493FD7C0012475C7DFF12476E75F0DA
:101EA30003E510A42511F582E435F0F583E58224DA
:101EB3001FF582E5833402F583EFF00511E511B4D4
:101EC30003A2021F6E90027FE0FEA3E0F5828E83E1
:101ED30074FD932401FDE433FC746F2510F582E453
:101EE3003402F583E0FBFF7E001247C38E128F138B
:101EF300EB600BE51345127005F512751301746F52
:101F03002510F582E43402F583E0C39513F0E4F57C
:101F13001175F003E510A42511F582E435F0F5837E
:101F2300E582241FF582E5833402F583E0FF7E001A
:101F3300746F2510F582E43402F583E0FD7C001212
:101F4300475C7DFF12476E75F003E510A42511F57C
:101F530082E435F0F583E582241FF582E5833402BC
:101F6300F583EFF00511E511B403A674402510F5D0
:101F730082E43401F583E0607990027FE0FCA3E022
:101F83002510F582E43CF5837460932401FDE4336A
:101F9300FC745F2510F582E43402F583E0FBFFC394
:101FA30074FF9FFFE49400FE1247C38E128F13C386
:101FB30074FF9B600BE51345127005F51275130151
:101FC300745F2510F582E43402F583E02513F09065
:101FD300027FE0FCA3E02510F582E43CF5837480E6
:101FE30093FF9002E6E0D39F5003022099EFF002A3
:101FF300209990027FE0FCA3E02510F582E43CF5F4
:10200300837470932401FDE433FC745F2510F5821F
:10201300E43402F583E0FBFF7E001247C38E128F88
:1020230013EB600BE51345127005F512751301747C
:102033005F2510F582E43402F583E0C39513F0E4E1
:10204300F51175F003E510A42511F582E435F0F5DB
:1020530083E582241FF582E5833402F583E0FF9054
:10206300021BE0FEEF8EF0A4FFAEF07C007DFF12BA
:10207300476E75F003E510A42511F582E435F0F5FC
:1020830083E582241FF582E5833402F583EFF005AF
:1020930011E511B403AC90027FE0FEA3E0F5828E5C
:1020A3008374F393700302225774F29320E10302C3
:1020B300225790027FE0FCA3E0FDF5828C8375F04C
:1020C30003E510124A46743093FF8D828C8375F0BA
:1020D30003E510124A46743193FD90027FE0FAA3A0
:1020E300E0F5828A8375F003E510124A4674329351
:1020F300C0E09002F37401F0A37402F0A374E7F05C
:10210300A37401F0A37402F0A374E9F0A37401F0C3
:10211300A37402F0A374EBF0D0E0FB1262489002C8
:102123007FE0FEA3E0F5828E8374F393FFCBEFCBC6
:10213300E4FAF9F89001F7E0FCA3E0FDA3E0FEA3C5
:10214300E0FF12491CE47BEA7A03F9F812491CCC3C
:10215300E8CCCDE9CDCEEACECFEBCF9002E8E02FAD
:10216300F09002E7E03EF0C3A3E094EA9002E7E0D8
:102173009403400CA3E02416F09002E7E034FCF053
:102183009002E7E0FEA3E0FFA3E0FCA3E0FD9002E2
:10219300F67401F0A37402F0A374EDF0A37401F0DC
:1021A300A37402F0A374EEF0A37401F0A37402F01D
:1021B300A374EFF09002EBE0FAA3E0FB125B7C90D8
:1021C30002EDE0FFE51075F003A4241FF582E4346B
:1021D30002F583E0FDC3EF9DFFE49400FE745F25E9
:1021E30010F582E43402F583E0FD7C0012475C7D48
:1021F300FF1247C3E51075F003A4241FF582E434EE
:1022030002F583E02FF09002EEE0FFE51075F00396
:10221300A42420F582E43402F583E0FDC3EF9DFF9F
:10222300E49400FE745F2510F582E43402F583E044
:10223300FD7C0012475C7DFF1247C3E51075F00378
:10224300A42420F582E43402F583E02FF09002EF1A
:10225300E002231990027FE0FAA3E0FBF5828A8370
:1022630075F003E510124A46743093FFE51075F0DC
:1022730003A4241FF582E43402F583E0FDC3EF9D3C
:10228300FFE49400FE745F2510F582E43402F583C5
:10229300E0FD7C0012475C7DFF1247C3E51075F03B
:1022A30003A4241FF582E43402F583E02FF08B822C
:1022B3008A8375F003E510124A46743193FFE510E3
:1022C30075F003A42420F582E43402F583E0FDC312
:1022D300EF9DFFE49400FE745F2510F582E4340261
:1022E300F583E0FD7C0012475C7DFF1247C3E510D8
:1022F30075F003A42420F582E43402F583E02FF083
:1023030090027FE0FEA3E0F5828E8375F003E51073
:10231300124A46743293FFE51075F003A42421F5A5
:1023230082E43402F583E0FDC3EF9DFFE49400FEF5
:10233300745F2510F582E43402F583E0FD7C00121E
:10234300475C7DFF1247C3E51075F003A42421F514
:1023530082E43402F583E02FF00510E510C39410F6
:1023630050030219EC9002E5E0700A900218E05461
:102373000F6401603790027FE0FEA3E0F5828E8355
:1023830074F593700374F49360289001F7E0FCA351
:10239300E0FDA3E0FEA3E0FF900212E0F8A3E0F962
:1023A300A3E0FAA3E0FBC31249D2700690021874AB
:1023B30002F090021BE0FB9002E6E0FAD39B406739
:1023C30090027FE0FEA3E0F5828E8374FE93FF7498
:1023D3001F9FF513E49400F512D3E513940AE51255
:1023E300648094804015AE12AF137C007D0A1247BF
:1023F3005CEF24A6F513EE34FFF512EBFFEAC39F5F
:10240300FFE49400FED3EF9513E5126480F8EE64C5
:102413008098400990021BE02513F080509002E65B
:10242300E090021BF0804690021BE0FF9002E6E082
:10243300FEC39F5038EEFDC3EF9DFFE49400FE9072
:10244300027FE0FCA3E0F5828C8374FF932401FDFB
:10245300E433FC1247C38E128F13E5134512700544
:10246300F51275130190021BE0C39513F09001114F
:10247300E0FEA3E024FEF582EE3401F583E493FF4E
:10248300705EF510E51075F003A4241FF582E434A3
:1024930002F583E0FEE51075F003A4242BF8EEF6B5
:1024A300E51075F003A42420F582E43402F583E0FB
:1024B300FEE51075F003A4242AF8EEF6E51075F096
:1024C30003A42421F582E43402F583E0FEE51075CC
:1024D300F003A4242CF8EEF60510E510B410A522A1
:1024E300EF6403706AF510E510907DD19375F003E6
:1024F300A4241FF582E43402F583E0FFE51075F0B0
:1025030003A4242BF8EFF6E510907DD19375F00327
:10251300A42420F582E43402F583E0FFE51075F08E
:1025230003A4242AF8EFF6E510907DD19375F00308
:10253300A42421F582E43402F583E0FFE51075F06D
:1025430003A4242CF8EFF60510E510B4109922909B
:102553000111E0FEA3E024FEF582EE3401F583E4ED
:1025630093FF64027075F510C37410951075F00332
:10257300A4241FF582E43402F583E0FEE51075F030
:1025830003A4242BF8EEF6E510FDC374109DFDE4BF
:102593009400FC90022075F003ED124A46EC75F0AE
:1025A30003A42583F583E0FEE51075F003A4242A34
:1025B300F8EEF690022175F003ED124A46EC75F041
:1025C30003A42583F583E0FEE51075F003A4242C12
:1025D300F8EEF60510E510B4108E22EF6401706971
:1025E300F510E510907DC19375F003A4241FF582C7
:1025F300E43402F583E0FFE51075F003A4242BF81F
:10260300EFF6E510907DC19375F003A42420F582C5
:10261300E43402F583E0FFE51075F003A4242AF8FF
:10262300EFF6E510907DC19375F003A42421F582A4
:10263300E43402F583E0FFE51075F003A4242CF8DD
:10264300EFF60510E510B4109922E49002D1F0A33F
:10265300F0A3F0A3F0900329F0900327F090032652
:10266300F09002FFF0C874ADC8CC7402CCCD7401F5
:10267300CD7B017A037911FE7F151246D57E007F4B
:10268300157D007B017A037911124A7F900301E0E3
:102693009002A8F07E007F047D007B017A0379011C
:1026A300124A7F9003067410F07E007F047DFF7B47
:1026B300017A037908124A7F90030EE09002AAF090
:1026C300E490030EF0900000E0C43354E02411F5CD
:1026D30082E43400F583E0FEA3E04E70037FFF2223
:1026E3009002A1E0604824D0F582E43401F583E050
:1026F30060229002A1E0243FF582E43401F583E0F7
:1027030070129002C3E054036003E014F09002C31C
:10271300E04404F09002C2E07F0070027F01900267
:10272300C2EFF07003023225123FF8023225E49023
:1027330002D4F09002D4E0FFC3941040030227F2C6
:1027430074402FF582E43401F583E070030227E936
:10275300900000E0C43354E02411F582E43400F522
:1027630083C083C0829002D4E0D082D08375F0020C
:10277300124A46E0FCA3E0F5828C83740193FEB415
:10278300010E9002ABE0FDEF6D60059002D1805326
:10279300EEB402119002ABE0FF9002D4E06F60054B
:1027A3009002D2803E900000E0C43354E02411F53F
:1027B30082E43400F583C083C0829002D4E0FFD06A
:1027C30082D08375F002124A46E0FCA3E0F5828CC6
:1027D30083740193B4070F9002ABE0FEEF6E6006C3
:1027E3009002D3E004F09002D4E004F0022736E430
:1027F3009002D4F09002D4E0FFC394104003022E61
:10280300029002ABE0FEEF6E70549002D4E02440DD
:10281300F582E43401F583E06003022DF974D12FCE
:10282300F582E43401F583E06003022DF99002A4FC
:10283300E004F0E0D3940A5003022DF9E4F090028F
:10284300D4E02403FF9002A9E0FD12696E9002A771
:10285300E0FF126DFB9002AB74FFF0022DF99002C2
:10286300D4E0FF2440F582E43401F583E0700302F1
:102873002CD7900000E0C43354E02411F582E434F3
:1028830000F58375F002EF124A46E0FEA3E0FFF580
:10289300828E83740193B4010612695D022DF9904F
:1028A3000000E0C43354E02411F582E43400F583DE
:1028B300C083C0829002D4E0D082D08375F002122C
:1028C3004A46E0FEA3E0FFF5828E8374019364021F
:1028D300704012695D900311E0FF900000E0C43383
:1028E30054E02411F582E43400F583C083C0829060
:1028F30002D4E0D082D08375F002124A46E0FCA3F2
:10290300E0F5828C83740393FEEF4E900311F00283
:102913002DF9900000E0C43354E02411F582E4342F
:1029230000F583C083C0829002D4E0FFD082D083BD
:1029330075F002124A46E0FCA3E0FDF5828C837435
:102943000193640370559002D1E06003022DF9A353
:10295300E06003022DF9A3E06003022DF974D12F87
:10296300F582E43401F583E06003022DF99002D48B
:10297300E0049002A1F0ED2403FEE43C9002A5F0F4
:10298300A3CEF0E490029FF0A3F09002C37402F090
:102993009002C214F0123FF8022DF9900000E0C437
:1029A3003354E02411F582E43400F583C083C082FC
:1029B3009002D4E0D082D08375F002124A46E0FE42
:1029C300A3E0F5828E83740193FF64046008EF64CF
:1029D300056003022B669002D4E0FF24D1F582E464
:1029E3003401F583E0700D74012FF582E43400F5B2
:1029F300837402F0900000E0C43354E02411F582A4
:102A0300E43400F583C083C0829002D4E0D082D046
:102A13008375F002124A46E0FEA3E02402FFE43E7F
:102A23008F82F583E493FE740193FFE4FCFDFB7A4C
:102A330080F9F8124891ECC0E0EDC0E0EEC0E0EFA1
:102A4300C0E0900111E0FEA3E024FAF582EE340128
:102A5300F583E493FE740193FFCBEFCBCAEECAE494
:102A6300F9F8D0E0FFD0E0FED0E0FDD0E0FC127337
:102A73009B9002D5EEF0A3EFF0900000E0C4335436
:102A8300E02411F582E43400F583C083C082900210
:102A9300D4E0D082D08375F002124A46E0FEA3E070
:102AA3002404FFE43E8F82F583E493FE740193FFD5
:102AB300E4FCFDFB7A80F9F8124891ECC0E0EDC02C
:102AC300E0EEC0E0EFC0E0900111E0FEA3E024FCE3
:102AD300F582EE3401F583E493FE740193FFCBEFAB
:102AE300CBCAEECAE4F9F8D0E0FFD0E0FED0E0FDB7
:102AF300D0E0FC12739B9002D7EEF0A3EFF09002AC
:102B0300D5E0FCA3E0FDCFEDCF900308F0ECA3F0FC
:102B13009002D7E0FCA3E0FDCFEDCF90030AF0ECE9
:102B2300A3F0900000E0C43354E02411F582E434B0
:102B330000F583C083C0829002D4E0FFD082D083AB
:102B430075F002124A46E0FCA3E0F5828C8374011F
:102B530093B40507900306E04401F0900307EFF0F8
:102B6300022DF9900000E0C43354E02411F582E40F
:102B73003400F583C083C0829002D4E0FFD082D0BA
:102B83008375F002124A46E0FCA3E0F5828C83745D
:102B9300019364066003022C6E74039320E703021F
:102BA3002DF99002ABE0F46003022DF974D12FF5F7
:102BB30082E43401F583E06003022DF9900000E024
:102BC300C43354E02411F582E43400F583C083C098
:102BD300829002D4E0D082D08375F002124A46E09C
:102BE300FCA3E0FDF5828C837402939002A9F0901C
:102BF3000000E0FF049002A7F074132FF582E43481
:102C030001F583E09002D9F08D828C83740393FFE6
:102C1300126DFB900000E02413F582E43401F58388
:102C2300E02404FF9002D9E0FEC3EF9E5403FF703B
:102C3300069002D4E0802DEFB4010A9002D4E09014
:102C43007DC193801FEFB4020B9002D4E0FFC374E5
:102C5300109F8010EF64036003022E029002D4E001
:102C6300907DD1939002ABF0022E02900000E0C45D
:102C73003354E02411F582E43400F583C083C08229
:102C83009002D4E0FFD082D08375F002124A46E06E
:102C9300FCA3E0FDF5828C83740193640760030257
:102CA3002DF974D12FF582E43401F583E06003023A
:102CB3002DF98D828C8374039330E003022DF990F8
:102CC30002D4E02401F582E43400F583E04402F009
:102CD300EF022DCE9002D4E0FF24D1F582E434013B
:102CE300F583E0FE7003022DF9900000E0C4335435
:102CF300E02411F582E43400F58375F002EF124A03
:102D030046E0FCA3E0F5828C83740193FFB40519BC
:102D1300EE7003022DF99002D4E02401F582E4342D
:102D230000F5837401F0022DF9EF64067041900001
:102D330000E0C43354E02411F582E43400F583C089
:102D430083C0829002D4E0D082D08375F002124A0D
:102D530046E0FEA3E0F5828E83740393FF30E7031E
:102D6300022DF99002AB74FFF0126DFB022DF99066
:102D73000000E0C43354E02411F582E43400F58309
:102D8300C083C0829002D4E0FFD082D08375F0026A
:102D9300124A46E0FCA3E0F5828C83740193FE643F
:102DA30007704C74039330E03374012FF582E434DD
:102DB30000F583E0FF20E1249002D4E0FD2401F537
:102DC30082E43400F583EF4402F0ED25E0241BF5A3
:102DD30082E43401F583E4F0A3F0801A9002D4E096
:102DE3002401F582E43400F583E054FDF08007EE1E
:102DF300B408037F01229002D4E004F00227F7E431
:102E03009002D4F09002D4E0FFC394104003023048
:102E130020900000E0C43354E02411F582E4340030
:102E2300F58375F002EF124A46E0FEA3E0F5828EC9
:102E330083740193FF64046008EF64056003023048
:102E430017900000E0C43354E02411F582E4340009
:102E5300F583C083C0829002D4E0D082D08375F022
:102E630002124A46E0FEA3E0F5828E83740393FFC9
:102E730064016008EF64026003023017900000E011
:102E8300C43354E02411F582E43400F583C083C0D5
:102E9300829002D4E0D082D08375F002124A46E0D9
:102EA300FEA3E02402FFE43E8F82F583E493FE74E5
:102EB3000193FFE4FCFDFB7A80F9F8124891ECC022
:102EC300E0EDC0E0EEC0E0EFC0E0900111E0FEA352
:102ED300E024FAF582EE3401F583E493FE74019362
:102EE300FFCBEFCBCAEECAE4F9F8D0E0FFD0E0FEA7
:102EF300D0E0FDD0E0FC12739B9002D5EEF0A3EF7F
:102F0300F0900000E0C43354E02411F582E434006F
:102F1300F583C083C0829002D4E0D082D08375F061
:102F230002124A46E0FEA3E02404FFE43E8F82F54A
:102F330083E493FE740193FFE4FCFDFB7A80F9F8CC
:102F4300124891ECC0E0EDC0E0EEC0E0EFC0E090CD
:102F53000111E0FEA3E024FCF582EE3401F583E4E5
:102F630093FE740193FFCBEFCBCAEECAE4F9F8D01A
:102F7300E0FFD0E0FED0E0FDD0E0FC12739B9002B6
:102F8300D7EEF0A3EFF09002D5E0FCA3E0FDCFED88
:102F9300CF900308F0ECA3F09002D7E0FCA3E0FD90
:102FA300CFEDCF90030AF0ECA3F09002D4E0FF90B2
:102FB3000307F0900000E0C43354E02411F582E4E9
:102FC3003400F58375F002EF124A46E0FEA3E0F504
:102FD300828E83740393640270240493900306B473
:102FE3000506E04401F08004E054FEF09002D4E0D2
:102FF3002401F582E43400F5837403F0801FE49028
:103003000306F09002D4E02401F582E43400F58352
:10301300E4F080099002D4E004F0022E07E4900269
:10302300DAF09002D4F09002D4E0FFC3941040038E
:10303300023209900000E0C43354E02411F582E425
:103043003400F58375F002EF124A46E0FEA3E0F583
:10305300828E83740193640760030232009001F748
:10306300E0FCA3E0FDA3E0FEA3E0FF900281E0F813
:10307300A3E0F9A3E0FAA3E0FBD31249D2403690D0
:1030830002D4E0FF25E0241BF582E43401F583E458
:10309300F0A3F074012FF582E43400F583E054FBD0
:1030A300F09002D4E02401F582E43400F583E05487
:1030B300FDF00232009002D4E0FF2401F582E434F3
:1030C30000F583E020E103023200900000E0C43306
:1030D30054E02411F582E43400F58375F002EF1215
:1030E3004A46E0FEA3E0FF2404FDE43E8D82F5831F
:1030F300E493FC7401934C700612695D0231C9902C
:1031030002D4E0FF2401F582E43400F583E0FE30CD
:10311300E21174012FF582E43400F583EE54FBF0E1
:103123000231C99001F7A3A3E0FEA3E0FF9002D40C
:10313300E025E0241BF582E43401F583E0FCA3E001
:10314300FDC3EF9DFFEE9CFE900000E0C43354E00E
:103153002411F582E43400F583C083C0829002D445
:10316300E0D082D08375F002124A46E0FCA3E0FD72
:103173002404FBE43C8B82F583E493FA740193D338
:103183009FEA9E50419002D4E0FF8D828C837402AB
:1031930093FDEF2403FF12696E9001F7A3A3E0FEF2
:1031A300A3E0FF9002D4E0FD25E0241BF582E43484
:1031B30001F583EEF0A3EFF074012DF582E4340002
:1031C300F583E04404F0900000E0C43354E024119C
:1031D300F582E43400F583C083C0829002D4E0D04A
:1031E30082D08375F002124A46E0FEA3E0F5828E98
:1031F3008374039330E0069002DAE004F09002D483
:10320300E004F00230299001F7E0FCA3E0FDA3E025
:10321300FEA3E0FF900281124A099002DAE09002D5
:10322300A3F0E4FF120066E4FF1259999002A1E0B3
:1032330070031263D69002D47401F09002D4E0FFBD
:103243002410F582E43403F583E0FE74AC2FF58299
:10325300E43402F583E06E60089002FF7401F080AD
:103263000A9002D4E004F0E0B416D09002A8E0FF84
:10327300900301E06F6002801D9002D47402F0900D
:1032830002D4E0FFC39405501D74002FF582E4348B
:1032930003F583E060089003267401F08008900230
:1032A300D4E004F080D99002D47403F09002D4E007
:1032B300FFC39407501E74052FF582E43403F5838E
:1032C300E0F460089003277401F080089002D4E0D2
:1032D30004F080D89002AAE0FF90030EE06F60062E
:1032E3009003297401F09002ABE0F4601D9002FF9B
:1032F300E07012900326E0700C900327E0700690B4
:103303000329E06005E49002A9F09002A2E0B40171
:1033130011E4900329F0900327F0900326F0900224
:10332300FFF07F0022C0E0C0F0C083C082C0D07530
:10333300D00820D903023FAFE5D9543F7003023FC1
:103343009E147003023B0A14602E24E27003023FB2
:1033530011147003023B0024F17003023B7D240E21
:103363006003023FAB75D50063D440C20CE5D4546F
:10337300FC4402F5D4023FAB20DE03023FAB63D42F
:1033830080AFDB9002CCE4F0A3EFF09002CCA3E09B
:10339300F5D590030CE030E75790057FE075F040DA
:1033A300A42400F9740635F0FAC8E9C8CCEACCCDF8
:1033B3007401CD7B017A0579007E007F401246D5EA
:1033C3009005407452F0A37444F090057FE0FF042D
:1033D300F0900542EFF090057EE0FFA3E0C39F501D
:1033E30003023AFAE4F090030CE0547FF0023AFA55
:1033F3009005407452F0900501E0900541F090056E
:1034030002E0900542F0900503E0900543F090053B
:1034130000E0B44410A3E0B44B0BA3E0B44206A312
:10342300E06443601A900500E064447052A3E064D2
:103433004C704CA3E064547046A3E0644370409026
:103443000504E0C394314037E0D3943850319005FC
:1034530001E090057EB44B0B7408F0900504E02462
:10346300D980097404F0900504E024ED90030CF076
:1034730090057FE4F090030CE04480F0023AFA9068
:103483000500E064437023A3E0B44B1EA3E0B459EA
:1034930019A3E0B45414900544E527F0900504E023
:1034A300F527900545E527023757900500E064436B
:1034B30060030235F2A3E0645260030235F2A3E035
:1034C300644B60030235F2A3E0644D60030235F2FE
:1034D300900153E0FFA3E0900544CFF0A3EFF090F9
:1034E3000155E0FFA3E0900546CFF0A3EFF0900174
:1034F30064E02401FF900163E03400FE9001A7E043
:10350300FCA3E0FDD39FEC9E4008CEECCECFEDCFE5
:103513008000900160E024FFFD90015FE034FFFC38
:10352300C3EF9DEE9C5026900164E02401FF9001BF
:1035330063E03400FE9001A7E0FCA3E0FDD39FEC21
:103543009E4008CEECCECFEDCF8010800E90016070
:10355300E024FFFF90015FE034FFFE900153EEF0A3
:10356300A3EFF0900166E02401FF900165E03400D1
:10357300FE9001A9E0FCA3E0FDD39FEC9E4008CEA2
:10358300ECCECFEDCF8000900162E024FFFD9001EF
:1035930061E034FFFCC3EF9DEE9C5026900166E092
:1035A3002401FF900165E03400FE9001A9E0FCA333
:1035B300E0FDD39FEC9E4008CEECCECFEDCF801044
:1035C300800E900162E024FFFF900161E034FFFE72
:1035D300900155EEF0A3EFF0900153E0FDA3E090CE
:1035E3000548CDF0A3EDF0A3EEF0A3EF023757901B
:1035F3000500E064436003023715A3E064526003EF
:10360300023715A3E0644B6003023715A3E0645A45
:103613006003023715900163E0FFA3E0900544CFF8
:10362300F0A3EFF090015FE0FFA3E0900546CFF039
:10363300A3EFF0900165E0FFA3E0900548CFF0A36E
:10364300EFF0900161E0FFA3E090054ACFF0A3EF14
:10365300F0900504E0FEA3E0FF900153E0FCA3E03B
:10366300FDC3EF9DEE9C400302370A900506E0FE82
:10367300A3E09DEE9C500302370AA3E0FEA3E0FF04
:10368300900155E0FCA3E0FDEF9DEE9C5079900581
:103693000AE0FEA3E09DEE9C406D900504E0FFA3CD
:1036A300E0900163CFF0A3EFF0900506E0FFA3E005
:1036B30090015FCFF0A3EFF0900508E0FFA3E09047
:1036C3000165CFF0A3EFF090050AA3E0FF9001613D
:1036D300EEF0A3EFF0A3E0FDA3E090054CCDF0A343
:1036E300EDF090015FE0FDA3E090054ECDF0A3ED7A
:1036F300F0900165E0FDA3E0900550CDF0A3EDF05F
:10370300A3EEF0A3EF804D90054C74FFF0A3F002FD
:103713003AFA900500E064437044A3E06445703EC8
:10372300A3E064437038A3E064447032A20F339083
:103733000544F0A210E433A3F0900504E024FF92C3
:103743000FA3E024FF9210A20FE433900546F0A2EA
:1037530010E433A3F090030C7432F0023AFA9005AC
:1037630000E0B44313A3E0B4450EA3E0B44309A3BC
:10377300E064467003023AFA900500E06442702860
:10378300A3E0B44623A3E0B4571EA3E0B45619C87C
:103793007444C8CC7405CCCD7401CD7BFF7A007919
:1037A3000E7E007F040239E3900500E0644260036B
:1037B300023901A3E064556003023901A3E06449BF
:1037C3006003023901A3E0644460030239019005F8
:1037D3007DF090057DE0FF25E02431F582E434039C
:1037E300F583E0FE74442FF582E43405F583EEF0AF
:1037F30090057DE02444F582E43405F583E0C39429
:1038030030402790057DE02444F582E43405F583B8
:10381300E0D39439501490057DE02444F582E434D8
:1038230005F583E024D0F00238AE90057DE0244412
:10383300F582E43405F583E0C39461402690057D69
:10384300E02444F582E43405F583E0D39466501311
:1038530090057DE02444F582E43405F583E024A952
:10386300F0804890057DE02444F582E43405F58337
:10387300E0C39441402690057DE02444F582E4347E
:1038830005F583E0D39446501390057DE02444F579
:1038930082E43405F583E024C9F0800F90057DE0D0
:1038A3002444F582E43405F583E4F090057DE004D7
:1038B300F0E0640C60030237D590057DE4F09005D9
:1038C3007DE0FF25E02444F582E43405F583E0C47C
:1038D30054F0FEEF25E02445F582E43405F583E05A
:1038E3004EFF90057DE02444F582E43405F583EF33
:1038F300F090057DE004F0E0B406C3023AFA9005C7
:1039030000E0644260030239B6A3E0644960030245
:1039130039B6A3E0645060030239B6A3E06454608F
:10392300030239B69001A7E0FFA3E0900544CFF06E
:10393300A3EFF09001A9E0FFA3E0900546CFF0A329
:10394300EFF0A3124A150000000090057DE4F0900B
:103953000548C083C082E0F8A3E0F9A3E0FAA3E03E
:10396300FBE8C0E0E9C0E0EAC0E0EBC0E090057D21
:10397300E0F92440F582E43401F583E0FFE4FCFD43
:10398300FEC8E9C81249F6D0E0FBD0E0FAD0E0F96E
:10399300D0E0F8EB4FFFEA4EFEE94DFDE84CFCD0DA
:1039A30082D083124A0990057DE004F0E0B4139FAE
:1039B300023AFA900500E06442702BA3E0B4472674
:1039C300A3E0B45021A3E0B44D1CC87444C8CC7424
:1039D30005CCCD7401CD7BFF7ADA79007E007F3888
:1039E3001246D5023AFA900500E06442701DA3E046
:1039F300B44418A3E0B44713A3E0B4430E7B017AA5
:103A03000579447D38127531023AFA900500E06475
:103A1300427028A3E064527022A3E0B4531DA3E0D4
:103A2300B454187E007F3C7D207B017A05794412D3
:103A33004A7F90030C7464F0023AFA900500E06444
:103A4300427028A3E064427022A3E0B44F1DA3E0B8
:103A5300B454187E007F3C7D207B017A05794412A3
:103A63004A7F90030C7465F0023AFA900500E06413
:103A7300427054A3E06443704EA3E064537048A3C0
:103A8300E064437042FE7F3C7D207B017A057944EC
:103A9300124A7F900000E02431900544F090050421
:103AA300E0C394314019E0D394385013E0900545B6
:103AB300F024CF900600F090030C7466F0803890E9
:103AC300054574FFF08030900500E0B44217A3E091
:103AD300B44212A3E0B4550DA3E0B45A0890030C0A
:103AE3007467F080129005407452F0A37449F0A3F8
:103AF300744EF0A37456F053D4FC023FAB75D3005D
:103B030063D240C20B8068AFDB9002CCE4F0A3EF3A
:103B1300F09002CCE0FEA3E0FF4E6053D3EF94029B
:103B2300EE9400504A9002CCA3E0247FF582740502
:103B33003EF583E0FF7E009002CCEEF0A3EFF07F32
:103B43000020E0027F01EF24FFB3920A9002CCE051
:103B5300FEA3E0FF7D0020E1027D01ED24FFB3928F
:103B63000DEF7F0020E2027F01EF24FFB39209E50E
:103B7300D254FC4402F5D2023FAB75DCC0AFDB90FC
:103B830002CCE4F0A3EFF09002CCE07004A3E06475
:103B9300086003023EE69004C7E0FE9004C6E07CA2
:103BA300002400FFEC3E90032CF0A3EFF09002CC36
:103BB300E4F0A3F09002CBF09004C1E090032EF068
:103BC3009004C0E05460601A90032EE01424FD407A
:103BD30003023EEC24FB24FD4003023EEC80000282
:103BE3003EE690032EE0B40B004003023EE4903B1C
:103BF300F8F8282873023EB9023DE8023EE4023E8B
:103C030038023EE4023DA5023C19023EE4023DB106
:103C1300023DD6023EEC9004C3E024FE602B146008
:103C23004224E17003023CDF24216003023D1E9025
:103C3300034B74FFF0A3747CF0A37414F09002CCD4
:103C4300E4F0A37412F0023D2490034B74FFF0A33D
:103C5300747DF0A3746BF09002CCE4F0A37449F08C
:103C6300023D249004C2E014602714603D146053A5
:103C730024036003023D1E90034B74FFF0A3747C86
:103C8300F0A37426F09002CCE4F0A37404F0023D98
:103C93002490034B74FFF0A3747CF0A37440F09062
:103CA30002CCE4F0A37424F0807790034B74FFF00C
:103CB300A3747CF0A3742AF09002CCE4F0A37416EE
:103CC300F0805E90034B7401F0A37403F0A3742F90
:103CD300F09002CCE4F0A3741AF080459004C4E0A1
:103CE300FF701990034B74FFF0A3747CF0A374640A
:103CF300F09002CCE4F0A374E5F08025EFB4011951
:103D030090034B74FFF0A3747DF0A37449F0900209
:103D1300CCE4F0A37422F0800880009002CB74FFFF
:103D2300F09002CCE0FEA3E0FFD390032DE09F9040
:103D3300032CE09E4005EEF0A3EFF090032CE0FE91
:103D4300A3E0FFC39440EE9400400C7C007D40CE82
:103D5300ECCECFEDCF80009002CCEEF0A3EFF0904D
:103D630002CCE0FEA3E0FFC874C0C8CC7404CCCD81
:103D73007401CD90034BE0FBA3E0FAA3E0F91246F4
:103D8300D59002CCE0FEA3E0FFC390032DE09FF0AB
:103D930090032CE09EF090034CEE8FF01247F90253
:103DA3003EEC9004C2E0FF90032CE4023EDE90035D
:103DB3002BE09004C0F0C390032DE0940190032CFA
:103DC300E094005003023EEC9002CCE4F0A304F034
:103DD300023EEC9004C2E090032BF07003023EEC31
:103DE300D20E023EEC9004C0E0541FFF6402703513
:103DF3009004C4E014601E1460202481600D1470CC
:103E03001EE5D454BC4402F5D4801AE5D254BC4414
:103E130002F5D2801053D273800B53D47380069073
:103E230002CB74FFF0EF700A90032AE054FEF00215
:103E33003EEC023EE69004C0E0541FFD7026900461
:103E4300C3E0FE9004C2E0FBEB64014E7014907D6E
:103E5300729330E50A90032AE04401F0023EEC023B
:103E63003EE6807FED6402704B9004C3E0FE900455
:103E7300C2E0FDED4E703B9004C5E0FE9004C4E04B
:103E8300FDEDFFEE702AEF24FE601124816017140C
:103E9300701EE5D454BF4403F5D4804DE5D4547F5C
:103EA300440CF5D48043E5D254BF4403F5D28039A2
:103EB3008031802F802D9004C1E4F09004C0F090F5
:103EC300032CE0FEA3E0FFC39402EE94009002CC27
:103ED3004008E4F0A37402F0800FEEF0A3EFF0804B
:103EE3000880009002CB74FFF09002CBE0B4FF0691
:103EF30075DCCF023FAB9002CCE0FEA3E0FF4E6047
:103F0300048FDD800375DD0075DCC0023FAB9003D9
:103F13002EE024FB606E14707A90032CE0FEA3E085
:103F2300FFC39440EE9400400C7C007D40CEECCE69
:103F3300CFEDCF80009002CCEEF0A3EFF09002CC57
:103F4300E0FEA3E0FFC874C0C8CC7404CCCD7401F8
:103F5300CD90034BE0FBA3E0FAA3E0F91246D59022
:103F630002CCE0FEA3E0FFC390032DE09FF090039B
:103F73002CE09EF090034CEE8FF01247F98FDD6337
:103F8300DC40802490032CA3E0FFE5E354804FF54D
:103F9300E3800375DD0075DC02800DAFDB9002CC9E
:103FA300E4F0A3EFF063DC80C2D9803E30D81F7504
:103FB300DC0275D20275D40275E300C2DAC2D9C23B
:103FC3000EC20BC20C90032AE4F0C2D8801C30DA74
:103FD30016C2DAE5DA90032A30E206E04402F08002
:103FE30009E054FDF0800375D8FFD0D0D082D08390
:103FF300D0F0D0E0329002DB7403F09001F7E0FCE4
:10400300A3E0FDA3E0FEA3E0FF900289E0F8A3E0B4
:10401300F9A3E0FAA3E0FBD31249D2400A90028548
:10402300124A15000000009001F7E0FCA3E0FDA395
:10403300E0FEA3E0FF900289124A099001F7E0FC39
:10404300A3E0FDA3E0FEA3E0FF900285E0F8A3E078
:10405300F9A3E0FAA3E0FBD31249D2400C9002A2E9
:104063007401F0E49002C2F022E49002A2F0900204
:10407300E0F0A3F09002A1E0FF603B900000E07548
:10408300F020A4240FF582E5F03400F58375F002E7
:10409300EF124A46E0FEA3E0FFF5828E837402939B
:1040A300FD7C00EF2403FFE43EFEEF2DFFEC3E908A
:1040B30002E0F0A3EFF09002DBE0C39416400302AA
:1040C30046049002E0E0FEA3E0FF9002A5E0FCA31B
:1040D300E0FDC39FEC9E4004E40244BB8D828C83CD
:1040E300E493FFB4EA31ED2401FBE43C8B82F583D6
:1040F300E493FE54019002C2F0EE30E1099002A66F
:10410300E024020242A69002A6E004F070069002A8
:10411300A5E004F00245F3EF64EB6003024243EDD4
:104123002401FFE43C8F82F583E493FBB4021EED8C
:104133002404FEE43C90028DF0A3CEF09002A6E0AE
:104143002404F09002A5E03400F00245F39002A0AD
:10415300E004F0700690029FE004F0ED2402FFE417
:104163003C8F82F583E493FEED2403FDE43C8D82D2
:10417300F583E493FDEDFF9002DCEEF0A3EFF0EBAB
:10418300600B9002C3E030E204540360339002A555
:10419300E0FEA3E02401FFE43E8F82F583E4937005
:1041A300079002C3E020E2189002DCE0FEA3E0FFE8
:1041B3004E601490029FE0FCA3E0C39FEC9E400777
:1041C3009002C3E04480F09002C3E0FF30E7279001
:1041D30002A6E02403F09002A5E03400F0EF547B44
:1041E3009002C3F0E490029FF0A3F074FF90028D5D
:1041F300F0A3F00245F390028DE0FEA3E0FFF4701C
:1042030002EEF460069002A5EE8030900000E075A7
:10421300F020A4240FF582E5F03400F583C083C0B9
:10422300829002A1E0D082D08375F002124A46E068
:10423300FEA3E02403FFE43E9002A5F0A3EFF022E7
:104243009002A5E0FEA3E0F5828E83E49364FE7002
:104253005B9002A5E0FCA3E0FD2401FFE43C8F8218
:10426300F583E493FEED2402FDE43C8D82F583E4C3
:1042730093FDEDFF9002E3EEF0A3EFF0E4FCFD907D
:1042830001F7E0F8A3E0F9A3E0FAA3E02FFFEA3E89
:10429300FEED39FDEC38FC900285124A099002A626
:1042A300E02403F09002A5E03400F0229002A5E0A0
:1042B300FEA3E0F5828E83E493FC64FD70619002BB
:1042C300DBE0FFD394034003024604900301E06064
:1042D300030246049002A575F0011247F985F082A6
:1042E300F583E493FD12696E9002A5E475F0011263
:1042F30047F985F082F583E493900311F09002E08F
:10430300E0FEA3E0FF9002A5E475F0011247F9FA7D
:10431300EF65F07002EE6A60030246040244BBECF0
:1043230064EC60149002A5E0FEA3E0F5828E83E4C2
:104333009364ED60030244C09002DBE0D394034036
:1043430003024604900301E060030246049002A5C1
:10435300E0FCA3E0FD2401FFE43C8F82F583E493BA
:10436300FEED2402FDE43C8D82F583E493FDEDFF35
:104373009002DCEEF0FCA3EFF0CCCCCDCD9002A507
:10438300E0FAA3E0FB2403FFE43A8F82F583E4938E
:10439300FEEB2404FBE43A8B82F583E493FBEBFF0F
:1043A3009002DEEEF0A3EFF0CFEDCFCEECCEE4FC47
:1043B300FDFB7A80F9F8124891ECC0E0EDC0E0EE25
:1043C300C0E0EFC0E0900111E0FEA3E024FAF58223
:1043D300EE3401F583E493FE740193FFCBEFCBCA74
:1043E300EECAE4F9F8D0E0FFD0E0FED0E0FDD0E083
:1043F300FC12739B9002DCEEF0A3EFF0A3E0FEA3AC
:10440300E0FFE4FCFDFB7A80F9F8124891ECC0E090
:10441300EDC0E0EEC0E0EFC0E0900111E0FEA3E0EC
:1044230024FCF582EE3401F583E493FE740193FFDB
:10443300CBEFCBCAEECAE4F9F8D0E0FFD0E0FED070
:10444300E0FDD0E0FC12739B9002DEEEF0A3EFF0F0
:104453009002DCE0FCA3E0FDCFEDCF900308F0EC8D
:10446300A3F09002DEE0FCA3E0FDCFEDCF90030AC2
:10447300F0ECA3F09002A5E0FEA3E0F5828E83E4C6
:1044830093B4ED07900306E04401F09002A6E02404
:1044930004F09002A5E03400F09002E0E0FEA3E017
:1044A300FF9002A5E475F0011247F9FCEF65F07087
:1044B30002EE6C60030246049002A1F0229002A572
:1044C300E0FEA3E0F5828E83E49364FA6003024581
:1044D300729002E27403F0F09002DBE0FC9002E2DF
:1044E300E0FFC39C502A9002A5E0FAA3E0F5828A7C
:1044F30083E493FE74102FF582E43403F583E06EB6
:1045030070069002E2F080089002E2E004F080C8B6
:104513009002E2E07003024604900301E0600302AC
:104523004604900311E060199002DBE0FF04F09071
:1045330002A5E475F0011247F985F082F58302457F
:10454300EDEC640360030246049002DBE0FF04F039
:104553009002A5E475F0011247F985F082F583E432
:1045630093FD12696E900311E04402F00245F3904B
:1045730002E27403F0F09002DBE0FC9002E2E0FF61
:10458300C39C502A9002A5E0FAA3E0F5828A83E453
:1045930093FE74102FF582E43403F583E06E700606
:1045A3009002E2F080089002E2E004F080C89002FA
:1045B300E2E0604D900301E07047900311E0701456
:1045C3009002DBE0FF04F09002A5E0FAA3E0F5829D
:1045D3008A838016ECB403299002DBE0FF04F09099
:1045E30002A5E0FCA3E0F5828C83E493FD12696EDF
:1045F3009002A6E004F070069002A5E004F00240E9
:10460300B922E709F608DFFA8046E709F208DFFA7C
:10461300803E88828C83E709F0A3DFFA8032E309C6
:10462300F608DFFA8078E309F208DFFA80708882FF
:104633008C83E309F0A3DFFA806489828A83E0A391
:10464300F608DFFA805889828A83E0A3F208DFFA4A
:10465300804C80D280FA80C680D4806980F2803317
:10466300801080A680EA809A80A880DA80E280CADF
:10467300803389828A83ECFAE493A3C8C582C8CCC9
:10468300C583CCF0A3C8C582C8CCC583CCDFE9DE23
:10469300E7800D89828A83E493A3F608DFF9ECFAB5
:1046A300A9F0EDFB2289828A83ECFAE0A3C8C582D4
:1046B300C8CCC583CCF0A3C8C582C8CCC583CCDF26
:1046C300EADEE880DB89828A83E493A3F208DFF9D8
:1046D30080CC88F0EF60010E4E60C388F0ED2402B9
:1046E300B4040050B9F582EB2402B4040050AF23A4
:1046F3002345822390465573BB010CE58229F5823D
:10470300E5833AF583E0225006E92582F8E622BBE9
:10471300FE06E92582F8E222E58229F582E5833A5D
:10472300F583E49322BB010689828A83F022500237
:10473300F722BBFE01F322F8BB010DE58229F582C6
:10474300E5833AF583E8F0225006E92582C8F6228C
:10475300BBFE05E92582C8F222EF8DF0A4A8F0CFB5
:104763008CF0A428CE8DF0A42EFE22BC000BBE003C
:1047730029EF8DF084FFADF022E4CCF875F008EF5B
:104783002FFFEE33FEEC33FCEE9DEC984005FCEE80
:104793009DFE0FD5F0E9E4CEFD22EDF8F5F0EE84B1
:1047A30020D21CFEADF075F008EF2FFFED33FD4076
:1047B30007985006D5F0F222C398FD0FD5F0EA22F0
:1047C300C2D5EC30E709B2D5E4C39DFDE49CFCEE11
:1047D30030E715B2D5E4C39FFFE49EFE12476EC3D4
:1047E300E49DFDE49CFC800312476E30D507C3E4CF
:1047F3009FFFE49EFE22C5F0F8A3E028F0C5F0F881
:10480300E582158270021583E038F022BB010A8924
:10481300828A83E0F5F0A3E022500687F009E719C6
:1048230022BBFE07E3F5F009E3192289828A83E4B8
:1048330093F5F074019322BB010789828A830247AF
:10484300F9500B09C5F027F7C5F01937F722BBFE5E
:104853000D09F8E325F0F3C5F019E338F322F889DD
:10486300828A8374019325F0C5F0F8E4933822BB60
:10487300010A89828A83F0E5F0A3F0225006F70942
:10488300A7F01922BBFE06F3E5F009F31922E88F1E
:10489300F0A4CC8BF0A42CFCE98EF0A42CFC8AF0C1
:1048A300EDA42CFCEA8EF0A4CDA8F08BF0A42DCCC3
:1048B3003825F0FDE98FF0A42CCD35F0FCEB8EF01C
:1048C300A4FEA9F0EB8FF0A4CFC5F02ECD39FEE402
:1048D3003CFCEAA42DCE35F0FDE43CFC2275F00847
:1048E300758200EF2FFFEE33FECD33CDCC33CCC535
:1048F3008233C5829BED9AEC99E58298400CF58250
:10490300EE9BFEED9AFDEC99FC0FD5F0D6E4CEFBC1
:10491300E4CDFAE4CCF9A88222B800C1B90059BAAF
:10492300002DEC8BF084CFCECDFCE5F0CBF97818DD
:10493300EF2FFFEE33FEED33FDEC33FCEB33FB10D7
:10494300D703994004EB99FB0FD8E5E4F9FA2278F1
:1049530018EF2FFFEE33FEED33FDEC33FCC933C903
:1049630010D7059BE99A4007EC9BFCE99AF90FD80D
:10497300E0E4C9FAE4CCFB2275F010EF2FFFEE332D
:10498300FEED33FDCC33CCC833C810D7079BEC9A6C
:10499300E899400AED9BFDEC9AFCE899F80FD5F0F5
:1049A300DAE4CDFBE4CCFAE4C8F922C3E49FFFE4E4
:1049B3009EFEE49DFDE49CFC22EB9FF5F0EA9E4203
:1049C300F0E99D42F0EC6480C864809845F022EBE6
:1049D3009FF5F0EA9E42F0E99D42F0E89C45F02203
:1049E300E8600FECC313FCED13FDEE13FEEF13FFB2
:1049F300D8F122E8600FEFC333FFEE33FEED33FD52
:104A0300EC33FCD8F122ECF0A3EDF0A3EEF0A3EF2E
:104A1300F022A8828583F0D083D082124A2C124AD6
:104A23002C124A2C124A2CE473E493A3C583C5F0D9
:104A3300C583C8C582C8F0A3C583C5F0C583C8C5EF
:104A430082C822A42582F582E5F03583F58322EC22
:104A53008EF0A4CCC5F0CCCDF8EFA4CEC5F02DFDDF
:104A6300E43CFCE8A42EC8C5F03DFDE43CFCEFA407
:104A7300FFE5F028FEE43DFDE43CFC22EF4E60122E
:104A8300EF60010EEDBB010B89828A83F0A3DFFC8B
:104A9300DEFA2289F05007F709DFFCA9F022BBFEFA
:104AA300FCF309DFFCA9F022BB010689828A83E0BB
:104AB300225002E722BBFE02E32289828A83E49327
:104AC30022E0FCA3E0FDA3E0FEA3E0FF22F8E0FB6D
:104AD300A3A3E0F925F0F0E582158270021583E0C7
:104AE300FA38F022EBF0A3EAF0A3E9F022D083D066
:104AF30082F8E4937012740193700DA3A393F87476
:104B03000193F5828883E4737402936860EFA3A32F
:104B1300A380DFE51024D4F582E43402F583E005B5
:104B230010229002D13007039002D4E475F00112F1
:104B33004AD0024AAB2000E97F2ED2008018EF54FE
:104B43000F2490D43440D4FF30040BEF24BFB41AA5
:104B53000050032461FFE511600215110514E514EB
:104B63007002051330070E9002D1E475F001124A6A
:104B7300D0EF0247280275B27403D2078003E4C260
:104B830007F5109002D1124AE7E4F511F513F51475
:104B9300E51160077F20124B5980F57512FFC201A2
:104BA300C200C202C203C205C206C208124B25FFDD
:104BB300700D3007057F00124B6AAF14AE1322B499
:104BC300255FC2D5C204124B25FF24D0B40A00507E
:104BD3001A75F00A781130D50508B6FF0106C6A488
:104BE30026F620D5047002D20380D924CFB41A004C
:104BF300EF5004C2E5D204024D6BD20180C6D2004D
:104C030080C0D20280BCD2D580BAD20580B47F20C6
:104C1300124B592002077401B5110040F1124B16D3
:104C2300FF124B59024B93D208D2068095124B16B2
:104C3300FB124B16FA124B16F94A4B7006793C7A63
:104C43004E7BFF20022EE511602A7E008E82758343
:104C5300001246FB60060EEE651270F0C2D5EBC083
:104C6300E0EAC0E0E9C0E0EE124DB2D0E0F9D0E0F6
:104C7300FAD0E0FB124AABFF60AAEBC0E0EAC0E067
:104C8300E9C0E0124B59D0E02401F9D0E03400FA36
:104C9300D0E0FBE5120460DCD512D980877BFF7A74
:104CA3004D79AED202809C791080027908C206C287
:104CB300088008D2D5790A8004790AC2D5E512049E
:104CC3007002F512E4FAFDFEFF124B16FC7B08207E
:104CD3000113124B16FD7B1030000A124B16FE1205
:104CE3004B16FF7B20EC3382D592D55013C3E430AF
:104CF30000069FFFE49EFEE42001039DFDE49CFC6F
:104D0300E4CBF8C201EC700CCFCECDCCE824F8F89C
:104D130070F38017C3EF33FFEE33FEED33FDEC3357
:104D2300FCEB33FB994002FB0FD8E9EB300105F8AC
:104D3300D0E0C448B201C0E00AEC4D4E4F78207B6E
:104D43000070C2EAB5120040BCC0E0124DB4D0F00E
:104D5300D0E0200104C4C0E0C4B201C0F0124B4251
:104D6300D0F0D5F0EB024B93124AF04C30534CAADF
:104D7300584C014C4BFD424CAE4F4CB6444CB649DB
:104D83004C16434CBC554CA0464CA0454CA0474E3A
:104D93005C504C052D4C092E4C2C2B4C0D234C2ACE
:104DA300204E452A4BC54800004C243F3F3F007925
:104DB3000AA2D5200314300509B910020404B90866
:104DC3000104A2D52006025001042002689202B514
:104DD30011005034C0E07F203003197F30A20272EB
:104DE300067205500F124E0BC202C206C205C2085C
:104DF3007F30800F300503E9C0E0124B59300503C3
:104E0300D0E0F9D0E0B511CC3005177F30B9100CE4
:104E1300124B597F583004077F788003B908031277
:104E23004B593002057F2D024B597F202008F87F14
:104E33002B2006F322920280CF286E756C6C29001A
:104E4300D201124B163001F8C201781130D5010896
:104E5300F6024BC52D50434958124B162403B40593
:104E6300004001E4904E5793124B4A743A124B4A56
:104E7300D203751104024CAAE4FD75F002EDA424DB
:104E830000F582E5F034DAF583E493FA740193FBD9
:104E9300ED25E0FFE433FE74632FF58274013EF5E4
:104EA30083EAF0A3EBF075F002EDA42404F582E5A8
:104EB300F034DAF583E493FA740193FBED25E0FF14
:104EC300E433FE745F2FF58274013EF583EAF0A3A9
:104ED300EBF075F002EDA42408F582E5F034DAF581
:104EE30083E493FA740193FBED25E0FFE433FE744E
:104EF300532FF58274013EF583EAF0A3EBF074635C
:104F03002FF58274013EF583E0FEA3E0C394FFEE28
:104F1300940F4015ED25E0FFE433FE74632FF58213
:104F230074013EF583E4F0A3F0ED25E0FFE433FEE6
:104F3300745F2FF58274013EF583E0FEA3E0FF4E1C
:104F43006009D3EF94FFEE940F4018ED25E0FFE4E2
:104F530033FE745F2FF58274013EF583740FF0A363
:104F630074FFF0ED25E0FFE433FE745F2FF58274E8
:104F7300013EF583E0FAA3E0FB74632FF58274012D
:104F83003EF583E0FEA3E0C39BEE9A4026ED25E0C9
:104F9300FFE433FE74632FF58274013EF583E4F07E
:104FA300A3F0745F2FF58274013EF583740FF0A3B1
:104FB30074FFF0ED25E0FFE433FE74532FF58274A4
:104FC300013EF583E0FEA3E0FF4E6009C3EF94FFCB
:104FD300EE940F4017ED25E0FFE433FE74532FF5F5
:104FE3008274013EF5837408F0A3E4F0ED25E0FF3D
:104FF300E433FE74632FF58274013EF583E0FAA374
:10500300E0FB74532FF58274013EF583E0FEA3E0C9
:10501300D39BEE9A402AED25E0FFE433FE745F2F25
:10502300F58274013EF583E0FAA3E0FB74532FF598
:105033008274013EF583E0FEA3E0C39BEE9A403603
:10504300ED25E0FFE433FE74632FF58274013EF532
:1050530083E4F0A3F074532FF58274013EF5837457
:1050630008F0A3E4F0745F2FF58274013EF58374B6
:105073000FF0A374FFF0ED25E0FFE433FE74632F1C
:10508300F58274013EF583E0FAA3E0FB74532FF538
:105093008274013EF583E0FEA3E0C39BFBEE9AFA24
:1050A300ED25E0FFE433FE745B2FF58274013EF5DA
:1050B30083EAF0A3EBF074532FF58274013EF5837A
:1050C300E0FAA3E0FB745F2FF58274013EF583E001
:1050D300FEA3E0C39BFBEE9AFAED25E0FFE433FE6B
:1050E30074572FF58274013EF583EAF0A3EBF00DBC
:1050F300ED64026003024E7D90DA10E493F527908D
:10510300DA14E493FF13920FEFC31313921022E404
:105113009002D5F0A20A33A3F0A20DE433A3F0A2C8
:1051230009E433A3F09002A3E07F0060027F0190C3
:1051330002D9EFF09002A1E07F0060027F019002AC
:10514300DAEFF0900111E0FEA3E024F9F582EE34EA
:1051530001F583E493C4540F60739002C4E0F8A391
:10516300E0F9A3E0FAA3E0FB9001F7E0FCA3E0FD84
:10517300A3E0FEA3E0C39BFFEE9AFEED99FDEC983E
:10518300C0E0EDC0E0EEC0E0EFC0E0900111E0FE52
:10519300A3E024F9F582EE3401F583E493C4540FBC
:1051A30025E02404F582E4347CF583E493FE740162
:1051B30093FFCBEFCBCAEECAE4F9F8D0E0FFD0E01F
:1051C300FED0E0FDD0E0FCD31249D250179001117C
:1051D300E0FEA3E024F9F582EE3401F583E4935471
:1051E3000FFF700890021E74FFF08046EF6043C308
:1051F300940440028037EF14FDC8EDC87E007401AB
:10520300088005C333CE33CED8F9FF90021EE0FCED
:10521300C39FEE6480F87480984012C8EDC874018F
:10522300088002C333D8FCFFC3EC9F8001E49002E3
:105233001EF0E49002D1F09002D1E0FFC39403404A
:1052430003025371E0FE900111E0FCA3E0FD24F69C
:10525300F582EC3401F583E5822EF582E43583F59E
:1052630083E493FB540F24D5F582E43402F583E001
:10527300FAEBC41313135401FBEA6BFB74D22EF540
:1052830082E43402F583EBF074D22FF582E4340226
:10529300F583E0604BED24F9F582EC3401F583E40A
:1052A30093540F703B9002D1E024D2F582E4340290
:1052B300F583C083C082E0FF9002D1E0FEED24F3CA
:1052C300F582EC3401F583E5822EF582E43583F52E
:1052D30083E493FEEF8EF0A4D082D083F002536870
:1052E3009002D1E0FBED24F3F582EC3401F583E584
:1052F300822BF582E43583F583E493FD7C009002F1
:105303001EE0F9FFC374FF9FFFE49400FE12475CA5
:1053130074D22BF582E43402F583E0FD12475CCCB2
:10532300EECCCDEFCD9002D1E0FF900111E0FAA3D6
:10533300E024F0F582EA3401F583E5822FF582E477
:105343003583F583E49389F0A42DFFEC35F0FE7CDF
:10535300007DFF12476E9002D1E024D2F582E4343F
:1053630002F583EFF09002D1E004F002523A90028A
:10537300D2E0F5A5A3E0F59AA3E0F5A422011C0071
:10538300011A00C10F011D00011B00C1104103528E
:10539300004103530041030C0041030F0041032864
:1053A300004102FF00410326004103270041032976
:1053B3000056031001000000000000000000000080
:1053C3000000000000000000000045030002000090
:1053D30000004703050310010000000042030D0411
:1053E3000041032A00C10EC10BC10CC10AC10DC18A
:1053F300094401F70000000001270254015308008B
:10540300080008000800080008000FFF0FFF000055
:1054130000004401A70800080041013B01022300EA
:10542300000228000A0225271044013C0000000066
:1054330042027FDC0050026F000000000000000009
:10544300000000000000000050025F0000000000A8
:10545300000000000000000000000050024F0001A7
:1054630002030405060708090A0B0C0D0E0F603032
:10547300021F000000000000000000000000000008
:105483000000000000000000000000000000000019
:105493000000000000000000000000000000000009
:1054A300000020302A00000000000000000000007F
:1054B30000000000000000000000000000000000E9
:1054C30000000000000000000000000000000000D9
:1054D300000000000044020E00000000440212FF1E
:1054E300FF000142021600004102180041021900A8
:1054F30041021A0041021B0041021CFF41021D0030
:1055030041021E0041000000420111F2004102A8C5
:10551300004102AA004102A3004402C400000000AB
:105523004102A1004202A5000042029F0000410285
:10553300C3004102C2004102A2004102ABFF41028B
:10554300A4004102A9004102A70044028100000017
:10555300004402850000000044028900000000426C
:10556300028DFFFF42028F000042029100004202BF
:105573009300004202950000420297000042029904
:10558300000042029B000042029D0000009002D1F5
:10559300EFF0E4A3F0EFC3940A403F9002D1E0FFA1
:1055A30094125036EF24F6FFEF25E0FEC3E4940097
:1055B300FF74F29EFE7408125F039002D2EFF09024
:1055C30002D1E024F6FF1260B19002D2E070030230
:1055D300573E9002D1E024FE803B9002D1E0FFC30E
:1055E300941E4034EF9426502FEF24E2FFEFFEE4A5
:1055F3002400FFEE34DCFE7404125F039002D2EF4A
:10560300F07F011215029002D2E0700302573E9020
:1056130002D1E024F2FD80299002D1E0B4322A12B3
:1056230067747B017A0679009002DA7401F07F00D7
:105633007EDA125F0D9002D2EFF0700302573E7DC7
:10564300187F031272C002573E9002D1E0B4641671
:105653001276721273567F647E00127644E4F5A8C4
:1056630012002E02573E9002D1E064656003025699
:10567300FB1276721273567F647E00127644E4F551
:10568300A875D8FF75E20690035274AAF0900353ED
:105693007455F07E007F407D007B017A067900120D
:1056A3004A7F90063E7480F0A374FEF07B017A0675
:1056B30079009002DA7401F0E4FFFE125F0D9002AC
:1056C300D2EFF0E4F5FFF5A5F59A75A4FF7F207EF0
:1056D30003127644E4F5FFF5A5759AFFF5A47F2040
:1056E3007E03127644E4F5FF75A5FFF59AF5A47FD2
:1056F300207E0312764480CB9002D1E06466703240
:10570300900600E0900000F0FD25E0FEC3E4940065
:10571300FF74F29E900111F0A3EFF0EDFEE424007C
:10572300FFEE34DC90027FF0A3EFF07F011215024D
:10573300800912767212735612579E9002D2E0605D
:1057430059E4F5FF75A5FFF59AF5A47F96FE127649
:1057530044E4F5A5759AFFF5A47F96FE127644E41A
:10576300F5A5F59A75A4FF7F96FE12764475A5FFFD
:10577300E4F59AF5A47F96FE127644E4F5A5759AAE
:10578300FFF5A47F96FE127644E4F5A5F59A75A479
:10579300FF7F96FE127644E4F5FF22E49002D3F0F5
:1057A300A374FFF0A3F0A3F0A37401F0439D209032
:1057B30001E3E06009900152E07003025985900112
:1057C300E2E06009900151E070030259859001E124
:1057D300E06009900150E07003025985E4F5FF127F
:1057E30068787F01126C3B1268787F02126C3B125F
:1057F30065299002D7E0251AF0E4F51BF51AE0C3FA
:1058030064809481501275A5FF7401F07F027E00BD
:10581300127644E4F5A5801B9002D7E0D36480940C
:105823008A4010759AFF740AF07F027E0012764454
:10583300E4F59AE49002D3F0FFEF6404602EEF6482
:105843000C602974402FF582E43401F583E0FE6097
:105853001274D12FF582E43401F583E070059002D0
:10586300D4EFF0EE60069002D3E004F00FEFB41033
:10587300C89002D3E07004A374FFF09002D4E0FE5A
:10588300F4606674402EF582E43401F583E07022FF
:10589300FFEF64046017EF640C601274402FF5820D
:1058A300E43401F583E060059002D4EFF00FEFB428
:1058B30010DF9002D4E0FC907E6093FE90014CE0F8
:1058C300FDEE2D9002D5F0900144E0FF600FECC394
:1058D300940850099002D5E0240CF08012EF600F79
:1058E3009002D5E024F4F080069002D574FFF09086
:1058F30002D5E0FFA3E06F70030257B2EFC3941227
:10590300504F9002D5E025E024E1F582E4347DF5A3
:1059130083E493F525740193F526AE25FFCBEFCBF6
:10592300CAEECAE4F9F89002D7E0FF3395E0FEFD32
:10593300FC12489178081249E3E47B03FAF9F81260
:10594300491C8E288F29E4FD7F01126E86D2A9801F
:10595300289002D5E0FFD394305013EF907E2F931D
:10596300F59E9002D7E0F59CC2A97D018006E4F57F
:105973009CC2A9FD7F01126E869002D5E0A3F002BE
:1059830057B2E4F59CC2A9FD7F01126E86759E2075
:10599300E490030CF022E49002E5F0EF601EE49043
:1059A300029DF090029BF090029AF0900299F09081
:1059B30002E5F090029EF090029DF022900299E0A1
:1059C300FF900111E0FCA3E024E1F582EC3401F542
:1059D30083E49325E014FE851AF0A4FDC3EF9D90A4
:1059E3000299F0E4F51AA3E0FFEE851BF0A4FEC3D1
:1059F300EF9EF0E4F51B9002E6F09002E6E0FF2450
:105A03009BF582E43402F583E0FE74992FF582E47A
:105A13003402F583E0FFD3EE6480F8EF64809840AE
:105A2300089002E57401F08018C3EE6480F8EF6417
:105A3300809850089002E57402F08005E49002E536
:105A4300F0900111E0FEA3E0F5828E83C083C08253
:105A53009002E6E0FFD082D08375F008124A46E553
:105A63008224E0F582E5833401F583E493540F1433
:105A73006003025B509002E5E0FE7003025B6C740E
:105A83009D2FF582E43402F583E060299002E6E07D
:105A9300FF249DF582E43402F583E4F0749B2FF533
:105AA30082E43402F583E0FFEE25E024FDFEC3EF3C
:105AB3009EF0025B6C9002E5E0FF900111E0FCA315
:105AC300E0F5828C83C083C0829002E6E0D082D06E
:105AD3008375F008124A46E58224E2F582E58334B1
