:080000000274E8027865323257
:07000B00027DA301060202C1
:100013000200067B017A0679009002EE7401F07FFC
:06002300007ED80265A476
:0D002B0002000775A15575A1AA43B110226E
:03003B000278C286
:1000430002341FEF4E601505A105A105A105A10509
:0D005300A105A105A1EF1F70EA1E80E722A4
:1000630002773CEF6013E4900298F0A3F0900296BD
:10007300F0A3F0900294020585900111E0FEA3E045
:1000830024D5F582EE3401F583E493FD540175F034
:1000930002A424FFFEE5F034FF9002F9F0A3CEF0B2
:1000A300EDC313540175F002A424FFFEE5F034FF01
:1000B300A3F0A3CEF0900163E0FEA3E0FF9001A8BC
:1000C300E0FCA3E0FDD39FEC9E4008CEECCECFED49
:1000D300CF8000D3900160E09F90015FE09E4020BD
:1000E300900163E0FEA3E0FF9001A8E0FCA3E0FD24
:1000F300D39FEC9E4008CEECCECFEDCF800A800894
:1001030090015FE0FEA3E0FF9001A8EEF0A3EFF003
:10011300900165E0FEA3E0FF9001AAE0FCA3E0FDEF
:10012300D39FEC9E4008CEECCECFEDCF8000D39092
:100133000162E09F900161E09E4020900165E0FE36
:10014300A3E0FF9001AAE0FCA3E0FDD39FEC9E4057
:1001530008CEECCECFEDCF800A8008900161E0FE9F
:10016300A3E0FF9001AAEEF0A3EFF0900111E0FEEF
:10017300A3E024D5F582EE3401F583E493131354FD
:100183003F20E00302030A900153E0FEA3E0FF9047
:1001930001A8E0FCA3E0FDC39FEC9E9002F9E0FE02
:1001A3005037A3E0FFEEC0E0EFC0E0900153E0FE64
:1001B300A3E0FFC3ED9FFFEC9EFE3395E0FDFCE45F
:1001C300FB7A10F9F8124A4CECC0E0EDC0E0EEC047
:1001D300E0EFC0E090015B803BA3E0FFEEC0E0EF07
:1001E300C0E0900153E0FEA3E0FF9001A8E0FCA370
:1001F300E0C39FFFEC9EFE3395E0FDFCE4FB7A1029
:10020300F9F8124A4CECC0E0EDC0E0EEC0E0EFC0FC
:10021300E0900157E0FEA3E0FFCBEFCBCAEECAE4C8
:10022300F9F8D0E0FFD0E0FED0E0FDD0E0FC127B97
:100233007BCDEFCDCCEECCD0E0FFD0E0FE12497AFF
:100243009002F9EEF0A3EFF0900155E0FEA3E0FF7A
:100253009001AAE0FCA3E0FDC39FEC9E9002FBE0AB
:10026300FE5037A3E0FFEEC0E0EFC0E0900155E0A1
:10027300FEA3E0FFC3ED9FFFEC9EFE3395E0FDFC84
:10028300E4FB7A10F9F8124A4CECC0E0EDC0E0EE62
:10029300C0E0EFC0E090015D803BA3E0FFEEC0E073
:1002A300EFC0E0900155E0FEA3E0FF9001AAE0FC5F
:1002B300A3E0C39FFFEC9EFE3395E0FDFCE4FB7AD5
:1002C30010F9F8124A4CECC0E0EDC0E0EEC0E0EFEC
:1002D300C0E0900159E0FEA3E0FFCBEFCBCAEECA2A
:1002E300E4F9F8D0E0FFD0E0FED0E0FDD0E0FC126E
:1002F3007B7BCDEFCDCCEECCD0E0FFD0E0FE12493E
:100303007A9002FB020495900153E0FEA3E0FF9074
:1003130001A8E0FCA3E0FDC39FEC9E9002FBE0FE7E
:100323005037A3E0FFEEC0E0EFC0E0900153E0FEE2
:10033300A3E0FFC3ED9FFFEC9EFE3395E0FDFCE4DD
:10034300FB7A10F9F8124A4CECC0E0EDC0E0EEC0C5
:10035300E0EFC0E090015B803BA3E0FFEEC0E0EF85
:10036300C0E0900153E0FEA3E0FF9001A8E0FCA3EE
:10037300E0C39FFFEC9EFE3395E0FDFCE4FB7A10A7
:10038300F9F8124A4CECC0E0EDC0E0EEC0E0EFC07B
:10039300E0900157E0FEA3E0FFCBEFCBCAEECAE447
:1003A300F9F8D0E0FFD0E0FED0E0FDD0E0FC127B16
:1003B3007BCDEFCDCCEECCD0E0FFD0E0FE12497A7E
:1003C3009002FBEEF0A3EFF0900155E0FEA3E0FFF7
:1003D3009001AAE0FCA3E0FDC39FEC9E9002F9E02C
:1003E300FE503EA3E0FFEEC0E0EFC0E0900155E019
:1003F300FEA3E0FFC3ED9FFFEC9EFEC3E49FFFE47B
:100403009EFE3395E0FDFCE4FB7A10F9F8124A4CAA
:10041300ECC0E0EDC0E0EEC0E0EFC0E090015D8035
:1004230042A3E0FFEEC0E0EFC0E0900155E0FEA381
:10043300E0FF9001AAE0FCA3E0C39FFFEC9EFEC394
:10044300E49FFFE49EFE3395E0FDFCE4FB7A10F9A4
:10045300F8124A4CECC0E0EDC0E0EEC0E0EFC0E0C3
:10046300900159E0FEA3E0FFCBEFCBCAEECAE4F95B
:10047300F8D0E0FFD0E0FED0E0FDD0E0FC127B7BC3
:10048300CDEFCDCCEECCD0E0FFD0E0FE12497A9098
:1004930002F9EEF0A3EFF09002FBE0FEA3E0FFD33E
:1004A3009400EE648094804002800F9002FBE0FE93
:1004B300A3E0FFC3E49FFFE49EFE9002F9E0FCA3E8
:1004C300E0FDD39400EC648094804002800F90029E
:1004D300F9E0FCA3E0FDC3E49DFDE49CFCD3ED9FA8
:1004E300EE6480F8EC64809840259002F9E0FEA366
:1004F300E0FFD39400EE6480948040028034900245
:10050300F9E0FEA3E0FFC3E49FFFE49EFE80239097
:1005130002FBE0FEA3E0FFD39400EE6480948040EE
:1005230002800F9002FBE0FEA3E0FFC3E49FFFE421
:100533009EFECAEECACBEFCB900111E0FEA3E024EE
:10054300DCF582EE3401F583E493FF7E007C007DCD
:100553001512497AC3EB9FFFEA9EFE9002FDF0A3BA
:10056300EFF0D39400EE64809480501AE490029CE0
:10057300F0A3F090029AF0A3F0900298F0A3F09009
:100583000296F0A3F022900111E0FEA3E0FF24D431
:10059300F582EE3401F583E493540F24FE700302D5
:1005A300078E147003020AC3147003020FB92403E5
:1005B3006003021501900294E07002A3E06003025D
:1005C3000798EF24DEF582EE3401F583E493701D82
:1005D300900111E0FEA3E024DFF582EE3401F58300
:1005E300E4937009900294F0A3F002071A900111AA
:1005F300E0FEA3E0FF24DEF582EE3401F583E4930D
:10060300FBEF24DFF582EE3401F583E493C39BFD16
:100613003395E0FC78039002FDE0FEA3E0CEA2E771
:1006230013CE13D8F8FF12497AEEFD3395E0FCEBB5
:1006330025E0FFE433FEED2FFFEC3E9002FDF0A337
:10064300EFF090029AE0FEA3E0FFD39400EE648003
:1006530094804002800F90029AE0FEA3E0FFC3E47F
:100663009FFFE49EFE9002FDE0FCA3E0FDD39FEE1E
:100673006480F8EC648098500A90029AECF0A3ED41
:10068300F0806B900111E0FEA3E024DDF582EE34EF
:1006930001F583E4932401FDE433FC90029AE0FE28
:1006A300A3E0FFC39002FEE09FFF9002FDE09EFEE9
:1006B3001249E1EEF0A3EFF04E701090029BE004BC
:1006C300F0701C90029AE004F080149002FDE0FEAA
:1006D300A3E0FF90029BE02FF090029AE03EF0909F
:1006E300029AE0FFA3E09002FDCFF0A3EFF09002A7
:1006F300FDE0FEA3E0FFC374649FFFE49EFE90024F
:1007030094F0A3EFF0D39400EE64809480500890AB
:100713000294E4F0A304F09002F9E0FEA3E0FFA347
:10072300E0FCA3E0FDD39FEE6480F8EC6480984086
:1007330026E49FFFE49EFED3ED9FEE6480F8EC6415
:100743008098900111E0FE4007A3E024D7020AB489
:10075300A3E024D9020AB49002F9E0FEA3E0FFC3A8
:10076300E49FFFE49EFED39002FCE09FEE6480F8DA
:100773009002FBE0648098900111E0FE4006A3E044
:1007830024DA8004A3E024D8020AB4900294E0702F
:1007930002A3E0600F900295E024FFF0900294E042
:1007A30034FFF022900111E0FEA3E0FF24DEF58286
:1007B300EE3401F583E4937017EF24DFF582EE3412
:1007C30001F583E4937009900294F0A3F00208FD0D
:1007D300900111E0FEA3E0FF24DEF582EE3401F583
:1007E30083E493FBEF24DFF582EE3401F583E49396
:1007F300C39BFD3395E0FC78039002FDE0FEA3E08C
:10080300CEA2E713CE13D8F8FF12497AEEFD339543
:10081300E0FCEB25E0FFE433FEED2FFFEC3E90021E
:10082300FDF0A3EFF090029AE0FEA3E0FFD3940063
:10083300EE648094804002800F90029AE0FEA3E071
:10084300FFC3E49FFFE49EFE9002FDE0FCA3E0FDF6
:10085300D39FEE6480F8EC648098500A90029AEC7F
:10086300F0A3EDF0806B900111E0FEA3E024DDF531
:1008730082EE3401F583E4932401FDE433FC90021A
:100883009AE0FEA3E0FFC39002FEE09FFF9002FD0B
:10089300E09EFE1249E1EEF0A3EFF04E70109002DD
:1008A3009BE004F0701C90029AE004F08014900224
:1008B300FDE0FEA3E0FF90029BE02FF090029AE0A0
:1008C3003EF090029AE0FFA3E09002FDCFF0A3EF89
:1008D300F09002FDE0FEA3E0FFC374649FFFE49E7B
:1008E300FE900294F0A3EFF0D39400EE6480948022
:1008F3005008900294E4F0A304F09002F9E0FEA300
:10090300E0FF7C007D0312497ACAEECACBEFCBA38A
:10091300E0FEA3E0FF7D0712497AD3EF9BEA6480F0
:10092300F8EE648098403C9002F9E0FEA3E0FFE417
:100933009FFFE49EFE7D0312497ACAEECACBEFCB3A
:10094300A3E0FEA3E0FF7D0712497AD3EF9BEA649D
:1009530080F8EE648098400B900111E0FEA3E02440
:10096300D780689002F9E0FEA3E0FF7C007D0312CC
:10097300497ACAEECACBEFCBA3E0FEA3E0FF7D0723
:1009830012497AC3EF9BEA6480F8EE648098504A78
:100993009002F9E0FEA3E0FFC3E49FFFE49EFE7D27
:1009A3000312497ACAEECACBEFCBA3E0FEA3E0FF62
:1009B3007D0712497AC3EF9BEA6480F8EE6480985E
:1009C3005018900111E0FEA3E024D8F582EE340123
:1009D300F583E493FD7FFF126FC19002F9E0FEA35C
:1009E300E0FF7C007D0712497ACAEECACBEFCBA3A6
:1009F300E0FEA3E0FF7D0312497AD3EF9BEA648014
:100A0300F8EE648098403C9002F9E0FEA3E0FFE436
:100A13009FFFE49EFE7D0712497ACAEECACBEFCB55
:100A2300A3E0FEA3E0FF7D0312497AC3EF9BEA64D0
:100A330080F8EE648098500B900111E0FEA3E0244F
:100A4300D9806E9002F9E0FEA3E0FF7C007D0712DF
:100A5300497ACAEECACBEFCBA3E0FEA3E0FF7D0346
:100A630012497AC3EF9BEA6480F8EE6480984003EE
:100A73000215019002F9E0FEA3E0FFC3E49FFFE447
:100A83009EFE7D0712497ACAEECACBEFCBA3E0FEE6
:100A9300A3E0FF7D0312497AD3EF9BEA6480F8EE6B
:100AA3006480985003021501900111E0FEA3E02435
:100AB300DAF582EE3401F583E493FD7FFF026FC123
:100AC300900111E0FEA3E024DFF582EE3401F5830B
:100AD300E493FB3395E0FA78039002F9E0FEA3E098
:100AE300CEA2E713CE13D8F8FFCDEBCDCCEACC12D0
:100AF300497A7804EFCEA2E713CE13D8F8FF900219
:100B0300F9EEF0A3EFF07803A3E0FEA3E0CEA2E7B3
:100B130013CE13D8F8FFCDEBCDCCEACC12497A78BB
:100B230004EFCEA2E713CE13D8F8FF9002FBEEF04A
:100B3300A3EFF090029AE0FEA3E0FFD39400EE64EB
:100B43008094804002800F90029AE0FEA3E0FFC3EE
:100B5300E49FFFE49EFE9002F9E0FCA3E0FDD39442
:100B630000EC648094804002800F9002F9E0FCA3C3
:100B7300E0FDC3E49DFDE49CFCD3ED9FEE6480F8AF
:100B8300EC6480985002802E90029AE0FEA3E0FF6E
:100B9300D39400EE648094804002800F90029AE028
:100BA300FEA3E0FFC3E49FFFE49EFED3EF9420EE99
:100BB3006480948340129002F9E0FFA3E090029ACC
:100BC300CFF0A3EFF0020CE790029AE0FEA3E0FF60
:100BD300D39400EE6480948040028007C3E49FFFB7
:100BE300E49EFECCEECCCDEFCD900111E0FAA3E074
:100BF300FB24DEF582EA3401F583E49375F00AA45D
:100C0300FFD3ED9FE5F06480F8EC648098405DEBE2
:100C130024DDF582EA3401F583E4932401FDE43312
:100C2300FC90029AE0FEA3E0FF9002F9E0FAA3E051
:100C3300FBC39FFFEA9EFE1249E19002FDEEF0A383
:100C4300EFF04E6003020CD3C3EA64809480500734
:100C53007EFF7FFF020CDBD3EB9400EA6480948079
:100C63007E0040047F0180027F00806C900111E0D0
:100C7300FEA3E024DDF582EE3401F583E49375F001
:100C83000AA42401FDE435F0FC90029AE0FEA3E0FF
:100C9300FF9002F9E0FAA3E0FBC39FFFEA9EFE1276
:100CA30049E19002FDEEF0A3EFF04E7023C3EA6436
:100CB30080948050067EFF7FFF8013D3EB9400EA7D
:100CC300648094807E0040047F0180027F0080085E
:100CD3009002FDE0FEA3E0FF90029BE02FF0900264
:100CE3009AE03EF090029CE0FEA3E0FFD39400EE76
:100CF300648094804002800F90029CE0FEA3E0FF9A
:100D0300C3E49FFFE49EFE9002FBE0FCA3E0FDD35F
:100D13009400EC648094804002800F9002FBE0FC1E
:100D2300A3E0FDC3E49DFDE49CFCD3ED9FEE648052
:100D3300F8EC6480985002802E90029CE0FEA3E0C1
:100D4300FFD39400EE648094804002800F90029C55
:100D5300E0FEA3E0FFC3E49FFFE49EFED3EF9420F5
:100D6300EE6480948340129002FBE0FFA3E09002C4
:100D73009CCFF0A3EFF0020E9390029CE0FEA3E061
:100D8300FFD39400EE6480948040028007C3E49F05
:100D9300FFE49EFECCEECCCDEFCD900111E0FAA3A3
:100DA300E0FB24DEF582EA3401F583E49375F00A6F
:100DB300A4FFD3ED9FE5F06480F8EC648098405A7B
:100DC300EB24DDF582EA3401F583E4932401FDE4A9
:100DD30033FC90029CE0FEA3E0FF9002FBE0FAA349
:100DE300E0FBC39FFFEA9EFE1249E1A3EEF0A3EFEF
:100DF300F04E6003020E7FC3EA6480948050067E47
:100E0300FF7FFF807FD3EB9400EA648094807E00B1
:100E130040047F0180027F00806A900111E0FEA3FD
:100E2300E024DDF582EE3401F583E49375F00AA442
:100E33002401FDE435F0FC90029CE0FEA3E0FF906A
:100E430002FBE0FAA3E0FBC39FFFEA9EFE1249E127
:100E5300A3EEF0A3EFF04E7023C3EA6480948050B6
:100E6300067EFF7FFF8013D3EB9400EA64809480B7
:100E73007E0040047F0180027F0080089002FDE035
:100E8300FEA3E0FF90029DE02FF090029CE03EF075
:100E930090029AE0FEA3E0FF900297E02FF0900209
:100EA30096E03EF090029CE0FEA3E0FF900299E002
:100EB3002FF0900298E03EF0900296E0FEA3E0FF50
:100EC300D39440EE64809460400280047EE07F40CF
:100ED300C3EF94C0EE6480949F5019900296E0FE95
:100EE300A3E0FF9440EE648094604002800A7EE0B9
:100EF3007F4080047E1F7FC0900296EEF0A3EFF048
:100F0300A3E0FEA3E0FFD39440EE6480946040022C
:100F130080047EE07F40C3EF94C0EE6480949F50D2
:100F230019900298E0FEA3E0FF9440EE6480946081
:100F33004002800A7EE07F4080047E1F7FC09002D3
:100F430098EEF0A3EFF0900296E0FCA3E0FD7806A4
:100F5300CEECCECEA2E713CE13D8F8900315F078DB
:100F630006900298E0FEA3E0CEA2E713CE13D8F8D2
:100F7300F404F9900316F0900315E0FF3395E0FEB7
:100F83007806EFC333CE33CED8F9FFC3ED9FFFEC22
:100F93009E900296F0A3EFF0E9FF3395E0FE78060A
:100FA300EFC333CE33CED8F9FF900299E02FF09000
:100FB3000298E03EF022900296E0FEA3E0FF90024A
:100FC300F9E0FCA3E0FDC39FFFEC9EFE7802EFCEA9
:100FD300A2E713CE13D8F8FF9002FDEEF0A3EFF0D3
:100FE3004E7023C3EC6480948050067EFF7FFF80A5
:100FF3001DD3ED9400EC648094807E0040047F0157
:1010030080027F0080089002FDE0FEA3E0FF9002D3
:1010130097E02FF0900296E03EF0900298E0FEA356
:10102300E0FF9002FBE0FCA3E0FDC39FFFEC9EFE0C
:101033007802EFCEA2E713CE13D8F8FF9002FDEEAD
:10104300F0A3EFF04E7023C3EC6480948050067ECF
:10105300FF7FFF801DD3ED9400EC648094807E00BD
:1010630040047F0180027F0080089002FDE0FEA320
:10107300E0FF900299E02FF0900298E03EF090029A
:10108300F9E0FAA3E0FBD39400EA64809480900132
:1010930011E0FE4006A3E024DA8004A3E024D9F59E
:1010A30082EE3401F583E493FF90029AE4F0A3EF18
:1010B300F0D3ED9400EC64809480900111E0FE4045
:1010C30006A3E024D78004A3E024D8F582EE3401FC
:1010D300F583E493FF90029CE4F0A3EFF090029A6F
:1010E300E0FEA3E0FFC3941EEE648094804017D318
:1010F300EF9427EE64809480500CEF25E0FFEE33ED
:10110300FEEF24C6802790029AE0FEA3E0FFC3947B
:1011130059EE648094804022D3EF9462EE6480940D
:10112300805017EF25E0FFEE33FEEF244FFFEE3440
:10113300FF90029AF0A3EFF08007E490029AF0A3E5
:10114300F090029CE0FEA3E0FFC3941EEE64809443
:10115300804017D3EF9427EE64809480500CEF25E2
:10116300E0FFEE33FEEF24C6802790029CE0FEA34F
:10117300E0FFC39459EE648094804022D3EF9462DD
:10118300EE648094805017EF25E0FFEE33FEEF24EA
:101193004FFFEE34FF90029CF0A3EFF08007E49042
:1011A300029CF0A3F0D3EB9401EA64809470400AAC
:1011B3009002F9E0FEA3E0FF80047EF07F01C3EF1D
:1011C30094FFEE6480948F50199002F9E0FEA3E03F
:1011D300FF9401EE648094704002800A7EF07F01E8
:1011E30080047E0F7FFF9002F9EEF0A3EFF0D3EDC2
:1011F3009401EC648094704008A3E0FEA3E0FF80B8
:10120300047EF07F01C3EF94FFEE6480948F501946
:101213009002FBE0FEA3E0FF9401EE648094704033
:1012230002800A7EF07F0180047E0F7FFF9002FB25
:10123300EEF0A3EFF090029AE0FEA3E0FFCBEFCB3A
:10124300CAEECAEA3395E0F9F8900296E0FEA3E00D
:10125300FFEE3395E0FDFC124A4CC8ECC8C9EDC95A
:10126300CAEECACBEFCB900111E0FEA3E024DFF579
:1012730082EE3401F583E493FFE4FCFDFE124A4C55
:10128300E47B7DFAF9F8127B7B90029AEEF0A3EFF0
:10129300F0A3E0FEA3E0FFEE3395E0FDFC124B6903
:1012A300C8ECC8C9EDC9CAEECACBEFCB900298E02F
:1012B300FEA3E0FFEE3395E0FDFC124A4CC8ECC8F8
:1012C300C9EDC9CAEECACBEFCB900111E0FEA3E092
:1012D30024DFF582EE3401F583E493FFE4FCFDFEA5
:1012E300124A4CE47B7DFAF9F8127B7B90029CEE68
:1012F300F0A3EFF0900111E0FEA3E024DDF582EE10
:101303003401F583E493FFE4FCFDFE7BFF7A7FF970
:10131300F8124A4CE47B32FAF9F8127B7B9002F91B
:10132300EEF0A3EFF0900111E0FEA3E024DEF582DE
:10133300EE3401F583E493FFE4FCFDFE7BFF7A7F4B
:10134300F9F8124A4CE47B32FAF9F8127B7B9002EB
:10135300FBEEF0A3EFF0D390029BE0940090029A8F
:10136300E06480948040479002F9E0FEA3E0FFCB65
:10137300EFCBCAEECAEA3395E0F9F890029AE0FEA1
:10138300A3E0FFEE3395E0FDFCEB2FFFEA3EFEE921
:101393003DFDE83CFCE47BFF7A7FF9F8C3124B7711
:1013A300500C9002F9747FF0A374FFF08055C39042
:1013B300029AE06480948050369002F9E0FEA3E044
:1013C300FFCBEFCBCAEECAEA3395E0F9F890029A65
:1013D300E0FEA3E0FFEE3395E0FDFCEB2FEA3EE9F0
:1013E3003DE83C335009E49002F9F0A3F0801490F7
:1013F300029AE0FEA3E0FF9002FAE02FF09002F9D8
:10140300E03EF0D390029DE0940090029CE0648063
:10141300948040479002FBE0FEA3E0FFCBEFCBCAF2
:10142300EECAEA3395E0F9F890029CE0FEA3E0FFF0
:10143300EE3395E0FDFCEB2FFFEA3EFEE93DFDE8D0
:101443003CFCE47BFF7A7FF9F8C3124B77500C9096
:1014530002FB747FF0A374FFF08056C390029CE0FC
:101463006480948050379002FBE0FEA3E0FFCBEF53
:10147300CBCAEECAEA3395E0F9F890029CE0FEA3EA
:10148300E0FFEE3395E0FDFCEB2FFFEA3EE93DE89C
:101493003C335009E49002FBF0A3F0801490029CCB
:1014A300E0FEA3E0FF9002FCE02FF09002FBE03EA1
:1014B300F09002F9E0FCA3E0FDCFEDCF90031BF029
:1014C300ECFFEFA3F09002FBE0FCA3E0FDCFEDCF38
:1014D30090031DF0ECFFEFA3F090031A7411F0904A
:1014E3000294E07002A3E07F0070027F017E00900F
:1014F3000294EEF0A3EFF025E014900315F022E43C
:101503009002F9F0A374FFF0E4F525F526EF604AA5
:101513009001FAE0FCA3E0FDA3E0FEA3E0FF90024C
:1015230012124BC49001FAE0FCA3E0FDA3E0FEA37A
:10153300E02401FFE43EFEED34FFFDEC34FFFC90BC
:101543000216124BC47E007F107D007B017A027964
:1015530074124C60E490021CF022900273E0FF547A
:1015630070600DEF20E7030225AA547FF00223CE1B
:101573009001FAA3A3A3E0FF90021DE0FEC3EF9E38
:10158300C3941450030225AAE02414F0900284E0CB
:10159300FEA3E0F5828E8374F593700374F4936075
:1015A3002EE4F52374402523F582E43401F583E02A
:1015B30060169001FAE0FCA3E0FDA3E0FEA3E0FFC8
:1015C300900216124BC480070523E523B410D5906F
:1015D300021CE0540FFFBF021D7403F09001FAE0F8
:1015E300FCA3E0FDA3E0FEA3E0FF900212124BC4B4
:1015F30090021E74FFF090021CE0540F640360031A
:1016030002172D90021AE0FEA3E0FFCBEFCBCAEE48
:10161300CA900284E0FEA3E0F5828E8374F893FE01
:1016230074F993FFEF2BFFEE3AFEE433FDE433C08E
:10163300E0EDC0E0EEC0E0EFC0E0900212E0F8A3FE
:10164300E0F9A3E0FAA3E0FB9001FAE0FCA3E0FDDC
:10165300A3E0FEA3E0C39BFBEE9AFAED99F9EC98A5
:10166300F8D0E0FFD0E0FED0E0FDD0E0FCD3124B99
:101673008D500302172D900284E0FEA3E0F5828EC5
:101683008374F493FE74F593FF4E604C7C007D0AE3
:10169300124C33ECC0E0EDC0E0EEC0E0EFC0E090F0
:1016A3000216E0F8A3E0F9A3E0FAA3E0FB9001FA45
:1016B300E0FCA3E0FDA3E0FEA3E0C39BFBEE9AFAEC
:1016C300ED99F9EC98F8D0E0FFD0E0FED0E0FDD042
:1016D300E0FCD3124B8D4052900284E0FEA3E0F570
:1016E300828E8374FB93700374FA93602E1279C213
:1016F300CCEECCCDEFCDAF8AEF6CFEEDFF90028444
:10170300E0FCA3E0F5828C8374FA93FC74FB93FDF5
:1017130012498CCEECCECFEDCF80047E007F0090BB
:10172300021AEEF0A3EFF0E4A3F090021CE0540FD2
:10173300600302190C04F09001FAE0FCA3E0FDA39E
:10174300E0FEA3E0FF900212124BC4E490021EF0ED
:10175300900284E0FEA3E0F5828E8374F193FF7020
:10176300030218E8EFD39404501B900284E0FEA315
:10177300E0F5828E8374F1931475F008A4FD74F080
:10178300932D021900900284E0FEA3E0F5828E837C
:1017930074F193B40503021906E4F524F5239002CA
:1017A30084E0FEA3E0FFF5828E8374EB932401FDB6
:1017B300E433FCC3E5239DEC6480F87480985035D2
:1017C300E523C39409502EE58224E0F582E43583B2
:1017D300F583E5822523F582E43583F583E493FFDE
:1017E300600DD39404500874082524F52480020561
:1017F30024052380A9900284E0FEA3E0F5828E8372
:1018030074F193B4060F900220E004F0C3952440D2
:101813002AE4F080261279C2AD8AEF6DFFAD247CF5
:10182300001249E18D23900220E065237007E5242F
:10183300D3940150E0900220E523F0E4F524F5234E
:10184300900284E0FEA3E0FFF5828E8374EB932481
:1018530001FDE433FCD3E5239DEC6480F8748098A8
:10186300507FE52394095079900220E0F9E524990B
:10187300403DE52324DFFDE433FCEF2DF582EE3C10
:10188300F583E493600DD394045008E92408C395C9
:1018930024F524E52324DFFFE433FE900284E0FCF7
:1018A300A3E02FF582EC3EF583E493F52380329099
:1018B3000284E0FCA3E024E0F582E43CF583E582C6
:1018C3002523F582E43583F583E493600DD39404F3
:1018D300500874082524F5248002052405230218E2
:1018E30043E523700890022174C8F0801CE523D3DC
:1018F3009404500FE5231475F008A42524900221C5
:10190300F080069002217464F090021CE0540F648E
:101913000170599001FAA3A3E0FEA3E0FFCBEFCB44
:10192300CAEECA900212A3A3E0FEA3E0FFC3EB9F9B
:10193300FFEA9EFE900284E0FCA3E0F5828C83C361
:1019430074F7939F74F6939E5022900221E064C82B
:10195300601A9001FAE0FCA3E0FDA3E0FEA3E0FF20
:10196300900212124BC490021EE004F0900221E098
:10197300FFC39420500FEF75F010A42455F974821F
:1019830035F0FA801B900221E0B4643B900285E0BD
:101993002490FF900284E03400FECAEECAC9EFC966
:1019A3007BFFEBC0E0EAC0E0E9C0E0C87423C8CC29
:1019B3007402CCCD7401CDD0E0F9D0E0FAD0E0FBD5
:1019C3007E007F101248F3900284E0FEA3E0FFCA7A
:1019D300EECAC9EFC97BFFEBC0E0EAC0E0E9C0E0B3
:1019E300C87433C8CC7402CCCD7401CDD0E0F9D027
:1019F300E0FAD0E0FB7E007F301248F3E4F5239059
:101A03000284E0FEA3E0F5828E8374F393700302F5
:101A13001B0974F29320E003021B09E52375F0030D
:101A2300A42433F582E43402F583E0C0E0E52375B2
:101A3300F003A42434F582E43402F583E0C0E0E546
:101A43002375F003A42435F582E43402F583E0C062
:101A5300E0E52375F003A4FFAEF02433F974023EEE
:101A6300FA7B01EBC0E0EAC0E0E9C0E074342FF98F
:101A730074023EFAEBC0E0EAC0E0E9C0E074352F3F
:101A8300F974023EFA90030FEBF0A3EAF0A3E9F036
:101A9300D0E0F9D0E0FAD0E090030CF0A3EAF0A391
:101AA300E9F0D0E0F9D0E0FAD0E0FB900309F0A32D
:101AB300EAF0A3E9F0900284E0FEA3E0F5828E83CE
:101AC30074F393FFCBEFCBE4FAF9F89001FAE0FC5F
:101AD300A3E0FDA3E0FEA3E0FF124AD7E47BEA7A8A
:101AE30003F9F8124AD7CCE8CCCDE9CDCEEACECF74
:101AF300EBCF900307EEF0A3EFF0D0E0FBD0E0FDD7
:101B0300D0E0FF1254DF900221E064C86003021D9D
:101B130082900284E0FEA3E0F5828E8374F79370D3
:101B23000374F6937003021D829001FAA3A3E0FEEF
:101B3300A3E0FFCBEFCBCAEECA900212A3A3E0FE51
:101B4300A3E0FFC3EB9FFBEA9EFA900284E0FEA3AF
:101B5300E0F5828E8374F693FE74F793FFD394E8D3
:101B6300EE9403400280047E037FE87C037DE81249
:101B7300498CCDEFCDCCEECCCFEBCFCEEACE124914
:101B83008C7C037DEA12498C9002FFECF0A3EDF00C
:101B9300C394F5EC940140359002FFE0FEA3E0FF0F
:101BA30074E99FF074039E9002FFF0900284E0FEBC
:101BB300A3E0F5828E8374FD9375F00384AFF07513
:101BC30025008F2690021CE04480F0802F90028431
:101BD300E0FEA3E0F5828E8374FC9375F00384AF7B
:101BE300F07525008F2690021CE0B4810FE523B425
:101BF3000F037402F0E49002FFF0A3F090021CE0E4
:101C0300540F64016007E49002FFF0A3F0E526455A
:101C130025705DF52475F003E523A42524F582E4FE
:101C230035F0F583E5822433F582E5833402F583C9
:101C3300E0FF7E009002FFE0FCA3E0FD124C33E4E2
:101C43007BF47A01F9F8124AD775F003E523A4254A
:101C530024F582E435F0F583E5822433F582E583C8
:101C63003402F583EFF00524E524B403A8021D79BB
:101C7300E526640145256003021D069002FFE0FE90
:101C8300A3E0FF7C007DFF124C33E47BF47A01F97F
:101C9300F8124AD774D52FF58274803EF583E49306
:101CA300FF9002FFE4F0A3EFF0E4F52475F003E501
:101CB30023A42524F582E435F0F583E5822433F566
:101CC30082E5833402F583E0FF7E009002FFE0FCAF
:101CD300A3E0FD12497A7C007DFF12498C75F00365
:101CE300E523A42524F582E435F0F583E582243346
:101CF300F582E5833402F583EFF00524E524B4038C
:101D0300AB80739002FFE0FEA3E024E0F582747ED3
:101D13003EF583E493FF9002FFE4F0A3EFF0E4F5D4
:101D23002475F003E523A42524F582E435F0F58337
:101D3300E5822433F582E5833402F583E0FF7E00F8
:101D43009002FFE0FCA3E0FD12497A7C007DFF12C4
:101D5300498C75F003E523A42524F582E435F0F5D9
:101D630083E5822433F582E5833402F583EFF005BE
:101D730024E524B403AB9002F97401F0021F3390FD
:101D83000221E064C87003021F3374232523F58204
:101D9300E43402F583E0FF90021EE0FEEF6E600381
:101DA300021E8D9002F904F0900284E0FEA3E0F598
:101DB300828E8374FC93FFC3741F9FF526E4940003
:101DC300F525D3E526940AE525648094804015AE75
:101DD30025AF267C007D0A12497AEF24A6F526EE6C
:101DE30034FFF52574742523F582E43402F583E08A
:101DF300FFC374FF9FFFE49400FED3EF9526E52510
:101E03006480F8EE6480987474400F2523F582E4AF
:101E13003402F583E02526F0800C2523F582E43493
:101E230002F58374FFF0E4F52475F003E523A4259C
:101E330024F582E435F0F583E5822433F582E583E6
:101E43003402F583E0FF7E0074742523F582E434C5
:101E530002F583E09080D593FD7C0012497A7DFFE3
:101E630012498C75F003E523A42524F582E435F0AB
:101E7300F583E5822433F582E5833402F583EFF0BD
:101E83000524E524B403A2021F33900284E0FEA3D9
:101E9300E0F5828E8374FD932401FDE433FC7474B6
:101EA3002523F582E43402F583E0FBFF7E0012492B
:101EB300E18E258F26EB600BE52645257005F5257C
:101EC30075260174742523F582E43402F583E0C397
:101ED3009526F0E4F52475F003E523A42524F58283
:101EE300E435F0F583E5822433F582E5833402F5A6
:101EF30083E0FF7E0074742523F582E43402F583C6
:101F0300E0FD7C0012497A7DFF12498C75F003E5F0
:101F130023A42524F582E435F0F583E5822433F503
:101F230082E5833402F583EFF00524E524B403A6A8
:101F330074402523F582E43401F583E0607990024F
:101F430084E0FCA3E02523F582E43CF583746093ED
:101F53002401FDE433FC74632523F582E43402F5A4
:101F630083E0FBFFC374FF9FFFE49400FE1249E18B
:101F73008E258F26C374FF9B600BE52645257005D0
:101F8300F52575260174632523F582E43402F58370
:101F9300E02526F0900284E0FCA3E02523F582E40B
:101FA3003CF583748093FF9002FAE0D39F500302C1
:101FB300205EEFF002205E900284E0FCA3E0252384
:101FC300F582E43CF5837470932401FDE433FC74DF
:101FD300632523F582E43402F583E0FBFF7E0012E0
:101FE30049E18E258F26EB600BE52645257005F527
:101FF3002575260174632523F582E43402F583E015
:10200300C39526F0E4F52475F003E523A42524F510
:1020130082E435F0F583E5822433F582E5833402E7
:10202300F583E0FF90021FE0FEEF8EF0A4FFAEF019
:102033007C007DFF12498C75F003E523A42524F56C
:1020430082E435F0F583E5822433F582E5833402B7
:10205300F583EFF00524E524B403AC900284E0FC9F
:10206300A3E0FDF5828C8374F393FE70030221B524
:1020730074F29320E1030221B5900284A3E0F58278
:102083008C8375F003E523124C01743093C0E08D0B
:10209300828C8375F003E523124C01743193C0E005
:1020A300900284A3E0F5828C8375F003E523124C40
:1020B30001743293FBC0E0CBEECBE4FAF9F8900164
:1020C300FAE0FCA3E0FDA3E0FEA3E0FF124AD7E49D
:1020D3007BEA7A03F9F8124AD7CCE8CCCDE9CDCE26
:1020E300EACECFEBCF900307EEF0A3EFF0A374019A
:1020F300F0A37403F0A37401F0A37401F0A37403B9
:10210300F0A37402F0A37401F0A37403F0A37403A7
:10211300F0D0E0FBD0E0FDD0E0FF1254DF900301EC
:10212300E0FFE52375F003A42433F582E43402F5DC
:1021330083E0FDC3EF9DFFE49400FE74632523F564
:1021430082E43402F583E0FD7C0012497A7DFF12BC
:1021530049E1E52375F003A42433F582E43402F561
:1021630083E02FF0900302E0FFE52375F003A4243E
:1021730034F582E43402F583E0FDC3EF9DFFE4947C
:1021830000FE74632523F582E43402F583E0FD7CCD
:102193000012497A7DFF1249E1E52375F003A42477
:1021A30034F582E43402F583E02FF0900303E00278
:1021B3002277900284E0FAA3E0FBF5828A8375F02C
:1021C30003E523124C01743093FFE52375F003A458
:1021D3002433F582E43402F583E0FDC3EF9DFFE48D
:1021E3009400FE74632523F582E43402F583E0FD55
:1021F3007C0012497A7DFF1249E1E52375F003A4BF
:102203002433F582E43402F583E02FF08B828A8352
:1022130075F003E523124C01743193FFE52375F048
:1022230003A42434F582E43402F583E0FDC3EF9D77
:10223300FFE49400FE74632523F582E43402F583FE
:10224300E0FD7C0012497A7DFF1249E1E52375F038
:1022530003A42434F582E43402F583E02FF09002E2
:1022630084E0FEA3E0F5828E8375F003E523124C30
:1022730001743293FFE52375F003A42435F582E45A
:102283003402F583E0FDC3EF9DFFE49400FE746325
:102293002523F582E43402F583E0FD7C0012497ABC
:1022A3007DFF1249E1E52375F003A42435F582E4AB
:1022B3003402F583E02FF00523E523C39410500384
:1022C300021A029002F9E0700A90021CE0540F64B3
:1022D300016037900284E0FEA3E0F5828E8374F5FB
:1022E30093700374F49360289001FAE0FCA3E0FD7B
:1022F300A3E0FEA3E0FF900216E0F8A3E0F9A3E059
:10230300FAA3E0FBC3124B8D700690021C7402F01B
:1023130090021FE0FB9002FAE0FAD39B4067900221
:1023230084E0FEA3E0F5828E8374FE93FF741F9F07
:10233300F526E49400F525D3E526940AE525648083
:1023430094804015AE25AF267C007D0A12497AEFB2
:1023530024A6F526EE34FFF525EBFFEAC39FFFE441
:102363009400FED3EF9526E5256480F8EE6480980B
:10237300400990021FE02526F080509002FAE09079
:10238300021FF0804690021FE0FF9002FAE0FEC3B6
:102393009F5038EEFDC3EF9DFFE49400FE9002844E
:1023A300E0FCA3E0F5828C8374FF932401FDE43306
:1023B300FC1249E18E258F26E52645257005F52576
:1023C30075260190021FE0C39526F0900111E0FEEF
:1023D300A3E024FEF582EE3401F583E493FF705EFF
:1023E300F523E52375F003A42433F582E43402F5E1
:1023F30083E0FEE52375F003A42433F8EEF6E5232A
:1024030075F003A42434F582E43402F583E0FEE599
:102413002375F003A42432F8EEF6E52375F003A444
:102423002435F582E43402F583E0FEE52375F003F9
:10243300A42434F8EEF60523E523B410A522EF64B3
:1024430003706AF523E52390869F9375F003A42414
:1024530033F582E43402F583E0FFE52375F003A44A
:102463002433F8EFF6E52390869F9375F003A424B5
:1024730034F582E43402F583E0FFE52375F003A429
:102483002432F8EFF6E52390869F9375F003A42496
:1024930035F582E43402F583E0FFE52375F003A408
:1024A3002434F8EFF60523E523B4109922900111A3
:1024B300E0FEA3E024FEF582EE3401F583E493FF0E
:1024C30064027075F523C37410952375F003A42477
:1024D30033F582E43402F583E0FEE52375F003A4CB
:1024E3002433F8EEF6E523FDC374109DFDE4940058
:1024F300FC90023475F003ED124C01EC75F003A46B
:102503002583F583E0FEE52375F003A42432F8EE7A
:10251300F690023575F003ED124C01EC75F003A44F
:102523002583F583E0FEE52375F003A42434F8EE58
:10253300F60523E523B4108E22EF64017069F523B9
:10254300E52390868F9375F003A42433F582E43456
:1025530002F583E0FFE52375F003A42433F8EFF6D7
:10256300E52390868F9375F003A42434F582E43435
:1025730002F583E0FFE52375F003A42432F8EFF6B8
:10258300E52390868F9375F003A42435F582E43414
:1025930002F583E0FFE52375F003A42434F8EFF696
:1025A3000523E523B4109922E49002E5F0A3F0A3F8
:1025B300F0A3F0900322F090033DF090033BF090E2
:1025C300033AF0900312F0C874C1C8CC7402CCCDA6
:1025D3007401CD7B017A037925FE7F151248F37EC2
:1025E300007F157D007B017A037925124C609003EF
:1025F30014E09002B8F07E007F047D007B017A0333
:102603007914124C609003197410F07E007F047DDE
:10261300FF7B017A03791B124C60900321E0900247
:10262300BCF0E4900321F090033FE054019002B327
:10263300F0E4900340F090033FF0900000E0C433D7
:1026430054E02411F582E43400F583E0FEA3E04E68
:1026530070037FFF229002B0E0604824D3F582E448
:102663003401F583E060229002B0E0243FF582E478
:102673003401F583E070129002D7E054036003E065
:1026830014F09002D7E04404F09002D6E07F00708B
:10269300027F019002D6EFF070030232F912421664
:1026A3000232F9E49002E8F09002E8E0FFC39410EC
:1026B300400302276774402FF582E43401F583E079
:1026C300700302275E900000E0C43354E02411F548
:1026D30082E43400F583C083C0829002E8E0D082B4
:1026E300D08375F002124C01E0FCA3E0F5828C83E9
:1026F300740193FEB4010E9002BFE0FDEF6D60051F
:102703009002E58053EEB402119002BFE0FF900205
:10271300E8E06F60059002E6803E900000E0C4337D
:1027230054E02411F582E43400F583C083C0829021
:1027330002E8E0FFD082D08375F002124C01E0FC86
:10274300A3E0F5828C83740193B4070F9002BFE07A
:10275300FEEF6E60069002E7E004F09002E8E0040A
:10276300F00226ABE49002E8F09002E8E0FFC394A5
:10277300104003022ED69002BFE0FEEF6E7056901B
:1027830002E8E02440F582E43401F583E0600302CB
:102793002ECD74D42FF582E43401F583E060030277
:1027A3002ECD9002B4E004F0E0D3940A5003022E3D
:1027B300CDE4F09002E8E02403FF9002BAE0FD12BA
:1027C3006FC19002B7E0FF7D0212732B9002BF74BA
:1027D300FFF0022ECD9002E8E0FF2440F582E434BE
:1027E30001F583E07003022D00900000E0C4335430
:1027F300E02411F582E43400F58375F002EF124C06
:1028030001E0FEA3E0FFF5828E83740193B4010619
:10281300126FB0022ECD900000E0C43354E02411B7
:10282300F582E43400F583C083C0829002E8E0D0EF
:1028330082D08375F002124C01E0FEA3E0FFF58223
:102843008E8374019364027040126FB0900325E08D
:10285300FF900000E0C43354E02411F582E4340017
:10286300F583C083C0829002E8E0D082D08375F004
:1028730002124C01E0FCA3E0F5828C83740393FE07
:10288300EF4E900325F0022ECD900000E0C43354A8
:10289300E02411F582E43400F583C083C082900202
:1028A300E8E0FFD082D08375F002124C01E0FCA374
:1028B300E0FDF5828C83740193640370559002E507
:1028C300E06003022ECDA3E06003022ECDA3E060FF
:1028D30003022ECD74D42FF582E43401F583E06036
:1028E30003022ECD9002E8E0049002B0F0ED240341
:1028F300FEE43C9002B5F0A3CEF0E49002AEF0A368
:10290300F09002D77402F09002D614F0124216022D
:102913002ECD900000E0C43354E02411F582E4345A
:1029230000F583C083C0829002E8E0D082D0837533
:10293300F002124C01E0FEA3E0F5828E8374019352
:10294300FF64046008EF64056003022ADD9002E877
:10295300E0FF24D4F582E43401F583E0700D7401C3
:102963002FF582E43400F5837402F0900000E0C494
:102973003354E02411F582E43400F583C083C0822C
:102983009002E8E0D082D08375F002124C01E0FEA1
:10299300A3E02402FFE43E8F82F583E493FE7401F7
:1029A30093FFE4FCFDFB7A80F9F8124A4CECC0E09B
:1029B300EDC0E0EEC0E0EFC0E0900111E0FEA3E067
:1029C30024FAF582EE3401F583E493FE740193FF58
:1029D300CBEFCBCAEECAE4F9F8D0E0FFD0E0FED0EB
:1029E300E0FDD0E0FC127B7B9002E9EEF0A3EFF078
:1029F300900000E0C43354E02411F582E43400F580
:102A030083C083C0829002E8E0D082D08375F00255
:102A1300124C01E0FEA3E02404FFE43E8F82F58321
:102A2300E493FE740193FFE4FCFDFB7A80F9F81252
:102A33004A4CECC0E0EDC0E0EEC0E0EFC0E0900136
:102A430011E0FEA3E024FCF582EE3401F583E49368
:102A5300FE740193FFCBEFCBCAEECAE4F9F8D0E0E2
:102A6300FFD0E0FED0E0FDD0E0FC127B7B9002EBD8
:102A7300EEF0A3EFF09002E9E0FCA3E0FDCFEDCF91
:102A830090031BF0ECA3F09002EBE0FCA3E0FDCF7E
:102A9300EDCF90031DF0ECA3F0900000E0C433549D
:102AA300E02411F582E43400F583C083C0829002F0
:102AB300E8E0FFD082D08375F002124C01E0FCA362
:102AC300E0F5828C83740193B40507900319E04405
:102AD30001F090031AEFF0022ECD900000E0C43312
:102AE30054E02411F582E43400F583C083C082905E
:102AF30002E8E0FFD082D08375F002124C01E0FCC3
:102B0300A3E0F5828C8374019364066003022BE7D0
:102B130074039320E703022ECD9002BFE0F4600319
:102B2300022ECD74D42FF582E43401F583E06003E3
:102B3300022ECD900000E0C43354E02411F582E46A
:102B43003400F583C083C0829002E8E0D082D08352
:102B530075F002124C01E0FCA3E0FDF5828C837456
:102B630002939002BAF0900000E0FF049002B7F0E5
:102B730074132FF582E43401F583E09002EDF08DB8
:102B8300828C83740393FF7D0112732B900000E00A
:102B93002413F582E43401F583E02404FF9002ED6D
:102BA300E0FEC3EF9E5403FF70069002E8E0802D21
:102BB300EFB4010A9002E8E090868F93801FEFB490
:102BC300020B9002E8E0FFC374109F8010EF6403D0
:102BD3006003022ED69002E8E090869F939002BF96
:102BE300F0022ED6900000E0C43354E02411F582A5
:102BF300E43400F583C083C0829002E8E0FFD08212
:102C0300D08375F002124C01E0FCA3E0FDF5828C49
:102C130083740193F96407703274D42FF582E4341A
:102C230001F583E06003022ECD8D828C83740393C0
:102C330030E003022ECD9002E8E02401F582E43473
:102C430000F583E04402F0EF022DF9E96409600323
:102C5300022ECD9002BDE0FF900000E0C43354E0AB
:102C63002411F582E43400F583C083C0829002E826
:102C7300E0FED082D08375F002124C01E0FCA3E0A9
:102C8300F5828C837402935403FDC8EDC874010864
:102C93008002C333D8FC4F9002BDF074D42EF5826A
:102CA300E43401F583E06003022ECD900000E0C41C
:102CB3003354E02411F582E43400F583C083C082E9
:102CC3009002E8E0D082D08375F002124C01E0FE5E
:102CD300A3E0F5828E83740293C4540F9002BEF076
:102CE3009002BDE0FFED2404FEC8EEC87401088025
:102CF30002C333D8FC4F9002BDF0022ECD9002E800
:102D0300E0FF24D4F582E43401F583E0FE7003028E
:102D13002ECD900000E0C43354E02411F582E43456
:102D230000F58375F002EF124C01E0FCA3E0F5829D
:102D33008C83740193FFB40519EE7003022ECD90BA
:102D430002E8E02401F582E43400F5837401F00223
:102D53002ECDEF64067043900000E0C43354E024AA
:102D630011F582E43400F583C083C0829002E8E069
:102D7300D082D08375F002124C01E0FEA3E0F5820D
:102D83008E83740393FF30E703022ECD9002BF744A
:102D9300FFF0E4FD12732B022ECD900000E0C4334C
:102DA30054E02411F582E43400F583C083C082909B
:102DB30002E8E0FFD082D08375F002124C01E0FC00
:102DC300A3E0F5828C83740193FE6407704E740351
:102DD3009330E03474012FF582E43400F583E0FF8F
:102DE30020E1259002E8E0FD2401F582E43400F5BA
:102DF30083EF4402F0ED25E0241BF582E43401F572
:102E030083E4F0A3F0022ECD9002E8E02401F582E2
:102E1300E43400F583E054FDF0022ECDEEB4080354
:102E23007F0122900000E0C43354E02411F582E4D2
:102E33003400F583C083C0829002E8E0D082D0835F
:102E430075F002124C01E0FEA3E0F5828E8374015B
:102E530093640970757402935403D39401403990B9
:102E630002BDE04480F0900000E0C43354E024113C
:102E7300F582E43400F583C083C0829002E8E0D099
:102E830082D08375F002124C01E0FEA3E0F5828E3E
:102E9300837404939002B9F0900000E0C43354E0CB
:102EA3002411F582E43400F583C083C0829002E8E4
:102EB300E0D082D08375F002124C01E0FEA3E0F56E
:102EC300828E837403939002BBF09002E8E004F0D7
:102ED30002276CE49002E8F09002E8E0FFC394104C
:102EE30040030230F4900000E0C43354E02411F5B1
:102EF30082E43400F58375F002EF124C01E0FEA387
:102F0300E0F5828E83740193FF64046008EF640527
:102F130060030230EB900000E0C43354E02411F569
:102F230082E43400F583C083C0829002E8E0D0825B
:102F3300D08375F002124C01E0FEA3E0F5828E838C
:102F4300740393FF64016008EF640260030230EBD3
:102F5300900000E0C43354E02411F582E43400F51A
:102F630083C083C0829002E8E0D082D08375F002F0
:102F7300124C01E0FEA3E02402FFE43E8F82F583BE
:102F8300E493FE740193FFE4FCFDFB7A80F9F812ED
:102F93004A4CECC0E0EDC0E0EEC0E0EFC0E09001D1
:102FA30011E0FEA3E024FAF582EE3401F583E49305
:102FB300FE740193FFCBEFCBCAEECAE4F9F8D0E07D
:102FC300FFD0E0FED0E0FDD0E0FC127B7B9002E975
:102FD300EEF0A3EFF0900000E0C43354E02411F5C9
:102FE30082E43400F583C083C0829002E8E0D0829B
:102FF300D08375F002124C01E0FEA3E02404FFE449
:103003003E8F82F583E493FE740193FFE4FCFDFBA2
:103013007A80F9F8124A4CECC0E0EDC0E0EEC0E073
:10302300EFC0E0900111E0FEA3E024FCF582EE3452
:1030330001F583E493FE740193FFCBEFCBCAEECA91
:10304300E4F9F8D0E0FFD0E0FED0E0FDD0E0FC12E0
:103053007B7B9002EBEEF0A3EFF09002E9E0FCA3A0
:10306300E0FDCFEDCF90031BF0ECA3F09002EBE07B
:10307300FCA3E0FDCFEDCF90031DF0ECA3F0900295
:10308300E8E0FF90031AF0900000E0C43354E0241A
:1030930011F582E43400F58375F002EF124C01E080
:1030A300FEA3E0F5828E8374039364027024049379
:1030B300900319B40506E04401F08004E054FEF0E7
:1030C3009002E8E02401F582E43400F5837403F010
:1030D300801FE4900319F09002E8E02401F582E4F4
:1030E3003400F583E4F080099002E8E004F0022E56
:1030F300DBE49002EEF09002E8F09002E8E0FFC318
:10310300941040030232DD900000E0C43354E02405
:1031130011F582E43400F58375F002EF124C01E0FF
:10312300FEA3E0F5828E8374019364076003023289
:10313300D49001FAE0FCA3E0FDA3E0FEA3E0FF903E
:103143000286E0F8A3E0F9A3E0FAA3E0FBD3124B75
:103153008D40369002E8E0FF25E0241BF582E4343D
:1031630001F583E4F0A3F074012FF582E43400F554
:1031730083E054FBF09002E8E02401F582E434009C
:10318300F583E054FDF00232D49002E8E0FF24011D
:10319300F582E43400F583E020E1030232D49000A9
:1031A30000E0C43354E02411F582E43400F5837560
:1031B300F002EF124C01E0FEA3E0FF2404FDE43E25
:1031C3008D82F583E493FC7401934C7006126FB007
:1031D30002329D9002E8E0FF2401F582E43400F519
:1031E30083E0FE30E21174012FF582E43400F583AD
:1031F300EE54FBF002329D9001FAA3A3E0FEA3E09C
:10320300FF9002E8E025E0241BF582E43401F58316
:10321300E0FCA3E0FDC3EF9DFFEE9CFE900000E009
:10322300C43354E02411F582E43400F583C083C031
:10323300829002E8E0D082D08375F002124C01E064
:10324300FCA3E0FD2404FBE43C8B82F583E493FAC6
:10325300740193D39FEA9E50419002E8E0FF8D8270
:103263008C83740293FDEF2403FF126FC19001FA64
:10327300A3A3E0FEA3E0FF9002E8E0FD25E0241B0A
:10328300F582E43401F583EEF0A3EFF074012DF53C
:1032930082E43400F583E04404F0900000E0C4339A
:1032A30054E02411F582E43400F583C083C0829096
:1032B30002E8E0D082D08375F002124C01E0FEA355
:1032C300E0F5828E8374039330E0069002EEE0040F
:1032D300F09002E8E004F00230FD9001FAE0FCA374
:1032E300E0FDA3E0FEA3E0FF900286124BC4900230
:1032F300EEE09002B2F0126A4FE4FF120066E4FFC0
:10330300124CD19002B0E070031268EC9002E874A2
:1033130001F09002E8E0FF2424F582E43403F5830E
:10332300E0FE74C02FF582E43402F583E06E60089A
:103333009003127401F0800A9002E8E004F0E0B414
:1033430016D09002B8E0FF900314E06F6002801D76
:103353009002E87402F09002E8E0FFC39405501D68
:1033630074132FF582E43403F583E0600890033A85
:103373007401F080089002E8E004F080D99002E83C
:103383007403F09002E8E0FFC39407501E74182FF3
:10339300F582E43403F583E0F4600890033B7401A1
:1033A300F080089002E8E004F080D89002BCE0FFCF
:1033B300900321E06F600690033D7401F09002B327
:1033C300E0FF90033FE06F7004A3E06006900322E8
:1033D3007401F09002BFE0F46023900312E07018D0
:1033E30090033AE0701290033BE0700C90033DE0D1
:1033F3007006900322E06005E49002BAF09002B1F7
:10340300E0B40115E4900322F090033DF090033BF8
:10341300F090033AF0900312F07F0022C0E0C0F076
:10342300C083C082C0D075D00820D9030241CAE549
:10343300D9543F124C0D41B9003CE00134FC023435
:103443006B03412C203CD62134E9223458233D53CD
:1034530030000041C675D70063D640C20DE5D6548F
:10346300FC4402F5D60241C620DE030241C663D600
:1034730080AFDB9002E0E4F0A3EFF09002E0A3E082
:10348300F5D7900580E064A560030241C6A3E0641C
:103493005A60030241C6A3E0640360030241C6A36A
:1034A300E07025900273E0540F44A0F0C87433C851
:1034B300CC7402CCCD7401CD7B017A0579847E0076
:1034C3007F301248F30241C6900583E0FF64017028
:1034D300030241C6EF640260030241C6900273E037
:1034E300540FF00241C675D50063D440C20CE5D435
:1034F30054FC4402F5D40241C620DE030241C663F4
:10350300D480AFDB9002E0E4F0A3EFF09002E0A3FD
:10351300E0F5D590031FE030E75790057FE075F0A5
:1035230040A42400F9740635F0FAC8E9C8CCEACC03
:10353300CD7401CD7B017A0579007E007F4012486E
:10354300F39005407452F0A37444F090057FE0FFBC
:1035530004F0900542EFF090057EE0FFA3E0C39FE7
:103563005003023CD0E4F090031FE0547FF0023C90
:10357300D09005407452F0900501E0900541F09021
:103583000502E0900542F0900503E0900543F090BA
:103593000500E0B44410A3E0B44B0BA3E0B442062F
:1035A300A3E06443601A900500E064447052A3E012
:1035B300644C704CA3E064547046A3E064437040D1
:1035C300900504E0C394314037E0D39438503190F0
:1035D3000501E090057EB44B0B7408F0900504E000
:1035E30024D980097404F0900504E024ED90031FAE
:1035F300F090057FE4F090031FE04480F0023CD09C
:10360300900500E064437023A3E0B44B1EA3E0B431
:103613005919A3E0B45414900544E514F09005043B
:10362300E0F514900545E5140238D8900500E064F0
:10363300436003023773A3E064526003023773A34A
:10364300E0644B6003023773A3E0644D6003023709
:1036530073900153E0FFA3E0900544CFF0A3EFF094
:10366300900155E0FFA3E0900546CFF0A3EFF09063
:103673000164E02401FF900163E03400FE9001A89F
:10368300E0FCA3E0FDD39FEC9E4008CEECCECFED53
:10369300CF8000900160E024FFFD90015FE034FFE4
:1036A300FCC3EF9DEE9C5026900164E02401FF9043
:1036B3000163E03400FE9001A8E0FCA3E0FDD39F8A
:1036C300EC9E4008CEECCECFEDCF8010800E900163
:1036D30060E024FFFF90015FE034FFFE900153EEB2
:1036E300F0A3EFF0900166E02401FF900165E03460
:1036F30000FE9001AAE0FCA3E0FDD39FEC9E4008EE
:10370300CEECCECFEDCF8000900162E024FFFD90A0
:103713000161E034FFFCC3EF9DEE9C5026900166EF
:10372300E02401FF900165E03400FE9001AAE0FC73
:10373300A3E0FDD39FEC9E4008CEECCECFEDCF802F
:1037430010800E900162E024FFFF900161E034FFDE
:10375300FE900155EEF0A3EFF0900153E0FDA3E0DE
:10376300900548CDF0A3EDF0A3EEF0A3EF0238D817
:10377300900500E064436003023896A3E06452605E
:1037830003023896A3E0644B6003023896A3E06417
:103793005A6003023896900163E0FFA3E09005446A
:1037A300CFF0A3EFF090015FE0FFA3E0900546CFD9
:1037B300F0A3EFF0900165E0FFA3E0900548CFF0A0
:1037C300A3EFF0900161E0FFA3E090054ACFF0A3DF
:1037D300EFF0900504E0FEA3E0FF900153E0FCA3AB
:1037E300E0FDC3EF9DEE9C400302388B900506E09D
:1037F300FEA3E09DEE9C500302388BA3E0FEA3E002
:10380300FF900155E0FCA3E0FDEF9DEE9C50799005
:10381300050AE0FEA3E09DEE9C406D900504E0FFE9
:10382300A3E0900163CFF0A3EFF0900506E0FFA3C0
:10383300E090015FCFF0A3EFF0900508E0FFA3E075
:10384300900165CFF0A3EFF090050AA3E0FF90018C
:1038530061EEF0A3EFF0A3E0FDA3E090054CCDF003
:10386300A3EDF090015FE0FDA3E090054ECDF0A342
:10387300EDF0900165E0FDA3E0900550CDF0A3EDE0
:10388300F0A3EEF0A3EF804D90054C74FFF0A3F08E
:10389300023CD0900500E064437044A3E0644570AB
:1038A3003EA3E064437038A3E064447032A2103353
:1038B300900544F0A211E433A3F0900504E024FF43
:1038C3009210A3E024FF9211A210E433900546F076
:1038D300A211E433A3F090031F7432F0023CD090A2
:1038E3000500E0B44313A3E0B4450EA3E0B44309D9
:1038F300A3E064467003023CD0900500E06442708C
:1039030028A3E0B44623A3E0B4571EA3E0B456199A
:10391300C87444C8CC7405CCCD7401CD7BFF7A0048
:10392300790E7E007F04023B79900500E0644260DB
:1039330003023A82A3E064556003023A82A3E0647F
:10394300496003023A82A3E064446003023A82902E
:10395300057DF090057DE0FF25E02448F582E43401
:1039630003F583E0FE74442FF582E43405F583EE1A
:10397300F090057DE02444F582E43405F583E0C34B
:103983009430402790057DE02444F582E43405F526
:1039930083E0D39439501490057DE02444F582E408
:1039A3003405F583E024D0F0023A2F90057DE0241E
:1039B30044F582E43405F583E0C394614026900521
:1039C3007DE02444F582E43405F583E0D394665026
:1039D3001390057DE02444F582E43405F583E02467
:1039E300A9F0804890057DE02444F582E43405F590
:1039F30083E0C39441402690057DE02444F582E4AE
:103A03003405F583E0D39446501390057DE02444B8
:103A1300F582E43405F583E024C9F0800F90057D39
:103A2300E02444F582E43405F583E4F090057DE079
:103A330004F0E0640C600302395690057DE4F090D5
:103A4300057DE0FF25E02444F582E43405F583E0B9
:103A5300C454F0FEEF25E02445F582E43405F583F4
:103A6300E04EFF90057DE02444F582E43405F583C0
:103A7300EFF090057DE004F0E0B406C3023CD09083
:103A83000500E064426003023B4CA3E06449600329
:103A9300023B4CA3E064506003023B4CA3E064543C
:103AA3006003023B4C9001A8E0FFA3E0900544CFE4
:103AB300F0A3EFF09001AAE0FFA3E0900546CFF05A
:103AC300A3EFF0A3E4F0A3F09001ACE090054AF07B
:103AD3009001ADE090054BF0A3124BD00000000025
:103AE30090057DE4F090054CC083C082E0F8A3E02C
:103AF300F9A3E0FAA3E0FBE8C0E0E9C0E0EAC0E034
:103B0300EBC0E090057DE0F92440F582E43401F553
:103B130083E0FFE4FCFDFEC8E9C8124BB1D0E0FB33
:103B2300D0E0FAD0E0F9D0E0F8EB4FFFEA4EFEE93F
:103B33004DFDE84CFCD082D083124BC490057DE050
:103B430004F0E0B4139F023CD0900500E06442709F
:103B53002BA3E0B44726A3E0B45021A3E0B44D1C4B
:103B6300C87444C8CC7405CCCD7401CD7BFF7ADA1C
:103B730079007E007F381248F3023CD0900500E0C4
:103B83006442701DA3E0B44418A3E0B44713A3E058
:103B9300B4430E7B017A0579447D38127D76023C6D
:103BA300D0900500E064427028A3E064527022A321
:103BB300E0B4531DA3E0B454187E007F3C7D207B0A
:103BC300017A057944124C6090031F7464F0023C3F
:103BD300D0900500E064427028A3E064427022A301
:103BE300E0B44F1DA3E0B454187E007F3C7D207BDE
:103BF300017A057944124C6090031F7465F0023C0E
:103C0300D0900500E064427051A3E06443704BA37D
:103C1300E064537045A3E06443703FFE7F3C7D2026
:103C23007B017A057944124C60900000E0243190C6
:103C33000544F0900504E0C394314019E0D394386F
:103C43005013E0900545F024CF900600F090031F39
:103C53007466F08078900545805C900500E0B4427E
:103C630017A3E0B44212A3E0B4550DA3E0B45A087D
:103C730090031F7467F08055900500E06442703B29
:103C8300A3E064427035A3E06454702FA3E064564C
:103C93007029A3E0D39430501AA3E06016940A501D
:103CA30012900504E0900211F0900505E090016781
:103CB300F0801A90021174FFF08012900540745244
:103CC300F0A37449F0A3744EF0A37456F053D4FCDC
:103CD3000241C675D30063D240C20B8068AFDB904C
:103CE30002E0E4F0A3EFF09002E0E0FEA3E0FF4E79
:103CF3006053D3EF9402EE9400504A9002E0A3E0A5
:103D0300247FF58274043EF583E0FF7E009002E099
:103D1300EEF0A3EFF07F0020E0027F01EF24FFB37A
:103D2300920A9002E0E0FEA3E0FF7D0020E1027D25
:103D330001ED24FFB3920EEF7F0020E2027F01EF3B
:103D430024FFB39209E5D254FC4402F5D20241C6E2
:103D530075DCC0AFDB9002E0E4F0A3EFF09002E08B
:103D6300E07004A3E064086003024101900447E0AB
:103D7300FE900446E07C002400FFEC3E900343F0F9
:103D8300A3EFF09002E0E4F0A3F09002DFF09004E0
:103D930041E0900345F0900440E05460601A9003C2
:103DA30045E01424FD400302410724FB24FD4003A6
:103DB3000241078000024101900345E0B40B00403B
:103DC300030240FF903DCEF82828730240D4023FFF
:103DD300D30240FF0240380240FF023F90023DEF12
:103DE3000240FF023F9C023FC1024107900443E0AF
:103DF30024FE602B14604224E17003023EB62421AA
:103E03006003023F0990036274FFF0A37484F0A37C
:103E13007465F09002E0E4F0A37412F0023F0F9097
:103E2300036274FFF0A37486F0A37416F09002E0AB
:103E3300E4F0A37469F0023F0F900442E01460279A
:103E430014603E14605424036003023F099003622C
:103E530074FFF0A37484F0A37477F09002E0E4F0AD
:103E6300A37404F0023F0F90036274FFF0A3748401
:103E7300F0A37491F09002E0E4F0A37424F0023F05
:103E83000F90036274FFF0A37484F0A3747BF0902B
:103E930002E0E4F0A37416F080729003627401F000
:103EA300A37403F0A37446F09002E0E4F0A3741A41
:103EB300F08059900444E0FF701A90036274FFF09D
:103EC300A37484F0A374B5F09002E07401F0A374BA
:103ED3001DF08038EFB4010F90036274FFF0A374F8
:103EE30085F0A374D28011EFB4021990036274FFBA
:103EF300F0A37485F0A374F4F09002E0E4F0A374EB
:103F030022F0800880009002DF74FFF09002E0E06E
:103F1300FEA3E0FFD3900344E09F900343E09E4061
:103F230005EEF0A3EFF0900343E0FEA3E0FFC3949C
:103F330040EE9400400C7C007D40CEECCECFEDCF24
:103F430080009002E0EEF0A3EFF09002E0E0FEA329
:103F5300E0FFC87440C8CC7404CCCD7401CD900389
:103F630062E0FBA3E0FAA3E0F91248F39002E0E079
:103F7300FEA3E0FFC3900344E09FF0900343E09E61
:103F8300F0900363EE8FF0124A1702410790044248
:103F9300E0FF900343E40240F9900342E0900440C1
:103FA300F0C3900344E09401900343E09400500372
:103FB3000241079002E0E4F0A304F00241079004F9
:103FC30042E0900342F07003024107D20F0241071F
:103FD300900440E0541FFF6402704A900444E014CC
:103FE3006038146026146014248260241460121450
:103FF300702DE5D654BC4402F5D6802953D6738080
:1040030024E5D454BC4402F5D4801A53D4738015E8
:10401300E5D254BC4402F5D2800B53D27380069090
:1040230002DF74FFF0EF700A900341E054FEF002E8
:104033004107024101900440E0541FFD70279004A2
:1040430043E0FE900442E0FBEB64014E7014908663
:104053001D9330E50A900341E04401F00241070259
:104063004101024101ED64027065900443E0FE905A
:104073000442E0FDED4E7055900445E0FE9004448B
:10408300E0FDEDFFEE7044EF24FE602B146014247A
:1040930082602E146017147032E5D654BF4403F5C2
:1040A300D68061E5D6547F440CF5D68057E5D454C9
:1040B300BF4403F5D4804DE5D4547F440CF5D4803C
:1040C30043E5D254BF4403F5D280398031802F8039
:1040D3002D900441E4F0900440F0900343E0FEA3EC
:1040E300E0FFC39402EE94009002E04008E4F0A3E2
:1040F3007402F0800FEEF0A3EFF0800880009002CE
:10410300DF74FFF09002DFE0B4FF0675DCCF0241FD
:10411300C69002E0E0FEA3E0FF4E60048FDD800363
:1041230075DD0075DCC00241C6900345E024FB60E9
:104133006E14707A900343E0FEA3E0FFC39440EE55
:104143009400400C7C007D40CEECCECFEDCF8000C0
:104153009002E0EEF0A3EFF09002E0E0FEA3E0FFB8
:10416300C87440C8CC7404CCCD7401CD900362E014
:10417300FBA3E0FAA3E0F91248F39002E0E0FEA308
:10418300E0FFC3900344E09FF0900343E09EF09070
:104193000363EE8FF0124A178FDD63DC40802490B7
:1041A3000343A3E0FFE5E354804FF5E3800375DDAC
:1041B3000075DC02800DAFDB9002E0E4F0A3EFF0CA
:1041C30063DC80C2D9804130D82275DC0275D2020B
:1041D30075D40275D60275E300C2DAC2D9C20FC222
:1041E3000BC20C900341E4F0C2D8801C30DA16C233
:1041F300DAE5DA90034130E206E04402F08009E0B8
:1042030054FDF0800375D8FFD0D0D082D083D0F096
:10421300D0E0329002EF7403F09001FAE0FCA3E0E7
:10422300FDA3E0FEA3E0FF90028EE0F8A3E0F9A374
:10423300E0FAA3E0FBD3124B8D400A90028A124BA3
:10424300D0000000009001FAE0FCA3E0FDA3E0FE33
:10425300A3E0FF90028E124BC49001FAE0FCA3E0AE
:10426300FDA3E0FEA3E0FF90028AE0F8A3E0F9A338
:10427300E0FAA3E0FBD3124B8D400C9002B1740122
:10428300F0E49002D6F022E49002B1F09002F4F050
:10429300A3F09002B0E0FF603B900000E075F020D7
:1042A300A4240FF582E5F03400F58375F002EF12D4
:1042B3004C01E0FEA3E0FFF5828E83740293FD7C44
:1042C30000EF2403FFE43EFEEF2DFFEC3E9002F4EB
:1042D300F0A3EFF09002EFE0C394164003024822EC
:1042E3009002F4E0FEA3E0FF9002B5E0FCA3E0FD42
:1042F300C39FEC9E4004E40246D98D828C83E493F1
:10430300FFB4EA31ED2401FBE43C8B82F583E493B3
:10431300FE54019002D6F0EE30E1099002B6E0249B
:10432300020244C49002B6E004F070069002B5E0C5
:1043330004F0024811EF64EB6003024461ED2401D1
:10434300FFE43C8F82F583E493FBB4021EED240467
:10435300FEE43C900292F0A3CEF09002B6E0240477
:10436300F09002B5E03400F00248119002AFE0048F
:10437300F070069002AEE004F0ED2402FFE43C8FFF
:1043830082F583E493FEED2403FDE43C8D82F58303
:10439300E493FDEDFF9002F0EEF0A3EFF0EB600B82
:1043A3009002D7E030E204540360339002B5E0FE9C
:1043B300A3E02401FFE43E8F82F583E4937007902A
:1043C30002D7E020E2189002F0E0FEA3E0FF4E6087
:1043D300149002AEE0FCA3E0C39FEC9E4007900262
:1043E300D7E04480F09002D7E0FF30E7279002B691
:1043F300E02403F09002B5E03400F0EF547B900228
:10440300D7F0E49002AEF0A3F074FF900292F0A311
:10441300F0024811900292E0FEA3E0FFF47002EE76
:10442300F460069002B5EE8030900000E075F02055
:10443300A4240FF582E5F03400F583C083C0829095
:1044430002B0E0D082D08375F002124C01E0FEA3EB
:10445300E02403FFE43E9002B5F0A3EFF0229002C4
:10446300B5E0FEA3E0F5828E83E49364FE705B9077
:1044730002B5E0FCA3E0FD2401FFE43C8F82F58359
:10448300E493FEED2402FDE43C8D82F583E493FD89
:10449300EDFF9002F7EEF0A3EFF0E4FCFD9001FADC
:1044A300E0F8A3E0F9A3E0FAA3E02FFFEA3EFEED74
:1044B30039FDEC38FC90028A124BC49002B6E0241A
:1044C30003F09002B5E03400F0229002B5E0FEA3C1
:1044D300E0F5828E83E493FC64FD70619002EFE06B
:1044E300FFD394034003024822900314E0600302C5
:1044F30048229002B575F001124A1785F082F583C0
:10450300E493FD126FC19002B5E475F001124A17EE
:1045130085F082F583E493900325F09002F4E0FEA6
:10452300A3E0FF9002B5E475F001124A17FAEF65B4
:10453300F07002EE6A60030248220246D9EC64EC92
:1045430060149002B5E0FEA3E0F5828E83E49364E9
:10455300ED60030246DE9002EFE0D39403400302D2
:104563004822900314E060030248229002B5E0FC65
:10457300A3E0FD2401FFE43C8F82F583E493FEED89
:104583002402FDE43C8D82F583E493FDEDFF90026C
:10459300F0EEF0FCA3EFF0CCCCCDCD9002B5E0FA79
:1045A300A3E0FB2403FFE43A8F82F583E493FEEB5D
:1045B3002404FBE43A8B82F583E493FBEBFF900244
:1045C300F2EEF0A3EFF0CFEDCFCEECCEE4FCFDFBAB
:1045D3007A80F9F8124A4CECC0E0EDC0E0EEC0E09E
:1045E300EFC0E0900111E0FEA3E024FAF582EE347F
:1045F30001F583E493FE740193FFCBEFCBCAEECABC
:10460300E4F9F8D0E0FFD0E0FED0E0FDD0E0FC120A
:104613007B7B9002F0EEF0A3EFF0A3E0FEA3E0FFBC
:10462300E4FCFDFB7A80F9F8124A4CECC0E0EDC0E3
:10463300E0EEC0E0EFC0E0900111E0FEA3E024FC57
:10464300F582EE3401F583E493FE740193FFCBEF1F
:10465300CBCAEECAE4F9F8D0E0FFD0E0FED0E0FD2B
:10466300D0E0FC127B7B9002F2EEF0A3EFF090021D
:10467300F0E0FCA3E0FDCFEDCF90031BF0ECA3F043
:104683009002F2E0FCA3E0FDCFEDCF90031DF0EC30
:10469300A3F09002B5E0FEA3E0F5828E83E493B429
:1046A300ED07900319E04401F09002B6E02404F012
:1046B3009002B5E03400F09002F4E0FEA3E0FF9036
:1046C30002B5E475F001124A17FCEF65F07002EED3
:1046D3006C60030248229002B0F0229002B5E0FE23
:1046E300A3E0F5828E83E49364FA6003024790901B
:1046F30002F67403F0F09002EFE0FC9002F6E0FFA4
:10470300C39C502A9002B5E0FAA3E0F5828A83E4C1
:1047130093FE74242FF582E43403F583E06E700670
:104723009002F6F080089002F6E004F080C8900250
:10473300F6E07003024822900314E060030248226B
:10474300900325E060199002EFE0FF04F09002B5BA
:10475300E475F001124A1785F082F58302480BECE9
:10476300640360030248229002EFE0FF04F090022A
:10477300B5E475F001124A1785F082F583E493FDE1
:10478300126FC1900325E04402F00248119002F633
:104793007403F0F09002EFE0FC9002F6E0FFC39C9C
:1047A300502A9002B5E0FAA3E0F5828A83E493FEEF
:1047B30074242FF582E43403F583E06E70069002CF
:1047C300F6F080089002F6E004F080C89002F6E06C
:1047D300604D900314E07047900325E0701490023D
:1047E300EFE0FF04F09002B5E0FAA3E0F5828A83DC
:1047F3008016ECB403299002EFE0FF04F09002B5B9
:10480300E0FCA3E0F5828C83E493FD126FC1900278
:10481300B6E004F070069002B5E004F00242D7223D
:10482300E709F608DFFA8046E709F208DFFA803E77
:1048330088828C83E709F0A3DFFA8032E309F60864
:10484300DFFA8078E309F208DFFA807088828C83CC
:10485300E309F0A3DFFA806489828A83E0A3F60880
:10486300DFFA805889828A83E0A3F208DFFA804C5A
:1048730080D280FA80C680D4806980F28033801031
:1048830080A680EA809A80A880DA80E280CA80339A
:1048930089828A83ECFAE493A3C8C582C8CCC58312
:1048A300CCF0A3C8C582C8CCC583CCDFE9DEE780E2
:1048B3000D89828A83E493A3F608DFF9ECFAA9F061
:1048C300EDFB2289828A83ECFAE0A3C8C582C8CCB7
:1048D300C583CCF0A3C8C582C8CCC583CCDFEADED0
:1048E300E880DB89828A83E493A3F208DFF980CC32
:1048F30088F0EF60010E4E60C388F0ED2402B4042B
:104903000050B9F582EB2402B4040050AF232345D1
:10491300822390487373BB010CE58229F582E583FA
:104923003AF583E0225006E92582F8E622BBFE062B
:10493300E92582F8E222E58229F582E5833AF583C7
:10494300E49322BB010689828A83F0225002F72274
:10495300BBFE01F322F8BB010DE58229F582E58355
:104963003AF583E8F0225006E92582C8F622BBFE19
:1049730005E92582C8F222EF8DF0A4A8F0CF8CF0D0
:10498300A428CE8DF0A42EFE22BC000BBE0029EF7E
:104993008DF084FFADF022E4CCF875F008EF2FFF23
:1049A300EE33FEEC33FCEE9DEC984005FCEE9DFEF1
:1049B3000FD5F0E9E4CEFD22EDF8F5F0EE8420D238
:1049C3001CFEADF075F008EF2FFFED33FD400798A7
:1049D3005006D5F0F222C398FD0FD5F0EA22C2D5D6
:1049E300EC30E709B2D5E4C39DFDE49CFCEE30E76F
:1049F30015B2D5E4C39FFFE49EFE12498CC3E49D28
:104A0300FDE49CFC800312498C30D507C3E49FFF6F
:104A1300E49EFE22C5F0F8A3E028F0C5F0F8E58295
:104A2300158270021583E038F022BB010A89828A5D
:104A330083F0E5F0A3F0225006F709A7F01922BB93
:104A4300FE06F3E5F009F31922E88FF0A4CC8BF00E
:104A5300A42CFCE98EF0A42CFC8AF0EDA42CFCEA37
:104A63008EF0A4CDA8F08BF0A42DCC3825F0FDE971
:104A73008FF0A42CCD35F0FCEB8EF0A4FEA9F0EB67
:104A83008FF0A4CFC5F02ECD39FEE43CFCEAA42D73
:104A9300CE35F0FDE43CFC2275F008758200EF2F63
:104AA300FFEE33FECD33CDCC33CCC58233C5829BF1
:104AB300ED9AEC99E58298400CF582EE9BFEED9A17
:104AC300FDEC99FC0FD5F0D6E4CEFBE4CDFAE4CCB3
:104AD300F9A88222B800C1B90059BA002DEC8BF0B5
:104AE30084CFCECDFCE5F0CBF97818EF2FFFEE3372
:104AF300FEED33FDEC33FCEB33FB10D7039940049D
:104B0300EB99FB0FD8E5E4F9FA227818EF2FFFEEC3
:104B130033FEED33FDEC33FCC933C910D7059BE9F4
:104B23009A4007EC9BFCE99AF90FD8E0E4C9FAE450
:104B3300CCFB2275F010EF2FFFEE33FEED33FDCCEF
:104B430033CCC833C810D7079BEC9AE899400AEDD9
:104B53009BFDEC9AFCE899F80FD5F0DAE4CDFBE481
:104B6300CCFAE4C8F922C3E49FFFE49EFEE49DFD72
:104B7300E49CFC22EB9FF5F0EA9E42F0E99D42F0B3
:104B8300EC6480C864809845F022EB9FF5F0EA9EC0
:104B930042F0E99D42F0E89C45F022E8600FECC347
:104BA30013FCED13FDEE13FEEF13FFD8F122E860C3
:104BB3000FEFC333FFEE33FEED33FDEC33FCD8F1DF
:104BC30022ECF0A3EDF0A3EEF0A3EFF022A8828590
:104BD30083F0D083D082124BE7124BE7124BE712DC
:104BE3004BE7E473E493A3C583C5F0C583C8C582CB
:104BF300C8F0A3C583C5F0C583C8C582C822A42550
:104C030082F582E5F03583F58322D083D082F8E400
:104C1300937012740193700DA3A393F8740193F529
:104C2300828883E4737402936860EFA3A3A380DF95
:104C3300EC8EF0A4CCC5F0CCCDF8EFA4CEC5F02D0E
:104C4300FDE43CFCE8A42EC8C5F03DFDE43CFCEFCC
:104C5300A4FFE5F028FEE43DFDE43CFC22EF4E60BA
:104C630012EF60010EEDBB010B89828A83F0A3DF93
:104C7300FCDEFA2289F05007F709DFFCA9F022BB1A
:104C8300FEFCF309DFFCA9F022BB010689828A83BB
:104C9300E0225002E722BBFE02E32289828A83E4F8
:104CA3009322E0FCA3E0FDA3E0FEA3E0FF22F8E0F3
:104CB300FBA3A3E0F925F0F0E582158270021583CA
:104CC300E0FA38F022EBF0A3EAF0A3E9F022E49053
:104CD30002F9F0A3F0A3F0EF6024E49002A0F090B7
:104CE300029EF09001ACF09002A1F090029FF09030
:104CF30001ADF09002A2F0A3F09002FBF022E49049
:104D030002FCF09002FCE0FF24ACF582E43401F5F0
:104D130083E0FE749E2FF582E43402F583E0FFC343
:104D2300EE9FFFD36480948040089002FB7401F0EF
:104D33008015C3EF6480948050089002FB7402F0E6
:104D43008005E49002FBF0900111E0FEA3E0F58200
:104D53008E83C083C0829002FCE0FFD082D0837533
:104D6300F008124C01E58224E0F582E5833401F575
:104D730083E493540F24FE7003024E5E0460030227
:104D8300514E9002FBE0FE700302516A74A02FF5AE
:104D930082E43402F583E060299002FCE0FF24A062
:104DA300F582E43402F583E4F0749E2FF582E43453
:104DB30002F583E0FFEE25E024FDFEC3EF9EF00243
:104DC300516A9002FBE0FF900111E0FCA3E0F58241
:104DD3008C83C083C0829002FCE0D082D08375F0C4
:104DE30008124C01E58224E2F582E5833401F58360
:104DF300E5822FF582E43583F583E493FD60057F37
:104E0300FF126FC1900325E0FF9002FBE0FE9001CB
:104E130011E0FCA3E0F5828C83C083C0829002FC86
:104E2300E0FDD082D08375F008124C01E58224E5C1
:104E3300F582E5833401F583E5822EF582E435833B
:104E4300F583E493FEEF4E900325F074A02DF582D5
:104E5300E43402F5837401F002516A9002FBE070BE
:104E63000302516AA3E0FD24A0F582E43402F58332
:104E7300E0602790033FE0FC9002A2E0FAA3E0FB8E
:104E830025E0FFEC4F90033FF07807CEEACEEBCE60
:104E9300A2E713CE13D8F8025106900111E0FEA346
:104EA300E0F5828E8375F008ED124C01E58224E370
:104EB300F582E5833401F583E493FFC3941E500325
:104EC300024F9AEFD394274003024F9A900111A304
:104ED300E0F5828E83C083C0829002FCE0D082D052
:104EE3008375F008124C01E58224E4F582E58334EE
:104EF30001F583E493FFC3941E5003024F9AEFD34B
:104F030094274003024F9A900111A3E0F5828E8308
:104F1300C083C0829002FCE0D082D08375F0081277
:104F23004C01E58224E3F582E5833401F583E493C0
:104F330024E3FFE434FFFE7C007D0A12498CCFEDAD
:104F4300CFEF75F00AA4FBAAF0900111E0FEA3E0F5
:104F5300F5828E83C083C0829002FCE0D082D0832E
:104F630075F008124C01E58224E4F582E5833401EF
:104F7300F583E49324E3FFE434FFFE7C007D0A120F
:104F830049E1EB2DFFEA3CFEEF2401FFE43E9002F2
:104F9300A2F0A3EFF080099002A2E4F0A3740AF058
:104FA3009002A2E0FAA3E0FB9002FBE075F002A4FA
:104FB30024FDFFE5F034FFFE7C007D0A12497ACD23
:104FC300EBCDCCEACC12497A9002A2EEF0A3EFF03B
:104FD300900111E0FEA3E0F5828E83C083C082902E
:104FE30002FCE0FFD082D08375F008124C01E58209
:104FF30024E6F582E5833401F583E493FEB4010FDF
:1050030074A02FF582E43402F5837401F08078EE06
:10501300B402129002FCE024A0F582E43402F5838A
:105023007403F08062900111E0FEA3E0F5828E83A9
:10503300C083C0829002FCE0FFD082D08375F00869
:10504300124C01E58224E6F582E5833401F583E41D
:1050530093FEB4040F74A02FF582E43402F5837435
:1050630004F08023EE9002FCB4080FE024A0F58244
:10507300E43402F5837405F0800DE024A0F582E4A6
:105083003402F5837402F09002FCE024A0F582E47C
:105093003402F583E0FD7C009002A2E0FEA3E0FF72
:1050A3001249E1CAECCACBEDCB9002FCE024A0F597
:1050B30082E43402F583E0FD7C009002A2E0FEA3CB
:1050C300E0FF1249E1CCEECCCDEFCDED2BFEEC3A77
:1050D3009002F9F0A3CEF09002A2ECF0A3EDF090D1
:1050E300033FE0FD9002F9E0FAA3E0FB25E0FFEDCA
:1050F3004F90033FF07807CEEACEEBCEA2E713CE74
:1051030013D8F8900340F09002FCE0FF24A0F5824E
:10511300E43402F583E014F074A02FF582E4340242
:10512300F583E070429002FCE0249EF582E43402B1
:10513300F583C083C082E0FF9002FBE025E024FDFD
:10514300FEC3EF9ED082D083F0801C9002FCE0FF70
:1051530024ACF582E43401F583E0FE749E2FF582DE
:10516300E43402F583EEF09002FCE004F0E0C39433
:10517300025003024D0622E52324E8F582E43402BB
:10518300F583E00523229002E53007039002E8E46B
:1051930075F001124CB1024C8C2000E97F2ED20035
:1051A3008018EF540F2490D43440D4FF30040BEF15
:1051B30024BFB41A0050032461FFE52460021524C0
:1051C3000527E5277002052630070E9002E5E475F2
:1051D300F001124CB1EF024946027DF77403D20786
:1051E3008003E4C207F5239002E5124CC8E4F524DA
:1051F300F526F527E52460077F201251BD80F5755C
:1052030025FFC201C200C202C203C205C206C20810
:10521300125189FF700D3007057F001251CEAF2761
:10522300AE2622B4255FC2D5C204125189FF24D011
:10523300B40A00501A75F00A782430D50508B6FF71
:105243000106C6A426F620D5047002D20380D92411
:10525300CFB41A00EF5004C2E5D2040253CFD201F7
:1052630080C6D20080C0D20280BCD2D580BAD2051B
:1052730080B47F201251BD2002077401B524004081
:10528300F112517AFF1251BD0251F7D208D20680B2
:105293009512517AFB12517AFA12517AF94A4B70EC
:1052A3000679A07A547BFF20022EE524602A7E0033
:1052B3008E8275830012491960060EEE652570F023
:1052C300C2D5EBC0E0EAC0E0E9C0E0EE125416D06C
:1052D300E0F9D0E0FAD0E0FB124C8CFF60AAEBC0FF
:1052E300E0EAC0E0E9C0E01251BDD0E02401F9D00A
:1052F300E03400FAD0E0FBE5250460DCD525D98055
:10530300877BFF7A547912D202809C7910800279CC
:1053130008C206C2088008D2D5790A8004790AC275
:10532300D5E525047002F525E4FAFDFEFF12517A56
:10533300FC7B0820011312517AFD7B1030000A1206
:10534300517AFE12517AFF7B20EC3382D592D550ED
:1053530013C3E43000069FFFE49EFEE42001039D97
:10536300FDE49CFCE4CBF8C201EC700CCFCECDCCB9
:10537300E824F8F870F38017C3EF33FFEE33FEED44
:1053830033FDEC33FCEB33FB994002FB0FD8E9EB25
:10539300300105F8D0E0C448B201C0E00AEC4D4E3C
:1053A3004F78207B0070C2EAB5250040BCC0E012F4
:1053B3005418D0F0D0E0200104C4C0E0C4B201C04E
:1053C300F01251A6D0F0D5F0EB0251F7124C0D526A
:1053D3009453530E5852654C52614253124F531A11
:1053E30044531A49527A43532055530446530445B0
:1053F30053044754C05052692D526D2E52902B5274
:105403007123528E2054A92A522948000052883F02
:105413003F3F00790AA2D5200314300509B91002D1
:105423000404B9080104A2D5200602500104200295
:10543300689202B524005034C0E07F203003197F06
:1054430030A20272067205500F12546FC202C206D6
:10545300C205C2087F30800F300503E9C0E0125156
:10546300BD300503D0E0F9D0E0B524CC3005177F7B
:1054730030B9100C1251BD7F583004077F78800378
:10548300B908031251BD3002057F2D0251BD7F20A3
:105493002008F87F2B2006F322920280CF286E7516
:1054A3006C6C2900D20112517A3001F8C2017824C0
:1054B30030D50108F60252292D5043495812517A2A
:1054C3002403B405004001E49054BB931251AE741D
:1054D3003A1251AED20375240402530E900304EF23
:1054E300F0D39D4004E0FF8003CFEDCFEFD39B408B
:1054F30010900304E0FFD39D40028008CFEDCF80DE
:1055030003CFEBCF8F27900304E0FFC39D500280AE
:1055130003CFEDCFEFC39B5010900304E0FFC39D77
:1055230050028008CFEDCF8003CFEBCF8F28C3E5A8
:10553300279528F5297007F52AF52B025635900390
:1055430004E065277042EDC39B401EEDFFEBFDEFCA
:105553009DFFE49400FE7C007DA712497AAD2912D9
:10556300498C8E2A8F2B025635EBC39DFFE49400A2
:10557300FE7C007DA712497AAD2912498CC374EAD7
:105583009FF52B7403025632E5276D704E9003048A
:10559300E0FFEBD39F401FEB9FFFE49400FE7C00F2
:1055A3007DA712497AAD2912498CEF244EF52BEED3
:1055B3003401F52A807C900304E0FFEBFDC3EF9DEB
:1055C300FFE49400FE7C007DA712497AAD291249BD
:1055D3008CC3744E9FF52B74018054CFEBCFE5271A
:1055E3006F704F900304E0FFD39D401FEF9DFFE4D6
:1055F3009400FE7C007DA712497AAD2912498CEFF5
:10560300249CF52BEE3402F52A8027CFEDCF9003AF
:1056130004E0FDC3EF9DFFE49400FE7C007DA71230
:10562300497AAD2912498CC3749C9FF52B74029E51
:10563300F52A900307E0FEA3E0252BF52BEE352A90
:10564300F52AC3E52B94EAE52A9403400C74162546
:105653002BF52B74FC352AF52AC3E52B94A7E52AF1
:1056630094005005E4F52C8043C3E52B944EE52AC2
:1056730094015005752C018033C3E52B94F5E52A7D
:1056830094015005752C028023C3E52B949CE52AD5
:1056930094025005752C038013C3E52B9443E52A2C
:1056A30094035005752C048003752C05E52C75F0C7
:1056B300A7A4FEC3E52B9EF52DC3E5279529F52861
:1056C300E52C30E00DAF297E00AD2D7C0012497A28
:1056D3008013C374A7952DFDE49400FCAF297E00CD
:1056E30012497A7C007DA712498CC3E5279FF529CF
:1056F300E52C701F900309E0FBA3E0FAA3E0F9E5B2
:105703002712494690030CE0FBA3E0FAA3E0F9E576
:10571300298022E52CB40130900309E0FBA3E0FAD1
:10572300A3E0F9E52912494690030CE0FBA3E0FA54
:10573300A3E0F9E52712494690030FE0FBA3E0FA43
:10574300A3E0F9E528025812E52CB40230900309CE
:10575300E0FBA3E0FAA3E0F9E52812494690030C25
:10576300E0FBA3E0FAA3E0F9E52712494690030F13
:10577300E0FBA3E0FAA3E0F9E529025812E52CB413
:10578300032F900309E0FBA3E0FAA3E0F9E5281255
:10579300494690030CE0FBA3E0FAA3E0F9E52912E4
:1057A300494690030FE0FBA3E0FAA3E0F9E5278065
:1057B3005EE52C900309B4042CE0FBA3E0FAA3E01C
:1057C300F9E52912494690030CE0FBA3E0FAA3E0B4
:1057D300F9E52812494690030FE0FBA3E0FAA3E0A2
:1057E300F9E527802AE0FBA3E0FAA3E0F9E5271215
:1057F300494690030CE0FBA3E0FAA3E0F9E5281285
:10580300494690030FE0FBA3E0FAA3E0F9E5291270
:10581300494622E4FD75F002EDA42400F582E5F08B
:1058230034DAF583E493FA740193FBED25E0FFE4A6
:1058330033FE74632FF58274013EF583EAF0A3EB24
:10584300F075F002EDA42404F582E5F034DAF58373
:10585300E493FA740193FBED25E0FFE433FE745FF8
:105863002FF58274013EF583EAF0A3EBF075F002A5
:10587300EDA42408F582E5F034DAF583E493FA74B1
:105883000193FBED25E0FFE433FE74532FF582749F
:10589300013EF583EAF0A3EBF074632FF582740104
:1058A3003EF583E0FEA3E0C394FFEE940F4015EDB5
:1058B30025E0FFE433FE74632FF58274013EF58324
:1058C300E4F0A3F0ED25E0FFE433FE745F2FF582EF
:1058D30074013EF583E0FEA3E0FF4E6009D3EF942D
:1058E300FFEE940F4018ED25E0FFE433FE745F2FC5
:1058F300F58274013EF583740FF0A374FFF0ED2578
:10590300E0FFE433FE745F2FF58274013EF583E01C
:10591300FAA3E0FB74632FF58274013EF583E0FE86
:10592300A3E0C39BEE9A4026ED25E0FFE433FE742B
:10593300632FF58274013EF583E4F0A3F0745F2FC7
:10594300F58274013EF583740FF0A374FFF0ED2527
:10595300E0FFE433FE74532FF58274013EF583E0D8
:10596300FEA3E0FF4E6009C3EF94FFEE940F4017D0
:10597300ED25E0FFE433FE74532FF58274013EF509
:10598300837408F0A3E4F0ED25E0FFE433FE7463D1
:105993002FF58274013EF583E0FAA3E0FB74532FE5
:1059A300F58274013EF583E0FEA3E0D39BEE9A40BB
:1059B3002AED25E0FFE433FE745F2FF58274013E88
:1059C300F583E0FAA3E0FB74532FF58274013EF5EF
:1059D30083E0FEA3E0C39BEE9A4036ED25E0FFE4AF
:1059E30033FE74632FF58274013EF583E4F0A3F074
:1059F30074532FF58274013EF5837408F0A3E4F029
:105A0300745F2FF58274013EF583740FF0A374FF66
:105A1300F0ED25E0FFE433FE74632FF58274013E5D
:105A2300F583E0FAA3E0FB74532FF58274013EF58E
:105A330083E0FEA3E0C39BFBEE9AFAED25E0FFE4CF
:105A430033FE745B2FF58274013EF583EAF0A3EB1A
:105A5300F074532FF58274013EF583E0FAA3E0FB63
:105A6300745F2FF58274013EF583E0FEA3E0C39BD0
:105A7300FBEE9AFAED25E0FFE433FE74572FF5822F
:105A830074013EF583EAF0A3EBF00DED64026003CD
:105A930002581890DA10E493F51490DA14E493FFA3
:105AA300139210EFC31313921122E49002E9F0A2B0
:105AB3000A33A3F0A20EE433A3F0A209E433A3F064
:105AC3009002B2E07F0060027F019002EDEFF09060
:105AD30002B0E07F0060027F019002EEEFF09001E0
