:0800000002795F027CF5323247
:07000B0002819401060300CD
:100013000200067B017A06790090031C7401F07FCD
:06002300007ED8026ADF36
:0D002B0002000775A15575A1AA43B110226E
:03003B00027D52F1
:10004300020066125BB39003137407F0900313E08E
:10005300FFF4600B126C83900313E014F080ED2225
:10006300027BCEC0E0C0F0C083C082C0D075D00890
:1000730020D90302127E30D80302127EE5D9543F01
:1000830012511C12070001780109650200CE041108
:10009300792001652109522200A82300BB2409719C
:1000A300300000127975D70063D640C20BE5D654F1
:1000B300FC4402F5D602127975DF0063DE40C20C00
:1000C300E5DE54FC4402F5DE02127920DE0302125F
:1000D30079AFDB90030EE4F0A3EFF063DE809003CF
:1000E3000EE0FEA3E0FFC874C0C8CC7404CCCD748A
:1000F30001CD7B017A047980124E0290030EA3E0B6
:10010300F5DFD20C53DEFC900480E064A5600302AB
:100113001279A3E0645A6003021279A3E0640360D6
:1001230003021279A3E070259002F6E0540F44A075
:10013300F0C874B1C8CC7402CCCD7401CD7B017A04
:100143000479847E007F30124E0202127990048378
:10015300E0640260030212799002F6E0540FF002A9
:10016300127975D30063D240C209E5D254FC44022C
:10017300F5D202127920DE0302127963D280AFDB5B
:1001830090030EE4F0A3EFF090030EA3E0F5D390F9
:100193000378E030E75790057FE075F040A4240032
:1001A300F9740635F0FAC8E9C8CCEACCCD7401CDB0
:1001B3007B017A0579007E007F40124E0290054054
:1001C3007452F0A37444F090057FE0FF04F09005AF
:1001D30042EFF090057EE0FFA3E0C39F50030209C6
:1001E3004CE4F0900378E0547FF002094C90054012
:1001F3007452F0900501E0900541F0900502E09003
:100203000542F0900503E0900543F0900500E0B44B
:100213004410A3E0B44B0BA3E0B44206A3E0644351
:10022300601A900500E064447052A3E0644C704C83
:10023300A3E064547046A3E064437040900504E077
:10024300C394314037E0D394385031900501E090A6
:10025300057EB44B0B7408F0900504E024D98009A3
:100263007404F0900504E024ED900378F090057F8A
:10027300E4F0900378E04480F002094C900500E03C
:1002830064437023A3E0B44B1EA3E0B45919A3E065
:10029300B45414900544E514F0900504E0F514906B
:1002A3000545E514020554900500E064436003022C
:1002B30003EFA3E0645260030203EFA3E0644B6027
:1002C300030203EFA3E0644D60030203EF9001E632
:1002D300E0FFA3E0900544CFF0A3EFF09001E8E046
:1002E300FFA3E0900546CFF0A3EFF09001F7E024E1
:1002F30001FF9001F6E03400FE90023BE0FCA3E036
:10030300FDD39FEC9E4008CEECCECFEDCF80009086
:1003130001F3E024FFFD9001F2E034FFFCC3EF9D05
:10032300EE9C50269001F7E02401FF9001F6E034A3
:1003330000FE90023BE0FCA3E0FDD39FEC9E40084F
:10034300CEECCECFEDCF8010800E9001F3E024FFF2
:10035300FF9001F2E034FFFE9001E6EEF0A3EFF030
:100363009001F9E02401FF9001F8E03400FE9002CF
:100373003DE0FCA3E0FDD39FEC9E4008CEECCECF46
:10038300EDCF80009001F5E024FFFD9001F4E0340F
:10039300FFFCC3EF9DEE9C50269001F9E02401FF82
:1003A3009001F8E03400FE90023DE0FCA3E0FDD3B1
:1003B3009FEC9E4008CEECCECFEDCF8010800E9008
:1003C30001F5E024FFFF9001F4E034FFFE9001E823
:1003D300EEF0A3EFF09001E6E0FDA3E0900548CD39
:1003E300F0A3EDF0A3EEF0A3EF020554900500E0B7
:1003F30064436003020512A3E06452600302051222
:10040300A3E0644B6003020512A3E0645A60030295
:1004130005129001F6E0FFA3E0900544CFF0A3EFAF
:10042300F09001F2E0FFA3E0900546CFF0A3EFF0D8
:100433009001F8E0FFA3E0900548CFF0A3EFF09020
:1004430001F4E0FFA3E090054ACFF0A3EFF090059D
:1004530004E0FEA3E0FF9001E6E0FCA3E0FDC3EFB0
:100463009DEE9C4003020507900506E0FEA3E09D78
:10047300EE9C5003020507A3E0FEA3E0FF9001E812
:10048300E0FCA3E0FDEF9DEE9C507990050AE0FEB1
:10049300A3E09DEE9C406D900504E0FFA3E0900176
:1004A300F6CFF0A3EFF0900506E0FFA3E09001F292
:1004B300CFF0A3EFF0900508E0FFA3E09001F8CFA1
:1004C300F0A3EFF090050AA3E0FF9001F4EEF0A390
:1004D300EFF0A3E0FDA3E090054CCDF0A3EDF09089
:1004E30001F2E0FDA3E090054ECDF0A3EDF0900105
:1004F300F8E0FDA3E0900550CDF0A3EDF0A3EEF0FE
:10050300A3EF804D90054C74FFF0A3F002094C90CB
:100513000500E064437044A3E06445703EA3E064D7
:10052300437038A3E064447032A20E33900544F064
:10053300A20FE433A3F0900504E024FF920EA3E09E
:1005430024FF920FA20EE433900546F0A20FE4338A
:10055300A3F09003787432F002094C900500E0B4E4
:100563004313A3E0B4450EA3E0B44309A3E06446F8
:10057300700302094C900500E064427028A3E0B4C4
:100583004623A3E0B4571EA3E0B45619C87444C865
:10059300CC7405CCCD7401CD7BFF7A00790E7E003F
:1005A3007F040207F5900500E0644260030206FE43
:1005B300A3E0645560030206FEA3E06449600302FE
:1005C30006FEA3E0644460030206FE90057DF090FE
:1005D300057DE0FF25E0244FF582E43403F583E055
:1005E300FE74442FF582E43405F583EEF090057D27
:1005F300E02444F582E43405F583E0C394304027D6
:1006030090057DE02444F582E43405F583E0D3943A
:1006130039501490057DE02444F582E43405F583D4
:10062300E024D0F00206AB90057DE02444F582E49B
:100633003405F583E0C39461402690057DE02444AE
:10064300F582E43405F583E0D39466501390057D79
:10065300E02444F582E43405F583E024A9F08048DE
:1006630090057DE02444F582E43405F583E0C394EA
:1006730041402690057DE02444F582E43405F5836A
:10068300E0D39446501390057DE02444F582E4348E
:1006930005F583E024C9F0800F90057DE02444F53F
:1006A30082E43405F583E4F090057DE004F0E06432
:1006B3000C60030205D290057DE4F090057DE0FF18
:1006C30025E02444F582E43405F583E0C454F0FEC8
:1006D300EF25E02445F582E43405F583E04EFF90F1
:1006E300057DE02444F582E43405F583EFF09005BD
:1006F3007DE004F0E0B406C302094C900500E06419
:100703004260030207C8A3E0644960030207C8A369
:10071300E0645060030207C8A3E064546003020767
:10072300C890023BE0FFA3E0900544CFF0A3EFF0B5
:1007330090023DE0FFA3E0900546CFF0A3EFF0A3C6
:10074300E4F0A3F0900180E090054AF0900181E08D
:1007530090054BF0A31250DF0000000090057DE4EC
:10076300F090054CC083C082E0F8A3E0F9A3E0FA5F
:10077300A3E0FBE8C0E0E9C0E0EAC0E0EBC0E09042
:10078300057DE0F92428F582E43400F583E0FFE4F5
:10079300FCFDFEC8E9C81250C0D0E0FBD0E0FAD09F
:1007A300E0F9D0E0F8EB4FFFEA4EFEE94DFDE84CEF
:1007B300FCD082D0831250D390057DE004F0E0B4E6
:1007C300139F02094C900500E06442702BA3E0B430
:1007D3004726A3E0B45021A3E0B44D1CC87444C819
:1007E300CC7405CCCD7401CD7BFF7ADA79007E0021
:1007F3007F38124E0202094C900500E06442701DDE
:10080300A3E0B44418A3E0B44713A3E0B4430E7BBE
:10081300017A0579447D3812816702094C900500FD
:10082300E064427028A3E064527022A3E0B4531D35
:10083300A3E0B454187E007F3C7D207B017A0579C8
:100843004412516F9003787464F002094C900500D0
:10085300E064427028A3E064427022A3E0B44F1D19
:10086300A3E0B454187E007F3C7D207B017A057998
:100873004412516F9003787465F002094C9005009F
:10088300E064427051A3E06443704BA3E06453708F
:1008930045A3E06443703FFE7F3C7D207B017A05E6
:1008A300794412516F90004DE02431900544F0904B
:1008B3000504E0C394314019E0D394385013E09019
:1008C3000545F024CF900600F09003787466F0801D
:1008D30078900545805C900500E0B44217A3E0B42E
:1008E3004212A3E0B4550DA3E0B45A089003787400
:1008F30067F08055900500E06442703BA3E06442DA
:100903007035A3E06454702FA3E064567029A3E00C
:10091300D39430501AA3E06016940A501290050441
:10092300E090028FF0900505E09001FAF0801A90B4
:10093300028F74FFF080129005407452F0A3744943
:10094300F0A3744EF0A37456F053D2FC02127975DF
:10095300D50063D440C20AE5D454FC4402F5D40262
:10096300127920DE0302127963D48002127975DCD6
:10097300C0AFDB90030EE4F0A3EFF090030EE07042
:1009830004A3E06408600302114E900447E0FE9064
:100993000446E07C002400FFEC3E90034AF0A3EF02
:1009A300F090030EE4F0A3F090030DF0900441E007
:1009B30090034CF090036774FFF090036EE4F090A3
:1009C3000440E0FF546064206003020C7EEF541F78
:1009D300FFBF0110900445E0700A900444E0FFC398
:1009E3009404400990030D74FFF002127990034CB4
:1009F300E024FE7003020BA8147003020BCD24FA4B
:100A03007003020BF4147003020C20147003020C25
:100A130049240A6003020C7B900440E020E70302B0
:100A2300114EEF6003020ADE900443E064016003A9
:100A3300020ADE900442E024FE602424FE6039149E
:100A4300604F2404706490036A7401F0A37400F08F
:100A5300A37458F090030EE4F0A37416F080519041
:100A6300036A7401F0A37400F0A3743FF090030EC3
:100A7300E4F0A37405F0803890036A7401F0A37462
:100A830000F0A37453F090030EE4F0A37402F0801B
:100A93001F90036A7401F0A37401F0A374DAF09059
:100AA300030EE4F0A37403F0800690030D74FFF0CB
:100AB30090030DE0FF701CA3E0FCA3E0FD90034A4C
:100AC300E0FAA3E0FBC39DEA9C500890030EEAF012
:100AD300A3EBF0EF60030211548046900444E064FA
:100AE300017063900443E06401705B900442E0642E
:100AF30003705390036A04F0A37400F0A37444F0EA
:100B030090030EE4F0A37407F090034AE0FEA3E021
:100B1300FFC39407EE9400500890030EEEF0A3EF8A
:100B2300F090030EE0FEA3E0FFC87440C8CC740449
:100B3300CCCD7401CD90036AE0FBA3E0FAA3E0F906
:100B4300124E02021154900444E0FF64036005EF67
:100B53006402704E900443E0FF64016005EF640299
:100B63007040900442E0703A90034AE0FEA3E0FF35
:100B7300D39440EE9400400C7C007D40CEECCECF6D
:100B8300EDCF800090030EEEF0A3EFF090030EE0A4
:100B9300FEA3E0FF7D007B017A04794012516F02CE
:100BA300115402114E900440E030E70C90034AE0E8
:100BB3007004A3E06401600302114E900444E02436
:100BC30046F582E43403F583801F900444E07013F8
:100BD300900440E030E70C90034AE07004A3E06423
:100BE30001600302114E90036FE0900440F0020F86
:100BF3000A900440E020E70FD390034BE094409029
:100C0300034AE09400400302114E900444E0900331
:100C130067F0900443E090036EF002115490044097
:100C2300E020E70A90034AE07002A3E060030211A8
:100C33004E900443E0FFA3E02446F582E43403F539
:100C430083EFF0021154900444E07021900440E0DB
:100C530020E71A90034AE07002A3E0701090044367
:100C6300E0700A900442E0FFD39401400302114E66
:100C730090036FEFF002115402114E900440E054C0
:100C830060600302114E90034CE0B40C0040030279
:100C9300114C900C9CF82828730210E4020F860272
:100CA300114C02102502114C020EE0020CC002117D
:100CB3004C020EF0020F10020F22020F5590044354
:100CC300E024FE603114604824E27003020D8F14A7
:100CD3007003020DEA24216003020E5990036A7423
:100CE300FFF0A37488F0A3741BF090030EE4F0A349
:100CF3007412F0020E5F90036A74FFF0A37489F01C
:100D0300A374F0F090030EE4F0A3747BF0020E5F83
:100D1300900442E014602714603E1460552403607D
:100D230003020E5990036A74FFF0A37488F0A3744E
:100D33002DF090030EE4F0A37404F0020E5F900311
:100D43006A74FFF0A37488F0A37447F090030EE471
:100D5300F0A37424F0020E5F90036A74FFF0A3748F
:100D630088F0A37431F090030EE4F0A37416F0023C
:100D73000E5F90036A7401F0A37403F0A3744DF043
:100D830090030EE4F0A3741AF0020E5F900444E0A3
:100D9300FFB4030F90036A74FFF0A37489F0A37484
:100DA300CC8036EFB4020F90036A74FFF0A374890A
:100DB300F0A374D58023EF700F90036A74FFF0A340
:100DC3007489F0A374DE8011EFB4011990036A747F
:100DD300FFF0A37489F0A374E7F090030EE4F0A38B
:100DE3007409F08077806F900444E0FFB4030F90A0
:100DF300036A74FFF0A37489F0A374888011EFB4BD
:100E0300021990036A74FFF0A37489F0A374AAF023
:100E130090030EE4F0A37422F08041EF7019900365
:100E23006A74FFF0A37488F0A3746BF090030EE46C
:100E3300F0A374DBF08025EFB4011990036A74FF0B
:100E4300F0A37489F0A37446F090030EE4F0A37446
:100E530042F08008800090030D74FFF090030EE0D1
:100E6300FEA3E0FFD390034BE09F90034AE09E4034
:100E730005EEF0A3EFF090034AE0FEA3E0FFC39476
:100E830040EE9400400C7C007D40CEECCECFEDCF05
:100E9300800090030EEEF0A3EFF090030EE0FEA3AC
:100EA300E0FFC87440C8CC7404CCCD7401CD90036A
:100EB3006AE0FBA3E0FAA3E0F9124E0290030EE00E
:100EC300FEA3E0FFC390034BE09FF090034AE09E34
:100ED300F090036BEE8FF0124F26021154900442F0
:100EE300E0FF90034AE4F0A3EFF0021154900345AE
:100EF300E0900440F0C390034BE0940190034AE078
:100F03009400500302115490030EE4803E90044277
:100F1300E0900345F07003021154D20D0211549076
:100F23000345E0601B900445E07015900444E0C362
:100F33009404500C90034AE07004A3E0640160033E
:100F430002114E900440E4F090030EF0A304F0026B
:100F53001154900345E06028900445E0702290040A
:100F630044E0C394045019900443E0701390044286
:100F7300E0700D90034AE07002A3E0700302115485
:100F830002114E900440E0541FFF640270739004FA
:100F930043E07006900442E0600302114E90044463
:100FA300E014605414604014602C146018248360AF
:100FB3003C146028146014147044E5DE54BC4402ED
:100FC300F5DE02115453DE73021154E5D654BC44CA
:100FD30002F5D602115453D673021154E5D454BC0E
:100FE3004402F5D402115453D473021154E5D2547C
:100FF300BC4402F5D202115453D2730211540211AC
:101003004EEF701B900443E07008900442E06401CB
:10101300600302114E900344E054FEF002115402A7
:10102300114E900440E0541FFD7027900443E0FEEE
:10103300900442E0FBEB64014E70149089F7933007
:10104300E50A900344E04401F002115402114E02F8
:10105300114EED640260030210E2900443E0FE903F
:101063000442E0FDED4E7075900445E0FE900444AB
:10107300E0FDEDFFEE7064EF24FE604A146031146E
:1010830060182483604B14603214601914704CE5AB
:10109300DE54BF4403F5DE021154E5DE547F440CF5
:1010A300F5DE021154E5D654BF4403F5D6021154BC
:1010B300E5D6547F440CF5D6021154E5D454BF440D
:1010C30003F5D4021154E5D4547F440CF5D4021132
:1010D30054E5D254BF4403F5D28076806E806C8091
:1010E3006A90034AE07004A3E064026002805C90AB
:1010F3000441E4F0900440F0701E9089F79330E6C9
:1011030007900440E04401F0900344E030E02F9066
:101113000440E04402F08026900440E0541FFFBFE7
:101123000111900445E07010900444E0C39404401E
:101133000D8005EF6402600690030D74FFF09003C9
:101143000EE4F0A37402F08008800090030D74FF96
:10115300F090030DE0B4FF0675DCCF021279900323
:101163000EE0FEA3E0FF4E60048FDD800375DD001B
:1011730075DCC002127990034CE024FB606F14709D
:101183007B90034AE0FEA3E0FFC39440EE9400404B
:101193000C7C007D40CEECCECFEDCF800090030ED3
:1011A300EEF0A3EFF090030EE0FEA3E0FFC874405F
:1011B300C8CC7404CCCD7401CD90036AE0FBA3E0EA
:1011C300FAA3E0F9124E0290030EE0FEA3E0FFC380
:1011D30090034BE09FF090034AE09EF090036BEE88
:1011E3008FF0124F268FDD63DC4002127990034AA1
:1011F300A3E0FFE5E354804FF5E3800375DD00755D
:10120300DC028072AFDB90030EE4F0A3EFF09003F7
:101213004CE064097052900367E0704C90036EE0F9
:101223006402704490030EE0FEA3E0FF4E60397445
:101233003F2FF58274043EF583E090036DF07F0049
:1012430030E0027F019002F7EFF090036DE0FF7E44
:101253000030E1027E019002E5EEF0EF7F0030E224
:10126300027F019002E4EFF090036774FFF09003B4
:101273006EE4F063DC80C2D902131330D87675DCD8
:101283000275DD0075D20275D40275D60275DE02D1
:1012930075D30075D50075D70075DF0075E300C2FF
:1012A300DAC2D9900345E4F090034CF090034AF07E
:1012B300A3F0F990036AC9F0A3F0A3E9F0C20DC249
:1012C30009C20AC20BC20C7E007F047D007B017A37
:1012D30003794612516F90036F7401F090036DE42C
:1012E300F090036774FFF090036EE4F0900344F012
:1012F300C2D8801C30DA16C2DAE5DA90034430E251
:1013030006E04402F08009E054FDF0800375D8FF45
:10131300D0D0D082D083D0F0D0E032EF6013E4900D
:101323000012F0A3F0900010F0A3F090000E02144E
:10133300DC900183E0FEA3E0FF24D5F582EE3401C7
:10134300F583E4931313543F30E04BEF24D5F58238
:10135300EE3401F583E493FB540175F002A424FFFA
:10136300FFE5F034FFFE90018BE0FCA3E0FD124E9D
:1013730089900325EEF0A3EFF0EBC313540175F04E
:1013830002A424FFFFE5F034FFFEC3E49FFFE49EC5
:10139300FE9001898048900183E0FEA3E024D5F507
:1013A30082EE3401F583E493FB540175F002A42427
:1013B300FFFFE5F034FFFE900189E0FCA3E0FD129E
:1013C3004E89900325EEF0A3EFF0EBC313540175A0
:1013D300F002A424FFFFE5F034FFFE90018BE0FC54
:1013E300A3E0FD124E89900327EEF0A3EFF09003E4
:1013F30027E0FEA3E0FFD39400EE648094804002D4
:10140300800F900327E0FEA3E0FFC3E49FFFE49E69
:10141300FE900325E0FCA3E0FDD39400EC648094EC
:10142300804002800F900325E0FCA3E0FDC3E49D10
:10143300FDE49CFCD3ED9FEE6480F8EC648098405F
:1014430025900325E0FEA3E0FFD39400EE6480948F
:101453008040028034900325E0FEA3E0FFC3E49FB5
:10146300FFE49EFE8023900327E0FEA3E0FFD394D6
:1014730000EE648094804002800F900327E0FEA377
:10148300E0FFC3E49FFFE49EFECAEECACBEFCB901E
:101493000183E0FEA3E024DCF582EE3401F583E46E
:1014A30093FF7E007C007D15124E89C3EB9FFFEAFC
:1014B3009EFE900329F0A3EFF0D39400EE64809492
:1014C30080501AE4900016F0A3F0900014F0A3F0FB
:1014D300900012F0A3F0900010F0A3F0229001838B
:1014E300E0FEA3E0FF24D4F582EE3401F583E49318
:1014F300540F24FE70030216E5147003021A1A1423
:101503007003021F102403600302245890000EE0AE
:101513007002A3E060030216EFEF24DEF582EE34DF
:1015230001F583E493701D900183E0FEA3E024DFC3
:10153300F582EE3401F583E493700990000EF0A375
:10154300F0021671900183E0FEA3E0FF24DEF58232
:10155300EE3401F583E493FBEF24DFF582EE3401EF
:10156300F583E493C39BFD3395E0FC780390032953
:10157300E0FEA3E0CEA2E713CE13D8F8FF124E8904
:10158300EEFD3395E0FCEB25E0FFE433FEED2FFFAA
:10159300EC3E900329F0A3EFF0900014E0FEA3E0EB
:1015A300FFD39400EE648094804002800F90001477
:1015B300E0FEA3E0FFC3E49FFFE49EFE900329E067
:1015C300FCA3E0FDD39FEE6480F8EC648098500A9E
:1015D300900014ECF0A3EDF0806B900183E0FEA388
:1015E300E024DDF582EE3401F583E4932401FDE488
:1015F30033FC900014E0FEA3E0FFC390032AE09FB6
:10160300FF900329E09EFE124EF0EEF0A3EFF04EA2
:101613007010900015E004F0701C900014E004F0CA
:101623008014900329E0FEA3E0FF900015E02FF063
:10163300900014E03EF0900014E0FFA3E090032933
:10164300CFF0A3EFF0900329E0FEA3E0FFC374649F
:101653009FFFE49EFE90000EF0A3EFF0D39400EE04
:1016630064809480500890000EE4F0A304F090038B
:1016730025E0FEA3E0FFA3E0FCA3E0FDD39FEE641F
:1016830080F8EC6480984026E49FFFE49EFED3ED4F
:101693009FEE6480F8EC648098900183E0FE40073D
:1016A300A3E024D7021A0BA3E024D9021A0B900358
:1016B30025E0FEA3E0FFC3E49FFFE49EFED3900377
:1016C30028E09FEE6480F8900327E06480989001FF
:1016D30083E0FE4006A3E024DA8004A3E024D802DA
:1016E3001A0B90000EE07002A3E0600F90000FE071
:1016F30024FFF090000EE034FFF022900183E0FE1F
:10170300A3E0FF24DEF582EE3401F583E493701742
:10171300EF24DFF582EE3401F583E4937009900042
:101723000EF0A3F0021854900183E0FEA3E0FF241F
:10173300DEF582EE3401F583E493FBEF24DFF582DB
:10174300EE3401F583E493C39BFD3395E0FC78030A
:10175300900329E0FEA3E0CEA2E713CE13D8F8FF4F
:10176300124E89EEFD3395E0FCEB25E0FFE433FEFA
:10177300ED2FFFEC3E900329F0A3EFF0900014E06F
:10178300FEA3E0FFD39400EE648094804002800FB8
:10179300900014E0FEA3E0FFC3E49FFFE49EFE90ED
:1017A3000329E0FCA3E0FDD39FEE6480F8EC6480A2
:1017B30098500A900014ECF0A3EDF0806B90018335
:1017C300E0FEA3E024DDF582EE3401F583E4932407
:1017D30001FDE433FC900014E0FEA3E0FFC390039B
:1017E3002AE09FFF900329E09EFE124EF0EEF0A345
:1017F300EFF04E7010900015E004F0701C90001490
:10180300E004F08014900329E0FEA3E0FF900015AC
:10181300E02FF0900014E03EF0900014E0FFA3E00E
:10182300900329CFF0A3EFF0900329E0FEA3E0FF9C
:10183300C374649FFFE49EFE90000EF0A3EFF0D309
:101843009400EE64809480500890000EE4F0A304AA
:10185300F0900325E0FEA3E0FF7C007D03124E8998
:10186300CAEECACBEFCBA3E0FEA3E0FF7D07124E87
:1018730089D3EF9BEA6480F8EE648098403C900340
:1018830025E0FEA3E0FFE49FFFE49EFE7D03124EEE
:1018930089CAEECACBEFCBA3E0FEA3E0FF7D07121C
:1018A3004E89D3EF9BEA6480F8EE648098400B90F6
:1018B3000183E0FEA3E024D78068900325E0FEA324
:1018C300E0FF7C007D03124E89CAEECACBEFCBA3A7
:1018D300E0FEA3E0FF7D07124E89C3EF9BEA64801D
:1018E300F8EE648098504A900325E0FEA3E0FFC31E
:1018F300E49FFFE49EFE7D03124E89CAEECACBEF3E
:10190300CBA3E0FEA3E0FF7D07124E89C3EF9BEA62
:101913006480F8EE6480985018900183E0FEA3E0A1
:1019230024D8F582EE3401F583E493FD7FFF12742E
:10193300C6900325E0FEA3E0FF7C007D07124E89DD
:10194300CAEECACBEFCBA3E0FEA3E0FF7D03124EAA
:1019530089D3EF9BEA6480F8EE648098403C90035F
:1019630025E0FEA3E0FFE49FFFE49EFE7D07124E09
:1019730089CAEECACBEFCBA3E0FEA3E0FF7D03123F
:101983004E89C3EF9BEA6480F8EE648098500B9015
:101993000183E0FEA3E024D9806E900325E0FEA33B
:1019A300E0FF7C007D07124E89CAEECACBEFCBA3C2
:1019B300E0FEA3E0FF7D03124E89C3EF9BEA648040
:1019C300F8EE6480984003022458900325E0FEA3B8
:1019D300E0FFC3E49FFFE49EFE7D07124E89CAEE3B
:1019E300CACBEFCBA3E0FEA3E0FF7D03124E89D366
:1019F300EF9BEA6480F8EE648098500302245890C9
:101A03000183E0FEA3E024DAF582EE3401F583E4FA
:101A130093FD7FFF0274C6900183E0FEA3E024DF01
:101A2300F582EE3401F583E493FB3395E0FA780312
:101A3300900325E0FEA3E0CEA2E713CE13D8F8FF70
:101A4300CDEBCDCCEACC124E897804EFCEA2E713CE
:101A5300CE13D8F8FF900325EEF0A3EFF07803A39D
:101A6300E0FEA3E0CEA2E713CE13D8F8FFCDEBCD73
:101A7300CCEACC124E897804EFCEA2E713CE13D86A
:101A8300F8FF900327EEF0A3EFF0900014E0FEA31D
:101A9300E0FFD39400EE648094804002800F9000B6
:101AA30014E0FEA3E0FFC3E49FFFE49EFE90032542
:101AB300E0FCA3E0FDD39400EC64809480400280BA
:101AC3000F900325E0FCA3E0FDC3E49DFDE49CFC33
:101AD300D3ED9FEE6480F8EC6480985002802E90E2
:101AE3000014E0FEA3E0FFD39400EE6480948040F2
:101AF30002800F900014E0FEA3E0FFC3E49FFFE425
:101B03009EFED3EF9420EE648094834012900325CD
:101B1300E0FFA3E0900014CFF0A3EFF0021C3E908F
:101B23000014E0FEA3E0FFD39400EE6480948040B1
:101B3300028007C3E49FFFE49EFECCEECCCDEFCD45
:101B4300900183E0FAA3E0FB24DEF582EA3401F599
:101B530083E49375F00AA4FFD3ED9FE5F06480F866
:101B6300EC648098405DEB24DDF582EA3401F58373
:101B7300E4932401FDE433FC900014E0FEA3E0FFB2
:101B8300900325E0FAA3E0FBC39FFFEA9EFE124EFB
:101B9300F0900329EEF0A3EFF04E6003021C2AC37A
:101BA300EA6480948050077EFF7FFF021C32D3EBF0
:101BB3009400EA648094807E0040047F0180027F69
:101BC30000806C900183E0FEA3E024DDF582EE3417
:101BD30001F583E49375F00AA42401FDE435F0FCD8
:101BE300900014E0FEA3E0FF900325E0FAA3E0FBDE
:101BF300C39FFFEA9EFE124EF0900329EEF0A3EF7F
:101C0300F04E7023C3EA6480948050067EFF7FFF0A
:101C13008013D3EB9400EA648094807E0040047FB9
:101C23000180027F008008900329E0FEA3E0FF907B
:101C33000015E02FF0900014E03EF0900016E0FE57
:101C4300A3E0FFD39400EE648094804002800F9061
:101C53000016E0FEA3E0FFC3E49FFFE49EFE9003B3
:101C630027E0FCA3E0FDD39400EC64809480400261
:101C7300800F900327E0FCA3E0FDC3E49DFDE49CFB
:101C8300FCD3ED9FEE6480F8EC6480985002802EC4
:101C9300900016E0FEA3E0FFD39400EE64809480EE
:101CA3004002800F900016E0FEA3E0FFC3E49FFF15
:101CB300E49EFED3EF9420EE64809483401290035D
:101CC30027E0FFA3E0900016CFF0A3EFF0021DEA98
:101CD300900016E0FEA3E0FFD39400EE64809480AE
:101CE30040028007C3E49FFFE49EFECCEECCCDEF21
:101CF300CD900183E0FAA3E0FB24DEF582EA340110
:101D0300F583E49375F00AA4FFD3ED9FE5F06480B7
:101D1300F8EC648098405AEB24DDF582EA3401F54F
:101D230083E4932401FDE433FC900016E0FEA3E07A
:101D3300FF900327E0FAA3E0FBC39FFFEA9EFE1296
:101D43004EF0A3EEF0A3EFF04E6003021DD6C3EAFC
:101D53006480948050067EFF7FFF807FD3EB9400E6
:101D6300EA648094807E0040047F0180027F0080CB
:101D73006A900183E0FEA3E024DDF582EE3401F5F1
:101D830083E49375F00AA42401FDE435F0FC90008C
:101D930016E0FEA3E0FF900327E0FAA3E0FBC39F56
:101DA300FFEA9EFE124EF0A3EEF0A3EFF04E702377
:101DB300C3EA6480948050067EFF7FFF8013D3EBD9
:101DC3009400EA648094807E0040047F0180027F57
:101DD300008008900329E0FEA3E0FF900017E02FA6
:101DE300F0900016E03EF0900014E0FEA3E0FF90B8
:101DF3000011E02FF0900010E03EF0900016E0FE9E
:101E0300A3E0FF900013E02FF0900012E03EF0906B
:101E13000010E0FEA3E0FFD39440EE6480946040A2
:101E23000280047EE07F40C3EF94C0EE6480949F01
:101E33005019900010E0FEA3E0FF9440EE648094FC
:101E4300604002800A7EE07F4080047E1F7FC09056
:101E53000010EEF0A3EFF0A3E0FEA3E0FFD3944065
:101E6300EE64809460400280047EE07F40C3EF9480
:101E7300C0EE6480949F5019900012E0FEA3E0FF2F
:101E83009440EE648094604002800A7EE07F40804C
:101E9300047E1F7FC0900012EEF0A3EFF0900010BD
:101EA300E0FCA3E0FD7806CEECCECEA2E713CE1382
:101EB300D8F8900041F07806900012E0FEA3E0CE3F
:101EC300A2E713CE13D8F8F404F9900042F090007F
:101ED30041E0FF3395E0FE7806EFC333CE33CED82F
:101EE300F9FFC3ED9FFFEC9E900010F0A3EFF0E924
:101EF300FF3395E0FE7806EFC333CE33CED8F9FF38
:101F0300900013E02FF0900012E03EF022900010BA
:101F1300E0FEA3E0FF900325E0FCA3E0FDC39FFFE9
:101F2300EC9EFE7802EFCEA2E713CE13D8F8FF9013
:101F33000329EEF0A3EFF04E7023C3EC648094808A
:101F430050067EFF7FFF801DD3ED9400EC648094E8
:101F5300807E0040047F0180027F00800890032977
:101F6300E0FEA3E0FF900011E02FF0900010E03EB0
:101F7300F0900012E0FEA3E0FF900327E0FCA3E053
:101F8300FDC39FFFEC9EFE7802EFCEA2E713CE13B4
:101F9300D8F8FF900329EEF0A3EFF04E7023C3ECC3
:101FA3006480948050067EFF7FFF801DD3ED9400F4
:101FB300EC648094807E0040047F0180027F008077
:101FC30008900329E0FEA3E0FF900013E02FF090B8
:101FD3000012E03EF0900325E0FAA3E0FBD3940067
:101FE300EA64809480900183E0FE4006A3E024DA53
:101FF3008004A3E024D9F582EE3401F583E493FF52
:10200300900014E4F0A3EFF0D3ED9400EC6480941B
:1020130080900183E0FE4006A3E024D78004A3E080
:1020230024D8F582EE3401F583E493FF900016E49F
:10203300F0A3EFF0900014E0FEA3E0FFC3941EEEC4
:10204300648094804017D3EF9427EE64809480508B
:102053000CEF25E0FFEE33FEEF24C680279000143B
:10206300E0FEA3E0FFC39459EE648094804022D342
:10207300EF9462EE648094805017EF25E0FFEE3317
:10208300FEEF244FFFEE34FF900014F0A3EFF08037
:1020930007E4900014F0A3F0900016E0FEA3E0FF25
:1020A300C3941EEE648094804017D3EF9427EE64AC
:1020B300809480500CEF25E0FFEE33FEEF24C680C2
:1020C30027900016E0FEA3E0FFC39459EE648094CA
:1020D300804022D3EF9462EE648094805017EF2502
:1020E300E0FFEE33FEEF244FFFEE34FF900016F0D7
:1020F300A3EFF08007E4900016F0A3F0D3EB940174
:10210300EA64809470400A900325E0FEA3E0FF8018
:10211300047EF07F01C3EF94FFEE6480948F501927
:10212300900325E0FEA3E0FF9401EE6480947040E9
:1021330002800A7EF07F0180047E0F7FFF900325DB
:10214300EEF0A3EFF0D3ED9401EC648094704008BB
:10215300A3E0FEA3E0FF80047EF07F01C3EF94FFC2
:10216300EE6480948F5019900327E0FEA3E0FF9460
:1021730001EE648094704002800A7EF07F01800447
:102183007E0F7FFF900327EEF0A3EFF0900014E0A3
:10219300FEA3E0FFCBEFCBCAEECAEA3395E0F9F832
:1021A300900010E0FEA3E0FFEE3395E0FDFC124F3C
:1021B3005BC8ECC8C9EDC9CAEECACBEFCB900183AB
:1021C300E0FEA3E024DFF582EE3401F583E493FF20
:1021D300E4FCFDFE124F5BE47B7DFAF9F8127F729B
:1021E300900014EEF0A3EFF0A3E0FEA3E0FFEE33C4
:1021F30095E0FDFC125078C8ECC8C9EDC9CAEECA17
:10220300CBEFCB900012E0FEA3E0FFEE3395E0FDB1
:10221300FC124F5BC8ECC8C9EDC9CAEECACBEFCB01
:10222300900183E0FEA3E024DFF582EE3401F58321
:10223300E493FFE4FCFDFE124F5BE47B7DFAF9F8C7
:10224300127F72900016EEF0A3EFF0900183E0FE90
:10225300A3E024DDF582EE3401F583E493FFE4FC8F
:10226300FDFE7BFF7A7FF9F8124F5BE47B32FAF9CC
:10227300F8127F72900325EEF0A3EFF0900183E054
:10228300FEA3E024DEF582EE3401F583E493FFE45C
:10229300FCFDFE7BFF7A7FF9F8124F5BE47B32FA99
:1022A300F9F8127F72900327EEF0A3EFF0D39000BA
:1022B30015E09400900014E06480948040479003FC
:1022C30025E0FEA3E0FFCBEFCBCAEECAEA3395E0ED
:1022D300F9F8900014E0FEA3E0FFEE3395E0FDFC77
:1022E300EB2FFFEA3EFEE93DFDE83CFCE47BFF7A91
:1022F3007FF9F8C3125086500C900325747FF0A326
:1023030074FFF08055C3900014E0648094805036CD
:10231300900325E0FEA3E0FFCBEFCBCAEECAEA337E
:1023230095E0F9F8900014E0FEA3E0FFEE3395E0AA
:10233300FDFCEB2FEA3EE93DE83C335009E4900312
:1023430025F0A3F08014900014E0FEA3E0FF9003B7
:1023530026E02FF0900325E03EF0D3900017E094A1
:1023630000900016E0648094804047900327E0FECD
:10237300A3E0FFCBEFCBCAEECAEA3395E0F9F890BE
:102383000016E0FEA3E0FFEE3395E0FDFCEB2FFF2C
:10239300EA3EFEE93DFDE83CFCE47BFF7A7FF9F889
:1023A300C3125086500C900327747FF0A374FFF080
:1023B3008056C3900016E0648094805037900327C2
:1023C300E0FEA3E0FFCBEFCBCAEECAEA3395E0F918
:1023D300F8900016E0FEA3E0FFEE3395E0FDFCEB82
:1023E3002FFFEA3EE93DE83C335009E4900327F030
:1023F300A3F08014900016E0FEA3E0FF900328E012
:102403002FF0900327E03EF0900325E0FCA3E0FDCE
:10241300CFEDCF900047F0ECFFEFA3F0900327E060
:10242300FCA3E0FDCFEDCF900049F0ECFFEFA3F06C
:102433009000467411F090000EE07002A3E07F005C
:1024430070027F017E0090000EEEF0A3EFF025E016
:1024530014900041F022E4900325F0A374FFF0E40C
:10246300900329F0A3F0EF604A900370E0FCA3E02F
:10247300FDA3E0FEA3E0FF9002901250D3900370FF
:10248300E0FCA3E0FDA3E0FEA3E02401FFE43EFEA5
:10249300ED34FFFDEC34FFFC9002941250D37E0028
:1024A3007F107D007B017A0279F812516FE490026C
:1024B3009AF0229002F6E0FF5470600BEF20E703DE
:1024C30002349E547FF022900370A3A3A3E0FF90F5
:1024D300029BE0FEC3EF9EC39414500302349EE0BC
:1024E3002414F0900308E0FEA3E0F5828E8374F5D4
:1024F30093700374F493603AE4900327F0900327F6
:10250300E0FFC39410502B74282FF582E43400F5B8
:1025130083E06016900370E0FCA3E0FDA3E0FEA35C
:10252300E0FF9002941250D38008900327E004F058
:1025330080CB90029AE0540FFFBF021D7403F0900A
:102543000370E0FCA3E0FDA3E0FEA3E0FF90029094
:102553001250D390029C74FFF090029AE0540F64DF
:10256300036003022688900298E0FEA3E0FFCBEF0E
:10257300CBCAEECA900308E0FEA3E0F5828E837413
:10258300F893FE74F993FFEF2BFFEE3AFEE433FD6D
:10259300E433C0E0EDC0E0EEC0E0EFC0E0900290B5
:1025A300E0F8A3E0F9A3E0FAA3E0FB900370E0FCFA
:1025B300A3E0FDA3E0FEA3E0C39BFBEE9AFAED9933
:1025C300F9EC98F8D0E0FFD0E0FED0E0FDD0E0FCDD
:1025D300D312509C5003022688900308E0FEA3E028
:1025E300F5828E8374F493FE74F593FF4E604C7CF6
:1025F300007D0A125142ECC0E0EDC0E0EEC0E0EF16
:10260300C0E0900294E0F8A3E0F9A3E0FAA3E0FBB2
:10261300900370E0FCA3E0FDA3E0FEA3E0C39BFBFB
:10262300EE9AFAED99F9EC98F8D0E0FFD0E0FED0FD
:10263300E0FDD0E0FCD312509C404A900308E0FE3A
:10264300A3E0F5828E8374FB93700374FA93602680
:10265300127E05AD8AEF6DFF900308E0FCA3E0F561
:10266300828C8374FA93FC74FB93FD124E9BCEEC25
:10267300CECFEDCF80047E007F00900298EEF0A3D2
:10268300EFF0E4A3F090029AE0540F60030228B73E
:1026930004F0900370E0FCA3E0FDA3E0FEA3E0FFE1
:1026A3009002901250D3E490029CF0900308E0FE55
:1026B300A3E0F5828E8374F193FF7003022891EFF8
:1026C300D39404501B900308E0FEA3E0F5828E83AD
:1026D30074F1931475F008A4FD74F0932D0228ABE4
:1026E300900308E0FEA3E0F5828E8374F193B405B2
:1026F300030228B1E4900328F0900327F090030825
:10270300E0FEA3E0F5828E8374EB932401FFE433B0
:10271300FE900327E0FDC39FEE6480F87480985019
:1027230042EDC39409503CE0FF900308E0FCA3E0B2
:1027330024E0F582E43CF583E5822FF582E43583DA
:10274300F583E493FF600ED394045009900328E0CB
:102753002408F08006900328E004F0900327E004A7
:10276300F0809A900308E0FEA3E0F5828E8374F173
:1027730093B40613900328E0FF90029EE004F0C395
:102783009F4037E4F08033127E05AD8AEF6DFF90F2
:102793000328E0FBFD7C00124EF0CFEDCF90032722
:1027A300EFF090029EE0FF900327E0FE6F7006EBD0
:1027B300D3940150D290029EEEF0E4900328F0905F
:1027C3000327F0900308E0FEA3E0F5828E8374EB09
:1027D300932401FFE433FE900327E0FDD39FEE64CF
:1027E30080F8748098400302288AED94094003021C
:1027F300288A90029EE0FF900328E09F404A9003BE
:1028030027E0F924DFFFE433FE900308E0FCA3E0B4
:10281300FD2FF582EC3EF583E4936015D3940450C9
:102823001090029EE02408FF900328E0FEC3EF9E71
:10283300F0E924DFFFE433FEED2FF582EC3EF58370
:10284300E493900327F0803F900327E0FF90030871
:10285300E0FCA3E024E0F582E43CF583E5822FF578
:1028630082E43583F583E493600ED3940450099096
:102873000328E02408F08006900328E004F0900386
:1028830027E004F00227C6900327E0FF70089002B8
:102893009F74C8F0801EEFD394045012EF1475F0A8
:1028A30008A4FF900328E02F90029FF08006900277
:1028B3009F7464F090029AE0540F6401705990037E
:1028C30070A3A3E0FEA3E0FFCBEFCBCAEECA900256
:1028D30090A3A3E0FEA3E0FFC3EB9FFFEA9EFE905D
:1028E3000308E0FCA3E0F5828C83C374F7939F7421
:1028F300F6939E502290029FE064C8601A90037082
:10290300E0FCA3E0FDA3E0FEA3E0FF9002901250E1
:10291300D390029CE004F090029FE0FFC394205008
:102923000FEF75F010A4240BF9748635F0FA801BB1
:1029330090029FE0B4643B900309E02490FF90036E
:1029430008E03400FECAEECAC9EFC97BFFEBC0E062
:10295300EAC0E0E9C0E0C874A1C8CC7402CCCD746D
:1029630001CDD0E0F9D0E0FAD0E0FB7E007F101279
:102973004E02900308E0FEA3E0FFCAEECAC9EFC906
:102983007BFFEBC0E0EAC0E0E9C0E0C874B1C8CCAB
:102993007402CCCD7401CDD0E0F9D0E0FAD0E0FBE5
:1029A3007E007F30124E02E4900327F0900308E08C
:1029B300FEA3E0F5828E8374F3937003022ABA7444
:1029C300F29320E003022ABA900327E0FE75F00396
:1029D300A424B1F582E43402F583E0C0E0EE75F09F
:1029E30003A424B2F582E43402F583E0C0E090034B
:1029F30027E0FF75F003A424B3F582E43402F583E2
:102A0300E0C0E0EF75F003A4FFAEF024B1F9740267
:102A13003EFA7B01EBC0E0EAC0E0E9C0E074B22F0C
:102A2300F974023EFAEBC0E0EAC0E0E9C0E074B337
:102A33002FF974023EFA90033BEBF0A3EAF0A3E90B
:102A4300F0D0E0F9D0E0FAD0E0900338F0A3EAF058
:102A5300A3E9F0D0E0F9D0E0FAD0E0FB900335F041
:102A6300A3EAF0A3E9F0900308E0FEA3E0F5828E69
:102A73008374F393FFCBEFCBE4FAF9F8900370E0A0
:102A8300FCA3E0FDA3E0FEA3E0FF124FE6E47BEA34
:102A93007A03F9F8124FE6CCE8CCCDE9CDCEEACEF5
:102AA300CFEBCF900333EEF0A3EFF0D0E0FBD0E019
:102AB300FDD0E0FF1251E090029FE064C860030282
:102AC3002D6E900308E0FEA3E0F5828E8374F793E6
:102AD300700374F6937003022D6E900370A3A3E04A
:102AE300FEA3E0FFCBEFCBCAEECA900290A3A3E014
:102AF300FEA3E0FFC3EB9FFBEA9EFA900308E0FE10
:102B0300A3E0F5828E8374F693FE74F793FFD39458
:102B1300E8EE9403400280047E037FE87C037DE8B3
:102B2300124E9BCDEFCDCCEECCCFEBCFCEEACE1277
:102B33004E9B7C037DEA124E9B90032BECF0A3ED9E
:102B4300F0C394F5EC9401403890032BE0FEA3E02E
:102B5300FF74E99FF074039E90032BF0900308E049
:102B6300FEA3E0F5828E8374FD9375F00384AFF0CA
:102B7300900329E4F0A3EFF090029AE04480F08000
:102B830037900308E0FEA3E0F5828E8374FC93750F
:102B9300F00384AFF0900329E4F0A3EFF090029ADE
:102BA300E0B48114900327E0B40F0690029A7402F4
:102BB300F0E490032BF0A3F090029AE0540F640129
:102BC3006007E490032BF0A3F0900329E07002A3C5
:102BD300E07071900328F0900328E0FFC394034052
:102BE30003022D65900327E075F003A42FF582E41B
:102BF30035F0F583E58224B1F582E5833402F5836C
:102C0300E0FF7E0090032BE0FCA3E0FD125142E4C1
:102C13007BF47A01F9F8124FE6900328E0FE900363
:102C230027E075F003A42EF582E435F0F583E58201
:102C330024B1F582E5833402F583EFF0900328E0B5
:102C430004F08093900329E07004A3E0640160031F
:102C5300022CE890032BE0FEA3E0FF7C007DFF1233
:102C63005142E47BF47A01F9F8124FE6740B2FF525
:102C73008274853EF583E493FF90032BE4F0A3EF86
:102C8300F0E4900328F0900328E0FB900327E0FA98
:102C930075F003A42BF582E435F0F583E58224B1C6
:102CA300F582E5833402F583E0FF7E0090032BE099
:102CB300FCA3E0FD124E897C007DFF124E9B75F054
:102CC30003EAA42BF582E435F0F583E58224B1F51C
:102CD30082E5833402F583EFF0900328E004F0E00B
:102CE300B403A3807D90032BE0FEA3E02416F582BA
:102CF30074833EF583E493FF90032BE4F0A3EFF09A
:102D0300E4900328F0900328E0FB900327E0FA7592
:102D1300F003A42BF582E435F0F583E58224B1F5C5
:102D230082E5833402F583E0FF7E0090032BE0FC11
:102D3300A3E0FD124E897C007DFF124E9B75F003CC
:102D4300EAA42BF582E435F0F583E58224B1F5821C
:102D5300E5833402F583EFF0900328E004F0E0B458
:102D630003A39003257401F0022F7090029FE06487
:102D7300C87003022F70900327E0FB24A1F582E4BF
:102D83003402F583E0FF90029CE0FEEF6E600302E5
:102D93002E9E90032504F0900308E0FEA3E0F58245
:102DA3008E8374FC93FFC3741F9FFFE49400FE9013
:102DB3000329F0A3EFF0D3940AEE64809480401DBE
:102DC300900329E0FEA3E0FF7C007D0A124E89EF09
:102DD30024A6FFEE34FF900329F0A3EFF074F82B41
:102DE300F582E43402F583E0FFC374FF9FFFE494AC
:102DF30000FE900329E0FCA3E0FDC39FEE6480F88E
:102E0300EC6480985015CFEDCF900327E024F8F5BC
:102E130082E43402F583E02FF08010900327E0244E
:102E2300F8F582E43402F58374FFF0E4900328F0AC
:102E3300900328E0FB900327E0FD75F003A42BF536
:102E430082E435F0F583E58224B1F582E58334022B
:102E5300F583E0FF7E0074F82DF582E43402F583F8
:102E6300E090850B93FD7C00124E897DFF124E9BF3
:102E7300900327E075F003A42BF582E435F0F58386
:102E8300E58224B1F582E5833402F583EFF0900304
:102E930028E004F0E0B40398022F70900308E0FEEA
:102EA300A3E0F5828E8374FD932401FDE433FC904B
:102EB3000327E024F8F582E43402F583E0FBFF7E88
:102EC30000124EF0900329EEF0A3EFF0EB601190A7
:102ED3000329E07002A3E07007900329F0A304F034
:102EE300900327E024F8F582E43402F583C083C01D
:102EF30082E0FF900329A3E0FDCEEDCEC3EF9ED089
:102F030082D083F0E4900328F0900328E0FB900341
:102F130027E0FD75F003A42BF582E435F0F583E596
:102F23008224B1F582E5833402F583E0FF7E0074E9
:102F3300F82DF582E43402F583E0FD7C00124E891E
:102F43007DFF124E9B900327E075F003A42BF582BF
:102F5300E435F0F583E58224B1F582E5833402F5A7
:102F630083EFF0900328E004F0E0B4039C90032780
:102F7300E02428F582E43400F583E0700302301086
:102F8300900327E0FF900308E0FCA3E02FF582E421
:102F93003CF5837460932401FDE433FC74E62FF560
:102FA30082E43402F583E0FBFFC374FF9FFFE494E4
:102FB30000FE124EF0900329EEF0A3EFF0C374FF6E
:102FC3009B6011900329E07002A3E070079003292E
:102FD300F0A304F0900329A3E0FF900327E0FE246D
:102FE300E6F582E43402F583E02FF0900308E0FC79
:102FF300A3E02EF582E43CF583748093FF900326CF
:10300300E0D39F50030230DFEFF00230DF9003275D
:10301300E0FF900308E0FCA3E02FF582E43CF58396
:103023007470932401FDE433FC74E62FF582E434D9
:1030330002F583E0FBFF7E00124EF0900329EEF0D1
:10304300A3EFF0EB6011900329E07002A3E0700797
:10305300900329F0A304F0900327E024E6F582E42B
:103063003402F583C083C082E0FF900329A3E0FD0F
:10307300CEEDCEC3EF9ED082D083F0E4900328F050
:10308300900328E0FB900327E0FA75F003A42BF5E7
:1030930082E435F0F583E58224B1F582E5833402D9
:1030A300F583E0FF90029DE0FEEF8EF0A4FFAEF00B
:1030B3007C007DFF124E9B75F003EAA42BF582E49E
:1030C30035F0F583E58224B1F582E5833402F58397
:1030D300EFF0900328E004F0E0B403A4900308E0C9
:1030E300FCA3E0FDF5828C8374F393FE700302323C
:1030F3005074F29320E103023250900308A3E0F5E9
:10310300828C83C083C082900327E0FBD082D0836C
:1031130075F003125110743093C0E08D828C837567
:10312300F003EB125110743193C0E0900308A3E055
:10313300F5828C83C083C082900327E0D082D08342
:1031430075F003125110743293FBC0E0CBEECBE465
:10315300FAF9F8900370E0FCA3E0FDA3E0FEA3E01E
:10316300FF124FE6E47BEA7A03F9F8124FE6CCE864
:10317300CCCDE9CDCEEACECFEBCF900333EEF0A3A7
:10318300EFF0A37401F0A37403F0A3742DF0A37400
:1031930001F0A37403F0A3742EF0A37401F0A374DD
:1031A30003F0A3742FF0D0E0FBD0E0FDD0E0FF12DA
:1031B30051E090032DE0FF900327E0FD75F003A499
:1031C30024B1F582E43402F583E0FBC3EF9BFFE413
:1031D3009400FE74E62DF582E43402F583E0FD7C71
:1031E30000124E897DFF124EF0900327E0FE75F02A
:1031F30003A424B1F582E43402F583E02FF09003B5
:103203002EE0FDEE75F003A424B2F582E43402F55A
:1032130083E0FFC3ED9FFFE49400FE900327E0FBF0
:1032230024E6F582E43402F583E0FD7C00124E8946
:103233007DFF124EF0EB75F003A424B2F582E43463
:1032430002F583E02FF090032FE00233249003086C
:10325300E0FAA3E0FBF5828A83C083C08290032750
:10326300E0FFD082D08375F003125110743093FDC8
:10327300EF75F003A424B1F582E43402F583E0FF93
:10328300C3ED9FFFE49400FE900327E024E6F5825C
:10329300E43402F583E0FD7C00124E897DFF124E7B
:1032A300F0900327E0FE75F003A424B1F582E43423
:1032B30002F583E02FF08B828A8375F003EE1251BF
:1032C30010743193FF900327E0FD75F003A424B23B
:1032D300F582E43402F583E0FBC3EF9BFFE4940043
:1032E300FE74E62DF582E43402F583E0FD7C0012E2
:1032F3004E897DFF124EF0900327E0FE75F003A484
:1033030024B2F582E43402F583E02FF0900308E061
:10331300FCA3E0F5828C8375F003EE125110743236
:1033230093FF900327E0FD75F003A424B3F582E433
:103333003402F583E0FBC3EF9BFFE49400FE74E6E5
:103343002DF582E43402F583E0FD7C00124E897D85
:10335300FF124EF0900327E075F003A424B3F58227
:10336300E43402F583E02FF0900327E004F0E0C398
:10337300941050030229AF900325E0700A90029A3B
:10338300E0540F64016037900308E0FEA3E0F58288
:103393008E8374F593700374F4936028900370E044
:1033A300FCA3E0FDA3E0FEA3E0FF900294E0F8A3FA
:1033B300E0F9A3E0FAA3E0FBC312509C700690026D
:1033C3009A7402F090029DE0FB900326E0FAD39BEF
:1033D3004073900308E0FEA3E0F5828E8374FE93AE
:1033E300FF741F9FFFE49400FE900329F0A3EFF006
:1033F300D3940AEE64809480401D900329E0FEA3D9
:10340300E0FF7C007D0A124E89EF24A6FFEE34FF15
:10341300900329F0A3EFF0EBFFEAC39FFFE49400CE
:10342300FE900329E0FCA3E0FDC39FEE6480F8EC6B
:10343300648098500ACFEDCF90029DE02FF0229048
:103443000326E0805290029DE0FF900326E0FEC336
:103453009F5048EEFDC3EF9DFFE49400FE900308E8
:10346300E0FCA3E0F5828C8374FF932401FDE43335
:10347300FC124EF0900329EEF0A3EFF04E7007908C
:103483000329F0A304F090029DE0FF900329A3E039
:10349300FDCEEDCEC3EF9E90029DF022E490031388
:1034A300F0A3F0900055F09001B7F0900182F090F6
:1034B300017FF090003BF0C8748FC8CC7401CCCD71
:1034C3007401CD7B017A007959FE7F15124E027E7D
:1034D300007F157D007B017A00795912516F9000AE
:1034E30040E0900052F07E007F047D007B017A0073
:1034F300794012516F9000457410F07E007F047D77
:10350300FF7B017A00794712516F900054E09001DC
:1035130086F0E4900054F09001DBE0540190004EFB
:10352300F0E49001DCF09001DBF090004DE0C43357
:1035330054E0247FF582E43400F583E0FEA3E04EFB
:1035430070037FFF2290003EE0604824A3F582E4ED
:103553003401F583E0602290003EE02427F582E405
:103563003400F583E070129001D9E054036003E066
:1035730014F09001D9E04404F09001D8E07F00708A
:10358300027F019001D8EFF07003024142124268BA
:10359300024142E4900314F0900314E0FFC394103B
:1035A300505974282FF582E43400F583E060449089
:1035B300018DE0FF900314E0FE6F603790004DE053
:1035C300C43354E0247FF582E43400F58375F002BC
:1035D300EE125110E0FEA3E0F5828E83740193FF97
:1035E30064016009EF64026004EFB40706900313FB
:1035F300E004F0900314E004F0809DE4900314F0E1
:10360300900314E0FFC394104003023D3190018DF9
:10361300E0FEEF6E7057900314E02428F582E43443
:1036230000F583E06003023D2874A42FF582E4349F
:1036330001F583E06003023D2890004FE004F0E0D1
:10364300D3940A5003023D28E4F0900314E02403CA
:10365300FF900057E0FD1274C6900185E004FF7DE2
:103663000212783090018D74FFF0023D289003140C
:10367300E0FF2428F582E43400F583E07003023B85
:103683006290004DE0C43354E0247FF582E43400BB
:10369300F58375F002EF125110E0FEA3E0FFF5820F
:1036A3008E83740193B401061274B5023D28900011
:1036B3004DE0C43354E0247FF582E43400F583C045
:1036C30083C082900314E0D082D08375F00212513C
:1036D30010E0FEA3E0FFF5828E8374019364027011
:1036E300401274B5900059E0FF90004DE0C433548C
:1036F300E0247FF582E43400F583C083C082900325
:1037030014E0D082D08375F002125110E0FCA3E0E4
:10371300F5828C83740393FEEF4E900059F0023DC3
:103723002890004DE0C43354E0247FF582E4340054
:10373300F583C083C082900314E0FFD082D08375E9
:10374300F002125110E0FCA3E0FDF5828C837401BA
:10375300936403704574A42FF582E43401F583E088
:103763006003023D28900313E06003023D28A3E0B9
:103773000490003EF0ED2403FEE43C900050F0A3DF
:10378300CEF0E490003CF0A3F09001D97402F090E5
:1037930001D814F0124268023D2890004DE0C43372
:1037A30054E0247FF582E43400F583C083C0829023
:1037B3000314E0D082D08375F002125110E0FEA30F
:1037C300E0F5828E83740193FF64046008EF64055F
:1037D3006003023965900314E0FF24A4F582E43406
:1037E30001F583E0700D746F2FF582E43400F583E7
:1037F3007402F090004DE0C43354E0247FF582E47A
:103803003400F583C083C082900314E0D082D08358
:1038130075F002125110E0FEA3E02402FFE43E8F94
:1038230082F583E493FE740193FFE4FCFDFB7A804D
:10383300F9F8124F5BECC0E0EDC0E0EEC0E0EFC082
:10384300E0900183E0FEA3E024FAF582EE3401F573
:1038530083E493FE740193FFCBEFCBCAEECAE4F982
:10386300F8D0E0FFD0E0FED0E0FDD0E0FC127F72A4
:10387300900315EEF0A3EFF090004DE0C43354E055
:10388300247FF582E43400F583C083C0829003145F
:10389300E0D082D08375F002125110E0FEA3E02441
:1038A30004FFE43E8F82F583E493FE740193FFE407
:1038B300FCFDFB7A80F9F8124F5BECC0E0EDC0E051
:1038C300EEC0E0EFC0E0900183E0FEA3E024FCF54E
:1038D30082EE3401F583E493FE740193FFCBEFCBC7
:1038E300CAEECAE4F9F8D0E0FFD0E0FED0E0FDD0A4
:1038F300E0FC127F72900317EEF0A3EFF090031534
:10390300E0FCA3E0FDCFEDCF900047F0ECA3F090F7
:103913000317E0FCA3E0FDCFEDCF900049F0ECA34B
:10392300F090004DE0C43354E0247FF582E434008A
:10393300F583C083C082900314E0FBD082D08375EB
:10394300F002125110E0FCA3E0F5828C8374019322
:10395300B40507900045E04401F0900046EBF00207
:103963003D2890004DE0C43354E0247FF582E434D5
:1039730000F583C083C082900314E0FFD082D0831C
:1039830075F002125110E0FCA3E0FDF5828C837404
:10399300019364066003023A4974A42FF582E43468
:1039A30001F583E06003023D2890018DE0F460039C
:1039B300023D288D828C8374039320E703023D2804
:1039C30090004DE0C43354E0247FF582E43400F5E5
:1039D30083C083C082900314E0D082D08375F00249
:1039E300125110E0FEA3E0FFF5828E8374029390E0
:1039F3000057F090004DE0900185F0900183E0FCCA
:103A0300A3E024FEF582EC3401F583E493900319DB
:103A1300F08F828E83740393FF7D011278309003BD
:103A230014E0FF900319E0FD900183E0FAA3E02482
:103A3300FEF582EA3401F583E493FB1281C0900121
:103A43008DEFF0023D3190004DE0C43354E0247F0C
:103A5300F582E43400F583C083C082900314E0FF51
:103A6300D082D08375F002125110E0FCA3E0FDF583
:103A7300828C83740193F96407703274A42FF582E6
:103A8300E43401F583E06003023D288D828C837466
:103A9300039330E003023D28900314E0246FF58282
:103AA300E43400F583E04402F0EF023C54E9640996
:103AB3006003023D28900187E0FF90004DE0C4338E
:103AC30054E0247FF582E43400F583C083C0829000
:103AD3000314E0FED082D08375F002125110E0FC93
:103AE300A3E0F5828C837402935403FDC8EDC8747C
:103AF30001088002C333D8FC4F900187F074A42ED1
:103B0300F582E43401F583E06003023D2890004D23
:103B1300E0C43354E0247FF582E43400F583C083AA
:103B2300C082900314E0D082D08375F0021251104A
:103B3300E0FEA3E0F5828E83740293C4540F9001D8
:103B430088F0900187E0FFED2404FEC8EEC87401FD
:103B5300088002C333D8FC4F900187F0023D2890C0
:103B63000314E0FF24A4F582E43401F583E0700339
:103B7300023D2890004DE0C43354E0247FF582E4F5
:103B83003400F58375F002EF125110E0FEA3E0F567
:103B9300828E83740193FFB40513900314E0246FA2
:103BA300F582E43400F5837401F0023D28EF6406E6
:103BB300704390004DE0C43354E0247FF582E43435
:103BC30000F583C083C082900314E0D082D0837554
:103BD300F002125110E0FEA3E0F5828E837403938A
:103BE300FF30E703023D2890018D74FFF0E4FD12DE
:103BF3007830023D2890004DE0C43354E0247FF533
:103C030082E43400F583C083C082900314E0FFD0C4
:103C130082D08375F002125110E0FCA3E0F5828C90
:103C230083740193FE6407704E74039330E034741D
:103C33006F2FF582E43400F583E0FF20E125900344
:103C430014E0FD246FF582E43400F583EF4402F0C1
:103C5300ED25E024B8F582E43401F583E4F0A3F024
:103C6300023D28900314E0246FF582E43400F583C9
:103C7300E054FDF0023D28EEB408037F01229000DA
:103C83004DE0C43354E0247FF582E43400F583C06F
:103C930083C082900314E0D082D08375F002125166
:103CA30010E0FEA3E0F5828E8374019364097075BE
:103CB3007402935403D394014039900187E0448004
:103CC300F090004DE0C43354E0247FF582E43400E7
:103CD300F583C083C082900314E0D082D08375F053
:103CE30002125110E0FEA3E0F5828E8374049390D8
:103CF3000056F090004DE0C43354E0247FF582E495
:103D03003400F583C083C082900314E0D082D08353
:103D130075F002125110E0FEA3E0F5828E83740366
:103D23009390006EF0900314E004F0023603E490E5
:103D33000314F0900314E0FFC394104003023F3FC9
:103D430090004DE0C43354E0247FF582E43400F561
:103D53008375F002EF125110E0FEA3E0F5828E832B
:103D6300740193FF64046008EF64056003023F3647
:103D7300900314E0246FF582E43400F583E0FF64DC
:103D8300016008EF64026003023F3690004DE0C417
:103D93003354E0247FF582E43400F583C083C0828A
:103DA300900314E0D082D08375F002125110E0FE2C
:103DB300A3E02402FFE43E8F82F583E493FE7401C3
:103DC30093FFE4FCFDFB7A80F9F8124F5BECC0E053
:103DD300EDC0E0EEC0E0EFC0E0900183E0FEA3E0C1
:103DE30024FAF582EE3401F583E493FE740193FF24
:103DF300CBEFCBCAEECAE4F9F8D0E0FFD0E0FED0B7
:103E0300E0FDD0E0FC127F72900315EEF0A3EFF01B
:103E130090004DE0C43354E0247FF582E43400F590
:103E230083C083C082900314E0D082D08375F002F4
:103E3300125110E0FEA3E02404FFE43E8F82F583D9
:103E4300E493FE740193FFE4FCFDFB7A80F9F8121E
:103E53004F5BECC0E0EDC0E0EEC0E0EFC0E09001EE
:103E630083E0FEA3E024FCF582EE3401F583E493C2
:103E7300FE740193FFCBEFCBCAEECAE4F9F8D0E0AE
:103E8300FFD0E0FED0E0FDD0E0FC127F729003177C
:103E9300EEF0A3EFF0900315E0FCA3E0FDCFEDCF30
:103EA300900047F0ECA3F0900317E0FCA3E0FDCFF4
:103EB300EDCF900049F0ECA3F0900314E09000469E
:103EC300F0246FF582E43400F583E06402704E90D1
:103ED300004DE0C43354E0247FF582E43400F583DD
:103EE300C083C082900314E0FBD082D08375F002BC
:103EF300125110E0FCA3E0F5828C837401939000CF
:103F030045B40506E04401F08004E054FEF0746F0C
:103F13002BF582E43400F5837403F0801FE49000F2
:103F230045F0900314E0246FF582E43400F583E454
:103F3300F08009900314E004F0023D36E490031A84
:103F4300F0900314F0900314E0FFC39410400302B5
:103F5300412690004DE0C43354E0247FF582E434DD
:103F630000F58375F002EF125110E0FEA3E0F58235
:103F73008E837401936407600302411D900370E014
:103F8300FCA3E0FDA3E0FEA3E0FF900000E0F8A3A4
:103F9300E0F9A3E0FAA3E0FBD312509C4036900370
:103FA30014E0FF25E024B8F582E43401F583E4F05E
:103FB300A3F0746F2FF582E43400F583E054FBF033
:103FC300900314E0246FF582E43400F583E054FD9C
:103FD300F002411D900314E0FF246FF582E43400E6
:103FE300F583E020E10302411D90004DE0C433540A
:103FF300E0247FF582E43400F58375F002EF12517B
:1040030010E0FEA3E0FF2404FDE43E8D82F58374FB
:1040130001937002E49370061274B50240E69003B4
:1040230014E0FF246FF582E43400F583E0FE30E210
:1040330011746F2FF582E43400F583EE54FBF00224
:1040430040E6900370A3A3E0FEA3E0FF900314E017
:1040530025E024B8F582E43401F583E0FCA3E0FD18
:10406300C3EF9DFFEE9CFE90004DE0C43354E0246B
:104073007FF582E43400F583C083C082900314E0AB
:10408300D082D08375F002125110E0FCA3E0FD242E
:1040930004FBE43C8B82F583D37401939FE4939EEA
:1040A3005041900314E0FF8D828C83740293FDEFE3
:1040B3002403FF1274C6900370A3A3E0FEA3E0FFE2
:1040C300900314E0FD25E024B8F582E43401F58380
:1040D300EEF0A3EFF0746F2DF582E43400F583E086
:1040E3004404F090004DE0C43354E0247FF582E4AF
:1040F3003400F583C083C082900314E0D082D08360
:1041030075F002125110E0FEA3E0F5828E83740372
:104113009330E00690031AE004F0900314E004F0F7
:10412300023F48900370E0FCA3E0FDA3E0FEA3E0A0
:10413300FF9000001250D390031AE090004CF0124D
:104143006F54E4FF12131EE4FF12487590003EE023
:104153007003126DF19003147401F0900314E0FFE7
:104163002458F582E43400F583E0FE748E2FF58243
:10417300E43401F583E06E600890003B7401F08045
:104183000A900314E004F0E0B416D0900052E0FF6C
:10419300900040E06F6002801D9003147402F09061
:1041A3000314E0FFC39405501D743F2FF582E434DC
:1041B30000F583E0600890017F7401F080089003AC
:1041C30014E004F080D99003147403F0900314E016
:1041D300FFC39407501E74442FF582E43400F58323
:1041E300E0F460089001827401F08008900314E009
:1041F30004F080D8900186E0FF900054E06F6006E1
:104203009001B77401F090004EE0FF9001DBE06F86
:104213007004A3E060069000557401F090018DE0F6
:10422300F4602390003BE0701890017FE0701290DF
:104233000182E0700C9001B7E07006900055E060D9
:1042430005E4900057F090004BE0B40115E49000B2
:1042530055F09001B7F0900182F090017FF090004B
:104263003BF07F002290031B7403F0900370E0FC8B
:10427300A3E0FDA3E0FEA3E0FF900008E0F8A3E0C5
:10428300F9A3E0FAA3E0FBD312509C400A90000488
:104293001250DF00000000900370E0FCA3E0FDA3D8
:1042A300E0FEA3E0FF9000081250D3900370E0FCFF
:1042B300A3E0FDA3E0FEA3E0FF900004E0F8A3E089
:1042C300F9A3E0FAA3E0FBD312509C400C90004BFF
:1042D3007401F0E49001D8F022E490004BF09003D5
:1042E30020F0A3F090003EE0FF603B90004DE075AE
:1042F300F020A4247DF582E5F03400F58375F00207
:10430300EF125110E0FEA3E0FFF5828E8374029357
:10431300FD7C00EF2403FFE43EFEEF2DFFEC3E9017
:104323000320F0A3EFF090031BE0C39416400302B5
:104333004874900320E0FEA3E0FF900050E0FCA34C
:10434300E0FDC39FEC9E4004E402472B8D828C83E7
:10435300E493FFB4EA31ED2401FBE43C8B82F58363
:10436300E493FE54019001D8F0EE30E1099000513E
:10437300E02402024516900051E004F0700690001C
:1043830050E004F0024863EF64EB60030244B3EDD2
:104393002401FFE43C8F82F583E493FBB4021EED1A
:1043A3002404FEE43C90000CF0A3CEF0900051E016
:1043B3002404F0900050E03400F002486390003D84
:1043C300E004F0700690003CE004F0ED2402FFE40A
:1043D3003C8F82F583E493FEED2403FDE43C8D8260
:1043E300F583E493FDEDFF90031CEEF0A3EFF0EBF8
:1043F300600B9001D9E030E2045403603390005025
:10440300E0FEA3E02401FFE43E8F82F583E4937092
:10441300079001D9E020E21890031CE0FEA3E0FF1F
:104423004E601490003CE0FCA3E0C39FEC9E400769
:104433009001D9E04480F09001D9E0FF30E7279064
:104443000051E02403F0900050E03400F0EF547B7F
:104453009001D9F0E490003CF0A3F074FF90000CBD
:10446300F0A3F002486390000CE0FEA3E0FFF470B9
:1044730002EEF46006900050EE803090004DE0753F
:10448300F020A4247DF582E5F03400F583C083C0D9
:104493008290003EE0D082D08375F002125110E08A
:1044A300FEA3E02403FFE43E900050F0A3EFF022CC
:1044B300900050E0FEA3E0F5828E83E49364FE70E7
:1044C3005B900050E0FCA3E0FD2401FFE43C8F82FD
:1044D300F583E493FEED2402FDE43C8D82F583E451
:1044E30093FDEDFF900323EEF0A3EFF0E4FCFD90CA
:1044F3000370E0F8A3E0F9A3E0FAA3E02FFFEA3E9C
:10450300FEED39FDEC38FC9000041250D3900051BD
:10451300E02403F0900050E03400F022900050E0DB
:10452300FEA3E0F5828E83E493FC64FD7061900347
:104533001BE0FFD394034003024874900040E06003
:104543000302487490005075F001124F2685F082E3
:10455300F583E493FD1274C6900050E475F00112E4
:104563004F2685F082F583E493900059F090032061
:10457300E0FEA3E0FF900050E475F001124F26FA2D
:10458300EF65F07002EE6A600302487402472BEC99
:1045930064EC6014900050E0FEA3E0F5828E83E4A7
:1045A3009364ED600302473090031BE0D394034010
:1045B30003024874900040E0600302487490005086
:1045C300E0FCA3E0FD2401FFE43C8F82F583E49348
:1045D300FEED2402FDE43C8D82F583E493FDEDFFC3
:1045E30090031CEEF0FCA3EFF0CCCCCDCD900050AB
:1045F300E0FAA3E0FB2403FFE43A8F82F583E4931C
:10460300FEEB2404FBE43A8B82F583E493FBEBFF9C
:1046130090031EEEF0A3EFF0CFEDCFCEECCEE4FC93
:10462300FDFB7A80F9F8124F5BECC0E0EDC0E0EEE1
:10463300C0E0EFC0E0900183E0FEA3E024FAF5823E
:10464300EE3401F583E493FE740193FFCBEFCBCA01
:10465300EECAE4F9F8D0E0FFD0E0FED0E0FDD0E010
:10466300FC127F7290031CEEF0A3EFF0A3E0FEA315
:10467300E0FFE4FCFDFB7A80F9F8124F5BECC0E04D
:10468300EDC0E0EEC0E0EFC0E0900183E0FEA3E008
:1046930024FCF582EE3401F583E493FE740193FF69
:1046A300CBEFCBCAEECAE4F9F8D0E0FFD0E0FED0FE
:1046B300E0FDD0E0FC127F7290031EEEF0A3EFF05A
:1046C30090031CE0FCA3E0FDCFEDCF900047F0EC9E
:1046D300A3F090031EE0FCA3E0FDCFEDCF900049D3
:1046E300F0ECA3F0900050E0FEA3E0F5828E83E4AB
:1046F30093B4ED07900045E04401F0900051E024AD
:1047030004F0900050E03400F0900320E0FEA3E0BA
:10471300FF900050E475F001124F26FCEF65F07036
:1047230002EE6C600302487490003EF02290005049
:10473300E0FEA3E0F5828E83E49364FA600302470C
:10474300E29003227403F0F090031BE0FC90032239
:10475300E0FFC39C502A900050E0FAA3E0F5828A60
:1047630083E493FE74582FF582E43400F583E06EFE
:104773007006900322F08008900322E004F080C8C2
:10478300900322E07003024874900040E06003024B
:104793004874900059E0601990031BE0FF04F09007
:1047A3000050E475F001124F2685F082F58302482C
:1047B3005DEC6403600302487490031BE0FF04F0A4
:1047C300900050E475F001124F2685F082F583E4E2
:1047D30093FD1274C6900059E04402F002486390BE
:1047E30003227403F0F090031BE0FC900322E0FF2C
:1047F300C39C502A900050E0FAA3E0F5828A83E438
:1048030093FE74582FF582E43400F583E06E70064E
:10481300900322F08008900322E004F080C8900304
:1048230022E0604D900040E07047900059E0701422
:1048330090031BE0FF04F0900050E0FAA3E0F58240
:104843008A838016ECB4032990031BE0FF04F090E5
:104853000050E0FCA3E0F5828C83E493FD1274C660
:10486300900051E004F07006900050E004F0024321
:104873002922E4900325F0A3F0A3F0EF603AE4A328
:10488300F0900328E0FF2480F582E43401F583E00F
:10489300FE74182FF582E43400F583EEF0E4900003
:1048A3001AF0900328E004F0E0B402D5E490001C71
:1048B300F0A3F0900327F022E4900328F09003285C
:1048C300E0FF2418F582E43400F583E0FE74802FC2
:1048D300F582E43401F583E0C39EFFD364809480C2
:1048E30040089003277401F08015C3EF648094801F
:1048F30050089003277402F08005E4900327F0909A
:104903000183E0FEA3E0F5828E83C083C08290031F
:1049130028E0FFD082D08375F008125110E582247D
:10492300E0F582E5833401F583E493540F24FE70AC
:1049330003024A16046003024D06900327E0FE704B
:1049430003024D22741A2FF582E43400F583E060EC
:1049530029900328E0FF241AF582E43400F583E468
:10496300F074182FF582E43400F583E0FFEE25E0C0
:1049730024FDFEC3EF9EF0024D22900327E0FF903B
:104983000183E0FCA3E0F5828C83C083C0829003A3
:1049930028E0D082D08375F008125110E58224E21A
:1049A300F582E5833401F583E5822FF582E43583CF
:1049B300F583E493FD60057FFF1274C6900059E010
:1049C300FF900327E0FE900183E0FCA3E0F5828CD7
:1049D30083C083C082900328E0FDD082D08375F02A
:1049E30008125110E58224E5F582E5833401F5834D
:1049F300E5822EF582E43583F583E493FEEF4E9052
:104A03000059F0741A2DF582E43400F5837401F033
:104A1300024D22900327E07003024D22A3E0FD2400
:104A23001AF582E43400F583E060279001DBE0FCB3
:104A330090001CE0FAA3E0FB25E0FFEC4F9001DBC4
:104A4300F07807CEEACEEBCEA2E713CE13D8F80266
:104A53004CBE900183E0FEA3E0F5828E8375F008DF
:104A6300ED125110E58224E3F582E5833401F583E9
:104A7300E493FFC3941E5003024B52EFD394274099
:104A830003024B52900183A3E0F5828E83C083C05F
:104A930082900328E0D082D08375F008125110E58C
:104AA3008224E4F582E5833401F583E493FFC39420
:104AB3001E5003024B52EFD394274003024B5290F4
:104AC3000183A3E0F5828E83C083C082900328E034
:104AD300D082D08375F008125110E58224E3F58269
:104AE300E5833401F583E49324E3FFE434FFFE7CA0
:104AF300007D0A124E9BCFEDCFEF75F00AA4FBAAFF
:104B0300F0900183E0FEA3E0F5828E83C083C08230
:104B1300900328E0D082D08375F008125110E5820B
:104B230024E4F582E5833401F583E49324E3FFE48D
:104B330034FFFE7C007D0A124EF0EB2DFFEA3CFEB3
:104B4300EF2401FFE43E90001CF0A3EFF0800990F6
:104B5300001CE4F0A3740AF090001CE0FAA3E0FB4D
:104B6300900327E075F002A424FDFFE5F034FFFE77
:104B73007C007D0A124E89CDEBCDCCEACC124E8956
:104B830090001CEEF0A3EFF0900183E0FEA3E0F5AC
:104B9300828E83C083C082900328E0FFD082D083BB
:104BA30075F008125110E58224E6F582E58334019D
:104BB300F583E493FEB4010F741A2FF582E43400F5
:104BC300F5837401F08078EEB40212900328E02498
:104BD3001AF582E43400F5837403F0806290018354
:104BE300E0FEA3E0F5828E83C083C082900328E0B9
:104BF300FFD082D08375F008125110E58224E6F5C8
:104C030082E5833401F583E493FEB4040F741A2F11
:104C1300F582E43400F5837404F08023EE900328D6
:104C2300B4080FE0241AF582E43400F5837405F028
:104C3300800DE0241AF582E43400F5837402F090C9
:104C43000328E0241AF582E43400F583E0FD7C00B8
:104C530090001CE0FEA3E0FF124EF0CAECCACBEDBD
:104C6300CB900328E0241AF582E43400F583E0FDB9
:104C73007C0090001CE0FEA3E0FF124EF0CCEECCD3
:104C8300CDEFCDED2BFEEC3A900325F0A3CEF090C3
:104C9300001CECF0A3EDF09001DBE0FD900325E0B8
:104CA300FAA3E0FB25E0FFED4F9001DBF07807CEA0
:104CB300EACEEBCEA2E713CE13D8F89001DCF09046
:104CC3000328E0FF241AF582E43400F583E014F0AE
:104CD300741A2FF582E43400F583E07042900328C0
:104CE300E02418F582E43400F583C083C082E0FF3A
:104CF300900327E025E024FDFEC3EF9ED082D083FE
:104D0300F0801C900328E0FF2480F582E43401F551
:104D130083E0FE74182FF582E43400F583EEF090FF
:104D23000328E004F0E0C3940250030248C022E7E2
:104D330009F608DFFA8046E709F208DFFA803E88C1
:104D4300828C83E709F0A3DFFA8032E309F608DFF8
:104D5300FA8078E309F208DFFA807088828C83E3B3
:104D630009F0A3DFFA806489828A83E0A3F608DF6F
:104D7300FA805889828A83E0A3F208DFFA804C80A4
:104D8300D280FA80C680D4806980F280338010801C
:104D9300A680EA809A80A880DA80E280CA8033897C
:104DA300828A83ECFAE493A3C8C582C8CCC583CCBA
:104DB300F0A3C8C582C8CCC583CCDFE9DEE7800D8C
:104DC30089828A83E493A3F608DFF9ECFAA9F0ED6C
:104DD300FB2289828A83ECFAE0A3C8C582C8CCC5CA
:104DE30083CCF0A3C8C582C8CCC583CCDFEADEE898
:104DF30080DB89828A83E493A3F208DFF980CC887D
:104E0300F0EF60010E4E60C388F0ED2402B404009D
:104E130050B9F582EB2402B4040050AF232345823A
:104E230023904D8273BB010CE58229F582E5833A19
:104E3300F583E0225006E92582F8E622BBFE06E967
:104E43002582F8E222E58229F582E5833AF583E4B7
:104E53009322BB010689828A83F0225002F722BB88
:104E6300FE01F322F8BB010DE58229F582E5833AC1
:104E7300F583E8F0225006E92582C8F622BBFE0539
:104E8300E92582C8F222EF8DF0A4A8F0CF8CF0A41C
:104E930028CE8DF0A42EFE22BC000BBE0029EF8D80
:104EA300F084FFADF022E4CCF875F008EF2FFFEEAD
:104EB30033FEEC33FCEE9DEC984005FCEE9DFE0FBB
:104EC300D5F0E9E4CEFD22EDF8F5F0EE8420D21C16
:104ED300FEADF075F008EF2FFFED33FD400798505E
:104EE30006D5F0F222C398FD0FD5F0EA22C2D5EC25
:104EF30030E709B2D5E4C39DFDE49CFCEE30E71531
:104F0300B2D5E4C39FFFE49EFE124E9BC3E49DFD16
:104F1300E49CFC8003124E9B30D507C3E49FFFE45F
:104F23009EFE22C5F0F8A3E028F0C5F0F8E582154F
:104F33008270021583E038F022BB010A89828A83DA
:104F4300F0E5F0A3F0225006F709A7F01922BBFE03
:104F530006F3E5F009F31922E88FF0A4CC8BF0A453
:104F63002CFCE98EF0A42CFC8AF0EDA42CFCEA8E38
:104F7300F0A4CDA8F08BF0A42DCC3825F0FDE98F5B
:104F8300F0A42CCD35F0FCEB8EF0A4FEA9F0EB8F52
:104F9300F0A4CFC5F02ECD39FEE43CFCEAA42DCE1F
:104FA30035F0FDE43CFC2275F008758200EF2FFF1D
:104FB300EE33FECD33CDCC33CCC58233C5829BEDEE
:104FC3009AEC99E58298400CF582EE9BFEED9AFDF2
:104FD300EC99FC0FD5F0D6E4CEFBE4CDFAE4CCF9A2
:104FE300A88222B800C1B90059BA002DEC8BF08415
:104FF300CFCECDFCE5F0CBF97818EF2FFFEE33FEE3
:10500300ED33FDEC33FCEB33FB10D703994004EB9A
:1050130099FB0FD8E5E4F9FA227818EF2FFFEE3366
:10502300FEED33FDEC33FCC933C910D7059BE99A78
:105033004007EC9BFCE99AF90FD8E0E4C9FAE4CC09
:10504300FB2275F010EF2FFFEE33FEED33FDCC3373
:10505300CCC833C810D7079BEC9AE899400AED9B5C
:10506300FDEC9AFCE899F80FD5F0DAE4CDFBE4CC3B
:10507300FAE4C8F922C3E49FFFE49EFEE49DFDE445
:105083009CFC22EB9FF5F0EA9E42F0E99D42F0EC96
:105093006480C864809845F022EB9FF5F0EA9E4255
:1050A300F0E99D42F0E89C45F022E8600FECC31361
:1050B300FCED13FDEE13FEEF13FFD8F122E8600FB2
:1050C300EFC333FFEE33FEED33FDEC33FCD8F122B7
:1050D300ECF0A3EDF0A3EEF0A3EFF022A88285831A
:1050E300F0D083D0821250F61250F61250F61250BE
:1050F300F6E473E493A3C583C5F0C583C8C582C82A
:10510300F0A3C583C5F0C583C8C582C822A4258280
:10511300F582E5F03583F58322D083D082F8E493DA
:105123007012740193700DA3A393F8740193F58225
:105133008883E4737402936860EFA3A3A380DFEC16
:105143008EF0A4CCC5F0CCCDF8EFA4CEC5F02DFDE8
:10515300E43CFCE8A42EC8C5F03DFDE43CFCEFA410
:10516300FFE5F028FEE43DFDE43CFC22EF4E601237
:10517300EF60010EEDBB010B89828A83F0A3DFFC94
:10518300DEFA2289F05007F709DFFCA9F022BBFE03
:10519300FCF309DFFCA9F022BB010689828A83E0C4
:1051A300225002E722BBFE02E32289828A83E49330
:1051B30022E0FCA3E0FDA3E0FEA3E0FF22F8E0FB76
:1051C300A3A3E0F925F0F0E582158270021583E0D0
:1051D300FA38F022EBF0A3EAF0A3E9F022900330CF
:1051E300EFF0D39D4004E0FF8003CFEDCFEFD39BDF
:1051F3004010900330E0FFD39D40028008CFEDCFF5
:105203008003CFEBCF90033EEFF0900330E0FFC37A
:105213009D50028003CFEDCFEFC39B50109003301E
:10522300E0FFC39D50028008CFEDCF8003CFEBCFCB
:1052330090033FEFF090033EE0FEC39F900340F0E6
:105243007007A3F0A3F002535B900330E06E704845
:10525300EDC39B401FEDFFEBFDEF9DFFE49400FECC
:105263007C007DA7124E89900340E0FD124E9BA364
:10527300EE025327EBC39DFFE49400FE7C007DA761
:10528300124E89900340E0FD124E9BC374EA9F9037
:105293000342F0740302535690033EE06D70549042
:1052A3000330E0FFEBD39F4020EB9FFFE49400FE2D
:1052B3007C007DA7124E89900340E0FD124E9BEFC8
:1052C300244EFFEE3401A3805B900330E0FFEBFD3F
:1052D300C3EF9DFFE49400FE7C007DA7124E8990EE
:1052E3000340E0FD124E9BC3744E9F900342F07443
:1052F300018060CFEBCF90033EE06F705B90033093
:10530300E0FFD39D4024EF9DFFE49400FE7C007DED
:10531300A7124E89900340E0FD124E9BEF249CFFA1
:10532300EE3402A3F0A3EFF0802ECFEDCF90033045
:10533300E0FDC3EF9DFFE49400FE7C007DA7124EC9
:1053430089900340E0FD124E9BC3749C9F900342DF
:10535300F074029E900341F0900333E0FEA3E0FF5C
:10536300900342E02FF0900341E03EF0C3A3E094AA
:10537300EA900341E09403400CA3E02416F0900369
:1053830041E034FCF0900341E0FEA3E0FFC394A7A7
:10539300EE94005005E4A3F08047C3EF944EEE94DF
:1053A3000150089003437401F08036C3EF94F5EE87
:1053B300940150089003437402F08025C3EF949C3A
:1053C300EE940250089003437403F08014C3EF94E7
:1053D30043EE940390034350057404F08003740573
:1053E300F0900343E0FD75F0A7A4FEC3EF9EFFCB4F
:1053F300EFCB900340E0FC90033EE0FAC39CA3F0A4
:10540300ED30E017ECFF7E00EBFD7C00124E897D52
:10541300A7124E9BC3EA9FA3F08027CFEBCFC374A1
:10542300A79FFDE49400FC900340E0FF7E00124E32
:10543300897C007DA7124E9B90033EE0C39F90039F
:1054430040F0900343E0FF702D90033EE0FE900395
:1054530035E0FBA3E0FAA3E0F9EE124E55900340CA
:10546300E0FE900338E0FBA3E0FAA3E0F9EE124E6E
:105473005590033F8064EFB4012D900340E0FF900B
:105483000335E0FBA3E0FAA3E0F9EF124E559003D6
:105493003EE0FF900338E0FBA3E0FAA3E0F9EF124C
:1054A3004E5590033F8073900343E0FFB4023C905A
:1054B300033FE0FE900335E0FBA3E0FAA3E0F9EE3F
:1054C300124E5590033EE0FE900338E0FBA3E0FA52
:1054D300A3E0F9EE124E55900340E0FE90033BE04B
:1054E300FBA3E0FAA3E0F9EE02559AEFB4033B9075
:1054F300033FE0FF900335E0FBA3E0FAA3E0F9EFFD
:10550300124E55900340E0FF900338E0FBA3E0FA0E
:10551300A3E0F9EF124E5590033EE0FF90033BE00A
:10552300FBA3E0FAA3E0F9EF806D900343E0B4043A
:105533002D900340E0FF900335E0FBA3E0FAA3E0E6
:10554300F9EF124E5590033FE0FF900338E0FBA3C1
:10555300E0FAA3E0F9EF124E5590033E802B90033F
:105563003EE0FF900335E0FBA3E0FAA3E0F9EF127E
:105573004E5590033FE0FF900338E0FBA3E0FAA30E
:10558300E0F9EF124E55900340E0FF90033BE0FB40
:10559300A3E0FAA3E0F9EF124E5522E5222416F513
:1055A30082E43403F583E0052222900313300703DA
:1055B300900316E475F0011251C002519B2000E9DB
:1055C3007F2ED2008018EF540F2490D43440D4FFA0
:1055D30030040BEF24BFB41A0050032461FFE5230A
:1055E300600215230526E5267002052530070E9077
:1055F3000313E475F0011251C0EF024E55028213FA
:105603007403D2078003E4C207F5229003131251F7
:10561300D7E4F523F525F526E52360077F2012550A
:10562300E180F57524FFC201C200C202C203C205B4
:10563300C206C2081255ADFF700D3007057F001278
:1056430055F2AF26AE2522B4255FC2D5C20412554A
:10565300ADFF24D0B40A00501A75F00A782330D570
:105663000508B6FF0106C6A426F620D5047002D2AB
:105673000380D924CFB41A00EF5004C2E5D2040248
:1056830057F3D20180C6D20080C0D20280BCD2D5EB
:1056930080BAD20580B47F201255E120020774013D
:1056A300B5230040F112559EFF1255E102561BD25D
:1056B30008D206809512559EFB12559EFA12559EEE
:1056C300F94A4B700679C47A587BFF20022EE523F2
:1056D300602A7E008E82758300124E2860060EEECD
:1056E300652470F0C2D5EBC0E0EAC0E0E9C0E0EEAB
:1056F30012583AD0E0F9D0E0FAD0E0FB12519BFF08
:1057030060AAEBC0E0EAC0E0E9C0E01255E1D0E0F6
:105713002401F9D0E03400FAD0E0FBE5240460DC96
:10572300D524D980877BFF7A587936D202809C7939
:105733001080027908C206C2088008D2D5790A808F
:1057430004790AC2D5E524047002F524E4FAFDFEC7
:10575300FF12559EFC7B0820011312559EFD7B1002
:1057630030000A12559EFE12559EFF7B20EC3382B9
:10577300D592D55013C3E43000069FFFE49EFEE4A8
:105783002001039DFDE49CFCE4CBF8C201EC700C0A
:10579300CFCECDCCE824F8F870F38017C3EF33FFF6
:1057A300EE33FEED33FDEC33FCEB33FB994002FBB0
:1057B3000FD8E9EB300105F8D0E0C448B201C0E0EE
:1057C3000AEC4D4E4F78207B0070C2EAB5240040AE
:1057D300BCC0E012583CD0F0D0E0200104C4C0E0CB
:1057E300C4B201C0F01255CAD0F0D5F0EB02561B7B
:1057F30012511C56B85357325856894C5685425746
:10580300364F573E44573E49569E435744555728B3
:105813004657284557284758E450568D2D56912E04
:1058230056B42B56952356B22058CD2A564D4800D0
:105833000056AC3F3F3F00790AA2D5200314300540
:1058430009B910020404B9080104A2D520060250C4
:1058530001042002689202B523005034C0E07F2087
:105863003003197F30A20272067205500F1258934B
:10587300C202C206C205C2087F30800F300503E9A9
:10588300C0E01255E1300503D0E0F9D0E0B523CCF8
:105893003005177F30B9100C1255E17F58300407DB
:1058A3007F788003B908031255E13002057F2D028A
:1058B30055E17F202008F87F2B2006F322920280F7
:1058C300CF286E756C6C2900D20112559E3001F8F9
:1058D300C201782330D50108F602564D2D504349B5
:1058E3005812559E2403B405004001E49058DF93F9
:1058F3001255D2743A1255D2D20375230402573289
:10590300012900012700C10E012A00012800C10F4F
:1059130041037B0041037C0041037800410379008C
:1059230041037A0041034400440346000000004160
:10593300036F0141036D00410367FF41036E00C123
:105943000DC109C10AC10BC10C440278000000005B
:105953000114025401E608000800080008000800CA
:1059630008000FFF0FFF0000000044023B0800087F
:10597300004101E101021000000215000A02122792
:105983001041028FFF4101FA0002170000021B00C1
:1059930000021900004401E20000000020302B0047
:1059A30000000000000000000000000000000000F4
:1059B30000000000000000000000000000000000E4
:1059C3000000000000000000000000000000004292
:1059D3000183F20041004D0042018000006020017C
:1059E300B8000000000000000000000000000000FC
:1059F30000000000000000000000000000000000A4
:105A03000050006F000000000000000000000000D4
:105A13000000000041003B0041017F004101820082
:105A23004101B70041005500560058010000000035
:105A33000000000000000000000000000000000063
:105A43000045003F0200000000470044031001002E
:105A530000000042005304004301DA050000410046
:105A630052004101860041004E004101870041017F
:105A7300880041006E284100560F41004C0044014C
:105A8300DD0000000041003E0042005000004200E3
:105A93003C00004101D9004101D80041004B0041C5
:105AA300018DFF41004F0041005700410185004433
:105AB300000000000000440004000000004400084F
:105AC3000000000042000CFFFF42000E00004200F5
:105AD30010000042001200004200140000420016B1
