:08000000026E290271C73232C1
:07000B00027618010001223A
:100013000200067B017A0679009002E07401F07F0A
:06002300007ED8026155C9
:0D002B0002000775A15575A1AA43B110226E
:03003B000272242A
:100043000233B0EF4E601505A105A105A105A10579
:0D005300A105A105A1EF1F70EA1E80E722A4
:1000630002709EEF6013E4900299F0A3F090029760
:10007300F0A3F0900295020585900111E0FEA3E044
:1000830024D5F582EE3401F583E493FD540175F034
:1000930002A424FFFEE5F034FF9002EBF0A3CEF0C0
:1000A300EDC313540175F002A424FFFEE5F034FF01
:1000B300A3F0A3CEF0900163E0FEA3E0FF9001A7BD
:1000C300E0FCA3E0FDD39FEC9E4008CEECCECFED49
:1000D300CF8000D3900160E09F90015FE09E4020BD
:1000E300900163E0FEA3E0FF9001A7E0FCA3E0FD25
:1000F300D39FEC9E4008CEECCECFEDCF800A800894
:1001030090015FE0FEA3E0FF9001A7EEF0A3EFF004
:10011300900165E0FEA3E0FF9001A9E0FCA3E0FDF0
:10012300D39FEC9E4008CEECCECFEDCF8000D39092
:100133000162E09F900161E09E4020900165E0FE36
:10014300A3E0FF9001A9E0FCA3E0FDD39FEC9E4058
:1001530008CEECCECFEDCF800A8008900161E0FE9F
:10016300A3E0FF9001A9EEF0A3EFF0900111E0FEF0
:10017300A3E024D5F582EE3401F583E493131354FD
:100183003F20E00302030A900153E0FEA3E0FF9047
:1001930001A7E0FCA3E0FDC39FEC9E9002EBE0FE11
:1001A3005037A3E0FFEEC0E0EFC0E0900153E0FE64
:1001B300A3E0FFC3ED9FFFEC9EFE3395E0FDFCE45F
:1001C300FB7A10F9F8124919ECC0E0EDC0E0EEC07B
:1001D300E0EFC0E090015B803BA3E0FFEEC0E0EF07
:1001E300C0E0900153E0FEA3E0FF9001A7E0FCA371
:1001F300E0C39FFFEC9EFE3395E0FDFCE4FB7A1029
:10020300F9F8124919ECC0E0EDC0E0EEC0E0EFC030
:10021300E0900157E0FEA3E0FFCBEFCBCAEECAE4C8
:10022300F9F8D0E0FFD0E0FED0E0FDD0E0FC12749E
:1002330055CDEFCDCCEECCD0E0FFD0E0FE1247E4BD
:100243009002EBEEF0A3EFF0900155E0FEA3E0FF88
:100253009001A9E0FCA3E0FDC39FEC9E9002EDE0BA
:10026300FE5037A3E0FFEEC0E0EFC0E0900155E0A1
:10027300FEA3E0FFC3ED9FFFEC9EFE3395E0FDFC84
:10028300E4FB7A10F9F8124919ECC0E0EDC0E0EE96
:10029300C0E0EFC0E090015D803BA3E0FFEEC0E073
:1002A300EFC0E0900155E0FEA3E0FF9001A9E0FC60
:1002B300A3E0C39FFFEC9EFE3395E0FDFCE4FB7AD5
:1002C30010F9F8124919ECC0E0EDC0E0EEC0E0EF20
:1002D300C0E0900159E0FEA3E0FFCBEFCBCAEECA2A
:1002E300E4F9F8D0E0FFD0E0FED0E0FDD0E0FC126E
:1002F3007455CDEFCDCCEECCD0E0FFD0E0FE12476D
:10030300E49002ED020495900153E0FEA3E0FF9018
:1003130001A7E0FCA3E0FDC39FEC9E9002EDE0FE8D
:100323005037A3E0FFEEC0E0EFC0E0900153E0FEE2
:10033300A3E0FFC3ED9FFFEC9EFE3395E0FDFCE4DD
:10034300FB7A10F9F8124919ECC0E0EDC0E0EEC0F9
:10035300E0EFC0E090015B803BA3E0FFEEC0E0EF85
:10036300C0E0900153E0FEA3E0FF9001A7E0FCA3EF
:10037300E0C39FFFEC9EFE3395E0FDFCE4FB7A10A7
:10038300F9F8124919ECC0E0EDC0E0EEC0E0EFC0AF
:10039300E0900157E0FEA3E0FFCBEFCBCAEECAE447
:1003A300F9F8D0E0FFD0E0FED0E0FDD0E0FC12741D
:1003B30055CDEFCDCCEECCD0E0FFD0E0FE1247E43C
:1003C3009002EDEEF0A3EFF0900155E0FEA3E0FF05
:1003D3009001A9E0FCA3E0FDC39FEC9E9002EBE03B
:1003E300FE503EA3E0FFEEC0E0EFC0E0900155E019
:1003F300FEA3E0FFC3ED9FFFEC9EFEC3E49FFFE47B
:100403009EFE3395E0FDFCE4FB7A10F9F8124919DE
:10041300ECC0E0EDC0E0EEC0E0EFC0E090015D8035
:1004230042A3E0FFEEC0E0EFC0E0900155E0FEA381
:10043300E0FF9001A9E0FCA3E0C39FFFEC9EFEC395
:10044300E49FFFE49EFE3395E0FDFCE4FB7A10F9A4
:10045300F8124919ECC0E0EDC0E0EEC0E0EFC0E0F7
:10046300900159E0FEA3E0FFCBEFCBCAEECAE4F95B
:10047300F8D0E0FFD0E0FED0E0FDD0E0FC127455F0
:10048300CDEFCDCCEECCD0E0FFD0E0FE1247E49030
:1004930002EBEEF0A3EFF09002EDE0FEA3E0FFD35A
:1004A3009400EE648094804002800F9002EDE0FEA1
:1004B300A3E0FFC3E49FFFE49EFE9002EBE0FCA3F6
:1004C300E0FDD39400EC648094804002800F90029E
:1004D300EBE0FCA3E0FDC3E49DFDE49CFCD3ED9FB6
:1004E300EE6480F8EC64809840259002EBE0FEA374
:1004F300E0FFD39400EE6480948040028034900245
:10050300EBE0FEA3E0FFC3E49FFFE49EFE802390A5
:1005130002EDE0FEA3E0FFD39400EE6480948040FC
:1005230002800F9002EDE0FEA3E0FFC3E49FFFE42F
:100533009EFECAEECACBEFCB900111E0FEA3E024EE
:10054300DCF582EE3401F583E493FF7E007C007DCD
:10055300151247E4C3EB9FFFEA9EFE9002EFF0A360
:10056300EFF0D39400EE64809480501AE490029DDF
:10057300F0A3F090029BF0A3F0900299F0A3F09007
:100583000297F0A3F022900111E0FEA3E0FF24D430
:10059300F582EE3401F583E493540F24FE700302D5
:1005A300078E147003020AC3147003020FB92403E5
:1005B3006003021501900295E07002A3E06003025C
:1005C3000798EF24DEF582EE3401F583E493701D82
:1005D300900111E0FEA3E024DFF582EE3401F58300
:1005E300E4937009900295F0A3F002071A900111A9
:1005F300E0FEA3E0FF24DEF582EE3401F583E4930D
:10060300FBEF24DFF582EE3401F583E493C39BFD16
:100613003395E0FC78039002EFE0FEA3E0CEA2E77F
:1006230013CE13D8F8FF1247E4EEFD3395E0FCEB4D
:1006330025E0FFE433FEED2FFFEC3E9002EFF0A345
:10064300EFF090029BE0FEA3E0FFD39400EE648002
:1006530094804002800F90029BE0FEA3E0FFC3E47E
:100663009FFFE49EFE9002EFE0FCA3E0FDD39FEE2C
:100673006480F8EC648098500A90029BECF0A3ED40
:10068300F0806B900111E0FEA3E024DDF582EE34EF
:1006930001F583E4932401FDE433FC90029BE0FE27
:1006A300A3E0FFC39002F0E09FFF9002EFE09EFE05
:1006B30012484BEEF0A3EFF04E701090029CE00452
:1006C300F0701C90029BE004F080149002EFE0FEB7
:1006D300A3E0FF90029CE02FF090029BE03EF0909D
:1006E300029BE0FFA3E09002EFCFF0A3EFF09002B4
:1006F300EFE0FEA3E0FFC374649FFFE49EFE90025D
:1007030095F0A3EFF0D39400EE64809480500890AA
:100713000295E4F0A304F09002EBE0FEA3E0FFA354
:10072300E0FCA3E0FDD39FEE6480F8EC6480984086
:1007330026E49FFFE49EFED3ED9FEE6480F8EC6415
:100743008098900111E0FE4007A3E024D7020AB489
:10075300A3E024D9020AB49002EBE0FEA3E0FFC3B6
:10076300E49FFFE49EFED39002EEE09FEE6480F8E8
:100773009002EDE0648098900111E0FE4006A3E052
:1007830024DA8004A3E024D8020AB4900295E0702E
:1007930002A3E0600F900296E024FFF0900295E040
:1007A30034FFF022900111E0FEA3E0FF24DEF58286
:1007B300EE3401F583E4937017EF24DFF582EE3412
:1007C30001F583E4937009900295F0A3F00208FD0C
:1007D300900111E0FEA3E0FF24DEF582EE3401F583
:1007E30083E493FBEF24DFF582EE3401F583E49396
:1007F300C39BFD3395E0FC78039002EFE0FEA3E09A
:10080300CEA2E713CE13D8F8FF1247E4EEFD3395DB
:10081300E0FCEB25E0FFE433FEED2FFFEC3E90021E
:10082300EFF0A3EFF090029BE0FEA3E0FFD3940070
:10083300EE648094804002800F90029BE0FEA3E070
:10084300FFC3E49FFFE49EFE9002EFE0FCA3E0FD04
:10085300D39FEE6480F8EC648098500A90029BEC7E
:10086300F0A3EDF0806B900111E0FEA3E024DDF531
:1008730082EE3401F583E4932401FDE433FC90021A
:100883009BE0FEA3E0FFC39002F0E09FFF9002EF26
:10089300E09EFE12484BEEF0A3EFF04E7010900274
:1008A3009CE004F0701C90029BE004F08014900222
:1008B300EFE0FEA3E0FF90029CE02FF090029BE0AC
:1008C3003EF090029BE0FFA3E09002EFCFF0A3EF96
:1008D300F09002EFE0FEA3E0FFC374649FFFE49E89
:1008E300FE900295F0A3EFF0D39400EE6480948021
:1008F3005008900295E4F0A304F09002EBE0FEA30D
:10090300E0FF7C007D031247E4CAEECACBEFCBA322
:10091300E0FEA3E0FF7D071247E4D3EF9BEA648088
:10092300F8EE648098403C9002EBE0FEA3E0FFE425
:100933009FFFE49EFE7D031247E4CAEECACBEFCBD2
:10094300A3E0FEA3E0FF7D071247E4D3EF9BEA6435
:1009530080F8EE648098400B900111E0FEA3E02440
:10096300D780689002EBE0FEA3E0FF7C007D0312DA
:1009730047E4CAEECACBEFCBA3E0FEA3E0FF7D07BB
:100983001247E4C3EF9BEA6480F8EE648098504A10
:100993009002EBE0FEA3E0FFC3E49FFFE49EFE7D35
:1009A300031247E4CAEECACBEFCBA3E0FEA3E0FFFA
:1009B3007D071247E4C3EF9BEA6480F8EE648098F6
:1009C3005018900111E0FEA3E024D8F582EE340123
:1009D300F583E493FD7FFF126A289002EBE0FEA308
:1009E300E0FF7C007D071247E4CAEECACBEFCBA33E
:1009F300E0FEA3E0FF7D031247E4D3EF9BEA6480AC
:100A0300F8EE648098403C9002EBE0FEA3E0FFE444
:100A13009FFFE49EFE7D071247E4CAEECACBEFCBED
:100A2300A3E0FEA3E0FF7D031247E4C3EF9BEA6468
:100A330080F8EE648098500B900111E0FEA3E0244F
:100A4300D9806E9002EBE0FEA3E0FF7C007D0712ED
:100A530047E4CAEECACBEFCBA3E0FEA3E0FF7D03DE
:100A63001247E4C3EF9BEA6480F8EE648098400386
:100A73000215019002EBE0FEA3E0FFC3E49FFFE455
:100A83009EFE7D071247E4CAEECACBEFCBA3E0FE7E
:100A9300A3E0FF7D031247E4D3EF9BEA6480F8EE03
:100AA3006480985003021501900111E0FEA3E02435
:100AB300DAF582EE3401F583E493FD7FFF026A28C1
:100AC300900111E0FEA3E024DFF582EE3401F5830B
:100AD300E493FB3395E0FA78039002EBE0FEA3E0A6
:100AE300CEA2E713CE13D8F8FFCDEBCDCCEACC12D0
:100AF30047E47804EFCEA2E713CE13D8F8FF9002B1
:100B0300EBEEF0A3EFF07803A3E0FEA3E0CEA2E7C1
:100B130013CE13D8F8FFCDEBCDCCEACC1247E47853
:100B230004EFCEA2E713CE13D8F8FF9002EDEEF058
:100B3300A3EFF090029BE0FEA3E0FFD39400EE64EA
:100B43008094804002800F90029BE0FEA3E0FFC3ED
:100B5300E49FFFE49EFE9002EBE0FCA3E0FDD39450
:100B630000EC648094804002800F9002EBE0FCA3D1
:100B7300E0FDC3E49DFDE49CFCD3ED9FEE6480F8AF
:100B8300EC6480985002802E90029BE0FEA3E0FF6D
:100B9300D39400EE648094804002800F90029BE027
:100BA300FEA3E0FFC3E49FFFE49EFED3EF9420EE99
:100BB3006480948340129002EBE0FFA3E090029BD9
:100BC300CFF0A3EFF0020CE790029BE0FEA3E0FF5F
:100BD300D39400EE6480948040028007C3E49FFFB7
:100BE300E49EFECCEECCCDEFCD900111E0FAA3E074
:100BF300FB24DEF582EA3401F583E49375F00AA45D
:100C0300FFD3ED9FE5F06480F8EC648098405DEBE2
:100C130024DDF582EA3401F583E4932401FDE43312
:100C2300FC90029BE0FEA3E0FF9002EBE0FAA3E05E
:100C3300FBC39FFFEA9EFE12484B9002EFEEF0A328
:100C4300EFF04E6003020CD3C3EA64809480500734
:100C53007EFF7FFF020CDBD3EB9400EA6480948079
:100C63007E0040047F0180027F00806C900111E0D0
:100C7300FEA3E024DDF582EE3401F583E49375F001
:100C83000AA42401FDE435F0FC90029BE0FEA3E0FE
:100C9300FF9002EBE0FAA3E0FBC39FFFEA9EFE1284
:100CA300484B9002EFEEF0A3EFF04E7023C3EA64DB
:100CB30080948050067EFF7FFF8013D3EB9400EA7D
:100CC300648094807E0040047F0180027F0080085E
:100CD3009002EFE0FEA3E0FF90029CE02FF0900271
:100CE3009BE03EF090029DE0FEA3E0FFD39400EE74
:100CF300648094804002800F90029DE0FEA3E0FF99
:100D0300C3E49FFFE49EFE9002EDE0FCA3E0FDD36D
:100D13009400EC648094804002800F9002EDE0FC2C
:100D2300A3E0FDC3E49DFDE49CFCD3ED9FEE648052
:100D3300F8EC6480985002802E90029DE0FEA3E0C0
:100D4300FFD39400EE648094804002800F90029D54
:100D5300E0FEA3E0FFC3E49FFFE49EFED3EF9420F5
:100D6300EE6480948340129002EDE0FFA3E09002D2
:100D73009DCFF0A3EFF0020E9390029DE0FEA3E05F
:100D8300FFD39400EE6480948040028007C3E49F05
:100D9300FFE49EFECCEECCCDEFCD900111E0FAA3A3
:100DA300E0FB24DEF582EA3401F583E49375F00A6F
:100DB300A4FFD3ED9FE5F06480F8EC648098405A7B
:100DC300EB24DDF582EA3401F583E4932401FDE4A9
:100DD30033FC90029DE0FEA3E0FF9002EDE0FAA356
:100DE300E0FBC39FFFEA9EFE12484BA3EEF0A3EF86
:100DF300F04E6003020E7FC3EA6480948050067E47
:100E0300FF7FFF807FD3EB9400EA648094807E00B1
:100E130040047F0180027F00806A900111E0FEA3FD
:100E2300E024DDF582EE3401F583E49375F00AA442
:100E33002401FDE435F0FC90029DE0FEA3E0FF9069
:100E430002EDE0FAA3E0FBC39FFFEA9EFE12484BCC
:100E5300A3EEF0A3EFF04E7023C3EA6480948050B6
:100E6300067EFF7FFF8013D3EB9400EA64809480B7
:100E73007E0040047F0180027F0080089002EFE043
:100E8300FEA3E0FF90029EE02FF090029DE03EF073
:100E930090029BE0FEA3E0FF900298E02FF0900207
:100EA30097E03EF090029DE0FEA3E0FF90029AE0FF
:100EB3002FF0900299E03EF0900297E0FEA3E0FF4E
:100EC300D39440EE64809460400280047EE07F40CF
:100ED300C3EF94C0EE6480949F5019900297E0FE94
:100EE300A3E0FF9440EE648094604002800A7EE0B9
:100EF3007F4080047E1F7FC0900297EEF0A3EFF047
:100F0300A3E0FEA3E0FFD39440EE6480946040022C
:100F130080047EE07F40C3EF94C0EE6480949F50D2
:100F230019900299E0FEA3E0FF9440EE6480946080
:100F33004002800A7EE07F4080047E1F7FC09002D3
:100F430099EEF0A3EFF0900297E0FCA3E0FD7806A2
:100F5300CEECCECEA2E713CE13D8F890030DF078E3
:100F630006900299E0FEA3E0CEA2E713CE13D8F8D1
:100F7300F404F990030EF090030DE0FF3395E0FEC7
:100F83007806EFC333CE33CED8F9FFC3ED9FFFEC22
:100F93009E900297F0A3EFF0E9FF3395E0FE780609
:100FA300EFC333CE33CED8F9FF90029AE02FF090FF
:100FB3000299E03EF022900297E0FEA3E0FF900248
:100FC300EBE0FCA3E0FDC39FFFEC9EFE7802EFCEB7
:100FD300A2E713CE13D8F8FF9002EFEEF0A3EFF0E1
:100FE3004E7023C3EC6480948050067EFF7FFF80A5
:100FF3001DD3ED9400EC648094807E0040047F0157
:1010030080027F0080089002EFE0FEA3E0FF9002E1
:1010130098E02FF0900297E03EF0900299E0FEA353
:10102300E0FF9002EDE0FCA3E0FDC39FFFEC9EFE1A
:101033007802EFCEA2E713CE13D8F8FF9002EFEEBB
:10104300F0A3EFF04E7023C3EC6480948050067ECF
:10105300FF7FFF801DD3ED9400EC648094807E00BD
:1010630040047F0180027F0080089002EFE0FEA32E
:10107300E0FF90029AE02FF0900299E03EF0900298
:10108300EBE0FAA3E0FBD39400EA64809480900140
:1010930011E0FE4006A3E024DA8004A3E024D9F59E
:1010A30082EE3401F583E493FF90029BE4F0A3EF17
:1010B300F0D3ED9400EC64809480900111E0FE4045
:1010C30006A3E024D78004A3E024D8F582EE3401FC
:1010D300F583E493FF90029DE4F0A3EFF090029B6D
:1010E300E0FEA3E0FFC3941EEE648094804017D318
:1010F300EF9427EE64809480500CEF25E0FFEE33ED
:10110300FEEF24C6802790029BE0FEA3E0FFC3947A
:1011130059EE648094804022D3EF9462EE6480940D
:10112300805017EF25E0FFEE33FEEF244FFFEE3440
:10113300FF90029BF0A3EFF08007E490029BF0A3E3
:10114300F090029DE0FEA3E0FFC3941EEE64809442
:10115300804017D3EF9427EE64809480500CEF25E2
:10116300E0FFEE33FEEF24C6802790029DE0FEA34E
:10117300E0FFC39459EE648094804022D3EF9462DD
:10118300EE648094805017EF25E0FFEE33FEEF24EA
:101193004FFFEE34FF90029DF0A3EFF08007E49041
:1011A300029DF0A3F0D3EB9401EA64809470400AAB
:1011B3009002EBE0FEA3E0FF80047EF07F01C3EF2B
:1011C30094FFEE6480948F50199002EBE0FEA3E04D
:1011D300FF9401EE648094704002800A7EF07F01E8
:1011E30080047E0F7FFF9002EBEEF0A3EFF0D3EDD0
:1011F3009401EC648094704008A3E0FEA3E0FF80B8
:10120300047EF07F01C3EF94FFEE6480948F501946
:101213009002EDE0FEA3E0FF9401EE648094704041
:1012230002800A7EF07F0180047E0F7FFF9002ED33
:10123300EEF0A3EFF090029BE0FEA3E0FFCBEFCB39
:10124300CAEECAEA3395E0F9F8900297E0FEA3E00C
:10125300FFEE3395E0FDFC124919C8ECC8C9EDC98E
:10126300CAEECACBEFCB900111E0FEA3E024DFF579
:1012730082EE3401F583E493FFE4FCFDFE12491989
:10128300E47B7DFAF9F812745590029BEEF0A3EF1C
:10129300F0A3E0FEA3E0FFEE3395E0FDFC124A3637
:1012A300C8ECC8C9EDC9CAEECACBEFCB900299E02E
:1012B300FEA3E0FFEE3395E0FDFC124919C8ECC82C
:1012C300C9EDC9CAEECACBEFCB900111E0FEA3E092
:1012D30024DFF582EE3401F583E493FFE4FCFDFEA5
:1012E300124919E47B7DFAF9F812745590029DEEC8
:1012F300F0A3EFF0900111E0FEA3E024DDF582EE10
:101303003401F583E493FFE4FCFDFE7BFF7A7FF970
:10131300F8124919E47B32FAF9F81274559002EB8A
:10132300EEF0A3EFF0900111E0FEA3E024DEF582DE
:10133300EE3401F583E493FFE4FCFDFE7BFF7A7F4B
:10134300F9F8124919E47B32FAF9F812745590024C
:10135300EDEEF0A3EFF0D390029CE0940090029B9B
:10136300E06480948040479002EBE0FEA3E0FFCB73
:10137300EFCBCAEECAEA3395E0F9F890029BE0FEA0
:10138300A3E0FFEE3395E0FDFCEB2FFFEA3EFEE921
:101393003DFDE83CFCE47BFF7A7FF9F8C3124A4445
:1013A300500C9002EB747FF0A374FFF08055C39050
:1013B300029BE06480948050369002EBE0FEA3E051
:1013C300FFCBEFCBCAEECAEA3395E0F9F890029B64
:1013D300E0FEA3E0FFEE3395E0FDFCEB2FEA3EE9F0
:1013E3003DE83C335009E49002EBF0A3F080149005
:1013F300029BE0FEA3E0FF9002ECE02FF09002EBF3
:10140300E03EF0D390029EE0940090029DE0648061
:10141300948040479002EDE0FEA3E0FFCBEFCBCA00
:10142300EECAEA3395E0F9F890029DE0FEA3E0FFEF
:10143300EE3395E0FDFCEB2FFFEA3EFEE93DFDE8D0
:101443003CFCE47BFF7A7FF9F8C3124A44500C90CA
:1014530002ED747FF0A374FFF08056C390029DE009
:101463006480948050379002EDE0FEA3E0FFCBEF61
:10147300CBCAEECAEA3395E0F9F890029DE0FEA3E9
:10148300E0FFEE3395E0FDFCEB2FFFEA3EE93DE89C
:101493003C335009E49002EDF0A3F0801490029DD8
:1014A300E0FEA3E0FF9002EEE02FF09002EDE03EBD
:1014B300F09002EBE0FCA3E0FDCFEDCF900313F03F
:1014C300ECFFEFA3F09002EDE0FCA3E0FDCFEDCF46
:1014D300900315F0ECFFEFA3F09003127411F0905A
:1014E3000295E07002A3E07F0070027F017E00900E
:1014F3000295EEF0A3EFF025E01490030DF022E443
:101503009002EBF0A374FFF0E4A3F0A3F0EF604AC2
:101513009001FDE0FCA3E0FDA3E0FEA3E0FF900249
:1015230014124A919001FDE0FCA3E0FDA3E0FEA3A9
:10153300E02401FFE43EFEED34FFFDEC34FFFC90BC
:101543000218124A917E007F107D007B017A027996
:1015530075124B07E490021EF0229001FDA3A3A392
:10156300E0FF90021FE0FEC3EF9EC39414500302FA
:1015730026D4E02414F0900285E0FEA3E0F5828EE9
:101583008374F593700374F493602EE4F517744039
:101593002517F582E43401F583E060169001FDE040
:1015A300FCA3E0FDA3E0FEA3E0FF900218124A9122
:1015B30080070517E517B410D590021EE0540FFFFE
:1015C300BF021D7403F09001FDE0FCA3E0FDA3E066
:1015D300FEA3E0FF900214124A9190022074FFF0E0
:1015E30090021EE0540F6403600302171790021C5D
:1015F300E0FEA3E0FFCBEFCBCAEECA900285E0FE8C
:10160300A3E0F5828E8374F893FE74F993FFEF2BB6
:10161300FFEE3AFEE433FDE433C0E0EDC0E0EEC09C
:10162300E0EFC0E0900214E0F8A3E0F9A3E0FAA32E
:10163300E0FB9001FDE0FCA3E0FDA3E0FEA3E0C31B
:101643009BFBEE9AFAED99F9EC98F8D0E0FFD0E025
:10165300FED0E0FDD0E0FCD3124A5A500302171724
:10166300900285E0FEA3E0F5828E8374F493FE740A
:10167300F593FF4E604C7C007D0A124ADAECC0E021
:10168300EDC0E0EEC0E0EFC0E0900218E0F8A3E0A8
:10169300F9A3E0FAA3E0FB9001FDE0FCA3E0FDA3C6
:1016A300E0FEA3E0C39BFBEE9AFAED99F9EC98F800
:1016B300D0E0FFD0E0FED0E0FDD0E0FCD3124A5AE8
:1016C3004052900285E0FEA3E0F5828E8374FB9383
:1016D300700374FA93602E12732DCCEECCCDEFCD44
:1016E300AF8AEF6CFEEDFF900285E0FCA3E0F5828C
:1016F3008C8374FA93FC74FB93FD1247F6CEECCE05
:10170300CFEDCF80047E007F0090021CEEF0A3EFAC
:10171300F0E4A3F090021EE0540F60030218F604F5
:10172300F09001FDE0FCA3E0FDA3E0FEA3E0FF9049
:101733000214124A91E4900220F0900285E0FEA385
:10174300E0F5828E8374F193FF70030218D2EFD316
:101753009404501B900285E0FEA3E0F5828E83740F
:10176300F1931475F008A4FD74F0932D0218EA9018
:101773000285E0FEA3E0F5828E8374F193B4050342
:101783000218F0E4F518F517900285E0FEA3E0FFD8
:10179300F5828E8374EB932401FDE433FCC3E517D8
:1017A3009DEC6480F87480985035E517C394095014
:1017B3002EE58224E0F582E43583F583E58225175F
:1017C300F582E43583F583E493FF600DD3940450ED
:1017D3000874082518F51880020518051780A990C4
:1017E3000285E0FEA3E0F5828E8374F193B4060FC5
:1017F300900222E004F0C39518402AE4F0802612F8
:10180300732DAD8AEF6DFFAD187C0012484B8D1719
:10181300900222E065177007E518D3940150E09019
:101823000222E517F0E4F518F517900285E0FEA310
:10183300E0FFF5828E8374EB932401FDE433FCD344
:10184300E5179DEC6480F8748098507FE517940940
:101853005079900222E0F9E51899403DE51724DF1D
:10186300FDE433FCEF2DF582EE3CF583E493600D4C
:10187300D394045008E92408C39518F518E51724F0
:10188300DFFFE433FE900285E0FCA3E02FF582EC5A
:101893003EF583E493F5178032900285E0FCA3E0E4
:1018A30024E0F582E43CF583E5822517F582E435EF
:1018B30083F583E493600DD39404500874082518CA
:1018C300F51880020518051702182DE51770089002
:1018D300022374C8F0801CE517D39404500FE51756
:1018E3001475F008A42518900223F08006900223B3
:1018F3007464F090021EE0540F640170599001FD6E
:10190300A3A3E0FEA3E0FFCBEFCBCAEECA90021481
:10191300A3A3E0FEA3E0FFC3EB9FFFEA9EFE9002BA
:1019230085E0FCA3E0F5828C83C374F7939F74F680
:10193300939E5022900223E064C8601A9001FDE058
:10194300FCA3E0FDA3E0FEA3E0FF900214124A9182
:10195300900220E004F0900223E0FFC39420500F94
:10196300EF75F010A424BEF9747A35F0FA801B9059
:101973000223E0B4643B900286E02490FF9002854A
:10198300E03400FECAEECAC9EFC97BFFEBC0E0EA50
:10199300C0E0E9C0E0C87455C8CC7402CCCD740172
:1019A300CDD0E0F9D0E0FAD0E0FB7E007F10124703
:1019B3005D900285E0FEA3E0FFCAEECAC9EFC97BD2
:1019C300FFEBC0E0EAC0E0E9C0E0C87425C8CC740E
:1019D30002CCCD7401CDD0E0F9D0E0FAD0E0FB7EAB
:1019E300007F3012475DE4F517900285E0FEA3E027
:1019F300F5828E8374F3937003021B4474F2932075
:101A0300E003021B44E51775F003A42425F582E4E3
:101A13003402F583E0FFE51775F003A42426F5826D
:101A2300E43402F583E0FDE51775F003A42427F5FC
:101A330082E43402F583E0C0E09002FB7401F0A37A
:101A43007402F0A374EFF0A37401F0A37402F0A383
:101A530074F1F0A37401F0A37402F0A374F3F0D053
:101A6300E0FB125F98900285E0FEA3E0F5828E838F
:101A730074F393FFCBEFCBE4FAF9F89001FDE0FCAC
:101A8300A3E0FDA3E0FEA3E0FF1249A4E47BEA7A0E
:101A930003F9F81249A4CCE8CCCDE9CDCEEACECFF8
:101AA300EBCF9002F0E02FF09002EFE03EF0C3A303
:101AB300E094EA9002EFE09403400CA3E02416F0D4
:101AC3009002EFE034FCF0E51775F003A4FFAEF0ED
:101AD3002425F974023EFA7B01EBC0E0EAC0E0E999
:101AE300C0E074262FF974023EFAEBC0E0EAC0E0CE
:101AF300E9C0E074272FF974023EFA900304EBF077
:101B0300A3EAF0A3E9F0D0E0F9D0E0FAD0E0900343
:101B130001F0A3EAF0A3E9F0D0E0F9D0E0FAD0E0D5
:101B23009002FEF0A3EAF0A3E9F09002EFE0FEA337
:101B3300E0FFA3E0FCA3E0FDA3E0FAA3E0FB125C5B
:101B43000E900223E064C86003021DCB900285E07F
:101B5300FEA3E0F5828E8374F793700374F693709B
:101B630003021DCB9001FDA3A3E0FEA3E0FFCBEF97
:101B7300CBCAEECA900214A3A3E0FEA3E0FFC3EB1B
:101B83009FFBEA9EFA900285E0FEA3E0F5828E8336
:101B930074F693FE74F793FFD394E8EE9403400234
:101BA30080047E037FE87C037DE81247F6CDEFCD0A
:101BB300CCEECCCFEBCFCEEACE1247F67C037DEA58
:101BC3001247F69002F3ECF0A3EDF09002F3E0FE7F
:101BD300A3E0FFC394F5EE9401403074E99FF074E1
:101BE300039E9002F3F0900285E0FEA3E0F5828E5F
:101BF3008374FD9375F00384AFF09002EDE4F0A3DA
:101C0300EFF090021EE04480F08032900285E0FE07
:101C1300A3E0F5828E8374FC9375F00384AFF09098
:101C230002EDE4F0A3EFF090021EE0B4810FE5179C
:101C3300B40F037402F0E49002F3F0A3F090021ED9
:101C4300E0540F64016007E49002F3F0A3F0900204
:101C5300EDE07002A3E0705DF51875F003E517A4DD
:101C63002518F582E435F0F583E5822425F582E530
:101C7300833402F583E0FF7E009002F3E0FCA3E0EF
:101C8300FD124ADAE47BF47A01F9F81249A475F0FB
:101C930003E517A42518F582E435F0F583E58224DE
:101CA30025F582E5833402F583EFF00518E518B4D2
:101CB30003A8021DC29002EDE07004A3E06401607A
:101CC30003021D4F9002F3E0FEA3E0FF7C007DFFC3
:101CD300124ADAE47BF47A01F9F81249A4743E2F2C
:101CE300F58274793EF583E493FF9002F3E4F0A365
:101CF300EFF0E4F51875F003E517A42518F582E471
:101D030035F0F583E5822425F582E5833402F583F6
:101D1300E0FF7E009002F3E0FCA3E0FD1247E47CC9
:101D2300007DFF1247F675F003E517A42518F58229
:101D3300E435F0F583E5822425F582E5833402F565
:101D430083EFF00518E518B403AB80739002F3E05A
:101D5300FEA3E02449F58274773EF583E493FF9074
:101D630002F3E4F0A3EFF0E4F51875F003E517A42C
:101D73002518F582E435F0F583E5822425F582E51F
:101D8300833402F583E0FF7E009002F3E0FCA3E0DE
:101D9300FD1247E47C007DFF1247F675F003E5175B
:101DA300A42518F582E435F0F583E5822425F58230
:101DB300E5833402F583EFF00518E518B403AB901F
:101DC30002EB7401F0021FAB900223E064C87003BE
:101DD300021FAB74552517F582E43402F583E0FF47
:101DE300900220E0FEEF6E6003021EE99002EB0416
:101DF300F0900285E0FEA3E0F5828E8374FC93FFEE
:101E0300C3741F9FFFE49400FE9002EDF0A3EFF074
:101E1300D3940AEE64809480401D9002EDE0FEA30B
:101E2300E0FF7C007D0A1247E4EF24A6FFEE34FFB7
:101E33009002EDF0A3EFF074752517F582E43402F8
:101E4300F583E0FFC374FF9FFFE49400FE9002ED6F
:101E5300E0FCA3E0FDC39FEE6480F8EC648098503F
:101E630013CFEDCF74752517F582E43402F583E0C3
:101E73002FF0800E74752517F582E43402F5837410
:101E8300FFF0E4F51875F003E517A42518F582E4CF
:101E930035F0F583E5822425F582E5833402F58365
:101EA300E0FF7E0074752517F582E43402F583E0C4
:101EB30090793E93FD7C001247E47DFF1247F6754F
:101EC300F003E517A42518F582E435F0F583E582E0
:101ED3002425F582E5833402F583EFF00518E51830
:101EE300B403A2021FAB900285E0FEA3E0F5828E4D
:101EF3008374FD932401FDE433FC74752517F58287
:101F0300E43402F583E0FBFF7E0012484B9002EDC0
:101F1300EEF0A3EFF0EB60119002EDE07002A3E0AE
:101F230070079002EDF0A304F074752517F582E4B1
:101F33003402F583C083C082E0FF9002EDA3E0FD8D
:101F4300CEEDCEC3EF9ED082D083F0E4F51875F0CA
:101F530003E517A42518F582E435F0F583E582241B
:101F630025F582E5833402F583E0FF7E0074752551
:101F730017F582E43402F583E0FD7C001247E47D2B
:101F8300FF1247F675F003E517A42518F582E4352B
:101F9300F0F583E5822425F582E5833402F583EFAA
:101FA300F00518E518B403A674402517F582E43448
:101FB30001F583E07003022044900285E0FCA3E076
:101FC3002517F582E43CF5837460932401FDE43323
:101FD300FC74652517F582E43402F583E0FBFFC347
:101FE30074FF9FFFE49400FE12484B9002EDEEF065
:101FF300A3EFF0C374FF9B60119002EDE07002A3A6
:10200300E070079002EDF0A304F09002EDA3E0FF6F
:1020130074652517F582E43402F583E02FF090020E
:1020230085E0FCA3E02517F582E43CF583748093F7
:10203300FF9002ECE0D39F5003022104EFF0022152
:1020430004900285E0FCA3E02517F582E43CF583C8
:102053007470932401FDE433FC74652517F582E461
:102063003402F583E0FBFF7E0012484B9002EDEE55
:10207300F0A3EFF0EB60119002EDE07002A3E070CB
:10208300079002EDF0A304F074652517F582E4349C
:1020930002F583C083C082E0FF9002EDA3E0FDCE92
:1020A300EDCEC3EF9ED082D083F0E4F51875F00334
:1020B300E517A42518F582E435F0F583E582242598
:1020C300F582E5833402F583E0FF900221E0FEEF21
:1020D3008EF0A4FFAEF07C007DFF1247F675F0038F
:1020E300E517A42518F582E435F0F583E582242568
:1020F300F582E5833402F583EFF00518E518B403A0
:10210300AC900285E0FEA3E0F5828E8374F39370B6
:10211300030222C274F29320E1030222C2900285D9
:10212300E0FCA3E0FDF5828C8375F003E517124A0A
:10213300CE743093FF8D828C8375F003E517124ABA
:10214300CE743193FD900285E0FAA3E0F5828A8391
:1021530075F003E517124ACE743293C0E09002FB88
:102163007401F0A37402F0A374EFF0A37401F0A35D
:102173007402F0A374F1F0A37401F0A37402F0A34A
:1021830074F3F0D0E0FB125F98900285E0FEA3E0C9
:10219300F5828E8374F393FFCBEFCBE4FAF9F890D7
:1021A30001FDE0FCA3E0FDA3E0FEA3E0FF1249A4D0
:1021B300E47BEA7A03F9F81249A4CCE8CCCDE9CD63
:1021C300CEEACECFEBCF9002F0E02FF09002EFE01B
:1021D3003EF0C3A3E094EA9002EFE09403400CA323
:1021E300E02416F09002EFE034FCF09002EFE0FE02
:1021F300A3E0FFA3E0FCA3E0FD9002FE7401F0A3C3
:102203007402F0A374F5F0A37401F0A37402F0A3B5
:1022130074F6F0A37401F0A37402F0A374F7F090C2
:1022230002F3E0FAA3E0FB125C0E9002F5E0FFE597
:102233001775F003A42425F582E43402F583E0FD49
:10224300C3EF9DFFE49400FE74652517F582E43423
:1022530002F583E0FD7C001247E47DFF12484BE565
:102263001775F003A42425F582E43402F583E02FE7
:10227300F09002F6E0FFE51775F003A42426F5823B
:10228300E43402F583E0FDC3EF9DFFE49400FE74A4
:10229300652517F582E43402F583E0FD7C001247DF
:1022A300E47DFF12484BE51775F003A42426F5825D
:1022B300E43402F583E02FF09002F7E002238490E8
:1022C3000285E0FAA3E0FBF5828A8375F003E51744
:1022D300124ACE743093FFE51775F003A42425F555
:1022E30082E43402F583E0FDC3EF9DFFE49400FE36
:1022F30074652517F582E43402F583E0FD7C001252
:1023030047E47DFF12484BE51775F003A42425F538
:1023130082E43402F583E02FF08B828A8375F00325
:10232300E517124ACE743193FFE51775F003A42421
:1023330026F582E43402F583E0FDC3EF9DFFE494C8
:1023430000FE74652517F582E43402F583E0FD7C15
:10235300001247E47DFF12484BE51775F003A424F0
:1023630026F582E43402F583E02FF0900285E0FE47
:10237300A3E0F5828E8375F003E517124ACE74321B
:1023830093FFE51775F003A42427F582E43402F5DF
:1023930083E0FDC3EF9DFFE49400FE74652517F50C
:1023A30082E43402F583E0FD7C001247E47DFF12F2
:1023B300484BE51775F003A42427F582E43402F5AE
:1023C30083E02FF00517E517C3941050030219ECAF
:1023D3009002EBE0700A90021EE0540F6401603734
:1023E300900285E0FEA3E0F5828E8374F59370037B
:1023F30074F49360289001FDE0FCA3E0FDA3E0FEEC
:10240300A3E0FF900218E0F8A3E0F9A3E0FAA3E049
:10241300FBC3124A5A700690021E7402F090022106
:10242300E0FB9002ECE0FAD39B4074900285E0FE5F
:10243300A3E0F5828E8374FE93FF741F9FFFE494E1
:1024430000FE9002EDF0A3EFF0D3940AEE648094C3
:1024530080401D9002EDE0FEA3E0FF7C007D0A12A8
:1024630047E4EF24A6FFEE34FF9002EDF0A3EFF074
:10247300EBFFEAC39FFFE49400FE9002EDE0FCA3B0
:10248300E0FDC39FEE6480F8EC648098500BCFEDC1
:10249300CF900221E02FF0805C9002ECE08052901C
:1024A3000221E0FF9002ECE0FEC39F5048EEFDC323
:1024B300EF9DFFE49400FE900285E0FCA3E0F5822B
:1024C3008C8374FF932401FDE433FC12484B900288
:1024D300EDEEF0A3EFF04E70079002EDF0A304F0E1
:1024E300900221E0FF9002EDA3E0FDCEEDCEC3EF1D
:1024F3009E900221F0900111E0FEA3E024FEF582FC
:10250300EE3401F583E493FF705EF517E51775F07C
:1025130003A42425F582E43402F583E0FEE5177570
:10252300F003A42425F8EEF6E51775F003A424269A
:10253300F582E43402F583E0FEE51775F003A42485
:1025430024F8EEF6E51775F003A42427F582E434A6
:1025530002F583E0FEE51775F003A42426F8EEF6F2
:102563000517E517B410A522EF6403706AF517E5A4
:1025730017907E8B9375F003A42425F582E434022F
:10258300F583E0FFE51775F003A42425F8EFF6E5DE
:1025930017907E8B9375F003A42426F582E434020E
:1025A300F583E0FFE51775F003A42424F8EFF6E5BF
:1025B30017907E8B9375F003A42427F582E43402ED
:1025C300F583E0FFE51775F003A42426F8EFF6057D
:1025D30017E517B4109922900111E0FEA3E024FE41
:1025E300F582EE3401F583E493FF64027075F51709
:1025F300C37410951775F003A42425F582E43402FF
:10260300F583E0FEE51775F003A42425F8EEF6E55F
:1026130017FDC374109DFDE49400FC90022675F031
:1026230003ED124ACEEC75F003A42583F583E0FE97
:10263300E51775F003A42424F8EEF690022775F04D
:1026430003ED124ACEEC75F003A42583F583E0FE77
:10265300E51775F003A42426F8EEF60517E517B47D
:10266300108E22EF64017069F517E517907E7B9356
:1026730075F003A42425F582E43402F583E0FFE535
:102683001775F003A42425F8EFF6E517907E7B93E6
:1026930075F003A42426F582E43402F583E0FFE514
:1026A3001775F003A42424F8EFF6E517907E7B93C7
:1026B30075F003A42427F582E43402F583E0FFE5F3
:1026C3001775F003A42426F8EFF60517E517B410E1
:1026D3009922E49002D7F0A3F0A3F0A3F09003347F
:1026E300F0900332F0900331F090030AF0C874B312
:1026F300C8CC7402CCCD7401CD7B017A03791CFE66
:102703007F1512475D7E007F157D007B017A03797B
:102713001C124B0790030CE09002AEF07E007F0486
:102723007D007B017A03790C124B0790031174101F
:10273300F07E007F047DFF7B017A037913124B0740
:10274300900319E09002B0F0E4900319F0900000B8
:10275300E0C43354E02411F582E43400F583E0FE51
:10276300A3E04E70037FFF229002A7E0604824D4C9
:10277300F582E43401F583E060229002A7E0243F70
:10278300F582E43401F583E070129002C9E054034A
:102793006003E014F09002C9E04404F09002C8E042
:1027A3007F0070027F019002C8EFF070030232AD28
:1027B3001240800232ADE49002DAF09002DAE0FFD8
:1027C300C39410400302287A74402FF582E4340145
:1027D300F583E07003022871900000E0C43354E0F5
:1027E3002411F582E43400F583C083C0829002DAB9
:1027F300E0D082D08375F002124ACEE0FCA3E0F56C
:10280300828C83740193FEB4010E9002B1E0FDEF5C
:102813006D60059002D78053EEB402119002B1E0CF
:10282300FF9002DAE06F60059002D8803E900000CE
:10283300E0C43354E02411F582E43400F583C0830B
:10284300C0829002DAE0FFD082D08375F002124A90
:10285300CEE0FCA3E0F5828C83740193B4070F9060
:1028630002B1E0FEEF6E60069002D9E004F0900240
:10287300DAE004F00227BEE49002DAF09002DAE034
:10288300FFC394104003022E8A9002B1E0FEEF6E64
:1028930070549002DAE02440F582E43401F583E0D9
:1028A3006003022E8174D52FF582E43401F583E0B1
:1028B3006003022E819002AAE004F0E0D3940A5050
:1028C30003022E81E4F09002DAE02403FF9002AFCA
:1028D300E0FD126A289002ADE0FF126EB59002B1DE
:1028E30074FFF0022E819002DAE0FF2440F582E4C7
:1028F3003401F583E07003022D5F900000E0C433E0
:1029030054E02411F582E43400F58375F002EF12EC
:102913004ACEE0FEA3E0FFF5828E83740193B401F7
:1029230006126A17022E81900000E0C43354E0249B
:1029330011F582E43400F583C083C0829002DAE0AB
:10294300D082D08375F002124ACEE0FEA3E0FFF5F9
:10295300828E8374019364027040126A1790031C81
:10296300E0FF900000E0C43354E02411F582E43426
:1029730000F583C083C0829002DAE0D082D08375F1
:10298300F002124ACEE0FCA3E0F5828C8374039339
:10299300FEEF4E90031CF0022E81900000E0C43342
:1029A30054E02411F582E43400F583C083C082909F
:1029B30002DAE0FFD082D08375F002124ACEE0FC47
:1029C300A3E0FDF5828C8374019364037055900238
:1029D300D7E06003022E81A3E06003022E81A3E00F
:1029E3006003022E8174D52FF582E43401F583E070
:1029F3006003022E819002DAE0049002A7F0ED2436
:102A030003FEE43C9002ABF0A3CEF0E49002A5F009
:102A1300A3F09002C97402F09002C814F01240802F
:102A2300022E81900000E0C43354E02411F582E4C7
:102A33003400F583C083C0829002DAE0D082D08371
:102A430075F002124ACEE0FEA3E0F5828E83740194
:102A530093FF64046008EF64056003022BEE9002A9
:102A6300DAE0FF24D5F582E43401F583E0700D74D8
:102A7300012FF582E43400F5837402F0900000E046
:102A8300C43354E02411F582E43400F583C083C0D9
:102A9300829002DAE0D082D08375F002124ACEE04F
:102AA300FEA3E02402FFE43E8F82F583E493FE74E9
:102AB3000193FFE4FCFDFB7A80F9F8124919ECC09D
:102AC300E0EDC0E0EEC0E0EFC0E0900111E0FEA356
:102AD300E024FAF582EE3401F583E493FE74019366
:102AE300FFCBEFCBCAEECAE4F9F8D0E0FFD0E0FEAB
:102AF300D0E0FDD0E0FC1274559002DBEEF0A3EFC2
:102B0300F0900000E0C43354E02411F582E4340073
:102B1300F583C083C0829002DAE0D082D08375F05F
:102B230002124ACEE0FEA3E02404FFE43E8F82F5C6
:102B330083E493FE740193FFE4FCFDFB7A80F9F8D0
:102B4300124919ECC0E0EDC0E0EEC0E0EFC0E09048
:102B53000111E0FEA3E024FCF582EE3401F583E4E9
:102B630093FE740193FFCBEFCBCAEECAE4F9F8D01E
:102B7300E0FFD0E0FED0E0FDD0E0FC1274559002FF
:102B8300DDEEF0A3EFF09002DBE0FCA3E0FDCFED80
:102B9300CF900313F0ECA3F09002DDE0FCA3E0FD83
:102BA300CFEDCF900315F0ECA3F0900000E0C43319
:102BB30054E02411F582E43400F583C083C082908D
:102BC30002DAE0FFD082D08375F002124ACEE0FC35
:102BD300A3E0F5828C83740193B40507900311E09D
:102BE3004401F0900312EFF0022E81900000E0C444
:102BF3003354E02411F582E43400F583C083C082AA
:102C03009002DAE0FFD082D08375F002124ACEE060
:102C1300FCA3E0F5828C8374019364066003022CA9
:102C2300F674039320E703022E819002B1E0F4606F
:102C330003022E8174D52FF582E43401F583E0601D
:102C430003022E81900000E0C43354E02411F58286
:102C5300E43400F583C083C0829002DAE0D082D0EE
:102C63008375F002124ACEE0FCA3E0FDF5828C836B
:102C73007402939002AFF0900000E0FF049002AD65
:102C8300F074132FF582E43401F583E09002DFF052
:102C93008D828C83740393FF126EB5900000E02441
:102CA30013F582E43401F583E02404FF9002DFE0AE
:102CB300FEC3EF9E5403FF70069002DAE0802DEF0F
:102CC300B4010A9002DAE0907E7B93801FEFB40296
:102CD3000B9002DAE0FFC374109F8010EF6403606F
:102CE30003022E8A9002DAE0907E8B939002B1F079
:102CF300022E8A900000E0C43354E02411F582E4EC
:102D03003400F583C083C0829002DAE0FFD082D022
:102D13008375F002124ACEE0FCA3E0FDF5828C83BA
:102D230074019364076003022E8174D52FF582E446
:102D33003401F583E06003022E818D828C8374035A
:102D43009330E003022E819002DAE02401F582E45D
:102D53003400F583E04402F0EF022E569002DAE0ED
:102D6300FF24D5F582E43401F583E0FE7003022EDF
:102D730081900000E0C43354E02411F582E4340070
:102D8300F58375F002EF124ACEE0FCA3E0F5828CE6
:102D930083740193FFB40519EE7003022E81900230
:102DA300DAE02401F582E43400F5837401F0022EA5
:102DB30081EF64067041900000E0C43354E02411B5
:102DC300F582E43400F583C083C0829002DAE0D058
:102DD30082D08375F002124ACEE0FEA3E0F5828E24
:102DE30083740393FF30E703022E819002B174FFD3
:102DF300F0126EB5022E81900000E0C43354E0243B
:102E030011F582E43400F583C083C0829002DAE0D6
:102E1300FFD082D08375F002124ACEE0FCA3E0F526
:102E2300828C83740193FE6407704C74039330E0C7
:102E33003374012FF582E43400F583E0FF20E124AD
:102E43009002DAE0FD2401F582E43400F583EF44D7
:102E530002F0ED25E0241BF582E43401F583E4F070
:102E6300A3F0801A9002DAE02401F582E43400F53D
:102E730083E054FDF08007EEB408037F0122900243
:102E8300DAE004F002287FE49002DAF09002DAE05C
:102E9300FFC3941040030230A8900000E0C43354F1
:102EA300E02411F582E43400F58375F002EF124A51
:102EB300CEE0FEA3E0F5828E83740193FF64046089
:102EC30008EF6405600302309F900000E0C43354B0
:102ED300E02411F582E43400F583C083C0829002BC
:102EE300DAE0D082D08375F002124ACEE0FEA3E08E
:102EF300F5828E83740393FF64016008EF640260BC
:102F03000302309F900000E0C43354E02411F582A3
:102F1300E43400F583C083C0829002DAE0D082D02B
:102F23008375F002124ACEE0FEA3E02402FFE43EE2
:102F33008F82F583E493FE740193FFE4FCFDFB7A37
:102F430080F9F8124919ECC0E0EDC0E0EEC0E0EF03
:102F5300C0E0900111E0FEA3E024FAF582EE340113
:102F6300F583E493FE740193FFCBEFCBCAEECAE47F
:102F7300F9F8D0E0FFD0E0FED0E0FDD0E0FC127421
:102F8300559002DBEEF0A3EFF0900000E0C4335461
:102F9300E02411F582E43400F583C083C0829002FB
:102FA300DAE0D082D08375F002124ACEE0FEA3E0CD
:102FB3002404FFE43E8F82F583E493FE740193FFC0
:102FC300E4FCFDFB7A80F9F8124919ECC0E0EDC08E
:102FD300E0EEC0E0EFC0E0900111E0FEA3E024FCCE
:102FE300F582EE3401F583E493FE740193FFCBEF96
:102FF300CBCAEECAE4F9F8D0E0FFD0E0FED0E0FDA2
:10300300D0E0FC1274559002DDEEF0A3EFF09002D5
:10301300DBE0FCA3E0FDCFEDCF900313F0ECA3F0D6
:103023009002DDE0FCA3E0FDCFEDCF900315F0ECC3
:10303300A3F09002DAE0FF900312F0900000E0C4E6
:103043003354E02411F582E43400F58375F002EF84
:10305300124ACEE0FEA3E0F5828E837403936402EA
:1030630070240493900311B40506E04401F0800436
:10307300E054FEF09002DAE02401F582E43400F536
:10308300837403F0801FE4900311F09002DAE024CC
:1030930001F582E43400F583E4F080099002DAE07C
:1030A30004F0022E8FE49002E0F09002DAF0900236
:1030B300DAE0FFC394104003023291900000E0C4B1
:1030C3003354E02411F582E43400F58375F002EF04
:1030D300124ACEE0FEA3E0F5828E83740193640767
:1030E30060030232889001FDE0FCA3E0FDA3E0FE53
:1030F300A3E0FF900287E0F8A3E0F9A3E0FAA3E0DE
:10310300FBD3124A5A40369002DAE0FF25E0241B33
:10311300F582E43401F583E4F0A3F074012FF58222
:10312300E43400F583E054FBF09002DAE02401F587
:1031330082E43400F583E054FDF00232889002DA31
:10314300E0FF2401F582E43400F583E020E103028B
:103153003288900000E0C43354E02411F582E43453
:1031630000F58375F002EF124ACEE0FEA3E0FF24E0
:1031730004FDE43E8D82F583E493FC7401934C706B
:1031830006126A170232519002DAE0FF2401F58237
:10319300E43400F583E0FE30E21174012FF582E49C
:1031A3003400F583EE54FBF00232519001FDA3A3EA
:1031B300E0FEA3E0FF9002DAE025E0241BF582E4C1
:1031C3003401F583E0FCA3E0FDC3EF9DFFEE9CFE1D
:1031D300900000E0C43354E02411F582E43400F598
:1031E30083C083C0829002DAE0D082D08375F0027C
:1031F300124ACEE0FCA3E0FD2404FBE43C8B82F501
:1032030083E493FA740193D39FEA9E50419002DAC8
:10321300E0FF8D828C83740293FDEF2403FF126A17
:10322300289001FDA3A3E0FEA3E0FF9002DAE0FDF6
:1032330025E0241BF582E43401F583EEF0A3EFF0DF
:1032430074012DF582E43400F583E04404F090002A
:1032530000E0C43354E02411F582E43400F583C064
:1032630083C0829002DAE0D082D08375F002124AE2
:10327300CEE0FEA3E0F5828E8374039330E00690E4
:1032830002E0E004F09002DAE004F00230B19001D1
:10329300FDE0FCA3E0FDA3E0FEA3E0FF90028712A4
:1032A3004A919002E0E09002A9F0E4FF120066E484
:1032B300FF125A2B9002A7E070031264909002DA77
:1032C3007401F09002DAE0FF241BF582E43403F585
:1032D30083E0FE74B22FF582E43402F583E06E607E
:1032E3000890030A7401F0800A9002DAE004F0E027
:1032F300B416D09002AEE0FF90030CE06F60028042
:103303001D9002DA7402F09002DAE0FFC3940550D4
:103313001D740B2FF582E43403F583E060089003FA
:10332300317401F080089002DAE004F080D9900251
:10333300DA7403F09002DAE0FFC39407501E7410AE
:103343002FF582E43403F583E0F4600890033274CC
:1033530001F080089002DAE004F080D89002B0E037
:10336300FF900319E06F60069003347401F090023C
:10337300B1E0F4601D90030AE07012900331E07035
:103383000C900332E07006900334E06005E4900291
:10339300AFF09002A8E0B40111E4900334F090037D
:1033A30032F0900331F090030AF07F0022C0E0C0B6
:1033B300F0C083C082C0D075D00820D90302403743
:1033C300E5D9543F7003024026147003023B921464
:1033D300602E24E27003023F99147003023B882499
:1033E300F17003023C05240E600302403375D500DF
:1033F30063D440C20CE5D454FC4402F5D4024033F8
:1034030020DE0302403363D480AFDB9002D2E4F0CA
:10341300A3EFF09002D2A3E0F5D5900317E030E7D5
:103423005790057FE075F040A42400F9740635F049
:10343300FAC8E9C8CCEACCCD7401CD7B017A057911
:10344300007E007F4012475D9005407452F0A374E4
:1034530044F090057FE0FF04F0900542EFF0900503
:103463007EE0FFA3E0C39F5003023B82E4F090039E
:1034730017E0547FF0023B829005407452F09005B0
:1034830001E0900541F0900502E0900542F09005BF
:1034930003E0900543F0900500E0B44410A3E0B4CA
:1034A3004B0BA3E0B44206A3E06443601A9005000B
:1034B300E064447052A3E0644C704CA3E064547025
:1034C30046A3E064437040900504E0C39431403761
:1034D300E0D394385031900501E090057EB44B0B56
:1034E3007408F0900504E024D980097404F0900571
:1034F30004E024ED900317F090057FE4F0900317A8
:10350300E04480F0023B82900500E064437023A313
:10351300E0B44B1EA3E0B45919A3E0B454149005CE
:1035230044E514F0900504E0F514900545E5140214
:1035330037DF900500E06443600302367AA3E0645A
:1035430052600302367AA3E0644B600302367AA327
:10355300E0644D600302367A900153E0FFA3E090EC
:103563000544CFF0A3EFF0900155E0FFA3E09005F1
:1035730046CFF0A3EFF0900164E02401FF900163D4
:10358300E03400FE9001A7E0FCA3E0FDD39FEC9E96
:103593004008CEECCECFEDCF8000900160E024FF59
:1035A300FD90015FE034FFFCC3EF9DEE9C5026903D
:1035B3000164E02401FF900163E03400FE9001A761
:1035C300E0FCA3E0FDD39FEC9E4008CEECCECFED14
:1035D300CF8010800E900160E024FFFF90015FE038
:1035E30034FFFE900153EEF0A3EFF0900166E02468
:1035F30001FF900165E03400FE9001A9E0FCA3E027
:10360300FDD39FEC9E4008CEECCECFEDCF80009053
:103613000162E024FFFD900161E034FFFCC3EF9DF4
:10362300EE9C5026900166E02401FF900165E03492
:1036330000FE9001A9E0FCA3E0FDD39FEC9E4008AF
:10364300CEECCECFEDCF8010800E900162E024FF50
:10365300FF900161E034FFFE900155EEF0A3EFF01F
:10366300900153E0FDA3E0900548CDF0A3EDF0A356
:10367300EEF0A3EF0237DF900500E064436003023E
:10368300379DA3E06452600302379DA3E0644B605F
:103693000302379DA3E0645A600302379D900163E0
:1036A300E0FFA3E0900544CFF0A3EFF090015FE0CB
:1036B300FFA3E0900546CFF0A3EFF0900165E0FF94
:1036C300A3E0900548CFF0A3EFF0900161E0FFA3E2
:1036D300E090054ACFF0A3EFF0900504E0FEA3E0ED
:1036E300FF900153E0FCA3E0FDC3EF9DEE9C40037C
:1036F300023792900506E0FEA3E09DEE9C50030284
:103703003792A3E0FEA3E0FF900155E0FCA3E0FDA8
:10371300EF9DEE9C507990050AE0FEA3E09DEE9CA0
:10372300406D900504E0FFA3E0900163CFF0A3EFA9
:10373300F0900506E0FFA3E090015FCFF0A3EFF068
:10374300900508E0FFA3E0900165CFF0A3EFF090B0
:10375300050AA3E0FF900161EEF0A3EFF0A3E0FD03
:10376300A3E090054CCDF0A3EDF090015FE0FDA345
:10377300E090054ECDF0A3EDF0900165E0FDA3E0F0
:10378300900550CDF0A3EDF0A3EEF0A3EF804D90A4
:10379300054C74FFF0A3F0023B82900500E0644304
:1037A3007044A3E06445703EA3E064437038A3E033
:1037B30064447032A20F33900544F0A210E433A3A3
:1037C300F0900504E024FF920FA3E024FF9210A2DF
:1037D3000FE433900546F0A210E433A3F0900317EF
:1037E3007432F0023B82900500E0B44313A3E0B4CB
:1037F300450EA3E0B44309A3E064467003023B8291
:10380300900500E064427028A3E0B44623A3E0B42B
:10381300571EA3E0B45619C87444C8CC7405CCCD64
:103823007401CD7BFF7A00790E7E007F04023A6B30
:10383300900500E064426003023989A3E0645560A7
:1038430003023989A3E064496003023989A3E06470
:1038530044600302398990057DF090057DE0FF25E2
:10386300E0243CF582E43403F583E0FE74442FF551
:1038730082E43405F583EEF090057DE02444F5827F
:10388300E43405F583E0C39430402790057DE024BC
:1038930044F582E43405F583E0D39439501490055C
:1038A3007DE02444F582E43405F583E024D0F0027E
:1038B300393690057DE02444F582E43405F583E050
:1038C300C39461402690057DE02444F582E43405E9
:1038D300F583E0D39466501390057DE02444F5828C
:1038E300E43405F583E024A9F0804890057DE024C5
:1038F30044F582E43405F583E0C394414026900502
:103903007DE02444F582E43405F583E0D394465006
:103913001390057DE02444F582E43405F583E02427
:10392300C9F0800F90057DE02444F582E43405F569
:1039330083E4F090057DE004F0E0640C600302385A
:103943005D90057DE4F090057DE0FF25E02444F5DE
:1039530082E43405F583E0C454F0FEEF25E024450A
:10396300F582E43405F583E04EFF90057DE02444C1
:10397300F582E43405F583EFF090057DE004F0E093
:10398300B406C3023B82900500E064426003023A3E
:103993003EA3E064496003023A3EA3E0645060033F
:1039A300023A3EA3E064546003023A3E9001A7E06A
:1039B300FFA3E0900544CFF0A3EFF09001A9E0FF4F
:1039C300A3E0900546CFF0A3EFF0A3124A9D0000B9
:1039D300000090057DE4F0900548C083C082E0F8C4
:1039E300A3E0F9A3E0FAA3E0FBE8C0E0E9C0E0EA62
:1039F300C0E0EBC0E090057DE0F92440F582E434BB
:103A030001F583E0FFE4FCFDFEC8E9C8124A7ED05D
:103A1300E0FBD0E0FAD0E0F9D0E0F8EB4FFFEA4E5C
:103A2300FEE94DFDE84CFCD082D083124A9190050B
:103A33007DE004F0E0B4139F023B82900500E06454
:103A430042702BA3E0B44726A3E0B45021A3E0B413
:103A53004D1CC87444C8CC7405CCCD7401CD7BFF18
:103A63007ADA79007E007F3812475D023B82900547
:103A730000E06442701DA3E0B44418A3E0B447130C
:103A8300A3E0B4430E7B017A0579447D381275EBCC
:103A9300023B82900500E064427028A3E064527008
:103AA30022A3E0B4531DA3E0B454187E007F3C7DF1
:103AB300207B017A057944124B079003177464F055
:103AC300023B82900500E064427028A3E0644270E8
:103AD30022A3E0B44F1DA3E0B454187E007F3C7DC5
:103AE300207B017A057944124B079003177465F024
:103AF300023B82900500E064427054A3E06443708B
:103B03004EA3E064537048A3E064437042FE7F3CDD
:103B13007D207B017A057944124B07900000E02455
:103B230031900544F0900504E0C394314019E0D38B
:103B330094385013E0900545F024CF900600F090A0
:103B430003177466F0803890054574FFF080309059
:103B53000500E0B44217A3E0B44212A3E0B4550D4C
:103B6300A3E0B45A089003177467F08012900540DD
:103B73007452F0A37449F0A3744EF0A37456F05337
:103B8300D4FC02403375D30063D240C20B8068AFCC
:103B9300DB9002D2E4F0A3EFF09002D2E0FEA3E0C8
:103BA300FF4E6053D3EF9402EE9400504A9002D23A
:103BB300A3E0247FF58274053EF583E0FF7E009049
:103BC30002D2EEF0A3EFF07F0020E0027F01EF24AA
:103BD300FFB3920A9002D2E0FEA3E0FF7D0020E152
:103BE300027D01ED24FFB3920DEF7F0020E2027FFF
:103BF30001EF24FFB39209E5D254FC4402F5D2024B
:103C0300403375DCC0AFDB9002D2E4F0A3EFF09059
:103C130002D2E07004A3E064086003023F6E9004E4
:103C2300C7E0FE9004C6E07C002400FFEC3E900356
:103C330037F0A3EFF09002D2E4F0A3F09002D1F0BA
:103C43009004C1E0900339F09004C0E05460601A1E
:103C5300900339E01424FD4003023F7424FB24FD48
:103C63004003023F748000023F6E900339E0B40BBF
:103C7300004003023F6C903C80F8282873023F41C8
:103C8300023E70023F6C023EC0023F6C023E2D02B8
:103C93003CA1023F6C023E39023E5E023F74900437
:103CA300C3E024FE602B14604224E17003023D67ED
:103CB30024216003023DA690035674FFF0A3747C95
:103CC300F0A374CEF09002D2E4F0A37412F0023D9C
:103CD300AC90035674FFF0A3747EF0A37425F090A8
:103CE30002D2E4F0A37449F0023DAC9004C2E014A4
:103CF300602714603D14605324036003023DA690C3
:103D0300035674FFF0A3747CF0A374E0F09002D226
:103D1300E4F0A37404F0023DAC90035674FFF0A3E7
:103D2300747CF0A374FAF09002D2E4F0A37424F04C
:103D3300807790035674FFF0A3747CF0A374E4F0CF
:103D43009002D2E4F0A37416F0805E9003567401DF
:103D5300F0A37403F0A3743AF09002D2E4F0A374D6
:103D63001AF080459004C4E0FF701990035674FF65
:103D7300F0A3747DF0A3741EF09002D2E4F0A37458
:103D8300E5F08025EFB4011990035674FFF0A37496
:103D93007EF0A37403F09002D2E4F0A37422F080C7
:103DA3000880009002D174FFF09002D2E0FEA3E0FD
:103DB300FFD3900338E09F900337E09E4005EEF079
:103DC300A3EFF0900337E0FEA3E0FFC39440EE942B
:103DD30000400C7C007D40CEECCECFEDCF80009038
:103DE30002D2EEF0A3EFF09002D2E0FEA3E0FFC810
:103DF30074C0C8CC7404CCCD7401CD900356E0FBE1
:103E0300A3E0FAA3E0F912475D9002D2E0FEA3E03B
:103E1300FFC3900338E09FF0900337E09EF09003D8
:103E230057EE8FF0124881023F749004C2E0FF9076
:103E33000337E4023F66900336E09004C0F0C3907A
:103E43000338E09401900337E094005003023F7479
:103E53009002D2E4F0A304F0023F749004C2E09015
:103E63000336F07003023F74D20E023F749004C015
:103E7300E0541FFF640270359004C4E014601E1404
:103E830060202481600D14701EE5D454BC4402F5F7
:103E9300D4801AE5D254BC4402F5D2801053D273B5
:103EA300800B53D47380069002D174FFF0EF700A35
:103EB300900335E054FEF0023F74023F6E9004C05D
:103EC300E0541FFD70269004C3E0FE9004C2E0FBA3
:103ED300EB64014E7014907E2C9330E50A90033509
:103EE300E04401F0023F74023F6E807FED64027094
:103EF3004B9004C3E0FE9004C2E0FDED4E703B9096
:103F030004C5E0FE9004C4E0FDEDFFEE702AEF244B
:103F1300FE60112481601714701EE5D454BF44035E
:103F2300F5D4804DE5D4547F440CF5D48043E5D2D9
:103F330054BF4403F5D280398031802F802D900403
:103F4300C1E4F09004C0F0900337E0FEA3E0FFC3A8
:103F53009402EE94009002D24008E4F0A37402F0BD
:103F6300800FEEF0A3EFF0800880009002D174FF81
:103F7300F09002D1E0B4FF0675DCCF02403390022B
:103F8300D2E0FEA3E0FF4E60048FDD800375DD0009
:103F930075DCC0024033900339E024FB606E14707B
:103FA3007A900337E0FEA3E0FFC39440EE94004011
:103FB3000C7C007D40CEECCECFEDCF80009002D2C2
:103FC300EEF0A3EFF09002D2E0FEA3E0FFC874C0CE
:103FD300C8CC7404CCCD7401CD900356E0FBA3E0B0
:103FE300FAA3E0F912475D9002D2E0FEA3E0FFC31B
:103FF300900338E09FF0900337E09EF0900357EE74
:104003008FF01248818FDD63DC408024900337A357
:10401300E0FFE5E354804FF5E3800375DD0075DCD5
:1040230002800DAFDB9002D2E4F0A3EFF063DC80FB
:10403300C2D9803E30D81F75DC0275D20275D40216
:1040430075E300C2DAC2D9C20EC20BC20C900335AB
:10405300E4F0C2D8801C30DA16C2DAE5DA90033510
:1040630030E206E04402F08009E054FDF08003757D
:10407300D8FFD0D0D082D083D0F0D0E0329002E10C
:104083007403F09001FDE0FCA3E0FDA3E0FEA3E0D8
:10409300FF90028FE0F8A3E0F9A3E0FAA3E0FBD3DB
:1040A300124A5A400A90028B124A9D000000009067
:1040B30001FDE0FCA3E0FDA3E0FEA3E0FF90028F7F
:1040C300124A919001FDE0FCA3E0FDA3E0FEA3E012
:1040D300FF90028BE0F8A3E0F9A3E0FAA3E0FBD39F
:1040E300124A5A400C9002A87401F0E49002C8F0FE
:1040F30022E49002A8F09002E6F0A3F09002A7E079
:10410300FF603B900000E075F020A4240FF582E5EA
:10411300F03400F58375F002EF124ACEE0FEA3E01F
:10412300FFF5828E83740293FD7C00EF2403FFE48A
:104133003EFEEF2DFFEC3E9002E6F0A3EFF090027F
:10414300E1E0C39416400302468C9002E6E0FEA32E
:10415300E0FF9002ABE0FCA3E0FDC39FEC9E4004B4
:10416300E40245438D828C83E493FFB4EA31ED246A
:1041730001FBE43C8B82F583E493FE54019002C877
:10418300F0EE30E1099002ACE0240202432E9002EB
:10419300ACE004F070069002ABE004F002467BEF63
:1041A30064EB60030242CBED2401FFE43C8F82F514
:1041B30083E493FBB4021EED2404FEE43C900293DB
:1041C300F0A3CEF09002ACE02404F09002ABE03414
:1041D30000F002467B9002A6E004F070069002A570
:1041E300E004F0ED2402FFE43C8F82F583E493FEC8
:1041F300ED2403FDE43C8D82F583E493FDEDFF9014
:1042030002E2EEF0A3EFF0EB600B9002C9E030E2C4
:1042130004540360339002ABE0FEA3E02401FFE407
:104223003E8F82F583E49370079002C9E020E21881
:104233009002E2E0FEA3E0FF4E60149002A5E0FCD2
:10424300A3E0C39FEC9E40079002C9E04480F09036
:1042530002C9E0FF30E7279002ACE02403F09002AC
:10426300ABE03400F0EF547B9002C9F0E49002A578
:10427300F0A3F074FF900293F0A3F002467B900248
:1042830093E0FEA3E0FFF47002EEF460069002AB4D
:10429300EE8030900000E075F020A4240FF582E555
:1042A300F03400F583C083C0829002A7E0D082D0AF
:1042B3008375F002124ACEE0FEA3E02403FFE43E3E
:1042C3009002ABF0A3EFF0229002ABE0FEA3E0F587
:1042D300828E83E49364FE705B9002ABE0FCA3E008
:1042E300FD2401FFE43C8F82F583E493FEED240279
:1042F300FDE43C8D82F583E493FDEDFF9002E9EE4E
:10430300F0A3EFF0E4FCFD9001FDE0F8A3E0F9A3D6
:10431300E0FAA3E02FFFEA3EFEED39FDEC38FC9016
:10432300028B124A919002ACE02403F09002ABE0BE
:104333003400F0229002ABE0FEA3E0F5828E83E42A
:1043430093FC64FD70619002E1E0FFD394034003AA
:1043530002468C90030CE0600302468C9002AB751E
:10436300F00112488185F082F583E493FD126A28F7
:104373009002ABE475F00112488185F082F583E485
:104383009390031CF09002E6E0FEA3E0FF9002ABE3
:10439300E475F001124881FAEF65F07002EE6A608D
:1043A3000302468C024543EC64EC60149002ABE0DC
:1043B300FEA3E0F5828E83E49364ED600302454837
:1043C3009002E1E0D39403400302468C90030CE097
:1043D300600302468C9002ABE0FCA3E0FD2401FFE6
:1043E300E43C8F82F583E493FEED2402FDE43C8DEF
:1043F30082F583E493FDEDFF9002E2EEF0FCA3EF80
:10440300F0CCCCCDCD9002ABE0FAA3E0FB2403FFCC
:10441300E43A8F82F583E493FEEB2404FBE43A8BC6
:1044230082F583E493FBEBFF9002E4EEF0A3EFF05D
:10443300CFEDCFCEECCEE4FCFDFB7A80F9F8124948
:1044430019ECC0E0EDC0E0EEC0E0EFC0E090011178
:10445300E0FEA3E024FAF582EE3401F583E493FE53
:10446300740193FFCBEFCBCAEECAE4F9F8D0E0FFB7
:10447300D0E0FED0E0FDD0E0FC1274559002E2EEF5
:10448300F0A3EFF0A3E0FEA3E0FFE4FCFDFB7A80E2
:10449300F9F8124919ECC0E0EDC0E0EEC0E0EFC05E
:1044A300E0900111E0FEA3E024FCF582EE3401F577
:1044B30083E493FE740193FFCBEFCBCAEECAE4F916
:1044C300F8D0E0FFD0E0FED0E0FDD0E0FC12745560
:1044D3009002E4EEF0A3EFF09002E2E0FCA3E0FD33
:1044E300CFEDCF900313F0ECA3F09002E4E0FCA334
:1044F300E0FDCFEDCF900315F0ECA3F09002ABE01D
:10450300FEA3E0F5828E83E493B4ED07900311E0FC
:104513004401F09002ACE02404F09002ABE03400DC
:10452300F09002E6E0FEA3E0FF9002ABE475F00139
:10453300124881FCEF65F07002EE6C600302468C5A
:104543009002A7F0229002ABE0FEA3E0F5828E83F7
:10455300E49364FA60030245FA9002E87403F0F00E
:104563009002E1E0FC9002E8E0FFC39C502A900235
:10457300ABE0FAA3E0F5828A83E493FE741B2FF584
:1045830082E43403F583E06E70069002E8F080085D
:104593009002E8E004F080C89002E8E0700302466D
:1045A3008C90030CE0600302468C90031CE06019BE
:1045B3009002E1E0FF04F09002ABE475F0011248D1
:1045C3008185F082F583024675EC6403600302463D
:1045D3008C9002E1E0FF04F09002ABE475F001126D
:1045E300488185F082F583E493FD126A2890031CC9
:1045F300E04402F002467B9002E87403F0F090027C
:10460300E1E0FC9002E8E0FFC39C502A9002ABE09B
:10461300FAA3E0F5828A83E493FE741B2FF582E408
:104623003403F583E06E70069002E8F08008900290
:10463300E8E004F080C89002E8E0604D90030CE0ED
:10464300704790031CE070149002E1E0FF04F090C7
:1046530002ABE0FAA3E0F5828A838016ECB4032967
:104663009002E1E0FF04F09002ABE0FCA3E0F582EE
:104673008C83E493FD126A289002ACE004F0700688
:104683009002ABE004F002414122E709F608DFFAA9
:104693008046E709F208DFFA803E88828C83E709C7
:1046A300F0A3DFFA8032E309F608DFFA8078E30942
:1046B300F208DFFA807088828C83E309F0A3DFFAC3
:1046C300806489828A83E0A3F608DFFA80588982AE
:1046D3008A83E0A3F208DFFA804C80D280FA80C696
:1046E30080D4806980F28033801080A680EA809A2B
:1046F30080A880DA80E280CA803389828A83ECFAD8
:10470300E493A3C8C582C8CCC583CCF0A3C8C58233
:10471300C8CCC583CCDFE9DEE7800D89828A83E4D8
:1047230093A3F608DFF9ECFAA9F0EDFB2289828A5C
:1047330083ECFAE0A3C8C582C8CCC583CCF0A3C878
:10474300C582C8CCC583CCDFEADEE880DB89828AF8
:1047530083E493A3F208DFF980CC88F0EF60010EC5
:104763004E60C388F0ED2402B4040050B9F582EB27
:104773002402B4040050AF23234582239046DD7303
:10478300BB010CE58229F582E5833AF583E02250EB
:1047930006E92582F8E622BBFE06E92582F8E22235
:1047A300E58229F582E5833AF583E49322BB01068A
:1047B30089828A83F0225002F722BBFE01F322F89A
:1047C300BB010DE58229F582E5833AF583E8F02202
:1047D3005006E92582C8F622BBFE05E92582C8F208
:1047E30022EF8DF0A4A8F0CF8CF0A428CE8DF0A4F6
:1047F3002EFE22BC000BBE0029EF8DF084FFADF02E
:1048030022E4CCF875F008EF2FFFEE33FEEC33FC17
:10481300EE9DEC984005FCEE9DFE0FD5F0E9E4CE4D
:10482300FD22EDF8F5F0EE8420D21CFEADF075F01C
:1048330008EF2FFFED33FD4007985006D5F0F22225
:10484300C398FD0FD5F0EA22C2D5EC30E709B2D503
:10485300E4C39DFDE49CFCEE30E715B2D5E4C39FB1
:10486300FFE49EFE1247F6C3E49DFDE49CFC800337
:104873001247F630D507C3E49FFFE49EFE22C5F03E
:10488300F8A3E028F0C5F0F8E582158270021583DD
:10489300E038F022BB010A89828A83E0F5F0A3E0C5
:1048A30022500687F009E71922BBFE07E3F5F0095A
:1048B300E3192289828A83E493F5F074019322BB7E
:1048C300010789828A83024881500B09C5F027F7C3
:1048D300C5F01937F722BBFE0D09F8E325F0F3C540
:1048E300F019E338F322F889828A8374019325F05F
:1048F300C5F0F8E4933822BB010A89828A83F0E584
:10490300F0A3F0225006F709A7F01922BBFE06F325
:10491300E5F009F31922E88FF0A4CC8BF0A42CFC6A
:10492300E98EF0A42CFC8AF0EDA42CFCEA8EF0A412
:10493300CDA8F08BF0A42DCC3825F0FDE98FF0A4A1
:104943002CCD35F0FCEB8EF0A4FEA9F0EB8FF0A498
:10495300CFC5F02ECD39FEE43CFCEAA42DCE35F0D4
:10496300FDE43CFC2275F008758200EF2FFFEE3367
:10497300FECD33CDCC33CCC58233C5829BED9AECCF
:1049830099E58298400CF582EE9BFEED9AFDEC9939
:10499300FC0FD5F0D6E4CEFBE4CDFAE4CCF9A88243
:1049A30022B800C1B90059BA002DEC8BF084CFCEE8
:1049B300CDFCE5F0CBF97818EF2FFFEE33FEED33A6
:1049C300FDEC33FCEB33FB10D703994004EB99FB6D
:1049D3000FD8E5E4F9FA227818EF2FFFEE33FEED56
:1049E30033FDEC33FCC933C910D7059BE99A400763
:1049F300EC9BFCE99AF90FD8E0E4C9FAE4CCFB227A
:104A030075F010EF2FFFEE33FEED33FDCC33CCC842
:104A130033C810D7079BEC9AE899400AED9BFDEC4D
:104A23009AFCE899F80FD5F0DAE4CDFBE4CCFAE48C
:104A3300C8F922C3E49FFFE49EFEE49DFDE49CFCD1
:104A430022EB9FF5F0EA9E42F0E99D42F0EC648090
:104A5300C864809845F022EB9FF5F0EA9E42F0E9A6
:104A63009D42F0E89C45F022E8600FECC313FCED97
:104A730013FDEE13FEEF13FFD8F122E8600FEFC32F
:104A830033FFEE33FEED33FDEC33FCD8F122ECF0D3
:104A9300A3EDF0A3EEF0A3EFF022A8828583F0D07C
:104AA30083D082124AB4124AB4124AB4124AB4E40A
:104AB30073E493A3C583C5F0C583C8C582C8F0A3B7
:104AC300C583C5F0C583C8C582C822A42582F582E3
:104AD300E5F03583F58322EC8EF0A4CCC5F0CCCD84
:104AE300F8EFA4CEC5F02DFDE43CFCE8A42EC8C528
:104AF300F03DFDE43CFCEFA4FFE5F028FEE43DFDC2
:104B0300E43CFC22EF4E6012EF60010EEDBB010BA3
:104B130089828A83F0A3DFFCDEFA2289F05007F74B
:104B230009DFFCA9F022BBFEFCF309DFFCA9F0229C
:104B3300BB010689828A83E0225002E722BBFE0280
:104B4300E32289828A83E49322E0FCA3E0FDA3E0CD
:104B5300FEA3E0FF22F8E0FBA3A3E0F925F0F0E5D4
:104B630082158270021583E0FA38F022EBF0A3EA93
:104B7300F0A3E9F022D083D082F8E4937012740199
:104B830093700DA3A393F8740193F5828883E47360
:104B93007402936860EFA3A3A380DFE51724DAF51B
:104BA30082E43402F583E00517229002D73007032D
:104BB3009002DAE475F001124B58024B332000E9FE
:104BC3007F2ED2008018EF540F2490D43440D4FFAA
:104BD30030040BEF24BFB41A0050032461FFE5181F
:104BE30060021518051BE51B7002051A30070E90AD
:104BF30002D7E475F001124B58EF0247B002766C0E
:104C03007403D2078003E4C207F5179002D7124B4F
:104C13006FE4F518F51AF51BE51860077F20124BB2
:104C2300E180F57519FFC201C200C202C203C205C9
:104C3300C206C208124BADFF700D3007057F00128C
:104C43004BF2AF1BAE1A22B4255FC2D5C204124B7E
:104C5300ADFF24D0B40A00501A75F00A781830D585
:104C63000508B6FF0106C6A426F620D5047002D2B5
:104C73000380D924CFB41A00EF5004C2E5D2040252
:104C83004DF3D20180C6D20080C0D20280BCD2D5FF
:104C930080BAD20580B47F20124BE1200207740151
:104CA300B5180040F1124B9EFF124BE1024C1BD290
:104CB30008D2068095124B9EFB124B9EFA124B9E16
:104CC300F94A4B700679C47A4E7BFF20022EE51811
:104CD300602A7E008E8275830012478360060EEE83
:104CE300651970F0C2D5EBC0E0EAC0E0E9C0E0EEC0
:104CF300124E3AD0E0F9D0E0FAD0E0FB124B33FF8A
:104D030060AAEBC0E0EAC0E0E9C0E0124BE1D0E00A
:104D13002401F9D0E03400FAD0E0FBE5190460DCAB
:104D2300D519D980877BFF7A4E7936D202809C7958
:104D33001080027908C206C2088008D2D5790A8099
:104D430004790AC2D5E519047002F519E4FAFDFEE7
:104D5300FF124B9EFC7B08200113124B9EFD7B1020
:104D630030000A124B9EFE124B9EFF7B20EC3382D7
:104D7300D592D55013C3E43000069FFFE49EFEE4B2
:104D83002001039DFDE49CFCE4CBF8C201EC700C14
:104D9300CFCECDCCE824F8F870F38017C3EF33FF00
:104DA300EE33FEED33FDEC33FCEB33FB994002FBBA
:104DB3000FD8E9EB300105F8D0E0C448B201C0E0F8
:104DC3000AEC4D4E4F78207B0070C2EAB5190040C3
:104DD300BCC0E0124E3CD0F0D0E0200104C4C0E0DF
:104DE300C4B201C0F0124BCAD0F0D5F0EB024C1B99
:104DF300124B784CB8534D32584C894C4C85424D2C
:104E0300364F4D3E444D3E494C9E434D44554D28EF
:104E1300464D28454D28474EE4504C8D2D4C912E40
:104E23004CB42B4C95234CB2204ECD2A4C4D48000C
:104E3300004CAC3F3F3F00790AA2D5200314300554
:104E430009B910020404B9080104A2D520060250CE
:104E530001042002689202B518005034C0E07F209C
:104E63003003197F30A20272067205500F124E935F
:104E7300C202C206C205C2087F30800F300503E9B3
:104E8300C0E0124BE1300503D0E0F9D0E0B518CC17
:104E93003005177F30B9100C124BE17F58300407EF
:104EA3007F788003B90803124BE13002057F2D029E
:104EB3004BE17F202008F87F2B2006F3229202800B
:104EC300CF286E756C6C2900D201124B9E3001F80D
:104ED300C201781830D50108F6024C4D2D504349D4
:104EE30058124B9E2403B405004001E4904EDF9317
:104EF300124BD2743A124BD2D203751804024D32BC
:104F0300E4FD75F002EDA42400F582E5F034DAF552
:104F130083E493FA740193FBED25E0FFE433FE741D
:104F2300632FF58274013EF583EAF0A3EBF075F08D
:104F330002EDA42404F582E5F034DAF583E493FA70
:104F4300740193FBED25E0FFE433FE745F2FF582DC
:104F530074013EF583EAF0A3EBF075F002EDA424AF
:104F630008F582E5F034DAF583E493FA740193FBF0
:104F7300ED25E0FFE433FE74532FF58274013EF513
:104F830083EAF0A3EBF074632FF58274013EF5839B
:104F9300E0FEA3E0C394FFEE940F4015ED25E0FF80
:104FA300E433FE74632FF58274013EF583E4F0A3CA
:104FB300F0ED25E0FFE433FE745F2FF58274013ECC
:104FC300F583E0FEA3E0FF4E6009D3EF94FFEE9478
:104FD3000F4018ED25E0FFE433FE745F2FF5827474
:104FE300013EF583740FF0A374FFF0ED25E0FFE4B9
:104FF30033FE745F2FF58274013EF583E0FAA3E07C
:10500300FB74632FF58274013EF583E0FEA3E0C3D6
:105013009BEE9A4026ED25E0FFE433FE74632FF503
:105023008274013EF583E4F0A3F0745F2FF582747C
:10503300013EF583740FF0A374FFF0ED25E0FFE468
:1050430033FE74532FF58274013EF583E0FEA3E033
:10505300FF4E6009C3EF94FFEE940F4017ED25E078
:10506300FFE433FE74532FF58274013EF583740815
:10507300F0A3E4F0ED25E0FFE433FE74632FF58243
:1050830074013EF583E0FAA3E0FB74532FF58274B9
:10509300013EF583E0FEA3E0D39BEE9A402AED2583
:1050A300E0FFE433FE745F2FF58274013EF583E085
:1050B300FAA3E0FB74532FF58274013EF583E0FEFF
:1050C300A3E0C39BEE9A4036ED25E0FFE433FE7484
:1050D300632FF58274013EF583E4F0A3F074532F3C
:1050E300F58274013EF5837408F0A3E4F0745F2F36
:1050F300F58274013EF583740FF0A374FFF0ED2580
:10510300E0FFE433FE74632FF58274013EF583E020
:10511300FAA3E0FB74532FF58274013EF583E0FE9E
:10512300A3E0C39BFBEE9AFAED25E0FFE433FE74A4
:105133005B2FF58274013EF583EAF0A3EBF0745321
:105143002FF58274013EF583E0FAA3E0FB745F2F31
:10515300F58274013EF583E0FEA3E0C39BFBEE9A68
:10516300FAED25E0FFE433FE74572FF58274013E18
:10517300F583EAF0A3EBF00DED64026003024F0543
:1051830090DA10E493F51490DA14E493FF13920F7A
:10519300EFC31313921022E49002DBF0A20A33A3AD
:1051A300F0A20DE433A3F0A209E433A3F09002A923
:1051B300E07F0060027F019002DFEFF09002A7E042
:1051C3007F0060027F019002E0EFF0900111E0FEAA
:1051D300A3E024F9F582EE3401F583E493C4540F7C
:1051E30060739002CAE0F8A3E0F9A3E0FAA3E0FB3E
:1051F3009001FDE0FCA3E0FDA3E0FEA3E0C39BFF61
:10520300EE9AFEED99FDEC98C0E0EDC0E0EEC0E053
:10521300EFC0E0900111E0FEA3E024F9F582EE3443
:1052230001F583E493C4540F25E024BEF582E434EE
:105233007CF583E493FE740193FFCBEFCBCAEECAF4
:10524300E4F9F8D0E0FFD0E0FED0E0FDD0E0FCD3FD
:10525300124A5A5017900111E0FEA3E024F9F58297
:10526300EE3401F583E493540FFF70089002247425
:10527300FFF08046EF6043C3940440028037EF148D
:10528300FDC8EDC87E007401088005C333CE33CE5C
:10529300D8F9FF900224E0FCC39FEE6480F8748089
:1052A300984012C8EDC87401088002C333D8FCFFCC
:1052B300C3EC9F8001E4900224F0E49002D7F090C5
:1052C30002D7E0FFC3940340030253F9E0FE9001C9
:1052D30011E0FCA3E0FD24F6F582EC3401F583E54F
:1052E300822EF582E43583F583E493FB540F24DBAC
:1052F300F582E43402F583E0FAEBC413131354018B
:10530300FBEA6BFB74D82EF582E43402F583EBF0F1
:1053130074D82FF582E43402F583E0604BED24F971
:10532300F582EC3401F583E493540F703B9002D77C
:10533300E024D8F582E43402F583C083C082E0FF21
:105343009002D7E0FEED24F3F582EC3401F583E51A
:10535300822EF582E43583F583E493FEEF8EF0A489
:10536300D082D083F00253F09002D7E0FBED24F318
:10537300F582EC3401F583E5822BF582E43583F580
:1053830083E493FD7C00900224E0F9FFC374FF9F44
:10539300FFE49400FE1247E474D82BF582E4340250
:1053A300F583E0FD1247E4CCEECCCDEFCD9002D7F0
:1053B300E0FF900111E0FAA3E024F0F582EA340162
:1053C300F583E5822FF582E43583F583E49389F051
:1053D300A42DFFEC35F0FE7C007DFF1247F6900212
:1053E300D7E024D8F582E43402F583EFF09002D7B6
:1053F300E004F00252C29002D8E0F5A5A3E0F59ACA
:10540300A3E0F5A422011E00011C00C10F011F002F
:10541300011D00C11041035D0041035E00410317FC
:105423000041031A004103330041030A00410331E1
:1054330000410332004103340056031B0100000006
:105443000000000000000000000000000000000059
:10545300000045030B020000000047031003100186
:1054630000000000420318040041033500C10EC1CF
:105473000BC10CC10AC10DC1094401FD00000000AC
:105483000114025401530800080008000800080032
:1054930008000FFF0FFF000000004401A7080008E9
:1054A3000041013B01021000000215000A0212270D
:1054B300104401AB0000000042013E00004201E83D
:1054C3000000420285DC005002750000000000006D
:1054D3000000000000000000000050026500000012
:1054E3000000000000000000000000000050025512
:1054F300000102030405060708090A0B0C0D0E0F31
:1055030060300225000000000000000000000000E1
:105513000000000000000000000000000000000088
:105523000000000000000000000000000000000078
:1055330000000000203024000000000000000000F4
:105543000000000000000000000000000000000058
:105553000000000000000000000000000000000048
:105563000000000000000044021400000000440298
:1055730018FFFF000142021C000041021E0041020D
:105583001F004102200041022100410222FF41028B
:1055930023004102240041000000420111F20041B6
:1055A30002AE004102B0004102A9004402CA000059
:1055B30000004102A7004202AB00004202A5000026
:1055C3004102C9004102C8004102A8004102B1FFE3
:1055D3004102AA004102AF004102AD00440287002C
:1055E30000000044028B0000000044028F00000012
:1055F30000420293FFFF420295000042029700001F
:10560300420299000042029B000042029D000042B8
:10561300029F00004202A100004202A3000000908A
:1056230002D7EFF0E4A3F0EFC3940A403F9002D710
:10563300E0FF94125036EF24F6FFEF25E0FEC3E4BB
:105643009400FF74F29EFE740812614B9002D8EF2F
:10565300F09002D7E024F6FF1262F99002D8E070CE
:10566300030257D09002D7E024FE803B9002D7E09C
:10567300FFC3941E4034EF9426502FEF24E2FFEF34
:10568300FEE42400FFEE34DCFE740412614B90024E
:10569300D8EFF07F011215029002D8E07003025791
:1056A300D09002D7E024F2FD80299002D7E0B432F3
:1056B3002A12682E7B017A0679009002E07401F0C9
:1056C3007F007EDA1261559002D8EFF07003025723
:1056D300D07D187F0312737A0257D09002D7E0B4BB
:1056E300641612772C1274107F647E001276FEE427
:1056F300F5A812002E0257D09002D7E0646560032C
:1057030002578D12772C1274107F647E001276FE7E
:10571300E4F5A875D8FF75E20690035D74AAF090CE
:10572300035E7455F07E007F407D007B017A06792D
:1057330000124B0790063E7480F0A374FEF07B01C9
:105743007A0679009002E07401F0E4FFFE126155DD
:105753009002D8EFF0E4F5FFF5A5F59A75A4FF7F65
:10576300207E031276FEE4F5FFF5A5759AFFF5A4F6
:105773007F207E031276FEE4F5FF75A5FFF59AF50B
:10578300A47F207E031276FE80CB9002D7E064666E
:105793007032900600E0900000F0FD25E0FEC3E4C7
:1057A3009400FF74F29E900111F0A3EFF0EDFEE47C
:1057B3002400FFEE34DC900285F0A3EFF07F0112AA
:1057C3001502800912772C1274101258309002D8E7
:1057D300E06059E4F5FF75A5FFF59AF5A47F96FE01
:1057E3001276FEE4F5A5759AFFF5A47F96FE127670
:1057F300FEE4F5A5F59A75A4FF7F96FE1276FE7575
:10580300A5FFE4F59AF5A47F96FE1276FEE4F5A5CE
:10581300759AFFF5A47F96FE1276FEE4F5A5F59A38
:1058230075A4FF7F96FE1276FEE4F5FF22E4900254
:10583300D9F0A374FFF0A3F0A3F0A37401F0439D88
:10584300209001E7E06009900152E07003025A17CB
:105853009001E6E06009900151E07003025A17904D
:1058630001E5E06009900150E07003025A17E4F586
:10587300FF1269327F01126CF51269327F02126CDA
:10588300F51265E39002DDE0251CF0E4F51DF51C3F
:10589300E0C364809481501275A5FF7401F07F0208
:1058A3007E001276FEE4F5A5801B9002DDE0D36452
:1058B30080948A4010759AFF740AF07F027E00126A
:1058C30076FEE4F59AE49002D9F0FFEF6404602ECB
:1058D300EF640C602974402FF582E43401F583E012
:1058E300FE601274D52FF582E43401F583E0700570
:1058F3009002DAEFF0EE60069002D9E004F00FEFC9
:10590300B410C89002D9E07004A374FFF09002DAD7
:10591300E0FEF4606674402EF582E43401F583E022
:105923007022FFEF64046017EF640C601274402F61
:10593300F582E43401F583E060059002DAEFF00FBD
:10594300EFB410DF9002DAE0FC907F1A93FE90012F
:105953004CE0FDEE2D9002DBF0900144E0FF600F80
:10596300ECC3940850099002DBE0240CF08012EFA2
:10597300600F9002DBE024F4F080069002DB74FFFA
:10598300F09002DBE0FFA3E06F7003025844EFC323
:105993009412504F9002DBE025E0249BF582E4341F
:1059A3007EF583E493F512740193F513AE12FFCBE6
:1059B300EFCBCAEECAE4F9F89002DDE0FF3395E0DD
:1059C300FEFDFC1249197808124A6BE47B03FAF9CD
:1059D300F81249A48E158F16E4FD7F01126F40D291
:1059E300A980289002DBE0FFD394305013EF907E20
:1059F300E993F59E9002DDE0F59CC2A97D01800646
:105A0300E4F59CC2A9FD7F01126F409002DBE0A385
:105A1300F0025844E4F59CC2A9FD7F01126F407562
:105A23009E20E4900317F022E49002EBF0EF601E57
:105A3300E49002A3F09002A1F09002A0F090029FE4
:105A4300F09002EBF09002A4F09002A3F0229002F7
:105A53009FE0FF900111E0FCA3E024E1F582EC3428
:105A630001F583E49325E014FE851CF0A4FDC3EF48
:105A73009D90029FF0E4F51CA3E0FFEE851DF0A4CA
:105A8300FEC3EF9EF0E4F51D9002ECF09002ECE013
:105A9300FF24A1F582E43402F583E0FE749F2FF521
:105AA30082E43402F583E0FFD3EE6480F8EF648090
:105AB3009840089002EB7401F08018C3EE6480F8FC
:105AC300EF64809850089002EB7402F08005E49034
:105AD30002EBF0900111E0FEA3E0F5828E83C08318
